:020000040800F2
:1000000000000220CD260008C9260008BD92000885
:10001000C9260008C9260008C926000800000000FB
:10002000000000000000000000000000C9260008D9
:10003000C926000800000000C9260008AD9200088B
:10004000C9260008C9260008C9260008C9260008D4
:10005000C9260008C9260008C9260008C9260008C4
:10006000C9260008C9260008C9260008F17A000838
:10007000FD7A0008F56C0008097B0008157B000874
:10008000719000085D110108C9260008C926000802
:10009000C9260008C9260008C9260008C926000884
:1000A000C9260008C9260008C9260008C926000874
:1000B000C9260008C9260008C926000891110108B0
:1000C000C92600089D110108C9260008C926000894
:1000D000C9260008458A0008F18A0008A18B00089B
:1000E000C9260008C926000800000000C92600082B
:1000F000C9260008C9260008C9260008C926000824
:10010000C9260008C9260008C9260008C926000813
:10011000518C0008018D0008C96F0008C92600082D
:10012000B16F0008BD6F0008C9260008C926000885
:10013000C9260008C9260008C9260008C9260008E3
:1001400000000000000000000000000000000000AF
:10015000C9260008C9260008C9260008B18D000874
:10016000A9110108C9260008C9260008C9260008E7
:10017000C9260008C9260008C9260008C9260008A3
:10018000C9260008C9260008618E0008118F0008E2
:10019000C9260008C9260008C9260008C926000883
:1001A000C9260008C9260008C9260008C926000873
:1001B00039780008C9260008C9260008C9260008A1
:1001C000C9260008C9260008C9260008C926000853
:1001D000C9260008C9260008C9260008C926000843
:1001E000C9260008C9260008C9260008C926000833
:1001F000C9260008C9260008C9260008C926000823
:10020000C9260008C9260008C9260008C926000812
:10021000C9260008C9260008C9260008C926000802
:10022000C9260008C9260008C926000800000000E9
:10023000C9260008C926000800000000C9260008D9
:10024000C9260008C9260008C9260008C9260008D2
:10025000C9260008C9260008C9260008C9260008C2
:10026000C9260008C9260008C9260008C9260008B2
:10027000C9260008C9260008C18F00080000000038
:10028000C9260008C9260008C92600080000000089
:0802900000000000C92600086F
:1002C0000348044B834202D0034B03B118477047E5
:1002D0008002002480020024000000000548064936
:1002E0000B1AD90F01EBA301491002D0034B03B144
:1002F000184770478002002480020024000000009C
:1003000010B5064C237843B9FFF7DAFF044B13B15D
:100310000448AFF300800123237010BD8002002445
:1003200000000000902A010808B5044B1BB10449E5
:100330000448AFF30080BDE80840CFE700000000AC
:1003400084020024902A0108F8B510EE104AC4F384
:100350000A53B3F57D7FB7EEC07A1ED227EE077B36
:10036000B3F5667F6FD327EE074B27EE043B724B46
:1003700093ED0E5B93ED106B93ED0C0BA7EE050B5D
:1003800093ED145BA4EE060B93ED126BA7EE056BD9
:10039000A6EE030BB7EEC00BF8BD40F22E4293421F
:1003A00054D8654991ED086B27EE066BBDEEC66B20
:1003B00091ED0A5B16EE103A03F500031B1613F0DD
:1003C000020F06EE903A01F1700208BF0A46D80704
:1003D000B8EEE66BA6EE457B27EE076B1AD503F069
:1003E000030301EBC30393ED005B92ED164B27EE85
:1003F000057B27EE065B92ED1A3BA5EE047B26EE0D
:10040000055B92ED184BA6EE034BA4EE057BB7EE11
:10041000C70BF8BD92ED0E4B26EE067B26EE073B92
:1004200092ED0C0B92ED105BA6EE040B92ED144BCB
:10043000A7EE050B92ED127BA6EE047BA7EE030B55
:10044000B7EEC00BF8BDB7EE000AF8BDB3F5FF6F0D
:1004500050D23A4AC4F3836002EB8003C4F316011E
:1004600052F820501E6A186941F40001C4F3C253C7
:100470009940A1FB066705FB01F33A46E0FB012327
:10048000111C43F100550020101A05F0404163EBA8
:10049000010101F04FFFAD0F294B9FED257B05EBCF
:1004A000D47441EC160B14F0020FA3F1700208BFD4
:1004B0001346E90726EE077B27EE076B1ED504F0EF
:1004C000030402EBC40494ED005B93ED164B27EE9E
:1004D000057B27EE065B93ED1A3BA5EE047B26EE2B
:1004E000055B93ED184BA6EE034BA4EE057BB7EE30
:1004F000C70BF8BDBDE8F84000F062B893ED0E3BC5
:1005000026EE065B26EE052B93ED0C7B93ED104B50
:10051000A6EE037B93ED143BA5EE047B93ED125BFB
:10052000A6EE035BA5EE027BB7EEC70BF8BD00BFDE
:10053000182D4454FB21193C801C0108201C010883
:10054000F01C010810B52DED028BB0EE408A044678
:1005500000F042FBB0EE480ABDEC028B046010BD17
:1005600028B1F1EE407A27EE800A2220EAE7F0EE89
:10057000407A27EE800A2220E4E700BF9FED010ABF
:10058000EEE700BF000000109FED010AE8E700BFA2
:100590000000201A9FED010AE2E700BF0000007092
:1005A0009FED060AFFEE007AB7EE007A00284FF0C2
:1005B000220047FE277A87EE800AC3E7000000008A
:1005C00070EE407AB4EE400A87EEA77AF1EE10FAA8
:1005D000B0EE470A01D62120B4E7704710EE102A8A
:1005E000C2F3C7537F3B162B10DC002B23DB10B468
:1005F000144C44FA03F313420FD102F0004280ED91
:10060000000A5DF8044B00EE102A704702F0004229
:1006100080ED000A00EE102A704722EA030107EE7F
:10062000101A70EE477A016017EE902A5DF8044BBD
:1006300000EE102A704702F00041016000EE102A1F
:10064000704700BFFFFF7F002DE9F0032DED068B03
:1006500084B08DED000A009E10EE903AA6F50000E1
:100660005900B0F1FE4FB0EE606A01F1FF32C448AC
:1006700080F08780824200F20581002006F140432D
:10068000C04ABFEE002B03F54D03C3F3C341DB0D9E
:1006900002EB0111DB0592ED484B92ED443BF61A5B
:1006A00091ED00AB91ED029B92ED465B92ED408B9C
:1006B000DB1592ED427B06EE906A00EE103AB7EE43
:1006C000E61AB8EEC00BAAEE012B30EE090BA2EE33
:1006D000035BA2EE040B22EE023BA2EE087B23EEAC
:1006E000034BA3EE050BB7EEC66AA7EE040B20EE94
:1006F000060B10EE901A00230027C1F3CF3248F208
:10070000BE069F4208BF964257D3B7EE007B9E4B72
:1007100093ED406B30EE065B8DED005BDDE900672D
:1007200006F01F0193ED465B03EBC1019DED004B0D
:10073000D1E900C134EE466B30EE466B93ED424B8F
:10074000A6EE057BB0EE470B16EB000893ED447B5D
:1007500026EE065B002313EB0C044FEAC83242EB93
:100760000105A6EE047BA7EE050B45EC174B20EE2A
:10077000070BB7EEC00B04B0BDEC068BBDE8F00371
:100780007047824200F2D5807200511E814200F211
:100790009580002E57DB0020B6F5000FBFF46EAF3A
:1007A000DFED7A7A9DED007A67EE277A17EE906A90
:1007B00026F00046A6F1386660E79FED697BB4EE4F
:1007C000C70BF1EE10FA15DC9FED677BB4EEC70B9B
:1007D000F1EE10FA21DD4FF04C5390B10393DDEDB3
:1007E000037ABFEE007A77EE677AF4EE477AF1EE9D
:1007F00010FA12D004B0BDEC068BBDE8F003FFF791
:10080000C9BE0293DDED027AB7EE007A77EE877A01
:10081000F4EE477AF1EE10FAECD19FED557BB4EE91
:10082000C70BF1EE10FA5CD99FED537BB4EEC70B0A
:10083000F1EE10FA7FF569AF04B0BDEC068BBDE8B0
:10084000F003FFF7A1BEC3F3C7527E2A11DD962A3B
:1008500059DCC2F19602012000FA02F2511E19423F
:1008600007D112EA030018BF4FF4803026F000468B
:1008700092E79DED000A04B0BDEC068BBDE8F003E5
:10088000FFF79EBE002956D0B6F17E5F30D07600CD
:10089000B6F17F4F32D8B1F17F4F2FD1B6F1FE4F75
:1008A0004FD0B6F1FE4F6FEA030334BF0026012696
:1008B000DB0F9E4250D09FED360A5CE7DDED007AFB
:1008C000002E27EEA70A20DB0020002A3CD1002BB7
:1008D000BFF651AF04B0BDEC068BBDE8F003FFF7E7
:1008E0005FBE04B0BDEC068BBDE8F003FFF746BE6B
:1008F00083F480035B0013F5000F22D9DDED007A4D
:1009000037EE860A37E70020B0E7C3F3C751A1F1FD
:100910007F001728D8D8C1F19600012101FA00F014
:10092000441E1C42D0D11840CFD0B1EE400A084638
:10093000CBE70029ABD186F480035B0013F5000FF1
:10094000DCD8B7EE000A16E7002BBFF614AFF7EEBF
:10095000007A87EE800A0EE726EE060A0BE700BF54
:1009600071D5D1FFFFFF5F40E2AAA3FFFFFF5F4009
:100970000000000000C062C00000000000A062C0D3
:10098000FEFFFFFEF81A0108601D01080000004B81
:100990000000000000000000F0B510EE104A220D2B
:1009A000C2F30A03B3F57D7F83B0B7EEC06A1BD2F2
:1009B00026EE065BB3F5667F70D326EE052B25EE9B
:1009C000021B774B93ED1A3B93ED187B93ED164B7F
:1009D000A5EE037BA2EE046BB0EE460BA7EE010B77
:1009E000B7EEC00B03B0F0BD40F22E4293425FD889
:1009F0006B4991ED087B26EE077BBDEEC77B91ED41
:100A00000A5B17EE103A03F500031B1613F0020FF2
:100A100007EE903A01F1700208BF0A46D807B8EE17
:100A2000E77BA7EE456BB0EE460B26EE067B1BD4AC
:100A300003F0030301EBC30393ED006B92ED165B30
:100A400020EE060B20EE076B92ED1A4BA6EE050B7F
:100A500027EE066B92ED185BA7EE045BA5EE060B86
:100A6000B7EEC00B03B0F0BD92ED0E4B27EE076B57
:100A700027EE063B92ED0C0B92ED105BA7EE040BFC
:100A800092ED144BA6EE050B92ED126BA7EE046BE4
:100A9000A6EE030BB7EEC00B03B0F0BD12F4FF6F70
:100AA000A0D1B7EEC55B00EE104A8DED015A99E773
:100AB000B3F5FF6F50D23B4AC4F3836002EB80036F
:100AC000C4F3160152F820501E6A186941F400015F
:100AD000C4F3C2539940A1FB066705FB01F33A46F4
:100AE000E0FB0123111C43F100550020101A05F012
:100AF000404163EB010101F01DFCAD0F2A4B9FED5E
:100B0000267B05EBD47441EC160B14F0020FA3F115
:100B1000700208BF1346E90726EE077B27EE076B36
:100B20001FD404F0030402EBC40494ED005B93EDC6
:100B3000164B27EE057B27EE065B93ED1A3BA5EEE1
:100B4000047B26EE055B93ED184BA6EE034BA4EE5B
:100B5000057BB7EEC70B45E703B0BDE8F040FFF7F4
:100B60002FBD93ED0E3B26EE065B26EE052B93ED97
:100B70000C7B93ED104BA6EE037B93ED143BA5EE9F
:100B8000047B93ED125BA6EE035BA5EE027BB7EE52
:100B9000C70B27E7AFF30080182D4454FB21193C05
:100BA000801C0108201C0108F01C010808B5062063
:100BB00000F042FB012001F085FD00BF10B5054C9F
:100BC00034B113460A460146022000F0ABFD10BDC9
:100BD000204610BD25170008014B1868704700BF5C
:100BE0000400002470B50D4E0D4D761BB61006D0D6
:100BF0000024013455F8043B9847A642F9D1094E28
:100C0000094D761B11F038FFB61006D000240134D0
:100C100055F8043B9847A642F9D170BD982A0108BF
:100C2000982A0108B42A0108982A0108024B0146B3
:100C3000186800F005BA00BF04000024024B01460A
:100C4000186800F0A7B900BF0400002400000000ED
:100C500001F0FF01102A2BDB10F0070F08D010F86D
:100C6000013B013A8B422DD010F0070F42B3F6D171
:100C7000F0B441EA012141EA014122F007047FF08A
:100C800000070023F0E80256083C85EA010586EAE1
:100C9000010685FA47F5A3FA87F586FA47F6A5FA1D
:100CA00087F68EB9EED1F0BC01F0FF0102F0070229
:100CB00032B110F8013B013A83EA010313B1F8D1D4
:100CC0000020704701387047002D06BF35460338B5
:100CD000073815F0010F07D1013015F4807F02BFEE
:100CE000013015F4C03F0130F0BC0138704700BF3F
:100CF000844641EA000313F003036DD1403A41D327
:100D000051F8043B40F8043B51F8043B40F8043BE5
:100D100051F8043B40F8043B51F8043B40F8043BD5
:100D200051F8043B40F8043B51F8043B40F8043BC5
:100D300051F8043B40F8043B51F8043B40F8043BB5
:100D400051F8043B40F8043B51F8043B40F8043BA5
:100D500051F8043B40F8043B51F8043B40F8043B95
:100D600051F8043B40F8043B51F8043B40F8043B85
:100D700051F8043B40F8043B51F8043B40F8043B75
:100D8000403ABDD2303211D351F8043B40F8043B15
:100D900051F8043B40F8043B51F8043B40F8043B55
:100DA00051F8043B40F8043B103AEDD20C3205D325
:100DB00051F8043B40F8043B043AF9D2043208D01D
:100DC000D2071CBF11F8013B00F8013B01D30B888F
:100DD00003806046704700BF082A13D38B078DD06D
:100DE00010F003038AD0C3F10403D21ADB071CBF3F
:100DF00011F8013B00F8013B80D331F8023B20F8A9
:100E0000023B7BE7043AD9D3013A11F8013B00F8E1
:100E1000013BF9D20B7803704B7843708B78837069
:100E2000604670478842F0B40DD98B1883420AD9C6
:100E3000841832B1224613F8014D02F8014D99424F
:100E4000F9D1F0BC70470F2A0ED80346541E002A71
:100E5000F7D001340C44013B11F8012B03F8012FAA
:100E6000A142F9D1F0BC704740EA01039B073BD196
:100E7000A2F110073F0901F1200606EB071601F168
:100E8000100300F1100453F8105C44F8105C53F8A0
:100E90000C5C44F80C5C53F8085C44F8085C53F8AC
:100EA000045C44F8045C1033B34204F11004EAD14A
:100EB0007B1C1B0112F00C0F194402F00F050344B8
:100EC00015D0043DAD0803EB850C1C1F0E4656F8EB
:100ED000047B44F8047F6445F9D10135AD002B440F
:100EE000294402F00302B1E7541E0346B1E72A4643
:100EF000ACE700BFF0B4860746D0541E002A3CD0B1
:100F0000CAB2034602E014F1FF3436D303F8012BD2
:100F10009D07F8D1032C29D9CDB245EA05250F2C20
:100F200045EA054533D9A4F11006360903F1200737
:100F300007EB061703F1100242E9045542E9025596
:100F40001032BA42F8D1721C14F00C0F03EB0212EB
:100F500004F00F0613D0331F23F0030304331344AC
:100F600042F8045B9342FBD106F003042CB1C9B2F2
:100F70001C4403F8011B9C42FBD1F0BC7047344673
:100F80001346002CF3D1F8E714460346C2E71A468D
:100F90002646E0E700293CD038B551F8043C0C1F48
:100FA000002BB8BFE418054600F00CFC234B1A6870
:100FB0002AB1A2420DD921686018824223D0626012
:100FC00028461C60BDE8384000F0FEBBA34203D8B1
:100FD0001A465368002BF9D111685018A04219D055
:100FE00024D821686018834206D063605460284684
:100FF000BDE8384000F0E8BBD3E90003014463607A
:1010000021605460F3E7D2E900020144626021608C
:10101000D6E7704720680144501883421160E6D13A
:10102000D3E90003014453601160E0E70C232B6017
:101030002846BDE8384000F0C7BB00BF9C02002432
:10104000F8B5CD1C25F0030508350C2D38BF0C254F
:10105000002D064633DBA94231D82A4F00F0B2FBFF
:101060003A6852B113685B1B04D43FE023685B1BF2
:1010700029D522465468002CF8D1796800293BD044
:101080002946304600F040F8431C28D0C41C24F008
:101090000304A04205D0211A304600F035F8013093
:1010A0001DD02560304600F08FFB04F10B0020F0CE
:1010B0000700231DC21A01D01B1AA350F8BD0C2231
:1010C00032600020F8BD0B2B05D8A242636811D016
:1010D0005360E7E7144623601C442560E2E70C23D5
:1010E0003046336000F070FB0020F8BD0B2BF1D8C8
:1010F000536814463B60D5E7304600F005F8786049
:10110000BEE700BF9C02002438B5074C002305460B
:101110000846236001F0C8FA431C00D038BD23689C
:10112000002BFBD02B6038BDA4C0002410B580215B
:101130000446FFF785FF606440B1031F00227C3046
:1011400043F8042F8342FBD1002010BD4FF0FF3045
:1011500010BD00BF436C0BB100207047E6E700BF35
:101160001F2970B5054608D8436C16460C464BB18E
:1011700053F8240043F8246070BD162202604FF03B
:10118000FF3070BDFFF7D2FF08B96B6CF0E74FF08E
:10119000FF3070BD1F2938B521D8426C05460C467A
:1011A0006AB152F8213053B1012B16D0591C10D01E
:1011B0000025204642F824509847284638BD284646
:1011C00000F070F8224601462846BDE8384000F09D
:1011D00055B816230360012038BD002038BD162302
:1011E00003604FF0FF3038BD1F2921D838B5436C5C
:1011F00005460C4683B153F8242003EB84034AB11F
:10120000511C10D0012A0CD0002520461D609047AB
:10121000284638BD012038BDFFF788FF28B96B6C20
:10122000E9E7032038BD022038BD4FF0FF3038BD5C
:101230004FF0FF30704700BF024B01461868FFF7C0
:10124000A9BF00BF04000024024B0A4601461868EB
:10125000FFF786BF04000024034B1868436C0BB1F2
:101260000020704762E700BF04000024024B0146E3
:101270001868FFF7B9BF00BF0400002438B50B465B
:10128000074C0546114618460023236001F004FA76
:10129000431C00D038BD2368002BFBD02B6038BD29
:1012A000A4C0002401F0F0B900000000000000001C
:1012B000000000000000000000000000000000002E
:1012C000A2EB0300704700BF02780B78012A28BF09
:1012D0009A42F5D16DE9044540EA0104CDE902677F
:1012E0006FF0000C4FEA447212B380EA010414F06C
:1012F000070F6AD100F0070420F0070004F003058F
:1013000021F007014FEAC505F0E8042314F0040FAB
:10131000F1E804670CFA05F462EA040266EA0406DE
:101320000AD063EA0403624667EA0407664603E0FC
:10133000F0E80423F1E8046782FA4CF582EA060437
:10134000A4FA8CF46CBB83FA4CF583EA0705A5FA82
:101350008CF595B950E9022351E9026782FA4CF500
:1013600082EA0604A4FA8CF483FA4CF583EA0705B2
:10137000A5FA8CF52543DBD09CB92DBAB5FA85F4D6
:1013800024F0070427FA04F1DDE9026723FA04F3E5
:1013900003F0FF0001F0FF01FDE80445A0EB0100B0
:1013A000704724BAB4FA84F424F0070426FA04F14E
:1013B000DDE9026722FA04F202F0FF0001F0FF010A
:1013C000FDE80445A0EB0100704714F0030F3CD189
:1013D00010F0030428D150F8082B51F8083B82FA8A
:1013E0004CF582EA0305A5FA8CF55DB950F8042C9A
:1013F00051F8043C82FA4CF582EA0305A5FA8CF513
:10140000002DE8D02DBAB5FA85F424F0070423FAAC
:1014100004F122FA04F202F0FF0001F0FF01FDE8FE
:101420000445A0EB010070474FEAC40420F003001C
:1014300050F8082B21F0030151F8083B0CFA04F492
:1014400062EA040263EA0403C9E710F003041AD055
:10145000A1EB040120F00300E40750F8042B06D0B0
:101460000FD28B785FFAA2F4E41A06D12BB1CB78B5
:101470005FFAB2F4E41A00D11BB920465DF8104BB4
:10148000704701F1040150F8042BCC0721F003014F
:1014900051F8043B48D824D222F07F4482FA4CF51C
:1014A00094EA1325A5FA8CF50AD165B951F8043BE5
:1014B00084EA0204B4EB036F0ED150F8042BEBE77F
:1014C0004FEA132355E035F07F454DD10878FDE80C
:1014D0000445C0F1000070474FEA126203F0FF03B9
:1014E00047E002EA1C4482FA4CF594EA1345A5FA57
:1014F0008CF50AD165B951F8043B84EA0204B4EBD7
:10150000034F0CD150F8042BEBE74FEA134330E0C4
:1015100015EA1C4528D10B884FEA124229E04FEA10
:10152000124203EA1C4324E002F0FF0482FA4CF565
:1015300094EA1365A5FA8CF50AD165B951F8043B14
:1015400084EA0204B4EB032F09D150F8042BEBE733
:101550004FEA13630DE015F0FF0F05D10B684FEA5A
:10156000122223F07F4304E04FF00000FDE8044521
:10157000704712BA1BBA82FA4CF482EA0304A4FA46
:101580008CF5B5FA85F402FA04F203FA04F34FEA93
:101590001260FDE80445A0EB1360704700000000F6
:1015A000000000000000000000000000000000003B
:1015B000000000000000000000000000000000002B
:1015C00090F800F06DE9024520F007016FF0000C83
:1015D00010F0070491F820F040F049804FF000042B
:1015E0006FF00700D1E9002391F840F000F1080006
:1015F00082FA4CF2A4FA8CF283FA4CF3A2FA8CF33E
:101600004BBBD1E9022382FA4CF200F10800A4FAA4
:101610008CF283FA4CF3A2FA8CF3E3B9D1E90423F8
:1016200082FA4CF200F10800A4FA8CF283FA4CF32F
:10163000A2FA8CF37BB9D1E9062301F1200182FAE9
:101640004CF200F10800A4FA8CF283FA4CF3A2FAEF
:101650008CF3002BC6D0002A04BF04301A4612BAFD
:10166000B2FA82F2FDE8024500EBD2007047D1E900
:10167000002304F00305C4F100004FEAC50514F08F
:10168000040F91F840F00CFA05F562EA05021CBF60
:1016900063EA050362464FF00004A9E770B5141E23
:1016A0009AB005462BDB1A464FF402730091049161
:1016B000ADF80C3013D0013C4FF6FF761E9B029420
:1016C00069460594ADF80E6000F05CF9421C01DA41
:1016D0008B232B60009B00221A701AB070BD1E9BDA
:1016E00002944FF6FF7669460594ADF80E6000F05F
:1016F00049F9431C01DA8B232B601AB070BD8B2390
:1017000003604FF0FF30F8E710B5054C82B000934E
:1017100013460A4601462068FFF7C0FF02B010BD1D
:10172000040000242DE9F843224C25680DB36C68B1
:101730001F2C3BDC984691460F46064688B1D5F8EB
:10174000880028B3D0F8003140F824900122A2404C
:1017500000EB84011343022EC0F80031C1F88080F1
:1017600010D0A31C01346C6045F823700020BDE844
:10177000F883114E114D2560002ED8D03468C5F87D
:101780008840D4E7D0F804311A43C0F80421E8E7D0
:101790000B4B5BB14FF48470FFF748FA30B1002374
:1017A0006C68C0E94033C5F88800CDE74FF0FF30E2
:1017B000DDE700BF38040024A81E0108AC030024A4
:1017C0002D0C0008704700BF704700BF2DE9F0479F
:1017D0008E681D46AE420C460B68174636D88046CA
:1017E000888910F4906F0ED1354618462A4639463E
:1017F000FFF718FBA2682368961B2B44A6602360A2
:101800000020BDE8F087D1E9041606EB4606A3EBFD
:10181000010906EBD6766B1C76104B44B342324678
:1018200084BF1E463246430512D511464046FFF797
:1018300007FC824600B34A462169FFF759FAA3899B
:1018400023F4906343F08003A38106E02E46CCE7A7
:10185000404600F0B3FB824650B1A6EB09020AEB0A
:1018600009036661C4F810A02360A2602E46BCE79D
:1018700021694046FFF78EFB0C23C8F80030A3898E
:1018800043F04003A3814FF0FF30BAE72DE9F04F5A
:10189000936883B09046002B6DD017688D688246A0
:1018A0000C460868083743E0A38913F4906F2ED0E4
:1018B000D4E9041505EB4505A0EB010B05EBD57547
:1018C0000BEB06006D100130A8422A4684BF054686
:1018D0002A465B0536D511465046FFF7B1FB002876
:1018E0003AD05A4621690190FFF702FAA289019B7A
:1018F00022F4906242F08002A281A5EB0B0203EB7E
:101900000B00656123612060A2603546B3465A46EC
:101910004946FFF787FAD8F80830A2682068551BB7
:1019200058449E1BA5602060C8F808601EB30837A5
:1019300057E90296AB46002EF9D0AE42B4D23546F6
:10194000B346E4E7504600F039FB03460028D4D103
:1019500021695046FFF71EFB0C23CAF80030A3890B
:10196000002243F040034FF0FF30A381C8E9012279
:1019700003B0BDE8F08F0020C8F8040003B0BDE854
:10198000F08F00BF2DE9F04F90468A899FB0140672
:101990008B46029003D50A69002A00F00B8105935B
:1019A00030238DF8323098F800308E4E00212022FE
:1019B0000B918DF831200127002B00F08480252B1E
:1019C00000F0F680454603E0252B00F08680254692
:1019D0006B786C1C002BF7D1B4EB080A73D042462D
:1019E000534659460298FFF7F1FE01306BD00B9B2E
:1019F0006A7853440B93002A65D000234FF0FF32DE
:101A000001340693CDE908338DF85B301C930792BF
:101A100005E0069A07FA03F313432C46069325467E
:101A2000052215F8011B3046FFF712F9AA46831B61
:101A30000028EED1069BD90644BF20228DF85B20FA
:101A400021781A0744BF2B228DF85B202A2948D120
:101A5000059A11680432002905927EDB09916178AC
:101A6000A51C2E2956D0604C03222046FFF7F0F823
:101A7000002868D0001B069B402404FA00F00343B2
:101A8000069305F10108297858488DF83010062290
:101A9000FFF7DEF8002866D0554B002B56D005AB7B
:101AA00000935A46534B029806A9AFF30080814633
:101AB000B9F1FF3F07D00B9B4B440B9398F80030D4
:101AC000002B7FF47CAFBBF80C305B0654BF0B9847
:101AD0004FF0FF301FB0BDE8F08FB4EB080A8CD098
:101AE0007DE7A1F13002092A88BFA246B9D8099B37
:101AF00001E02C460135297803EB830302EB430315
:101B0000A1F13002092AAA46F3D92E2904F10205CF
:101B10000993A8D19AF801102A292ED1059B9AF889
:101B200002101A6807920433002A05930AF103058C
:101B30000AF1020337DB2C4C032220469A46FFF7BA
:101B400087F8002896D1A84655469CE7059B0733A1
:101B500023F0070308330593ADE7494243F002033E
:101B6000099106937BE705AB00935A46214B0298F7
:101B700006A900F0D7F881469AE7A1F130020023C8
:101B8000092A079301D923E05546697803EB8303BB
:101B900002EB4303A1F13002092A05F1010AF3D94E
:101BA000023507935FE74FF0FF329A4607925AE7F4
:101BB000444622E740210393FFF742FA039BCBF808
:101BC0000000CBF8100030B14022CBF81420E6E63C
:101BD000AA46013547E7029A0C2313604FF0FF3005
:101BE00078E700BF3C2A0108442A0108482A010876
:101BF00000000000CD1700082DE9F0470C46914683
:101C00000A698968DDF820808A42B8BF0A46C9F8A7
:101C1000002094F8431006461F4611B10132C9F85E
:101C20000020236899065CD5D9F800200232C9F853
:101C30000020236813F0060F19461DD1E1688A1AA7
:101C4000002AD8BF194617DD04F1190A002505E05E
:101C5000E368D9F800209B1AAB420CDD0123524601
:101C600039463046C047013005F10105F0D14FF04B
:101C7000FF30BDE8F087216894F84330003318BF87
:101C800001238A060AD5E1185A1C302081F8430046
:101C9000224494F8451082F84310023304F14302C1
:101CA00039463046C0470130E1D02368A268216937
:101CB00003F00603042B1DD08A4226DD4FF00009F5
:101CC000521A91441A34002501E04D451DDA0123D2
:101CD000224639463046C047013005F10105F4D1AE
:101CE000C5E713F0060F13D094F84330003318BF44
:101CF0000123D3E7D9F80000E3688A42A3EB00038D
:101D000023EAE379DCDC002BDCDC0020BDE8F08793
:101D1000E168D9F800208A1A002AD8BF194693DC56
:101D2000AAE700BF2DE9F0430C46097E85B06E2975
:101D3000064617460C98984604F1430E6DD039D9E3
:101D4000732900F0F68044D9752900F004817829C0
:101D500040F0118178232268DFF858C284F84530BA
:101D60000168150651F8043B016040F1A180D107DC
:101D700044BF42F020022260002B00F0938010222A
:101D8000002184F843106068A0600028C0F2C88079
:101D9000216821F004012160002B40F0A38000287D
:101DA00040F0C0807546082A00F0AC80AEEB050319
:101DB000236141E0632900F0E5801AD8002938D07A
:101DC000582940F0D88084F845102268DFF8E8C12F
:101DD000C6E76F2900F0BF80702940F0CC802268F0
:101DE000DFF8D0C142F020027823226084F8453029
:101DF000B6E7642902D0692940F0BD8022680368F3
:101E0000110603F1040557D5196805600B46002932
:101E100059DBDFF8A4C10A22B5E7036822686169CB
:101E20001D1D056015061B6802D4500600F1BD801B
:101E30001960002375462361CDF800803B4603AA54
:101E400021463046FFF7D8FE013020D02A462369CC
:101E500039463046C047013019D022680398E368FC
:101E6000920719D51A1A002A16DD04F1190900255E
:101E700004E0E36803981A1AAA420DDD01234A46DA
:101E800039463046C047013005F10105F1D14FF028
:101E9000FF3005B0BDE8F0839842B8BF184605B0E2
:101EA000BDE8F083226822F020022260102267E75A
:101EB000500648BF9BB25AE75106A5D5B3F900308A
:101EC00005601946A3E76168A1602D200029C3F1D0
:101ED000000384F8430002DB22F004022260DFF8F2
:101EE000D8C00A22754600E00B46B3FBF2F102FBB4
:101EF000113093421CF8000005F8010DF4D2082AB5
:101F00007FF454AF2368DB077FF550AF6268236925
:101F10009A423FF74BAF302305F8013C013D45E7BE
:101F2000002BDFD19CF8003084F8423004F14205E8
:101F300039E703686268191D01601D6800212846A1
:101F4000FEF786FE002832D0401B6060206100232F
:101F500084F8433070E72268036812F0800F03F1C1
:101F600004051AD01B6805606F290CBF08220A22DD
:101F7000DFF844C004E7012384F84210236104F130
:101F80004205E4E703681A68191D0123016004F1A2
:101F9000420584F842202361D9E712F0400F0DBFBB
:101FA0001B6805601B880560DEE7198041E76068F3
:101FB000CCE700BF642A0108502A010809B3F8B52C
:101FC0001446CAB106460D4600F01EF8A04202D3E0
:101FD0002F463846F8BD21463046FFF731F8074610
:101FE0000028F6D022462946FEF782FE30462946D2
:101FF000FEF7D0FF3846F8BD2746FEF7CBFF384640
:10200000F8BD1146FFF71CB851F8043C181F002B0F
:10201000BCBF0B58C018704781F0004102E000BF00
:1020200083F0004330B54FEA41044FEA430594EA98
:10203000050F08BF90EA020F1FBF54EA000C55EAD3
:10204000020C7FEA645C7FEA655C00F0E2804FEAA4
:102050005454D4EB5555B8BF6D420CDD2C4480EA86
:10206000020281EA030382EA000083EA010180EAB6
:10207000020281EA0303362D88BF30BD11F0004F04
:102080004FEA01314FF4801C4CEA113102D040423A
:1020900061EB410113F0004F4FEA03334CEA133375
:1020A00002D0524263EB430394EA050F00F0A7808D
:1020B000A4F10104D5F1200E0DDB02FA0EFC22FA88
:1020C00005F2801841F1000103FA0EF2801843FA7C
:1020D00005F359410EE0A5F120050EF1200E012A6D
:1020E00003FA0EFC28BF4CF0020C43FA05F3C018AB
:1020F00051EBE37101F0004507D54FF0000EDCF124
:10210000000C7EEB00006EEB0101B1F5801F1BD3CC
:10211000B1F5001F0CD349085FEA30004FEA3C0CD0
:1021200004F101044FEA445212F5800F80F09A80C6
:10213000BCF1004F08BF5FEA500C50F1000041EBCA
:10214000045141EA050130BD5FEA4C0C404141EBCE
:102150000101013C28BFB1F5801FE9D291F0000FC9
:1021600004BF01460020B1FA81F308BF2033A3F178
:102170000B03B3F120020CDA0C3208DD02F1140C6F
:10218000C2F10C0201FA0CF021FA02F10CE002F1AA
:102190001402D8BFC2F1200C01FA02F120FA0CFCA3
:1021A000DCBF41EA0C019040E41AA2BF01EB0451EC
:1021B000294330BD6FEA04041F3C1CDA0C340EDCEA
:1021C00004F11404C4F1200220FA04F001FA02F32D
:1021D00040EA030021FA04F345EA030130BDC4F1EB
:1021E0000C04C4F1200220FA02F001FA04F340EAE0
:1021F0000300294630BD21FA04F0294630BD94F091
:10220000000F83F4801306BF81F480110134013D77
:102210004EE77FEA645C18BF7FEA655C29D094EAE8
:10222000050F08BF90EA020F05D054EA000C04BF66
:102230001946104630BD91EA030F1EBF0021002051
:1022400030BD5FEA545C05D14000494128BF41F0F0
:10225000004130BD14F580043CBF01F5801130BD54
:1022600001F0004545F0FE4141F470014FF00000DF
:1022700030BD7FEA645C1ABF194610467FEA655C90
:102280001CBF0B46024650EA013406BF52EA033532
:1022900091EA030F41F4002130BD00BF90F0000F20
:1022A00004BF0021704730B54FF4806404F132045C
:1022B0004FF000054FF0000150E700BF90F0000F15
:1022C00004BF0021704730B54FF4806404F132043C
:1022D00010F0004548BF40424FF000013EE700BF0C
:1022E00042004FEAE2014FEA31014FEA02701FBF9C
:1022F00012F07F4393F07F4F81F06051704732F0CE
:102300007F4208BF704793F07F4F04BF41F4002124
:10231000704730B54FF4607401F0004521F0004182
:102320001CE700BF50EA010208BF704730B54FF00C
:1023300000050AE050EA010208BF704730B511F00D
:10234000004502D5404261EB41014FF4806404F145
:1023500032045FEA915C3FF4D8AE4FF003025FEACB
:10236000DC0C18BF03325FEADC0C18BF033202EB4F
:10237000DC02C2F1200300FA03FC20FA02F001FAA9
:1023800003FE40EA0E0021FA02F11444BDE600BF4C
:1023900053B94AB9002908BF00281CBF4FF0FF31CC
:1023A0004FF0FF3000F06EB9ADF1080C6DE904CECE
:1023B00000F006F8DDF804E0DDE9022304B0704720
:1023C0002DE9F047089D04468C46002B40F08380A1
:1023D0008A42174647D9B2FA82F242B1C2F12000CE
:1023E00024FA00F09140974040EA010C94404FEAF3
:1023F0001748230CBCFBF8F61FFA87FE08FB16C132
:1024000043EA014306FB0EF1994209D9FB1806F194
:10241000FF3080F01981994240F21681023E3B4420
:102420005B1AA4B2B3FBF8F008FB103344EA034490
:1024300000FB0EFEA64509D93C1900F1FF3380F0E0
:102440000581A64540F2028102383C4440EA06403C
:10245000A4EB0E0400261DB1D4400023C5E90043BF
:102460003146BDE8F08702B9FFDEB2FA82F2002AF7
:1024700050D1CB1B4FEA174E1FFA87F80126B3FB4A
:10248000FEFC210C0EFB1C3341EA034108FB0CF35C
:102490008B4207D979180CF1FF3002D28B4200F23F
:1024A000E9808446C91AA3B2B1FBFEF00EFB1011FD
:1024B00043EA014408FB00F8A04507D93C1900F1A4
:1024C000FF3302D2A04500F2D9801846A4EB0804DD
:1024D00040EA0C40BFE78B4209D9002D00F0B180E3
:1024E0000026C5E9000130463146BDE8F087B3FA61
:1024F00083F6002E4AD18B4202D3824200F2B8808A
:10250000841A61EB030101208C46002DA8D0C5E997
:10251000004CA5E7C2F1200320FA03F6974001FA28
:1025200002F04FEA174ED9403043030CB1FBFEF6E0
:102530001FFA87F80EFB161143EA014306FB08F168
:10254000994204FA02F409D9FB1806F1FF3C80F025
:102550008D80994240F28A80023E3B445B1A81B2F0
:10256000B3FBFEF00EFB103341EA034100FB08F31E
:102570008B4207D9791800F1FF3C73D28B4271D995
:1025800002383944CB1A40EA064678E7C6F1200CF7
:1025900003FA06F422FA0CF31C4320FA0CF701FAB2
:1025A00006F34FEA144E21FA0CF11F433B0CB1FB2A
:1025B000FEF91FFA84F80EFB191143EA014109FBE9
:1025C00008FA8A4502FA06F200FA06F308D96118F9
:1025D00009F1FF3048D28A4546D9A9F102092144C0
:1025E000A1EB0A01BFB2B1FBFEF00EFB101147EAEE
:1025F000014700FB08F8B84507D9E71900F1FF319A
:102600002ED2B8452CD90238274440EA0940A7EB1E
:102610000807A0FB02894F45C64649461AD317D082
:102620005DB1B3EB0E0267EB010707FA0CFCF24059
:102630004CEA0202F740C5E9002700263146BDE812
:10264000F0872E4628460BE70646E9E61846FDE6E3
:102650004345E5D2B8EB020E69EB04010138DFE730
:102660000846D2E760468DE78146B9E7664675E7DA
:1026700030464AE7ACF1020C394413E702383C44D7
:1026800024E700BF704700BF024B58221A604FF08A
:10269000FF307047A4C00024024B58221A604FF04C
:1026A000FF307047A4C00024044A05491368002B7A
:1026B00008BF0B4618441060184670473C040024BD
:1026C000A8C00024FEE700BFFEE700BF0D4B0E4A86
:1026D000934206D00D4951F8040B43F8040B934282
:1026E000F9D10B4B0B4A934204D0002143F8041B51
:1026F0009342FBD106F064FFFEF774FA02F03EF954
:10270000FEE700BF0000002480020024B82A010870
:1027100080020024A8C00024704700BF704700BF9B
:10272000494200F1130300F21342C9B203F8011F3A
:102730009342FBD1704700BF402070478020704714
:1027400010B50446806908B10EF018FF204610BD90
:1027500010B5044640F214410EF012FF204610BDA1
:102760002DE9F041B02582B000F1080700F1100614
:1027700000F11404002130468DF8075001358846D9
:1027800004F0CEFD642301220DF10701384605F067
:10279000D5FD414630468DF8078004F0C1FD012289
:1027A00064230DF107013846EDB205F0C7FD102393
:1027B000414630468DF8073004F0B2FD6423012213
:1027C0000DF10701384605F0B9FD0121304604F04E
:1027D000A7FD8022214664233846144405F0AEFD4F
:1027E000B82DC7D102B0BDE8F08100BF2DE9F04F90
:1027F00085B0A1F12004009104A99DF8388001E979
:102800000C00E3B25E2B00F29480036881465C4AC0
:10281000DB689DF8086093429DF8095040F0938072
:102820008020B9F804303344834200F38280D9F821
:102830000030544A9B68934240F087804020B9F8AA
:1028400006104B190191834273DC002D00F0888043
:1028500005FB04F4039A6FF00043B9F804A0254483
:10286000A2F1020B23440BEB450B0D4602EB430E8A
:102870003EF8024FA6B305F007030127E8084146DA
:102880009F4000220AEBC0137FB24B4409EBC010FB
:102890006FEA070CB8460F460CE07F2906D83F2D9B
:1028A00004D8197DA7B148EA010119750132013335
:1028B000964214D004FA02F111F4004FA3EB000188
:1028C000EBD17F29F2D83F2DF0D8197D002FEAD027
:1028D00001320CEA010101339642D974EAD1B846BB
:1028E000F34505F10105C3D1D9F800300AEB060420
:1028F0002349DA68A4B28A422DD1802084421CD2B6
:102900009B68204AA9F80440934221D14020019BB2
:10291000834207D3D9F800301A4A9B68934229D1E1
:102920003F230193DDE90003A9F8063005B0BDE8B7
:10293000F08F002005B0BDE8F08FDA6810498A42B8
:1029400011D17F24DCE798476BE74846984776E744
:1029500048469847DBE748469047D9F80030CDE72E
:10296000B9F804A0C0E7484690470138D9F80030CC
:1029700084B2C5E748469847013883B20193D1E74E
:102980003D270008392700087F2921D83F2A1FD872
:1029900010B473B9D308012402F0070201EBC3138A
:1029A0009440C1180A7D22EA04020A755DF8044BBE
:1029B0007047D408012302F0070201EBC41403FAA4
:1029C00002F201190B7D1A430A755DF8044B70473A
:1029D000704700BF2DE9F04F83B05E1A0C9F9DF841
:1029E0003480A7EB020EBEF1000FB8BFCEF1000E8F
:1029F0008B428CBF4FF001094FF0FF39002EB8BF5A
:102A000076429742A6EB0E044FD84FF0FF357F2B4E
:102A1000019514D83F2F12D8FD0807F0070C4FF08E
:102A2000010A03EBC515B8F1000F45D005440AFAB9
:102A30000CFC95F814A04CEA0A0C85F814C09742D7
:102A400001D18B4229D0CEF1000C7F2914D83F2A26
:102A500012D8D5084FF0010B02F0070A01EBC5159B
:102A60000BFA0AFA054495F814B0B8F1000F17D024
:102A70004AEA0B0A85F814A0BCEB440F4FEA440560
:102A800002DAA4EB0E044944AE4202DD019D344457
:102A90002A449942D9D19742D7D103B0BDE8F08FEB
:102AA0002BEA0A0A85F814A0E6E701257F2B019599
:102AB000C9D83F2FB0D9C6E705440AFA0CFA9742A5
:102AC00095F814C02CEA0A0C85F814C0B9D0BAE7FE
:102AD0002DE9F04F2DED068B85B01C460F46904634
:102AE0009DF8583003900293159B002BC0F2F281A1
:102AF000149A134406EE103ADDED147AB8EEC66B64
:102B00009FEDD54BB8EEE77B9FEDD55B27EE047BC1
:102B100026EE046B87EE050B86EE05ABF7EEC08B59
:102B2000B0EE680AFDF710FCB7EECAAB07EE904AAC
:102B3000B0EE408AB0EE680AF8EE679AFDF72CFF17
:102B4000F0EE408AB0EE4A0AFDF7FEFBB0EE409A86
:102B5000B0EE4A0AFDF720FF68EEE98A20EE690A26
:102B600029EE888A29EE899A70EE687AF0EE006A7A
:102B700039EE487A67EEA77AE7EE077AF4EEE67A5E
:102B8000F1EE10FA06D5159BB42B40F3EE804FF012
:102B9000010E01E04FF0000E0126C4F101033A4698
:102BA0006042B34000243146374694460196BEF158
:102BB000000F6AD1424206EE904A614207EE102AA7
:102BC000F8EEE66A07EE901A159AB8EEC77A66EE46
:102BD000884AB42A26EE896A06EE900A27EE284A29
:102BE000F8EEE77AF8EEE66A74EEC43A67EE885AD1
:102BF00026EEA85A67EE897A27EE007A66EE806A9A
:102C0000F5EEC03A40F3DC80F1EE10FA00F14D81B0
:102C100076EE473A74EEC54AF5EEC03AF1EE10FA98
:102C2000F5EEC04ACCBF01220022F1EE10FA01926B
:102C300000F1458136EE666A35EEC55AB5EEC06ADA
:102C4000F1EE10FAB5EEC05ACCBF01210021F1EE31
:102C500010FA00F13D8177EEE66AF5EEC06AF1EE1A
:102C600010FACCBF0126002675EEC45AF5EEC05A04
:102C7000F1EE10FA00F1178177EEC77AF5EEC07A1F
:102C8000F1EE10FACCBF01270027019AF2B1ACEBAC
:102C9000000904EB0805B9F17F0F17D83F2D15D8AF
:102CA0004FEAD50A4FF0010B05F00705029A09EB30
:102CB000CA190BFA05F5002A00F0C280039A914464
:102CC00099F814B045EA0B0589F81450F1B100EBFE
:102CD0000C0904EB0805B9F17F0F17D83F2D15D863
:102CE0004FEAD50A4FF0010B05F00705029A09EBF0
:102CF000CA190BFA05F5002A00F08E80039A914458
:102D000099F814B045EA0B0589F81450EEB100EBC0
:102D10000C09A8EB0405B9F17F0F16D83F2D14D884
:102D20004FEAD50A4FF0010B05F00705029A09EBAF
:102D3000CA190BFA05F5002A65D0039A914499F84F
:102D400014B045EA0B0589F81450D7B99C4216DB3C
:102D5000013403EB4405C44205F101054FD098420C
:102D600008DB2B4600287FF722AF05B0BDEC068BB1
:102D7000BDE8F08F013005EB40030133F2E71D465B
:102D8000EDE7ACEB0009A8EB0405B9F17F0FDDD846
:102D90003F2DDBD84FEAD50A4FF0010B05F00705B0
:102DA000029A09EBCA190BFA05F5002A3FD0039ADB
:102DB000914499F814B045EA0B0589F81450C5E719
:102DC000F1EE10FA64D4CDF804E074EEC54AF5EEE5
:102DD000C04AF1EE10FA51D4002135EEC55AB5EED5
:102DE000C05AF1EE10FA3FD4002675EEC45AF5EE43
:102DF000C05AF1EE10FA3FF53FAF002745E7984281
:102E0000B8DB0023ABE7039A914499F814B02BEA9E
:102E1000050589F8145098E7039A914499F814B07D
:102E20002BEA050589F81450002E8ED06FE7039A1F
:102E3000914499F814B02BEA050589F8145085E7F8
:102E4000039A914499F814B02BEA050589F81450B7
:102E500000293FF45BAF3AE77A008BFCFA21094086
:102E6000000000000080664077EEE66AF5EEC06A7A
:102E7000F1EE10FACCBF01260026B6E736EE666A00
:102E8000B5EEC06AF1EE10FACCBF01210021A4E733
:102E900076EE473AF5EEC03AF1EE10FACCBF0122D9
:102EA0000022019291E70127EFE674EEC54A012264
:102EB0000192F5EEC04AF1EE10FA7FF5BBAE35EEA9
:102EC000C55A0121B5EEC05AF1EE10FA7FF5C3AE36
:102ED0000126C9E6DDE91423134406EE102A1493F3
:102EE000159B5B42159307E62DE9F04F89B08B46A1
:102EF00091F800909DF8484008A9049401E90C005D
:102F0000B9F1000F00F0B7809DF8193080469DF8A8
:102F100018A04D460193079B0593A5F12004E3B249
:102F20005E2B00F2AC80D8F80030654ADB68934233
:102F300040F0A7808020B8F804305344834200F367
:102F40009E80D8F800305F4A9B68934240F09C8096
:102F50004020B8F80610019A00918B18834200F3C4
:102F60008E801046002A00F09A8013466FF00046CB
:102F7000B8F8047003FB04F3059CBE46CDF80CB012
:102F80001E44A21E0344574604EB4606DDF810908B
:102F900002EB430302959B4636F802AFA7B3012428
:102FA00001F00702C8080EF1140304FA02F2744695
:102FB00003EBC013002052B243446FEA020C0EE050
:102FC0007F2C07D83F2905D81D78B9F1000F12D002
:102FD00015431D70013001330134B84214D00AFA90
:102FE00000F52D04ECD47F2CF4D83F29F2D81D78BD
:102FF000B9F1000FECD001300CEA050501330134C2
:10300000B84203F8015CEAD15E4501F10101C3D188
:10301000BA46029D7746DDF80CB0D8F80020574438
:103020002749D368BFB28B4234D18020874204D372
:10303000D36823498B423BD17F279368214AA8F864
:103040000470934223D14020009B834207D3D8F8D9
:1030500000301C4A9B68934224D13F230093009B7D
:10306000A8F806309BF80000A84205D11BF8015FC4
:10307000002D7FF452AF002009B0BDE8F08F00258D
:10308000F0E74046984756E74046984761E7404694
:103090009847D9E740469847D8F80020C6E7B8F8DF
:1030A0000470BAE740469847013883B20093D6E7E8
:1030B000404698470138D8F8002087B2BDE700BFE6
:1030C0003D270008392700082DE9F04F0C468BB04A
:1030D0001146904609901D469DF8580011F8012BA5
:1030E0000890DDE9146332B1002211F8010B0132BE
:1030F0000028FAD192B22978687811FB02F201B265
:1031000012B222EAE272082B00F2AD81DFE813F07E
:10311000000112011E013201400150016B017801D2
:1031200009003788B088B6F906300744002BA7EBB2
:103130000207BFB2C0F2FC80B6F802C009980CEBDF
:103140006306034607808280D980A6EB51018EB2C8
:103150005E80B64A236811460192DA688A4240F0DE
:103160008F818020B84205D8DA6801998A4240F000
:103170009A817F279B68AE4AA7809342039240F0D2
:103180008A814020B04206D82368039A9B68934204
:1031900040F084813F266B78E680049398F80060C5
:1031A0006B6895F800B00793002E00F0AD80A6F193
:1031B0002005EBB25E2B00F234812368019ADB68B4
:1031C000934240F030818020A3885B449842C0F253
:1031D00028812368039A9B68934240F02B8140200A
:1031E000E188049A02918B189842C0F21A81104625
:1031F000002A00F0298113466FF00047B4F804C09C
:1032000003FB05F3079DCDF81880AA1E1F44034455
:10321000DDF8209005EB4707059602EB43032246B5
:103220005C469846934637F802AFA4B3012501F0F7
:103230000702C8080CF1140305FA02F2654603EB15
:10324000C013002052B25B446FEA020E0EE07F2DE5
:1032500007D83F2905D81E78B9F1000F12D01643C0
:103260001E70013001330135844214D00AFA00F691
:103270003604ECD47F2DF4D83F29F2D81E78B9F16A
:10328000000FECD001300EEA06060133013584420E
:1032900003F8016CEAD1B84501F10101C3D15B46E5
:1032A000059EA346DDF818801C462268DC4401997F
:1032B000D3681FFA8CF58B4240F0C2808020854293
:1032C00005D3D36801998B4240F0C7807F2593686E
:1032D000039AA580934240F0B0804020029B834235
:1032E00007D32368039A9B68934240F0B0803F2342
:1032F0000293029BE38098F80030B34204D118F89F
:10330000016F002E7FF453AF09980BB0BDE8F08F2A
:10331000B6F9040037880028B6F90630B8BF013086
:10332000002B07EB6007A7EB6207BFB2BFF604AF45
:10333000013301E7B6F90070099BB6F902601F80FE
:10334000BFB25E80B6B29A80D98002E7B6F9043087
:103350003788002BB6F90260B8BF013307EB63076B
:10336000099B9A80A7EB62025E80B6B297B2D980C1
:103370001F80EEE6B3883788B6F902601F44099BC8
:103380009A80BA1A5E80B6B297B2D9801F80E0E602
:103390007388B6F806C0B6F900709C44099BACEB84
:1033A00000001F809A80BFB286B2D9805E80D0E6CE
:1033B000B6F904C03788BCF1000F7388B6F806E090
:1033C000B8BF0CF1010C099E07EB6C07B2800EEB45
:1033D0000306A7EB6202301A099B97B286B2D98026
:1033E0001F805E80B5E6B6F804C037887388B6F8EB
:1033F00006E06744099EB2800EEB0306BA1AEAE7BC
:10340000B6F90630B6F90000002BB6F802C0099EE6
:1034100087B2B8BF013330800CEB6306099B1846B6
:1034200091E6002667E720469847CDE63D2700084D
:103430003927000820469847D2E6204698474DE7AE
:103440002046984722683AE7B4F804C02DE72046A2
:103450009847013883B202934BE7204698470138DA
:10346000226885B233E723680026124FDA6809998B
:10347000BA4201970E804E808E80CE8004D03746AF
:103480002046904723686DE69B680B4AA6809342CE
:1034900003923FF480AE2046984773E62046984753
:1034A000013886B277E6204690470138236887B214
:1034B00060E600BF3D270008392700082DE9F04FDE
:1034C00087B09DF84860109C9DF8445001969EB3CB
:1034D00099422ED89A46A24228D87F29164694BFF0
:1034E0000023012308E09CF814904EEA090E8CF8A2
:1034F00014E00136B44219D33F2EFAD8002BF8D18C
:103500004FEAD60C06F0070E4FF0010901EBCC1C78
:1035100009FA0EFE8444002DE5D19CF814B0013662
:103520002BEA0E08B4428CF81480E5D201318A45AA
:10353000D1D207B0BDE8F08FA3EB0108B8F1000FBE
:10354000B8BFC8F10008994280F054813F2A4FF07B
:10355000010994BF002601267F2B029694BF002705
:1035600001270097DEB9D7B9002D00F05881002659
:103570004FEAD20E4FF0010C02F0070703EBCE1E0C
:10358000029600260CFA07F700960EEB000696F856
:1035900014C047EA0C073775994200F09781C4467A
:1035A00016460F467F2F15D83F2E13D84FEAD60E5A
:1035B0004FF0010B06F0070A07EBCE1E0BFA0AFAD2
:1035C00086449EF814B0002D00F045814AEA0B0AAB
:1035D0008EF814A05FEA4C0E18BF4F44F04501DD91
:1035E000C444013EBB42DDD1B242DBD10026049689
:1035F000A4EB0209B9F1000FB8BFC9F100093F2CD3
:1036000094BF00260126A242C9F100080396C0F02B
:103610003181002E40F05381009E002E40F04F81FA
:103620004FF0FF360096002D00F02C8100264FEA67
:10363000D40E4FF0010C04F00707039603EBCE16EF
:103640000CFA07F7064496F814C047EA0C073775DA
:10365000A24200F03E81C44616461F4605927F2FC7
:1036600015D83F2E13D84FEAD60E4FF0010B06F0B7
:10367000070A07EBCE1E0BFA0AFA86449EF814B02E
:10368000002D00F0ED804AEA0B0A8EF814A0B8EB8A
:103690004C0F4FEA4C0E02DAACEB090C013FBEF1C5
:1036A000000F01D0009A1644BB42D8D1B442D6D103
:1036B000059A7F29A1EB030E94BF4FF000094FF04C
:1036C000010999428CBF4FF001084FF0FF38BEF15D
:1036D000000FB8BFCEF1000EB9F1000F13D1039E59
:1036E0008EB9E6084FF0010C04F0070701EBC6168F
:1036F0000CFA07F7064496F814C0002D00F0DB80A2
:1037000047EA0C073775049E2EBB774626467F2B6B
:1037100015D83F2E13D84FEAD60C4FF0010B06F008
:10372000070A03EBCC1C0BFA0AFA84449CF814B089
:10373000002D00F09A804AEA0B0A8CF814A05FEA88
:10374000470C18BF4344E64501DD7744013E9942EA
:10375000DDD1B442DBD1A2EB040EA2428CBF4FF00C
:1037600001084FF0FF38BEF1000FB8BFCEF1000ED8
:10377000CEF1000CB9F1000F0FD1029B6BB9D30849
:1037800002F00707012601EBC313002D00F08B8028
:103790000344BE401F7D3E431E75019B002B7FF4FA
:1037A000C8AE66460B467F2B13D83F2C11D8E708CE
:1037B00004F0070A4FF0010903EBC717002D40D0B2
:1037C000074409FA0AF997F814A049EA0A0987F8A0
:1037D0001490BCEB460F4FEA460702DAA6EB0E0642
:1037E000013B07B144449942DDD1A242DBD107B08D
:1037F000BDE8F08F7F2B4FF0FF3994BF00260126E4
:103800003F2A009694BF002701270297002E7FF4DD
:10381000C3AE002F7FF4C0AE002D7FF4A8AED60853
:103820004FF0010C02F00707029503EBC616009556
:103830000CFA07F7064496F814C02CEA0707377508
:10384000AAE6074409FA0AFA97F8149029EA0A093D
:1038500087F81490BDE72BEA0A0A8EF814A0B9E69F
:103860002BEA0A0A8EF814A011E72BEA0A0A8CF850
:1038700014A064E73EBB009E2EBB01260096002DDF
:103880007FF4D4AEE6084FF0010C04F0070703956F
:1038900003EBC6160CFA07F7064496F814C02CEA98
:1038A00007073775D4E6034406FA07F71E7D26EAB4
:1038B00007061E7571E72CEA0707377523E74FF0F7
:1038C000FF360096C4E601260096C4E6012604965B
:1038D0008EE601260196ECE62DE9F04F5F4E0024BE
:1038E0005F483546DFF878912DED028B83B001F00B
:1038F000EBF85B4801F002F9E1B20134584801F0FD
:10390000F7F8042CA5EC010AF6D1564802F07EFD2A
:10391000DFF8688103465448544D88F8003002F0BF
:1039200075FDF1EE047AD6ED000AB0EE000A88F8D3
:10393000010060EEA70AFCF787FEAF69D5F81CA06E
:1039400001A89FED4B7AAAEB0704D6ED027A20EE90
:10395000070A484BA410726807EE104A83ED010A6B
:10396000DA6004F1FF3BF8EE478A28EEA70AFCF77D
:1039700035FEDDED017AFCEEE77A17EE901A594537
:1039800033D31AED018A96ED030A01A885ED038A67
:1039900028EE800AFCF722FEDDED017AFCEEE77AE4
:1039A00017EE901A594534D2A14253D207EB810742
:1039B0000131A142D7ED006A4CD2B7EE007AD7EDC3
:1039C000017A98F8003060EE277A37EE400AE6EE8A
:1039D000807AC5ED047A23BB99F84130802B20D042
:1039E00003B0BDEC028BBDE8F08F8C4232D907EBFF
:1039F000810301318C4293ED007A2BD9F7EE007AE6
:103A000093ED018A20EE088A37EEC00AA7EE008AFD
:103A1000B9E75AED017A98F80030C5ED047A002B29
:103A2000DAD0D5ED057A00230022F5EEC07A2B70AE
:103A3000F1EE10FA08DD27EE888A85ED028A03B0E0
:103A4000BDEC028BBDE8F08FAA6003B0BDEC028B29
:103A5000BDE8F08F224608480DF047FE40040024E0
:103A600078040024540500245A050024500400243E
:103A7000CDCC024268000024AC1E0108740400246E
:103A80002DE9F04F91460C46544D2DED048B83B03B
:103A9000FFF722FFB9F1000F00F08C8027680023A8
:103AA000D4F80C802E7807EB89090193D4E901AB97
:103AB0004B4C0EE00023A36067EE897A0023E7EC0D
:103AC000017AB9454AF8043B4BF8043B48F8043BFB
:103AD0006DD0012E4FD0022E46D066B395ED059ADB
:103AE00094ED028A9FED3F0AD4ED038A28EE000A86
:103AF000FCF752FFB6EE007A94ED016AF7EE007A19
:103B0000D4ED006AB4EEC78AA6EE268AB7EE007A34
:103B1000F1EE10FA77EEE87A58BFF1EE688AB4EE6B
:103B2000C78A67EE807AF1EE10FA77EEA87AC1DAEA
:103B300084ED028AC0E7D5ED027AD5ED016A95EDF4
:103B4000037A77EEA67A87EE879AC5ED027AF4EECD
:103B5000C77AF1EE10FA85ED059AC1DB0122002348
:103B600016460192AB60BBE7DFED1F7AB0EE679AB5
:103B7000C5ED057AB4E795ED027AF7EE007A95ED9A
:103B8000016AD5ED046A37EE067A87EE269A85ED4E
:103B9000027AB4EEE67AF1EE10FA37EEC99A85EDC4
:103BA000059A9DDB002301960226AB6098E7019BF6
:103BB00003B12E70D5ED057A02219FED0C7A0C48E9
:103BC00067EE877AFCEEE77A17EE903A9AB203B086
:103BD000BDEC048BBDE8F04F03F080BA5004002424
:103BE00068000024DB0FC9400000000000F07F45A2
:103BF0009804002408B4F0B50D461146044682B07E
:103C0000C81D00AF20F0070007F11C03ADEB000D4D
:103C100053F8042B6E463B603046A84704F1080376
:103C20000F2805462360786010D801280BD1327820
:103C3000227200222046083765605A55BD46BDE80D
:103C4000F04001B070470028F3D008E00022391D91
:103C500020460DF0FFFD7A6803462060A2602A46E8
:103C600018463146FDF744F87D682368E1E700BF58
:103C7000AB4B2DE9F04F03F580629DB0002403F8B3
:103C8000014F9A42FAD113230CAD224616A90AA875
:103C90000A9516930DF0DEFDA24E0546169B49F2DD
:103CA000A8170A900C930FCE2860B6F800C0B07821
:103CB0006960AA60EB60A5F810C0A874169B0A9A08
:103CC0000B93D4540A9B984A0393D45193F800A0C1
:103CD000964B5A7893F800905B6806920893BAF175
:103CE000000F79D0DDF80CB04E46AAF12003DAB20D
:103CF0005E2A00F251858E4AB2F800E005920EEB82
:103D000006018029049100F3478551880232069804
:103D100007920A180291402A00F33E85002845D0F8
:103D2000069A6FF0004C089902FB03F3029CA1F184
:103D300002099C44134401EB4C0C09EB43093CF889
:103D4000027F7EB304F00702012549F2B810E308B0
:103D500095407146704400226DB200EBC313724867
:103D60006FEA050803440BE07F2904D83F2C02D8F2
:103D7000187828431870013201330131B24211D052
:103D800007FA02F00004EFD47F29F4D83F2CF2D8D0
:103D9000187801320133013108EA0000B24203F819
:103DA000010CEDD1E14504F10104C8D1029ABDF83E
:103DB00010303F2A079928BF3F227F2B0A8028BF57
:103DC0007F23059A13809BF80030534504D11BF8DC
:103DD00001AFBAF1000F88D1564918AC564B1022EA
:103DE000D1ED017A10A85549FCEEE77A0294CDEDA9
:103DF000007AFFF7FFFE0523002210A8009311466A
:103E00004F4B0DF0BBFD05461694044655F8083B94
:103E1000AB4200F08685169383681893626800238E
:103E2000179225602372169A6360029B0A989A4241
:103E300000F025850CAB984200F0B284DDE9173123
:103E4000CDE90A230C9B0C91002800F0AE8416905B
:103E500018930023179303701698029B984201D081
:103E60000DF08CFB109812AB984201D00DF086FB40
:103E700049F2A8134FF400222B482C49C250039B4F
:103E800091F8009093F800A04B7807934B68099342
:103E9000BAF1000F00F08F80DDF80CB04E46AAF1A9
:103EA0002003DAB25E2A00F29384214AB2F800E0DD
:103EB00006920EEB06018029059100F38984518852
:103EC0000232079808920A180491402A00F380846D
:103ED000002859D0079A6FF0004C099902FB03F3B0
:103EE000049CA1F102099C44134401EB4C0C09EB26
:103EF00043093CF8027F002E42D004F0070201255E
:103F000049F2B810E30895407146704400226DB242
:103F100000EBC31304486FEA050803441EE000BF2A
:103F20002F960024F81E010878040024280200249B
:103F300020960024680000240C1F010809170008BF
:103F4000101F01087F2904D83F2C02D81878284375
:103F50001870013201330131B24211D007FA02F078
:103F60000004EFD47F29F4D83F2CF2D8187801321E
:103F70000133013108EA0000B24203F8010CEDD12F
:103F8000CC4504F10104B4D1049ABDF814303F2AA1
:103F9000089928BF3F227F2B0A8028BF7F23069ADB
:103FA00013809BF80030534505D11BF801AFBAF1DF
:103FB000000F7FF474AF544B10229FED547A10A879
:103FC000D3ED037A524967EE877A524BFCEEE77ADB
:103FD000CDED047A9DF810400094FFF70BFE05210B
:103FE00000224D4B009110A811460DF0C7FC029B1A
:103FF00005460446169355F8083BAB4200F0898409
:1040000016938368189362680023179225602372C1
:10401000169A6360029B0A989A4200F021840CABC6
:10402000984200F05184DDE91731CDE90A230C9B59
:104030000C91002800F04D841690189300231793DC
:1040400003701698029B984201D00DF097FA1098D1
:1040500012AB984201D00DF091FA49F2A8134FF437
:1040600080122E482E49C250039B91F8009093F87D
:1040700000A04B7807934B680993BAF1000F00F04A
:104080008C80DDF80CB04E46AAF12003DAB25E2A2D
:1040900000F29B83234AB2F800E006920EEB060181
:1040A0008029059100F39183518802320798089284
:1040B0000A180491402A00F38883002856D0079AF2
:1040C0006FF0004C099902FB03F3049CA1F1020973
:1040D0009C44134401EB4C0C09EB43093CF8027F70
:1040E000002E3FD004F00702012549F2B810E30882
:1040F00095407146704400226DB200EBC31307482F
:104100006FEA050803441BE0680000240000C84271
:1041100009170008181F01081C1F01087804002453
:1041200028020024209600247F2904D83F2C02D89E
:10413000187828431870013201330131B24211D08E
:1041400007FA02F00004EFD47F29F4D83F2CF2D80C
:10415000187801320133013108EA0000B24203F855
:10416000010CEDD1CC4504F10104B7D1049ABDF89E
:1041700014303F2A089928BF3F227F2B0A8028BF8E
:104180007F23069A13809BF80030534505D11BF816
:1041900001AFBAF1000F7FF477AF534B10229FEDC0
:1041A000537A10A8D3ED037A514967EE877A514BC1
:1041B000FCEEE77ACDED007AFFF71CFD0521002229
:1041C0004D4B009110A811460DF0D8FB029B0546FF
:1041D0000446169355F8083BAB4200F0AA831693A9
:1041E0008368189362680023179225602372169AD9
:1041F0006360029B0A989A4200F0EE820CAB9842F0
:1042000000F06E83DDE91731CDE90A230C9B0C9198
:10421000002800F06A831690189300231793037008
:104220001698029B984201D00DF0A8F9109812AB95
:10423000984201D00DF0A2F949F2A8134FF4C01230
:104240002E482F49C250039B91F8009093F800A08C
:104250004B7807934B680993BAF1000F00F08D80FB
:10426000DDF80CB04E46AAF12003DAB25E2A00F265
:10427000A682244AB2F800E006920EEB06018029DD
:10428000059100F39C8251880232079808920A181F
:104290000491402A00F39382002857D0079A6FF0C8
:1042A000004C099902FB03F3049CA1F102099C4410
:1042B000134401EB4C0C09EB43093CF8027F002E40
:1042C00040D004F00702012549F2B810E3089540F8
:1042D0007146704400226DB200EBC31307486FEAC9
:1042E000050803441CE000BF5004002400007A4489
:1042F000091700080C1F0108241F01087804002476
:1043000028020024209600247F2904D83F2C02D8BC
:10431000187828431870013201330131964211D0C8
:1043200007FA02F00004EFD47F29F4D83F2CF2D82A
:10433000187801320133013108EA0000964203F88F
:10434000010CEDD1E14504F10104B6D1049ABDF8A8
:1043500014303F2A089928BF3F227F2B0A8028BFAC
:104360007F23069A13809BF80030534505D11BF834
:1043700001AFBAF1000F7FF476AF534B10229FEDDF
:10438000537A10A8D3ED047A514967EE877A514BDE
:10439000FCEEE77ACDED007AFFF72CFC0521002238
:1043A0004D4B009110A811460DF0E8FA029B05460E
:1043B0000446169355F8083BAB4200F09C821693D6
:1043C0008368189362680023179225602372169AF7
:1043D0006360029B0A989A4200F01C820CAB9842E0
:1043E00000F06782DDE91731CDE90A230C9B0C91BF
:1043F000002800F06382169018930023179303702F
:104400001698029B984201D00DF0B8F8109812ABA4
:10441000984201D00DF0B2F849F2A8134FF40012FF
:104420002E482F49C250039B91F800A093F80090AA
:104430004B7807934B680993B9F1000F00F08D801A
:10444000DDF80CB05646A9F12003DAB25E2A00F27C
:10445000B981244AB2F800E006920EEB06018029E9
:10446000059100F3AF8151880232079808920A182B
:104470000491402A00F3A681002857D0079A6FF0D4
:10448000004C099902FB03F3049CA1F1020A9C442D
:10449000134401EB4C0C0AEB430A3CF8027F002E5C
:1044A00040D004F00702012549F2B810E308954016
:1044B0007146704400226DB200EBC31307486FEAE7
:1044C000050803441CE000BF5004002400007A44A7
:1044D000091700080C1F01082C1F0108780400248C
:1044E00028020024209600247F2904D83F2C02D8DB
:1044F000187828431870013201330131964211D0E7
:1045000007FA02F00004EFD47F29F4D83F2CF2D848
:10451000187801320133013108EA0000964203F8AD
:10452000010CEDD1E24504F10104B6D1049ABDF8C5
:1045300014303F2A089928BF3F227F2B0A8028BFCA
:104540007F23069A13809BF800304B4505D11BF85A
:10455000019FB9F1000F7FF476AFB64B10229FEDAB
:10456000B67A10A8D3ED057AB44967EE877AB44BD2
:10457000FCEEE77ACDED047A9DF810400094FFF749
:1045800039FB0423002210A800931146AD4B0DF017
:10459000F5F9029B05460446169355F8083BAB42D5
:1045A00000F0B08116938368189362680023179215
:1045B00025602372169A6360029B0A989A4200F063
:1045C0001A810CAB984200F06981DDE91731CDE921
:1045D0000A230C9B0C91002800F06581169018931B
:1045E0000023179303701698029B984201D00CF099
:1045F000C5FF109812AB984201D00CF0BFFF49F2F2
:10460000A8134FF4201290489049C250039B91F890
:1046100000A093F800B04B7805934B680793BBF16B
:10462000000F79D05646DDF80CA0ABF12003DAB2CA
:104630005E2A00F2C180864AB2F800E003920EEBD7
:1046400006018029049100F3B78051880232059851
:1046500006920A180291402A00F3AE80002845D045
:10466000059A6FF0004C079902FB03F3029CA1F13D
:1046700002099C44134401EB4C0C09EB43093CF840
:10468000027F7EB304F00702012549F2B810E30867
:1046900095407146704400226DB200EBC3136A4826
:1046A0006FEA050803440BE07F2904D83F2C02D8A9
:1046B000187828431870013201330131964211D025
:1046C00007FA02F00004EFD47F29F4D83F2CF2D887
:1046D000187801320133013108EA0000964203F8EC
:1046E000010CEDD1E14504F10104C8D1029ABDF8F5
:1046F00010303F2A069928BF3F227F2B0A8028BF0F
:104700007F23039A13809AF800305B4504D11AF88E
:1047100001BFBBF1000F88D14E4EB02400214E489E
:104720008DF8584001340D4602F0FAFD6423012251
:1047300016A94A4803F002FE29464748E4B28DF81C
:10474000585002F0EDFD0122642316A9434803F0FE
:10475000F5FD1023294640488DF8583002F0E0FD61
:104760006423012216A93D4803F0E8FD01213A48DF
:1047700002F0D6FD8022314664233848164403F007
:10478000DDFDB82CCAD10A980CAB984201D00CF0D0
:10479000F5FE1DB0BDE8F08F4FF0000AFFF713BB28
:1047A0001799189B0A92CDE90B13029B169318AB2D
:1047B00018460293FFF74DBB4FF0000BA3E74FF0F5
:1047C000000AD0E54FF00009BDE64FF0000ADAE438
:1047D0004FF0000AFFF7E5BB179A3AB1012A00F043
:1047E000C7800299FCF784FA179A0A9800230B9263
:1047F0008354169811E5179A3AB1012A00F0A08067
:104800000299FCF775FA179A0A9800230B928354C1
:104810001698E5E6179A3AB1012A00F09D800299B0
:10482000FCF766FA179A0A9800230B92835416989D
:10483000E3E500BF500400240000C8420917000847
:10484000181F0108341F01087804002428020024DE
:1048500020960024309600242C96002424960024D0
:10486000179A32B1012A7DD00299FCF741FA179AC2
:104870000A9800230B9283541698FFF7DFBB179A10
:1048800032B1012A62D00299FCF732FA179A0A98DB
:1048900000230B9283541698FFF7DBBA1799189BE5
:1048A0000A92CDE90B13029B169318AB184602939C
:1048B00096E61799189B0A92CDE90B13029B169363
:1048C00018AB1846029398E51799189B0A92CDE900
:1048D0000B13029B169318AB18460293FFF7AEBB5F
:1048E0001799189B0A92CDE90B13029B169318ABEC
:1048F0001846029391E4029E28686968AA68EB68EA
:104900000FC65FE5029E28686968AA68EB680FC653
:104910004BE6029E28686968AA68EB680FC6FFF735
:1049200072BB029E28686968AA68EB680FC6FFF729
:1049300075BA029E28686968AA68EB680FC651E4D8
:104940009DF860300370179A0A985EE79DF8603012
:104950000370179A0A989BE79DF860300370179AC6
:104960000A9861E79DF860300370179A0A9880E70B
:104970009DF860300370179A0A9837E708B5002150
:104980000E4800F005FB0D4800F098F8B7EE007AED
:104990000B4A0C4BC7EE007A0B49084881ED000A20
:1049A000C2ED017AC3ED007A00F08AF807490348A6
:1049B00000F082F8FFF75CF9FCE700BF7804002400
:1049C00050040024680000243C9A0024813A000826
:1049D000F8B52E4B49F294122D4849F29611B3F8CE
:1049E00000E000259E8849F2901C20F802E049F280
:1049F0009814DFF8C0E049F29C13465249F2A01225
:104A00004FF60F0640F803E0055149F2AC13214F71
:104A100049F2A21140F80C5049F2A4144FF0070CCF
:104A200086521D4E3A4600F801C0065102261B4C24
:104A3000C5501B4945610562C0F8E8500CF024FDE3
:104A40000022184B1C2018492670184E2562616000
:104A5000A2606261E3602361C4E906550CF092FD37
:104A600005460FCE286005F11C006960AA60A561AB
:104A7000EB60C4E9070007CE286120466961AA619E
:104A80003A460B49BDE8F8400CF0FEBC881A010814
:104A9000780400240000002454200108500400245D
:104AA00019270008CDCCCC3DC637BE378820010879
:104AB0004127000880707FF000F03EBB00F040BB53
:104AC000183002F0A9B800BF10B504465C3001F000
:104AD0001BFC04F17C0001F017FC04F19C0001F0C8
:104AE00013FC04F1BC00BDE8104001F00DBC00BF98
:104AF00000EB411191ED1A0A704700BF3C3001F004
:104B00004DBC00BF2DE9F04332499DB004464FF43F
:104B100041700991012100220123032601271291EE
:104B200000252D494FF001084FF00009ADF82C0089
:104B30001B200A910895CDE90E23CDE91023CDE97C
:104B40001A23CDE90C67CDE91667CDE9188900F085
:104B5000DDFA034618204FF07C57ADF84E3000F0D8
:104B6000D5FA03461C203026ADF84C3000F0CEFAC2
:104B700003461920ADF8503000F0C8FA03461A2059
:104B8000ADF8543000F0C2FA00220023054608A90F
:104B900002A8ADF852500325CDE9022303F034F802
:104BA00012A903A803F030F81D2000F0AFFAADF809
:104BB0000400019800F042FB05A904F114000797D6
:104BC000DDE90223CDE9056501F00EFB1DB0BDE86E
:104BD000F08300BF0402040404050406F0B5064691
:104BE0000F20002406F1180706F15C052DED028B5D
:104BF00099B09FED258A00F089FA034607A8ADF821
:104C00000C30039901F058FC102000F07FFA0346A5
:104C10000DF12D00ADF81030049901F04DFC152078
:104C200000F074FA03460DF13E00ADF8143005991A
:104C300001F042FC122000F069FA03460DF14F002A
:104C4000ADF81830069901F037FC042307A938465F
:104C50001A4601F03FFCE1B2384601F0F3FF01468D
:104C600001343046019100F06FFA2846F0EE480A10
:104C7000002301990122203501F028FB042CEAD100
:104C800019B0BDEC028BF0BD6F12033B00000000B9
:104C90002DE9F04106468CB0092049F2AC1400F031
:104CA00035FA034634441E20ADF8003000F02EFAE9
:104CB000ADF8020001252646009BA572A04626F805
:104CC000083F3046019302F041FABDF80630002754
:104CD000A57128F8043F404602F038FA002200236C
:104CE0004FF0080C02A92046CDF81CC00695CDE96E
:104CF0000423CDE9082302220223CDE90A23A2A33B
:104D0000D3E90023CDE9022303F094FA3946404663
:104D100002F006FB0A2004F0D5FA2946404602F0CC
:104D2000FFFA0A2004F0CEFAAE23304639468DF859
:104D3000083002F0F5FA2A4602A92046642303F05F
:104D4000FDFAD523304639468DF8083002F0E8FAEE
:104D50002A4602A92046642303F0F0FA8023304655
:104D600039468DF8083002F0DBFA2A4602A92046BF
:104D7000642303F0E3FAA823304639468DF808305F
:104D800002F0CEFA2A4602A92046642303F0D6FA9E
:104D90003F23304639468DF8083002F0C1FA2A46E2
:104DA00002A92046642303F0C9FADA2330463946C3
:104DB0008DF8083002F0B4FA2A4602A9204664238E
:104DC00003F0BCFA1223304639468DF8083002F061
:104DD000A7FA2A4602A92046642303F0AFFAD32398
:104DE000304639468DF8083002F09AFA2A4602A970
:104DF0006423204603F0A2FA304639468DF8087045
:104E000002F08EFA2A4602A92046642303F096FA9D
:104E10004023304639468DF8083002F081FA2A46A0
:104E200002A92046642303F089FAA62330463946B6
:104E30008DF8083002F074FA2A4602A9204664234D
:104E400003F07CFAA423304639468DF8083002F08E
:104E500067FA2A4602A92046642303F06FFA8D23DD
:104E6000304639468DF8083002F05AFA2A4602A92F
:104E70002046642303F062FA1423304639468DF845
:104E8000083002F04DFA2A4602A92046642303F0B6
:104E900055FAA123304639468DF8083002F040FA21
:104EA0002A4602A92046642303F048FAC823304664
:104EB00039468DF8083002F033FA2A4602A9204616
:104EC000642303F03BFA8123304639468DF80830DD
:104ED00002F026FA2A4602A92046642303F02EFA9D
:104EE0008F23304639468DF8083002F019FA2A46E9
:104EF00002A92046642303F021FAD923304639461B
:104F00008DF8083002F00CFA2A4602A920466423E4
:104F100003F014FA2523304639468DF8083002F0A4
:104F2000FFF92A4602A92046642303F007FADB238F
:104F3000304639468DF8083002F0F2F92A4602A9C7
:104F40002046642303F0FAF93423304639468DF8BD
:104F5000083002F0E5F92A4602A92046642303F04E
:104F6000EDF9AF23304639468DF8083002F0D8F914
:104F70002A4602A96423204603F0E0F90CB0BDE8FC
:104F8000F08100BFAFF30080060B0B000105060A9D
:104F90002DE9F04304468DB000250126019100F073
:104FA00095F80199204600F00BF904F120092046FC
:104FB0000227FFF7A7FD2046FFF76AFE05A948462E
:104FC00049F2B858CDE90865CDE9067502F00AF84E
:104FD0002A463946484602F081F80C2000F096F83F
:104FE00003460B20ADF8103000F090F80346284639
:104FF000ADF80C3000F08AF803462046ADF80830D2
:1050000000F0A2F8049904F13C00DDE9023201F05D
:105010009FF9112000F07AF804EB080249F2BA5324
:1050200024F808001046E65202F090F8142000F030
:105030006DF8034605A904F1DC00ADF8143001F069
:10504000DDF9132000F062F8034605A904F1E2003F
:10505000ADF8143001F0D2F92046FFF719FE49F2FD
:10506000901349F2941CDFF860E049F29810E55083
:10507000144A47F6122344F80CE005A9204405928F
:105080000B930A96CDE90656CDE9085703F0F6FFD3
:1050900049F2841149F280120A2384F8EC50204628
:1050A0006550A55084F8F030FFF798FD49F2C053E1
:1050B0001122E25004F004F949F2BC53E0500DB063
:1050C000BDE8F08301060107010701060B4A40F223
:1050D00007110B4B02604FF4877243600623C184B3
:1050E0004285037480F8293070B40224054E064DC1
:1050F00080F82540C0E9026570BC704700070500D4
:10510000010508050905070506050A061F2882B0DE
:1051100009D8084B03EB400213F81030507843EAEB
:10512000002002B0704701230C2043EA002002B0A7
:10513000704700BFA4200108143001F09DB800BFE3
:10514000143001F095B800BF90ED0E0A704700BF13
:10515000F0B51A4D91B000210446079505F1007590
:105160004FF44170002201230326012705F5407505
:105170000691029106A9ADF8240002A808953025F1
:10518000CDE90C23CDE90E23CDE90A6702F03CFD01
:1051900040F601334FF07E56ADF80430019800F030
:1051A0004DF80323029A03A904F114000596CDE9F2
:1051B000035300F0E5FF11B0F0BD00BF040204048A
:1051C00030B504462DED028B83B089B3012240F245
:1051D00001130092ADF80430694604F1300004F088
:1051E00055F9204600F04CF8E01C02F0ABF804F151
:1051F000250001F0ABFF04F1140504F1290001F0D2
:10520000A5FF2046FFF7A4FF284601F031F8284605
:10521000B0EE408A01F028F8D0ED007AF8EE677A17
:1052200088EE277A84ED0E7A03B0BDEC028B30BD98
:1052300040F201130091ADF80430CDE710B584B011
:1052400003460124ADF8040003A8ADF80C30ADF816
:105250000E4001F07BFF214603A802F061F82046D2
:1052600004F030F803A8002102F05AF8204604F0B8
:1052700029F8214603A802F053F804B010BD00BF7E
:105280002DE9F043444C8BB0A063037823B1002593
:1052900028460BB0BDE8F083404A0A2300260127C8
:1052A000626008220893202302A9201DC4E9026736
:1052B000C4E9042340264FF4C07700224FF4006372
:1052C000C4E90667C4E908234FF480560027022288
:1052D0000723C4E90A67CDE9022304260322002339
:1052E0000827CDE90623CDE9046709F0D7FB054679
:1052F00000284CD14FF001084FF01009012600277B
:1053000002A94FF480520190201DCDE902894FF08F
:1053100002084FF01009CDE9046709F0E9FB6420A9
:1053200004F0AEFA02A94FF48052201DCDE90467C3
:10533000CDE9028904264FF003084FF01009002739
:1053400009F0D6FB02A94FF48052201DCDE9046775
:10535000CDE9028909F0CCFB40F232234FF0010C79
:10536000042601931027019B02A94FF48052201DAF
:10537000CDE904C3CDE9026709F0BAFB201D40F670
:10538000060109F0D5FB28460BB0BDE8F0830125E6
:1053900028460BB0BDE8F083489A002440410052F3
:1053A000694A2DE9F04315688FB015B10FB0BDE81B
:1053B000F083664B01210C24002611600327D3F8EB
:1053C000D4204FF683784FF0020908A942F48052A6
:1053D0005F48C3F8D420D3F8D42002F4805200925E
:1053E000009AD3F8E02042F01002C3F8E020D3F88E
:1053F000E02002F010020192019AD3F8E02042F07E
:105400004002C3F8E020D3F8E02002F0400202920C
:10541000029AD3F8E02042F00802C3F8E020D3F863
:10542000E02002F008020392039AD3F8E02042F44D
:105430008072C3F8E020D3F8E02002F48072049276
:10544000049AD3F8E02042F08002C3F8E020D3F8B9
:10545000E02002F080020592059AD3F8E02042F0A5
:105460002002C3F8E020D3F8E02002F020020692E8
:10547000069AD3F8E02042F00402C3F8E020D3F803
:10548000E0300C9403F004030793079BCDE90A670F
:10549000CDE9088906F0D4F948F23712022308A9A9
:1054A0002C480C94DFF8C080CDE90A67CDE90823C9
:1054B00006F0C6F94CF20372022308A926480C94A0
:1054C000CDE90A67CDE9082306F0BAF940F2FF6298
:1054D000022308A921480C94CDE90A67CDE90823E5
:1054E00006F0AEF94FF60C72022308A91C480C9482
:1054F000CDE90A67CDE9082306F0A2F94FF63F028D
:10550000022308A917480C94CDE90823CDE90A67BE
:1055100006F096F9D8F83800013004F091F8D8F880
:1055200038300646581C04F093F80222074603233D
:1055300008A930460C9408970B93CDE9092506F08D
:105540007FF90FB0BDE8F083409A00240044025870
:105550000010025800180258000C0258002002588F
:10556000001C025800140258489A00242DE9F04FFC
:10557000DFF8288406460D46144608F114002DED88
:10558000028B89B000AF02F02FFCD8F814305BB367
:10559000D8F818304269002B0BBF022304234FF0C8
:1055A00008094FF01009FB61D8F804304BB3A10093
:1055B000E946012A01F1070121F00701ADEB010DD8
:1055C0006846ADEB010D694600F04281022A00F009
:1055D000DB80002A74D022469847CD462437BD464A
:1055E000BDEC028BBDE8F08FD8F81830002BF5D059
:1055F00002234FF008094269FB61D8F80430002B00
:10560000D5D1D8F80030BA617B61002BE6D06B466B
:10561000DA4808EE103A02F02FFC8646F869BA69BB
:10562000022800F08E816B46C7F810903969A3EB11
:10563000C4039D466300E946B3FBF0F3A9EBC40C39
:10564000C7F8189009EB830AB869E546ADEB010D80
:105650000CEB8301EB46F9603969C7F810A00AEB3F
:10566000830AADEB010DCBF80000F9680AEB83006B
:10567000E94601EB8301CBF80C00386901EB8303A9
:10568000C9F800C0CBE9010AF868C9E90213C9F8F2
:105690000400012A00F08283022A00F07C82002AA2
:1056A00000F086816208494658467B69984718EEA3
:1056B000103A24379D46BD46BDEC028BBDE8F08F05
:1056C000002C88D098ED0B6A864606F1040CDFEDBD
:1056D000B66A36F922A00EF1080E07EE10AA3CF9C0
:1056E00022A0023207EE90AAB8EEC77A9442F8EEF2
:1056F000E77A27EE267A67EEA67A27EE067A67EE35
:10570000867A0EED027A4EED017AE2D8F9612246F0
:1057100098479B4EF9690020D8ED046A2B1D9FED38
:10572000A37A9FED986ADFED985A22E0F4EEC67AEC
:10573000F1EE10FAC0F2EF8447F6FE72D1ED017A75
:1057400045F8202066EEA77AF4EEC77AF1EE10FA5B
:1057500040F2F580F4EEC67AF1EE10FAC0F2FC8465
:1057600047F6FE7243F820200230083184427FF66B
:1057700034AFD1ED007A66EEA77AF4EEC77AF1EE97
:1057800010FAD3D83246D9E7002C3FF424AF98ED75
:105790000B6A8646002206F1040CDFED7C6A06EBFC
:1057A000820A0EF1080E9AED007A0CEB820A0232A0
:1057B000DAED007AB8EEC77A9442F8EEE77A27EE8F
:1057C000267A67EEA67A27EE067A67EE867A0EEDDF
:1057D000027A4EED017AE2D8F961224698476C4E82
:1057E000F9690020D8ED046A2B1D9FED707ADFF86F
:1057F000B0C19FED646A20E0F4EEC67AF1EE10FAD3
:10580000C0F2A2843246D1ED017A45F8202066EE3E
:10581000A77AF4EEC77AF1EE10FA40F28E80F4EE39
:10582000C67AF1EE10FAC0F28784324643F820209F
:105830000230083184427FF6D0AED1ED007A66EEB8
:10584000A77AF4EEC77AF1EE10FAD5D86246DAE715
:10585000002C3FF4C0AE06F1040CFD6198ED0B6A1C
:105860001D46834663464FF0000ADFED4A6AB446A0
:105870005CF82A200BF1080B53F82A600AF1020A9F
:1058800082F4000286F4000E5445A2F5000207EEF1
:10589000102AAEF5000207EE902AB8EEC77AF8EEAD
:1058A000E77A27EE267A67EEA67A27EE067A67EE83
:1058B000867A0BED027A4BED017AD9D82B46FD6939
:1058C0002246F9619847344EF9690020D8ED046A00
:1058D0002B1D9FED367ADFF8CCC09FED2A6A1FE0C2
:1058E000F4EEC67AF1EE10FAC0F21E843246D1ED23
:1058F000017A45F8202066EEA77AF4EEC77AF1EE39
:1059000010FA18D9F4EEC67AF1EE10FAC0F2FB8361
:10591000324643F820200230083184427FF65DAEE3
:10592000D1ED007A66EEA77AF4EEC77AF1EE10FABE
:10593000D6D86246DBE76246EBE7624676E7324658
:1059400010E7A3006008073323F00703ADEB030D56
:10595000EC46ADEB030DEA46ADEB090D0CEB800315
:10596000C7F818C0EB46ADEB090D0AEB80003B61B0
:10597000E946CBE900C3C9E900A08AE69C9A002465
:105980000280FFFF04FF7F3F00FEFF460000003063
:105990000082FF7F0000003482FF7F00849A002491
:1059A000007E00807E0080FF0000003804FF7FBF83
:1059B000002C00F0EC82F969D8F82030022900F0C0
:1059C0001B8303EB8E0ADBF80C104FEA8E03C7F83B
:1059D00000B006F1040C5FED0C5A7B60DBF8083078
:1059E000D7F818E0FB600AF10403C7F818909B464B
:1059F000D7F81090B9603D613CF9221036F9223099
:105A000006EE901A3AF9221006EE103A98ED0B5A6B
:105A100007EE101AF8EEE66AB8EEC66A3BF92210F5
:105A2000B8EEC77A530807EE901A66EEA56A26EE1E
:105A3000256AF96827EE257A09EB8300F8EEE77A04
:105A40000EEB830526EE056A01EB830127EE057A4E
:105A5000023266EE856A67EEA57A85ED006A9442A9
:105A6000C0ED006A81ED007A98ED0B7AB86867EEB8
:105A7000877A00EB8303C3ED007ABDD8D7F800B076
:105A8000D7F818903D69620849467B69584698479F
:105A9000D8F8283079680022D8ED046A1944D9F87A
:105AA00000E0D9F804C02B1D01F104088A461FED5F
:105AB000417AC7F81880B14E9FEDB16ADFEDB15A57
:105AC000D7F81C8052E0F4EEC67AF1EE10FAC0F27C
:105AD000DC8247F6FE7B0CEB010045F822B0D0EDEE
:105AE000007A66EEA77AF4EEC77AF1EE10FA4CD996
:105AF000F4EEC67AF1EE10FAC0F2D08247F6FE70EC
