:020000040800F2
:1000000000000220810C00087D0C0008952C0008DF
:100010007D0C00087D0C00087D0C0008000000002D
:100020000000000000000000000000007D0C00083F
:100030007D0C0008000000007D0C0008852C0008E5
:100040007D0C00087D0C00087D0C00087D0C00086C
:100050007D0C00087D0C00087D0C00087D0C00085C
:100060007D0C00087D0C00087D0C0008F1280008BC
:10007000FD2800087D0C0008092900081529000842
:100080007D0C00085D7500087D0C00087D0C0008E3
:100090007D0C00087D0C00087D0C00087D0C00081C
:1000A0007D0C00087D0C00087D0C00087D0C00080C
:1000B0007D0C00087D0C00087D0C0008917500087F
:1000C0007D0C00089D7500087D0C00087D0C000863
:1000D0007D0C00087D0C00087D0C00087D0C0008DC
:1000E0007D0C00087D0C0008000000007D0C00085D
:1000F0007D0C00087D0C00087D0C00087D0C0008BC
:100100007D0C00087D0C00087D0C00087D0C0008AB
:100110007D0C00087D0C00087D0C00087D0C00089B
:100120007D0C00087D0C00087D0C00087D0C00088B
:100130007D0C00087D0C00087D0C00087D0C00087B
:1001400000000000000000000000000000000000AF
:100150007D0C00087D0C00087D0C00087D0C00085B
:10016000A97500087D0C00087D0C00087D0C0008B6
:100170007D0C00087D0C00087D0C00087D0C00083B
:100180007D0C00087D0C00087D0C00087D0C00082B
:100190007D0C00087D0C00087D0C00087D0C00081B
:1001A0007D0C00087D0C00087D0C00087D0C00080B
:1001B000392600087D0C00087D0C00087D0C000825
:1001C0007D0C00087D0C00087D0C00087D0C0008EB
:1001D0007D0C00087D0C00087D0C00087D0C0008DB
:1001E0007D0C00087D0C00087D0C00087D0C0008CB
:1001F0007D0C00087D0C00087D0C00087D0C0008BB
:100200007D0C00087D0C00087D0C00087D0C0008AA
:100210007D0C00087D0C00087D0C00087D0C00089A
:100220007D0C00087D0C00087D0C0008000000001B
:100230007D0C00087D0C0008000000007D0C00080B
:100240007D0C00087D0C00087D0C00087D0C00086A
:100250007D0C00087D0C00087D0C00087D0C00085A
:100260007D0C00087D0C00087D0C00087D0C00084A
:100270007D0C00087D0C00087D0C000800000000CB
:100280007D0C00087D0C00087D0C000800000000BB
:08029000000000007D0C0008D5
:100298000348044B834202D0034B03B1184770470D
:1002A800C4000024C40000240000000005480649DA
:1002B8000B1AD90F01EBA301491002D0034B03B16C
:1002C80018477047C4000024C40000240000000040
:1002D80010B5064C237843B9FFF7DAFF044B13B186
:1002E8000448AFF300800123237010BDC800002428
:1002F800000000006084000808B5044B1BB10449E5
:100308000448AFF30080BDE80840CFE700000000D4
:10031800CC00002460840008F0B510EE104A220DCD
:10032800C2F30A03B3F57D7F83B0B7EEC06A1BD270
:1003380026EE065BB3F5667F70D326EE052B25EE19
:10034800021B774B93ED1A3B93ED187B93ED164BFD
:10035800A5EE037BA2EE046BB0EE460BA7EE010BF5
:10036800B7EEC00B03B0F0BD40F22E4293425FD807
:100378006B4991ED087B26EE077BBDEEC77B91EDBF
:100388000A5B17EE103A03F500031B1613F0020F71
:1003980007EE903A01F1700208BF0A46D807B8EE96
:1003A800E77BA7EE456BB0EE460B26EE067B1BD42B
:1003B80003F0030301EBC30393ED006B92ED165BAF
:1003C80020EE060B20EE076B92ED1A4BA6EE050BFE
:1003D80027EE066B92ED185BA7EE045BA5EE060B05
:1003E800B7EEC00B03B0F0BD92ED0E4B27EE076BD6
:1003F80027EE063B92ED0C0B92ED105BA7EE040B7B
:1004080092ED144BA6EE050B92ED126BA7EE046B62
:10041800A6EE030BB7EEC00B03B0F0BD12F4FF6FEE
:10042800A0D1B7EEC55B00EE104A8DED015A99E7F1
:10043800B3F5FF6F50D23B4AC4F3836002EB8003ED
:10044800C4F3160152F820501E6A186941F40001DD
:10045800C4F3C2539940A1FB066705FB01F33A4672
:10046800E0FB0123111C43F100550020101A05F090
:10047800404163EB010100F0CFFBAD0F2A4B9FED2C
:10048800267B05EBD47441EC160B14F0020FA3F194
:10049800700208BF1346E90726EE077B27EE076BB5
:1004A8001FD404F0030402EBC40494ED005B93ED45
:1004B800164B27EE057B27EE065B93ED1A3BA5EE60
:1004C800047B26EE055B93ED184BA6EE034BA4EEDA
:1004D800057BB7EEC70B45E703B0BDE8F04000F079
:1004E80027B993ED0E3B26EE065B26EE052B93ED22
:1004F8000C7B93ED104BA6EE037B93ED143BA5EE1E
:10050800047B93ED125BA6EE035BA5EE027BB7EED0
:10051800C70B27E7AFF30080182D4454FB21193C83
:10052800D0820008708200084083000808B52DEDCD
:10053800028BF0EE408AB0EE608A00F027F8114B8B
:1005480093F90030013310D0B4EE488AF1EE10FA76
:100558000BD6F4EE688AF1EE10FA06D6DFED0A8AB9
:10056800B4EE688AF1EE10FA02D0BDEC028B08BD39
:1005780000F0FAF888EEA80ABDEC028B212303608C
:1005880008BD00BF0400002400000000F0B482B0E1
:10059800CDED010A019830F0004C40D010EE105A11
:1005A80025F00046B6F1FF4F39DABCF1FF4F36DCD3
:1005B80066453ADB05F000473AD015F0FF4F5AD1AF
:1005C800310200296FF07D0204DD4900002902F1A3
:1005D800FF32FADC10F0FF4F5CD15FEA0C216FF0BC
:1005E8007D0403D4490004F1FF34FBD512F17E0FDA
:1005F8004ADBC5F3160343F4000314F17E0F3DDB19
:10060800C0F3160040F40000121B02E010D04B00AB
:10061800013A191AAAB10029F8DA5B00F8E7DDED0A
:10062800017A60EE277A87EEA70A02B0F0BC70471D
:100638001E4AFB0F02EB830393ED000A02B0F0BCE5
:10064800704713EA210338BF0B46002BF0D0184A35
:10065800934204DC5B00934204F1FF34FADD14F1A9
:100668007E0F1BDBA3F500033B437F3443EAC453EF
:1006780000EE103AD9E7F2157F3AABE76FF07D014B
:10068800091B0CFA01F0BFE76FF07D039B1A06FA0D
:1006980003F3B2E74FEAEC547F3CA7E76FF07D0223
:1006A800141B23413B4300EE103ABEE76482000866
:1006B800FFFF7F0010B52DED028BB0EE408A044697
:1006C80000F052F8B0EE480ABDEC028B046010BD91
:1006D80028B1F1EE407A27EE800A2220EAE7F0EE10
:1006E800407A27EE800A2220E4E700BF9FED010A46
:1006F800EEE700BF000000109FED010AE8E700BF29
:100708000000201A9FED010AE2E700BF0000007018
:100718009FED060AFFEE007AB7EE007A00284FF048
:10072800220047FE277A87EE800AC3E70000000010
:1007380070EE407AB4EE400A87EEA77AF1EE10FA2E
:10074800B0EE470A01D62120B4E7704710B5054C32
:1007580034B113460A460146022000F07FF810BD66
:10076800204610BD65080008014B1868704700BF97
:100778000800002470B50D4E0D4D761BB61006D03E
:100788000024013455F8043B9847A642F9D1094E94
:10079800094D761B07F054FEB61006D0002401342C
:1007A80055F8043B9847A642F9D170BD608400080B
:1007B800608400087484000860840008F0B4860728
:1007C80046D0541E002A3CD0CAB2034602E014F1B7
:1007D800FF3436D303F8012B9D07F8D1032C29D910
:1007E800CDB245EA05250F2C45EA054533D9A4F1D4
:1007F8001006360903F1200707EB061703F110026C
:1008080042E9045542E902551032BA42F8D1721C45
:1008180014F00C0F03EB021204F00F0613D0331F71
:1008280023F003030433134442F8045B9342FBD1DF
:1008380006F003042CB1C9B21C4403F8011B9C4206
:10084800FBD1F0BC704734461346002CF3D1F8E7CF
:1008580014460346C2E71A462646E0E72DE9F84360
:10086800224C25680DB36C681F2C3BDC98469146DA
:100878000F46064688B1D5F8880028B3D0F800316D
:1008880040F824900122A24000EB84011343022E79
:10089800C0F80031C1F8808010D0A31C01346C600E
:1008A80045F823700020BDE8F883114E114D2560EE
:1008B800002ED8D03468C5F88840D4E7D0F8043181
:1008C8001A43C0F80421E8E70B4B5BB14FF484707E
:1008D800AFF3008030B100236C68C0E94033C5F83D
:1008E8008800CDE74FF0FF30DDE700BF7802002435
:1008F800B0830008EC0100240000000081F00041F2
:1009080002E000BF83F0004330B54FEA41044FEAEC
:10091800430594EA050F08BF90EA020F1FBF54EA87
:10092800000C55EA020C7FEA645C7FEA655C00F023
:10093800E2804FEA5454D4EB5555B8BF6D420CDDF4
:100948002C4480EA020281EA030382EA000083EA77
:10095800010180EA020281EA0303362D88BF30BD17
:1009680011F0004F4FEA01314FF4801C4CEA11316D
:1009780002D0404261EB410113F0004F4FEA0333CC
:100988004CEA133302D0524263EB430394EA050F57
:1009980000F0A780A4F10104D5F1200E0DDB02FAC6
:1009A8000EFC22FA05F2801841F1000103FA0EF25A
:1009B800801843FA05F359410EE0A5F120050EF120
:1009C800200E012A03FA0EFC28BF4CF0020C43FA51
:1009D80005F3C01851EBE37101F0004507D54FF05E
:1009E800000EDCF1000C7EEB00006EEB0101B1F5AE
:1009F800801F1BD3B1F5001F0CD349085FEA3000F4
:100A08004FEA3C0C04F101044FEA445212F5800FFE
:100A180080F09A80BCF1004F08BF5FEA500C50F19B
:100A2800000041EB045141EA050130BD5FEA4C0C7E
:100A3800404141EB0101013C28BFB1F5801FE9D2DB
:100A480091F0000F04BF01460020B1FA81F308BFFE
:100A58002033A3F10B03B3F120020CDA0C3208DDCA
:100A680002F1140CC2F10C0201FA0CF021FA02F1A5
:100A78000CE002F11402D8BFC2F1200C01FA02F115
:100A880020FA0CFCDCBF41EA0C019040E41AA2BF3A
:100A980001EB0451294330BD6FEA04041F3C1CDA02
:100AA8000C340EDC04F11404C4F1200220FA04F022
:100AB80001FA02F340EA030021FA04F345EA0301CC
:100AC80030BDC4F10C04C4F1200220FA02F001FA8E
:100AD80004F340EA0300294630BD21FA04F0294610
:100AE80030BD94F0000F83F4801306BF81F48011A9
:100AF8000134013D4EE77FEA645C18BF7FEA655C1C
:100B080029D094EA050F08BF90EA020F05D054EAED
:100B1800000C04BF1946104630BD91EA030F1EBFF2
:100B28000021002030BD5FEA545C05D140004941F6
:100B380028BF41F0004130BD14F580043CBF01F5E9
:100B4800801130BD01F0004545F0FE4141F47001CF
:100B58004FF0000030BD7FEA645C1ABF19461046AA
:100B68007FEA655C1CBF0B46024650EA013406BFAB
:100B780052EA033591EA030F41F4002130BD00BF6A
:100B880090F0000F04BF0021704730B54FF4806427
:100B980004F132044FF000054FF0000150E700BFA8
:100BA80090F0000F04BF0021704730B54FF4806407
:100BB80004F1320410F0004548BF40424FF00001F4
:100BC8003EE700BF42004FEAE2014FEA31014FEA37
:100BD80002701FBF12F07F4393F07F4F81F0605186
:100BE800704732F07F4208BF704793F07F4F04BFD1
:100BF80041F40021704730B54FF4607401F00045AE
:100C080021F000411CE700BF50EA010208BF70470D
:100C180030B54FF000050AE050EA010208BF7047FE
:100C280030B511F0004502D5404261EB41014FF467
:100C3800806404F132045FEA915C3FF4D8AE4FF06F
:100C480003025FEADC0C18BF03325FEADC0C18BF52
:100C5800033202EBDC02C2F1200300FA03FC20FAA3
:100C680002F001FA03FE40EA0E0021FA02F11444F0
:100C7800BDE600BFFEE700BF0D4B0E4A934206D00B
:100C88000D4951F8040B43F8040B9342F9D10B4B6F
:100C98000B4A934204D0002143F8041B9342FBD132
:100CA80002F074F9FFF766FD00F036F8FEE700BFC2
:100CB80000000024C400002478840008C800002430
:100CC8000C0D0024704700BF704700BF704700BF7D
:100CD800E2B12DE9F0410E46904600240C48A700E9
:100CE80006F070FF0B4807F08BFA7568094807F0A3
:100CF8008FF9336805EB840501343B44A04585ED45
:100D0800000A83ED000AE9D1BDE8F081704700BF11
:100D1800B8020024E002002410B52448244C2DED2C
:100D2800028B00F077F800212048B7EE008A00F027
:100D3800D1F81E4800F092F81E48F0EE408A07F0FD
:100D48002FF99FED1D0A1B4807F042FAB0EE480A3A
:100D5800184807F071FAC8EE287A00224FF07C5341
:100D68009FED160A204662616360C4ED038A84ED34
:100D7800020AC4ED047A07F007F9F0EE407A00227F
:100D880040F201132046B0EE480A84ED018A84ED52
:100D9800028AC4ED067A2270A38407F0F5F80849A0
:100DA800024884ED060A00F055F8FEE77C020024AC
:100DB800B8020024E002002400007A420000C84281
:100DC800D90C000808B50B4800230B4A0B494361AE
:100DD800036207F035FA0A4B0A48074A0A49436191
:100DE80007F02EFA044A09490948BDE8084007F007
:100DF80027BA00BF7C02002400000024CD0C0008A4
:100E0800CDCC4C3EE0020024D50C0008D10C0008E3
:100E1800B80200240B4A40F207110B4B02604FF452
:100E2800877243600623C1844285037480F82930A1
:100E380070B40224054E064D80F82540C0E90265CD
:100E480070BC70470007050001050805090507057E
:100E580006050A06143001F059B800BF143001F035
:100E680051B800BFF0B51A4D91B00021044607955E
:100E780005F100754FF44170002201230326012774
:100E880005F540750691029106A9ADF8240002A85F
:100E980008953025CDE90C23CDE90E23CDE90A6765
:100EA80001F0AEFD40F601334FF07E56ADF8043048
:100EB800019800F04DF80323029A03A904F11400E5
:100EC8000596CDE9035300F0E5FF11B0F0BD00BF72
:100ED8000402040430B504462DED028B83B089B3B7
:100EE800012240F201130092ADF80430694604F182
:100EF800300001F0B3FF204600F04CF8E01C01F090
:100F08001DF904F1250001F02BF804F1140504F192
:100F1800290001F025F82046FFF7A4FF284600F035
:100F2800F1FF2846B0EE408A00F0E8FFD0ED007AE5
:100F3800F8EE677A88EE277A84ED0E7A03B0BDEC76
:100F4800028B30BD40F201130091ADF80430CDE7BB
:100F580010B584B003460124ADF8040003A8ADF829
:100F68000C30ADF80E4000F0FBFF214603A801F05D
:100F7800D3F8204601F08CFE03A8002101F0CCF83C
:100F8800204601F085FE214603A801F0C5F804B00B
:100F980010BD00BF2DE9F043444C8BB0A06303782B
:100FA80023B1002528460BB0BDE8F083404A0A2348
:100FB80000260127626008220893202302A9201D29
:100FC800C4E90267C4E9042340264FF4C07700222D
:100FD8004FF40063C4E90667C4E908234FF4805658
:100FE800002702220723C4E90A67CDE90223042661
:100FF800032200230827CDE90623CDE9046706F07C
:1010080059F9054600284CD14FF001084FF0100956
:101018000126002702A94FF480520190201DCDE936
:1010280002894FF002084FF01009CDE9046706F075
:101038006BF9642002F062F802A94FF48052201D77
:10104800CDE90467CDE9028904264FF003084FF083
:101058001009002706F058F902A94FF48052201D04
:10106800CDE90467CDE9028906F04EF940F2322352
:101078004FF0010C042601931027019B02A94FF49D
:101088008052201DCDE904C3CDE9026706F03CF982
:10109800201D40F6060106F057F928460BB0BDE8BA
:1010A800F083012528460BB0BDE8F083080300242F
:1010B80040410052694A2DE9F04315688FB015B1D7
:1010C8000FB0BDE8F083664B01210C2400261160A7
:1010D8000327D3F8D4204FF683784FF0020908A9E4
:1010E80042F480525F48C3F8D420D3F8D42002F4E5
:1010F80080520092009AD3F8E02042F01002C3F820
:10110800E020D3F8E02002F010020192019AD3F80F
:10111800E02042F04002C3F8E020D3F8E02002F0DB
:1011280040020292029AD3F8E02042F00802C3F883
:10113800E020D3F8E02002F008020392039AD3F8E3
:10114800E02042F48072C3F8E020D3F8E02002F4F3
:1011580080720492049AD3F8E02042F08002C3F827
:10116800E020D3F8E02002F080020592059AD3F837
:10117800E02042F02002C3F8E020D3F8E02002F09B
:1011880020020692069AD3F8E02042F00402C3F83F
:10119800E020D3F8E0300C9403F004030793079B96
:1011A800CDE90A67CDE9088902F0D2FF48F2371283
:1011B800022308A92C480C94DFF8C080CDE90A67FF
:1011C800CDE9082302F0C4FF4CF20372022308A9F8
:1011D80026480C94CDE90A67CDE9082302F0B8FF48
:1011E80040F2FF62022308A921480C94CDE90A675E
:1011F800CDE9082302F0ACFF4FF60C72022308A9D0
:101208001C480C94CDE90A67CDE9082302F0A0FF39
:101218004FF63F02022308A917480C94CDE908238A
:10122800CDE90A6702F094FFD8F83800013001F0E0
:10123800EDFED8F838300646581C01F0EFFE0222C1
:101248000746032308A930460C9408970B93CDE969
:10125800092502F07DFF0FB0BDE8F08304030024E8
:10126800004402580010025800180258000C025896
:1012780000200258001C02580014025808030024D9
:101288002DE9F04FDFF8288406460D46144608F18C
:1012980014002DED028B89B000AF01F0A1FCD8F845
:1012A80014305BB3D8F818304269002B0BBF022307
:1012B80004234FF008094FF01009FB61D8F80430F7
:1012C8004BB3A100E946012A01F1070121F007010A
:1012D800ADEB010D6846ADEB010D694600F04281AA
:1012E800022A00F0DB80002A74D022469847CD46B7
:1012F8002437BD46BDEC028BBDE8F08FD8F8183016
:10130800002BF5D002234FF008094269FB61D8F899
:101318000430002BD5D1D8F80030BA617B61002B9E
:10132800E6D06B46DA4808EE103A01F0A1FC864692
:10133800F869BA69022800F08E816B46C7F81090E8
:101348003969A3EBC4039D466300E946B3FBF0F398
:10135800A9EBC40CC7F8189009EB830AB869E546ED
:10136800ADEB010D0CEB8301EB46F9603969C7F869
:1013780010A00AEB830AADEB010DCBF80000F96869
:101388000AEB8300E94601EB8301CBF80C003869CE
:1013980001EB8303C9F800C0CBE9010AF868C9E981
:1013A8000213C9F80400012A00F08283022A00F01F
:1013B8007C82002A00F086816208494658467B698B
:1013C800984718EE103A24379D46BD46BDEC028B6F
:1013D800BDE8F08F002C88D098ED0B6A864606F1A0
:1013E800040CDFEDB66A36F922A00EF1080E07EEFE
:1013F80010AA3CF922A0023207EE90AAB8EEC77AEA
:101408009442F8EEE77A27EE267A67EEA67A27EE78
:10141800067A67EE867A0EED027A4EED017AE2D808
:10142800F961224698479B4EF9690020D8ED046A75
:101438002B1D9FEDA37A9FED986ADFED985A22E065
:10144800F4EEC67AF1EE10FAC0F2EF8447F6FE72B7
:10145800D1ED017A45F8202066EEA77AF4EEC77A36
:10146800F1EE10FA40F2F580F4EEC67AF1EE10FAD9
:10147800C0F2FC8447F6FE7243F82020023008319F
:1014880084427FF634AFD1ED007A66EEA77AF4EEA7
:10149800C77AF1EE10FAD3D83246D9E7002C3FF4D8
:1014A80024AF98ED0B6A8646002206F1040CDFEDA6
:1014B8007C6A06EB820A0EF1080E9AED007A0CEBB4
:1014C800820A0232DAED007AB8EEC77A9442F8EE70
:1014D800E77A27EE267A67EEA67A27EE067A67EE8F
:1014E800867A0EED027A4EED017AE2D8F96122464B
:1014F80098476C4EF9690020D8ED046A2B1D9FEDC2
:10150800707ADFF8B0C19FED646A20E0F4EEC67A25
:10151800F1EE10FAC0F2A2843246D1ED017A45F814
:10152800202066EEA77AF4EEC77AF1EE10FA40F2C0
:101538008E80F4EEC67AF1EE10FAC0F28784324655
:1015480043F820200230083184427FF6D0AED1ED36
:10155800007A66EEA77AF4EEC77AF1EE10FAD5D8DB
:101568006246DAE7002C3FF4C0AE06F1040CFD61D8
:1015780098ED0B6A1D46834663464FF0000ADFED7F
:101588004A6AB4465CF82A200BF1080B53F82A6023
:101598000AF1020A82F4000286F4000E5445A2F50C
:1015A800000207EE102AAEF5000207EE902AB8EE08
:1015B800C77AF8EEE77A27EE267A67EEA67A27EE5C
:1015C800067A67EE867A0BED027A4BED017AD9D866
:1015D8002B46FD692246F9619847344EF969002087
:1015E800D8ED046A2B1D9FED367ADFF8CCC09FED4D
:1015F8002A6A1FE0F4EEC67AF1EE10FAC0F21E84F1
:101608003246D1ED017A45F8202066EEA77AF4EE4D
:10161800C77AF1EE10FA18D9F4EEC67AF1EE10FA9C
:10162800C0F2FB83324643F820200230083184425E
:101638007FF65DAED1ED007A66EEA77AF4EEC77A52
:10164800F1EE10FAD6D86246DBE76246EBE762466F
:1016580076E7324610E7A3006008073323F0070354
:10166800ADEB030DEC46ADEB030DEA46ADEB090D12
:101678000CEB8003C7F818C0EB46ADEB090D0AEB7D
:1016880080003B61E946CBE900C3C9E900A08AE6CE
:101698005C0300240280FFFF04FF7F3F00FEFF463B
:1016A800000000300082FF7F0000003482FF7F00CE
:1016B80044030024007E00807E0080FF0000003884
:1016C80004FF7FBF002C00F0EC82F969D8F82030C5
:1016D800022900F01B8303EB8E0ADBF80C104FEA9B
:1016E8008E03C7F800B006F1040C5FED0C5A7B605E
:1016F800DBF80830D7F818E0FB600AF10403C7F8F4
:1017080018909B46D7F81090B9603D613CF92210BB
:1017180036F9223006EE901A3AF9221006EE103AFF
:1017280098ED0B5A07EE101AF8EEE66AB8EEC66A9C
:101738003BF92210B8EEC77A530807EE901A66EE06
:10174800A56A26EE256AF96827EE257A09EB830053
:10175800F8EEE77A0EEB830526EE056A01EB8301C6
:1017680027EE057A023266EE856A67EEA57A85ED80
:10177800006A9442C0ED006A81ED007A98ED0B7A18
:10178800B86867EE877A00EB8303C3ED007ABDD8AB
:10179800D7F800B0D7F818903D69620849467B69C8
:1017A80058469847D8F8283079680022D8ED046A56
:1017B8001944D9F800E0D9F804C02B1D01F1040838
:1017C8008A461FED417AC7F81880B14E9FEDB16A7D
:1017D800DFEDB15AD7F81C8052E0F4EEC67AF1EE8C
:1017E80010FAC0F2DC8247F6FE7B0CEB010045F8EC
:1017F80022B0D0ED007A66EEA77AF4EEC77AF1EE61
:1018080010FA4CD9F4EEC67AF1EE10FAC0F2D08292
:1018180047F6FE70B8F1020F43F822002CD0D9F831
:1018280008000844D0ED007A66EEA77AF4EEC77A8D
:10183800F1EE10FA37D9F4EEC67AF1EE10FAC0F2EA
:10184800E38247F6FE7BD9F80C004AF822B001443F
:10185800D1ED007A66EEA77AF4EEC77AF1EE10FAC7
:101868001FD9F4EEC67AF1EE10FAC0F2C58247F637
:10187800FE71B86940F82210023294427FF6A1AD99
:1018880051080EEB81008900D0ED007A66EEA77A48
:10189800F4EEC77AF1EE10FA9FD8B346A5E73046C2
:1018A800B8E73146E5E7B346CDE7002C00F0F9810B
:1018B800FA69D8F82030022A00F0FA8103EB8E0A80
:1018C800DBF80830C7F800B006F1040CFB604FEAFB
:1018D8008E030AF10402DFED715A7B60DBF80C30ED
:1018E8009346D7F818E0BB600023C7F81890D7F8DC
:1018F80010903D6156F823105A0898ED0B5A07EEE0
:10190800901A5CF8231009EB8200B8EEE76A07EE3C
:10191800901A5AF823100EEB8205F8EEE76A07EEE4
:10192800901A0BEB830126EE256A0233B8EEE77AAC
:10193800D1ED007A66EEA56AF968F8EEE77A9C427E
:1019480027EE257A01EB820126EE056A66EE856AA6
:1019580027EE057A67EEA57A85ED006AC0ED006A84
:1019680081ED007A98ED0B7AB86867EE877A00EB1C
:101978008202C2ED007ABDD8D7F800B0D7F8189027
:101988003D695846620849467B699847D8F8283027
:1019980079680022D8ED046A19442B1DD9F800C0D3
:1019A8008B460431D9F80480C7F814B09FED3F7A0C
:1019B800D7F81CB0DFF8ECE09FED366A384EB96115
:1019C800FB6150E0F4EEC67AF1EE10FAC0F206823E
:1019D800304608EB010A45F82200DAED007A66EE97
:1019E800A77AF4EEC77AF1EE10FA4BD9F4EEC67A7C
:1019F800F1EE10FAC0F2F9813046FB69BBF1020F33
:101A080043F822002BD0D9F808000844D0ED007A1A
:101A180066EEA77AF4EEC77AF1EE10FA36D9F4EE4C
:101A2800C67AF1EE10FAC0F2D2813046D9F80CA08D
:101A38007B69514443F82200D1ED007A66EEA77A1B
:101A4800F4EEC77AF1EE10FA1ED9F4EEC67AF1EE8A
:101A580010FAC0F2B5813146BB6943F82210023250
:101A680094427FF6AEAC51080CEB81008900D0EDB2
:101A7800007A66EEA77AF4EEC77AF1EE10FAA1D8EA
:101A88007046A6E77046B8E77146E5E77046CDE7C9
:101A98000280FFFF04FF7F3F00FEFF46000000308A
:101AA8000082FF7F007E00800000003404FF7FBFBB
:101AB800002C00F0F680D8F820304FEA8E02BD6086
:101AC800002103EB8E0E06F1040C1FED096A0EF1DE
:101AD80004003D69D7F818A0FA60C7F8189056F8BE
:101AE80021204FEA51095CF8213082F40002D8ED38
:101AF8000B6A83F40003A2F50002A3F5000307EEC6
:101B0800102A05EB890207EE903A0AEB8903B8EE32
:101B1800C77A4FEA8909F8EEE77A27EE067A67EE80
:101B2800867A27EE267A67EEA67A83ED007AFB6935
:101B3800C2ED007A022B27D05EF8212050F8213020
:101B480082F4000283F40003A2F50002A3F5000367
:101B580007EE902ADBF80820B8EEE77A07EE903A0D
:101B68004A44DBF80C30F8EEE77A27EE067A4B4465
:101B780067EE867A27EE267A82ED007A98ED0B7A60
:101B880067EE877AC3ED007A02318C42A7D8D7F87E
:101B98001890584662087B694946BD689847D8F846
:101BA8002830F9680022D8ED046A19442B1DD9F8A9
:101BB80000C08B460431D9F80480C7F814B01FED73
:101BC800457AD7F81CB0DFF8C8E29FEDAD6AAD4E94
:101BD800B961FB6150E0F4EEC67AF1EE10FAC0F29A
:101BE800C280304608EB010A45F82200DAED007A97
:101BF80066EEA77AF4EEC77AF1EE10FA4BD9F4EE56
:101C0800C67AF1EE10FAC0F2BC803046FB69BBF12F
:101C1800020F43F822002BD0D9F808000844D0ED71
:101C2800007A66EEA77AF4EEC77AF1EE10FA36D9A2
:101C3800F4EEC67AF1EE10FAC0F2AA803046D9F86E
:101C48000CA07B69514443F82200D1ED007A66EE7E
:101C5800A77AF4EEC77AF1EE10FA1ED9F4EEC67A36
:101C6800F1EE10FAC0F286803146BB6943F82210C3
:101C7800023294427FF6A5AB51080CEB8100890033
:101C8800D0ED007A66EEA77AF4EEC77AF1EE10FA94
:101C9800A1D87046A6E77046B8E77146E5E77046F2
:101CA800CDE72246494658467B699847FFF789BBE6
:101CB80098ED0B6A002306F1040CDFED736AB8692E
:101CC800D7F810A006EB83020CEB830192ED007AA3
:101CD8005A08D1ED007A0233B8EEC77A00EB8201D8
:101CE800F8EEE77A0AEB82029C4227EE267A67EE44
:101CF800A67A27EE067A67EE867A81ED007AC2ED3B
:101D0800007ADFD84FEA8E037B603AE698ED0B6ADB
:101D180006F1040CDFED5D6AB869D7F810A036F952
:101D280022303CF9221007EE103A530807EE901AB9
:101D38000232B8EEC77A00EB8301F8EEE77A0AEBD5
:101D48008303944227EE267A67EEA67A27EE067A70
:101D580067EE867A81ED007AC3ED007ADFD84FEA24
:101D68008E037B6019E5F0EE675AFEEEE45A15EE35
:101D7800900A37E7F0EE675AFEEEE45A15EE901A2D
:101D880073E7F0EE675AFEEEE45A15EE900A3DE767
:101D9800F0EE675AFEEEE45A15EE900A4FE767EE4A
:101DA800A57AFDEEE77A17EE900A0FFA80FB1CE59C
:101DB80067EEA57AFDEEE77A17EE900A00B229E5FC
:101DC800F0EE675AFEEEE05A15EE901A44E6F0EE91
:101DD800675AFEEEE05A15EE900A27E6F0EE675ACB
:101DE800FEEEE05A15EE900AF3E5F0EE675AFEEEC5
:101DF800E05A15EE900A00E667EEA57AFDEEE77A5E
:101E080017EE901A09B234E567EEA57AFDEEE77A87
:101E180017EE900A0FFA80FB15E5F0EE675AFEEE12
:101E2800E45A15EE902AFFF7FEBB67EEA57AFDEEA1
:101E3800E77A17EE902A12B2FFF70ABBF0EE675A5C
:101E4800FEEEE45A15EE902AFFF7DBBBF0EE675A78
:101E5800FEEEE05A15EE902AFFF772BBF0EE675AD5
:101E6800FEEEE05A15EE902AFFF757BB67EEA57A0B
:101E7800FDEEE77A17EE902A12B2FFF7FDBA00BF1F
:101E880004FF7F3F82FF7F00000000300000003821
:101E98007E0080FF70B5164C154684B0046004F1CE
:101EA800080601AB07C986E80700D4ED047AF5EE09
:101EB800C07A83E80700F1EE10FA15DDF7EE006A44
:101EC80086EEA77A84ED0B7A75B1204640F8145F48
:101ED80000F086FE0346074A00201969064BE160B8
:101EE800E261636204B070BD012004B070BD00BF40
:101EF800440300240020003000000030006808304F
:101F0800704700BF0068143000F0A0BE70B50468C8
:101F180082B00D46A3694BB1A3680026A26A04F1FA
:101F28001800216A9B00009600F05CFEA36804F18B
:101F38001400064E626A9B00E169009600F052FEAA
:101F48000020C4E9005002B070BD00BF891200082B
:101F5800024B0022C3E90522704700BF4403002456
:101F680030B583788FB00446022B37D0032B33D09B
:101F7800012B31D000230A93E378012B2AD0022BBE
:101F880028D000230B93002320460C9301F03EF841
:101F98000546204601F042F823780990082B13D80B
:101FA800DFE803F01F3245586B7E91A40500594BBA
:101FB800D3F8E02042F48072C3F8E020D3F8E03090
:101FC80003F480730893089B284609A902F0C0F817
:101FD8000FB030BD0B93D6E70A93CDE711230A93D0
:101FE800CAE74C4B284609A9D3F8E02042F0010281
:101FF800C3F8E020D3F8E03003F001030093009B1E
:1020080002F0A6F80FB030BD424B284609A9D3F814
:10201800E02042F00202C3F8E020D3F8E03003F0F9
:1020280002030193019B02F093F80FB030BD394BC6
:10203800284609A9D3F8E02042F00402C3F8E020BA
:10204800D3F8E03003F004030293029B02F080F817
:102058000FB030BD2F4B284609A9D3F8E02042F035
:102068000802C3F8E020D3F8E03003F00803039334
:10207800039B02F06DF80FB030BD264B284609A926
:10208800D3F8E02042F01002C3F8E020D3F8E030A3
:1020980003F010030493049B02F05AF80FB030BD0C
:1020A8001C4B284609A9D3F8E02042F02002C3F8C7
:1020B800E020D3F8E03003F020030593059B02F0FD
:1020C80047F80FB030BD134B284609A9D3F8E020D4
:1020D80042F04002C3F8E020D3F8E03003F04003B8
:1020E8000693069B02F034F80FB030BD094B284622
:1020F80009A9D3F8E02042F08002C3F8E020D3F821
:10210800E03003F080030793079B02F021F80FB03B
:1021180030BD00BF0044025870B506460D4600F0B9
:1021280075FF0446304600F079FF2A1E0146204616
:1021380018BF0122BDE8704002F0FCB92DE9F04F4C
:10214800A44C0346ABB0204623655F7893F8008023
:1021580002F078FBE8B9012F4FF001059E490346CC
:1021680014BF4FF480124FF40002E060A560C4E988
:10217800001592FAA2F2B2FA82F24FF48076E06188
:102188002046013A2362C4E9042602F0EFFA034626
:1021980018B101202BB0BDE8F08F4FF0660C41F26A
:1021A800883220460EA91496179313931B93CDF8E3
:1021B80038C0CDE91533CDE9193302F061FB0028A9
:1021C800E7D1992341F288320EA920460E9302F0F6
:1021D80057FB0028DDD14FF0000B4FF0010C4FF0FA
:1021E800050A4FF08079249008AA21901CA929900B
:1021F80041F28833CDF870A0CDF89490CDE908BCB1
:102208004FF0100B4FF0010CCDE90ABC4FF0000B5A
:102218004FF4800CCDE92260CDE927002046CDE9B6
:102228000CBC02F099FC0028B3D1ADF8080013905B
:10223800CDE91460CDE91609CDE91850CDE91A00A9
:10224800002F00F0CB80F023ADF80830C02341F216
:1022580088320EA95F480E9302F012FB002898D12D
:1022680041F288325B4802A902F074FB0446002858
:102278008FD1002601274FF480754FF080794FF0F9
:10228800000A4FF4800B219441F28833299408AA5C
:102298001CA950482295CDF89490CDE90867CDE95E
:1022A800234410260127CDE927440524CDE90A67F0
:1022B8001C94CDE90CAB02F04FFC00287FF469AF09
:1022C800012406238DF8070041F2883213901CA9D7
:1022D8001B90219029900E941C93CDE91450CDE9C0
:1022E8001609CDE91900CDE92250CDE92400CDE940
:1022F8002700384802F0C4FA00287FF44AAF1026B5
:102308000127052041F2883308AA1CA91C903148EE
:10231800CDF89490CDE90A6702260227CDE90CABE7
:10232800CDE9086702F018FC00287FF432AF41F2CB
:1023380088320EA9274802F0A3FA00287FF429AFB3
:10234800402341F288320DF1070122488DF8073009
:1023580002F000FB00287FF41CAF1026012705209F
:1023680002AA41F288330EA90E901A48CDF85C9063
:10237800CDE9046740264027CDE906ABCDE90267E1
:1023880002F0EAFB064600287FF403AF22950025F9
:1023980021960520299601271C9008AA41F2883326
:1023A8001CA90C48CDF89490CDE92366CDE92766A1
:1023B8000126CDE908561026CDE90CABCDE90A6710
:1023C80002F0CAFB00287FF4E4AEB8F1000F50D049
:1023D8000020DFE67403002400500052612341F21C
:1023E80088320EA920460E9302F04AFA00287FF49C
:1023F800D0AE41F2883202A9204602F029FB00281B
:102408007FF4C7AEBDF808300625259041F2883222
:1024180023F07803219029901CA943F040032296C9
:102428001C95ADF80830CDE92300CDE927002046FA
:1024380002F026FA00287FF4ACAE102601272046C9
:102448000225022441F2883308AA1CA9CDF870A0FD
:10245800CDF89490CDE90A6700264FF48007CDE9BE
:102468000845CDE90C6702F077FB00283FF4EEAE93
:102478008FE6EB24A0264FF4005706251C94002471
:102488004FF0805000234FF480784FF44069299032
:102498000EAA1CA90C48CDE91E67CDE920454FF4CA
:1024A80040464FF0407700240025CDE92733CDE999
:1024B8002289CDE92467CDE90E4502F0C1FB003839
:1024C80018BF012066E600BF740300243E4B026873
:1024D8002DE9F0479A428CB04FF00005CDE9075539
:1024E800CDE909550B9502D00CB0BDE8F087374B04
:1024F8000226374905AFD3F8D420B146DFF8D4A077
:102508004FF0030842F48042C3F8D420D3F8D42013
:1025180002F480420092009AD3F8E02042F0400290
:10252800C3F8E020D3F8E02002F040020192019ABB
:10253800D3F8E02042F02002C3F8E020D3F8E020EE
:1025480002F020020292029AD3F8E02042F0100230
:10255800C3F8E020D3F8E02002F010020392039AB7
:10256800D3F8E0203243C3F8E020D3F8E03033401A
:102578000493049B03C90590ADF81810DAF850408D
:1025880034440236204600F041FD034620461C46EE
:1025980000F044FD17F8013B024607A920460B93BB
:1025A800CDE90729CDE9095801F0D2FD0E2EE5D174
:1025B80000225C20114600F0CDFD5C2000F004FEF6
:1025C8000CB0BDE8F08700BF00500052004402582C
:1025D800B483000874030024124B02689A4200D0A6
:1025E8007047114AD2F8D43070B523F480430225DD
:1025F8000E4EC2F8D430346D2C440235204600F01B
:1026080005FD034620461C4600F008FD014620460D
:1026180001F0C2FE0E2DEED15C20BDE8704000F046
:10262800E1BD00BF0050005200440258740300246A
:10263800014802F08DBB00BF74030024F8B503689D
:1026480071B9026A00F1280500F5AC74012A0CBFC3
:10265800002240228BBB1D495723C0F858110DE0BA
:10266800426A00F1C00500F5E874012A0CBF002297
:102678004022EBB116495A23C0F8D01100214FF47B
:1026880080504FF480674FF4804663604FF4003306
:10269800A2604FF48072E16061622362C4E9047051
:1026A800C4E90662204600F001FF58B1FFBEFEE70C
:1026B80008495823C0F8D011E0E707495923C0F862
:1026C8005811DBE7C5E92044A563F8BD10000240B6
:1026D8007000024028000240580002402DE9F043F3
:1026E800831D05468BB0041D05F10A01083005F16C
:1026F8000C020593AB69CDE90640CDE90812002B21
:102708003DD0EB69B3FA83F84FEA58180222012347
:1027180005AE0AAF4FF006090192CDE9023356F82B
:10272800044B2B792278934216D02B68F3B1012BF6
:1027380002D1F2B10A230493204600F06FFC03464D
:102748002046009300F062FC694601F001FDBE429C
:10275800E5D10BB0BDE8F083697963789942E4D19B
:10276800B8F1000FF3D02B68002BE0D1CDF8109012
:10277800E2E76378022B14BF0A230823DBE74FF054
:102788000108C3E7534A0368934230B505468BB046
:1027980055D02032934252D04F4A934204D020322F
:1027A800934201D00BB030BD4C4C4D48D4F8E030CA
:1027B80043F00103C4F8E030D4F8E03003F001033B
:1027C8000593059BD4F8E03043F00803C4F8E030E3
:1027D800D4F8E03003F008030693069BD4F8E03001
:1027E80043F04003C4F8E030D4F8E03003F040038D
:1027F8000793079BD4F8F03043F40003C4F8F03093
:10280800D4F8F03003F400030893089BFFF766FF41
:10281800D4F8D830296843F001032F4A3048C4F867
:10282800D830891AD4F8D83018BF012103F0010331
:102838000993099B0BB0BDE83040FFF7FFBE274C5A
:102848002848D4F8E03043F00103C4F8E030D4F865
:10285800E03003F001030093009BD4F8E03043F02C
:102868001003C4F8E030D4F8E03003F0100301930B
:10287800019BD4F8E03043F04003C4F8E030D4F8CA
:10288800E03003F040030293029BD4F8F03043F4A5
:102898008003C4F8F030D4F8F03003F480030393D5
:1028A800039BFFF71BFFD4F8D830296843F00103D6
:1028B800084A0C48C4F8D830891AD4F8D83018BF58
:1028C800012103F001030493049B0BB0BDE83040E1
:1028D800FFF7B4BE04580140045C014000440258AC
:1028E80024060024C8030024014801F0D1B800BF21
:1028F80020050024014801F0CBB800BF980500244A
:10290800014801F0C5B800BF7C070024014801F068
:10291800BFB800BFF40700241A4A0368934210B4F2
:102928000BD02032934208D0174A934216D0203257
:10293800934213D05DF8044B7047144B0022D3F830
:102948005442C3F85822002CF4D0D3F84802D3E9F3
:10295800931223465DF8044B520818470B4B00228C
:10296800D3F8B044C3F8B424002CE3D0D3F8AC2493
:10297800D3F8A814D3F8A404520823465DF8044BEE
:10298800184700BF04580140045C0140C8030024F4
:10299800184A0368934210B40BD02032934208D0EF
:1029A800154A934217D02032934214D05DF8044B55
:1029B8007047124BD3E994245208C3F85822002CCC
:1029C800F4D0D3E99201234601EB820100EB8200A7
:1029D8005DF8044B1847094BD3F8AC24D3F8B0443E
:1029E8005208C3F8B424002CE0D0D3F8A814D3F8C4
:1029F800A404E8E704580140045C0140C80300242B
:102A08002DE9F04F0C684FF41778DFF8D09185B0B6
:102A180008FB04F8012C09EB080CC0F800C000F30F
:102A280097804FF0000A0E460F466546CCF850A234
:102A3800CCE992AA0FCE0FC50FCE0FC563A3D3E979
:102A4800002364A1D1E90001CDE9022304AB03EB23
:102A58008403CDE9000153F8102C53F8083C96E89C
:102A68000300CCF82820CCF8C0303B6985E8030087
:102A7800042B0CD8DFE803F0707A848E03004FF43F
:102A880017734F4A03FB04939A64C3F8E020BA69AA
:102A9800002A43D03A6A4FF417730121002A03FB36
:102AA80004930CBF02220322C3E90B21FA69002A0E
:102AB80041D1796A4FF41773003903FB049318BFA7
:102AC8000121C3E931127B69022B05D83D493E4AF1
:102AD80011F803A052F823B04FF41772002508F13B
:102AE8002800022302FB0494594648445246656470
:102AF8006563E565C4F8DC50C4F8CC50C4F8F450FC
:102B0800C4E90F55C4E91555C4E93555C4E93B5521
:102B180004F06EF9002847D0FFBEFEE7396A4FF48B
:102B28001773003903FB049318BF0121C3E90B1283
:102B3800FA69002ABDD07A6A4FF417730121002A76
:102B480003FB04930CBF02220322C3E93121BAE735
:102B5800012005B0BDE8F08F4FF417734FF4FA5217
:102B680003FB04939A64C3F8E02090E74FF41773CB
:102B78004FF47A5203FB04939A64C3F8E02086E783
:102B88004FF417734FF4FA4203FB04939A64C3F8A3
:102B9800E0207CE74FF417734BF6803203FB049375
:102BA8009A64C3F8E02072E708F1C000524659461B
:102BB8000223484404F01CF90028CAD0FFBEFEE7EF
:102BC80000770100BC830008C08300082458014036
:102BD800245C014004580140045C0140C8030024FF
:102BE8000068704770B50468154682B00E46226AC0
:102BF8000698012AC4F848129AB2C4F85402C4E9E3
:102C0800935311D0294604F12800019204F0B2F937
:102C1800636A019A012B10D0294604F1C00004F020
:102C2800A9F9002002B070BD04F12800019204F057
:102C380033FA636A019A012BEED1314604F1C000E0
:102C480004F02AFA002002B070BD00BF03681B69B7
:102C5800042B05D8044A02EB830393ED000A70475E
:102C68009FED020A704700BFCC83000800803B47F5
:102C78000368D3F858027047704700BF08B500F0E2
:102C88002BFABDE8084000F025BB00BF704700BF25
:102C980000F034BA000000002DE9F04FCFB0044630
:102CA8004C2200210AA8FDF789FD2022002102A854
:102CB800FDF784FDBC2200211EA8FDF77FFD022040
:102CC80001F03CFC23680022012B3DD0604B02251B
:102CD8000192C821DA6A22F00102DA62DA6A03F59F
:102CE800113302F0010201929A6942F440429A615A
:102CF8009B6903F440430193019B564B9A699204E4
:102D0800FCD5554A022404204FF0010C936A212671
:102D18004FF4803723F003032343936205230822EB
:102D28001590189300230AA81691CDF840C017945F
:102D380019941A92CDE91344CDE91B33CDE90A67FA
:102D480002F00EF9C0B1FEE7424B04250092F021D3
:102D58009A6942F440429A619A69A3F5113302F4E0
:102D680040420092DA6A42F00102DA62DB6A03F05A
:102D780001030093009BC0E73F2603270022082396
:102D8800294602A8CDE90267CDE90423402640235D
:102D98004FF480624027CDE90823CDE9066702F0A9
:102DA8001FFC034600B1FEE780220226012700250A
:102DB80034924FF480723394802443924FF48052BB
:102DC8004FF00C084FF008091EA8CDE93B334FF42B
:102DD800805335934FF4803346930623CDE9226719
:102DE800CDE9244540F22716102704242025CDE9F3
:102DF80026234FF480620023CDE92867CDE92A45D0
:102E0800CDE92C230FF2400BDBE900AB00260227AB
:102E180000244FF4803500224FF44013CDE91EAB57
:102E2800CDE92089CDE92E67CDE93045CDE93E23AE
:102E380002F0E8FD00B1FEE701F0A6FB4FB0BDE8E7
:102E4800F08F00BFAFF300800F130F0301000000E5
:102E5800000400580048025800440258F0B50546DE
:102E68000C4685B00126D1E9000185E8030000F091
:102E780005F92846FFF710FF002500F0DFF94FF0AD
:102E88004053384A684601934FF48073ADF80060A8
:102E9800CDE9022300F0F4F94FF0404340F201116C
:102EA800192268460193ADF80E108DF808208DF8A8
:102EB80001608DF80D508DF80A5000F0E1F90420FA
:102EC80000F0CCF904F056FC04F0FEFA237913BBA9
:102ED80063799BB1BFF34F8FBFF36F8F224B0022F3
:102EE800C3F85022BFF34F8FBFF36F8F5A6942F474
:102EF80000325A61BFF34F8FBFF36F8F0022002358
:102F080069461A48CDE9002304F0C2FB174804F0CB
:102F180027FC05B0F0BD1449C1F88450BFF34F8FAA
:102F2800D1F8800043F6E077C0F34E32C0F3C90011
:102F3800520102EA0705034645EA8376013BC1F8D8
:102F480060625E1CF8D1203A12F1200FF1D1BFF374
:102F58004F8F4B6943F480334B61BFF34F8FBFF3FF
:102F68006F8FB5E70E00010300ED00E08008002434
:102F780003480023034A0449036005F061B900BF10
:102F88008008002400000024812C000830B4194C6B
:102F98000022194BD4F88810184841F47001184DD4
:102FA800C4F888101C68174944F001041C601A61B1
:102FB8001C68204018609A61DA611A629A62DA62C3
:102FC8001A635A639A63DA631A645A64186820F4B5
:102FD800802018601A662B681940B1F1005F02D290
:102FE800094B01221A60034B4FF0006230BC9A6013
:102FF800704700BF00ED00E0004402587FEDF6EA9C
:103008000010005C0000FFFF08810051024B0278AD
:1030180053F82200704700BF10840008024B427822
:1030280033F81200704700BFF0830008704700BFF4
:103038000F4B1B780BB90120704710B504464FF4AD
:103048007A700C4AB0FBF3F31068B0FBF3F000F0B1
:10305800DDF80F2C00D808B1012010BD0022214650
:103068004FF0FF3000F076F8034B00201C6010BDD5
:10307800740000246C0000247800002470B5124C01
:10308800032000F053F8114E02F00AFAA269104921
:103098000346C2F303220F200E4D8A5C02F01F0282
:1030A800D3403360A26902408A5C02F01F02D34019
:1030B8002B60FFF7BDFF10B10124204670BD044608
:1030C800FFF7B4FF204670BD004402586C0000248E
:1030D800E083000870000024034A044B11681B7841
:1030E8000B441360704700BF840800247400002458
:1030F800014B1868704700BF8408002438B504469F
:10310800FFF7F6FF0546631C02D0044B1B781C44EE
:10311800FFF7EEFF431BA342FAD338BD7400002427
:10312800014B1868000C70470010005C074900024A
:10313800074BCA6800F4E06010B44FF6FF04224061
:103148005DF8044B10430343CB60704700ED00E08B
:103158000000FA05194BDB68C3F3022330B4C3F14E
:1031680007051C1D042D28BF0425062C19D9033B6F
:103178004FF0FF349C4022EA04024FF0FF3400284D
:1031880004FA05F421EA040101FA03F141EA020113
:103198000ADB09010A4BC9B2034483F8001330BCA7
:1031A800704700221346E8E700F00F000901054BBD
:1031B800C9B20344197630BC704700BF00ED00E087
:1031C80000E100E0FCEC00E0002807DB00F01F0154
:1031D80001234009024A8B4042F82030704700BF63
:1031E80000E100E000280DDB4309012200F01F0088
:1031F8000549203302FA00F041F82300BFF34F8F4E
:10320800BFF36F8F704700BF00E100E00138B0F1F5
:10321800807F0DD2074B0022072130B4F025064CE1
:103228005860104684F823509A60196030BC704783
:103238000120704710E000E000ED00E0BFF35F8F71
:10324800044A00200449536A23F4803353624860D7
:10325800704700BF00ED00E090ED00E0064A40F046
:103268000100064B5860536A43F480335362BFF33E
:103278004F8FBFF36F8F704700ED00E090ED00E0D7
:10328800124A437893600178E9B1436870B4D36017
:10329800C37A047B1B06857A867B43EA0473447BE6
:1032A8000B43017A43EAC543C57B43EA8443447A26
:1032B80043EA464343EA054343EA042343EA410316
:1032C80070BC13617047D1601161704790ED00E0E8
:1032D800704700BF08B5FFF7FBFF08BD0268354B14
:1032E800354930B4354C364DA24218BF9A4204F1E4
:1032F80048040CBF012300238A4208BF43F001039E
:103308004831AA4208BF43F001034835A24208BF2A
:1033180043F0010348348A4208BF43F0010301F532
:103328006271AA4208BF43F0010305F56275A24223
:1033380008BF43F0010304F562748A4208BF43F0F2
:1033480001034831AA4208BF43F001034835A242AD
:1033580008BF43F0010348348A4208BF43F0010321
:103368004831AA4208BF43F00103A24208BF43F014
:1033780001038A4208BF43F0010313B9114B9A4273
:1033880013D1D3B21049114C103BA1FB03515F2B51
:103398000F4BC1F3021103EA0203615C88BF0433D7
:1033A800C1658365184630BC704722F0FF0383650A
:1033B800F8E700BF10000240400002402800024029
:1033C80058000240B8040240ABAAAAAA40840008E8
:1033D80000FCFFFF0368294A294930B4294D2A4CCB
:1033E800AB4218BF934205F13C050CBF01220022F5
:1033F800A34208BF42F001023C348B4208BF42F0AE
:1034080001023C31AB4208BF42F00102A34208BFAF
:1034180042F001028B4208BF42F0010212B91B4A76
:10342800934213D1DBB21A4D1A4A0121083B1A4CB8
:10343800A5FB0353446602EB1312C3F30413920073
:1034480001FA03F30266836630BC7047DAB21349A7
:10345800134C1944103AA829A4FB02234FEA13136A
:1034680000D808330F4A03F01F0501210E4C1A44F7
:10347800A9404466920081660266E5E7085402584E
:10348800445402581C540258305402589454025858
:10349800CDCCCCCC0096001680580258F0FBFDBF6E
:1034A800ABAAAAAA0082001080080240F8B5044618
:1034B800FFF71EFE002C00F0DC8023680546974AC3
:1034C800934249D01832934246D0303294489549B5
:1034D800834218BF934200F148000CBF012200222A
:1034E8008B4208BF42F001023031834208BF42F0EC
:1034F800010230308B4208BF42F0010201F55C71D5
:10350800834208BF42F0010200F55C708B4208BF9D
:1035180042F001023031834208BF42F001023030EC
:103528008B4208BF42F001023031834208BF42F0AB
:10353800010230308B4208BF42F001023031834231
:1035480008BF42F001028B4208BF42F001021AB9DB
:10355800754A934240F0FC800222002184F835200D
:1035680084F834101A6822F001021A6005E0FFF7A7
:10357800BFFD431B052B57D823681A68D107F6D41B
:10358800D4E9022120690A431F68D4E905160243D9
:103598000A436649D4E90705324339400243606A61
:1035A8002A43042841EA020145D019605A6922F0E9
:1035B8000702104358612046FFF790FEE26D3F2353
:1035C80002F01F02934083602046FFF703FFA368C1
:1035D800802B18D06368256EDAB2013BD4E9191044
:1035E800072B2A60486015D8501E072843D9626FF8
:1035F800D4E91B3100201860002001234A6060656F
:1036080084F83530F8BD0023A16ED4E91802636050
:103618000360516000230020C4E91B336367012362
:10362800606584F83530F8BD2022032301206265E7
:1036380084F83530F8BDD4E90B50A26A2843014319
:103648001960586920F00700104340F00400002D6D
:10365800B0D0002E45D1012A5AD032F00202A9D1A9
:10366800EA01A7D5012340221846626584F835305F
:10367800F8BD0120F8BD21682D4B2E4E2E4DB142CC
:1036880018BF994206F128060CBF01230023A9425E
:1036980008BF43F001032835B14208BF43F00103D6
:1036A8002836A94208BF43F001032835B14208BFB4
:1036B80043F00103A94208BF43F001033BB91F4B84
:1036C800994204D01E4B1F4913449B0003E01E4B34
:1036D8001E4913449B0001228240C4E91B316267E2
:1036E80088E7B6F5005F04D0022ABBD9032AB7D011
:1036F80060E7032A3FF65EAF01A151F822F000BF50
:103708006D360008693600086D360008193700085C
:10371800B5F1C07F7FF44EAFA4E700BF10000240B0
:103728004000024070000240B80402403F8010FE92
:10373800085402581C5402583054025894540258E1
:103748003F820010400902403F9600164059025837
:10375800334A344934488B4218BF934201F1280157
:10376800324D0CBF01220022834208BF42F0010201
:103778003C308B4208BF42F001023C31AB4208BFEB
:1037880042F00102834208BF42F001028B4208BFA7
:1037980042F0010212B9264A93423AD1022200218C
:1037A800244F84F83520A26884F83410402A196818
:1037B80007EA01072BD0802A0CBF4FF48041002173
:1037C80022692046E668D2086569DFF870C042EAD7
:1037D800D602A66942EAD502E56942EAD602164E41
:1037E80042EAD5021E44256A42EA1512ACFB066578
:1037F8003A432D091143AD001960E565FFF76EFDE9
:10380800E26D012302F01F0293404360DCE61021C1
:10381800D6E7402203230120626584F83530F8BDDD
:10382800085402581C54025830540258585402582C
:10383800945402580F00FEFFF8ABFDA7CDCCCCCCBA
:10384800002800F0C1802DE9F041054690F83400C9
:10385800012800F0BB80012095F83540844285F8A6
:10386800340007D000224FF4006385F834206B65DC
:10387800BDE8F0812E6802277D4C7E48DFF808C23B
:10388800864218BFA64200F1300085F835704FF027
:1038980000070CBF012400246F65664508BF44F08B
:1038A80001040CF1300C744F864208BF44F0010447
:1038B8003030664508BF44F001040CF5627C86424E
:1038C80008BF44F0010400F56270BE4208BF44F02E
:1038D80001044837664508BF44F001040CF1480C60
:1038E800864208BF44F001044830BE4208BF44F095
:1038F80001044837664508BF44F001040CF1480C40
:10390800864208BF44F00104A0F58F60BE4208BF9C
:1039180044F00104A7F58F67664508BF44F0010429
:10392800BE4218BF86426F6E0CBF012000200443C0
:103938003068D5E91A8C20F001003060D5F858E0DD
:10394800C7F8048045D0BCF1000F02D0D5E91C07A8
:103958004760EF6D3F20D5F8088007F01F07B8F1E2
:10396800400F00FA07F0CEF80800306820F48020F5
:103978003060736025D0B160F26033682A6C23F040
:103988001E0343F0160333601AB1336843F008038B
:1039980033602B6E1A68D20303D51A6842F480721A
:1039A8001A60BCF1000F05D0DCF8003043F48073D6
:1039B800CCF800303368002043F001033360BDE8E1
:1039C800F081B260F160D8E7012070470220BDE8BD
:1039D800F081BCF1000F02D0D5E91C0747602748E9
:1039E800DFF8A880264F464518BF864208F1280808
:1039F8000CBF01200020BE4208BF40F0010028375C
:103A0800464508BF40F0010008F12808BE4208BF3B
:103A180040F001002837464508BF40F00100BE428B
:103A280008BF40F0010010B9164886420FD1E86D72
:103A38000127D5F8088000F01F00B8F1400F07FAF9
:103A480000F0CEF8040073600FD0B160F260336804
:103A58002A6C23F00E0343F00A033360002A98D03F
:103A6800336843F00403336093E7B260F160EEE734
:103A78004000024058000240100402400854025816
:103A88003054025894540258700002401C54025892
:103A98002DE9F0479F4A00259F4E82B00368824671
:103AA8009E49846D934218BFB342019508BF012611
:103AB8000D68276818BF002621684AD03032DFF821
:103AC8006CE29748734518BF93420EF1480E0CBF3D
:103AD80001220022834208BF42F0010230307345C0
:103AE80008BF42F001020EF1300E834208BF42F0D7
:103AF800010200F55C70734508BF42F001020EF543
:103B08005C7E834208BF42F001023030734508BF33
:103B180042F001020EF1300E834208BF42F001026A
:103B28003030734508BF42F001020EF1300E834277
:103B380008BF42F001023030734508BF42F001026D
:103B4800834208BF42F001021AB9764A934240F014
:103B58000B82DAF85C10082201F01F0C02FA0CF252
:103B6800174240F08D8127FA0CF2D2070CD55A691A
:103B7800100609D5012202FA0CF2A260DAF85420E4
:103B880042F00202CAF854204FF0040E0EFA0CF06C
:103B980038425BD0002E4FD1634ADFF89091DFF8AE
:103BA80080814B4518BF934209F148090CBF012297
:103BB8000022434508BF42F0010208F130084B4596
:103BC80008BF42F0010209F13009434508BF42F03D
:103BD800010208F55C784B4508BF42F0010209F57F
:103BE8005C79434508BF42F0010208F130084B45B3
:103BF80008BF42F0010209F13009434508BF42F00D
:103C0800010208F130084B4508BF42F0010209F1F2
:103C18003009434508BF42F0010208F130084B451E
:103C280008BF42F00102434508BF42F001021AB939
:103C38003C4A934240F02F821A68920706D5A0604A
:103C4800DAF8542042F00402CAF85420102202FA8A
:103C58000CFC1CEA070F6FD0002E46D1324A3348BD
:103C68002F4E834218BF934200F148000CBF012237
:103C78000022B34208BF42F001023036834208BF37
:103C880042F001023030B34208BF42F0010206F5AB
:103C98005C76834208BF42F0010200F55C70B342D3
:103CA80008BF42F001023036834208BF42F00102E9
:103CB8003030B34208BF42F001023036834208BFB9
:103CC80042F001023030B34208BF42F00102303600
:103CD800834208BF42F00102B34208BF42F001022A
:103CE8001AB9104A934240F0DE811A68C2F3C00242
:103CF80012B3C4F808C01A68520300F18B811A681D
:103D0800D60503D41A6822F008021A60DAF840309F
:103D180093B10DE028000240100002406C0000241E
:103D280070000240B80402405800024040000240BF
:103D380050469847DAF85C1001F01F0120268E40A3
:103D48003E426AD0DAF80020A74BA848A84F824222
:103D580018BF9A4200F130000CBF01230023BA4279
:103D680008BF43F001033037824208BF43F0010324
:103D78003030BA4208BF43F001033037824208BFEF
:103D880043F001033030BA4208BF43F0010307F59E
:103D98005C77824208BF43F0010300F55C70BA42C9
:103DA80008BF43F001033037824208BF43F00103E4
:103DB8003030BA4208BF43F001033037824208BFAF
:103DC80043F001033030BA4208BF43F001033037F3
:103DD800824208BF43F00103BA4208BF43F001031F
:103DE8001BB9844B9A4240F073811368C3F30013E4
:103DF8009BB1A6609AF83530042B136800F0148143
:103E080013F4802F136800F02D811C0340F13881D2
:103E1800DAF83C300BB150469847DAF85430002BAA
:103E280000F0DF80DAF85430D8071FD5DAF8002020
:103E380004248AF83540136823F0010313606E4B9D
:103E4800A3FB0535AD0A02E01368D90704D5019B29
:103E58000133AB420193F7D900238AF83430136851
:103E6800DB074CBF032301238AF83530DAF84C30DE
:103E7800002B00F0B680504602B0BDE8F047184766
:103E8800186840070AD5186820F004001860A26076
:103E9800DAF8542042F00102CAF8542027FA0CF24A
:103EA800D2077FF571AE554A5148DFF864818342E5
:103EB80018BF934200F148000CBF0122002243457D
:103EC80008BF42F0010208F13008834208BF42F0FF
:103ED80001023030434508BF42F0010208F55C7822
:103EE800834208BF42F0010200F55C70434508BFF9
:103EF80042F0010208F13008834208BF42F0010293
:103F08003030434508BF42F0010208F130088342CF
:103F180008BF42F001023030434508BF42F00102B9
:103F280008F13008834208BF42F0010230304345AF
:103F380008BF42F00102834208BF42F00102002A92
:103F48007FF415AE002E7FF412AE04221E6802FA2A
:103F58000CF23A4240F09F80102202FA0CFC17EA59
:103F68000C0F3FF4E9AE79E6254A264E264DB342BA
:103F780018BF934206F128060CBF01220022AB426B
:103F880008BF42F001022835B34208BF42F00102DF
:103F98002836AB4208BF42F001022835B34208BFB9
:103FA80042F00102AB4208BF42F0010212B9174ABF
:103FB800934216D1DAF85C5004261A6805F01F05FA
:103FC800AE400E4273D0570771D51004666040F1B9
:103FD8009F80D10300F1A280DAF84830002B7FF4EB
:103FE8004AAF02B0BDE8F087100002402800024046
:103FF80040000240B8040240B5814E1B5800024000
:10400800085402581C540258305402589454025808
:10401800700002401B681B037FF578AEDAF8483061
:10402800002B7FF485AE87E623F01603DAF84050BC
:104038001360536923F0800353613DB3136823F081
:10404800080313603F230025012203FA01F1DAF87F
:104058005030A1608AF834508AF83520002B7FF45C
:104068000AAFBEE713F480737FF4D2AE116801245F
:1040780021F0100111608AF834308AF83540C7E61B
:10408800DAF84430002B7FF4C6AEC6E6DAF84830DA
:10409800002BD3D1D6E710221E6802FA0CFC17EACF
:1040A8000C0F3FF449AE1A68C2F3800220E60226DC
:1040B800AE400E4210D097070ED56660140433D573
:1040C800D0033DD4DAF84430002B7FF4D4AE88E72F
:1040D8001368C3F340038BE60826AE400E4280D037
:1040E80011077FF57EAF19680122002621F00E0125
:1040F80002FA05F51960DAF84C306560CAF8542000
:104108008AF834608AF83520002B7FF4B4AE68E76B
:10411800920603D41A6822F004021A60DAF84030D2
:10412800002B7FF4A8AE5CE712F0200208D11968D2
:10413800012421F00A0119608AF834208AF83540F0
:10414800DAF83C30002B7FF496AE4AE7406D7047B2
:104158002DE9F04F0D6883B0002D00F0C4800023D6
:10416800DFF82C82DFF82CE201229A4012EA050CD3
:1041780000F0B4804C6824F01007022F40F0B6809D
:10418800DF0803F0070A4FF00F0B0E6900EB8707F3
:104198004FEA8A0AD7F820900BFA0AFB06FA0AF6C1
:1041A8004FEA430A29EA0B094FF0030B46EA0909CB
:1041B8000BFA0AF604EA0B0BC7F820906FEA060917
:1041C80007680BFA0AFB27EA06064BEA06060660AA
:1041D8008768C4F3001609EA070BCF689E4007FA00
:1041E8000AF747EA0B078760476827EA020216437F
:1041F8004660C668E7008A6806EA090902FA0AF210
:1042080042EA0902C26069D5D8F8F47023F00309BC
:1042180003F003020F2647F0020709F1B0499200A4
:10422800C8F8F47009F58069D8F8F47006FA02FA4B
:1042380007F0020701974D4F019EB842D9F8086070
:1042480026EA0A0620D007F58067B8426BD0484FA7
:10425800B8426DD0474FB84260D0474FB84271D08E
:10426800464FB84273D0464FB84266D0454FB84221
:1042780072D0454FB84274D0444FB8420CBF09279A
:104288000A2707FA02F21643C9F808606FEA0C0712
:10429800DEF80020E60354BF3A404CEA0202CEF8AA
:1042A8000020A203DEF804604FF0B04254BF3E4045
:1042B8004CEA0606CEF804601668E2024FF0B042F7
:1042C80054BF3E404CEA0606A4024FF0B0441660C4
:1042D800526854BF3A404CEA02026260013335FA30
:1042E80003F27FF441AF03B0BDE8F08F4FEA430A11
:1042F8004FF00309D0F800B0013F04EA090609FAB3
:104308000AF9012F2BEA090B06FA0AF66FEA0909DE
:1043180046EA0B0606603FF66CAF59E7032707FA33
:1043280002F21643B0E7012707FA02F21643ABE799
:10433800022707FA02F21643A6E7062707FA02F24F
:104348001643A1E7042707FA02F216439CE705275C
:1043580007FA02F2164397E7072707FA02F216430D
:1043680092E7082707FA02F216438DE70000025881
:1043780000080258000C0258001002580014025895
:1043880000180258001C0258002002580024025845
:104398000044025880000058002900F0AC80002337
:1043A8002DE9F04FDFF870A183B0DFF87091DFF8E6
:1043B8007081DFF870B14FF0010E0EFA03F414EAC1
:1043C800010C73D023F0030503F003020F264845C0
:1043D80055444FEAC202AF6806FA02F607EA060732
:1043E800019723D058456AD0464FB8426AD0464F05
:1043F800B84271D0454FB84273D0454FB84266D0E5
:10440800444FB84259D0DFF820E1704574D0DFF846
:104418001CE170456AD0DFF818E1704514BF4FF011
:104428000A0E4FF0090E0EFA02F200E00022019F78
:10443800974219D1AF684FF0B04227EA0606AE603E
:10444800D8F8005025EA0C05C8F80050D8F80450F0
:1044580025EA0C05C8F80450156825EA0C0515600E
:10446800556825EA0C0555605A000326D0F800C0A7
:104478000F2723FA06F5964003F0070200EB85059F
:104488004CEA060C9200C0F800C097402A6A22EA5B
:1044980007022A62826822EA06028260426822EAE9
:1044A80004044460C26822EA0606C660013331FA91
:1044B80003F280D103B0BDE8F08F4FF0060E0EFA7C
:1044C80002F2B4E74FF0020E0EFA02F2AFE74FF035
:1044D800050E0EFA02F2AAE74FF0030E0EFA02F2E8
:1044E800A5E74FF0040E0EFA02F2A0E74FF0080E0F
:1044F8000EFA02F29BE770474FF0070E0EFA02F22F
:1045080095E700BF00080258000C02580010025836
:1045180000140258001802580004005800000258FD
:104528008000005800040258001C0258002002585D
:104538000024025802B909048161704738B5114B4B
:10454800DA68520704D4DB6803F00703834215D105
:104558000C4AD368154623F007031843D060FEF7CA
:10456800C7FD044605E0FEF7C3FD001BB0F57A7FE2
:1045780006D86B689B04F6D5002038BD012038BDED
:10458800032038BD00480258024AD36843F08073BC
:10459800D360704700480258F0B44C6A82B014B136
:1045A800B2F1406F30D18B69002B34D00E6A002EE7
:1045B80059D0056823438F68C869EF61002800F067
:1045C800AE8013430F690C68B2F1406F43EA0603EB
:1045D800CE6843EA0003C86A43EA0003086B43EA6B
:1045E800000348690190486B43EA0003019843EAD5
:1045F800070343EA060343EA040343EA80436B6183
:1046080060D04B68AB615DE08B6A0568013B2B614C
:104618008B69002BCAD10B6A002B44D00668234350
:104628008D68C869F561002869D013434D6B0F691F
:10463800B2F1406F43EA0003C86ACC6843EA00035A
:10464800086B43EA0003486943EA050343EA0703A2
:1046580043EA040343EA8043736133D04B68B36190
:1046680002B0F0BC7047CD69002D6CD023430668BA
:10467800CC6AB2F1406F43EA02000F6B4B6B40EA21
:104688000500CD6840EA04000C6840EA070040EAEB
:1046980003004B6940EA050040EA040040EA834011
:1046A8007061DBD10EE0CB697BB95CB1CB6A006885
:1046B8002343D1E90C5413434A692B43234343EA68
:1046C8008243436102B0F0BC70472343CC6A0D6B50
:1046D800B2F1406F43EA0203006843EA04034C6BFB
:1046E80043EA0503CD6843EA04034C6943EA05033A
:1046F80043EA84434361E5D04B688361E2E7D1E94B
:104708000B0513434C6B03432B43D1E904022343AA
:10471800034343EA8243736102B0F0BC704713431A
:104728004F6B0C6933434A69D1E90B0C03430868A2
:1047380043EA0C033B432343034343EA82436B614D
:1047480002B0F0BC70471C43CE6A006844EA02031A
:104758000C684A693343D1E90C753B432B43234327
:1047680043EA8243436102B0F0BC7047F8B504469F
:10477800FEF7BEFC002C55D094F84030012B53D0E6
:104788000123064684F8403094F8413003F0FF02D4
:10479800002B35D0A76C2368A1681A68013922F468
:1047A800706242EA01221A6001E07A1C32D19D68E7
:1047B80015F02005F9D1D4E90716E26828461F68E4
:1047C8000A43616832431D4E42EA01623E40616914
:1047D800A76932431A4E1A6041EA07025F682169E5
:1047E8003E4042EA0142012132435A601A680A43B4
:1047F8001A60656484F84110002384F84030F8BDDD
:10480800204684F84020FDF761FE41F288331F46B8
:10481800A364C0E7FEF76CFC801BB84206D82FB132
:104828002368C4E70120F8BD0220F8BD0423012055
:1048380084F84130636C03436364DDE72FFFFF00B6
:10484800FEF8E0FFC8B110B590F840300446012BDF
:1048580011D00268012380F84030136823F0010367
:104868001360FDF7B9FE00236364184684F84130ED
:1048780084F8403010BD022010BD0120704700BFF1
:104888002DE9F04104460D469046FEF731FC94F8B8
:104898004030012B3BD0012384F8403094F841305C
:1048A800012BDEB206D002260023304684F84030C1
:1048B800BDE8F081002202230746626484F8413093
:1048C800B8F1FF3F23680ED19A6812F02002FBD19D
:1048D80029462046FFF760FE6B6AE3B101230026F4
:1048E80084F84130E0E79A6812F020021ED0FEF703
:1048F800FFFBC01B804502D3B8F1000FE0D10423B1
:1049080084F84130636C43F001036364CCE702260A
:104918003046BDE8F081226893689B07FCD50221E8
:1049280001230026D16084F84130BDE7294620469E
:10493800FFF732FE6B6A43B1D0E7FEF7D9FBC01B25
:104948008045DCD3B8F1000FD9D022689368990765
:10495800F3D5E4E72DE9F843044689461546FEF702
:10496800C7FB94F840302768012B67D0012384F8EF
:10497800403094F84130012B5FFA83F807D04FF0AC
:1049880002080023404684F84030BDE8F88300233D
:104998006364B9F1000F56D01223064684F84130FB
:1049A8003B690133E3623B69C4F824900133A36295
:1049B8007B6923F040637B61E36A002B31D0691C7B
:1049C8003B4611D19A685207FCD5636A1B7887F871
:1049D8002030E26A636A013A0133E262E26A6362A2
:1049E800F2B1691C2368EDD09B685807EDD4FEF737
:1049F8007FFB801B854201D3002DF2D1042384F86C
:104A08004130636C43F00103636413E0BB689B07A8
:104A18000CD4FEF76DFB801B8542EFD3002DEDD043
:104A28002768691CF2D1BB689A07FCD502234FF0AE
:104A38000008FB60012384F84130A2E74FF0020828
:104A48004046BDE8F883636C43F00803636498E765
:104A58002DE9F843044615468946FEF749FB2768C1
:104A6800BA6994F84030012B6CD0012384F84030A7
:104A780094F84130012B5FFA83F807D04FF0020811
:104A88000023404684F84030BDE8F883002363647F
:104A9800B9F1000F5BD02223064684F841303B6908
:104AA8000133A3633B69C4F83090013363637B69C6
:104AB80023F0406343F080637B61BA61A36B002BF2
:104AC80033D0681C3B4612D19A6812F0060FFBD00F
:104AD80097F82020236B1A70A26B236B013A0133DD
:104AE800A263A26B2363FAB1681C2368ECD09B68AD
:104AF80013F0060FECD1FEF7FBFA801B854201D3B9
:104B0800002DF1D1042384F84130636C43F0010394
:104B1800636413E0BB689B070CD4FEF7E9FA801BBB
:104B28008542EFD3002DEDD02768691CF2D1BB6810
:104B38009A07FCD502234FF00008FB60012384F894
:104B480041309DE74FF002084046BDE8F883636CAA
:104B580043F00803636493E72DE9F84304461D46D0
:104B68000F461646FEF7C4FA94F84030012B4FD092
:104B7800012384F8403094F84130012B5FFA83F820
:104B880007D04FF002080023404684F84030BDE8C3
:104B9800F883002242238146626484F84130681C0D
:104BA800236829D19A689106FCD43268394670681E
:104BB8009A62B2685862DA621A68306922F440026E
:104BC800D6F80CC042EA00064FF00062204646F4D0
:104BD80080061E60C7F828C0FFF7DEFC681C226844
:104BE8001BD193681907FCD5082101234FF0000851
:104BF800D16084F84130C6E79A689206D5D5FEF7A9
:104C080077FAA0EB0900854212D3002DC7D10FE037
:104C18004FF002084046BDE8F88393681B07E3D4C9
:104C2800FEF766FAA0EB0900854201D3002DD5D125
:104C3800042384F84130636C43F001036364A2E702
:104C48002DE9F84304460F469046FEF751FA94F8CA
:104C58004030012B42D0012384F8403094F8413091
:104C6800012BDEB206D002260023304684F84030FD
:104C7800BDE8F883002282230546D4F84890626490
:104C880084F84130B9F1FF3F226814D1936899063E
:104C9800FCD41368D8F8041023F00803082943EA61
:104CA800010313601ED039464FF0406220460026AB
:104CB800FFF772FCD8E793689B06EAD5FEF718FA67
:104CC800401B814502D3B9F1000FDBD1042384F8DE
:104CD8004130636C43F001036364C5E70226304644
:104CE800BDE8F883D8F8001010231163D360136867
:104CF80043F480131360D6E7704700BF08B5006C13
:104D080000238363C36290F84130082B0BD10368FA
:104D18000222DA601A6842F400321A601A6842F015
:104D280002021A6008BD012380F84130FFF7E4FF52
:104D380008BD00BF704700BF704700BF704700BF85
:104D4800704700BF704700BF704700BF704700BF83
:104D580038B5036804469A68196855070ED548039C
:104D68000CD594F84120122A75D094F84120222AB3
:104D780000F0A1802046FFF7E5FF38BD950726D54E
:104D8800880324D50222DA601A6822F4E0221A6025
:104D980094F84120122A7AD094F84120222A00F06F
:104DA800A98094F84120022A00F0D08094F841208C
:104DB800082AE2D15A690121204622F040625A614C
:104DC80084F84110636C3BBBFFF7B4FF38BD15078F
:104DD80025D4D50735D5C80333D50125DD601A6834
:104DE80022F470221A60626C42F0020262641A684D
:104DF800520779D51A68E06B22F0040257491A6005
:104E0800816502F027FD0028B7D0636C204643F087
:104E18000403636484F84150FFF76EFF38BD08034C
:104E2800D7D50822DA601A68520206D51A68012115
:104E380022F410221A6084F841102046FFF784FFFC
:104E480038BDD00699D5CA0297D510222046DA6017
:104E5800FFF77CFF38BD9A6850078BD518460EE0DF
:104E6800626A127883F82020E16A20680139626A50
:104E7800E1620132816862624D077FF57BAFE26AC9
:104E8800002AEDD1036823F48023036072E71A68CF
:104E9800510709D51A68E16B22F0040209681A6003
:104EA800CB6823F00103CB600123204684F841300E
:104EB800FFF746FF38BD9A6852077FF55BAF184683
:104EC8000EE093F82010226B1170A16B2068013955
:104ED800226BA16301328168226349077FF54AAFDB
:104EE800A26B002AEDD1CDE7204684F84150FFF7A8
:104EF80003FF38BD1A6852071DD49A6812F47C5F04
:104F08000FD111E093F82010226B1170A16B20686B
:104F18000139226BA16301328168226311F47C5F3D
:104F280002D0A26B002AEDD10123204684F841303B
:104F3800FFF704FF38BD1A68E16B22F00402096824
:104F48001A60CB6823F00103CB60EDE7012320460C
:104F580084F84130FFF7F0FE38BD00BF054D00086A
:104F6800002800F0EE81F8B503680446D80730D56C
:104F7800B3490A69896A02F03802102A00F00681EA
:104F8800182A00F0FE806368B3F5803F00F02681A0
:104F9800002B00F06481B3F5A02FA94B1A6800F02C
:104FA800408222F480321A601A6822F480221A6041
:104FB800FEF79EF8A24E41F28837054605E0FEF757
:104FC80097F8401BB84200F2488133689A03F6D537
:104FD8002368980700F18980D90630D5984A136963
:104FE800926A03F03803082B00F0E080182B00F0D9
:104FF800D880E369002B00F07181914B1A681E4636
:1050080042F080021A60FEF773F8054605E0FEF7E5
:105018006FF8401B022800F220813368DB05F6D5C3
:10502800FEF77EF841F20303984200F21C8273688F
:10503800226A23F0F84343EA8263736023681D07FA
:1050480017D56369002B00F023817D4B5A6F1E46EC
:1050580042F001025A67FEF74BF8054605E0FEF7F5
:1050680047F8401B022800F2F880736F9807F6D5BE
:1050780023689A0617D5A369002B00F01C81704B92
:105088001A681E4642F480521A60FEF731F8054647
:1050980005E0FEF72DF8401B022800F2DE80336899
:1050A8009F04F6D52368590700F19E80636AD3B13F
:1050B800634A116901F03801182970D0022B13686E
:1050C800154623F08073136000F04581FEF710F851
:1050D800044605E0FEF70CF8001B022800F2BD802C
:1050E8002B689B01F6D40020F8BD554A1369926AD3
:1050F80013F038032AD1524BE1681B685A0701D5CF
:1051080000294CD04E4A1368164623F019030B4366
:105118001360FDF7EDFF054605E0FDF7E9FF401BCD
:10512800022800F29A8033685B07F6D5FDF7F8FF8E
:1051380041F2030322699842736800F2FB8023F46A
:105148007C3343EA02337360236845E7182B00F089
:10515800ED80E268002A00F0D58039490B680E46D8
:1051680023F0190313430B60FDF7C2FF054604E063
:10517800FDF7BEFF401B02286FD833685F07F7D5DD
:10518800D4E701F0030102297FF4FDAE2C4A12682E
:1051980091037FF51EAF6268002A7FF41AAF0120E1
:1051A800F8BD02F00302012A7FF423AF244B1B68E9
:1051B800DA0502D5E369802BF1D1FDF7B1FF41F2A1
:1051C80003031F4A9842216A00F2BD80536823F006
:1051D800F84343EA81635360236830E7184A136849
:1051E80043F480331360E3E6164B1A681E4642F414
:1051F80080721A60FDF77CFF054604E0FDF778FF32
:10520800401B642829D83368DA05F7D5A368012B31
:1052180000F03281002B00F00C81052B084B1A6F2F
:1052280000F0308122F001021A671A6F22F004029E
:105238001A67FDF75DFF024E41F28837054608E020
:105248000044025800480258FDF752FF401BB8427C
:1052580003D8336F9B07F7D528E70320F8BD8D4B9C
:1052680041F288371A681E4622F480321A601A689A
:1052780022F480221A60FDF73BFF054604E0FDF7A3
:1052880037FF401BB842E8D833689B03F7D49FE642
:10529800804B5A6F1E4622F001025A67FDF728FF1D
:1052A800054604E0FDF724FF401B0228D5D8736F9C
:1052B8009907F7D4DCE6774B1A681E4622F4805229
:1052C8001A60FDF715FF054604E0FDF711FF401BC6
:1052D8000228C2D833689804F7D4E3E66D4B1A68FD
:1052E8001E4622F080021A60FDF702FF054604E020
:1052F800FDF7FEFE401B0228AFD83368DF05F7D460
:1053080023689CE6634B1A681E4622F001021A6065
:10531800FDF7EEFE054604E0FDF7EAFE401B022815
:105328009BD833685807F7D4236855E691077FF46C
:1053380010AFE0E623F0FE4343EA0263736023689C
:105348004AE601207047D36823F07C5343EA01639F
:10535800D360236873E6FDF7CBFE064605E0FDF74C
:10536800C7FE801B02283FF678AF2B689901F6D458
:10537800AA6A494BA06A1340E26A48490343454E6A
:1053880043EA0213AB62276BD4E90D32013F501E8A
:10539800013BE26BC7F308075B020004013A9BB2CA
:1053A80000F4FE001206034302F0FE423B4313439F
:1053B8002B63EB6A23F00103EB626A6BA36C114069
:1053C80041EAC3016963EB6A226C23F00C031343BF
:1053D800EB62EB6A626C23F002031343EB62EB6A45
:1053E80043F48033EB62EB6A43F40033EB62EB6A1D
:1053F80043F48023EB62EB6A43F00103EB622B6812
:1054080043F080732B60FDF773FE044605E0FDF75B
:105418006FFE001B02283FF620AF33689A01F6D5CD
:1054280061E642F480221A601A6842F480321A60F7
:10543800BEE5184B41F288371A6F1E4622F001026A
:105448001A671A6F22F004021A67FDF751FE054623
:1054580005E0FDF74DFE401BB8423FF6FEAE336F48
:105468009807F6D422E6F368226A23F07C5343EACD
:105478000263F3602368E2E5064A136F43F0010311
:105488001367D6E642F004021A671A6F42F0010267
:105498001A67CEE6004402580CFCFFFF0700FFFF26
:1054A800474A136903F03803102B04D0182B0DD08A
:1054B8001BB14448704744487047136899064AD559
:1054C80013684248C3F3C103D8407047936A30B4A5
:1054D800946AD16A14F47C7FC4F30510556B38D0F4
:1054E800C5F3CC0501F0010103F0030301FB05F14D
:1054F800012B07EE901AB8EEE77A02D0022B2CD0D7
:1055080093B307EE900A9FED325AF8EEE77A136BE1
:10551800C5EE276ADFED2F5AC3F3080307EE903A6A
:10552800B7EE006AF8EEE77AE7EE257A77EE867A44
:1055380066EEA76A224B1B6BC3F34623013307EEC3
:10554800903AB8EEE77AC6EE877AFCEEE77A17EE7D
:10555800900A30BC70471D48704707EE900A9FEDCF
:105568001E5AF8EEE77AD2E713689B0620D513682F
:1055780007EE900A1549B7EE005AC3F3C100F8EEDA
:10558800E77A136BC140DFED134AC3F3080306EE55
:10559800101A06EE903AB8EEC66AF8EEE66AC6EE5B
:1055A800275AE7EE246A76EE856A66EEA56AC1E7B1
:1055B80007EE900A9FED095AF8EEE77AA7E700BFD1
:1055C8000044025800093D000024F4000090D00374
:1055D8000024744A000000390024744B0024744CE1
:1055E800002800F00381874A136803F00F038B42F9
:1055F8002DE9F04104460D460CD2136823F00F0341
:105608000B431360136803F00F038B4202D0012091
:10561800BDE8F08123685F070BD57B4920698A695B
:1056280002F07002904204D98A6922F070020243A3
:105638008A611E070BD574496069CA6902F0700255
:10564800904204D9CA6922F070020243CA61D8069E
:105658000BD56D49A069CA6902F4E062904204D989
:10566800CA6922F4E0620243CA6199060BD5664909
:10567800E0690A6A02F07002904204D90A6A22F0CC
:10568800700202430A629A0740F1A2805E48E1680C
:10569800826902F00F02914204D9826922F00F0256
:1056A8000A438261D80731D5574AA168936923F420
:1056B80070630B43936161681368022900F0988056
:1056C800032900F08F80012900F0988058079ED5A3
:1056D8004D4A41F288381369174623F007030B43F4
:1056E8001361FDF705FD064605E0FDF701FD801B8A
:1056F800404500F281803B69626803F03803B3EBF0
:10570800C20FF2D12368990706D5E1683E4882693D
:1057180002F00F028A425FD83A490A6802F00F0283
:10572800AA420AD90A6822F00F022A430A600A68C4
:1057380002F00F02AA427FF46AAF5A070BD532492A
:1057480020698A6902F07002904204D28A6922F0C4
:10575800700202438A611F070BD52B496069CA6929
:1057680002F07002904204D2CA6922F07002024329
:10577800CA61DE060BD52449A069CA6902F4E06251
:10578800904204D2CA6922F4E0620243CA619D06CB
:105798000BD51D4AE169136A03F07003994204D2DC
:1057A800136A23F070030B431362FFF779FE164A5E
:1057B800164C034692690F201549C2F30322A25CD6
:1057C80002F01F02D340BDE8F0410B60FDF730BC8A
:1057D800DA073FF569AF9FE7826922F00F021143AC
:1057E800816199E79F013FF573AF10E7012070478A
:1057F8009B033FF56DAF0AE7032009E7DE053FF598
:1058080067AF04E70020005200440258E083000814
:105818006C0000243B4AF8B5936A03F00303032B9A
:1058280069D0136806460F46144623F08063136058
:10583800FDF75EFC054604E0FDF75AFC431B022B0E
:1058480057D823681A01F7D4A36A326823F47C3343
:105858002D4943EA0233A3627568D6E90232013D55
:10586800501E013B3269C5F308055B020004013A8A
:105878009BB200F4FE001206034302F0FE422B43E3
:105888001343A363E36A726923F0C0031343E3621B
:10589800E36AB26923F020031343E362E36A23F067
:1058A8001003E362E26BF369114041EAC301E1636B
:1058B800E36A43F01003E362E36AF7B1012F0CBF18
:1058C80043F4801343F40013E3620E4B1A681D4639
:1058D80042F080621A60FDF70BFC044604E0FDF715
:1058E80007FC001B022804D82B681B01F7D50020F1
:1058F800F8BD0320F8BD0120F8BD43F40023E3629E
:10590800E3E700BF004402580700FFFF3B4AF8B531
:10591800936A03F00303032B69D0136806460F4606
:10592800144623F080531360FDF7E2FB054604E0BC
:10593800FDF7DEFB431B022B57D823689A00F7D4E8
:10594800A36A326823F07C732D4943EA0253A362A9
:105958007568D6E90232013D501E013B3269C5F334
:1059680008055B020004013A9BB200F4FE0012062F
:10597800034302F0FE422B4313432364E36A726934
:1059880023F440631343E362E36AB26923F40073C8
:105998001343E362E36A23F48073E362626CF3699E
:1059A800114041EAC3016164E36A43F48073E3622E
:1059B800E36AF7B1012F0CBF43F4000343F080738F
:1059C800E3620E4B1A681D4642F080521A60FDF7DA
:1059D8008FFB044604E0FDF78BFB001B022804D86C
:1059E8002B689B00F7D50020F8BD0320F8BD0120E7
:1059F800F8BD43F48003E362E3E700BF00440258C4
:105A08000700FFFF2DE9F8430368044613F000661A
:105A18001CD0426EB2F5001F00F0B98423D8002ACA
:105A280000F0CE83B2F5801F20D102210430FFF7A9
:105A3800F1FE0646002E40F06E84626E2368AB4885
:105A48000026016D21F440110A430265DD0511D5D8
:105A5800626D042A00F20785DFE812F06904700419
:105A68008004CA02CA02B2F5401FE8D0DD054FF033
:105A78000106EDD4354698051BD5A26D802A00F0A5
:105A8800758400F2EC80002A00F08883402A40F0F8
:105A9800ED800021201DFFF7BDFE23680546002D7F
:105AA80040F072839149A06D0A6D22F4E0720243BE
:105AB8000A6559051FD5D4F8A420B2F5800F00F067
:105AC800448400F2D680002A00F08083B2F5001FDB
