:020000040800F2
:1000000000000220C9040008C5040008ED20000813
:10001000C5040008C5040008C5040008000000006D
:10002000000000000000000000000000C5040008FF
:10003000C504000800000000C5040008DD20000819
:10004000C5040008C5040008C5040008C50400086C
:10005000C5040008C5040008C5040008C50400085C
:10006000C5040008C5040008C5040008A11E000856
:10007000AD1E0008BD130008B91E0008C51E00080B
:10008000C504000895720008C5040008C5040008EE
:10009000C5040008C5040008C5040008C50400081C
:1000A000C5040008C5040008C5040008C50400080C
:1000B000C5040008C5040008C5040008C97200088A
:1000C000C5040008D5720008C5040008C50400086E
:1000D000C5040008C5040008C5040008C5040008DC
:1000E000C5040008C504000800000000C50400089D
:1000F000C5040008C5040008C5040008C5040008BC
:10010000C5040008C5040008C5040008C5040008AB
:10011000C5040008C5040008C5040008C50400089B
:10012000C5040008C5040008C5040008C50400088B
:10013000C5040008C5040008C5040008C50400087B
:1001400000000000000000000000000000000000AF
:10015000C5040008C5040008C5040008C50400085B
:10016000E1720008C5040008C5040008C5040008C1
:10017000C5040008C5040008C5040008C50400083B
:10018000C5040008C5040008C5040008C50400082B
:10019000C5040008C5040008C5040008C50400081B
:1001A000C5040008C5040008C5040008C50400080B
:1001B000E91B0008C5040008C5040008C5040008C0
:1001C000C5040008C5040008C5040008C5040008EB
:1001D000C5040008C5040008C5040008C5040008DB
:1001E000C5040008C5040008C5040008C5040008CB
:1001F000C5040008C5040008C5040008C5040008BB
:10020000C5040008C5040008C5040008C5040008AA
:10021000C5040008C5040008C5040008C50400089A
:10022000C5040008C5040008C5040008000000005B
:10023000C5040008C504000800000000C50400084B
:10024000C5040008C5040008C5040008C50400086A
:10025000C5040008C5040008C5040008C50400085A
:10026000C5040008C5040008C5040008C50400084A
:10027000C5040008C5040008C5040008000000000B
:10028000C5040008C5040008C504000800000000FB
:0802900000000000C504000895
:100298000348044B834202D0034B03B1184770470D
:1002A8005C0000245C0000240000000005480649AA
:1002B8000B1AD90F01EBA301491002D0034B03B16C
:1002C800184770475C0000245C0000240000000010
:1002D80010B5064C237843B9FFF7DAFF044B13B186
:1002E8000448AFF300800123237010BD6000002490
:1002F80000000000507A000808B5044B1BB10449FF
:100308000448AFF30080BDE80840CFE700000000D4
:1003180064000024507A000810B5054C34B1134627
:100328000A460146022000F079F810BD204610BDAB
:100338002504000870B50D4E0D4D761BB61006D07D
:100348000024013455F8043B9847A642F9D1094ED8
:10035800094D761B07F06CFBB61006D0002401345B
:1003680055F8043B9847A642F9D170BD507A000869
:10037800507A0008647A0008507A0008F0B48607BA
:1003880046D0541E002A3CD0CAB2034602E014F1FB
:10039800FF3436D303F8012B9D07F8D1032C29D954
:1003A800CDB245EA05250F2C45EA054533D9A4F118
:1003B8001006360903F1200707EB061703F11002B0
:1003C80042E9045542E902551032BA42F8D1721C8A
:1003D80014F00C0F03EB021204F00F0613D0331FB6
:1003E80023F003030433134442F8045B9342FBD124
:1003F80006F003042CB1C9B21C4403F8011B9C424B
:10040800FBD1F0BC704734461346002CF3D1F8E713
:1004180014460346C2E71A462646E0E72DE9F843A4
:10042800224C25680DB36C681F2C3BDC984691461E
:100438000F46064688B1D5F8880028B3D0F80031B1
:1004480040F824900122A24000EB84011343022EBD
:10045800C0F80031C1F8808010D0A31C01346C6052
:1004680045F823700020BDE8F883114E114D256032
:10047800002ED8D03468C5F88840D4E7D0F80431C5
:100488001A43C0F80421E8E70B4B5BB14FF48470C2
:10049800AFF3008030B100236C68C0E94033C5F881
:1004A8008800CDE74FF0FF30DDE700BF10020024E1
:1004B800207900088401002400000000FEE700BF46
:1004C8000D4B0E4A934206D00D4951F8040B43F8E0
:1004D800040B9342F9D10B4B0B4A934204D00021F1
:1004E80043F8041B9342FBD101F07CFFFFF722FF86
:1004F80000F00EF8FEE700BF000000245C000024B6
:10050800687A000860000024700E0024704700BF5D
:1005180000B51B488FB000F047F80021184800F0DC
:10052800B1F81C2000F060F803469FED160A00227F
:10053800ADF8003007A8009900F0BEFA152000F0C9
:1005480053F8034602A8ADF80430019900F00EFBF9
:100558000D4802A90423012200F016FB0A4800F006
:10056800B5FE0021084800F0C7FE07A800F0C8FA49
:1005780007A800F0D7FA012001F0B6FDF1E700BFA7
:100588001402002400007A442C02002403480023AB
:10059800034A04494361036207F0B0B91402002416
:1005A80000000024150500080B4A40F207110B4B08
:1005B80002604FF4877243600623C1844285037446
:1005C80080F8293070B40224054E064D80F8254085
:1005D800C0E9026570BC7047000705000105080501
:1005E8000905070506050A061F2882B009D8084B21
:1005F80003EB400213F81030507843EA002002B0B1
:10060800704701230C2043EA002002B0704700BF66
:1006180024790008F0B51A4D91B0002104460795D9
:1006280005F100754FF441700022012303260127CC
:1006380005F540750691029106A9ADF8240002A8B7
:1006480008953025CDE90C23CDE90E23CDE90A67BD
:1006580001F03AFC40F601334FF07E56ADF8043015
:10066800019800F04DF80323029A03A904F114003D
:100678000596CDE9035300F0DBF911B0F0BD00BFDA
:100688000402040430B504462DED028B83B089B30F
:10069800012240F201130092ADF80430694604F1DA
:1006A800300001F007FE204600F04CF8E01C01F095
:1006B8001DF804F1250000F02BFF04F1140504F1E6
:1006C800290000F025FF2046FFF7A4FF284600F088
:1006D800E7F92846B0EE408A00F0DEF9D0ED007A5E
:1006E800F8EE677A88EE277A84ED0E7A03B0BDECCF
:1006F800028B30BD40F201130091ADF80430CDE714
:1007080010B584B003460124ADF8040003A8ADF881
:100718000C30ADF80E4000F0FBFE214603A800F0B7
:10072800D3FF204601F0E0FC03A8002100F0CCFF35
:10073800204601F0D9FC214603A800F0C5FF04B00B
:1007480010BD00BF2DE9F043444C8BB0A063037883
:1007580023B1002528460BB0BDE8F083404A0A23A0
:1007680000260127626008220893202302A9201D81
:10077800C4E90267C4E9042340264FF4C077002285
:100788004FF40063C4E90667C4E908234FF48056B0
:10079800002702220723C4E90A67CDE902230426B9
:1007A800032200230827CDE90623CDE9046706F0D4
:1007B8001DFC054600284CD14FF001084FF01009E8
:1007C8000126002702A94FF480520190201DCDE98F
:1007D80002894FF002084FF01009CDE9046706F0CE
:1007E8002FFC642001F0B6FE02A94FF48052201DB0
:1007F800CDE90467CDE9028904264FF003084FF0DC
:100808001009002706F01CFC02A94FF48052201D95
:10081800CDE90467CDE9028906F012FC40F23223E3
:100828004FF0010C042601931027019B02A94FF4F5
:100838008052201DCDE904C3CDE9026706F000FC13
:10084800201D40F6060106F01BFC28460BB0BDE84B
:10085800F083012528460BB0BDE8F0835802002438
:1008680040410052694A2DE9F04315688FB015B12F
:100878000FB0BDE8F083664B01210C2400261160FF
:100888000327D3F8D4204FF683784FF0020908A93C
:1008980042F480525F48C3F8D420D3F8D42002F43D
:1008A80080520092009AD3F8E02042F01002C3F878
:1008B800E020D3F8E02002F010020192019AD3F868
:1008C800E02042F04002C3F8E020D3F8E02002F034
:1008D80040020292029AD3F8E02042F00802C3F8DC
:1008E800E020D3F8E02002F008020392039AD3F83C
:1008F800E02042F48072C3F8E020D3F8E02002F44C
:1009080080720492049AD3F8E02042F08002C3F87F
:10091800E020D3F8E02002F080020592059AD3F88F
:10092800E02042F02002C3F8E020D3F8E02002F0F3
:1009380020020692069AD3F8E02042F00402C3F897
:10094800E020D3F8E0300C9403F004030793079BEE
:10095800CDE90A67CDE9088903F00AFC48F23712A5
:10096800022308A92C480C94DFF8C080CDE90A6757
:10097800CDE9082303F0FCFB4CF20372022308A91B
:1009880026480C94CDE90A67CDE9082303F0F0FB6B
:1009980040F2FF62022308A921480C94CDE90A67B6
:1009A800CDE9082303F0E4FB4FF60C72022308A9F3
:1009B8001C480C94CDE90A67CDE9082303F0D8FB5D
:1009C8004FF63F02022308A917480C94CDE90823E3
:1009D800CDE90A6703F0CCFBD8F83800013001F004
:1009E80041FDD8F838300646581C01F043FD022274
:1009F8000746032308A930460C9408970B93CDE9C2
:100A0800092503F0B5FB0FB0BDE8F08350020024C0
:100A1800004402580010025800180258000C0258EE
:100A280000200258001C02580014025858020024E2
:100A380070B5164C154684B0046004F1080601AB85
:100A480007C986E80700D4ED047AF5EEC07A83E892
:100A58000700F1EE10FA15DDF7EE006A86EEA77AC8
:100A680084ED0B7A75B1204640F8145F01F01CFB49
:100A78000346074A00201969064BE160E261636298
:100A880004B070BD012004B070BD00BF9402002402
:100A9800002000300000003000680830704700BFB8
:100AA8000068143001F002BB024B0022C3E90522A2
:100AB800704700BF9402002430B52DED028B83B03F
:100AC800044601231546ADF804101730BDF804108C
:100AD800B0EE408A0180637600F01AFDB5FA85F31E
:100AE800002100225B09257584ED048AA5756375CC
:100AF800A160C4E9002203B0BDEC028B30BD00BF89
:100B080020EE007ADFED067A27EE000A60EE277AFB
:100B180080ED020AFCEEE77AC0ED017A704700BF6B
:100B280000FF7F4790ED046AB7EE007ADFED0E5ABA
:100B38000346D0ED036AC5EE867A77EEA67AF4EE20
:100B4800C77AF1EE10FAC8BF77EEC77A90ED027A4D
:100B5800B4EEE77AC0ED037A1730F1EE10FACCBFA5
:100B6800597D997D00F0B0BD0000F04282B00023AD
:100B78000322ADF80410BDF80410827001800374DC
:100B8800C37002B0704700BF2DE9F04FDB4F00265D
:100B9800DB4C8FB007F13805426003709646A4F825
:100BA8000961844603960696BE61C4F8FD60C4F8E0
:100BB8000161C4F80561C4F82461C4E94A75C7E94C
:100BC8000066C7E90266C7E90466C4E94366C4E982
:100BD8004566C4E94766CDE90466CDE90766CDE90F
:100BE8000966CDE90B6684F8FC20426884F80C623B
:100BF800002A00F091820D460868A0464968EB6813
:100C0800AA683E80A8E80F002B7C88F800302B7C6F
:100C180084F8FD302B7C002B40F09F82DCF80430F8
:100C2800012B40F2B4812B46B64A002153F8119F9C
:100C38007980D3F804809E68D868C4F81190C2F807
:100C480004809660D0601B7C137495F8213084F87A
:100C5800FE3095F82130002B40F08382DCF8043018
:100C6800022B40F294812B46A74A002153F8229F79
:100C7800B980D3F804809E68D868C4F82290C2F876
:100C880004809660D0601B7C137495F8323084F829
:100C9800FF3095F83230002B40F05B82DCF80430EE
:100CA800032B40F274812B46984A002153F8339F56
:100CB800F980D3F804809E68D868C4F83390C2F8E5
:100CC80004809660D0601B7C137495F8433084F8D8
:100CD800003195F84330002B40F04782DCF80430AF
:100CE800042B40F25481A8460023894E58F8440F3B
:100CF8003B81D8F80410D8F80C30D8F808200FC673
:100D080098F81030337095F8543084F8013195F81C
:100D1800543013B1012384F80C32DCF80430052B6D
:100D280040F235812B467B4A002153F8559F798143
:100D3800D3F804809E68D868C4F85590C2F8048037
:100D48009660D0601B7C137495F8653084F8023186
:100D580095F8653013B1012384F80C32DCF80430BF
:100D6800062B40F214812B466B4A002153F8669FEC
:100D7800B981D3F804809E68D868C4F86690C2F830
:100D880004809660D0601B7C137495F8763084F8E4
:100D9800033195F8763013B1012384F80C32DCF86E
:100DA8000430072B40F2F3802B465C4A002153F8AD
:100DB800779FF981D3F804809E68D868C4F8779043
:100DC800C2F804809660D0601B7C137495F8873055
:100DD80084F8043195F88730002B40F0CA81DCF89C
:100DE8000430082B40F2D380A84600234C4E58F814
:100DF800880F3B82D8F80410D8F80C30D8F80820AF
:100E08000FC698F81030337095F8983084F805318B
:100E180095F89830002B40F01D82DCF80430092B3F
:100E280040F2B5802B463F4A002153F8999F7982BA
:100E3800D3F804809E68D868C4F89990C2F80480F2
:100E48009660D0601B7C137495F8A93084F806313D
:100E580095F8A930002B40F0F981DCF804300A2B12
:100E680040F295802B46304A002153F8AA9FB98258
:100E7800D3F804809E68D868C4F8AA90C2F80480A1
:100E88009660D0601B7C137495F8BA3084F80731EB
:100E980095F8BA30002B40F0D581DCF804300B2BE4
:100EA80075D92B46214A002153F8BB9FF982D3F804
:100EB80004809E68D868C4F8BB90C2F80480966025
:100EC800D0601B7C137495F8CB3084F8083195F802
:100ED800CB30002B40F0A881DCF804300C2B56D91D
:100EE800A8460023124E58F8CC0F3B83D8F80410BC
:100EF800D8F80C30D8F808200FC61BE000400030A6
:100F0800C8020024D9020024EA020024FB020024BB
:100F18000C0300241D0300242E0300243F03002497
:100F28005003002461030024720300248303002477
:100F38009403002498F81030337095F8DC3084F866
:100F4800093195F8DC3013B1012384F80C32DCF850
:100F580004300D2B1BD92B46C64A002153F8DD9FC0
:100F68007983D3F804809E68D868C4F8DD90C2F805
:100F780004809660D0601B7C137495F8ED3084F87B
:100F88000A3195F8ED3013B1012384F80C325FFA79
:100F98008EF2B9484FF480210023C4F84821012279
:100FA800C4F830010820C4F8341194F80C12C4F8BD
:100FB800383184F84431C4E95533C4E94F20002955
:100FC80000F0BD8084F8453184F84C21C4F85C21D8
:100FD8009CF8003000200021C4E95801F3B1012237
:100FE8000021013B84F86821C4E95D12082B0ED862
:100FF800DFE813F009001E012301D100D600DB0051
:10100800E000C300CA0003234022C4E95B329B48C6
:1010180001F0E0FE034648B1FFBEFEE7974884F8BA
:10102800683101F0D7FE03460028F5D103A993489B
:10103800039302F02BF80546002840F0F38040F2B5
:10104800FF73022204200021CDE9082394F8FC3024
:10105800CDE90A01002B00F0E2800627DFF848B24C
:1010680021E0022B00F0AC80012B40F0FB809AF8C5
:101078000130012B00F0F480002B814B18BF0023B6
:1010880006A97E480693079701F0C8FA002840F0A1
:10109800E580013594F8FC30EDB2AB4240F2BF80F8
:1010A800784B53F825700FFA85F808EB081804EB0D
:1010B800080A504600F02CFA05EB051323441B7C64
:1010C800042B00F3AA80022B00F3A58000F0848093
:1010D8006319002283F8EE2014F80830002BC0D1E1
:1010E8009AF80130062B00F0E380072B00F0DE8031
:1010F800022B00F0BD80032B00F0B880002B00F01D
:10110800B380012B00F0D680042B00F0D580052B8E
:101118005D4B18BF0023B3E75FFA8EF3564D4FF4CB
:1011280080200121C4F848310823C4F8382184F804
:101138004421C4E95522C4E94C50C4E94F130121A4
:101148000022032384F8451184F84C21C4F85C314B
:101158003EE7012384F80C32A0E5012384F80C3221
:101168005CE5012384F80C3278E5012384F80C321D
:10117800B4E5012384F80C3231E640F2FF134FF452
:101188009072C4E95B3242E740F2FF334FF4A07239
:10119800C4E95B323BE71F23A022C4E95B3236E790
:1011A8003F23C022C4E95B3231E77F23E022C4E950
:1011B8005B322CE7FF234FF48072C4E95B3226E7E9
:1011C8009AF80130042B24D0052B20D0EBB1012B49
:1011D8002E4B18BF002353E70121631908F10409B6
:1011E800002201971E462F46A144154683F8EE10AB
:1011F8004846013500F08CF996F8EE3009F10409FB
:10120800AB42F5DC3D46019F66E7214B38E7214BB1
:1012180036E7214B34E70221DFE70321DDE70FB092
:10122800BDE8F08FFFBEFEE7012384F80C3253E6D9
:1012380007236022C4E95B32E9E60F238022C4E970
:101248005B32E4E6012384F80C3226E6012384F8B5
:101258000C3202E6012384F80C32DEE5FFBEFEE71D
:101268005B460DE700230BE70C4B09E70C4B07E740
:101278000C4B05E7A503002400200240F8030024D6
:101288000002B025647900080000B84F0008302E2D
:101298000004002A000180211000C0100000214332
:1012A8000080F03E0040C03A2000F014034BE7E60F
:1012B800034BE5E6034BE3E6034BE1E68000501DF4
:1012C8000800900C000052470000844B38B5094CC8
:1012D80040F2FF724FF0011104F59875284601F0AD
:1012E80083FE284694F8FC20D4F82811BDE838403D
:1012F80001F0E8BBC8020024064B0D29D3F82831B9
:1013080098BF03EB41031B8800EE103ABBEEC80AF6
:10131800704700BFC8020024224B02689A4200D0DE
:101328007047214B09200021D3F8D820F0B51F4C75
:1013380042F02002002583B094F80C624FF48067D5
:10134800C4F8B451C4F8B851AE42C3F8D82004F573
:10135800CA75D3F8D83014BF00224FF48072144EE7
:1013680003F02003C4F8946100260193019B4FF415
:101378000053C4F8B0214FF40062C4E9660128465E
:10138800C4E96867C4E96A2302F0A2F808B1FFBE9D
:10139800FEE704F59873C4F87C51C4F8CC3103B067
:1013A800F0BD00BF0020024000440258C8020024DB
:1013B80040000240014802F07DBB00BF5C040024ED
:1013C80002682DE9F84F4C4B9A4201D0BDE8F88FDE
:1013D8004A4E96F80C32002BF8D096F8FC20002ADA
:1013E80076D00024371D06F5867506F1FC09A0465F
:1013F80016E05FFA83FA03F0010119F80FBC3846CA
:1014080000F062F9381DBBF1010FCAF3400123D87F
:1014180096F8FC20013411370235A3B29A4227D935
:1014280019F8013F002BF5D0D6F828210021D6F86D
:101438002C3132F814008A462A7803EB041323F877
:1014480012002B8801339BB22B8099F800209A4216
:10145800CFD8A5F80080D0E700F036F9BBF1020F2D
:1014680007F10800CAF38001D2D000F02DF9CFE7C8
:1014780096F80C224FF009084FF00009204B002A7B
:101488004FF000044FF480654FF400604FF40051B2
:1014980014BF00224FF48072C6F89431C6E96689F9
:1014A800C6E96845C6E96A0100231648C6E96C23FF
:1014B800C6F8B83102F00CF808B1FFBEFEE796F89E
:1014C800FC20D6F828111048BDE8F84F01F0FABA08
:1014D8000B4B0924002500204FF480614FF400686D
:1014E8004FF40059C6F89431C6E96645C6E9680163
:1014F800C6E96A89D8E700BF00200240C802002474
:10150800400002405C040024F8030024704700BF38
:1015180030B583788FB00446022B37D0032B33D0F5
:10152800012B31D000230A93E378012B2AD0022B18
:1015380028D000230B93002320460C9300F092FF41
:101548000546204600F096FF23780990082B13D80B
:10155800DFE803F01F3245586B7E91A40500594B14
:10156800D3F8E02042F48072C3F8E020D3F8E030EA
:1015780003F480730893089B284609A902F0F8FD34
:101588000FB030BD0B93D6E70A93CDE711230A932A
:10159800CAE74C4B284609A9D3F8E02042F00102DB
:1015A800C3F8E020D3F8E03003F001030093009B78
:1015B80002F0DEFD0FB030BD424B284609A9D3F832
:1015C800E02042F00202C3F8E020D3F8E03003F054
:1015D80002030193019B02F0CBFD0FB030BD394BE4
:1015E800284609A9D3F8E02042F00402C3F8E02015
:1015F800D3F8E03003F004030293029B02F0B8FD35
:101608000FB030BD2F4B284609A9D3F8E02042F08F
:101618000802C3F8E020D3F8E03003F0080303938E
:10162800039B02F0A5FD0FB030BD264B284609A943
:10163800D3F8E02042F01002C3F8E020D3F8E030FD
:1016480003F010030493049B02F092FD0FB030BD29
:101658001C4B284609A9D3F8E02042F02002C3F821
:10166800E020D3F8E03003F020030593059B02F057
:101678007FFD0FB030BD134B284609A9D3F8E020F1
:1016880042F04002C3F8E020D3F8E03003F0400312
:101698000693069B02F06CFD0FB030BD094B28463F
:1016A80009A9D3F8E02042F08002C3F8E020D3F87B
:1016B800E03003F080030793079B02F059FD0FB059
:1016C80030BD00BF0044025870B506460D4600F014
:1016D800C9FE0446304600F0CDFE2A1E01462046CB
:1016E80018BF0122BDE8704002F034BF2DE9F04F69
:1016F800A44C0346ABB0204623655F7893F800807E
:1017080003F0B0F8E8B9012F4FF001059E490346F0
:1017180014BF4FF480124FF40002E060A560C4E9E2
:10172800001592FAA2F2B2FA82F24FF48076E061E2
:101738002046013A2362C4E9042603F027F8034649
:1017480018B101202BB0BDE8F08F4FF0660C41F2C4
:10175800883220460EA91496179313931B93CDF83D
:1017680038C0CDE91533CDE9193303F099F80028CD
:10177800E7D1992341F288320EA920460E9303F04F
:101788008FF80028DDD14FF0000B4FF0010C4FF01F
:10179800050A4FF08079249008AA21901CA9299065
:1017A80041F28833CDF870A0CDF89490CDE908BC0B
:1017B8004FF0100B4FF0010CCDE90ABC4FF0000BB5
:1017C8004FF4800CCDE92260CDE927002046CDE911
:1017D8000CBC03F0D1F90028B3D1ADF80800139080
:1017E800CDE91460CDE91609CDE91850CDE91A0004
:1017F800002F00F0CB80F023ADF80830C02341F271
:1018080088320EA95F480E9303F04AF8002898D151
:1018180041F288325B4802A903F0ACF8044600287C
:101828008FD1002601274FF480754FF080794FF053
:10183800000A4FF4800B219441F28833299408AAB6
:101848001CA950482295CDF89490CDE90867CDE9B8
:10185800234410260127CDE927440524CDE90A674A
:101868001C94CDE90CAB03F087F900287FF469AF2D
:10187800012406238DF8070041F2883213901CA931
:101888001B90219029900E941C93CDE91450CDE91A
:101898001609CDE91900CDE92250CDE92400CDE99A
:1018A8002700384802F0FCFF00287FF44AAF1026D2
:1018B8000127052041F2883308AA1CA91C90314849
:1018C800CDF89490CDE90A6702260227CDE90CAB42
:1018D800CDE9086703F050F900287FF432AF41F2F0
:1018E80088320EA9274802F0DBFF00287FF429AFD1
:1018F800402341F288320DF1070122488DF8073064
:1019080003F038F800287FF41CAF102601270520C3
:1019180002AA41F288330EA90E901A48CDF85C90BD
:10192800CDE9046740264027CDE906ABCDE902673B
:1019380003F022F9064600287FF403AF229500251C
:1019480021960520299601271C9008AA41F2883380
:101958001CA90C48CDF89490CDE92366CDE92766FB
:101968000126CDE908561026CDE90CABCDE90A676A
:1019780003F002F900287FF4E4AEB8F1000F50D06C
:101988000020DFE6D804002400500052612341F211
:1019980088320EA920460E9302F082FF00287FF4B9
:1019A800D0AE41F2883202A9204603F061F800283F
:1019B8007FF4C7AEBDF808300625259041F288327D
:1019C80023F07803219029901CA943F04003229624
:1019D8001C95ADF80830CDE92300CDE92700204655
:1019E80002F05EFF00287FF4ACAE102601272046E7
:1019F8000225022441F2883308AA1CA9CDF870A058
:101A0800CDF89490CDE90A6700264FF48007CDE918
:101A18000845CDE90C6703F0AFF800283FF4EEAEB7
:101A28008FE6EB24A0264FF4005706251C940024CB
:101A38004FF0805000234FF480784FF4406929908C
:101A48000EAA1CA90C48CDE91E67CDE920454FF424
:101A580040464FF0407700240025CDE92733CDE9F3
:101A68002289CDE92467CDE90E4503F0F9F800385D
:101A780018BF012066E600BFD80400243E4B026868
:101A88002DE9F0479A428CB04FF00005CDE9075593
:101A9800CDE909550B9502D00CB0BDE8F087374B5E
:101AA8000226374905AFD3F8D420B146DFF8D4A0D1
:101AB8004FF0030842F48042C3F8D420D3F8D4206E
:101AC80002F480420092009AD3F8E02042F04002EB
:101AD800C3F8E020D3F8E02002F040020192019A16
:101AE800D3F8E02042F02002C3F8E020D3F8E02049
:101AF80002F020020292029AD3F8E02042F010028B
:101B0800C3F8E020D3F8E02002F010020392039A11
:101B1800D3F8E0203243C3F8E020D3F8E030334074
:101B28000493049B03C90590ADF81810DAF85040E7
:101B380034440236204600F095FC034620461C46F5
:101B480000F098FC17F8013B024607A920460B93C2
:101B5800CDE90729CDE9095802F00AFB0E2EE5D197
:101B680000225C20114601F007FB5C2001F03EFBDF
:101B78000CB0BDE8F08700BF005000520044025886
:101B8800A4790008D8040024124B02689A4200D0B5
:101B98007047114AD2F8D43070B523F48043022537
:101BA8000E4EC2F8D430346D2C440235204600F075
:101BB80059FC034620461C4600F05CFC01462046C2
:101BC80002F0FAFB0E2DEED15C20BDE8704001F06A
:101BD8001BBB00BF0050005200440258D804002428
:101BE800014803F0C5B800BFD8040024F8B503685D
:101BF80071B9026A00F1280500F5AC74012A0CBF1E
:101C0800002240228BBB1D495723C0F858110DE014
:101C1800426A00F1C00500F5E874012A0CBF0022F1
:101C28004022EBB116495A23C0F8D01100214FF4D5
:101C380080504FF480674FF4804663604FF4003360
:101C4800A2604FF48072E16061622362C4E90470AB
:101C5800C4E90662204601F03BFC58B1FFBEFEE72E
:101C680008495823C0F8D011E0E707495923C0F8BC
:101C78005811DBE7C5E92044A563F8BD1000024010
:101C88007000024028000240580002402DE9F0434D
:101C9800831D05468BB0041D05F10A01083005F1C6
:101CA8000C020593AB69CDE90640CDE90812002B7B
:101CB8003DD0EB69B3FA83F84FEA581802220123A2
:101CC80005AE0AAF4FF006090192CDE9023356F886
:101CD800044B2B792278934216D02B68F3B1012B51
:101CE80002D1F2B10A230493204600F0C3FB034655
:101CF8002046009300F0B6FB694602F039FABE426E
:101D0800E5D10BB0BDE8F083697963789942E4D1F5
:101D1800B8F1000FF3D02B68002BE0D1CDF810906C
:101D2800E2E76378022B14BF0A230823DBE74FF0AE
:101D38000108C3E7534A0368934230B505468BB0A0
:101D480055D02032934252D04F4A934204D0203289
:101D5800934201D00BB030BD4C4C4D48D4F8E03024
:101D680043F00103C4F8E030D4F8E03003F0010395
:101D78000593059BD4F8E03043F00803C4F8E0303D
:101D8800D4F8E03003F008030693069BD4F8E0305B
:101D980043F04003C4F8E030D4F8E03003F04003E7
:101DA8000793079BD4F8F03043F40003C4F8F030ED
:101DB800D4F8F03003F400030893089BFFF766FF9C
:101DC800D4F8D830296843F001032F4A3048C4F8C2
:101DD800D830891AD4F8D83018BF012103F001038C
:101DE8000993099B0BB0BDE83040FFF7FFBE274CB5
:101DF8002848D4F8E03043F00103C4F8E030D4F8C0
:101E0800E03003F001030093009BD4F8E03043F086
:101E18001003C4F8E030D4F8E03003F01003019365
:101E2800019BD4F8E03043F04003C4F8E030D4F824
:101E3800E03003F040030293029BD4F8F03043F4FF
:101E48008003C4F8F030D4F8F03003F4800303932F
:101E5800039BFFF71BFFD4F8D830296843F0010330
:101E6800084A0C48C4F8D830891AD4F8D83018BFB2
:101E7800012103F001030493049B0BB0BDE830403B
:101E8800FFF7B4BE04580140045C01400044025806
:101E9800880700242C050024014801F00BBE00BF70
:101EA80084060024014801F005BE00BFFC0600249A
:101EB800014801F0FFBD00BFE0080024014801F01F
:101EC800F9BD00BF580900242DE9F04F0C684FF404
:101ED8001778DFF8D09185B008FB04F8012C09EBDE
:101EE800080CC0F800C000F397804FF0000A0E46B7
:101EF8000F466546CCF850A2CCE992AA0FCE0FC582
:101F08000FCE0FC563A3D3E9002364A1D1E9000173
:101F1800CDE9022304AB03EB8403CDE9000153F8B8
:101F2800102C53F8083C96E80300CCF82820CCF88D
:101F3800C0303B6985E80300042B0CD8DFE803F0C8
:101F4800707A848E03004FF417734F4A03FB04938F
:101F58009A64C3F8E020BA69002A43D03A6A4FF479
:101F680017730121002A03FB04930CBF02220322EA
:101F7800C3E90B21FA69002A41D1796A4FF4177332
:101F8800003903FB049318BF0121C3E931127B69AF
:101F9800022B05D83D493E4A11F803A052F823B058
:101FA8004FF41772002508F12800022302FB04945D
:101FB80059464844524665646563E565C4F8DC5093
:101FC800C4F8CC50C4F8F450C4E90F55C4E9155509
:101FD800C4E93555C4E93B5504F046FF002847D00D
:101FE800FFBEFEE7396A4FF41773003903FB049309
:101FF80018BF0121C3E90B12FA69002ABDD07A6A19
:102008004FF417730121002A03FB04930CBF02222B
:102018000322C3E93121BAE7012005B0BDE8F08FFA
:102028004FF417734FF4FA5203FB04939A64C3F8FE
:10203800E02090E74FF417734FF47A5203FB0493B0
:102048009A64C3F8E02086E74FF417734FF4FA4216
:1020580003FB04939A64C3F8E0207CE74FF41773FA
:102068004BF6803203FB04939A64C3F8E02072E7CE
:1020780008F1C000524659460223484404F0F4FED1
:102088000028CAD0FFBEFEE700770100AC7900083F
:10209800B079000824580140245C014004580140EC
:1020A800045C01402C0500240068704703681B6924
:1020B800042B05D8044A02EB830393ED000A70470A
:1020C8009FED020A704700BFBC79000800803B47BB
:1020D800704700BF08B500F02BFABDE8084001F0D2
:1020E8000BB900BF704700BF00F034BA0000000011
:1020F8002DE9F04FCFB004464C2200210AA8FEF784
:102108003DF92022002102A8FEF738F9BC2200215F
:102118001EA8FEF733F9022002F020FA23680022F5
:10212800012B3DD0604B02250192C821DA6A22F0CA
:102138000102DA62DA6A03F5113302F00102019250
:102148009A6942F440429A619B6903F440430193BF
:10215800019B564B9A699204FCD5554A02240420E7
:102168004FF0010C936A21264FF4803723F00303C4
:1021780023439362052308221590189300230AA885
:102188001691CDF840C0179419941A92CDE91344CA
:10219800CDE91B33CDE90A6702F0F2FEC0B1FEE7D4
:1021A800424B04250092F0219A6942F440429A6118
:1021B8009A69A3F5113302F440420092DA6A42F0B8
:1021C8000102DA62DB6A03F001030093009BC0E7B7
:1021D8003F26032700220823294602A8CDE90267E3
:1021E800CDE90423402640234FF480624027CDE9FF
:1021F8000823CDE9066703F003FA034600B1FEE7BA
:10220800802202260127002534924FF480723394ED
:10221800802443924FF480524FF00C084FF0080985
:102228001EA8CDE93B334FF4805335934FF48033E8
:1022380046930623CDE92267CDE9244540F22716C7
:10224800102704242025CDE926234FF4806200239B
:10225800CDE92867CDE92A45CDE92C230FF2400BBB
:10226800DBE900AB0026022700244FF4803500226A
:102278004FF44013CDE91EABCDE92089CDE92E6797
:10228800CDE93045CDE93E2303F0E2FB00B1FEE79E
:1022980002F08AF94FB0BDE8F08F00BFAFF30080BD
:1022A8000F130F03010000000004005800480258F3
:1022B80000440258F0B505460C4685B00126D1E920
:1022C800000185E8030000F005F92846FFF710FF34
:1022D800002500F0C5FF4FF04053384A6846019387
:1022E8004FF48073ADF80060CDE9022300F0DAFF07
:1022F8004FF0404340F20111192268460193ADF8AE
:102308000E108DF808208DF801608DF80D508DF8AD
:102318000A5000F0C7FF042000F0B2FF05F0C6F82D
:1023280004F06EFF237913BB63799BB1BFF34F8F22
:10233800BFF36F8F224B0022C3F85022BFF34F8F99
:10234800BFF36F8F5A6942F400325A61BFF34F8F5F
:10235800BFF36F8F0022002369461A48CDE9002396
:1023680005F032F8174805F097F805B0F0BD1449A4
:10237800C1F88450BFF34F8FD1F8800043F6E0775F
:10238800C0F34E32C0F3C900520102EA0705034602
:1023980045EA8376013BC1F860625E1CF8D1203AB9
:1023A80012F1200FF1D1BFF34F8F4B6943F4803303
:1023B8004B61BFF34F8FBFF36F8FB5E70E0001037B
:1023C80000ED00E0E409002403480023034A04491F
:1023D800036005F093BA00BFE4090024000000245C
:1023E800D920000830B4194C0022194BD4F88810B1
:1023F800184841F47001184DC4F888101C68174932
:1024080044F001041C601A611C68204018609A613D
:10241800DA611A629A62DA621A635A639A63DA6351
:102428001A645A64186820F4802018601A662B68A9
:102438001940B1F1005F02D2094B01221A60034B27
:102448004FF0006230BC9A60704700BF00ED00E0BA
:10245800004402587FEDF6EA0010005C0000FFFF20
:1024680008810051024B027853F82200704700BFE0
:10247800007A0008024B427833F81200704700BF18
:10248800E0790008704700BF0F4B1B780BB901209B
:10249800704710B504464FF47A700C4AB0FBF3F35A
:1024A8001068B0FBF3F000F0C3FE0F2C00D808B1A1
:1024B800012010BD002221464FF0FF3000F05CFEE5
:1024C800034B00201C6010BD0C00002404000024F5
:1024D8001000002470B5124C032000F039FE114E94
:1024E80002F0EEFFA26910490346C2F303220F204F
:1024F8000E4D8A5C02F01F02D3403360A26902408D
:102508008A5C02F01F02D3402B60FFF7BDFF10B1B9
:102518000124204670BD0446FFF7B4FF204670BD75
:102528000044025804000024D07900080800002460
:10253800034A044B11681B780B441360704700BFB3
:10254800E80900240C000024014B1868704700BFFC
:10255800E809002438B50446FFF7F6FF0546631C72
:1025680002D0044B1B781C44FFF7EEFF431BA34229
:10257800FAD338BD0C000024014B1868000C7047D2
:102588000010005C704700BF806B08B5FFF7FAFFCA
:1025980008BD00BF836B5A6D12F0500F5A6D10B50D
:1025A8001DD1196842F400725A650A6812F0080FC2
:1025B800CA681BD012F4406F0DD1CA6894040AD4BB
:1025C8005A6D22F480725A655A6DD10403D45A6D3B
:1025D80042F001025A651846FEF7F2FE10BDD20617
:1025E8000AD4DB6CBDE81040DB6C18479007E7D0D5
:1025F8001846FEF7E5FEF1E71846FEF787FF10BD1F
:10260800806B08B5436D43F040034365836D43F029
:1026180004038365FEF77AFF08BD00BFF0B500220A
:1026280083B0019290F85020012A00F01B810346E4
:1026380001201A6883F850009468660700F18980C1
:102648000C68C4F31305002D40F08E80C4F3846C2D
:1026580000FA0CF04C681F26D569A70934402843B6
:1026680002F1300507F00C07A640D0610CFA04F41B
:10267800785920EA0600204378519068450771D4BC
:10268800956815F0080548D10C6802F11406072072
:102698008F684FEAD45CC4F304540CF0040C00FABD
:1026A80004FE07FA04F4C64F5CF8060020EA0E00A0
:1026B80020434CF80600386800F07040B0F1805FA5
:1026C80000F0C880D068D66810F0100F486940F054
:1026D800E980C6F38206760000FA06F60F69042F31
:1026E80000F0C38002F16004086854F827C000F0C5
:1026F800F8400CF0004C40EA0C00304344F8270046
:102708000E694F7E54F82600012F20F0004008BFC4
:102718004FF00045054344F826509068C40716D486
:10272800CE68086806F01807A64CD2F8C050FC40DE
:10273800C0F31307DFF8B8C2044025EA0705664569
:1027480044EA0504C2F8C04046D0002816DB002041
:1027580003E05A6D42F020025A65002283F85020A7
:1027680003B0F0BD9068D8E794FAA4F5B5FA85F5FA
:10277800C4F3846C05F01F04A0406BE792498A42B9
:1027880000F0B68001F580718A4200F0B1808F4E6A
:102798008F4DA968B46801F0E076E44304F00104C1
:1027A800002C00F0B3808B4CA04200F0E6808A4CED
:1027B800A04200F01F81894CA042C8D14902C6D46A
:1027C80082498A42C3D1AA68002022F0E0723243CB
:1027D80042F48002AA60C0E7002F69D090FAA0F402
:1027E800B4FA84F4013404F01F04092C00F2A38025
:1027F80090FAA0F4B4FA84F490FAA0F50126B5FA98
:1028080085F501343544A40605F01F0504F0F844A5
:1028180006FA05F52C4390FAA0F0B0FA80F030449F
:1028280000F01F0000EB400000052043C70D02F137
:102838001405C0F304504FF0070C07F004078E6826
:102848000CFA00FC7C59864024EA0C00304378518D
:1028580008687AE7D6684869C6F38206760000FAFF
:1028680006F63BE7022003B0F0BD106E0D6800F0DD
:10287800F840AC06B0EB856F30D0506E00F0F840F1
:10288800844226D0906E00F0F84084422BD0D06E5F
:1028980000F0F84084427FF440AFD06E20F0004052
:1028A800D0663AE7760806F0080600FA06F615E755
:1028B800800E441C04F01F06092E2DD8A4060125FD
:1028C80006EB460004F0F84405FA06F60005344322
:1028D800ABE7506E20F000405066D3E7106E20F052
:1028E80000401066C9E7906E20F000409066CEE781
:1028F8003B49354E3B4C0D468968B768A46801F0E2
:10290800E0763C43E44304F0010449E75A6D0120B2
:1029180042F020025A6520E706EB46000127A5068B
:102928001E3807FA06F605F0F8450005354340F06D
:10293800007028437AE790FAA0F5B5FA85F590FA81
:10294800A0F40126B4FA84F401353444AD0604F049
:102958001F0405F0F84506FA04F4254390FAA0F49C
:10296800B4FA84F4344404F01F0404EB4404A4F1DE
:102978001E00000540F00070DBE708023FF5E7AEF7
:1029880012498A427FF4E3AE174AA96812681748C9
:1029980021F0E07192093143A0FB020241F40001E9
:1029A8009209A96052000192019A002A3FF4CFAE21
:1029B800019A013A0192019A002AF9D1C7E600BFAB
:1029C8000010005CFFFF0F0000200240006002586A
:1029D80000630258000084CB000052C70000B8CF43
:1029E800002302400021024004000024632D3E051C
:1029F8000000FF4711F080707FF4A9AE05498A42B4
:102A08007FF4A5AEAA6822F0E072324342F08072E9
:102A1800AA60A2E60060025803689A68D20701D546
:102A2800002070479968214A114270B504462AD19E
:102A380099681F4A0A4042F001029A60FFF784FD34
:102A480023681C4A0546934226D002F580729342B9
:102A580022D0194A9268164E0AE09A68324042F02B
:102A680001029A60FFF770FD401B02280BD823680B
:102A78001A68D20717D49A68D107EED5FFF764FD14
:102A8800401B0228F3D9636D012043F010036365EE
:102A9800A36D0343A36570BD084A9268D006DAD0D7
:102AA800074A9342D7D1002070BD00BF3F00008085
:102AB800C0FFFF7F0020024000630258002302404D
:102AC800002102402DE9F0413B4D044600680F46C5
:102AD8001646A84219D0394B984216D0384DAB68E3
:102AE8008068420716D494F85020012A12D003F0C7
:102AF8001F080123B8F1090F84F850300DD90023BD
:102B0800012084F85030BDE8F0812E4DAB68806814
:102B18004207E8D50220BDE8F08140F2212323FADC
:102B280008F3DB4313F00105E9D12046FFF774FFF2
:102B380000283AD1626D244B2568134043F4807312
:102B48006365B8F1000F02D01C4B9D4203D0636D42
:102B580023F480136365636D13F4805329D0A36D48
:102B680023F00603A365E06C4FF0000CDFF868E083
:102B780033463A461C21154F154EC0F83CE0076411
:102B8800C664296005F1400184F850C06E6846F0BB
:102B980010066E6000F066FE22680E4B91680B40CE
:102BA80043F004039360BDE8F08184F85050BDE819
:102BB800F081A365D7E700BF002002400021024052
:102BC8000063025800230240FEF0FFFF9125000831
:102BD80009260008C0FFFF7F9D25000838B5036857
:102BE8009A68910702D59B68002038BD9A68D20779
:102BF80023D59A68044602F00D02012A08D0636DB5
:102C0800012043F010036365A36D0343A36538BD3A
:102C1800986803210A4A024042F002029A60196049
:102C2800FFF792FC054604E0FFF78EFC401B0228E4
:102C3800E5D823689B68DB07F6D4002038BD00BFC1
:102C4800C0FFFF7F38B55A4A04460368934249D00B
:102C580002F58072934245D0564B9B6813F4403F6F
:102C680014BF01230023EBB102F0E4FD63680546BD
:102C7800B3F5003F00F08B80B3F5403F73D0B3F558
:102C8800803F00F08480FFF777FC41F2030398420D
:102C98001FD8494B9D4260D92268936843F48073DA
:102CA800936038BD4FF4002003F04AFE6368054680
:102CB800B3F5101F75D01DD9B3F5201F5BD0B3F540
:102CC800301FE0D1FFF758FC41F20303984244D982
:102CD8002D0A3A4B9D422ED82268936823F44073FC
:102CE800936038BD364B9B6813F4403F14BF0123F3
:102CF8000023B8E7B3F5E01F3FD004D9B3F5001FB0
:102D0800C1D14509BFE7B3F5801F06D00AD9B3F58D
:102D1800A01F02D0B3F5C01FB5D19B0C5B00B5FB5B
:102D2800F3F5B0E7B3F5002FF7D023F40022B2F59E
:102D3800802FF2D0A7E7234B234A2B4493421ED976
:102D4800224B234A2B449342226893682BD823F4BE
:102D5800407343F40073936038BD2268936823F48A
:102D68008073936038BD8508FFF706FC41F20303C2
:102D78009842AED88DE7C50985E7050983E722683B
:102D8800936823F4407343F48073936038BD1B0C3D
:102D9800B5FBF3F5FFF7F0FB41F20303984298D82F
:102DA80077E785096FE743F44073936038BD00BF48
:102DB8000020024000630258002D3101105E5F00C0
:102DC80000230240EFA1A0FF0F5E5F00DF4341FF39
:102DD8001FBCBE0070B5002382B00193002800F02C
:102DE800CF80456D0446002D00F0B98022689368B5
:102DF8009D0003D59168704B0B4093609368D80091
:102E080015D46E4B90681B686D4D9B096D49A5FBE9
:102E1800035301409B0941F0805191600193019B4C
:102E28002BB1019B013B0193019B002BF9D19368C6
:102E3800D90024D4636D012543F010036365A36DA5
:102E48002B43A365936813F0040F636D1DD1DB0654
:102E58001BD4636D23F4817343F0020363659368A5
:102E6800DE0728D4584B9A4217D003F580739A424C
:102E780013D0564B9B68D9071DD4554A15E0936863
:102E8800002513F0040F636DE1D0636D012543F055
:102E980010032846636502B070BD4B4A4D4B9268DB
:102EA8009B681343D80706D44B4A9368616823F498
:102EB8007C130B439360FFF75FFB41F20303A168A8
:102EC8009842237F51D8667D1A04206B42EA463225
:102ED80002430A43012B03D1236A013B42EA4342DE
:102EE800636A23B103F47873A16A0B431A43236816
:102EF8003A49D86801400A43DA609A6812F0040F28
:102F08009A681CD112071AD4D968354A207D0A401C
:102F1800E16A42EA80320A43DA6094F83820012AEA
:102F28003AD01A6922F001021A611A692046616BC7
:102F380022F070420A431A61FFF784FE2368E268B0
:102F4800012A21D01A6B22F00F021A63636D2846FA
:102F580023F0030343F00103636502B070BDFEF77D
:102F6800DBF9A56584F8505040E71029ABD1607DA6
:102F78001A04216B42EA40320A4342F01C02A9E7D4
:102F88000125284602B070BD196BA26921F00F0116
:102F9800013A0A431A63D9E71869124ED4E9102195
:102FA8000640A06C0A43E16B3243024342EA014205
:102FB80042F001021A61B8E7C0FFFF5F0400002475
:102FC800632D3E05C0FFFF6F0020024000600258DD
:102FD80000630258002102400023024003C0F0FFB2
:102FE800FCBFFFFF1EF800FCF0B50D4690F850102E
:102FF80083B00026012901963ED0012304461746D6
:1030080080F85030FFF7EAFD636DE0B91C4E07F019
:103018008042216805F480351E401A4B1A4F46F04D
:10302800020666658E68334013432B4343F0004322
:103038008B608B68002B0EDB636D23F0030343F07A
:103048000103636502E043F010036365002384F81D
:10305800503003B0F0BD019B01330193019BBB428B
:10306800E7D9636D0022012023F0120384F8502071
:1030780043F010036365ECE7022003B0F0BD00BF26
:10308800FDEEFFFFC0FFFE3FFF955A55F0B490F8E4
:1030980050200E68012A49D00346294A01201C689D
:1030A80083F85000944208D05A6D002142F0200263
:1030B80083F850105A65F0BC7047224DAA68520731
:1030C8000AD5A2685A6D012042F020025A650022F2
:1030D80083F85020F0BC7047A06810F00400F1D1CC
:1030E800C6B1DFF868C04F68DCF8082022F4404217
:1030F8003A43CCF80820A468AA682243D40713D41A
:103108008A68DCF808401049164321400E43CCF881
:103118000860DCE70D498A6822F440428A60A068AA
:10312800AA680243D00704D50020D0E70220F0BCEB
:1031380070478C683046044A22408A60C7E700BF5F
:103148000020024000210240E0F0FFFF002302407F
:1031580007490002074BCA6800F4E06010B44FF654
:10316800FF0422405DF8044B10430343CB607047D3
:1031780000ED00E00000FA05194BDB68C3F30223F9
:1031880030B4C3F107051C1D042D28BF0425062CE7
:1031980019D9033B4FF0FF349C4022EA04024FF058
:1031A800FF34002804FA05F421EA040101FA03F1C6
:1031B80041EA02010ADB09010A4BC9B2034483F858
:1031C800001330BC704700221346E8E700F00F00F8
:1031D8000901054BC9B20344197630BC704700BFDA
:1031E80000ED00E000E100E0FCEC00E0002807DB77
:1031F80000F01F0101234009024A8B4042F82030A9
:10320800704700BF00E100E000280DDB4309012200
:1032180000F01F000549203302FA00F041F82300AE
:10322800BFF34F8FBFF36F8F704700BF00E100E01F
:103238000138B0F1807F0DD2074B0022072130B44E
:10324800F025064C5860104684F823509A6019609F
:1032580030BC70470120704710E000E000ED00E04E
:10326800BFF35F8F044A00200449536A23F4803374
:1032780053624860704700BF00ED00E090ED00E049
:10328800064A40F00100064B5860536A43F4803305
:103298005362BFF34F8FBFF36F8F704700ED00E0AD
:1032A80090ED00E0124A437893600178E9B14368F1
:1032B80070B4D360C37A047B1B06857A867B43EAA5
:1032C8000473447B0B43017A43EAC543C57B43EA55
:1032D8008443447A43EA464343EA054343EA0423E2
:1032E80043EA410370BC13617047D16011617047B4
:1032F80090ED00E0704700BF08B5FFF7FBFF08BD81
:103308000268354B354930B4354C364DA24218BFAA
:103318009A4204F148040CBF012300238A4208BFE3
:1033280043F001034831AA4208BF43F0010348357E
:10333800A24208BF43F0010348348A4208BF43F061
:10334800010301F56271AA4208BF43F0010305F5C4
:103358006275A24208BF43F0010304F562748A4211
:1033680008BF43F001034831AA4208BF43F00103F4
:103378004835A24208BF43F0010348348A4208BFD7
:1033880043F001034831AA4208BF43F00103A242B7
:1033980008BF43F001038A4208BF43F0010313B991
:1033A800114B9A4213D1D3B21049114C103BA1FBD7
:1033B80003515F2B0F4BC1F3021103EA0203615C57
:1033C80088BF0433C1658365184630BC704722F056
:1033D800FF038365F8E700BF100002404000024089
:1033E8002800024058000240B8040240ABAAAAAA2A
:1033F800307A000800FCFFFF0368294A294930B4E5
:10340800294D2A4CAB4218BF934205F13C050CBF2D
:1034180001220022A34208BF42F001023C348B4241
:1034280008BF42F001023C31AB4208BF42F0010242
:10343800A34208BF42F001028B4208BF42F00102DA
:1034480012B91B4A934213D1DBB21A4D1A4A012111
:10345800083B1A4CA5FB0353446602EB1312C3F353
:103468000413920001FA03F30266836630BC7047C6
:10347800DAB21349134C1944103AA829A4FB0223C1
:103488004FEA131300D808330F4A03F01F05012130
:103498000E4C1A44A9404466920081660266E5E72C
:1034A80008540258445402581C54025830540258C4
:1034B80094540258CDCCCCCC0096001680580258B3
:1034C800F0FBFDBFABAAAAAA008200108008024048
:1034D800F8B50446FFF738F8002C00F0DC802368C4
:1034E8000546974A934249D01832934246D0303223
:1034F80094489549834218BF934200F148000CBF95
:10350800012200228B4208BF42F00102303183427F
:1035180008BF42F0010230308B4208BF42F001027E
:1035280001F55C71834208BF42F0010200F55C704E
:103538008B4208BF42F001023031834208BF42F09B
:10354800010230308B4208BF42F001023031834221
:1035580008BF42F0010230308B4208BF42F001023E
:103568003031834208BF42F001028B4208BF42F06B
:1035780001021AB9754A934240F0FC8002220021E8
:1035880084F8352084F834101A6822F001021A6091
:1035980005E0FEF7D9FF431B052B57D823681A68A7
:1035A800D107F6D4D4E9022120690A431F68D4E977
:1035B800051602430A436649D4E9070532433940F0
:1035C8000243606A2A43042841EA020145D019608F
:1035D8005A6922F00702104358612046FFF790FE0F
:1035E800E26D3F2302F01F02934083602046FFF7FD
:1035F80003FFA368802B18D06368256EDAB2013BFD
:10360800D4E91910072B2A60486015D8501E0728DE
:1036180043D9626FD4E91B310020186000200123D0
:103628004A60606584F83530F8BD0023A16ED4E99E
:10363800180263600360516000230020C4E91B3353
:1036480063670123606584F83530F8BD20220323C1
:103658000120626584F83530F8BDD4E90B50A26AC0
:10366800284301431960586920F00700104340F0CF
:103678000400002DB0D0002E45D1012A5AD032F0D6
:103688000202A9D1EA01A7D50123402218466265A2
:1036980084F83530F8BD0120F8BD21682D4B2E4E39
:1036A8002E4DB14218BF994206F128060CBF0123DE
:1036B8000023A94208BF43F001032835B14208BFDF
:1036C80043F001032836A94208BF43F00103283517
:1036D800B14208BF43F00103A94208BF43F0010308
:1036E8003BB91F4B994204D01E4B1F4913449B0002
:1036F80003E01E4B1E4913449B0001228240C4E98B
:103708001B31626788E7B6F5005F04D0022ABBD98F
:10371800032AB7D060E7032A3FF65EAF01A151F84C
:1037280022F000BF913600088D3600089136000857
:103738003D370008B5F1C07F7FF44EAFA4E700BF66
:10374800100002404000024070000240B8040240ED
:103758003F8010FE085402581C5402583054025836
:10376800945402583F820010400902403F960016C8
:1037780040590258334A344934488B4218BF93425F
:1037880001F12801324D0CBF01220022834208BFFB
:1037980042F001023C308B4208BF42F001023C314A
:1037A800AB4208BF42F00102834208BF42F0010267
:1037B8008B4208BF42F0010212B9264A93423AD11D
:1037C80002220021244F84F83520A26884F834109E
:1037D800402A196807EA01072BD0802A0CBF4FF44A
:1037E8008041002122692046E668D2086569DFF831
:1037F80070C042EAD602A66942EAD502E56942EA01
:10380800D602164E42EAD5021E44256A42EA15122D
:10381800ACFB06653A432D091143AD001960E56517
:10382800FFF76EFDE26D012302F01F029340436033
:10383800DCE61021D6E7402203230120626584F8E4
:103848003530F8BD085402581C54025830540258F8
:1038580058540258945402580F00FEFFF8ABFDA7C5
:10386800CDCCCCCC002800F0C1802DE9F041054634
:1038780090F83400012800F0BB80012095F835400D
:10388800844285F8340007D000224FF4006385F89D
:1038980034206B65BDE8F0812E6802277D4C7E4898
:1038A800DFF808C2864218BFA64200F1300085F84A
:1038B80035704FF000070CBF012400246F65664582
:1038C80008BF44F001040CF1300C744F864208BF65
:1038D80044F001043030664508BF44F001040CF59B
:1038E800627C864208BF44F0010400F56270BE4263
:1038F80008BF44F001044837664508BF44F0010496
:103908000CF1480C864208BF44F001044830BE421E
:1039180008BF44F001044837664508BF44F0010475
:103928000CF1480C864208BF44F00104A0F58F60F2
:10393800BE4208BF44F00104A7F58F67664508BF7B
:1039480044F00104BE4218BF86426F6E0CBF0120CE
:10395800002004433068D5E91A8C20F0010030605B
:10396800D5F858E0C7F8048045D0BCF1000F02D064
:10397800D5E91C074760EF6D3F20D5F8088007F0B0
:103988001F07B8F1400F00FA07F0CEF808003068BA
:1039980020F480203060736025D0B160F260336815
:1039A8002A6C23F01E0343F0160333601AB1336800
:1039B80043F0080333602B6E1A68D20303D51A68E4
:1039C80042F480721A60BCF1000F05D0DCF80030B8
:1039D80043F48073CCF800303368002043F00103CF
:1039E8003360BDE8F081B260F160D8E7012070472C
:1039F8000220BDE8F081BCF1000F02D0D5E91C0718
:103A080047602748DFF8A880264F464518BF8642FA
:103A180008F128080CBF01200020BE4208BF40F072
:103A280001002837464508BF40F0010008F1280882
:103A3800BE4208BF40F001002837464508BF40F0A5
:103A48000100BE4208BF40F0010010B91648864286
:103A58000FD1E86D0127D5F8088000F01F00B8F1F4
:103A6800400F07FA00F0CEF8040073600FD0B16081
:103A7800F26033682A6C23F00E0343F00A033360C4
:103A8800002A98D0336843F00403336093E7B260A8
:103A9800F160EEE740000240580002401004024086
:103AA8000854025830540258945402587000024086
:103AB8001C5402582DE9F0479F4A00259F4E82B0BA
:103AC800036882469E49846D934218BFB3420195AC
:103AD80008BF01260D68276818BF002621684AD04C
:103AE8003032DFF86CE29748734518BF93420EF105
:103AF800480E0CBF01220022834208BF42F0010297
:103B08003030734508BF42F001020EF1300E834297
:103B180008BF42F0010200F55C70734508BF42F02F
:103B280001020EF55C7E834208BF42F0010230308C
:103B3800734508BF42F001020EF1300E834208BF00
:103B480042F001023030734508BF42F001020EF125
:103B5800300E834208BF42F001023030734508BF7F
:103B680042F00102834208BF42F001021AB9764AC4
:103B7800934240F00B82DAF85C10082201F01F0C27
:103B880002FA0CF2174240F08D8127FA0CF2D207A4
:103B98000CD55A69100609D5012202FA0CF2A26066
:103BA800DAF8542042F00202CAF854204FF0040E0A
:103BB8000EFA0CF038425BD0002E4FD1634ADFF882
:103BC8009091DFF880814B4518BF934209F148096D
:103BD8000CBF01220022434508BF42F0010208F150
:103BE80030084B4508BF42F0010209F1300943454E
:103BF80008BF42F0010208F55C784B4508BF42F067
:103C0800010209F55C79434508BF42F0010208F159
:103C180030084B4508BF42F0010209F1300943451D
:103C280008BF42F0010208F130084B4508BF42F0D6
:103C3800010209F13009434508BF42F0010208F1C9
:103C480030084B4508BF42F00102434508BF42F027
:103C580001021AB93C4A934240F02F821A6892072F
:103C680006D5A060DAF8542042F00402CAF85420BD
:103C7800102202FA0CFC1CEA070F6FD0002E46D166
:103C8800324A33482F4E834218BF934200F148000E
:103C98000CBF01220022B34208BF42F001023036B5
:103CA800834208BF42F001023030B34208BF42F0FD
:103CB800010206F55C76834208BF42F0010200F576
:103CC8005C70B34208BF42F001023036834208BF3D
:103CD80042F001023030B34208BF42F001023036F0
:103CE800834208BF42F001023030B34208BF42F0BD
:103CF80001023036834208BF42F00102B34208BFD6
:103D080042F001021AB9104A934240F0DE811A6863
:103D1800C2F3C00212B3C4F808C01A68520300F113
:103D28008B811A68D60503D41A6822F008021A6033
:103D3800DAF8403093B10DE028000240100002404C
:103D48000400002470000240B804024058000240F9
:103D58004000024050469847DAF85C1001F01F0115
:103D680020268E403E426AD0DAF80020A74BA848A9
:103D7800A84F824218BF9A4200F130000CBF0123BD
:103D88000023BA4208BF43F001033037824208BF1C
:103D980043F001033030BA4208BF43F00103303723
:103DA800824208BF43F001033030BA4208BF43F0F3
:103DB800010307F55C77824208BF43F0010300F571
:103DC8005C70BA4208BF43F001033037824208BF33
:103DD80043F001033030BA4208BF43F001033037E3
:103DE800824208BF43F001033030BA4208BF43F0B3
:103DF80001033037824208BF43F00103BA4208BFCB
:103E080043F001031BB9844B9A4240F07381136855
:103E1800C3F300139BB1A6609AF83530042B1368DE
:103E280000F0148113F4802F136800F02D811C0317
:103E380040F13881DAF83C300BB150469847DAF84F
:103E48005430002B00F0DF80DAF85430D8071FD543
:103E5800DAF8002004248AF83540136823F00103B7
:103E680013606E4BA3FB0535AD0A02E01368D90752
:103E780004D5019B0133AB420193F7D900238AF89B
:103E880034301368DB074CBF032301238AF835302D
:103E9800DAF84C30002B00F0B680504602B0BDE88E
:103EA800F0471847186840070AD5186820F004003A
:103EB8001860A260DAF8542042F00102CAF85420CF
:103EC80027FA0CF2D2077FF571AE554A5148DFF850
:103ED8006481834218BF934200F148000CBF01225D
:103EE8000022434508BF42F0010208F1300883422E
:103EF80008BF42F001023030434508BF42F00102DA
:103F080008F55C78834208BF42F0010200F55C7056
:103F1800434508BF42F0010208F13008834208BF58
:103F280042F001023030434508BF42F0010208F177
:103F38003008834208BF42F001023030434508BFD1
:103F480042F0010208F13008834208BF42F0010242
:103F58003030434508BF42F00102834208BF42F0B7
:103F68000102002A7FF415AE002E7FF412AE04225F
:103F78001E6802FA0CF23A4240F09F80102202FAC0
:103F88000CFC17EA0C0F3FF4E9AE79E6254A264EF9
:103F9800264DB34218BF934206F128060CBF0122F2
:103FA8000022AB4208BF42F001022835B34208BFE5
:103FB80042F001022836AB4208BF42F00102283520
:103FC800B34208BF42F00102AB4208BF42F001020F
:103FD80012B9174A934216D1DAF85C5004261A68C7
:103FE80005F01F05AE400E4273D0570771D5100477
:103FF800666040F19F80D10300F1A280DAF8483072
:10400800002B7FF44AAF02B0BDE8F08710000240F1
:104018002800024040000240B8040240B5814E1B0F
:1040280058000240085402581C5402583054025890
:1040380094540258700002401B681B037FF578AE49
:10404800DAF84830002B7FF485AE87E623F01603B4
:10405800DAF840501360536923F0800353613DB38D
:10406800136823F0080313603F230025012203FA95
:1040780001F1DAF85030A1608AF834508AF8352016
:10408800002B7FF40AAFBEE713F480737FF4D2AE3F
:104098001168012421F0100111608AF834308AF87F
:1040A8003540C7E6DAF84430002B7FF4C6AEC6E6E2
:1040B800DAF84830002BD3D1D6E710221E6802FA6E
:1040C8000CFC17EA0C0F3FF449AE1A68C2F38002E1
:1040D80020E60226AE400E4210D097070ED5666045
:1040E800140433D5D0033DD4DAF84430002B7FF4E0
:1040F800D4AE88E71368C3F340038BE60826AE40C6
:104108000E4280D011077FF57EAF19680122002684
:1041180021F00E0102FA05F51960DAF84C306560F5
:10412800CAF854208AF834608AF83520002B7FF4C6
:10413800B4AE68E7920603D41A6822F004021A6043
:10414800DAF84030002B7FF4A8AE5CE712F02002CA
:1041580008D11968012421F00A0119608AF834206D
:104168008AF83540DAF83C30002B7FF496AE4AE7FF
:104178002DE9F04F0D6883B0002D00F0C4800023B6
:10418800DFF82C82DFF82CE201229A4012EA050CB3
:1041980000F0B4804C6824F01007022F40F0B6807D
:1041A800DF0803F0070A4FF00F0B0E6900EB8707D3
:1041B8004FEA8A0AD7F820900BFA0AFB06FA0AF6A1
:1041C8004FEA430A29EA0B094FF0030B46EA0909AB
:1041D8000BFA0AF604EA0B0BC7F820906FEA0609F7
:1041E80007680BFA0AFB27EA06064BEA060606608A
:1041F8008768C4F3001609EA070BCF689E4007FAE0
:104208000AF747EA0B078760476827EA020216435E
:104218004660C668E7008A6806EA090902FA0AF2EF
:1042280042EA0902C26069D5D8F8F47023F003099C
:1042380003F003020F2647F0020709F1B049920084
:10424800C8F8F47009F58069D8F8F47006FA02FA2B
:1042580007F0020701974D4F019EB842D9F8086050
:1042680026EA0A0620D007F58067B8426BD0484F87
:10427800B8426DD0474FB84260D0474FB84271D06E
:10428800464FB84273D0464FB84266D0454FB84201
:1042980072D0454FB84274D0444FB8420CBF09277A
:1042A8000A2707FA02F21643C9F808606FEA0C07F2
:1042B800DEF80020E60354BF3A404CEA0202CEF88A
:1042C8000020A203DEF804604FF0B04254BF3E4025
:1042D8004CEA0606CEF804601668E2024FF0B042D7
:1042E80054BF3E404CEA0606A4024FF0B0441660A4
:1042F800526854BF3A404CEA02026260013335FA10
:1043080003F27FF441AF03B0BDE8F08F4FEA430AF0
:104318004FF00309D0F800B0013F04EA090609FA92
:104328000AF9012F2BEA090B06FA0AF66FEA0909BE
:1043380046EA0B0606603FF66CAF59E7032707FA13
:1043480002F21643B0E7012707FA02F21643ABE779
:10435800022707FA02F21643A6E7062707FA02F22F
:104368001643A1E7042707FA02F216439CE705273C
:1043780007FA02F2164397E7072707FA02F21643ED
:1043880092E7082707FA02F216438DE70000025861
:1043980000080258000C0258001002580014025875
:1043A80000180258001C0258002002580024025825
:1043B8000044025880000058002900F0AC80002317
:1043C8002DE9F04FDFF870A183B0DFF87091DFF8C6
:1043D8007081DFF870B14FF0010E0EFA03F414EAA1
:1043E800010C73D023F0030503F003020F264845A0
:1043F80055444FEAC202AF6806FA02F607EA060712
:10440800019723D058456AD0464FB8426AD0464FE4
:10441800B84271D0454FB84273D0454FB84266D0C4
:10442800444FB84259D0DFF820E1704574D0DFF826
:104438001CE170456AD0DFF818E1704514BF4FF0F1
:104448000A0E4FF0090E0EFA02F200E00022019F58
:10445800974219D1AF684FF0B04227EA0606AE601E
:10446800D8F8005025EA0C05C8F80050D8F80450D0
:1044780025EA0C05C8F80450156825EA0C051560EE
:10448800556825EA0C0555605A000326D0F800C087
:104498000F2723FA06F5964003F0070200EB85057F
:1044A8004CEA060C9200C0F800C097402A6A22EA3B
:1044B80007022A62826822EA06028260426822EAC9
:1044C80004044460C26822EA0606C660013331FA71
:1044D80003F280D103B0BDE8F08F4FF0060E0EFA5C
:1044E80002F2B4E74FF0020E0EFA02F2AFE74FF015
:1044F800050E0EFA02F2AAE74FF0030E0EFA02F2C8
:10450800A5E74FF0040E0EFA02F2A0E74FF0080EEE
:104518000EFA02F29BE770474FF0070E0EFA02F20E
:1045280095E700BF00080258000C02580010025816
:1045380000140258001802580004005800000258DD
:104548008000005800040258001C0258002002583D
:104558000024025802B909048161704738B5114B2B
:10456800DA68520704D4DB6803F00703834215D1E5
:104578000C4AD368154623F007031843D060FDF7AB
:10458800E3FF044605E0FDF7DFFF001BB0F57A7F87
:1045980006D86B689B04F6D5002038BD012038BDCD
:1045A800032038BD00480258024AD36843F080739C
:1045B800D360704700480258F0B44C6A82B014B116
:1045C800B2F1406F30D18B69002B34D00E6A002EC7
:1045D80059D0056823438F68C869EF61002800F047
:1045E800AE8013430F690C68B2F1406F43EA0603CB
:1045F800CE6843EA0003C86A43EA0003086B43EA4B
:10460800000348690190486B43EA0003019843EAB4
:10461800070343EA060343EA040343EA80436B6162
:1046280060D04B68AB615DE08B6A0568013B2B612C
:104638008B69002BCAD10B6A002B44D00668234330
:104648008D68C869F561002869D013434D6B0F69FF
:10465800B2F1406F43EA0003C86ACC6843EA00033A
:10466800086B43EA0003486943EA050343EA070382
:1046780043EA040343EA8043736133D04B68B36170
:1046880002B0F0BC7047CD69002D6CD0234306689A
:10469800CC6AB2F1406F43EA02000F6B4B6B40EA01
:1046A8000500CD6840EA04000C6840EA070040EACB
:1046B80003004B6940EA050040EA040040EA8340F1
:1046C8007061DBD10EE0CB697BB95CB1CB6A006865
:1046D8002343D1E90C5413434A692B43234343EA48
:1046E8008243436102B0F0BC70472343CC6A0D6B30
:1046F800B2F1406F43EA0203006843EA04034C6BDB
:1047080043EA0503CD6843EA04034C6943EA050319
:1047180043EA84434361E5D04B688361E2E7D1E92A
:104728000B0513434C6B03432B43D1E9040223438A
:10473800034343EA8243736102B0F0BC70471343FA
:104748004F6B0C6933434A69D1E90B0C0343086882
:1047580043EA0C033B432343034343EA82436B612D
:1047680002B0F0BC70471C43CE6A006844EA0203FA
:104778000C684A693343D1E90C753B432B43234307
:1047880043EA8243436102B0F0BC7047F8B504467F
:10479800FDF7DAFE002C55D094F84030012B53D0A9
:1047A8000123064684F8403094F8413003F0FF02B4
:1047B800002B35D0A76C2368A1681A68013922F448
:1047C800706242EA01221A6001E07A1C32D19D68C7
:1047D80015F02005F9D1D4E90716E26828461F68C4
:1047E8000A43616832431D4E42EA01623E406169F4
:1047F800A76932431A4E1A6041EA07025F682169C5
:104808003E4042EA0142012132435A601A680A4393
:104818001A60656484F84110002384F84030F8BDBC
:10482800204684F84020FDF729F941F288331F46D5
:10483800A364C0E7FDF788FE801BB84206D82FB1F5
:104848002368C4E70120F8BD0220F8BD0423012035
:1048580084F84130636C03436364DDE72FFFFF0096
:10486800FEF8E0FFC8B110B590F840300446012BBF
:1048780011D00268012380F84030136823F0010347
:104888001360FDF781F900236364184684F841300A
:1048980084F8403010BD022010BD0120704700BFD1
:1048A8002DE9F04104460D469046FDF74DFE94F87B
:1048B8004030012B3BD0012384F8403094F841303C
:1048C800012BDEB206D002260023304684F84030A1
:1048D800BDE8F081002202230746626484F8413073
:1048E800B8F1FF3F23680ED19A6812F02002FBD17D
:1048F80029462046FFF760FE6B6AE3B101230026D4
:1049080084F84130E0E79A6812F020021ED0FDF7E3
:104918001BFEC01B804502D3B8F1000FE0D1042371
:1049280084F84130636C43F001036364CCE70226EA
:104938003046BDE8F081226893689B07FCD50221C8
:1049480001230026D16084F84130BDE7294620467E
:10495800FFF732FE6B6A43B1D0E7FDF7F5FDC01BE8
:104968008045DCD3B8F1000FD9D022689368990745
:10497800F3D5E4E72DE9F843044689461546FDF7E3
:10498800E3FD94F840302768012B67D0012384F8B1
:10499800403094F84130012B5FFA83F807D04FF08C
:1049A80002080023404684F84030BDE8F88300231D
:1049B8006364B9F1000F56D01223064684F84130DB
:1049C8003B690133E3623B69C4F824900133A36275
:1049D8007B6923F040637B61E36A002B31D0691C5B
:1049E8003B4611D19A685207FCD5636A1B7887F851
:1049F8002030E26A636A013A0133E262E26A636282
:104A0800F2B1691C2368EDD09B685807EDD4FDF717
:104A18009BFD801B854201D3002DF2D1042384F82D
:104A28004130636C43F00103636413E0BB689B0788
:104A38000CD4FDF789FD801B8542EFD3002DEDD006
:104A48002768691CF2D1BB689A07FCD502234FF08E
:104A58000008FB60012384F84130A2E74FF0020808
:104A68004046BDE8F883636C43F00803636498E745
:104A78002DE9F843044615468946FDF765FD276884
:104A8800BA6994F84030012B6CD0012384F8403087
:104A980094F84130012B5FFA83F807D04FF00208F1
:104AA8000023404684F84030BDE8F883002363645F
:104AB800B9F1000F5BD02223064684F841303B69E8
:104AC8000133A3633B69C4F83090013363637B69A6
:104AD80023F0406343F080637B61BA61A36B002BD2
:104AE80033D0681C3B4612D19A6812F0060FFBD0EF
:104AF80097F82020236B1A70A26B236B013A0133BD
:104B0800A263A26B2363FAB1681C2368ECD09B688C
:104B180013F0060FECD1FDF717FD801B854201D37A
:104B2800002DF1D1042384F84130636C43F0010374
:104B3800636413E0BB689B070CD4FDF705FD801B7D
:104B48008542EFD3002DEDD02768691CF2D1BB68F0
:104B58009A07FCD502234FF00008FB60012384F874
:104B680041309DE74FF002084046BDE8F883636C8A
:104B780043F00803636493E72DE9F84304461D46B0
:104B88000F461646FDF7E0FC94F84030012B4FD055
:104B9800012384F8403094F84130012B5FFA83F800
:104BA80007D04FF002080023404684F84030BDE8A3
:104BB800F883002242238146626484F84130681CED
:104BC800236829D19A689106FCD4326839467068FE
:104BD8009A62B2685862DA621A68306922F440024E
:104BE800D6F80CC042EA00064FF00062204646F4B0
:104BF80080061E60C7F828C0FFF7DEFC681C226824
:104C08001BD193681907FCD5082101234FF0000830
:104C1800D16084F84130C6E79A689206D5D5FDF789
:104C280093FCA0EB0900854212D3002DC7D10FE0F9
:104C38004FF002084046BDE8F88393681B07E3D4A9
:104C4800FDF782FCA0EB0900854201D3002DD5D1E8
:104C5800042384F84130636C43F001036364A2E7E2
:104C68002DE9F84304460F469046FDF76DFC94F88D
:104C78004030012B42D0012384F8403094F8413071
:104C8800012BDEB206D002260023304684F84030DD
:104C9800BDE8F883002282230546D4F84890626470
:104CA80084F84130B9F1FF3F226814D1936899061E
:104CB800FCD41368D8F8041023F00803082943EA41
:104CC800010313601ED039464FF04062204600268B
:104CD800FFF772FCD8E793689B06EAD5FDF734FC2A
:104CE800401B814502D3B9F1000FDBD1042384F8BE
:104CF8004130636C43F001036364C5E70226304624
:104D0800BDE8F883D8F8001010231163D360136846
:104D180043F480131360D6E7704700BF08B5006CF2
:104D280000238363C36290F84130082B0BD10368DA
:104D38000222DA601A6842F400321A601A6842F0F5
:104D480002021A6008BD012380F84130FFF7E4FF32
:104D580008BD00BF704700BF704700BF704700BF65
:104D6800704700BF704700BF704700BF704700BF63
:104D780038B5036804469A68196855070ED548037C
:104D88000CD594F84120122A75D094F84120222A93
:104D980000F0A1802046FFF7E5FF38BD950726D52E
:104DA800880324D50222DA601A6822F4E0221A6005
:104DB80094F84120122A7AD094F84120222A00F04F
:104DC800A98094F84120022A00F0D08094F841206C
:104DD800082AE2D15A690121204622F040625A612C
:104DE80084F84110636C3BBBFFF7B4FF38BD15076F
:104DF80025D4D50735D5C80333D50125DD601A6814
:104E080022F470221A60626C42F0020262641A682C
:104E1800520779D51A68E06B22F0040257491A60E4
:104E2800816502F0B3FB0028B7D0636C204643F0DD
:104E38000403636484F84150FFF76EFF38BD08032C
:104E4800D7D50822DA601A68520206D51A680121F5
:104E580022F410221A6084F841102046FFF784FFDC
:104E680038BDD00699D5CA0297D510222046DA60F7
:104E7800FFF77CFF38BD9A6850078BD518460EE0BF
:104E8800626A127883F82020E16A20680139626A30
:104E9800E1620132816862624D077FF57BAFE26AA9
:104EA800002AEDD1036823F48023036072E71A68AF
:104EB800510709D51A68E16B22F0040209681A60E3
:104EC800CB6823F00103CB600123204684F84130EE
:104ED800FFF746FF38BD9A6852077FF55BAF184663
:104EE8000EE093F82010226B1170A16B2068013935
:104EF800226BA16301328168226349077FF54AAFBB
:104F0800A26B002AEDD1CDE7204684F84150FFF787
:104F180003FF38BD1A6852071DD49A6812F47C5FE3
:104F28000FD111E093F82010226B1170A16B20684B
:104F38000139226BA16301328168226311F47C5F1D
:104F480002D0A26B002AEDD10123204684F841301B
:104F5800FFF704FF38BD1A68E16B22F00402096804
:104F68001A60CB6823F00103CB60EDE701232046EC
:104F780084F84130FFF7F0FE38BD00BF254D00082A
:104F8800002800F0EE81F8B503680446D80730D54C
:104F9800B3490A69896A02F03802102A00F00681CA
:104FA800182A00F0FE806368B3F5803F00F0268180
:104FB800002B00F06481B3F5A02FA94B1A6800F00C
:104FC800408222F480321A601A6822F480221A6021
:104FD800FDF7BAFAA24E41F28837054605E0FDF71B
:104FE800B3FA401BB84200F2488133689A03F6D5F9
:104FF8002368980700F18980D90630D5984A136943
:10500800926A03F03803082B00F0E080182B00F0B8
:10501800D880E369002B00F07181914B1A681E4615
:1050280042F080021A60FDF78FFA054605E0FDF7A9
:105038008BFA401B022800F220813368DB05F6D585
:10504800FDF79AFA41F20303984200F21C82736852
:10505800226A23F0F84343EA8263736023681D07DA
:1050680017D56369002B00F023817D4B5A6F1E46CC
:1050780042F001025A67FDF767FA054605E0FDF7B9
:1050880063FA401B022800F2F880736F9807F6D580
:1050980023689A0617D5A369002B00F01C81704B72
:1050A8001A681E4642F480521A60FDF74DFA05460A
:1050B80005E0FDF749FA401B022800F2DE8033685C
:1050C8009F04F6D52368590700F19E80636AD3B11F
:1050D800634A116901F03801182970D0022B13684E
:1050E800154623F08073136000F04581FDF72CFA14
:1050F800044605E0FDF728FA001B022800F2BD80EF
:105108002B689B01F6D40020F8BD554A1369926AB2
:1051180013F038032AD1524BE1681B685A0701D5AE
:1051280000294CD04E4A1368164623F019030B4346
:105138001360FDF709FA054605E0FDF705FA401B7F
:10514800022800F29A8033685B07F6D5FDF714FA57
:1051580041F2030322699842736800F2FB8023F44A
:105168007C3343EA02337360236845E7182B00F069
:10517800ED80E268002A00F0D58039490B680E46B8
:1051880023F0190313430B60FDF7DEF9054604E02D
:10519800FDF7DAF9401B02286FD833685F07F7D5A7
:1051A800D4E701F0030102297FF4FDAE2C4A12680E
:1051B80091037FF51EAF6268002A7FF41AAF0120C1
:1051C800F8BD02F00302012A7FF423AF244B1B68C9
:1051D800DA0502D5E369802BF1D1FDF7CDF941F26B
:1051E80003031F4A9842216A00F2BD80536823F0E6
:1051F800F84343EA81635360236830E7184A136829
:1052080043F480331360E3E6164B1A681E4642F4F3
:1052180080721A60FDF798F9054604E0FDF794F9E5
:10522800401B642829D83368DA05F7D5A368012B11
:1052380000F03281002B00F00C81052B084B1A6F0F
:1052480000F0308122F001021A671A6F22F004027E
:105258001A67FDF779F9024E41F28837054608E0EA
:105268000044025800480258FDF76EF9401BB84246
:1052780003D8336F9B07F7D528E70320F8BD8D4B7C
:1052880041F288371A681E4622F480321A601A687A
:1052980022F480221A60FDF757F9054604E0FDF76D
:1052A80053F9401BB842E8D833689B03F7D49FE60C
:1052B800804B5A6F1E4622F001025A67FDF744F9E7
:1052C800054604E0FDF740F9401B0228D5D8736F66
:1052D8009907F7D4DCE6774B1A681E4622F4805209
:1052E8001A60FDF731F9054604E0FDF72DF9401B7A
:1052F8000228C2D833689804F7D4E3E66D4B1A68DD
:105308001E4622F080021A60FDF71EF9054604E0E9
:10531800FDF71AF9401B0228AFD83368DF05F7D428
:1053280023689CE6634B1A681E4622F001021A6045
:10533800FDF70AF9054604E0FDF706F9401B0228C7
:105348009BD833685807F7D4236855E691077FF44C
:1053580010AFE0E623F0FE4343EA0263736023687C
:105368004AE601207047D36823F07C5343EA01637F
:10537800D360236873E6FDF7E7F8064605E0FDF716
:10538800E3F8801B02283FF678AF2B689901F6D422
:10539800AA6A494BA06A1340E26A48490343454E4A
:1053A80043EA0213AB62276BD4E90D32013F501E6A
:1053B800013BE26BC7F308075B020004013A9BB2AA
:1053C80000F4FE001206034302F0FE423B4313437F
:1053D8002B63EB6A23F00103EB626A6BA36C114049
:1053E80041EAC3016963EB6A226C23F00C0313439F
:1053F800EB62EB6A626C23F002031343EB62EB6A25
:1054080043F48033EB62EB6A43F40033EB62EB6AFC
:1054180043F48023EB62EB6A43F00103EB622B68F1
:1054280043F080732B60FDF78FF8044605E0FDF725
:105438008BF8001B02283FF620AF33689A01F6D597
:1054480061E642F480221A601A6842F480321A60D7
:10545800BEE5184B41F288371A6F1E4622F001024A
:105468001A671A6F22F004021A67FDF76DF80546ED
:1054780005E0FDF769F8401BB8423FF6FEAE336F12
:105488009807F6D422E6F368226A23F07C5343EAAD
:105498000263F3602368E2E5064A136F43F00103F1
:1054A8001367D6E642F004021A671A6F42F0010247
:1054B8001A67CEE6004402580CFCFFFF0700FFFF06
:1054C800474A136903F03803102B04D0182B0DD06A
:1054D8001BB14448704744487047136899064AD539
:1054E80013684248C3F3C103D8407047936A30B485
:1054F800946AD16A14F47C7FC4F30510556B38D0D4
:10550800C5F3CC0501F0010103F0030301FB05F12C
:10551800012B07EE901AB8EEE77A02D0022B2CD0B6
:1055280093B307EE900A9FED325AF8EEE77A136BC1
:10553800C5EE276ADFED2F5AC3F3080307EE903A4A
:10554800B7EE006AF8EEE77AE7EE257A77EE867A24
:1055580066EEA76A224B1B6BC3F34623013307EEA3
:10556800903AB8EEE77AC6EE877AFCEEE77A17EE5D
:10557800900A30BC70471D48704707EE900A9FEDAF
:105588001E5AF8EEE77AD2E713689B0620D513680F
:1055980007EE900A1549B7EE005AC3F3C100F8EEBA
:1055A800E77A136BC140DFED134AC3F3080306EE35
:1055B800101A06EE903AB8EEC66AF8EEE66AC6EE3B
:1055C800275AE7EE246A76EE856A66EEA56AC1E791
:1055D80007EE900A9FED095AF8EEE77AA7E700BFB1
:1055E8000044025800093D000024F4000090D00354
:1055F8000024744A000000390024744B0024744CC1
:10560800002800F00381874A136803F00F038B42D8
:105618002DE9F04104460D460CD2136823F00F0320
:105628000B431360136803F00F038B4202D0012071
:10563800BDE8F08123685F070BD57B4920698A693B
:1056480002F07002904204D98A6922F07002024383
:105658008A611E070BD574496069CA6902F0700235
:10566800904204D9CA6922F070020243CA61D8067E
:105678000BD56D49A069CA6902F4E062904204D969
:10568800CA6922F4E0620243CA6199060BD56649E9
:10569800E0690A6A02F07002904204D90A6A22F0AC
:1056A800700202430A629A0740F1A2805E48E168EC
:1056B800826902F00F02914204D9826922F00F0236
:1056C8000A438261D80731D5574AA168936923F400
:1056D80070630B43936161681368022900F0988036
:1056E800032900F08F80012900F0988058079ED583
:1056F8004D4A41F288381369174623F007030B43D4
:105708001361FCF721FF064605E0FCF71DFF801B2F
:10571800404500F281803B69626803F03803B3EBCF
:10572800C20FF2D12368990706D5E1683E4882691D
:1057380002F00F028A425FD83A490A6802F00F0263
:10574800AA420AD90A6822F00F022A430A600A68A4
:1057580002F00F02AA427FF46AAF5A070BD532490A
:1057680020698A6902F07002904204D28A6922F0A4
:10577800700202438A611F070BD52B496069CA6909
:1057880002F07002904204D2CA6922F07002024309
:10579800CA61DE060BD52449A069CA6902F4E06231
:1057A800904204D2CA6922F4E0620243CA619D06AB
:1057B8000BD51D4AE169136A03F07003994204D2BC
:1057C800136A23F070030B431362FFF779FE164A3E
:1057D800164C034692690F201549C2F30322A25CB6
:1057E80002F01F02D340BDE8F0410B60FCF74CBE4D
:1057F800DA073FF569AF9FE7826922F00F0211438C
:10580800816199E79F013FF573AF10E70120704769
:105818009B033FF56DAF0AE7032009E7DE053FF577
:1058280067AF04E70020005200440258D07900080E
:105838000400002408B501F04FF9064B06499B699E
:10584800064A03F00F03CB5C03F01F03D840106037
:1058580008BD00BF00440258D079000808000024A1
:105868003B4AF8B5936A03F00303032B69D0136826
:1058780006460F46144623F080631360FCF764FE67
:10588800054604E0FCF760FE431B022B57D823684B
:105898001A01F7D4A36A326823F47C332D4943EA0A
:1058A8000233A3627568D6E90232013D501E013BFE
:1058B8003269C5F308055B020004013A9BB200F4A3
:1058C800FE001206034302F0FE422B431343A36378
:1058D800E36A726923F0C0031343E362E36AB269BF
:1058E80023F020031343E362E36A23F01003E36227
:1058F800E26BF369114041EAC301E163E36A43F0F3
:105908001003E362E36AF7B1012F0CBF43F480137D
:1059180043F40013E3620E4B1A681D4642F080629E
:105928001A60FCF711FE044604E0FCF70DFE001BAC
:10593800022804D82B681B01F7D50020F8BD0320E6
:10594800F8BD0120F8BD43F40023E362E3E700BF9C
:10595800004402580700FFFF3B4AF8B5936A03F07A
:105968000303032B69D0136806460F46144623F039
:1059780080531360FCF7E8FD054604E0FCF7E4FDFE
:10598800431B022B57D823689A00F7D4A36A3268BE
:1059980023F07C732D4943EA0253A3627568D6E964
:1059A8000232013D501E013B3269C5F308055B0216
:1059B8000004013A9BB200F4FE001206034302F011
:1059C800FE422B4313432364E36A726923F4406362
:1059D8001343E362E36AB26923F400731343E36297
:1059E800E36A23F48073E362626CF369114041EA6D
:1059F800C3016164E36A43F48073E362E36AF7B165
:105A0800012F0CBF43F4000343F08073E3620E4B95
:105A18001A681D4642F080521A60FCF795FD04464C
:105A280004E0FCF791FD001B022804D82B689B00BA
:105A3800F7D50020F8BD0320F8BD0120F8BD43F4D8
:105A48008003E362E3E700BF004402580700FFFF5A
:105A58002DE9F8430368044613F000661CD0426E33
:105A6800B2F5001F00F0B98423D8002A00F0CE83D5
:105A7800B2F5801F20D102210430FFF7F1FE06465F
:105A8800002E40F06E84626E2368AB480026016DDC
:105A980021F440110A430265DD0511D5626D042A1F
:105AA80000F20785DFE812F0690470048004CA0276
:105AB800CA02B2F5401FE8D0DD054FF00106EDD46B
:105AC800354698051BD5A26D802A00F0758400F232
