:020000040800F2
:1000000000000220752A0008712A0008954A00089D
:10001000712A0008712A0008712A000800000000F7
:10002000000000000000000000000000712A00082D
:10003000712A000800000000712A0008854A0008A3
:10004000712A0008712A0008712A0008712A000824
:10005000712A0008712A0008712A0008712A000814
:10006000712A0008712A0008712A0008F146000868
:10007000FD460008712A00080947000815470008D6
:10008000712A00085D930008712A0008712A00088F
:10009000712A0008712A0008712A0008712A0008D4
:1000A000712A0008712A0008712A0008712A0008C4
:1000B000712A0008712A0008712A0008919300082B
:1000C000712A00089D930008712A0008712A00080F
:1000D000712A0008712A0008712A0008712A000894
:1000E000712A0008712A000800000000712A000827
:1000F000712A0008712A0008712A0008712A000874
:10010000712A0008712A0008712A0008712A000863
:10011000712A0008712A0008712A0008712A000853
:10012000712A0008712A0008712A0008712A000843
:10013000712A0008712A0008712A0008712A000833
:1001400000000000000000000000000000000000AF
:10015000712A0008712A0008712A0008712A000813
:10016000A9930008712A0008712A0008712A000862
:10017000712A0008712A0008712A0008712A0008F3
:10018000712A0008712A0008712A0008712A0008E3
:10019000712A0008712A0008712A0008712A0008D3
:1001A000712A0008712A0008712A0008712A0008C3
:1001B00039440008712A0008712A0008712A0008D1
:1001C000712A0008712A0008712A0008712A0008A3
:1001D000712A0008712A0008712A0008712A000893
:1001E000712A0008712A0008712A0008712A000883
:1001F000712A0008712A0008712A0008712A000873
:10020000712A0008712A0008712A0008712A000862
:10021000712A0008712A0008712A0008712A000852
:10022000712A0008712A0008712A000800000000E5
:10023000712A0008712A000800000000712A0008D5
:10024000712A0008712A0008712A0008712A000822
:10025000712A0008712A0008712A0008712A000812
:10026000712A0008712A0008712A0008712A000802
:10027000712A0008712A0008712A00080000000095
:10028000712A0008712A0008712A00080000000085
:0802900000000000712A0008C3
:1002A0000348044B834202D0034B03B11847704705
:1002B000C0000024C00000240000000005480649DA
:1002C0000B1AD90F01EBA301491002D0034B03B164
:1002D00018477047C0000024C00000240000000040
:1002E00010B5064C237843B9FFF7DAFF044B13B17E
:1002F0000448AFF300800123237010BDC000002428
:1003000000000000DCA7000808B5044B1BB104493D
:100310000448AFF30080BDE80840CFE700000000CC
:10032000C4000024DCA700082DE9F0032DED068BA6
:1003300084B08DED000A009E10EE903AA6F5000004
:100340005900B0F1FE4FB0EE606A01F1FF32C448CF
:1003500080F08780824200F20581002006F1404350
:10036000C04ABFEE002B03F54D03C3F3C341DB0DC1
:1003700002EB0111DB0592ED484B92ED443BF61A7E
:1003800091ED00AB91ED029B92ED465B92ED408BBF
:10039000DB1592ED427B06EE906A00EE103AB7EE66
:1003A000E61AB8EEC00BAAEE012B30EE090BA2EE56
:1003B000035BA2EE040B22EE023BA2EE087B23EECF
:1003C000034BA3EE050BB7EEC66AA7EE040B20EEB7
:1003D000060B10EE901A00230027C1F3CF3248F22B
:1003E000BE069F4208BF964257D3B7EE007B9E4B96
:1003F00093ED406B30EE065B8DED005BDDE9006751
:1004000006F01F0193ED465B03EBC1019DED004B30
:10041000D1E900C134EE466B30EE466B93ED424BB2
:10042000A6EE057BB0EE470B16EB000893ED447B80
:1004300026EE065B002313EB0C044FEAC83242EBB6
:100440000105A6EE047BA7EE050B45EC174B20EE4D
:10045000070BB7EEC00B04B0BDEC068BBDE8F00394
:100460007047824200F2D5807200511E814200F234
:100470009580002E57DB0020B6F5000FBFF46EAF5D
:10048000DFED7A7A9DED007A67EE277A17EE906AB3
:1004900026F00046A6F1386660E79FED697BB4EE72
:1004A000C70BF1EE10FA15DC9FED677BB4EEC70BBE
:1004B000F1EE10FA21DD4FF04C5390B10393DDEDD6
:1004C000037ABFEE007A77EE677AF4EE477AF1EEC0
:1004D00010FA12D004B0BDEC068BBDE8F00300F0BA
:1004E000FDB90293DDED027AB7EE007A77EE877AF6
:1004F000F4EE477AF1EE10FAECD19FED557BB4EEB5
:10050000C70BF1EE10FA5CD99FED537BB4EEC70B2D
:10051000F1EE10FA7FF569AF04B0BDEC068BBDE8D3
:10052000F00300F0D5B9C3F3C7527E2A11DD962A35
:1005300059DCC2F19602012000FA02F2511E194262
:1005400007D112EA030018BF4FF4803026F00046AE
:1005500092E79DED000A04B0BDEC068BBDE8F00308
:1005600000F0D2B9002956D0B6F17E5F30D07600C7
:10057000B6F17F4F32D8B1F17F4F2FD1B6F1FE4F98
:100580004FD0B6F1FE4F6FEA030334BF00260126B9
:10059000DB0F9E4250D09FED360A5CE7DDED007A1E
:1005A000002E27EEA70A20DB0020002A3CD1002BDA
:1005B000BFF651AF04B0BDEC068BBDE8F00300F010
:1005C00093B904B0BDEC068BBDE8F00300F07AB936
:1005D00083F480035B0013F5000F22D9DDED007A70
:1005E00037EE860A37E70020B0E7C3F3C751A1F121
:1005F0007F001728D8D8C1F19600012101FA00F038
:10060000441E1C42D0D11840CFD0B1EE400A08465B
:10061000CBE70029ABD186F480035B0013F5000F14
:10062000DCD8B7EE000A16E7002BBFF614AFF7EEE2
:10063000007A87EE800A0EE726EE060A0BE700BF77
:1006400071D5D1FFFFFF5F40E2AAA3FFFFFF5F402C
:100650000000000000C062C00000000000A062C0F6
:10066000FEFFFFFE08A2000830A300080000004BB8
:100670000000000000000000F0B510EE104A220D4E
:10068000C2F30A03B3F57D7F83B0B7EEC06A1BD215
:1006900026EE065BB3F5667F70D326EE052B25EEBE
:1006A000021B774B93ED1A3B93ED187B93ED164BA2
:1006B000A5EE037BA2EE046BB0EE460BA7EE010B9A
:1006C000B7EEC00B03B0F0BD40F22E4293425FD8AC
:1006D0006B4991ED087B26EE077BBDEEC77B91ED64
:1006E0000A5B17EE103A03F500031B1613F0020F16
:1006F00007EE903A01F1700208BF0A46D807B8EE3B
:10070000E77BA7EE456BB0EE460B26EE067B1BD4CF
:1007100003F0030301EBC30393ED006B92ED165B53
:1007200020EE060B20EE076B92ED1A4BA6EE050BA2
:1007300027EE066B92ED185BA7EE045BA5EE060BA9
:10074000B7EEC00B03B0F0BD92ED0E4B27EE076B7A
:1007500027EE063B92ED0C0B92ED105BA7EE040B1F
:1007600092ED144BA6EE050B92ED126BA7EE046B07
:10077000A6EE030BB7EEC00B03B0F0BD12F4FF6F93
:10078000A0D1B7EEC55B00EE104A8DED015A99E796
:10079000B3F5FF6F50D23B4AC4F3836002EB800392
:1007A000C4F3160152F820501E6A186941F4000182
:1007B000C4F3C2539940A1FB066705FB01F33A4617
:1007C000E0FB0123111C43F100550020101A05F035
:1007D000404163EB010102F0CDF8AD0F2A4B9FEDD4
:1007E000267B05EBD47441EC160B14F0020FA3F139
:1007F000700208BF1346E90726EE077B27EE076B5A
:100800001FD404F0030402EBC40494ED005B93EDE9
:10081000164B27EE057B27EE065B93ED1A3BA5EE04
:10082000047B26EE055B93ED184BA6EE034BA4EE7E
:10083000057BB7EEC70B45E703B0BDE8F04000F01D
:1008400063B893ED0E3B26EE065B26EE052B93ED8B
:100850000C7B93ED104BA6EE037B93ED143BA5EEC2
:10086000047B93ED125BA6EE035BA5EE027BB7EE75
:10087000C70B27E7AFF30080182D4454FB21193C28
:10088000D8A4000878A4000848A5000810B52DEDEC
:10089000028BB0EE408A044600F052F8B0EE480AEF
:1008A000BDEC028B046010BD28B1F1EE407A27EE5A
:1008B000800A2220EAE7F0EE407A27EE800A222022
:1008C000E4E700BF9FED010AEEE700BF0000001063
:1008D0009FED010AE8E700BF0000201A9FED010A22
:1008E000E2E700BF000000709FED060AFFEE007A0D
:1008F000B7EE007A00284FF0220047FE277A87EEF5
:10090000800AC3E70000000070EE407AB4EE400AAF
:1009100087EEA77AF1EE10FAB0EE470A01D6212051
:10092000B4E7704710B5054C34B113460A4601468A
:10093000022000F073F910BD204610BD1D0C000808
:10094000014B1868704700BF0400002470B50D4EBD
:100950000D4D761BB61006D00024013455F8043B2B
:100960009847A642F9D1094E094D761B09F02AFF96
:10097000B61006D00024013455F8043B9847A6422F
:10098000F9D170BDDCA70008DCA70008F0A70008BB
:10099000DCA70008F0B4860746D0541E002A3CD0DD
:1009A000CAB2034602E014F1FF3436D303F8012B38
:1009B0009D07F8D1032C29D9CDB245EA05250F2C86
:1009C00045EA054533D9A4F11006360903F120079D
:1009D00007EB061703F1100242E9045542E90255FC
:1009E0001032BA42F8D1721C14F00C0F03EB021251
:1009F00004F00F0613D0331F23F003030433134412
:100A000042F8045B9342FBD106F003042CB1C9B257
:100A10001C4403F8011B9C42FBD1F0BC70473446D8
:100A20001346002CF3D1F8E714460346C2E71A46F2
:100A30002646E0E738B5124B1C68A26B05461AB192
:100A40000023C2E9045338BD182000F07DF90246A6
:100A5000A06378B1012000210A4B1360C2E90401B0
:100A60000B230948094993810023C2E90101C2E926
:100A7000045338BD064B0748422100F01FF900BF60
:100A8000040000240E33CDAB34126DE6ECDE05001D
:100A9000C8A60008E0A6000838B51A4B1C68A26B6F
:100AA00092B1146918495369184801FB04F100FB1D
:100AB0000313A4FB0045611C1D4445F1000323F012
:100AC0000040C2E9041338BD182000F03DF9024689
:100AD000A06388B101200021C2E904010A480C4C3E
:100AE0000C4B0D490D4D146053600B24034695606B
:100AF0009481C2E9041338BD094B0A484E2100F025
:100B0000DDF800BF040000242DF451582D7F954CD2
:100B10000E33CDAB34126DE62E7F954CECDE050026
:100B2000C8A60008E0A6000838B5124B1C68A26BE6
:100B300005461AB10023C2E9045338BD182000F05D
:100B400003F90246A06378B1012000210A4B13602B
:100B5000C2E904010B230948094993810023C2E932
:100B60000101C2E9045338BD064B0748402100F09B
:100B7000A5F800BF040000240E33CDAB34126DE69F
:100B8000ECDE0500C8A6000814A7000838B51A4B0B
:100B90001C68A26B92B1146918495369184801FB8B
:100BA00004F100FB0313A4FB0045611C1D4445F147
:100BB000000323F00040C2E9041338BD182000F000
:100BC000C3F80246A06388B101200021C2E90401F4
:100BD0000A480C4C0C4B0D490D4D146053600B240E
:100BE000034695609481C2E9041338BD094B0A4855
:100BF0004C2100F063F800BF040000242DF451588C
:100C00002D7F954C0E33CDAB34126DE62E7F954C77
:100C1000ECDE0500C8A6000814A700082DE9F8437B
:100C2000224C25680DB36C681F2C3BDC984691461E
:100C30000F46064688B1D5F8880028B3D0F80031B1
:100C400040F824900122A24000EB84011343022EBD
:100C5000C0F80031C1F8808010D0A31C01346C6052
:100C600045F823700020BDE8F883114E114D256032
:100C7000002ED8D03468C5F88840D4E7D0F80431C5
:100C80001A43C0F80421E8E70B4B5BB14FF48470C2
:100C900000F05AF830B100236C68C0E94033C5F861
:100CA0008800CDE74FF0FF30DDE700BF7002002481
:100CB000BCA50008E4010024490D000800B50A4C59
:100CC0002668054685B01C46F06852B1074B009176
:100CD000CDE9013206492B46224600F021F800F00A
:100CE00083FD044B1A46F2E70400002448A70008DD
:100CF00058A7000854A7000808B513460022FFF7BC
:100D0000DDFF00BF0CB400B583B004AB53F8042B77
:100D1000019300F027F903B05DF804EB02B07047CF
:100D20000EB410B583B005AB064C53F8042B0193F9
:100D30000146206800F016F903B0BDE8104003B08A
:100D4000704700BF04000024024B0146186800F001
:100D500061B800BF04000024024B0146186800F08F
:100D600003B800BF0400002400293CD038B551F876
:100D7000043C0C1F002BB8BFE418054601F0BAFA7A
:100D8000234B1A682AB1A2420DD921686018824209
:100D900023D0626028461C60BDE8384001F0ACBA40
:100DA000A34203D81A465368002BF9D11168501892
:100DB000A04219D024D821686018834206D063600D
:100DC00054602846BDE8384001F096BAD3E90003E4
:100DD0000144636021605460F3E7D2E900020144FA
:100DE00062602160D6E77047206801445018834252
:100DF0001160E6D1D3E90003014453601160E0E7DC
:100E00000C232B602846BDE8384001F075BA00BFBE
:100E100074020024F8B5CD1C25F0030508350C2D0F
:100E200038BF0C25002D064633DBA94231D82A4FA6
:100E300001F060FA3A6852B113685B1B04D43FE0DA
:100E400023685B1B29D522465468002CF8D17968A9
:100E500000293BD02946304600F0D4FB431C28D063
:100E6000C41C24F00304A04205D0211A304600F02F
:100E7000C9FB01301DD02560304601F03DFA04F178
:100E80000B0020F00700231DC21A01D01B1AA3502B
:100E9000F8BD0C2232600020F8BD0B2B05D8A24211
:100EA000636811D05360E7E7144623601C44256053
:100EB000E2E70C233046336001F01EFA0020F8BD53
:100EC0000B2BF1D8536814463B60D5E7304600F051
:100ED00099FB7860BEE700BF740200249368013B71
:100EE000002B936011DA10B49469A34209DB0A293C
:100EF00007D01368581C1060197008465DF8044B41
:100F000070475DF8044B00F08FBB1368581C1060ED
:100F100019700846704700BF9BB1F8B513440F46DF
:100F200006465D1E541E01E0AC4208D03A4614F855
:100F3000011F3046FFF7D2FF431CF5D1F8BD00205A
:100F4000F8BD0020704700BF936810B5144613B970
:100F50005360184610BD00F02FFE0023C4E9013392
:100F600010BD00BF2DE9F04F9FB08B4690461C4648
:100F7000039018B18369002B00F0B780A24B9B450A
:100F800000F0B980A14B9B4500F0C780A04B9B456A
:100F900004BF039BD3F80CB0BBF80C30180740F12A
:100FA000B280DBF81030002B00F0AD8030238DF8DC
:100FB000323098F800300594002120220B918DF8F2
:100FC0003120944E0127002B00F08780252B00F064
:100FD0001581454603E0252B00F0A38025466B785C
:100FE0006C1C002BF7D1B4EB080A76D0424653466E
:100FF00059460398FFF790FF01306ED00B9B6A783B
:1010000053440B93002A68D000234FF0FF32013481
:101010000693CDE908338DF85B301C93079205E009
:10102000069A07FA03F313432C4606932546052236
:1010300015F8011B304601F00BF8AA46831B002867
:10104000EED1069BD90644BF20228DF85B20217883
:101050001A0744BF2B228DF85B202A2966D1059AF6
:101060001168043200290592C0F29D8009916178CF
:10107000A51C2E2973D0684C0322204600F0E8FFFF
:10108000002800F08680001B069B402404FA00F034
:101090000343069305F10108297860488DF8301064
:1010A000062200F0D5FF002800F083805C4B002B67
:1010B00072D005AB00935A465A4B039806A9AFF37A
:1010C00000808146B9F1FF3F07D00B9B4B440B9347
:1010D00098F80030002B7FF479AFBBF80C305B063A
:1010E00018D40B981FB0BDE8F08F00F045FD464BBB
:1010F0009B457FF447AF039BD3F804B0BBF80C309B
:1011000018073FF54EAF5946039800F0EDFA002856
:101110003FF44CAF4FF0FF30E4E7039BD3F808B047
:101120003AE7B4EB080A3FF46FAF5FE7A1F1300292
:10113000092A88BFA2469CD8099B01E02C460135AC
:10114000297803EB830302EB4303A1F13002092A60
:10115000AA46F3D92E2904F1020509938BD19AF8F6
:1011600001102A292FD1059B9AF802101A680792BC
:101170000433002A05930AF103050AF1020338DB60
:10118000254C032220469A4600F062FF00287FF497
:101190007AAFA84655467FE7059B073323F0070340
:1011A0000833059391E7494243F0020309910693FE
:1011B0005DE705AB00935A461A4B039806A900F069
:1011C000D5F881467EE7A1F130020023092A079372
:1011D00001D915E05546697803EB830302EB43031D
:1011E000A1F13002092A05F1010AF3D9023507936A
:1011F00041E74FF0FF329A4607923CE7444603E747
:10120000AA46013537E700BF00A60008E0A50008A0
:10121000C0A5000888A7000890A7000894A70008A8
:1012200000000000190F000810B4044C13460A46D1
:10123000014620685DF8044BFFF794BE04000024CB
:101240002DE9F0470C4691460A698968DDF820804F
:101250008A42B8BF0A46C9F8002094F843100646EF
:101260001F4611B10132C9F80020236899065CD5E8
:10127000D9F800200232C9F80020236813F0060FC5
:1012800019461DD1E1688A1A002AD8BF194617DD10
:1012900004F1190A002505E0E368D9F800209B1A3B
:1012A000AB420CDD0123524639463046C04701307F
:1012B00005F10105F0D14FF0FF30BDE8F08721685E
:1012C00094F84330003318BF01238A060AD5E11889
:1012D0005A1C302081F84300224494F8451082F8CB
:1012E0004310023304F1430239463046C04701300F
:1012F000E1D02368A268216903F00603042B1DD006
:101300008A4226DD4FF00009521A91441A34002512
:1013100001E04D451DDA0123224639463046C047DB
:10132000013005F10105F4D1C5E713F0060F13D024
:1013300094F84330003318BF0123D3E7D9F80000F5
:10134000E3688A42A3EB000323EAE379DCDC002BA9
:10135000DCDC0020BDE8F087E168D9F800208A1ABB
:10136000002AD8BF194693DCAAE700BF2DE9F04355
:101370000C46097E85B06E29064617460C9898469D
:1013800004F1430E6DD039D9732900F0F68044D9A9
:10139000752900F00481782940F0118178232268B2
:1013A000DFF858C284F845300168150651F8043B4F
:1013B000016040F1A180D10744BF42F020022260C9
:1013C000002B00F093801022002184F84310606805
:1013D000A0600028C0F2C880216821F004012160CB
:1013E000002B40F0A380002840F0C0807546082AFA
:1013F00000F0AC80AEEB0503236141E0632900F00F
:10140000E5801AD8002938D0582940F0D88084F8CF
:1014100045102268DFF8E8C1C6E76F2900F0BF80F9
:10142000702940F0CC802268DFF8D0C142F0200261
:101430007823226084F84530B6E7642902D0692910
:1014400040F0BD8022680368110603F1040557D5FA
:10145000196805600B46002959DBDFF8A4C10A2290
:10146000B5E70368226861691D1D056015061B68E4
:1014700002D4500600F1BD80196000237546236137
:10148000CDF800803B4603AA21463046FFF7D8FE40
:10149000013020D02A46236939463046C047013002
:1014A00019D022680398E368920719D51A1A002AFE
:1014B00016DD04F11909002504E0E36803981A1AFF
:1014C000AA420DDD01234A4639463046C047013065
:1014D00005F10105F1D14FF0FF3005B0BDE8F08313
:1014E0009842B8BF184605B0BDE8F083226822F0E4
:1014F00020022260102267E7500648BF9BB25AE7DD
:101500005106A5D5B3F9003005601946A3E7616817
:10151000A1602D200029C3F1000384F8430002DB01
:1015200022F004022260DFF8D8C00A22754600E0EB
:101530000B46B3FBF2F102FB113093421CF80000A2
:1015400005F8010DF4D2082A7FF454AF2368DB07B5
:101550007FF550AF626823699A423FF74BAF302363
:1015600005F8013C013D45E7002BDFD19CF8003038
:1015700084F8423004F1420539E703686268191DB6
:1015800001601D680021284600F062FD002832D06D
:10159000401B60602061002384F8433070E72268BC
:1015A000036812F0800F03F104051AD01B68056070
:1015B0006F290CBF08220A22DFF844C004E7012388
:1015C00084F84210236104F14205E4E703681A68D5
:1015D000191D0123016004F1420584F842202361B2
:1015E000D9E712F0400F0DBF1B6805601B8805602E
:1015F000DEE7198041E76068CCE700BFB0A70008CC
:101600009CA7000838B5074C002305460846236010
:1016100001F016FA431C00D038BD2368002BFBD024
:101620002B6038BDE40E0024F8B50D46144606467E
:1016300008B1836943B3254B9C422AD0244B9C427A
:1016400029D0244B9C4208BFF468A389A269A260F8
:101650001A0722D5236903B322686169D31AEDB250
:1016600099422F4629DD0133A168501C0139A16040
:101670002060157062699A4216D0A389DB0701D5F4
:101680000A2D11D03846F8BD00F076FA0F4B9C4277
:10169000D4D17468D9E7B468D7E72146304600F062
:1016A00023F838B92369D7E72146304600F03AF9E4
:1016B0000028E7D04FF0FF37E4E72146304600F03E
:1016C00031F90028F6D122680123CDE700A60008F1
:1016D000E0A50008C0A50008024B0A4601461868AC
:1016E000FFF7A2BF040000243B4B70B51D680646FF
:1016F0000C460DB1AB69DBB1384B9C421ED0384B68
:101700009C424AD0374B9C4208BFEC68B4F90C208D
:1017100093B2190718D5206908B313F001022CD031
:10172000636900225B42A361A26060B3002070BDC8
:10173000284600F021FA294B9C42E0D16C68B4F9AC
:101740000C2093B21907E6D4DD063CD5580726D401
:10175000206942F00803A3819BB20028DDD103F485
:101760002072B2F5007FD8D03046214600F026FC2A
:10177000A389206913F00102D2D1990758BF626989
:10178000A2600028D2D1B4F90C301A06CFD543F0AC
:101790004003A3814FF0FF3070BDAC68B6E7616BCA
:1017A00051B104F14403994204D03046FFF7DCFA0A
:1017B000B4F90C200023636300232069636022F0E6
:1017C00024022060C5E742F04002092333604FF055
:1017D000FF30A28170BD00BF0400002400A60008F5
:1017E000E0A50008C0A5000808B5062000F032FEFC
:1017F000012001F03BF900BF8B891A072DE9F04168
:101800000C46804641D44A68002A59DDE66A002E1B
:1018100053D00022D8F80050216AC8F8002013F4F1
:10182000805251D101234046B047431C5FD0A38969
:10183000E66A216A5F0705D56268636B801A0BB19F
:10184000236CC01A024600234046B047461C45D1CF
:10185000D8F80030B4F90C20002B55D01D2B01D046
:10186000162B5AD123690022C4E90032616BC8F8F3
:10187000005011B304F14403994202D04046FFF7EF
:1018800073FA00206063BDE8F0810E69AEB10D68A7
:101890000E6099070CBF63690023AD1BA3600AE0CB
:1018A0002B463246A76A216A4046B8470028A5EB76
:1018B000000506440ADD002DF2DC0020BDE8F081C1
:1018C0000A6C002AA2DCF8E7606DB3E7A38943F055
:1018D0004003A3814FF0FF30BDE8F0812269A38966
:1018E000226000226260DA04C0D56065BEE7D8F8E5
:1018F0000030002B9BD01D2B0CD0162B0AD0A389B7
:1019000043F04003A381D9E72169C4E90013D3045C
:10191000ACD5EAE7C8F80050CFE742F04002A28118
:10192000CCE700BF0B6923B310B5044682B008B101
:101930008369BBB1104B994212D0104B994216D01B
:101940000F4B994208BFE168B1F90C302BB120462A
:1019500002B0BDE81040FFF74FBF002002B010BD3D
:101960006168F1E7019100F007F90199E2E7A168E8
:10197000EAE70020704700BF00A60008E0A50008C5
:10198000C0A5000820B1054B01461868FFF7CABF83
:10199000034B0449186800F0B9BA00BF04000024E2
:1019A000B8A500082519000800207047014900F07B
:1019B000ADBA00BF251900080020704770B54A1E57
:1019C000682505FB02F50E4605F17401FFF722FAC2
:1019D000044640B100210C30666005F168022160C8
:1019E000A060FEF7D7FF204670BD00BF1E4B70B54C
:1019F0001D68AB69064643B34835D5E90134013B60
:101A000005D51EE0013B5A1C04F1680419D0B4F955
:101A10000C20002AF6D10025144B6566C4E9005558
:101A2000A560C4E90455A5612946E360082204F1D4
:101A30005C00FEF7AFFFC4E90D55C4E9125520461E
:101A400070BD2C682CB12546D7E7284600F010F869
:101A5000D2E704213046FFF7B1FF04462860002892
:101A6000F1D10C233360EAE7B8A500080100FFFFBD
:101A70002DE9F84F334B34491A68816290424FF098
:101A80000003C0E91233036504BF012383610546E7
:101A9000FFF7ACFF68602846FFF7A8FFA86028465C
:101AA000FFF7A4FF6E68E86000240423F360746607
:101AB000C6E90044B460C6E90444B461214606F1B5
:101AC0005C000822FEF766FFDFF888B0AF68DFF839
:101AD00088A0DFF88890DFF888801C4BC6F830803B
:101AE000C6E9086BC6E90AA92146FB6008227C66A4
:101AF000C7E90044BC60C7E90444BC6107F15C006D
:101B0000FEF748FFEE68124BC7F83080C7E9087B44
:101B1000C7E90AA92146F3607466C6E90044B460C7
:101B2000C6E90444B46106F15C000822FEF732FF06
:101B30000123C6E9086BC6E90AA9C6F83080AB6183
:101B4000BDE8F88FB8A50008AD190008090001002C
:101B500012000200C5240008ED2400082D2500080D
:101B60004D250008024B0349186800F0CFB900BFAB
:101B7000B8A5000825190008836903B978E77047FC
:101B8000704700BF704700BF704700BF704700BF7D
:101B9000024B0349186800F093B900BF0400002409
:101BA000A9190008024B0349186800F089B900BF61
:101BB00004000024B91900089368002B00F002818A
:101BC0002DE9F04FB1F90C309BB20C46190783B0E8
:101BD0008246904635D522699AB313F00202D8F8AE
:101BE00000603DD00027D4F828B0D4F820C0DFF83A
:101BF000CC923D464D452B463A4628BF4B46614662
:101C00005046D5B1D847002840F3D280D8F80830E4
:101C10001B1A07442D1AC8F80830002B00F0B780B3
:101C2000D4F820C0D4F828B04D452B463A4628BFFA
:101C30004B4661465046002DE4D1D6E90075083682
:101C4000D8E721465046FFF74FFD002840F030818D
:101C5000B4F90C30D8F800609BB213F00202C1D185
:101C600013F0010940F0B080A76820684D46002DB0
:101C700054D09A0540F1BC80AF42BB4600F2E780E9
:101C800013F4906F2FD0D4E9041707EB4707A0EBAC
:101C9000010B07EBD777681C7F105844B8423A46CF
:101CA00084BF07463A465B0540F1E980114650463D
:101CB000FFF7B0F8002800F0F5805A46216901903E
:101CC00000F016FAA289019B22F4906242F0800291
:101CD000A281A7EB0B0203EB0B006761236120607D
:101CE000A2602F46AB465A46494600F09BFAA268CE
:101CF0002368D21B5B442F46A26023600025D8F8DE
:101D00000830DB1BB944C8F80830002B3FD0B4F9C9
:101D10000C30A76820689BB2002DAAD1D6E90095A7
:101D20000836A4E70BF1080353E902679B46083322
:101D3000002FF9D03A460A21304600F089F90028F0
:101D400053D00130A0EB06094B46D4E904122068B9
:101D5000BB4228BF3B46884203D9A5681544AB4225
:101D600019DC9A427DDC1346A56A216A3246504648
:101D7000A847051E1CDDB9EB05096BD00120D8F87A
:101D800008305B1B2E447F1BC8F8083013BB0020B3
:101D900003B0BDE8F08F31462A4600F043FA2368CD
:101DA0002B44236021465046FFF7BCFD0028E2D0BB
:101DB000B4F90C3043F040034FF0FF30A38103B07F
:101DC000BDE8F08F00207047334691461046174615
:101DD0004E469B46002FA5D00028B5D13A460A2191
:101DE000304600F035F90028ABD17B1C9946ACE7B2
:101DF0002369834215D36169A94212D82E4BA76A81
:101E00009D4294BF2B466FF000434A4693FBF1F38B
:101E1000504601FB03F3216AB847071EC8DDED1BDE
:101E20006DE7AF4228BF2F463A46494600F0FAF91F
:101E3000A3682268DB1B3A44A3602260002BEED12A
:101E400021465046FFF76EFD0028E8D0B0E72F4648
:101E5000AB4648E721465046FFF764FD00288ED088
:101E6000A6E71A463146019300F0DCF9019BA16810
:101E70002268C91A1A44A16022601D467BE75046B9
:101E800000F03CFA034600287FF423AF2169504656
:101E9000FEF76AFFB4F90C300C2223F08003CAF875
:101EA000002087E70C23CAF80030B4F90C3081E732
:101EB0004FF0FF306CE700BFFEFFFF7F00FCFF7FAD
:101EC0002DE9F04110F148071BD088460026D7E9DC
:101ED0000154013D0FD4A389012B05F1FF3506D92B
:101EE000B4F90E300133204601D0C04706436B1CC5
:101EF00004F16804EFD13F68002FE8D13046BDE817
:101F0000F0813E463046BDE8F08100BF2DE9F84340
:101F100010F148071FD0884606464FF00009D7E960
:101F20000154013D11D4A389012B05F1FF3508D9D6
:101F3000B4F90E3001332146304602D0C04749EA99
:101F400000096B1C04F16804EDD13F68002FE6D155
:101F50004846BDE8F883B9464846BDE8F88300BF67
:101F600070B50C46B1F90E10002996B016461D4604
:101F700013DB6A4600F016FB00280EDB019A02F420
:101F80007042A2F50052B2FA82F252094FF4806315
:101F900000202A60336016B070BDA38900221B06A2
:101FA0002A6004D540230020336016B070BD4FF482
:101FB00080630020336016B070BD00BF8A8992072D
:101FC0000B4606D501F1470201211A60C3E904213D
:101FD000704770B582B001AB6A460C460646FFF703
:101FE000BFFF009905463046FEF714FFB4F90C30E8
:101FF00070B11649B162019A0099206043F08003E4
:10200000A381C4E904018AB92B43A38102B070BD46
:102010009A05FBD423F0030304F1470243F00203C3
:102020000121A3812260C4E90421EFE73046B4F91D
:102030000E1000F0CBFA10B9B4F90C30E4E7A38924
:1020400023F0030343F001031BB2DDE7AD190008E1
:1020500001F0FF01102A2BDB10F0070F08D010F859
:10206000013B013A8B422DD010F0070F42B3F6D15D
:10207000F0B441EA012141EA014122F007047FF076
:1020800000070023F0E80256083C85EA010586EACD
:10209000010685FA47F5A3FA87F586FA47F6A5FA09
:1020A00087F68EB9EED1F0BC01F0FF0102F0070215
:1020B00032B110F8013B013A83EA010313B1F8D1C0
:1020C0000020704701387047002D06BF35460338A1
:1020D000073815F0010F07D1013015F4807F02BFDA
:1020E000013015F4C03F0130F0BC0138704700BF2B
:1020F000844641EA000313F003036DD1403A41D313
:1021000051F8043B40F8043B51F8043B40F8043BD1
:1021100051F8043B40F8043B51F8043B40F8043BC1
:1021200051F8043B40F8043B51F8043B40F8043BB1
:1021300051F8043B40F8043B51F8043B40F8043BA1
:1021400051F8043B40F8043B51F8043B40F8043B91
:1021500051F8043B40F8043B51F8043B40F8043B81
:1021600051F8043B40F8043B51F8043B40F8043B71
:1021700051F8043B40F8043B51F8043B40F8043B61
:10218000403ABDD2303211D351F8043B40F8043B01
:1021900051F8043B40F8043B51F8043B40F8043B41
:1021A00051F8043B40F8043B103AEDD20C3205D311
:1021B00051F8043B40F8043B043AF9D2043208D009
:1021C000D2071CBF11F8013B00F8013B01D30B887B
:1021D00003806046704700BF082A13D38B078DD059
:1021E00010F003038AD0C3F10403D21ADB071CBF2B
:1021F00011F8013B00F8013B80D331F8023B20F895
:10220000023B7BE7043AD9D3013A11F8013B00F8CD
:10221000013BF9D20B7803704B7843708B78837055
:10222000604670478842F0B40DD98B1883420AD9B2
:10223000841832B1224613F8014D02F8014D99423B
:10224000F9D1F0BC70470F2A0ED80346541E002A5D
:10225000F7D001340C44013B11F8012B03F8012F96
:10226000A142F9D1F0BC704740EA01039B073BD182
:10227000A2F110073F0901F1200606EB071601F154
:10228000100300F1100453F8105C44F8105C53F88C
:102290000C5C44F80C5C53F8085C44F8085C53F898
:1022A000045C44F8045C1033B34204F11004EAD136
:1022B0007B1C1B0112F00C0F194402F00F050344A4
:1022C00015D0043DAD0803EB850C1C1F0E4656F8D7
:1022D000047B44F8047F6445F9D10135AD002B44FB
:1022E000294402F00302B1E7541E0346B1E72A462F
:1022F000ACE700BF704700BF704700BF09B3F8B537
:102300001446CAB106460D4600F088F9A04202D331
:102310002F463846F8BD21463046FEF77BFD07467E
:102320000028F6D022462946FFF7E2FE304629462D
:10233000FEF71AFD3846F8BD2746FEF715FD38466C
:10234000F8BD1146FEF766BD10B580210446FEF7C4
:1023500061FD606440B1031F00227C3043F8042F0C
:102360008342FBD1002010BD4FF0FF3010BD00BFF5
:10237000436C0BB100207047E6E700BF1F2970B522
:10238000054608D8436C16460C464BB153F824005A
:1023900043F8246070BD162202604FF0FF3070BD1C
:1023A000FFF7D2FF08B96B6CF0E74FF0FF3070BD5C
:1023B0001F2938B521D8426C05460C466AB152F83F
:1023C000213053B1012B16D0591C10D000252046C6
:1023D00042F824509847284638BD284600F070F847
:1023E000224601462846BDE8384000F055B816237D
:1023F0000360012038BD002038BD162303604FF074
:10240000FF3038BD1F2921D838B5436C05460C462E
:1024100083B153F8242003EB84034AB1511C10D03C
:10242000012A0CD0002520461D609047284638BD63
:10243000012038BDFFF788FF28B96B6CE9E703205E
:1024400038BD022038BD4FF0FF3038BD4FF0FF30AF
:10245000704700BF024B01461868FFF7A9BF00BFD5
:1024600004000024024B0A4601461868FFF786BFA5
:1024700004000024034B1868436C0BB10020704724
:1024800062E700BF04000024024B01461868FFF712
:10249000B9BF00BF0400002438B50B46074C054601
:1024A000114618460023236000F0B2FA431C00D006
:1024B00038BD2368002BFBD02B6038BDE40E002410
:1024C00000F096BA10B50C46B1F90E1000F0AEF857
:1024D000002803DB636D0344636510BDA38923F407
:1024E0008053A38110BD00BF002070472DE9F0414B
:1024F0001646B1F90C201F46D3050C460546B1F926
:102500000E1009D422F48052A2813B46324628465E
:10251000BDE8F04100F01EB80022022300F068F888
:10252000B4F90C20B4F90E10ECE700BF10B50C465E
:10253000B1F90E1000F05CF8A389421C0EBF23F421
:10254000805343F480536065A38110BDB1F90E1030
:1025500000F016B870B50D46084C114606461A46EE
:1025600028460023236000F079FA431C00D070BD98
:102570002368002BFBD0336070BD00BFE40E002445
:1025800038B5074C002305460846236000F020FAC2
:10259000431C00D038BD2368002BFBD02B6038BD16
:1025A000E40E002438B50B46074C05461146184684
:1025B0000023236000F014FA431C00D038BD2368C8
:1025C000002BFBD02B6038BDE40E002438B5074C3F
:1025D000002305460846236000F012FA431C00D091
:1025E00038BD2368002BFBD02B6038BDE40E0024DF
:1025F00070B50D46084C114606461A46284600237B
:10260000236000F00DFA431C00D070BD2368002B3E
:10261000FBD0336070BD00BFE40E002451F8043CD1
:10262000181F002BBCBF0B58C018704770B50D4663
:10263000084C114606461A4628460023236000F03F
:10264000F7F9431C00D070BD2368002BFBD033602A
:1026500070BD00BFE40E002481F0004102E000BF25
:1026600083F0004330B54FEA41044FEA430594EA52
:10267000050F08BF90EA020F1FBF54EA000C55EA8D
:10268000020C7FEA645C7FEA655C00F0E2804FEA5E
:102690005454D4EB5555B8BF6D420CDD2C4480EA40
:1026A000020281EA030382EA000083EA010180EA70
:1026B000020281EA0303362D88BF30BD11F0004FBE
:1026C0004FEA01314FF4801C4CEA113102D04042F4
:1026D00061EB410113F0004F4FEA03334CEA13332F
:1026E00002D0524263EB430394EA050F00F0A78047
:1026F000A4F10104D5F1200E0DDB02FA0EFC22FA42
:1027000005F2801841F1000103FA0EF2801843FA35
:1027100005F359410EE0A5F120050EF1200E012A26
:1027200003FA0EFC28BF4CF0020C43FA05F3C01864
:1027300051EBE37101F0004507D54FF0000EDCF1DD
:10274000000C7EEB00006EEB0101B1F5801F1BD386
:10275000B1F5001F0CD349085FEA30004FEA3C0C8A
:1027600004F101044FEA445212F5800F80F09A8080
:10277000BCF1004F08BF5FEA500C50F1000041EB84
:10278000045141EA050130BD5FEA4C0C404141EB88
:102790000101013C28BFB1F5801FE9D291F0000F83
:1027A00004BF01460020B1FA81F308BF2033A3F132
:1027B0000B03B3F120020CDA0C3208DD02F1140C29
:1027C000C2F10C0201FA0CF021FA02F10CE002F164
:1027D0001402D8BFC2F1200C01FA02F120FA0CFC5D
:1027E000DCBF41EA0C019040E41AA2BF01EB0451A6
:1027F000294330BD6FEA04041F3C1CDA0C340EDCA4
:1028000004F11404C4F1200220FA04F001FA02F3E6
:1028100040EA030021FA04F345EA030130BDC4F1A4
:102820000C04C4F1200220FA02F001FA04F340EA99
:102830000300294630BD21FA04F0294630BD94F04A
:10284000000F83F4801306BF81F480110134013D31
:102850004EE77FEA645C18BF7FEA655C29D094EAA2
:10286000050F08BF90EA020F05D054EA000C04BF20
:102870001946104630BD91EA030F1EBF002100200B
:1028800030BD5FEA545C05D14000494128BF41F0AA
:10289000004130BD14F580043CBF01F5801130BD0E
:1028A00001F0004545F0FE4141F470014FF0000099
:1028B00030BD7FEA645C1ABF194610467FEA655C4A
:1028C0001CBF0B46024650EA013406BF52EA0335EC
:1028D00091EA030F41F4002130BD00BF90F0000FDA
:1028E00004BF0021704730B54FF4806404F1320416
:1028F0004FF000054FF0000150E700BF90F0000FCF
:1029000004BF0021704730B54FF4806404F13204F5
:1029100010F0004548BF40424FF000013EE700BFC5
:1029200042004FEAE2014FEA31014FEA02701FBF55
:1029300012F07F4393F07F4F81F06051704732F087
:102940007F4208BF704793F07F4F04BF41F40021DE
:10295000704730B54FF4607401F0004521F000413C
:102960001CE700BF50EA010208BF704730B54FF0C6
:1029700000050AE050EA010208BF704730B511F0C7
:10298000004502D5404261EB41014FF4806404F1FF
:1029900032045FEA915C3FF4D8AE4FF003025FEA85
:1029A000DC0C18BF03325FEADC0C18BF033202EB09
:1029B000DC02C2F1200300FA03FC20FA02F001FA63
:1029C00003FE40EA0E0021FA02F11444BDE600BF06
:1029D000024B58221A604FF0FF307047E40E00247B
:1029E000024B58221A604FF0FF307047E40E00246B
:1029F000024B58221A604FF0FF307047E40E00245B
:102A0000024B58221A600020704700BFE40E0024D9
:102A1000024B58221A604FF0FF307047E40E00243A
:102A2000024B58221A604FF0FF307047E40E00242A
:102A3000024B58221A604FF0FF307047E40E00241A
:102A4000044A05491368002B08BF0B461844106060
:102A5000184670477C020024E80E0024024B5822DE
:102A60001A604FF0FF307047E40E0024FEE700BF0D
:102A7000FEE700BF0D4B0E4A934206D00D4951F8B8
:102A8000040B43F8040B9342F9D10B4B0B4A9342CE
:102A900004D0002143F8041B9342FBD102F07AF9E1
:102AA000FDF754FF00F06EF8FEE700BF00000024C1
:102AB000C0000024F4A70008C0000024E80E002491
:102AC000704700BF704700BF704700BF002A4FD05B
:102AD0002DE9F0410E46904600242DED028B82B088
:102AE0000EE07368234803EB8405013406F0F8FF19
:102AF0003368A04585ED000A3B4483ED000A32D0DF
:102B00001D48A70007F058FB002814BF0121002131
:102B1000E7D00191FEF73AF807EE900A9FED178A89
:102B20001448B8EEE70A20EE080A06F0C5FFFEF7E3
:102B30002DF800EE100A0F48B8EEC00A20EE080A81
:102B400006F0BEFFFEF722F807EE100ADFED0C7A62
:102B5000B8EEC70A074820EE270A20EE080A06F05A
:102B60009BFF0199BDE702B0BDEC028BBDE8F0818F
:102B7000704700BFBC020024CC04002400000030D9
:102B8000CDCC4C3F08B50F482DED028B00F046F838
:102B900000210C4800F0A2F80A4800F063F8B0EEFB
:102BA000408A0948B0EE000AF0EE480A07F0F2FA4F
:102BB0000648B0EE480A06F009FF0549014800F052
:102BC0004DF8FEE780020024CC040024BC0200245F
:102BD000CD2A000808B50A4800230A4A4361036267
:102BE000094907F003FB074A0849094807F0FEFABC
:102BF000044A08490848BDE8084007F0F7BA00BF92
:102C00008002002400000024C12A0008C52A000810
:102C1000BC020024C92A0008CC0400240B4A40F25C
:102C200007110B4B02604FF4877243600623C18487
:102C30004285037480F8293070B40224054E064D95
:102C400080F82540C0E9026570BC704700070500A8
:102C5000010508050905070506050A06143001F0F7
:102C600059B800BF143001F051B800BFF0B51A4D8B
:102C700091B000210446079505F100754FF44170AD
:102C8000002201230326012705F5407506910291D4
:102C900006A9ADF8240002A808953025CDE90C233B
:102CA000CDE90E23CDE90A6701F0AEFD40F6013310
:102CB0004FF07E56ADF80430019800F04DF8032334
:102CC000029A03A904F114000596CDE9035300F01C
:102CD000E5FF11B0F0BD00BF0402040430B50446A6
:102CE0002DED028B83B089B3012240F201130092D3
:102CF000ADF80430694604F1300001F0B3FF20461E
:102D000000F04CF8E01C01F01DF904F1250001F081
:102D10002BF804F1140504F1290001F025F82046F0
:102D2000FFF7A4FF284600F0F1FF2846B0EE408AE6
:102D300000F0E8FFD0ED007AF8EE677A88EE277AA7
:102D400084ED0E7A03B0BDEC028B30BD40F201136E
:102D50000091ADF80430CDE710B584B003460124EE
:102D6000ADF8040003A8ADF80C30ADF80E4000F04B
:102D7000FBFF214603A801F0D3F8204601F08CFEAA
:102D800003A8002101F0CCF8204601F085FE214681
:102D900003A801F0C5F804B010BD00BF2DE9F04351
:102DA000444C8BB0A063037823B1002528460BB0B8
:102DB000BDE8F083404A0A2300260127626008220A
:102DC0000893202302A9201DC4E90267C4E9042353
:102DD00040264FF4C07700224FF40063C4E9066731
:102DE000C4E908234FF48056002702220723C4E9D0
:102DF0000A67CDE902230426032200230827CDE930
:102E00000623CDE9046706F059F9054600284CD1A0
:102E10004FF001084FF010090126002702A94FF4D6
:102E200080520190201DCDE902894FF002084FF039
:102E30001009CDE9046706F06BF9642002F062F82E
:102E400002A94FF48052201DCDE90467CDE9028923
:102E500004264FF003084FF01009002706F058F938
:102E600002A94FF48052201DCDE90467CDE9028903
:102E700006F04EF940F232234FF0010C0426019384
:102E80001027019B02A94FF48052201DCDE904C3F5
:102E9000CDE9026706F03CF9201D40F6060106F078
:102EA00057F928460BB0BDE8F083012528460BB042
:102EB000BDE8F083E004002440410052694A2DE956
:102EC000F04315688FB015B10FB0BDE8F083664BC5
:102ED00001210C24002611600327D3F8D4204FF6DB
:102EE00083784FF0020908A942F480525F48C3F882
:102EF000D420D3F8D42002F480520092009AD3F860
:102F0000E02042F01002C3F8E020D3F8E02002F005
:102F100010020192019AD3F8E02042F04002C3F877
:102F2000E020D3F8E02002F040020292029AD3F8A7
:102F3000E02042F00802C3F8E020D3F8E02002F0DD
:102F400008020392039AD3F8E02042F48072C3F897
:102F5000E020D3F8E02002F480720492049AD3F8BF
:102F6000E02042F08002C3F8E020D3F8E02002F035
:102F700080020592059AD3F8E02042F02002C3F8BF
:102F8000E020D3F8E02002F020020692069AD3F85F
:102F9000E02042F00402C3F8E020D3F8E0300C94C3
:102FA00003F004030793079BCDE90A67CDE908897D
:102FB00002F0D2FF48F23712022308A92C480C94E1
:102FC000DFF8C080CDE90A67CDE9082302F0C4FF2D
:102FD0004CF20372022308A926480C94CDE90A6733
:102FE000CDE9082302F0B8FF40F2FF62022308A9EE
:102FF00021480C94CDE90A67CDE9082302F0ACFF23
:103000004FF60C72022308A91C480C94CDE90A67FC
:10301000CDE9082302F0A0FF4FF63F02022308A9E2
:1030200017480C94CDE90823CDE90A6702F094FF14
:10303000D8F83800013001F0EDFED8F838300646F7
:10304000581C01F0EFFE02220746032308A9304670
:103050000C9408970B93CDE9092502F07DFF0FB082
:10306000BDE8F083DC04002400440258001002583C
:1030700000180258000C025800200258001C025888
:1030800000140258E00400242DE9F04FDFF82884F2
:1030900006460D46144608F114002DED028B89B04A
:1030A00000AF01F0A1FCD8F814305BB3D8F81830A9
:1030B0004269002B0BBF022304234FF008094FF095
:1030C0001009FB61D8F804304BB3A100E946012A8E
:1030D00001F1070121F00701ADEB010D6846ADEBF1
:1030E000010D694600F04281022A00F0DB80002ACF
:1030F00074D022469847CD462437BD46BDEC028B9E
:10310000BDE8F08FD8F81830002BF5D002234FF02F
:1031100008094269FB61D8F80430002BD5D1D8F8F2
:103120000030BA617B61002BE6D06B46DA4808EECE
:10313000103A01F0A1FC8646F869BA69022800F04D
:103140008E816B46C7F810903969A3EBC4039D4686
:103150006300E946B3FBF0F3A9EBC40CC7F8189081
:1031600009EB830AB869E546ADEB010D0CEB830171
:10317000EB46F9603969C7F810A00AEB830AADEB9A
:10318000010DCBF80000F9680AEB8300E94601EB7A
:103190008301CBF80C00386901EB8303C9F800C048
:1031A000CBE9010AF868C9E90213C9F80400012A49
:1031B00000F08283022A00F07C82002A00F08681DF
:1031C0006208494658467B69984718EE103A2437FA
:1031D0009D46BD46BDEC028BBDE8F08F002C88D02B
:1031E00098ED0B6A864606F1040CDFEDB66A36F9F7
:1031F00022A00EF1080E07EE10AA3CF922A002321E
:1032000007EE90AAB8EEC77A9442F8EEE77A27EE76
:10321000267A67EEA67A27EE067A67EE867A0EEDB4
:10322000027A4EED017AE2D8F961224698479B4E28
:10323000F9690020D8ED046A2B1D9FEDA37A9FED5C
:10324000986ADFED985A22E0F4EEC67AF1EE10FAB1
:10325000C0F2EF8447F6FE72D1ED017A45F82020E6
:1032600066EEA77AF4EEC77AF1EE10FA40F2F58036
:10327000F4EEC67AF1EE10FAC0F2FC8447F6FE7264
:1032800043F820200230083184427FF634AFD1ED7C
:10329000007A66EEA77AF4EEC77AF1EE10FAD3D888
:1032A0003246D9E7002C3FF424AF98ED0B6A8646EE
:1032B000002206F1040CDFED7C6A06EB820A0EF1B7
:1032C000080E9AED007A0CEB820A0232DAED007AEF
:1032D000B8EEC77A9442F8EEE77A27EE267A67EEE0
:1032E000A67A27EE067A67EE867A0EED027A4EED22
:1032F000017AE2D8F961224698476C4EF9690020BC
:10330000D8ED046A2B1D9FED707ADFF8B0C19FEDF8
:10331000646A20E0F4EEC67AF1EE10FAC0F2A284FC
:103320003246D1ED017A45F8202066EEA77AF4EE18
:10333000C77AF1EE10FA40F28E80F4EEC67AF1EE22
:1033400010FAC0F28784324643F820200230083158
:1033500084427FF6D0AED1ED007A66EEA77AF4EE25
:10336000C77AF1EE10FAD5D86246DAE7002C3FF4BE
:10337000C0AE06F1040CFD6198ED0B6A1D46834654
:1033800063464FF0000ADFED4A6AB4465CF82A2033
:103390000BF1080B53F82A600AF1020A82F40002CA
:1033A00086F4000E5445A2F5000207EE102AAEF591
:1033B000000207EE902AB8EEC77AF8EEE77A27EE19
:1033C000267A67EEA67A27EE067A67EE867A0BED06
:1033D000027A4BED017AD9D82B46FD692246F96174
:1033E0009847344EF9690020D8ED046A2B1D9FEDF3
:1033F000367ADFF8CCC09FED2A6A1FE0F4EEC67A79
:10340000F1EE10FAC0F21E843246D1ED017A45F891
:10341000202066EEA77AF4EEC77AF1EE10FA18D9FA
:10342000F4EEC67AF1EE10FAC0F2FB83324643F8AE
:1034300020200230083184427FF65DAED1ED007A63
:1034400066EEA77AF4EEC77AF1EE10FAD6D86246A5
:10345000DBE76246EBE7624676E7324610E7A30019
:103460006008073323F00703ADEB030DEC46ADEB2B
:10347000030DEA46ADEB090D0CEB8003C7F818C04D
:10348000EB46ADEB090D0AEB80003B61E946CBE969
:1034900000C3C9E900A08AE6340500240280FFFFCA
:1034A00004FF7F3F00FEFF46000000300082FF7FE8
:1034B0000000003482FF7F001C050024007E008095
:1034C0007E0080FF0000003804FF7FBF002C00F06A
:1034D000EC82F969D8F82030022900F01B8303EB55
:1034E0008E0ADBF80C104FEA8E03C7F800B006F125
:1034F000040C5FED0C5A7B60DBF80830D7F818E05D
:10350000FB600AF10403C7F818909B46D7F81090A7
:10351000B9603D613CF9221036F9223006EE901A6E
:103520003AF9221006EE103A98ED0B5A07EE101AEF
:10353000F8EEE66AB8EEC66A3BF92210B8EEC77A32
:10354000530807EE901A66EEA56A26EE256AF9681A
:1035500027EE257A09EB8300F8EEE77A0EEB830578
:1035600026EE056A01EB830127EE057A023266EE4C
:10357000856A67EEA57A85ED006A9442C0ED006A1F
:1035800081ED007A98ED0B7AB86867EE877A00EBE8
:103590008303C3ED007ABDD8D7F800B0D7F81890F0
:1035A0003D69620849467B6958469847D8F82830F3
:1035B00079680022D8ED046A1944D9F800E0D9F8F6
:1035C00004C02B1D01F104088A461FED417AC7F89B
:1035D0001880B14E9FEDB16ADFEDB15AD7F81C806B
:1035E00052E0F4EEC67AF1EE10FAC0F2DC8247F651
:1035F000FE7B0CEB010045F822B0D0ED007A66EEC0
:10360000A77AF4EEC77AF1EE10FA4CD9F4EEC67A46
:10361000F1EE10FAC0F2D08247F6FE70B8F1020F58
:1036200043F822002CD0D9F808000844D0ED007AE5
:1036300066EEA77AF4EEC77AF1EE10FA37D9F4EE17
:10364000C67AF1EE10FAC0F2E38247F6FE7BD9F8B3
:103650000C004AF822B00144D1ED007A66EEA77A58
:10366000F4EEC77AF1EE10FA1FD9F4EEC67AF1EE55
:1036700010FAC0F2C58247F6FE71B86940F8221010
:10368000023294427FF6A1AD51080EEB8100890011
:10369000D0ED007A66EEA77AF4EEC77AF1EE10FA72
:1036A0009FD8B346A5E73046B8E73146E5E7B346CD
:1036B000CDE7002C00F0F981FA69D8F82030022A11
:1036C00000F0FA8103EB8E0ADBF80830C7F800B08F
:1036D00006F1040CFB604FEA8E030AF10402DFEDF1
:1036E000715A7B60DBF80C309346D7F818E0BB606A
:1036F0000023C7F81890D7F810903D6156F82310B2
:103700005A0898ED0B5A07EE901A5CF8231009EB53
:103710008200B8EEE76A07EE901A5AF823100EEB13
:103720008205F8EEE76A07EE901A0BEB830126EEAE
:10373000256A0233B8EEE77AD1ED007A66EEA56A23
:10374000F968F8EEE77A9C4227EE257A01EB8201D0
:1037500026EE056A66EE856A27EE057A67EEA57A9B
:1037600085ED006AC0ED006A81ED007A98ED0B7A74
:10377000B86867EE877A00EB8202C2ED007ABDD8A6
:10378000D7F800B0D7F818903D6958466208494606
:103790007B699847D8F8283079680022D8ED046A08
:1037A00019442B1DD9F800C08B460431D9F8048088
:1037B000C7F814B09FED3F7AD7F81CB0DFF8ECE003
:1037C0009FED366A384EB961FB6150E0F4EEC67A7F
:1037D000F1EE10FAC0F20682304608EB010A45F815
:1037E0002200DAED007A66EEA77AF4EEC77AF1EEFF
:1037F00010FA4BD9F4EEC67AF1EE10FAC0F2F98164
:103800003046FB69BBF1020F43F822002BD0D9F8F8
:1038100008000844D0ED007A66EEA77AF4EEC77A85
:10382000F1EE10FA36D9F4EEC67AF1EE10FAC0F2E3
:10383000D2813046D9F80CA07B69514443F822006C
:10384000D1ED007A66EEA77AF4EEC77AF1EE10FABF
:103850001ED9F4EEC67AF1EE10FAC0F2B581314607
:10386000BB6943F82210023294427FF6AEAC510895
:103870000CEB81008900D0ED007A66EEA77AF4EEB9
:10388000C77AF1EE10FAA1D87046A6E77046B8E7FD
:103890007146E5E77046CDE70280FFFF04FF7F3FFA
:1038A00000FEFF46000000300082FF7F007E0080A7
:1038B0000000003404FF7FBF002C00F0F680D8F831
:1038C00020304FEA8E02BD60002103EB8E0E06F120
:1038D000040C1FED096A0EF104003D69D7F818A029
:1038E000FA60C7F8189056F821204FEA51095CF8A1
:1038F000213082F40002D8ED0B6A83F40003A2F5B4
:103900000002A3F5000307EE102A05EB890207EE7B
:10391000903A0AEB8903B8EEC77A4FEA8909F8EEC4
:10392000E77A27EE067A67EE867A27EE267A67EE42
:10393000A67A83ED007AFB69C2ED007A022B27D0CC
:103940005EF8212050F8213082F4000283F4000355
:10395000A2F50002A3F5000307EE902ADBF8082089
:10396000B8EEE77A07EE903A4A44DBF80C30F8EE0E
:10397000E77A27EE067A4B4467EE867A27EE267AB8
:1039800082ED007A98ED0B7A67EE877AC3ED007AC4
:1039900002318C42A7D8D7F81890584662087B6944
:1039A0004946BD689847D8F82830F9680022D8ED14
:1039B000046A19442B1DD9F800C08B460431D9F88C
:1039C0000480C7F814B01FED457AD7F81CB0DFF8B3
:1039D000C8E29FEDAD6AAD4EB961FB6150E0F4EE17
:1039E000C67AF1EE10FAC0F2C280304608EB010A46
:1039F00045F82200DAED007A66EEA77AF4EEC77A8F
:103A0000F1EE10FA4BD9F4EEC67AF1EE10FAC0F2EC
:103A1000BC803046FB69BBF1020F43F822002BD07B
:103A2000D9F808000844D0ED007A66EEA77AF4EEE3
:103A3000C77AF1EE10FA36D9F4EEC67AF1EE10FA42
:103A4000C0F2AA803046D9F80CA07B69514443F8F3
:103A50002200D1ED007A66EEA77AF4EEC77AF1EE95
:103A600010FA1ED9F4EEC67AF1EE10FAC0F2868092
:103A70003146BB6943F82210023294427FF6A5AB6F
:103A800051080CEB81008900D0ED007A66EEA77A30
:103A9000F4EEC77AF1EE10FAA1D87046A6E77046A8
:103AA000B8E77146E5E77046CDE7224649465846F5
:103AB0007B699847FFF789BB98ED0B6A002306F1F5
:103AC000040CDFED736AB869D7F810A006EB830227
:103AD0000CEB830192ED007A5A08D1ED007A0233A3
:103AE000B8EEC77A00EB8201F8EEE77A0AEB8202C1
:103AF0009C4227EE267A67EEA67A27EE067A67EED4
:103B0000867A81ED007AC2ED007ADFD84FEA8E0323
:103B10007B603AE698ED0B6A06F1040CDFED5D6A16
:103B2000B869D7F810A036F922303CF9221007EE18
:103B3000103A530807EE901A0232B8EEC77A00EB3B
:103B40008301F8EEE77A0AEB8303944227EE267AA4
:103B500067EEA67A27EE067A67EE867A81ED007A1E
:103B6000C3ED007ADFD84FEA8E037B6019E5F0EEF3
:103B7000675AFEEEE45A15EE900A37E7F0EE675A00
:103B8000FEEEE45A15EE901A73E7F0EE675AFEEE79
:103B9000E45A15EE900A3DE7F0EE675AFEEEE45A5D
:103BA00015EE900A4FE767EEA57AFDEEE77A17EE7D
:103BB000900A0FFA80FB1CE567EEA57AFDEEE77A26
:103BC00017EE900A00B229E5F0EE675AFEEEE05AD1
:103BD00015EE901A44E6F0EE675AFEEEE05A15EE46
:103BE000900A27E6F0EE675AFEEEE05A15EE900ACC
:103BF000F3E5F0EE675AFEEEE05A15EE900A00E6A5
:103C000067EEA57AFDEEE77A17EE901A09B234E571
:103C100067EEA57AFDEEE77A17EE900A0FFA80FBC1
:103C200015E5F0EE675AFEEEE45A15EE902AFFF71E
:103C3000FEBB67EEA57AFDEEE77A17EE902A12B288
:103C4000FFF70ABBF0EE675AFEEEE45A15EE902A33
:103C5000FFF7DBBBF0EE675AFEEEE05A15EE902A56
:103C6000FFF772BBF0EE675AFEEEE05A15EE902AAF
:103C7000FFF757BB67EEA57AFDEEE77A17EE902ABD
:103C800012B2FFF7FDBA00BF04FF7F3F82FF7F0043
:103C900000000030000000387E0080FF70B5164C38
:103CA000154684B0046004F1080601AB07C986E834
:103CB0000700D4ED047AF5EEC07A83E80700F1EE50
:103CC00010FA15DDF7EE006A86EEA77A84ED0B7A1E
:103CD00075B1204640F8145F00F086FE0346074A9F
:103CE00000201969064BE160E261636204B070BDB7
:103CF000012004B070BD00BF1C050024002000306E
:103D00000000003000680830704700BF00681430C1
:103D100000F0A0BE70B5046882B00D46A3694BB137
:103D2000A3680026A26A04F11800216A9B0000968D
:103D300000F05CFEA36804F11400064E626A9B006A
:103D4000E169009600F052FE0020C4E9005002B084
:103D500070BD00BF89300008024B0022C3E9052274
:103D6000704700BF1C05002430B583788FB004462F
:103D7000022B37D0032B33D0012B31D000230A93F1
:103D8000E378012B2AD0022B28D000230B930023A9
:103D900020460C9301F03EF80546204601F042F81B
:103DA00023780990082B13D8DFE803F01F32455819
:103DB0006B7E91A40500594BD3F8E02042F4807249
:103DC000C3F8E020D3F8E03003F480730893089B35
:103DD000284609A902F0C0F80FB030BD0B93D6E712
:103DE0000A93CDE711230A93CAE74C4B284609A949
:103DF000D3F8E02042F00102C3F8E020D3F8E0302D
:103E000003F001030093009B02F0A6F80FB030BD51
:103E1000424B284609A9D3F8E02042F00202C3F839
:103E2000E020D3F8E03003F002030193019B02F09D
:103E300093F80FB030BD394B284609A9D3F8E020DC
:103E400042F00402C3F8E020D3F8E03003F00403AA
:103E50000293029B02F080F80FB030BD2F4B284632
:103E600009A9D3F8E02042F00802C3F8E020D3F813
:103E7000E03003F008030393039B02F06DF80FB0EA
:103E800030BD264B284609A9D3F8E02042F01002A5
:103E9000C3F8E020D3F8E03003F010030493049B50
:103EA00002F05AF80FB030BD1C4B284609A9D3F8D0
:103EB000E02042F02002C3F8E020D3F8E03003F025
:103EC00020030593059B02F047F80FB030BD134B5C
:103ED000284609A9D3F8E02042F04002C3F8E020C8
:103EE000D3F8E03003F040030693069B02F034F869
:103EF0000FB030BD094B284609A9D3F8E02042F0A5
:103F00008002C3F8E020D3F8E03003F08003079389
:103F1000079B02F021F80FB030BD00BF00440258EB
:103F200070B506460D4600F075FF0446304600F0B9
:103F300079FF2A1E0146204618BF0122BDE87040C5
:103F400002F0FCB92DE9F04FA44C0346ABB020467B
:103F500023655F7893F8008002F078FBE8B9012FC1
:103F60004FF001059E49034614BF4FF480124FF4F1
:103F70000002E060A560C4E9001592FAA2F2B2FA6C
:103F800082F24FF48076E0612046013A2362C4E970
:103F9000042602F0EFFA034618B101202BB0BDE869
:103FA000F08F4FF0660C41F2883220460EA914962D
:103FB000179313931B93CDF838C0CDE91533CDE992
:103FC000193302F061FB0028E7D1992341F28832CE
:103FD0000EA920460E9302F057FB0028DDD14FF0CA
:103FE000000B4FF0010C4FF0050A4FF08079249040
:103FF00008AA21901CA9299041F28833CDF870A01D
:10400000CDF89490CDE908BC4FF0100B4FF0010CA7
:10401000CDE90ABC4FF0000B4FF4800CCDE92260D3
:10402000CDE927002046CDE90CBC02F099FC002820
:10403000B3D1ADF808001390CDE91460CDE91609AD
:10404000CDE91850CDE91A00002F00F0CB80F02305
:10405000ADF80830C02341F288320EA95F480E93B4
:1040600002F012FB002898D141F288325B4802A985
:1040700002F074FB044600288FD1002601274FF47C
:1040800080754FF080794FF0000A4FF4800B219437
:1040900041F28833299408AA1CA950482295CDF8EA
:1040A0009490CDE90867CDE9234410260127CDE996
:1040B00027440524CDE90A671C94CDE90CAB02F036
:1040C0004FFC00287FF469AF012406238DF8070018
:1040D00041F2883213901CA91B90219029900E94D4
:1040E0001C93CDE91450CDE91609CDE91900CDE9AD
:1040F0002250CDE92400CDE92700384802F0C4FA67
:1041000000287FF44AAF10260127052041F28833AA
:1041100008AA1CA91C903148CDF89490CDE90A67F3
:1041200002260227CDE90CABCDE9086702F018FCA6
:1041300000287FF432AF41F288320EA9274802F0FE
:10414000A3FA00287FF429AF402341F288320DF111
:10415000070122488DF8073002F000FB00287FF4A9
:104160001CAF10260127052002AA41F288330EA9B0
:104170000E901A48CDF85C90CDE9046740264027A0
:10418000CDE906ABCDE9026702F0EAFB064600285E
:104190007FF403AF2295002521960520299601275B
:1041A0001C9008AA41F288331CA90C48CDF89490C1
:1041B000CDE92366CDE927660126CDE9085610260C
:1041C000CDE90CABCDE90A6702F0CAFB00287FF409
:1041D000E4AEB8F1000F50D00020DFE64C0500241B
:1041E00000500052612341F288320EA920460E93FE
:1041F00002F04AFA00287FF4D0AE41F2883202A9D8
:10420000204602F029FB00287FF4C7AEBDF8083035
:104210000625259041F2883223F0780321902990D9
:104220001CA943F0400322961C95ADF80830CDE957
:104230002300CDE92700204602F026FA00287FF46B
:10424000ACAE1026012720460225022441F2883315
:1042500008AA1CA9CDF870A0CDF89490CDE90A6702
:1042600000264FF48007CDE90845CDE90C6702F040
:1042700077FB00283FF4EEAE8FE6EB24A0264FF448
:10428000005706251C9400244FF0805000234FF463
:1042900080784FF4406929900EAA1CA90C48CDE9FA
:1042A0001E67CDE920454FF440464FF0407700248B
:1042B0000025CDE92733CDE92289CDE92467CDE971
:1042C0000E4502F0C1FB003818BF012066E600BFB2
:1042D0004C0500243E4B02682DE9F0479A428CB011
:1042E0004FF00005CDE90755CDE909550B9502D0F2
:1042F0000CB0BDE8F087374B0226374905AFD3F83D
:10430000D420B146DFF8D4A04FF0030842F4804235
:10431000C3F8D420D3F8D42002F480420092009A4B
:10432000D3F8E02042F04002C3F8E020D3F8E020C8
:1043300002F040020192019AD3F8E02042F02002FC
:10434000C3F8E020D3F8E02002F020020292029AA3
:10435000D3F8E02042F01002C3F8E020D3F8E020C8
:1043600002F010020392039AD3F8E0203243C3F81C
:10437000E020D3F8E03033400493049B03C9059058
:10438000ADF81810DAF8504034440236204600F0F8
:1043900041FD034620461C4600F044FD17F8013B52
:1043A000024607A920460B93CDE90729CDE9095814
:1043B00001F0D2FD0E2EE5D100225C20114600F066
:1043C000CDFD5C2000F004FE0CB0BDE8F08700BF1E
:1043D000005000520044025820A600084C0500245A
:1043E000124B02689A4200D07047114AD2F8D4307A
:1043F00070B523F4804302250E4EC2F8D430346DDC
:104400002C440235204600F005FD034620461C469C
:1044100000F008FD0146204601F0C2FE0E2DEED14F
:104420005C20BDE8704000F0E1BD00BF00500052CC
:10443000004402584C050024014802F08DBB00BF27
:104440004C050024F8B5036871B9026A00F128052B
:1044500000F5AC74012A0CBF002240228BBB1D4921
:104460005723C0F858110DE0426A00F1C00500F56D
:10447000E874012A0CBF00224022EBB116495A23EE
:10448000C0F8D01100214FF480504FF480674FF4F2
:10449000804663604FF40033A2604FF48072E160A5
:1044A00061622362C4E90470C4E90662204600F038
:1044B00001FF58B1FFBEFEE708495823C0F8D011EC
:1044C000E0E707495923C0F85811DBE7C5E9204464
:1044D000A563F8BD100002407000024028000240B1
:1044E000580002402DE9F043831D05468BB0041DA2
:1044F00005F10A01083005F10C020593AB69CDE91D
:104500000640CDE90812002B3DD0EB69B3FA83F8E1
:104510004FEA58180222012305AE0AAF4FF00609F0
:104520000192CDE9023356F8044B2B79227893425D
:1045300016D02B68F3B1012B02D1F2B10A230493F8
:10454000204600F06FFC03462046009300F062FC1A
:10455000694601F001FDBE42E5D10BB0BDE8F08334
:10456000697963789942E4D1B8F1000FF3D02B68F0
:10457000002BE0D1CDF81090E2E76378022B14BF56
:104580000A230823DBE74FF00108C3E7534A036817
:10459000934230B505468BB055D02032934252D06D
:1045A0004F4A934204D02032934201D00BB030BD29
:1045B0004C4C4D48D4F8E03043F00103C4F8E030EF
:1045C000D4F8E03003F001030593059BD4F8E03004
:1045D00043F00803C4F8E030D4F8E03003F00803F7
:1045E0000693069BD4F8E03043F04003C4F8E03073
:1045F000D4F8E03003F040030793079BD4F8F03081
:1046000043F40003C4F8F030D4F8F03003F40003AE
:104610000893089BFFF766FFD4F8D830296843F069
:1046200001032F4A3048C4F8D830891AD4F8D8305A
:1046300018BF012103F001030993099B0BB0BDE8EA
:104640003040FFF7FFBE274C2848D4F8E03043F055
:104650000103C4F8E030D4F8E03003F00103009324
:10466000009BD4F8E03043F01003C4F8E030D4F8F5
:10467000E03003F010030193019BD4F8E03043F0E5
:104680004003C4F8E030D4F8E03003F04003029374
:10469000029BD4F8F03043F48003C4F8F030D4F82F
:1046A000F03003F480030393039BFFF71BFFD4F860
:1046B000D830296843F00103084A0C48C4F8D830C0
:1046C000891AD4F8D83018BF012103F001030493EC
:1046D000049B0BB0BDE83040FFF7B4BE0458014066
:1046E000045C014000440258FC070024A00500249B
:1046F000014801F0D1B800BFF8060024014801F0DC
:10470000CBB800BF70070024014801F0C5B800BF56
:1047100054090024014801F0BFB800BFCC090024AF
:104720001A4A0368934210B40BD02032934208D047
:10473000174A934216D02032934213D05DF8044BAF
:104740007047144B0022D3F85442C3F85822002C6F
:10475000F4D0D3F84802D3E9931223465DF8044B12
:10476000520818470B4B0022D3F8B044C3F8B424C6
:10477000002CE3D0D3F8AC24D3F8A814D3F8A404C5
:10478000520823465DF8044B184700BF0458014007
:10479000045C0140A0050024184A0368934210B449
:1047A0000BD02032934208D0154A934217D02032C2
:1047B000934214D05DF8044B7047124BD3E9942414
:1047C0005208C3F85822002CF4D0D3E992012346B2
:1047D00001EB820100EB82005DF8044B1847094BA6
:1047E000D3F8AC24D3F8B0445208C3F8B424002C56
:1047F000E0D0D3F8A814D3F8A404E8E704580140A3
:10480000045C0140A00500242DE9F04F0C684FF432
:104810001778DFF8D09185B008FB04F8012C09EB7C
:10482000080CC0F800C000F397804FF0000A0E4655
:104830000F466546CCF850A2CCE992AA0FCE0FC520
:104840000FCE0FC563A3D3E9002364A1D1E9000112
:10485000CDE9022304AB03EB8403CDE9000153F857
:10486000102C53F8083C96E80300CCF82820CCF82C
:10487000C0303B6985E80300042B0CD8DFE803F067
:10488000707A848E03004FF417734F4A03FB04932E
:104890009A64C3F8E020BA69002A43D03A6A4FF418
:1048A00017730121002A03FB04930CBF0222032289
:1048B000C3E90B21FA69002A41D1796A4FF41773D1
:1048C000003903FB049318BF0121C3E931127B694E
:1048D000022B05D83D493E4A11F803A052F823B0F7
:1048E0004FF41772002508F12800022302FB0494FC
:1048F00059464844524665646563E565C4F8DC5032
:10490000C4F8CC50C4F8F450C4E90F55C4E91555A7
:10491000C4E93555C4E93B5504F06EF9002847D089
:10492000FFBEFEE7396A4FF41773003903FB0493A7
:1049300018BF0121C3E90B12FA69002ABDD07A6AB7
:104940004FF417730121002A03FB04930CBF0222CA
:104950000322C3E93121BAE7012005B0BDE8F08F99
:104960004FF417734FF4FA5203FB04939A64C3F89D
:10497000E02090E74FF417734FF47A5203FB04934F
:104980009A64C3F8E02086E74FF417734FF4FA42B5
:1049900003FB04939A64C3F8E0207CE74FF4177399
:1049A0004BF6803203FB04939A64C3F8E02072E76D
:1049B00008F1C000524659460223484404F01CF94D
:1049C0000028CAD0FFBEFEE70077010028A6000835
:1049D0002CA6000824580140245C014004580140E2
:1049E000045C0140A00500240068704770B50468AD
:1049F000154682B00E46226A0698012AC4F848126B
:104A00009AB2C4F85402C4E9935311D0294604F170
:104A10002800019204F0B2F9636A019A012B10D0C8
:104A2000294604F1C00004F0A9F9002002B070BDCD
:104A300004F12800019204F033FA636A019A012B11
:104A4000EED1314604F1C00004F02AFA002002B091
:104A500070BD00BF03681B69042B05D8044A02EB34
:104A6000830393ED000A70479FED020A704700BF71
:104A700038A6000800803B470368D3F85802704707
:104A8000704700BF08B500F02BFABDE8084000F001
:104A900025BB00BF704700BF00F034BA0000000023
:104AA0002DE9F04FCFB004464C2200210AA8FBF7B5
:104AB00071FF2022002102A8FBF76CFFBC2200211D
:104AC0001EA8FBF767FF022001F03CFC23680022D0
:104AD000012B3DD0604B02250192C821DA6A22F0F9
:104AE0000102DA62DA6A03F5113302F0010201927F
:104AF0009A6942F440429A619B6903F440430193EE
:104B0000019B564B9A699204FCD5554A0224042015
:104B10004FF0010C936A21264FF4803723F00303F2
:104B200023439362052308221590189300230AA8B3
:104B30001691CDF840C0179419941A92CDE91344F8
:104B4000CDE91B33CDE90A6702F00EF9C0B1FEE7EB
:104B5000424B04250092F0219A6942F440429A6146
:104B60009A69A3F5113302F440420092DA6A42F0E6
:104B70000102DA62DB6A03F001030093009BC0E7E5
:104B80003F26032700220823294602A8CDE9026711
:104B9000CDE90423402640234FF480624027CDE92D
:104BA0000823CDE9066702F01FFC034600B1FEE7CB
:104BB000802202260127002534924FF4807233941C
:104BC000802443924FF480524FF00C084FF00809B4
:104BD0001EA8CDE93B334FF4805335934FF4803317
:104BE00046930623CDE92267CDE9244540F22716F6
:104BF000102704242025CDE926234FF480620023CA
:104C0000CDE92867CDE92A45CDE92C230FF2400BE9
:104C1000DBE900AB0026022700244FF48035002298
:104C20004FF44013CDE91EABCDE92089CDE92E67C5
:104C3000CDE93045CDE93E2302F0E8FD00B1FEE7C5
:104C400001F0A6FB4FB0BDE8F08F00BFAFF30080CE
:104C50000F130F0301000000000400580048025821
:104C600000440258F0B505460C4685B00126D1E94E
:104C7000000185E8030000F005F92846FFF710FF62
:104C8000002500F0DFF94FF04053384A68460193A1
:104C90004FF48073ADF80060CDE9022300F0F4F921
:104CA0004FF0404340F20111192268460193ADF8DC
:104CB0000E108DF808208DF801608DF80D508DF8DC
:104CC0000A5000F0E1F9042000F0CCF904F056FCA1
:104CD00004F0FEFA237913BB63799BB1BFF34F8FC6
:104CE000BFF36F8F224B0022C3F85022BFF34F8FC8
:104CF000BFF36F8F5A6942F400325A61BFF34F8F8E
:104D0000BFF36F8F0022002369461A48CDE90023C4
:104D100004F0C2FB174804F027FC05B0F0BD1449AD
:104D2000C1F88450BFF34F8FD1F8800043F6E0778D
:104D3000C0F34E32C0F3C900520102EA0705034630
:104D400045EA8376013BC1F860625E1CF8D1203AE7
:104D500012F1200FF1D1BFF34F8F4B6943F4803331
:104D60004B61BFF34F8FBFF36F8FB5E70E000103A9
:104D700000ED00E0580A002403480023034A0449D8
:104D8000036005F033BA00BF580A00240000002475
:104D9000814A000830B4194C0022194BD4F888100D
:104DA000184841F47001184DC4F888101C68174960
:104DB00044F001041C601A611C68204018609A616C
:104DC000DA611A629A62DA621A635A639A63DA6380
:104DD0001A645A64186820F4802018601A662B68D8
:104DE0001940B1F1005F02D2094B01221A60034B56
:104DF0004FF0006230BC9A60704700BF00ED00E0E9
:104E0000004402587FEDF6EA0010005C0000FFFF4E
:104E100008810051024B027853F82200704700BF0E
:104E20007CA60008024B427833F81200704700BF9E
:104E30005CA60008704700BF0F4B1B780BB9012020
:104E4000704710B504464FF47A700C4AB0FBF3F388
:104E50001068B0FBF3F000F0DDF80F2C00D808B1BB
:104E6000012010BD002221464FF0FF3000F076F8FF
:104E7000034B00201C6010BD70000024680000245B
:104E80007400002470B5124C032000F053F8114E4A
:104E900002F00AFAA26910490346C2F303220F2066
:104EA0000E4D8A5C02F01F02D3403360A2690240BB
:104EB0008A5C02F01F02D3402B60FFF7BDFF10B1E8
:104EC0000124204670BD0446FFF7B4FF204670BDA4
:104ED00000440258680000244CA600086C0000241E
:104EE000034A044B11681B780B441360704700BFE2
:104EF0005C0A002470000024014B1868704700BF52
:104F00005C0A002438B50446FFF7F6FF0546631C2B
:104F100002D0044B1B781C44FFF7EEFF431BA34257
:104F2000FAD338BD70000024014B1868000C70479C
:104F30000010005C07490002074BCA6800F4E060FB
:104F400010B44FF6FF0422405DF8044B10430343B6
:104F5000CB60704700ED00E00000FA05194BDB68FC
:104F6000C3F3022330B4C3F107051C1D042D28BF71
:104F70000425062C19D9033B4FF0FF349C4022EA4C
:104F800004024FF0FF34002804FA05F421EA04017A
:104F900001FA03F141EA02010ADB09010A4BC9B235
:104FA000034483F8001330BC704700221346E8E73F
:104FB00000F00F000901054BC9B20344197630BC5B
:104FC000704700BF00ED00E000E100E0FCEC00E015
:104FD000002807DB00F01F0101234009024A8B4033
:104FE00042F82030704700BF00E100E000280DDBF0
:104FF0004309012200F01F000549203302FA00F0A6
:1050000041F82300BFF34F8FBFF36F8F704700BF8E
:1050100000E100E00138B0F1807F0DD2074B0022A3
:10502000072130B4F025064C5860104684F8235010
:105030009A60196030BC70470120704710E000E0B2
:1050400000ED00E0BFF35F8F044A00200449536A7B
:1050500023F4803353624860704700BF00ED00E0E6
:1050600090ED00E0064A40F00100064B5860536A9C
:1050700043F480335362BFF34F8FBFF36F8F70479A
:1050800000ED00E090ED00E0124A43789360017873
:10509000E9B1436870B4D360C37A047B1B06857A98
:1050A000867B43EA0473447B0B43017A43EAC5439E
:1050B000C57B43EA8443447A43EA464343EA0543D3
:1050C00043EA042343EA410370BC13617047D16093
:1050D0001161704790ED00E0704700BF08B5FFF721
:1050E000FBFF08BD0268354B354930B4354C364DB1
:1050F000A24218BF9A4204F148040CBF01230023C6
:105100008A4208BF43F001034831AA4208BF43F076
:1051100001034835A24208BF43F0010348348A42E4
:1051200008BF43F0010301F56271AA4208BF43F0D2
:10513000010305F56275A24208BF43F0010304F5BF
:1051400062748A4208BF43F001034831AA4208BF93
:1051500043F001034835A24208BF43F0010348343D
:105160008A4208BF43F001034831AA4208BF43F016
:105170000103A24208BF43F001038A4208BF43F083
:10518000010313B9114B9A4213D1D3B21049114CF8
:10519000103BA1FB03515F2B0F4BC1F3021103EA3C
:1051A0000203615C88BF0433C1658365184630BC67
:1051B000704722F0FF038365F8E700BF100002404C
:1051C000400002402800024058000240B80402405B
:1051D000ABAAAAAAACA6000800FCFFFF0368294AF4
:1051E000294930B4294D2A4CAB4218BF934205F1EE
:1051F0003C050CBF01220022A34208BF42F001027D
:105200003C348B4208BF42F001023C31AB4208BF44
:1052100042F00102A34208BF42F001028B4208BFE4
:1052200042F0010212B91B4A934213D1DBB21A4D6C
:105230001A4A0121083B1A4CA5FB0353446602EBB2
:105240001312C3F30413920001FA03F30266836698
:1052500030BC7047DAB21349134C1944103AA829EC
:10526000A4FB02234FEA131300D808330F4A03F0BC
:105270001F0501210E4C1A44A94044669200816624
:105280000266E5E708540258445402581C54025878
:105290003054025894540258CDCCCCCC0096001611
:1052A00080580258F0FBFDBFABAAAAAA00820010EA
:1052B00080080240F8B50446FFF71EFE002C00F0FF
:1052C000DC8023680546974A934249D018329342BE
:1052D00046D0303294489549834218BF934200F13A
:1052E00048000CBF012200228B4208BF42F001029D
:1052F0003031834208BF42F0010230308B4208BF98
:1053000042F0010201F55C71834208BF42F00102E4
:1053100000F55C708B4208BF42F0010230318342DD
:1053200008BF42F0010230308B4208BF42F0010258
:105330003031834208BF42F0010230308B4208BF57
:1053400042F001023031834208BF42F001028B4239
:1053500008BF42F001021AB9754A934240F0FC803E
:105360000222002184F8352084F834101A6822F0D3
:1053700001021A6005E0FFF7BFFD431B052B57D85C
:1053800023681A68D107F6D4D4E9022120690A43B8
:105390001F68D4E9051602430A436649D4E90705A4
:1053A000324339400243606A2A43042841EA020139
:1053B00045D019605A6922F007021043586120460F
:1053C000FFF790FEE26D3F2302F01F0293408360DF
:1053D0002046FFF703FFA368802B18D06368256E73
:1053E000DAB2013BD4E91910072B2A60486015D8BE
:1053F000501E072843D9626FD4E91B310020186082
:10540000002001234A60606584F83530F8BD002330
:10541000A16ED4E91802636003605160002300208C
:10542000C4E91B3363670123606584F83530F8BD38
:10543000202203230120626584F83530F8BDD4E9C9
:105440000B50A26A284301431960586920F00700F5
:10545000104340F00400002DB0D0002E45D1012AA9
:105460005AD032F00202A9D1EA01A7D50123402285
:105470001846626584F83530F8BD0120F8BD216812
:105480002D4B2E4E2E4DB14218BF994206F12806E3
:105490000CBF01230023A94208BF43F001032835B4
:1054A000B14208BF43F001032836A94208BF43F0C8
:1054B00001032835B14208BF43F00103A94208BFE8
:1054C00043F001033BB91F4B994204D01E4B1F49C7
:1054D00013449B0003E01E4B1E4913449B00012212
:1054E0008240C4E91B31626788E7B6F5005F04D0EB
:1054F000022ABBD9032AB7D060E7032A3FF65EAF82
:1055000001A151F822F000BF6D5400086954000851
:105510006D54000819550008B5F1C07F7FF44EAFF7
:10552000A4E700BF100002404000024070000240AB
:10553000B80402403F8010FE085402581C54025820
:1055400030540258945402583F82001040090240DF
:105550003F96001640590258334A344934488B422A
:1055600018BF934201F12801324D0CBF01220022E5
:10557000834208BF42F001023C308B4208BF42F038
:1055800001023C31AB4208BF42F00102834208BF36
:1055900042F001028B4208BF42F0010212B9264AD2
:1055A00093423AD102220021244F84F83520A26888
:1055B00084F83410402A196807EA01072BD0802AA2
:1055C0000CBF4FF48041002122692046E668D208D2
:1055D0006569DFF870C042EAD602A66942EAD502E0
:1055E000E56942EAD602164E42EAD5021E44256A11
:1055F00042EA1512ACFB06653A432D091143AD0092
:105600001960E565FFF76EFDE26D012302F01F02F0
:1056100093404360DCE61021D6E7402203230120BB
:10562000626584F83530F8BD085402581C5402589D
:105630003054025858540258945402580F00FEFF38
:10564000F8ABFDA7CDCCCCCC002800F0C1802DE973
:10565000F041054690F83400012800F0BB8001209D
:1056600095F83540844285F8340007D000224FF485
:10567000006385F834206B65BDE8F0812E68022751
:105680007D4C7E48DFF808C2864218BFA64200F172
:10569000300085F835704FF000070CBF012400245E
:1056A0006F65664508BF44F001040CF1300C744F7F
:1056B000864208BF44F001043030664508BF44F01C
:1056C00001040CF5627C864208BF44F0010400F539
:1056D0006270BE4208BF44F001044837664508BF07
:1056E00044F001040CF1480C864208BF44F0010468
:1056F0004830BE4208BF44F001044837664508BF41
:1057000044F001040CF1480C864208BF44F0010447
:10571000A0F58F60BE4208BF44F00104A7F58F6773
:10572000664508BF44F00104BE4218BF86426F6E52
:105730000CBF0120002004433068D5E91A8C20F00A
:1057400001003060D5F858E0C7F8048045D0BCF1BE
:10575000000F02D0D5E91C074760EF6D3F20D5F858
:10576000088007F01F07B8F1400F00FA07F0CEF8E5
:105770000800306820F480203060736025D0B1606C
:10578000F26033682A6C23F01E0343F01603336083
:105790001AB1336843F0080333602B6E1A68D203E2
:1057A00003D51A6842F480721A60BCF1000F05D06C
:1057B000DCF8003043F48073CCF80030336800200C
:1057C00043F001033360BDE8F081B260F160D8E7D7
:1057D000012070470220BDE8F081BCF1000F02D02B
:1057E000D5E91C0747602748DFF8A880264F4645C3
:1057F00018BF864208F128080CBF01200020BE42D5
:1058000008BF40F001002837464508BF40F00100BE
:1058100008F12808BE4208BF40F00100283746457D
:1058200008BF40F00100BE4208BF40F0010010B9BF
:10583000164886420FD1E86D0127D5F8088000F0A0
:105840001F00B8F1400F07FA00F0CEF804007360B3
:105850000FD0B160F26033682A6C23F00E0343F07E
:105860000A033360002A98D0336843F0040333609E
:1058700093E7B260F160EEE740000240580002405A
:1058800010040240085402583054025894540258EC
:10589000700002401C5402582DE9F0479F4A002531
:1058A0009F4E82B0036882469E49846D934218BF22
:1058B000B342019508BF01260D68276818BF00266E
:1058C00021684AD03032DFF86CE29748734518BF40
:1058D00093420EF1480E0CBF01220022834208BF02
:1058E00042F001023030734508BF42F001020EF170
:1058F000300E834208BF42F0010200F55C70734530
:1059000008BF42F001020EF55C7E834208BF42F000
:1059100001023030734508BF42F001020EF1300E33
:10592000834208BF42F001023030734508BF42F0A5
:1059300001020EF1300E834208BF42F00102303006
:10594000734508BF42F00102834208BF42F00102E2
:105950001AB9764A934240F00B82DAF85C100822BA
:1059600001F01F0C02FA0CF2174240F08D8127FA69
:105970000CF2D2070CD55A69100609D5012202FA99
:105980000CF2A260DAF8542042F00202CAF8542065
:105990004FF0040E0EFA0CF038425BD0002E4FD1BF
:1059A000634ADFF89091DFF880814B4518BF93423E
:1059B00009F148090CBF01220022434508BF42F00B
:1059C000010208F130084B4508BF42F0010209F11D
:1059D0003009434508BF42F0010208F55C784B45A9
:1059E00008BF42F0010209F55C79434508BF42F067
:1059F000010208F130084B4508BF42F0010209F1ED
:105A00003009434508BF42F0010208F130084B4518
:105A100008BF42F0010209F13009434508BF42F0D6
:105A2000010208F130084B4508BF42F0010243452E
:105A300008BF42F001021AB93C4A934240F02F825B
:105A40001A68920706D5A060DAF8542042F00402E2
:105A5000CAF85420102202FA0CFC1CEA070F6FD07F
:105A6000002E46D1324A33482F4E834218BF93420C
:105A700000F148000CBF01220022B34208BF42F0EF
:105A800001023036834208BF42F001023030B34297
:105A900008BF42F0010206F55C76834208BF42F07F
:105AA000010200F55C70B34208BF42F001023036DB
:105AB000834208BF42F001023030B34208BF42F0D7
:105AC00001023036834208BF42F001023030B34257
:105AD00008BF42F001023036834208BF42F00102A3
