:020000040800F2
:1000000000000220250A0008210A0008BDB10008EE
:10001000210A0008210A0008210A00080000000047
:10002000000000000000000000000000210A00089D
:10003000210A000800000000210A000841B1000860
:10004000210A0008210A0008210A0008210A0008E4
:10005000210A0008210A0008210A0008210A0008D4
:10006000210A0008210A0008210A00082196000838
:100070002D960008818200083996000845960008F0
:10008000EDAE0008518B0008210A0008210A000883
:10009000210A0008210A0008210A0008210A000894
:1000A000210A0008210A0008210A0008210A000884
:1000B000210A0008210A0008210A0008858B00088F
:1000C000210A0008918B0008210A0008E99E000817
:1000D000210A0008DDA8000885A9000831AA000847
:1000E000210A0008210A000800000000210A000877
:1000F000210A0008210A0008210A0008F59E0008CC
:10010000210A0008210A0008210A0008210A000823
:10011000DDAA000889AB00084D850008210A000807
:100120003585000841850008210A0008210A0008D9
:10013000210A0008210A0008210A0008210A0008F3
:1001400000000000000000000000000000000000AF
:10015000210A0008210A0008210A000835AC00081D
:100160009D8B0008210A000851B1000875B10008F4
:10017000210A000899B10008210A0008210A000894
:10018000210A0008210A0008E1AC00088DAD000832
:10019000210A0008210A0008210A0008210A000893
:1001A000210A0008210A0008210A0008210A000883
:1001B00041930008210A0008210A0008210A0008CA
:1001C000210A0008210A0008210A0008210A000863
:1001D000210A0008210A0008210A0008210A000853
:1001E000210A0008210A0008210A0008210A000843
:1001F000210A0008210A0008210A0008210A000833
:10020000210A0008210A0008210A0008210A000822
:10021000210A0008210A0008210A0008210A000812
:10022000210A0008210A0008210A00080000000035
:10023000210A0008210A000800000000210A000825
:10024000210A0008210A0008210A0008210A0008E2
:10025000210A0008210A0008210A0008210A0008D2
:10026000210A0008210A0008210A0008210A0008C2
:10027000210A0008210A000839AE00080000000029
:10028000210A0008210A0008210A000800000000D5
:0802900000000000210A000833
:1002A00010B5054C237833B9044B13B10448AFF3B0
:1002B00000800123237010BDC00200240000000054
:1002C000E09D010808B5034B1BB103490348AFF398
:1002D000008008BD00000000C4020024E09D010869
:1002E00001F0FF01102A2BDB10F0070F08D010F8E7
:1002F000013B013A8B422DD010F0070F42B3F6D1EB
:10030000F0B441EA012141EA014122F007047FF003
:1003100000070023F0E80256083C85EA010586EA5A
:10032000010685FA47F5A3FA87F586FA47F6A5FA96
:1003300087F68EB9EED1F0BC01F0FF0102F00702A2
:1003400032B110F8013B013A83EA010313B1F8D14D
:100350000020704701387047002D06BF354603382E
:10036000073815F0010F07D1013015F4807F02BF67
:10037000013015F4C03F0130F0BC0138704700BFB8
:1003800010F8012B11F8013B012A28BF9A42F7D03F
:10039000D01A7047034613F8012B002AFBD1181A14
:1003A0000138704781F0004102E000BF83F0004354
:1003B00030B54FEA41044FEA430594EA050F08BF00
:1003C00090EA020F1FBF54EA000C55EA020C7FEAC4
:1003D000645C7FEA655C00F0E2804FEA5454D4EB41
:1003E0005555B8BF6D420CDD2C4480EA020281EA0B
:1003F000030382EA000083EA010180EA020281EA43
:100400000303362D88BF30BD11F0004F4FEA013194
:100410004FF4801C4CEA113102D0404261EB4101A3
:1004200013F0004F4FEA03334CEA133302D0524229
:1004300063EB430394EA050F00F0A780A4F10104E5
:10044000D5F1200E0DDB02FA0EFC22FA05F280181F
:1004500041F1000103FA0EF2801843FA05F3594105
:100460000EE0A5F120050EF1200E012A03FA0EFC84
:1004700028BF4CF0020C43FA05F3C01851EBE371AE
:1004800001F0004507D54FF0000EDCF1000C7EEBCB
:1004900000006EEB0101B1F5801F1BD3B1F5001F09
:1004A0000CD349085FEA30004FEA3C0C04F1010428
:1004B0004FEA445212F5800F80F09A80BCF1004F51
:1004C00008BF5FEA500C50F1000041EB045141EAD3
:1004D000050130BD5FEA4C0C404141EB0101013C9C
:1004E00028BFB1F5801FE9D291F0000F04BF01468B
:1004F0000020B1FA81F308BF2033A3F10B03B3F15D
:1005000020020CDA0C3208DD02F1140CC2F10C02EC
:1005100001FA0CF021FA02F10CE002F11402D8BF4A
:10052000C2F1200C01FA02F120FA0CFCDCBF41EA16
:100530000C019040E41AA2BF01EB0451294330BDE5
:100540006FEA04041F3C1CDA0C340EDC04F11404C2
:10055000C4F1200220FA04F001FA02F340EA030099
:1005600021FA04F345EA030130BDC4F10C04C4F1DF
:10057000200220FA02F001FA04F340EA03002946BF
:1005800030BD21FA04F0294630BD94F0000F83F409
:10059000801306BF81F480110134013D4EE77FEAEC
:1005A000645C18BF7FEA655C29D094EA050F08BF38
:1005B00090EA020F05D054EA000C04BF1946104619
:1005C00030BD91EA030F1EBF0021002030BD5FEA5D
:1005D000545C05D14000494128BF41F0004130BD85
:1005E00014F580043CBF01F5801130BD01F00045D9
:1005F00045F0FE4141F470014FF0000030BD7FEA4C
:10060000645C1ABF194610467FEA655C1CBF0B4646
:10061000024650EA013406BF52EA033591EA030F5D
:1006200041F4002130BD00BF90F0000F04BF002155
:10063000704730B54FF4806404F132044FF0000588
:100640004FF0000150E700BF90F0000F04BF002101
:10065000704730B54FF4806404F1320410F0004567
:1006600048BF40424FF000013EE700BF42004FEA62
:10067000E2014FEA31014FEA02701FBF12F07F43DF
:1006800093F07F4F81F06051704732F07F4208BF96
:10069000704793F07F4F04BF41F40021704730B59D
:1006A0004FF4607401F0004521F000411CE700BFE9
:1006B00050EA010208BF704730B54FF000050AE06C
:1006C00050EA010208BF704730B511F0004502D56D
:1006D000404261EB41014FF4806404F132045FEA6F
:1006E000915C3FF4D8AE4FF003025FEADC0C18BF18
:1006F00003325FEADC0C18BF033202EBDC02C2F10A
:10070000200300FA03FC20FA02F001FA03FE40EA9B
:100710000E0021FA02F11444BDE600BF53B94AB9F4
:10072000002908BF00281CBF4FF0FF314FF0FF30F9
:1007300000F074B9ADF1080C6DE904CE00F006F8D4
:10074000DDF804E0DDE9022304B070472DE9F0474D
:10075000089D04468E46002B4DD18A42944669D9A5
:10076000B2FA82F252B101FA02F3C2F1200120FA88
:1007700001F10CFA02FC41EA030E94404FEA1C48D6
:10078000210CBEFBF8F61FFA8CF708FB16E341EAD2
:10079000034306FB07F199420AD91CEB030306F158
:1007A000FF3080F01F81994240F21C81023E634479
:1007B0005B1AA4B2B3FBF8F008FB103344EA03441D
:1007C00000FB07F7A7420AD91CEB040400F1FF3332
:1007D00080F00A81A74240F207816444023840EA6F
:1007E0000640E41B00261DB1D4400023C5E90043A8
:1007F0003146BDE8F0878B4209D9002D00F0EF802B
:100800000026C5E9000130463146BDE8F087B3FA5D
:1008100083F6002E4AD18B4202D3824200F2F98045
:10082000841A61EB030301209E46002DE0D0C5E948
:10083000004EDDE702B9FFDEB2FA82F2002A40F094
:100840009280A1EB0C014FEA1C471FFA8CFE012697
:10085000200CB1FBF7F307FB131140EA01410EFB3B
:1008600003F0884208D91CEB010103F1FF3802D2E2
:10087000884200F2CB804346091AA4B2B1FBF7F0DC
:1008800007FB101144EA01440EFB00FEA64508D9FF
:100890001CEB040400F1FF3102D2A64500F2BB803C
:1008A0000846A4EB0E0440EA03409CE7C6F120078B
:1008B000B34022FA07FC4CEA030C20FA07F401FAD1
:1008C00006F31C43F9404FEA1C4900FA06F3B1FB5A
:1008D000F9F8200C1FFA8CFE09FB181140EA0141BF
:1008E00008FB0EF0884202FA06F20BD91CEB01015C
:1008F00008F1FF3A80F08880884240F28580A8F1B4
:1009000002086144091AA4B2B1FBF9F009FB101105
:1009100044EA014100FB0EFE8E4508D91CEB0101A3
:1009200000F1FF346CD28E456AD90238614440EA46
:100930000840A0FB0294A1EB0E01A142C846A646C6
:1009400056D353D05DB1B3EB080261EB0E0101FA4F
:1009500007F722FA06F3F1401F43C5E900710026AC
:100960003146BDE8F087C2F12003D8400CFA02FC02
:1009700021FA03F3914001434FEA1C471FFA8CFE12
:10098000B3FBF7F007FB10360B0C43EA064300FB02
:100990000EF69E4204FA02F408D91CEB030300F1A0
:1009A000FF382FD29E422DD9023863449B1B89B257
:1009B000B3FBF7F607FB163341EA034106FB0EF3E0
:1009C0008B4208D91CEB010106F1FF3816D28B428D
:1009D00014D9023E6144C91A46EA004638E72E4659
:1009E000284605E70646E3E61846F8E64B45A9D251
:1009F000B9EB020864EB0C0E0138A3E74646EAE7C0
:100A0000204694E74046D1E7D0467BE7023B61446D
:100A100032E7304609E76444023842E7704700BFD6
:100A2000FEE700BF0B480C4A904203D0121A0B4954
:100A300016F034FC0A480B4A904203D0121A0021E7
:100A400016F054FC0AF06EFD16F0E4FB01F05CFEBB
:100A5000FEE700BF00000024C0020024189E010829
:100A6000C0020024ACE50024704700BF704700BFFF
:100A7000704700BF49424FF480621430C9B216F08B
:100A800035BC00BF0368184740207047802070477E
:100A9000014B186804F0BCB8E00C002410B5044603
:100AA00040F2144115F0A8FC204610BD2AB1012ADD
:100AB00007D0022A08D000207047054B03600020B1
:100AC00070470160002070470B680360F3E700BFC8
:100AD000C08B010838B50B460C460546006853F834
:100AE000081B994218D005F1080290420DD06268A7
:100AF00029606A60A168AA68A96058B12060A260F4
:100B0000002322686360137038BD6268C5E9001273
:100B1000A268AA602360F3E762682AB1012A07D0BD
:100B200016F0BCFB2868626800236A608354E7E71C
:100B3000237A037028686268F6E700BFF0B500F119
:100B4000080783B0076029B3044608460E46FFF73E
:100B500021FC0F28054601900DD8012808D13378D3
:100B60002372019B002122686360D15403B0F0BD61
:100B70000028F6D008E0002201A9204615F006FE64
:100B8000019B07462060A3602A463146384616F08E
:100B900085FBE6E7014815F0E3FD00BF9C870108EF
:100BA00070B5064600F5B46500F5B26454F8080C5B
:100BB000183DA042A4F1180403D0A968013115F032
:100BC0001BFCAE42F2D1304670BD00BFF8B5D0E993
:100BD00000560746B5420FD005F1080454F8080C3A
:100BE000844204F1180403D0A968013115F004FC13
:100BF0001835AE42F2D13E6826B1B9683046891B3D
:100C000015F0FAFB3846F8BD2DE9F041B02482B06A
:100C100000F1080600F1100500F11408002728462D
:100C20008DF807400134394607F03EFE6423012267
:100C30000DF107013046E4B209F0D6FA39462846EC
:100C40008DF8077007F030FE012264230DF10701D3
:100C5000304609F0C9FA1023394628468DF8073086
:100C600007F022FE642301220DF10701304609F04E
:100C7000BBFA0121284607F017FE80224146642373
:100C80003046904409F0B0FAB82CC7D102B0BDE8A4
:100C9000F08100BF2DE9F041804600F53476B36C59
:100CA00023B106F14001032208469847D6E90D57C3
:100CB000BD4228460FD005F1080454F8080C8442C0
:100CC00004F1180403D0A968013115F095FB18351B
:100CD000AF42F2D1706B18B1F16B091A15F08CFBB1
:100CE000F06906F12403984203D0716A013115F0CE
:100CF00083FB706806F10C03984203D0F168013160
:100D000015F07AFB4645A6F1500301D01E46C6E712
:100D10003046BDE8F08100BFE8B138B5044625464D
:100D2000E068FFF7F9FFA468AB6A18461BB1296BAE
:100D3000C91A15F061FB286905F11803984203D020
:100D4000A969013115F058FB3421284615F054FBF0
:100D5000002CE4D138BD704710B504468068FFF719
:100D6000DBFF204610BD00BF2DE9F04F85B0A1F19B
:100D7000200504AC9DF83870009104E90C00EBB23A
:100D80005E2B00F29580036880465D4ADB689DF823
:100D9000084093429DF8096040F094808020B8F8A4
:100DA00004302344834200F38380D8F80030554A4E
:100DB0009B68934240F088804020B8F80620931941
:100DC0000192834274DC002E00F0898006FB05F559
:100DD0006FF00040039B964628442E44B8F804A0C8
:100DE00003EB4000023B03EB460B30F8026FBCB351
:100DF0000EF007034FF0010C4FEADE0251460CFAE9
:100E000003FC0AF114034FFA8CFC03EBC21200231B
:100E10006FEA0C0942440EE07F2907D8BEF13F0F6C
:100E200004D815789FB14CEA0505157001330132DD
:100E300001319C4214D006FA03F52D04ECD47F292D
:100E4000F4D8BEF13F0FF1D81578002FEBD0013365
:100E500009EA0505013201319C4202F8015CEAD140
:100E600058450EF1010EC0D1D8F800305444244941
:100E7000DA68A4B28A422DD1802084421CD29B68B9
:100E8000204AA8F80440934221D14020019B83428C
:100E900007D3D8F800301B4A9B68934229D13F23DF
:100EA0000193DDE90003A8F8063005B0BDE8F08F36
:100EB000002005B0BDE8F08FDA6811498A4211D1EF
:100EC0007F24DCE798476AE74046984775E7404645
:100ED0009847DBE740469047D8F80030CDE7B8F8B0
:100EE00004A0C1E7404690470138D8F8003084B2EA
:100EF000C5E740469847013883B20193D1E700BF68
:100F00008D0A0008890A00082DE9F04F89B008AC65
:100F10009DF84870019104E90C000B78002B00F05B
:100F2000AB801A469DF818809DF819300646454654
:100F300090460393079B0593A8F12004E3B25E2B30
:100F400000F29E8033685E4ADB68934240F09B80EB
:100F50008020B3882B44834200F392803368594A3F
:100F60009B68934240F092804020F188039A02915E
:100F70008B18834200F38480002A00F0918002FBEA
:100F800004F46FF00049059BA1441444B6F804B082
:100F900003EB4909023BCDF8108003EB44030C46F8
:100FA0009A4639F802CFA5B304F007034FF0010EBB
:100FB000E20859460EFA03FE0BF114034FFA8EFEB7
:100FC00003EBC21200236FEA0E0832440DE07F29C2
:100FD00006D83F2C04D8107897B14EEA0000107064
:100FE000013301320131AB4213D00CFA03F000049B
:100FF000EDD47F29F4D83F2CF2D81078002FECD014
:10100000013308EA000001320131AB4202F8010C61
:10101000EBD1D14504F10104C3D1DDF81080326871
:101020000BEB05042649D368A4B28B4234D180204F
:10103000844204D3D36822498B423AD17F249368F7
:10104000204AB480934224D14020029B834206D39D
:1010500033681C4A9B68934225D13F230293029B2D
:10106000F380019B1878404507D113F8018F019355
:10107000B8F1000F7FF460AF002009B0BDE8F08F39
:101080004FF00008EDE73046984762E73046984752
:101090006BE730469847D8E7304698473268C7E74D
:1010A000B6F804B0BBE730469847431E9BB20293A4
:1010B000D5E7304698470138326884B2BFE700BFB1
:1010C0008D0A0008890A00087F291ED83F2A1CD8EB
:1010D0006BB1D3084FF0010C02F0070201EBC31310
:1010E0000CFA02F2C1180B7D1A430A757047D30837
:1010F0004FF0010C02F0070201EBC3130CFA02FCE3
:10110000C1180A7D22EA0C020A7570472DE9F04FDA
:1011100083B05C1A0C9E002C9DF83490A6EB02085C
:10112000B8BF6442B8F1000FB8BFC8F100088B42E5
:101130008CBF4FF0010A4FF0FF3A9642A4EB080C27
:1011400051D84FF0FF357F2B019512D83F2E10D884
:10115000F50806F0070E012703EBC5150544B9F1A4
:10116000000F47D007FA0EF795F814E047EA0E078C
:101170002F75964201D18B4229D0C8F100077F29F3
:1011800014D83F2A12D8D50802F0070B4FF0010EF1
:1011900001EBC5150544B9F1000F1BD00EFA0BFE8B
:1011A00095F814B04EEA0B0E85F814E0B7EB4C0F2F
:1011B0004FEA4C0502DAACEB080C5144AC4202DDBC
:1011C000019DA4442A449942D9D19642D7D103B073
:1011D000BDE8F08F0EFA0BFB95F814E02EEA0B0E2B
:1011E00085F814E0E2E701257F2B0195C5D83F2E55
:1011F000AED9C2E707FA0EFE2F7D964227EA0E0708
:101200002F75B8D0B9E700BF2DE9F04F2DED068B53
:1012100083B01F4680460D469DF850301646019318
:10122000139B002BC0F22182129A134406EE103A4F
:10123000DDED127AB8EEC66B9FEDCD4BB8EEE77BD5
:101240009FEDCD5B27EE047B26EE046B87EE050B4E
:1012500086EE05ABF7EEC08BB0EE680A15F0B4FC75
:1012600007EE907AB7EECAABF8EE679AB0EE408A16
:10127000B0EE680A15F0ACFE60EE698AB0EE4A0A7C
:1012800015F0A2FCB0EE409AB0EE4A0A15F0A0FEAE
:1012900020EE690A29EE888A29EE899A70EE687A2A
:1012A000F0EE006A39EE487A67EEA77AE7EE077A41
:1012B000F4EEE67AF1EE10FA06D5139BB42B40F368
:1012C00096804FF0010901E04FF0000901247842B7
:1012D0004FF0000C0095E31B214627462246A34011
:1012E000B9F1000F6AD1424206EE90CACCF100017A
:1012F00007EE102AB8EEE66A07EE901A06EE900A9C
:10130000B8EEC77A139A66EE084AF8EEE77AB42A7E
:1013100027EE284AF8EEE66A67EE885A74EEC43A79
:1013200026EEA85A26EE096A66EE806A67EE897A8A
:1013300027EE007AF5EEC03A40F3F280F1EE10FAB3
:1013400000F17F8176EE473A74EEC54AF5EEC03A79
:10135000F1EE10FAF5EEC04ACCBF01220022F1EE08
:1013600010FA00F1778136EE666A35EEC55AB5EEB1
:10137000C06AF1EE10FAB5EEC05ACCBF01210021CF
:10138000F1EE10FA00F16F8177EEE66AF5EEC06AD1
:10139000F1EE10FACCBF0127002775EEC45AF5EE26
:1013A000C05AF1EE10FA00F1478177EEC77AF5EEF8
:1013B000C07AF1EE10FACCBF01240024002A40F0DC
:1013C0008A80002964D1BFB9C4BB9C4558DB0CF1AD
:1013D000010C03EB4C0E1CEB000F0EF1010E00F0A4
:1013E000C08098424FDB734600287FF779AF03B087
:1013F000BDEC068BBDE8F08F009DA6EB0C0E00EB5C
:10140000050ABAF17F0FDFD8BEF13F0FDCD84FEAF3
:10141000DE0B019D0AEBCB1A002D00F0B1800EF01F
:10142000070BC2444FF0010E0EFA0BFE9AF814B0EF
:101430004EEA0B0E8AF814E0002CC6D0009DA6EBF5
:101440000C0EA5EB000ABAF17F0FBED8BEF13F0F1C
:10145000BBD84FEADE0B019D0AEBCB1A002D00F042
:10146000AE800EF0070BC2444FF0010E9C450EFA01
:101470000BFE9AF814B04EEA0B0E8AF814E0A6DAC6
:1014800098429E46AFDA01300EEB40030133ABE7E2
:10149000009D0CEB060E00EB050ABAF17F0F92D807
:1014A000BEF13F0F8FD84FEADE0B019D0AEBCB1A3E
:1014B000002D73D00EF0070BC2444FF0010E0EFA50
:1014C0000BFE9AF814B04EEA0B0E8AF814E0002FC7
:1014D0003FF47AAF90E7009D0CEB060EA5EB000AF7
:1014E000BAF17F0F3FF66DAFBEF13F0F3FF669AF28
:1014F0004FEADE0B019D0AEBCB1A002D6DD00EF0EA
:10150000070BC2444FF0010E0EFA0BFE9AF814B00E
:101510004EEA0B0E8AF814E000293FF454AFB7E707
:10152000F1EE10FA7ED44A4674EEC54AF5EEC04A92
:10153000F1EE10FA6CD4002135EEC55AB5EEC05A62
:10154000F1EE10FA5AD4002775EEC45AF5EEC05ADF
:10155000F1EE10FA3FF529AF0024002A3FF431AF35
:10156000B9E798428FDB00233BE700BFAFF3008071
:101570007A008BFCFA2109400000000000806640E0
:10158000C2444FF0010B0EF0070E0BFA0EFE9AF854
:1015900014B02BEA0E0E8AF814E015E7C2444FF09F
:1015A000010B0EF0070E0BFA0EFE9AF814B02BEAA0
:1015B0000E0E8AF814E0002F3FF406AF1CE7C24479
:1015C0004FF0010B0EF0070E0BFA0EFE9AF814B056
:1015D0002BEA0E0E8AF814E0F7E6C2444FF0010B36
:1015E0000EF0070E0BFA0EFE9AF814B02BEA0E0E50
:1015F0008AF814E000293FF4E6AE49E777EEE66AA0
:10160000F5EEC06AF1EE10FACCBF012700279BE788
:1016100036EE666AB5EEC06AF1EE10FACCBF012173
:10162000002189E776EE473AF5EEC03AF1EE10FA7E
:10163000CCBF0122002277E70124002A3FF4C1AE8B
:1016400049E774EEC54A0122F5EEC04AF1EE10FA00
:101650007FF589AE35EEC55A0121B5EEC05AF1EEDF
:1016600010FA7FF591AE012797E6DDE912231344C6
:1016700006EE102A1293139B5B421393D8E500BF2A
:101680002DE9F04F89B01D46884606901046129C01
:1016900010F8013B13999DF85060009233B100227D
:1016A00010F8013B0132002BFAD193B22A78687806
:1016B00012FB03F302B21BB223EAE373082900F220
:1016C000A981DFE811F00201140120013401420177
:1016D0005001670171010900A18827880F44B4F9FE
:1016E0000610FF1A0029BFB2C0F2FF80B4F802C092
:1016F00006980CEB6104C280A4EB52028380078041
:1017000094B24480A64AD8F8003011460192DA68B3
:101710008A4240F08D818020B84205D8DA6801996C
:101720008A4240F09A817F279E4A9B68A8F80470FD
:101730009342039240F089814020A04207D8D8F814
:101740000030039A9B68934240F082813F24009BC3
:10175000A8F8064093F800B06B782C7804936B6877
:101760000793BBF1000F00F0AC80ABF12005EBB2AA
:101770005E2B00F22E81D8F80030019ADB6893428C
:1017800040F02A818020B8F8043023449842C0F207
:101790002081D8F80030039A9B68934240F01F8163
:1017A0004020B8F80610049A02918B189842C0F2B3
:1017B0001081002A00F01E8102FB05F56FF0004E3B
:1017C000079BAE441544CDF814B003EB4E0E023B1C
:1017D000B8F804A003EB45030D469B463EF8027F94
:1017E000A4B305F007034FF0010CEA0851460CFAC8
:1017F00003FC0AF114034FFA8CFC03EBC212002322
:101800006FEA0C0942440DE07F2906D83F2D04D829
:10181000107896B14CEA00001070013301320131AA
:101820009C4213D007FA03F00004EDD47F29F4D8CA
:101830003F2DF2D81078002EECD0013309EA0000D9
:10184000013201319C4202F8010CEBD1F34505F164
:101850000105C3D1DDF814B0D8F800200AEB040567
:101860000199D368ADB28B4240F0BF8080208542A1
:1018700005D3D36801998B4240F0C5807F259368DA
:10188000039AA8F80450934240F0AC804020029B99
:10189000834208D3D8F80030039A9B68934240F003
:1018A000AC803F230293029BA8F80630009A13787D
:1018B0005B4506D112F801BF0092BBF1000F7FF427
:1018C00054AF069809B0BDE8F08FB4F9041027882A
:1018D0000029B8BF013107EB6107B4F90610A7EB87
:1018E00063070029BFB2BFF601AF0131FEE6B4F9CC
:1018F00000700699B4F902400F80BFB24C80A4B2C8
:101900008B80CA80FEE6B4F9041027880029B4F958
:101910000240B8BF013107EB610706998B80A7EB46
:1019200063034C80A4B29FB2CA800F80EAE6A1880C
:101930002788B4F902400F4406998B80FB1A4C802B
:10194000A4B29FB2CA800F80DCE6E7886188394480
:10195000B4F90070081A069984B20F808B80BFB268
:10196000CA804C80CEE6B4F9041027880029B8BF9D
:10197000013107EB6107A7EB6307B4F802C0BFB200
:10198000E488069964448B80201ACA800F8084B250
:101990004C80B7E62788A1880F44FF1AEDE700BF07
:1019A0008D0A0008890A0008B4F90610B4F802C0CC
:1019B0000029B4F900700698B8BF0131C2800CEB61
:1019C000610407808380BFB2A4EB520294B24480CA
:1019D00098E64FF0000B69E740469847D3E640464B
:1019E0009847DEE64046984751E740469847D8F882
:1019F00000203CE7B8F804A02EE74046984701389D
:101A000083B202934FE7404698470138D8F8002048
:101A100085B234E7D8F800300024069A12491480C1
:101A200054809480D480DA6801918A4205D0274698
:101A300040469047D8F800306EE69B680B4AA8F8FD
:101A40000440934203923FF482AE4046984774E6C6
:101A500040469847013884B279E6404690470138BD
:101A6000D8F8003087B25FE68D0A0008890A0008BE
:101A70002DE9F04F87B09DF84850109C2E460195F7
:101A80009DF844509EB399422ED89946A24228D838
:101A90007F29164694BF0023012308E09CF8148098
:101AA0004EEA080E8CF814E00136B44219D33F2EEA
:101AB000FAD8002BF8D14FEAD60C06F0070E4FF0FB
:101AC000010801EBCC1C08FA0EFE8444002DE5D180
:101AD0009CF814B001362BEA0E0AB4428CF814A01C
:101AE000E5D201318945D1D207B0BDE8F08FA3EB33
:101AF0000108B8F1000FB8BFC8F100089942C0F062
:101B00004E817F2B4FF0FF3A94BF002601263F2ADB
:101B1000009694BF002701270297A6B99FB9D6085F
:101B200002F0070C012703EBC6160644002D00F057
:101B3000948107FA0CF796F814C047EA0C0737753A
:101B4000002602960096994200F0978146469446F8
:101B50008E46BEF17F0F16D8BCF13F0F13D84FEA67
:101B6000DC070CF0070B4FF001090EEBC717074419
:101B7000002D00F0398109FA0BF997F814B049EA01
:101B80000B0987F81490770018BFD644B84502DDDA
:101B900046440CF1FF3C7345DBD16245D9D10026A8
:101BA0000496A4EB0209009FB9F1000FB8BFC9F178
:101BB00000093F2C94BF00260126A242C9F100086B
:101BC0000396C0F02381002F40F05081002E40F09A
:101BD0004D814FF0FF360096E60803EBC61606442B
:101BE000002D00F01E814FF0010C04F007070CFAE5
:101BF00007F796F814C047EA0C07377500260396D6
:101C0000A24200F03D81C44616461F4605927F2F32
:101C100015D83F2E13D84FEAD60E06F0070B4FF01B
:101C2000010A07EBCE1E8644002D00F0E6800AFA7A
:101C30000BFA9EF814B04AEA0B0A8EF814A0B8EB1F
:101C40004C0F4FEA4C0E02DAACEB090C013FBEF12F
:101C5000000F01D0009A1644BB42D8D1B442D6D16D
:101C6000059AA1EB030EBEF1000FB8BFCEF1000E36
:101C70007F2994BF4FF0000A4FF0010A99428CBFB0
:101C80004FF001094FF0FF39BAF1000F13D1039E55
:101C90008EB9E60801EBC6160644002D00F0D3808D
:101CA0004FF0010C04F007070CFA07F796F814C080
:101CB00047EA0C073775049E26BB774626467F2BDE
:101CC00014D83F2E12D84FEAD60C06F0070B4FF06F
:101CD000010803EBCC1C8444002D73D008FA0BF8E8
:101CE0009CF814B048EA0B088CF814805FEA470CA3
:101CF00018BF4B44E64501DD7744013E9942DED1F1
:101D0000B442DCD1A2EB040EBEF1000FB8BFCEF19D
:101D1000000EA2428CBF4FF001084FF0FF38CEF109
:101D2000000CBAF1000F0ED1029B63B9D30802F088
:101D30000707012601EBC3130344002D7CD0BE40EE
:101D40001F7D3E431E75019B002B7FF4CDAE664682
:101D50000B467F2B12D83F2C10D8E70804F0070A57
:101D60004FF0010903EBC7170744A5B309FA0AF9B5
:101D700097F814A049EA0A0987F81490BCEB460FBB
:101D80004FEA460702DAA6EB0E06013B07B14444D0
:101D90009942DED1A242DCD107B0BDE8F08F3F2AE4
:101DA0004FF0010A94BF002601267F2B029694BFB4
:101DB000002701270097002E7FF4C8AE002F3FF4C4
:101DC000AEAEC3E608FA0BFB9CF8148028EA0B08B9
:101DD0008CF814808AE709FA0AFA97F8149029EA2D
:101DE0000A0987F81490C9E709FA0BFB97F81490D1
:101DF00029EA0B0987F81490C5E60AFA0BFB9EF84E
:101E000014A02AEA0B0A8EF814A018E797BB8EBB21
:101E100001260096E60803EBC6160644002D7FF463
:101E2000E2AE012704F0070C039507FA0CFC377D9E
:101E300027EA0C073775E3E606FA07F71E7D26EA60
:101E400007061E757FE7012704F0070C07FA0CFC54
:101E5000377D27EA0C0737752DE707FA0CFC377D2D
:101E6000029527EA0C07009537756CE64FF0FF36B0
:101E70000096C5E601260096C5E60126049690E682
:101E800001260196EDE600BF836810B5044613B144
:101E9000032201469847204610BD00BFF0B50D460D
:101EA00051F8043B044687B040F8043B0027FEF796
:101EB00011FE05F11C0104F11C0002AEFEF70AFE42
:101EC000636BEA6B30460293A36B03936B6B6363A4
:101ED000AB6BA363E36BE263EF630493C5E90D7738
:101EE000FEF774FE05F1400C6B4604F140029CE8DD
:101EF000030083E8030096E803008CE803000599DB
:101F0000D5F84CC0E964D5F848E0AF6493E8030025
:101F100086E8030092E8030086E8030093E80300E4
:101F200082E80300A36C3046C4F848E00493E36CF5
:101F3000C4F84CC00593FFF7A7FF07B0F0BD00BF82
:101F4000F8B5836C064623B100F140010322084630
:101F50009847D6E90D57BD420FD005F1080454F853
:101F6000080C844204F1180403D0A968013114F06C
:101F700043FA1835AF42F2D1776B27B1F16B38468F
:101F8000C91B14F039FAF06906F12403984203D012
:101F9000716A013114F030FA706806F10C0398424E
:101FA00003D0F168013114F027FA3046F8BD00BFC4
:101FB00038B54A4804F08AFE484804F09BFE484879
:101FC00005F072FEFDEEC07A464D17EE904A2B6882
:101FD000A34205D017EE901A434802F077FC2C601C
:101FE000424805F061FEFDEEC07A414D17EE904A81
:101FF0002B68A34205D017EE901A3E4802F066FC0B
:102000002C603D4805F050FEFDEEC07A3B4D17EECA
:10201000904A2B68A34205D017EE901A384802F078
:1020200055FC2C60374805F03FFEFDEEC07A364D7A
:1020300017EE904A2B68A34205D017EE901A33484A
:1020400002F044FC2C60324C2378DBB93149234D3B
:102050000A68686D0244092A23DC002AC8BF1346B7
:102060000B6095F841302C48A3F17F03B3FA83F35A
:102070005B09237005F0D4FD50BB284805F0D0FD66
:1020800030BB38BD154D6B6D002B0DDC15D0214BD1
:1020900015481B6803EB830300EB031002F0FEFB03
:1020A0000BE009230B60DCE71A4B0F481B6803EBBE
:1020B000830300EB031002F0D7FB95F8413016487C
:1020C0007F3B18BF0123237005F0AAFD0028D4D060
:1020D000134B1868BDE8384002F0BABCE40C002489
:1020E000A8A20024A4A20024BC0900241C090024E6
:1020F000180900240C0A0024E8A20024E4A2002409
:102100005C0A00245809002454090024AC0A002465
:1021100090090024DC0C0024BC0D0024C20D002416
:10212000E00C002489B24A4B92B27F2928BF7F215C
:102130003F2A2DE9F04F28BF3F22D0F800A04548A4
:1021400085B01D78A0F8A621A0F8A4115A789AF8B5
:1021500000B05B6802920393BBF1000F72D0ABF149
:102160002003DAB25E2A70D83A49B1F8A4E10EEB46
:102170000502802A019268DCB1F8A621029900923A
:102180000A44402A61DC002945D0029A6FF00047DA
:10219000009802FB03F31F441344039AA2F10209BF
:1021A00002EB470709EB430937F802CF7DB300F094
:1021B00007030126C20800249E4049F2B413734469
:1021C00076B203EBC213244A6FEA06081344724640
:1021D0000BE07F2A04D83F2802D8197831431970C0
:1021E000013401330132A54211D00CFA04F1090483
:1021F000EFD47F2AF4D83F28F2D81978013401337C
:10220000013208EA0101A54203F8011CEDD1B945EC
:1022100000F10100C8D1009ABDF804303F2A0D49F1
:1022200028BF3F227F2B28BF7F23A1F8A621A1F83A
:10223000A4319AF800305B4504D11AF801BFBBF114
:10224000000F8CD105B0BDE8F08F4FF0000BF0E728
:1022500000030024E49C0024E40C002400214FF43B
:1022600080626548F0B589B015F040F8634B03F122
:10227000800113F8012F42F008028B421A70F8D146
:1022800004AD01213E2302A80B22ADF81030CDE9A8
:1022900002510021FFF746FF0298A84203D004999B
:1022A000013114F0A9F8564B564819683C3114F026
:1022B000C7FA554B03F1800113F8012F42F02002B9
:1022C00099421A70F8D14F4B0295D3E90064E64267
:1022D00002D0002E00F08C800F2C019477D8012CB6
:1022E00038D133782A468DF81030002302A80394A1
:1022F000022113553622FFF715FF0298A84203D09A
:102300000499013114F078F8404F414E3C6804EBD9
:10231000840306EB031605E03B68013450360433B2
:10232000A3421BDD092CF7DC314602A802F05AFA61
:102330003B6802A80721E31A03EB83035A000C321F
:10234000FFF7F0FE0298A842E6D00499013114F09C
:1023500053F8E1E7002C49D12A46C6E7264EB024BF
:1023600000252C488DF808400134294606F09CFAD7
:102370006423012202A92848E4B207F035FF294668
:1023800024488DF8085006F08FFA0122642302A930
:10239000214807F029FF102329461E488DF80830F0
:1023A00006F082FA6423012202A91B4807F01CFFF1
:1023B0000121184806F078FA802231466423164835
:1023C000164407F011FFB82CCAD109B0F0BD0022A5
:1023D00001A902A814F0DAF9019B029004932246A5
:1023E000314614F05BFFDDE901427EE72846F6E75F
:1023F0000A4814F0B5F900BF989E0024179F0024E6
:10240000E00C0024DC02002497A10024DC0C002452
:10241000BC090024949E00248C9E00249C87010803
:102420002DE9F04784B000246B46846083E8060001
:1024300002EB42032F4AB2EBC30F01EBC309C0E921
:10244000004453D3DC008046002C43D00E46204687
:1024500013F0EAFF0444B1450746C8F80840C8F83D
:1024600000003AD000F118040BE09AF8003004F8AC
:10247000103C1836002344F8145C1834B145435519
:102480002BD0A4F11000A4F11803274644F8180C2F
:10249000D6E900A51AEB050F02D0BAF1000F22D041
:1024A0000F2D039504D8012DDFD0002DE1D009E0D8
:1024B0001846002203A914F069F9039B44F8180C8C
:1024C00044F8103C2A46514614F0E8FE039D54F8A7
:1024D000180CCEE72746046084604046C8F80470B4
:1024E00004B0BDE8F087044814F03AF9034814F04A
:1024F0003AF900BFF8FFFF7F9C870108C8870108F1
:10250000F0B583B0002302AC04E90600044611488C
:10251000B0EB820FA360C4E9003318D396007EB1FC
:1025200030460F4613F080FF0546394632463544A3
:102530002060A56014F0B2FE2046656003B0F0BDD7
:10254000354620462660A660656003B0F0BD0248AF
:1025500014F009F9FCFFFF7FC88701082DE9F0415D
:10256000044600F1080782B00846276088461546F1
:10257000FDF710FF0F280646019017D8012812D149
:1025800098F800302372002366602046BB55D5E9D9
:1025900000122B60E261AA68A1616B60AB602262ED
:1025A00002B0BDE8F0810028EDD008E0002201A9CA
:1025B000204614F0EBF8019B07462060A3603246EA
:1025C0003846414614F06AFE019E2768DBE700BFEB
:1025D0002DE9F041044600F1080782B00846276063
:1025E00088461546FDF7D6FE0F280646019017D8F7
:1025F000012812D198F8003023720023666020462B
:10260000BB55D5E900122B60E261AA68A1616B603D
:10261000AB60226202B0BDE8F0810028EDD008E096
:10262000002201A9204614F0B1F8019B0746206062
:10263000A36032463846414614F030FE019E2768BA
:10264000DBE700BF2DE9F047D1E90024002382B089
:10265000A41A0D4680468360C0E9003349D0284B58
:102660009C424BD8204613F0DFFE82465444C8E912
:1026700000AAC8F80840D5E90069B14533D00AF18D
:1026800018040AE03B7804F8103C1836002344F89C
:10269000145C18344E45435525D0A4F110007568DC
:1026A000A4F11803A24644F8180C3768EF4200D092
:1026B0000FB30F2D019504D8012DE3D0002DE4D0E8
:1026C00009E01846002201A914F060F8019B44F8C3
:1026D000180C44F8103C2A46394614F0DFFD019DE1
:1026E00054F8180CD1E74046C8F804A002B0BDE881
:1026F000F087A246BAE7034814F032F814F02DF838
:10270000F8FFFF7F9C8701082DE980480021A5B0D4
:10271000BA4804F041FD5C2013F086FE044602F046
:102720004FFBB74BDFF840B30AA81C6006ACB549B5
:10273000B54EFEF703FAB54D5946DFF830A303A8AE
:10274000FFF780FF002303AA0AA9009410A80996A6
:102750000895CDF818A001F0B7FE10A9AC48FFF716
:102760009DFB10A8FFF7ECFB2046FFF78DFB03A8AD
:10277000FEF72CFADFF8F8920AA8DFF8F88214F0D6
:1027800027F8A4490AA8A44FFEF7D8F9494603A898
:102790009FEDA28AFFF756FF002303AA0AA900941F
:1027A00010A8CDF818A0CDE9085601F08DFE10A9AB
:1027B0009B48FFF773FB10A8FFF7C2FB2046FFF70B
:1027C00063FB03A8FEF702FA0AA814F001F8954982
:1027D0000AA8FEF7B3F9414603A8FFF733FF002329
:1027E00003AA0AA9009410A8CDF818A0CDE90856AC
:1027F00001F06AFE10A98C48FFF750FB10A8FFF704
:102800009FFB2046FFF740FB03A8FEF7DFF90AA86D
:1028100013F0DEFF7F490AA8FEF790F9394603A8B6
:10282000FFF710FF002303AA0AA9009410A8CDF80F
:1028300018A0CDE9085601F047FE10A97B48FFF724
:102840002DFB10A8FFF77CFB2046FFF71DFB03A81C
:10285000FEF7BCF90AA813F0BBFF75490AA8FEF7FA
:102860006DF9744903A8FFF7EDFE002303AA0AA936
:10287000009410A8CDF818A0CDE9085601F024FE68
:1028800010A96D48FFF70AFB10A8FFF759FB204677
:10289000FFF7FAFA03A8FEF799F90AA813F098FFD0
:1028A00066490AA8FEF74AF9654903A8FFF7CAFE78
:1028B000002303AA0AA9009410A8CDF818A0CDE916
:1028C000085601F001FE10A95E48FFF7E7FA10A8CC
:1028D000FFF736FB2046FFF7D7FA03A8FEF776F995
:1028E0000AA813F075FF4B490AA8FEF727F95649C5
:1028F00003A8FFF7A7FE002303AA0AA9009410A8C3
:10290000CDF818A0CDE9085601F0DEFD10A94F481A
:10291000FFF7C4FA10A8FFF713FB2046FFF7B4FA3D
:1029200003A8FEF753F90AA813F052FF39490AA881
:10293000FEF704F9464903A8FFF784FE002303AA23
:102940000AA9009410A8CDF818A0CDE9085601F006
:10295000BBFD10A93F48FFF7A1FA10A8FFF7F0FA56
:102960002046FFF791FA03A8FEF730F90AA813F002
:102970002FFF39490AA8FEF7E1F8354903A8FFF708
:1029800061FE002303AA0AA9009410A8CDF818A09C
:10299000CDE9085601F098FD10A93048FFF77EFAFE
:1029A00010A8FFF7CDFA2046FFF76EFA03A8FEF74E
:1029B0000DF90AA813F00CFF29490AA8FEF7BEF882
:1029C000494603A8FFF73EFE002303AA0AA9009484
:1029D00010A8CDF818A0CDE9085601F075FD10A992
:1029E0002048FFF75BFA10A8FFF7AAFA2046FFF786
:1029F0004BFA03A8FEF7EAF80AA83DE0E40C00242D
:102A0000E00C0024FC870108850A0008AD0A0008D4
:102A1000BC09002408880108C00800240000000048
:102A20000C0A0024148801085C0A0024AC0A002463
:102A300020880108FC080024FC0A00242C880108D6
:102A4000F00800244C0B0024080300249C0B0024F5
:102A5000F4020024EC0B0024388801083C0C00240C
:102A6000448801088C0C002414030024910A0008F7
:102A7000CC0800240809002413F0AAFE544E554D3A
:102A800010ACB0EE480ADBE900239B1ADB1006FB12
:102A900003F300EE903A0FCD0FC495E80F00F8EE67
:102AA000600A84E80F00002210A94B4805F0CCF81A
:102AB00005F1100C0DF1400EB0EE480AD9E90023E3
:102AC0009B1ADB1006FB03F300EE903ABCE80F0004
:102AD000AEE80F009CE80F00F8EE600A84E80F00F3
:102AE000002210A93D4805F0AFF805F1300C0DF1BA
:102AF000400EB0EE480AD8E900239B1ADB1006FB13
:102B000003F300EE903ABCE80F00AEE80F009CE83B
:102B10000F00F8EE600A84E80F00002210A9304888
:102B200005F092F805F1500CB0EE480AD7E9002301
:102B30009B1ADB1006FB03F310AE00EE903ABCE8E4
:102B40000F000FC69CE80F00F8EE600A84E80F0043
:102B500010A90022234805F077F81F4805F0A4F8D3
:102B6000BDEEC00A204B1D4883ED000A05F09CF81D
:102B7000BDEEC00A1D4B1A4883ED000A05F094F81B
:102B8000BDEEC00A1A4B174883ED000A05F08CF819
:102B9000BDEEC00A174B0021174A184883ED000A02
:102BA000174B83ED008A122300931170154A164BC0
:102BB0001160164A1170426813F0AAFEA5F1680070
:102BC00004F080F8FFF7F4F9FFF748FBFAE700BFDD
:102BD000ABAAAAAA3C0D0024A8A200241C09002428
:102BE000E8A2002458090024A4A200241809002403
:102BF000E4A2002454090024E0A20024DC02002402
:102C000014090024DC0C00245088010890090024D9
:102C100010B50446006818B1A168091A13F0ECFB5E
:102C2000204610BD2DE9F04F8C6883B08B4681465D
:102C30000192002C36D0019BD3F800A0D3F8048079
:102C400000E014466669454627695046B045394656
:102C500028BF35462A4615B114F010FB08B9A8EB79
:102C600006000028D4E90212AEBF00210A46012165
:102C7000002AE6D1B9B9A3468DB12A465146384655
:102C800014F0FCFA58B100284FF000034846B4BFD6
:102C9000C9E9003BC9E9004303B0BDE8F08FA6EBEA
:102CA0000800F0E70C1DDBF80C30A34210D02046E2
:102CB000A34613F0F5FC019B0446D3F80480D3F837
:102CC00000A0D0E904764645354628BF4546D3E7FF
:102CD00000234846C9E9003403B0BDE8F08F00BFC7
:102CE0002DE9F04F1F460B1D83B00E469A42054654
:102CF0004DD01446D7E900B8D2E90419C246C845F8
:102D000028BFCA46BAF1000F1CD05246584601915E
:102D100014F0B4FA0028019902D1A8EB0903002BA2
:102D200014DB08465246594614F0A8FA08B9A9EB34
:102D30000800002850DB0023C5E90043284603B003
:102D4000BDE8F08FA8EB0903002BF0DAF368A3428B
:102D500017D0204613F0A4FCD0F814A08146C24539
:102D6000524628BF424622B15946006914F086FAFD
:102D700008B9AAEB0800002825DAD9F80C30002B96
:102D80004BD02846C5E9004403B0BDE8F08F4B693D
:102D9000CBB10C69D7F80480D4F81490C1454A46E9
:102DA00028BF424622B13968206914F067FA08B991
:102DB000A9EB0800002806DA00232846C5E90034FC
:102DC00003B0BDE8F08F28463A463146FFF72AFFA8
:102DD000284603B0BDE8F08F3369A342ECD020460B
:102DE00013F05CFCD0F814A08146C245524628BFBF
:102DF000424662B15846D9F8101014F03FFA30B18B
:102E00000028E0DAE3682BB1C5E9009996E7A8EB62
:102E10000A00F5E7C5E9003490E7C5E900398DE718
:102E20002DE9F04FADF52D7DA84964ACACAD204641
:102E3000FDF784FEA6496AA8FDF780FEA54970A8A3
:102E4000FDF77CFEA44976A8FDF778FEA3497CA88F
:102E5000FDF774FEA24982A8FDF770FEA14988A87B
:102E6000FDF76CFEA0498EA8FDF768FE9F4994A867
:102E7000FDF764FE9E499AA8FDF760FE9D49A0A853
:102E8000FDF75CFE9C49A6A8FDF758FE0C231AAA84
:102E90001A941B935DAB994806CAFFF7C1FA183D17
:102EA000284613F095FCA542F9D1954A88AE95497C
:102EB000924813F029FA94499448FDF73FFE94494B
:102EC0009448FDF73BFE94499448FDF737FE94493A
:102ED0009448FDF733FE94499448FDF72FFE94493A
:102EE0009448FDF72BFE94499448FDF727FE94493A
:102EF0009448FDF723FE94499448FDF71FFE94493A
:102F00009448FDF71BFE94499448FDF717FE944939
:102F10009448FDF713FE94499448FDF70FFE944939
:102F20009448FDF70BFE94499448FDF707FE944939
:102F30009448FDF703FE94499448FDF7FFFD94493A
:102F40009448FDF7FBFD94499448FDF7F7FD94493B
:102F50009448FDF7F3FD94499448FDF7EFFD94493B
:102F60009448FDF7EBFD94499448FDF7E7FD94493B
:102F70009448FDF7E3FD94499448FDF7DFFD94493B
:102F80009448FDF7DBFD94499448FDF7D7FD94493B
:102F90009448FDF7D3FD94499448FDF7CFFD94493B
:102FA0009448FDF7CBFD94499448FDF7C7FD94493B
:102FB0009448FDF7C3FD94499448FDF7BFFD94493B
:102FC0009448FDF7BBFD94499448FDF7B7FD94493B
:102FD0009448FDF7B3FD94499448FDF7AFFD94493B
:102FE0009448FDF7ABFD94499448FDF7A7FD94493B
:102FF0009448FDF7A3FD94499448FDF79FFD94493B
:103000009448FDF79BFD94499448FDF797FD94493A
:103010009448FDF793FD94499448FDF78FFD94493A
:103020009448FDF78BFD94499448FDF787FD94493A
:103030009448FDF783FD94499448FDF77FFD94493A
:103040009448FDF77BFD94499448FDF777FD94493A
:103050009448FDF773FD94499448FDF76FFD94493A
:103060009448FDF76BFD94499448FDF767FD94493A
:103070009448FDF763FD94499448FDF75FFD94493A
:103080009448FDF75BFD94499448FDF757FD94493A
:103090009448FDF753FD1A4A93491C4813F034F93C
:1030A00092492846FDF74AFD91496AA8FDF746FD79
:1030B000904970A8FDF742FD8F4976A8FDF73EFDC7
:1030C0008E497CA8FDF73AFD1AE100BF648801082B
:1030D000688801086C8801087088010874880108F4
:1030E000788801087C8801088088010884880108A4
:1030F000888801088C88010890880108FC08002451
:1031000000000024CD0B000894880108200300244F
:1031100098880108380300249C8801085003002483
:10312000A088010868030024A48801088003002403
:10313000A888010898030024AC880108B003002483
:10314000B0880108C8030024B4880108E003002403
:10315000B8880108F8030024BC8801081004002482
:10316000C088010828040024C48801084004002401
:10317000C888010858040024CC8801087004002481
:10318000D088010888040024D4880108A004002401
:10319000D8880108B8040024DC880108D004002481
:1031A000E0880108E8040024E48801080005002400
:1031B000E888010818050024EC880108300500247F
:1031C000F088010848050024F488010860050024FF
:1031D000F888010878050024FC880108900500247F
:1031E00000890108A805002404890108C0050024FD
:1031F00008890108D80500240C890108F00500247D
:1032000010890108080600241489010820060024FA
:1032100018890108380600241C890108500600247A
:1032200020890108680600242489010880060024FA
:1032300028890108980600242C890108B00600247A
:1032400030890108C806002434890108E0060024FA
:1032500038890108F80600243C8901081007002479
:1032600040890108280700244489010840070024F8
:1032700048890108580700244C8901087007002478
:10328000508901088807002454890108A0070024F8
:1032900058890108B80700245C890108D007002478
:1032A00060890108E80700246489010800080024F7
:1032B00068890108180800246C8901083008002476
:1032C00070890108480800247489010860080024F6
:1032D00078890108780800247C8901089008002476
:1032E00080890108A8080024A10B0008848901082E
:1032F0008C890108948901089C890108A489010826
:10330000B44982A8FDF71AFCB34988A8FDF716FC5A
:10331000072318AA189519935DABB04806CAFFF7A2
:103320007FF8304613F054FAB542A6F11806F8D1EA
:10333000AB4D4FF00709AB4A5DAFAB496DAEA74847
:103340004FF0000812F0E0FF0DF1580CDFF8BCA2BE
:103350000DF52C7B0FCDCDE916790FC795E8070049
:1033600008AB87E807009CE8060030A856AFFFF7D7
:10337000C7F830AA9D492046FFF7F0F805F10C0C7C
:103380000DF1500EBCE80F00CDE914790FC79CE891
:10339000070007AB87E807009EE806002DA84FAF9F
:1033A000FFF7AEF82DAA92493046FFF7D7F805F19E
:1033B000280C0DF1480EBCE80F00CDE912790FC7BB
:1033C0009CE8070006AB87E807009EE806002AA8ED
:1033D00048AFFFF795F82AAA864976A8FFF7F8F8CC
:1033E00005F1440C0DF1400EBCE80F00CDE9107959
:1033F0000FC79CE8070005AB87E807009EE80600BA
:1034000027A841AFFFF77CF827AA7B497FA8FFF7E1
:10341000DFF805F1600C0DF1380EBCE80F00CDE9C6
:103420000E790FC79CE8070004AB87E807009EE809
:10343000060024A83AAFFFF763F824AA6F4988A8CA
:10344000FFF7C6F805F17C0C0DF1300E9835BCE89D
:103450000F00CDE90C790FC79CE8070003AB87E8A4
:1034600007009EE8060021A833AFFFF749F8219B2B
:1034700084F8C0800DF1280CC4F8CC30229B0A9748
:10348000C4F8D030239BCDF82C90C4F8D43093AB43
:10349000CDF88480C4F8B430594BCDF8888093932C
:1034A0000423CDF88C80C4F8B8300FCD0FC795E851
:1034B000070002AB87E807009CE806001EA8FFF79C
:1034C0001FF81EAA44499AA8FFF748F80AF1040316
:1034D0008AF80480CAF80880CAF81480CAE903335D
:1034E00026E0484B9F4200F2C882384612F09CFF0B
:1034F000034656E90310421A1F4488422F63C5E968
:103500000A3305D01846019213F0D6FE019A0346FD
:10351000134429464A464046EB623B4B13F0C2F83F
:10352000DAF814300133CAF814302436B3456FD0BA
:10353000354AA6F124031CA8111FFFF7D1FBDDF8C3
:103540007490B9F1000FF0D02F4A1C9BA9EB020830
:10355000B8FA88F84FEA5818002B18BF48F001084D
:10356000B8F1000F00F07582342012F05DFF0546BF
:10357000183056E909372861FB4202D0002B00F0D1
:103580007E820F2F099713D8012F0ED11B782B762F
:1035900000236F61C3552B6356E90310C5E90A3355
:1035A000471A9ED13A463B46A6E7002FF0D00AE0E4
:1035B000002209A905F11000019313F0E7F8099A18
:1035C000019B2861AA613A46194613F067FE099FDC
:1035D0002869DDE7AC890108B4890108F0080024F6
:1035E0007883010800000024CD0B000884890108BD
:1035F0008C890108948901089C890108A489010823
:103600004D69786FFCFFFF7FDC080024D808002498
:103610009AAD05F11800FFF7FBFA284613F0D8F829
:10362000AC42A5F12405F4D11EA87CADFFF7F0FA59
:1036300021A8FFF7EDFA24A8FFF7EAFA27A8FFF779
:10364000E7FA2AA8FFF7E4FA2DA8FFF7E1FA30A875
:10365000FFF7DEFAAB4AAC49AC4812F055FEAC4974
:103660002046FDF76BFAAB496AA8FDF767FAAA494D
:1036700070A8FDF763FAA94976A8FDF75FFA04235D
:103680005DAA5D945E9356ABA54806CAFEF7C8FED8
:10369000183D284613F09CF8A542F9D1994A82AD0D
:1036A000A0499F4812F030FE9F492046FDF746FA98
:1036B0009E496AA8FDF742FA9D4970A8FDF73EFAB7
:1036C0009C4976A8FDF73AFA9B497CA8FDF736FAA3
:1036D000052356AA569457934FAB984806CAFEF74F
:1036E0009FFE183D284613F073F8A542F9D1854A8C
:1036F000ACAD8C49914812F007FE91492046FDF788
:103700001DFA90496AA8FDF719FA8F4970A8FDF7CC
:1037100015FA8E4976A8FDF711FA8D497CA8FDF7B8
:103720000DFA8C4982A8FDF709FA88A88A49FDF7A5
:1037300005FA8EA88949FDF701FA94A88849FDF792
:10374000FDF99AA88749FDF7F9F9A0A88649FDF780
:10375000F5F9A6A88549FDF7F1F90C234FAA4F9476
:10376000509348AB824806CAFEF75AFE183D2846D9
:1037700013F02EF8A542F9D1624A82AD69497C481E
:1037800012F0C2FD7B492046FDF7D8F97A496AA8B4
:10379000FDF7D4F9794970A8FDF7D0F9784976A8F2
:1037A000FDF7CCF977497CA8FDF7C8F9052348AAAD
:1037B0004894499341AB744806CAFEF731FE183D60
:1037C000284613F005F8A542F9D14E4A82AD554975
:1037D0006D4812F099FD4E492046FDF7AFF96B494F
:1037E0006AA8FDF7ABF96A4970A8FDF7A7F976A8B2
:1037F0006849FDF7A3F97CA86749FDF79FF9052300
:1038000041AA419442933AAB644806CAFEF708FEC7
:10381000183D284612F0DCFFA542F9D1394A0024B0
:1038200040495E4812F070FD5D485E4A00F5104365
:103830005D4E5E49C3F890215D4AC3F88C41C3F8E0
:103840009441C3F8A841046044610462C0F8E440B4
:10385000C3E96662574A584EC3F8A021294A12F0BC
:1038600053FD5648274A00F1080355494460047245
:103870003446036012F048FD524A534B92E803006D
:1038800083E8030028465149FDF758F950496AA8D2
:10389000FDF754F94F4970A8FDF750F9032233ABF7
:1038A0003A953B923AAA4C4806CAFEF7B9FD70A871
:1038B00012F08EFF6AA812F08BFF284612F088FFE4
:1038C000104A184906F54875434812F01DFD204678
:1038D000503400F0E5FDAC42F9D10A4A3F49364880
:1038E00012F012FD3E4B3F4A03F1500403F1F00584
:1038F00013603D493D483E4A046003F1A004156051
:1039000078E000BF00000024590D0008D80800240A
:10391000BC890108C4890108CC890108D48901083F
:10392000C0080024CD0B0008DC890108E0890108EB
:10393000E4890108E8890108EC890108CC08002421
:10394000F0890108F8890108008A0108048A010841
:103950000C8A0108148A01081C8A0108208A0108BF
:10396000288A0108308A0108388A0108408A01083B
:1039700008090024488A01084C8A0108548A010871
:103980005C8A0108648A0108140300246C8A010817
:10399000748A01087C8A0108848A010808030024CB
:1039A000E40C00240107010680707FF06D0A000816
:1039B0000FF80700D88B0108BC090024DC020024A2
:1039C000056901084C020024000300248C8A0108C8
:1039D000908A0108948A0108F4020024950C0008DA
:1039E0000C0A002498090024A8090024B80900241E
:1039F000B40900240E6003F5A0712248224A046035
:103A000003F5C870116003F5F071204A03F50C74DA
:103A100003F5207310601E4A1E4811601E490460A1
:103A20000B601E4A1E491F4812F06EFC1B4A1C49BF
:103A30001D4812F069FC194A19491C4812F064FC2F
:103A4000164A17491A480DF52D7DBDE8F04F12F0C2
:103A50005BBC56F8207CD9F814503A46AF4228BFD8
:103A60002A4632B1D9F8101056F8240C13F006FC8F
:103A700000B9781B4FEAD07876E512F06EFE0D485B
:103A800012F06EFE9C090024B0090024AC09002449
:103A9000A4090024A00900249409002400000024A3
:103AA000690A0008A8A200241C090024E8A2002436
:103AB000580900249C870108FFF7B2B9F0B500F15E
:103AC000080783B0076029B3044608460E46FCF792
:103AD00061FC0F28054601900DD8012808D13378E4
:103AE0002372019B002122686360D15403B0F0BDB2
:103AF0000028F6D008E0002201A9204612F046FE78
:103B0000019B07462060A3602A463146384613F0E1
:103B1000C5FBE6E7014812F023FE00BF9C870108C1
:103B2000914200F094802DE9F04F0D4687B0924607
:103B3000804600F104092AE0484B9B4500F28B8047
:103B4000584612F071FC0346D5E9061CACEB0102A5
:103B500003EB0B008C452063C4E90A3305D01846FB
:103B6000019213F0A9FB019A034603EB020C2146D4
:103B70004B463A463046C4F82CC012F093FDD8F8B4
:103B800014300133C8F814302435AA455CD02B46D4
:103B90004A46414604A8FFF7A3F8059F002FF3D03B
:103BA000A9EB0706049BB6FA86F67609002B18BF28
:103BB00046F00106002E38D0342012F035FC0446C1
:103BC0001830D5E900B320611BEB030F02D0BBF125
:103BD000000F3DD00F2B039315D8012B10D19BF86C
:103BE0000020227600226361C2542263D5E9061CBC
:103BF000C4E90A22BCEB010B9ED15A465B46A7E7FB
:103C0000002BEFD00AE0002203A904F11000019379
:103C100012F0BCFD039A019B2061A2611A4659462D
:103C200013F03CFB039B2069DCE76E687C6932463D
:103C3000A64228BF224622B13969286813F01EFB2C
:103C400000B9301BC60FB7E707B0BDE8F08F70476B
:103C5000034812F085FD12F080FD00BFFCFFFF7FDE
:103C60009C8701082DE9F04FADF5297DA84960AC8E
:103C700059AFA8AD2046FFF721FFA64966A8FFF778
:103C80001DFFA5496CA8FFF719FFA44972A8FFF70B
:103C900015FFA34978A8FFF711FFA2497EA8FFF7F7
:103CA0000DFFA14984A8FFF709FFA0498AA8FFF7E3
:103CB00005FF9F4990A8FFF701FF9E4996A8FFF7CF
:103CC000FDFE9D499CA8FFF7F9FE9C49A2A8FFF7BD
:103CD000F5FE0C2318AA189419933B46984806CA77
:103CE000FEF79EFB183D284612F072FDA542F9D161
:103CF000944A84AE9449924812F006FB9349944842
:103D0000FFF7DCFE93499448FFF7D8FE93499448A7
:103D1000FFF7D4FE93499448FFF7D0FE93499448A7
:103D2000FFF7CCFE93499448FFF7C8FE93499448A7
:103D3000FFF7C4FE93499448FFF7C0FE93499448A7
:103D4000FFF7BCFE93499448FFF7B8FE93499448A7
:103D5000FFF7B4FE93499448FFF7B0FE93499448A7
:103D6000FFF7ACFE93499448FFF7A8FE93499448A7
:103D7000FFF7A4FE93499448FFF7A0FE93499448A7
:103D8000FFF79CFE93499448FFF798FE93499448A7
:103D9000FFF794FE93499448FFF790FE93499448A7
:103DA000FFF78CFE93499448FFF788FE93499448A7
:103DB000FFF784FE93499448FFF780FE93499448A7
:103DC000FFF77CFE93499448FFF778FE93499448A7
:103DD000FFF774FE93499448FFF770FE93499448A7
:103DE000FFF76CFE93499448FFF768FE93499448A7
:103DF000FFF764FE93499448FFF760FE93499448A7
:103E0000FFF75CFE93499448FFF758FE93499448A6
:103E1000FFF754FE93499448FFF750FE93499448A6
:103E2000FFF74CFE93499448FFF748FE93499448A6
:103E3000FFF744FE93499448FFF740FE93499448A6
:103E4000FFF73CFE93499448FFF738FE93499448A6
:103E5000FFF734FE93499448FFF730FE93499448A6
:103E6000FFF72CFE93499448FFF728FE93499448A6
:103E7000FFF724FE93499448FFF720FE93499448A6
:103E8000FFF71CFE93499448FFF718FE93499448A6
:103E9000FFF714FE93499448FFF710FE93499448A6
:103EA000FFF70CFE93499448FFF708FE93499448A6
:103EB000FFF704FE93499448FFF700FE93499448A6
:103EC000FFF7FCFD93499448FFF7F8FD93499448A8
:103ED000FFF7F4FD93499448FFF7F0FD194A934921
:103EE0001B4812F011FA92492846FFF7E7FD914965
:103EF00066A8FFF7E3FD90496CA8FFF7DFFD8F4947
:103F000072A8FFF7DBFD8E4978A8FFF7D7FD19E10E
:103F100064880108688801086C88010870880108B5
:103F200074880108788801087C8801088088010865
:103F300084880108888801088C8801089088010815
:103F4000FCA8002400000024CD0B00089488010880
:103F500020A300249888010838A300249C88010825
:103F600050A30024A088010868A30024A4880108A5
:103F700080A30024A888010898A30024AC88010825
:103F8000B0A30024B0880108C8A30024B4880108A5
:103F9000E0A30024B8880108F8A30024BC88010825
:103FA00010A40024C088010828A40024C4880108A3
:103FB00040A40024C888010858A40024CC88010823
:103FC00070A40024D088010888A40024D4880108A3
:103FD000A0A40024D8880108B8A40024DC88010823
:103FE000D0A40024E0880108E8A40024E4880108A3
:103FF00000A50024E888010818A50024EC88010821
:1040000030A50024F088010848A50024F4880108A0
:1040100060A50024F888010878A50024FC88010820
:1040200090A5002400890108A8A50024048901089E
:10403000C0A5002408890108D8A500240C8901081E
:10404000F0A500241089010808A60024148901089D
:1040500020A600241889010838A600241C8901081C
:1040600050A600242089010868A60024248901089C
:1040700080A600242889010898A600242C8901081C
:10408000B0A6002430890108C8A60024348901089C
:10409000E0A6002438890108F8A600243C8901081C
:1040A00010A700244089010828A70024448901089A
:1040B00040A700244889010858A700244C8901081A
:1040C00070A700245089010888A70024548901089A
:1040D000A0A7002458890108B8A700245C8901081A
:1040E000D0A7002460890108E8A70024648901089A
:1040F00000A800246889010818A800246C89010818
:1041000030A800247089010848A800247489010897
:1041100060A800247889010878A800247C89010817
:1041200090A8002480890108A8A80024A10B0008F9
:10413000848901088C890108948901089C890108F7
:10414000A4890108BC497EA8FFF7B8FCBB4984A834
:10415000FFF7B4FC072316AA169517933B46B848F9
:1041600006CAFEF75DF9304612F032FBB542A6F101
:104170001806F8D1B34E4FF0070AB34A0DF5A478EC
:10418000B2490DF1480BAE484FF0000912F0BCF8EF
:10419000BC460DF1500E96AD0FCEACE80F0096E880
:1041A000070007AB8CE80700CDE9147A2CA89EE83D
:1041B0000600FEF7A5F92CAAA5492046FEF7CEF980
:1041C00006F10C0EC446BEE80F00ACE80F009EE8F6
:1041D000070006AB8CE80700CDE9128A29A89BE806
:1041E0000600FEF78DF929AA9A4969A8FEF7B6F9E3
:1041F00006F1280E0DF5967C0DF1400BBEE80F0080
:10420000CDE910CAACE80F009EE8070005AB8CE8CA
:1042100007009BE8060026A80DF1380BFEF770F9A1
:1042200026AA8D4972A8FEF7D3F944AB06F1440ED5
:10423000CDF83CA00E939C46BEE80F00ACE80F0002
:104240009EE8070004AB8CE807009BE8060023A863
:104250000DF1300BFEF754F923AA80497BA8FEF735
:10426000B7F93DAB06F1600ECDF834A00C939C4637
:10427000BEE80F00ACE80F009EE8070003AB8CE837
:1042800007009BE8060020A80DF1280BFEF738F97F
:1042900020AA734984A8FEF79BF936AB06F17C0E81
:1042A000CDF82CA00A939C469836BEE80F00ACE8E7
:1042B0000F009EE8070002AB8CE807009BE80600B1
:1042C0001DA8FEF71DF92FAB84F8C0900DF1200E4C
:1042D0009C46CDE9083A1D9BCDF87490C4F8CC30CB
:1042E0001E9BCDF87890C4F8D0301F9BCDF87C9001
:1042F000C4F8D4308FABC4F8B4305A4B8F93042336
:10430000C4F8B8300FCEACE80F0096E8070001AB58
:104310008CE807009EE806001AA8FEF7F1F81AAA32
:1043200046492846FEF71AF94F489FAA2146031D21
:1043300080F80490C0F80890C0F81490C0E90333E6
:10434000FFF7EEFB05F11800FEF762FC284612F0BD
:104350003FFAA542A5F12405F4D11AA878ADFEF7DD
:1043600057FC1DA8FEF754FC20A8FEF751FC23A81B
:10437000FEF74EFC26A8FEF74BFC29A8FEF748FCEA
:104380002CA8FEF745FC304A3849374811F0BCFFED
:1043900037492046FFF792FB364966A8FFF78EFBA8
:1043A00035496CA8FFF78AFB344972A8FFF786FBF2
:1043B00004233C607B604346314897E80600FEF7E3
:1043C0002FF8183D284612F003FAA542F9D11E4AEB
:1043D0007EAD1E492A4811F097FF2A492046FFF773
:1043E0006DFB66A82849FFF769FB6CA82749FFF712
:1043F00065FB72A82649FFF761FB78A82549FFF7FE
:104400005DFB0522C8F800404BABC8F804202248E9
:1044100098E80600FEF704F8183D284612F0D8F98F
:10442000A542F9D1084A09491B480DF5297DBDE887
:10443000F04F11F069BF00BFAC890108B4890108D1
:10444000F0A800243C84010800000024CD0B0008E3
:10445000848901088C890108948901089C890108D4
:10446000A48901084D69786FD8A80024590D000867
:10447000BC890108C4890108CC890108D4890108D4
:10448000C0A80024DC890108E0890108E48901084A
:10449000E8890108EC890108CCA80024FFF7E2BBF9
:1044A000002200F1240110B400F10C0482600273B8
:1044B000446080F824205DF8044BC2638264C0E944
:1044C0000712C0E90D2270472DE9F04F2DED028B48
:1044D00089B00446934608EE101A0193002304F1B4
:1044E0001C0783600373036280F82430C363836412
:1044F000C0E90D3300F10C03436000F124030430E4
:10450000836112F09DF904F134039B4540D0D4F847
:104510003490E26BDBE9005AA2EB0902AAEB050832
:104520004245C0F08180A66BA6EB0901884500F2E8
:10453000C480B8F1000F16DD4FEAE806A44ACA4667
:1045400002FB06F62946504612F07AF9013E05F1C3
:1045500018050AF1180AF5D1B8F1000FA66BCCBF07
:104560004246182291444E450FD009F1080555F8EE
:10457000080CA84204D0D9F80810013111F03CFF12
:1045800009F118091835B145F1D1636B4344A363B0
:10459000019B236000230693149B9E68002E00F06D
:1045A000888004AD022214992846B047149BD3E9B1
:1045B000026C95E8030002AA04F1400382E80300BC
:1045C00093E8030085E8030092E8030083E8030012
:1045D000A36CE26CA6640693C4F84CC007921BB1AE
:1045E000032229462846984718EE101A384612F03A
:1045F00027F9A3680A2B11D00025226A6FF04043E7
:104600009A4200F0DC80012272493846154412F0CB
:10461000FDF9A368C3F10A03AB42EED8204609B006
:10462000BDEC028BBDE8F08FB8F1000F00F099806F
:10463000694B984500F2C680404611F0F5FE814670
:10464000AA4500F0968009F1180B08EE907A0EE06A
:10465000012E40F088803B780BF8103C1835002381
:104660004BF8146C0BF1180BAA4583557FD0ABF1B6
:104670001000ABF11803D5E900764BF8180CF7429F
:1046800002D0002F00F0A0800F2E0496E0D918462B
:10469000002204A912F07AF8049B4BF8180C4BF88E
:1046A000103C3246394612F0F9FD049E5BF8180CB6
:1046B000D4E7DDF81CC004AD7BE7CA1044480029EC
:1046C00000FB02F210DD16462946484612F0B8F803
:1046D000013E05F1180509F11809F5D1D4E90D9647
:1046E000DBE9005AA6EB09010D44554564D01836A4
:1046F000BB46A9460DE0012D2CD13B7806F8103CB5
:1047000009F11809002346F8145C1836D1454355C1
:1047100023D0A6F11000A6F1180346F8180CD9E929
:104720000075EF4201D0002F4ED00F2D0495E2D935
:104730001846002204A912F029F8049B46F8180C28
:1047400046F8103C2A46394612F0A8FD049D56F85A
:10475000180CD5E7002DD3D0F4E7636B5F464344D4
:1047600015E7C1466CE7002E3FF478AF99E718EEE5
:10477000907AD4E90D6A56450FD006F1080555F830
:10478000080CA84203D0B168013111F035FE18368B
:104790001835B245F3D1D4F834A0BAF1000F05D0E2
:1047A000E16B5046A1EB0A0111F026FE09EB08036C
:1047B000C4F83490E363EAE609EB0803E7E6074848
:1047C00011F0D1FF11F0C9FF054811F0C9FF00BF7A
:1047D000ABAAAAAA10880108F8FFFF7F0C8C010879
:1047E0009C8701082DE9F043044608300B6883B02C
:1047F0004F6B206003EB4303D1E907964FEAC308F0
:1048000019EB060F07EBC30502D0B9F1000F26D054
:104810000F2E019614D8012E0FD199F80030237273
:1048200000236660835520466A6857F8081012F026
:10483000EDF8204603B0BDE8F083002EF0D007E08D
:10484000002201A9204611F0A1FF019B2060A36076
:104850003246494612F022FD019E2068E0E70148F9
:1048600011F07EFF9C870108D0E90D320168D31A50
:104870004A1CDB1010B5084C04FB03F3B2FBF3F148
:1048800003FB11230360836C23B1C36C4030BDE88C
:104890001040184711F06DFFABAAAAAA0368013BAC
:1048A000002B036008DA084AD0E90D135B1ADB100D
:1048B00002FB03F3013B0360836C13B1C36C403014
:1048C000184710B511F055FFABAAAAAA836C016076
:1048D00013B1C36C4030184710B511F04AFF00BF48
:1048E000F0B500F1080783B0076029B30446084615
:1048F0000E46FBF74FFD0F28054601900DD8012805
:1049000008D133782372019B002122686360D1545F
:1049100003B0F0BD0028F6D008E0002201A920462F
:1049200011F034FF019B07462060A3602A46314600
:10493000384612F0B3FCE6E7014811F011FF00BF62
:104940009C870108F0B5002483B000F13C060546C1
:104950001B4B21460094026C304611F0D9FF2B68A6
:10496000A3420FDC27E06FF040432A6C9B1A012B17
:1049700023D9022213493046013412F047F82B683C
:10498000A34218DDAB68A342EDD12B6C6FF040471A
:10499000BB4212D001220C49304612F037F82B6C82
:1049A000BB420AD0012209493046013412F02EF8E8
:1049B0002B68A342E6DC03B0F0BD054811F0D3FE3E
:1049C00004960108288C0108248C0108108801082D
:1049D0000C8C010838B542680446836953F82210EC
:1049E0000029816022DB806D01F084F807EE100A57
:1049F000B8EEC77A6368B2EE086ADFED146A013375
:104A00002046C7EE067AD4E90612521A921093FB9A
:104A1000F2F167EEA67A02FB11336360F8FE677A63
:104A2000C4ED037ABDE83840FFF78CBF856D12F006
:104A30000BFDA36D024628461B6D92FBF3F101FBB3
:104A4000132101F057F807EE100AD1E7CDCC4C4402
:104A5000D0E9042101328A42026100DA7047002263
:104A60000261FFF7B7BF00BF2DE9F84FD0E9008919
:104A70000F4692466FF06041A9EB0802B1EBA20F1E
:104A800054D093100646A7EB0805012B1C4638BFEF
:104A900001241C1948D2002C3CD1A346DAF800307E
:104AA000002D4BF8053024DCA9EB07090435B9F1DA
:104AB000000F5D4413DC4D44B8F1000F04D1B46025
:104AC000C6E900B5BDE8F88FB168A1EB0801404622
:104AD00011F092FCB460C6E900B5BDE8F88F284635
:104AE00039464A464D4412F0D9FBB8F1000FE6D0E2
:104AF000EAE7A9EB07092A4641465846043512F071
:104B0000DBFBB9F1000F5D44E9DCB1684D44A1EB7A
:104B10000801DCE78C4228BF0C46A400204611F0B7
:104B200083FC83460444B9E7024CF7E7024811F0DE
:104B30001AFE00BFFCFFFF7F2C8C01082DE9F84F07
:104B4000D0E900890F4692466FF06041A9EB080258
:104B5000B1EBA20F54D093100646A7EB0805012B2A
:104B60001C4638BF01241C1948D2002C3CD1A34656
:104B7000DAF80030002D4BF8053024DCA9EB0709EA
:104B80000435B9F1000F5D4413DC4D44B8F1000F5A
:104B900004D1B460C6E900B5BDE8F88FB168A1EBF7
:104BA0000801404611F028FCB460C6E900B5BDE834
:104BB000F88F284639464A464D4412F06FFBB8F14B
:104BC000000FE6D0EAE7A9EB07092A464146584616
:104BD000043512F071FBB9F1000F5D44E9DCB168F6
:104BE0004D44A1EB0801DCE78C4228BF0C46A40031
:104BF000204611F019FC83460444B9E7024CF7E75C
:104C0000024811F0B0FD00BFFCFFFF7F2C8C0108B3
:104C100070B500230446806982B0216A04F118054A
:104C20002362C4E9063310B1091A11F0E5FB04F15F
:104C300024065F49304611F00BFF00BBA36D1B6DCE
:104C4000013B002B019308DA15E042F8043B019B7D
:104C5000E261013B002B01930DDBD4E90712914285
:104C60000A46F2D101AA2846FFF7FEFE019B013B4E
:104C7000002B0193F1DA0023636002B070BD4D494F
:104C8000304611F0E5FE78BBA26D0190136D002B4C
:104C90001CDDD4E9071399420B460DD043F8040BF1
:104CA000E361019801300190136D83420EDDD4E978
:104CB000071399420B46F1D101AA2846FFF7D4FE0B
:104CC000A26DEEE742F8043BE261019B013B002B41
:104CD0000193D0DDD4E9071291420A46F2D101AA2C
:104CE0002846FFF7C1FEF0E73349304611F0B0FE29
:104CF00060BBA26D0190136D012B0ADCBBE743F88A
:104D0000040BE361019801300190136D013B834274
:104D10000FDDD4E9071399420B46F0D101AA2846CA
:104D2000FFF7A2FEA26DEDE742F8043BE261019BB2
:104D3000013B002B01939EDDD4E9071291420A4604
:104D4000F2D101AA2846FFF78FFEF0E71B49304653
:104D500011F07EFED8B10023A26D0193116D99422E
:104D60000ADC88E740F8043BE061019B01330193D2
:104D7000116D99427FF77FAFD4E907108142084651
:104D8000F0D101AA2846FFF76FFEA26DEDE7D4E946
:104D900007124FF0FF339142019303D041F8043BD7
:104DA000E16168E701AA2846FFF7C8FE63E700BF94
:104DB0004C8A0108548A01085C8A0108648A010847
:104DC000F0B500F12C02002583B008260023022153
:104DD00006600446426200F13C07C3602A46056251
:104DE000856280F82C50056480F844500561124BB0
:104DF000C0E90655C0E90155009100F14401243095
:104E00008161294611F084FD01236C20636111F05A
:104E10000BFB064600F026FF09232946A665384607
:104E20000093064B226C11F073FD2046FFF7F0FE55
:104E3000204603B0F0BD00BF488A0108488C010835
:104E40002DE9F04FADF52D7DA84964ACACAD204601
:104E5000FFF746FDA6496AA8FFF742FDA54970A8DD
:104E6000FFF73EFDA44976A8FFF73AFDA3497CA8C9
:104E7000FFF736FDA24982A8FFF732FDA14988A8B5
:104E8000FFF72EFDA0498EA8FFF72AFD9F4994A8A1
:104E9000FFF726FD9E499AA8FFF722FD9D49A0A88D
:104EA000FFF71EFD9C49A6A8FFF71AFD0C231AAABE
:104EB0001A941B935DAB994806CAFDF7B1FA183DE9
:104EC000284611F085FCA542F9D1954A88AE95494E
:104ED000924811F019FA94499448FFF701FD94495A
:104EE0009448FFF7FDFC94499448FFF7F9FC944976
:104EF0009448FFF7F5FC94499448FFF7F1FC944976
:104F00009448FFF7EDFC94499448FFF7E9FC944975
:104F10009448FFF7E5FC94499448FFF7E1FC944975
:104F20009448FFF7DDFC94499448FFF7D9FC944975
:104F30009448FFF7D5FC94499448FFF7D1FC944975
:104F40009448FFF7CDFC94499448FFF7C9FC944975
:104F50009448FFF7C5FC94499448FFF7C1FC944975
:104F60009448FFF7BDFC94499448FFF7B9FC944975
:104F70009448FFF7B5FC94499448FFF7B1FC944975
:104F80009448FFF7ADFC94499448FFF7A9FC944975
:104F90009448FFF7A5FC94499448FFF7A1FC944975
:104FA0009448FFF79DFC94499448FFF799FC944975
:104FB0009448FFF795FC94499448FFF791FC944975
:104FC0009448FFF78DFC94499448FFF789FC944975
:104FD0009448FFF785FC94499448FFF781FC944975
:104FE0009448FFF77DFC94499448FFF779FC944975
:104FF0009448FFF775FC94499448FFF771FC944975
:105000009448FFF76DFC94499448FFF769FC944974
:105010009448FFF765FC94499448FFF761FC944974
:105020009448FFF75DFC94499448FFF759FC944974
:105030009448FFF755FC94499448FFF751FC944974
:105040009448FFF74DFC94499448FFF749FC944974
:105050009448FFF745FC94499448FFF741FC944974
:105060009448FFF73DFC94499448FFF739FC944974
:105070009448FFF735FC94499448FFF731FC944974
:105080009448FFF72DFC94499448FFF729FC944974
:105090009448FFF725FC94499448FFF721FC944974
:1050A0009448FFF71DFC94499448FFF719FC944974
:1050B0009448FFF715FC1A4A93491C4811F024F94B
:1050C00092492846FFF70CFC91496AA8FFF708FCB3
:1050D000904970A8FFF704FC8F4976A8FFF700FC01
:1050E0008E497CA8FFF7FCFB1AE100BF6488010829
:1050F000688801086C8801087088010874880108B4
:10510000788801087C880108808801088488010863
:10511000888801088C88010890880108FCAE00246A
:1051200000000024CD0B00089488010820A9002469
:105130009888010838A900249C88010850A90024F7
:10514000A088010868A90024A488010880A9002477
:10515000A888010898A90024AC880108B0A90024F7
:10516000B0880108C8A90024B4880108E0A9002477
:10517000B8880108F8A90024BC88010810AA0024F6
:10518000C088010828AA0024C488010840AA002475
:10519000C888010858AA0024CC88010870AA0024F5
:1051A000D088010888AA0024D4880108A0AA002475
:1051B000D8880108B8AA0024DC880108D0AA0024F5
:1051C000E0880108E8AA0024E488010800AB002474
:1051D000E888010818AB0024EC88010830AB0024F3
:1051E000F088010848AB0024F488010860AB002473
:1051F000F888010878AB0024FC88010890AB0024F3
:1052000000890108A8AB002404890108C0AB002470
:1052100008890108D8AB00240C890108F0AB0024F0
:105220001089010808AC00241489010820AC00246E
:105230001889010838AC00241C89010850AC0024EE
:105240002089010868AC00242489010880AC00246E
:105250002889010898AC00242C890108B0AC0024EE
:1052600030890108C8AC002434890108E0AC00246E
:1052700038890108F8AC00243C89010810AD0024ED
:105280004089010828AD00244489010840AD00246C
:105290004889010858AD00244C89010870AD0024EC
:1052A0005089010888AD002454890108A0AD00246C
:1052B00058890108B8AD00245C890108D0AD0024EC
:1052C00060890108E8AD00246489010800AE00246B
:1052D0006889010818AE00246C89010830AE0024EA
:1052E0007089010848AE00247489010860AE00246A
:1052F0007889010878AE00247C89010890AE0024EA
:1053000080890108A8AE0024A10B00088489010847
:105310008C890108948901089C890108A4890108E5
:10532000B44982A8FFF7DCFAB34988A8FFF7D8FA96
:10533000072318AA189519935DABB04806CAFDF764
:105340006FF8304611F044FAAE42A6F11806F8D1D3
:10535000AB4D4FF00709AB4A5DAFAB496DAEA74807
:105360004FF0000810F0D0FF0DF1580CDFF8BCA290
:105370000DF52C7B0FCDCDE916790FC795E8070009
:1053800008AB87E807009CE8060030A856AFFDF799
:10539000B7F830AA9D492046FDF7E0F805F10C0C5E
:1053A0000DF1500EBCE80F00CDE914790FC79CE851
:1053B000070007AB87E807009EE806002DA84FAF5F
:1053C000FDF79EF82DAA92493046FDF7C7F805F182
:1053D000280C0DF1480EBCE80F00CDE912790FC77B
:1053E0009CE8070006AB87E807009EE806002AA8AD
:1053F00048AFFDF785F82AAA864976A8FDF7E8F8B0
:1054000005F1440C0DF1400EBCE80F00CDE9107918
:105410000FC79CE8070005AB87E807009EE8060079
:1054200027A841AFFDF76CF827AA7B497FA8FDF7B5
:10543000CFF805F1600C0DF1380EBCE80F00CDE996
:105440000E790FC79CE8070004AB87E807009EE8C9
:10545000060024A83AAFFDF753F824AA6F4988A89C
:10546000FDF7B6F805F17C0C0DF1300E9835BCE86F
:105470000F00CDE90C790FC79CE8070003AB87E864
:1054800007009EE8060021A80AAFFDF739F833AB04
:1054900084F8C0809C46CDE90A39219BCDF88480F0
:1054A000C4F8CC30229BCDF88880C4F8D030239B40
:1054B000CDF88C80C4F8D43093ABC4F8B430584BDA
:1054C00093930423C4F8B8300FCDACE80F0095E8EF
:1054D000070002AB8CE8070097E806001EA8FDF75E
:1054E0000FF81EAA44499AA8FDF738F80AF10403F8
:1054F0008AF80480CAF80880CAF81480CAE903331D
:1055000026E0484B9F4200F2B681384610F08CFFEF
:10551000034656E90310421A1F4481422F63C5E92E
:105520000A3305D01846019211F0C6FE019A0346CF
:10553000134429464A464046EB623B4B11F0B2F811
:10554000DAF814300133CAF8143024365E456FD0CF
:10555000354AA6F124031CA8111FFDF7C1FBDDF895
:105560007490B9F1000FF0D02F4A1C9BA9EB0208F0
:10557000B8FA88F84FEA5818002B18BF48F001080D
:10558000B8F1000F00F06381342010F04DFF0546A4
:10559000183056E909372861FB4202D0002B00F091
:1055A0006C810F2F099713D8012F0ED11B782B7602
:1055B00000236F61C3552B6356E90310C5E90A3315
:1055C000471A9ED13A463B46A6E7002FF0D00AE0A4
:1055D000002209A905F11000019311F0D7F8099AEA
:1055E000019B2861AA613A46194611F057FE099FAE
:1055F0002869DDE7AC890108B4890108F0AE002410
:105600000085010800000024CD0B000884890108F2
:105610008C890108948901089C890108A4890108E2
:105620004D69786FFCFFFF7FDCAE0024D8AE00240C
:105630009AAD05F11800FDF7EBFA284611F0C8F80D
:10564000A542A5F12405F4D11EA87CADFDF7E0FA32
:1056500021A8FDF7DDFA24A8FDF7DAFA27A8FDF75F
:10566000D7FA2AA8FDF7D4FA2DA8FDF7D1FA30A869
:10567000FDF7CEFA824A8349834810F045FE8349FC
:105680002046FFF72DF982496AA8FFF729F98149D9
:1056900070A8FFF725F9804976A8FFF721F90423C0
:1056A0005DAA5D945E9356AB7C4806CAFCF7B8FED3
:1056B000183D284611F08CF8A542F9D1704A82AD08
:1056C0007749764810F020FE76492046FFF708F922
:1056D00075496AA8FFF704F9744970A8FFF700F943
:1056E000734976A8FFF7FCF872497CA8FFF7F8F831
:1056F000052356AA569457934FAB6F4806CAFCF73A
:105700008FFE183D284611F063F8A542F9D15C4A96
:10571000ACAD6349684810F0F7FD68492046FFF7D3
:10572000DFF867496AA8FFF7DBF8664970A8FFF75A
:10573000D7F8654976A8FFF7D3F864497CA8FFF746
:10574000CFF8634982A8FFF7CBF888A86149FFF733
:10575000C7F88EA86049FFF7C3F894A85F49FFF720
:10576000BFF89AA85E49FFF7BBF8A0A85D49FFF70C
:10577000B7F8A6A85C49FFF7B3F80C234FAA4F94DB
:10578000509348AB594806CAFCF74AFE183D2846D4
:1057900011F01EF8A542F9D1394A82AD404953486B
:1057A00010F0B2FD52492046FFF79AF851496AA815
:1057B000FFF796F8504970A8FFF792F84F4976A87E
:1057C000FFF78EF84E497CA8FFF78AF8052348AA10
:1057D0004894499341AB4B4806CAFCF721FE183D5B
:1057E000284610F0F5FFA542F9D1254A82AD2C4993
:1057F000444810F089FD25492046FFF771F86AA852
:105800004149FFF76DF870A84049FFF769F876A89D
:105810003F49FFF765F87CA83E49FFF761F805228C
:1058200041943AAB429241AA3B4806CAFCF7F8FDC4
:10583000183D284610F0CCFFA542F9D1104A18496E
:1058400035480DF52D7DBDE8F04F10F05DBD56F8E3
:10585000207CD9F814503A46AF4228BF2A4632B1CC
:10586000D9F8101056F8240C11F008FD00B9781B77
:105870004FEAD07888E610F070FF284810F070FFEB
:1058800000000024590D0008D8AE0024BC8901088E
:10589000C4890108CC890108D4890108C0AE00245C
:1058A000CD0B0008DC890108E0890108E4890108C2
:1058B000E8890108EC890108CCAE0024F0890108D0
:1058C000F8890108008A0108048A01080C8A010885
:1058D000148A01081C8A0108208A0108288A010804
:1058E000308A0108388A0108408A010808AF00247C
:1058F000488A01084C8A0108548A01085C8A010818
:10590000648A010814A900246C8A0108748A0108B9
:105910007C8A0108848A010808A900249C87010860
:10592000FFF78EBAF0B500F1080783B0076029B31E
:10593000044608460E46FAF72DFD0F28054601904D
:105940000DD8012808D133782372019B00212268E9
:105950006360D15403B0F0BD0028F6D008E0002207
:1059600001A9204610F012FF019B07462060A360AA
:105970002A463146384611F091FCE6E7014810F01E
:10598000EFFE00BF9C870108F0B583B0002302AC96
:1059900004E9060004460F48B0EB820FA360C4E997
:1059A000003314D3960076B130460F4610F03CFD1C
:1059B00005463946324635442060A56011F06EFC3C
:1059C000656003B0F0BD35462660A660F8E7024882
:1059D00010F0C9FEFCFFFF7FC8870108002878D0BF
:1059E0002DE9F04F804683B0D8F80C90B9F1000F44
:1059F00063D0D9F80CA0BAF1000F55D0DAF80CB08A
:105A0000BBF1000F47D0DBF80C40002C31D0E5682B
:105A1000F5B1EF6827B3FE68002E33D0F3686BB1A1
:105A2000D8680193FFF7DAFF019B182118469B689D
:105A3000019310F0E1FC019B002BF1D1B368182118
:105A40003046019310F0D8FC019BDBB11E46E5E720
:105A5000A5681821204610F0CFFC55B12C46D6E79A
:105A6000AE681821284610F0C7FC002EF0D035464D
:105A7000CFE7DBF808401821584610F0BDFC54B1C0
:105A8000A346C0E7BE681821384610F0B5FC002ECA
:105A9000E6D03746BFE7DAF808401821504610F044
:105AA000ABFC0CB1A246A9E7D9F80840182148463A
:105AB00010F0A2FC0CB1A1469BE7D8F808401821D1
:105AC000404610F099FC0CB1A0468DE703B0BDE84C
:105AD000F08F704738B5846805464CB1E068FFF731
