:020000040800F2
:1000000000000220250A0008210A000825B4000883
:10001000210A0008210A0008210A00080000000047
:10002000000000000000000000000000210A00089D
:10003000210A000800000000210A0008A9B30008F6
:10004000210A0008210A0008210A0008210A0008E4
:10005000210A0008210A0008210A0008210A0008D4
:10006000210A0008210A0008210A000889980008CE
:1000700095980008E9840008A1980008AD98000848
:1000800055B10008B98D0008210A0008210A0008AE
:10009000210A0008210A0008210A0008210A000894
:1000A000210A0008210A0008210A0008210A000884
:1000B000210A0008210A0008210A0008ED8D000825
:1000C000210A0008F98D0008210A000851A1000842
:1000D000210A000845AB0008EDAB000899AC000808
:1000E000210A0008210A000800000000210A000877
:1000F000210A0008210A0008210A00085DA1000861
:10010000210A0008210A0008210A0008210A000823
:1001100045AD0008F1AD0008B5870008210A0008C8
:100120009D870008A9870008210A0008210A000805
:10013000210A0008210A0008210A0008210A0008F3
:1001400000000000000000000000000000000000AF
:10015000210A0008210A0008210A00089DAE0008B3
:10016000058E0008210A0008B9B30008DDB30008B5
:10017000210A000801B40008210A0008210A000829
:10018000210A0008210A000849AF0008F5AF00085D
:10019000210A0008210A0008210A0008210A000893
:1001A000210A0008210A0008210A0008210A000883
:1001B000A9950008210A0008210A0008210A000860
:1001C000210A0008210A0008210A0008210A000863
:1001D000210A0008210A0008210A0008210A000853
:1001E000210A0008210A0008210A0008210A000843
:1001F000210A0008210A0008210A0008210A000833
:10020000210A0008210A0008210A0008210A000822
:10021000210A0008210A0008210A0008210A000812
:10022000210A0008210A0008210A00080000000035
:10023000210A0008210A000800000000210A000825
:10024000210A0008210A0008210A0008210A0008E2
:10025000210A0008210A0008210A0008210A0008D2
:10026000210A0008210A0008210A0008210A0008C2
:10027000210A0008210A0008A1B0000800000000BF
:10028000210A0008210A0008210A000800000000D5
:0802900000000000210A000833
:1002A00010B5054C237833B9044B13B10448AFF3B0
:1002B00000800123237010BDC00200240000000054
:1002C00068A1010808B5034B1BB103490348AFF30C
:1002D000008008BD00000000C402002468A10108DD
:1002E00001F0FF01102A2BDB10F0070F08D010F8E7
:1002F000013B013A8B422DD010F0070F42B3F6D1EB
:10030000F0B441EA012141EA014122F007047FF003
:1003100000070023F0E80256083C85EA010586EA5A
:10032000010685FA47F5A3FA87F586FA47F6A5FA96
:1003300087F68EB9EED1F0BC01F0FF0102F00702A2
:1003400032B110F8013B013A83EA010313B1F8D14D
:100350000020704701387047002D06BF354603382E
:10036000073815F0010F07D1013015F4807F02BF67
:10037000013015F4C03F0130F0BC0138704700BFB8
:1003800010F8012B11F8013B012A28BF9A42F7D03F
:10039000D01A7047034613F8012B002AFBD1181A14
:1003A0000138704781F0004102E000BF83F0004354
:1003B00030B54FEA41044FEA430594EA050F08BF00
:1003C00090EA020F1FBF54EA000C55EA020C7FEAC4
:1003D000645C7FEA655C00F0E2804FEA5454D4EB41
:1003E0005555B8BF6D420CDD2C4480EA020281EA0B
:1003F000030382EA000083EA010180EA020281EA43
:100400000303362D88BF30BD11F0004F4FEA013194
:100410004FF4801C4CEA113102D0404261EB4101A3
:1004200013F0004F4FEA03334CEA133302D0524229
:1004300063EB430394EA050F00F0A780A4F10104E5
:10044000D5F1200E0DDB02FA0EFC22FA05F280181F
:1004500041F1000103FA0EF2801843FA05F3594105
:100460000EE0A5F120050EF1200E012A03FA0EFC84
:1004700028BF4CF0020C43FA05F3C01851EBE371AE
:1004800001F0004507D54FF0000EDCF1000C7EEBCB
:1004900000006EEB0101B1F5801F1BD3B1F5001F09
:1004A0000CD349085FEA30004FEA3C0C04F1010428
:1004B0004FEA445212F5800F80F09A80BCF1004F51
:1004C00008BF5FEA500C50F1000041EB045141EAD3
:1004D000050130BD5FEA4C0C404141EB0101013C9C
:1004E00028BFB1F5801FE9D291F0000F04BF01468B
:1004F0000020B1FA81F308BF2033A3F10B03B3F15D
:1005000020020CDA0C3208DD02F1140CC2F10C02EC
:1005100001FA0CF021FA02F10CE002F11402D8BF4A
:10052000C2F1200C01FA02F120FA0CFCDCBF41EA16
:100530000C019040E41AA2BF01EB0451294330BDE5
:100540006FEA04041F3C1CDA0C340EDC04F11404C2
:10055000C4F1200220FA04F001FA02F340EA030099
:1005600021FA04F345EA030130BDC4F10C04C4F1DF
:10057000200220FA02F001FA04F340EA03002946BF
:1005800030BD21FA04F0294630BD94F0000F83F409
:10059000801306BF81F480110134013D4EE77FEAEC
:1005A000645C18BF7FEA655C29D094EA050F08BF38
:1005B00090EA020F05D054EA000C04BF1946104619
:1005C00030BD91EA030F1EBF0021002030BD5FEA5D
:1005D000545C05D14000494128BF41F0004130BD85
:1005E00014F580043CBF01F5801130BD01F00045D9
:1005F00045F0FE4141F470014FF0000030BD7FEA4C
:10060000645C1ABF194610467FEA655C1CBF0B4646
:10061000024650EA013406BF52EA033591EA030F5D
:1006200041F4002130BD00BF90F0000F04BF002155
:10063000704730B54FF4806404F132044FF0000588
:100640004FF0000150E700BF90F0000F04BF002101
:10065000704730B54FF4806404F1320410F0004567
:1006600048BF40424FF000013EE700BF42004FEA62
:10067000E2014FEA31014FEA02701FBF12F07F43DF
:1006800093F07F4F81F06051704732F07F4208BF96
:10069000704793F07F4F04BF41F40021704730B59D
:1006A0004FF4607401F0004521F000411CE700BFE9
:1006B00050EA010208BF704730B54FF000050AE06C
:1006C00050EA010208BF704730B511F0004502D56D
:1006D000404261EB41014FF4806404F132045FEA6F
:1006E000915C3FF4D8AE4FF003025FEADC0C18BF18
:1006F00003325FEADC0C18BF033202EBDC02C2F10A
:10070000200300FA03FC20FA02F001FA03FE40EA9B
:100710000E0021FA02F11444BDE600BF53B94AB9F4
:10072000002908BF00281CBF4FF0FF314FF0FF30F9
:1007300000F074B9ADF1080C6DE904CE00F006F8D4
:10074000DDF804E0DDE9022304B070472DE9F0474D
:10075000089D04468E46002B4DD18A42944669D9A5
:10076000B2FA82F252B101FA02F3C2F1200120FA88
:1007700001F10CFA02FC41EA030E94404FEA1C48D6
:10078000210CBEFBF8F61FFA8CF708FB16E341EAD2
:10079000034306FB07F199420AD91CEB030306F158
:1007A000FF3080F01F81994240F21C81023E634479
:1007B0005B1AA4B2B3FBF8F008FB103344EA03441D
:1007C00000FB07F7A7420AD91CEB040400F1FF3332
:1007D00080F00A81A74240F207816444023840EA6F
:1007E0000640E41B00261DB1D4400023C5E90043A8
:1007F0003146BDE8F0878B4209D9002D00F0EF802B
:100800000026C5E9000130463146BDE8F087B3FA5D
:1008100083F6002E4AD18B4202D3824200F2F98045
:10082000841A61EB030301209E46002DE0D0C5E948
:10083000004EDDE702B9FFDEB2FA82F2002A40F094
:100840009280A1EB0C014FEA1C471FFA8CFE012697
:10085000200CB1FBF7F307FB131140EA01410EFB3B
:1008600003F0884208D91CEB010103F1FF3802D2E2
:10087000884200F2CB804346091AA4B2B1FBF7F0DC
:1008800007FB101144EA01440EFB00FEA64508D9FF
:100890001CEB040400F1FF3102D2A64500F2BB803C
:1008A0000846A4EB0E0440EA03409CE7C6F120078B
:1008B000B34022FA07FC4CEA030C20FA07F401FAD1
:1008C00006F31C43F9404FEA1C4900FA06F3B1FB5A
:1008D000F9F8200C1FFA8CFE09FB181140EA0141BF
:1008E00008FB0EF0884202FA06F20BD91CEB01015C
:1008F00008F1FF3A80F08880884240F28580A8F1B4
:1009000002086144091AA4B2B1FBF9F009FB101105
:1009100044EA014100FB0EFE8E4508D91CEB0101A3
:1009200000F1FF346CD28E456AD90238614440EA46
:100930000840A0FB0294A1EB0E01A142C846A646C6
:1009400056D353D05DB1B3EB080261EB0E0101FA4F
:1009500007F722FA06F3F1401F43C5E900710026AC
:100960003146BDE8F087C2F12003D8400CFA02FC02
:1009700021FA03F3914001434FEA1C471FFA8CFE12
:10098000B3FBF7F007FB10360B0C43EA064300FB02
:100990000EF69E4204FA02F408D91CEB030300F1A0
:1009A000FF382FD29E422DD9023863449B1B89B257
:1009B000B3FBF7F607FB163341EA034106FB0EF3E0
:1009C0008B4208D91CEB010106F1FF3816D28B428D
:1009D00014D9023E6144C91A46EA004638E72E4659
:1009E000284605E70646E3E61846F8E64B45A9D251
:1009F000B9EB020864EB0C0E0138A3E74646EAE7C0
:100A0000204694E74046D1E7D0467BE7023B61446D
:100A100032E7304609E76444023842E7704700BFD6
:100A2000FEE700BF0B480C4A904203D0121A0B4954
:100A300016F094FD0A480B4A904203D0121A002186
:100A400016F0B4FD0AF0A2FE16F044FD01F008FF16
:100A5000FEE700BF00000024C0020024A0A101089E
:100A6000C00200248CE50024704700BF704700BF1F
:100A7000704700BF49424FF480621430C9B216F08B
:100A800095BD00BF0368184740207047802070471D
:100A9000014B186804F086B91409002410B5044607
:100AA00040F2144115F0DCFD204610BDF0B500F118
:100AB000080783B0076029B3044608460E46FFF7CF
:100AC00069FC0F28054601900DD8012808D133781C
:100AD0002372019B002122686360D15403B0F0BDF2
:100AE0000028F6D008E0002201A9204615F082FF78
:100AF000019B07462060A3602A463146384616F01F
:100B00002DFDE6E7014815F05FFF00BF5C8A010894
:100B10002AB1012A07D0022A08D000207047054BCD
:100B20000360002070470160002070470B6803607D
:100B3000F3E700BF808E010838B50B460C4605462A
:100B4000006853F8081B994218D005F1080290423A
:100B50000DD0626829606A60A168AA68A96058B16E
:100B60002060A260002322686360137038BD626851
:100B7000C5E90012A268AA602360F3E762682AB19F
:100B8000012A07D016F0EAFC2868626800236A6030
:100B90008354E7E7237A037028686268F6E700BFAA
:100BA00070B5064600F5B46500F5B26454F8080C5B
:100BB000183DA042A4F1180403D0A968013115F032
:100BC0004FFDAE42F2D1304670BD00BF2DE9F0417D
:100BD000B02482B000F1080600F1100500F11408FD
:100BE000002728468DF807400134394607F090FF6A
:100BF000642301220DF107013046E4B209F028FC1C
:100C0000394628468DF8077007F082FF01226423D9
:100C10000DF10701304609F01BFC10233946284628
:100C20008DF8073007F074FF642301220DF10701EE
:100C3000304609F00DFC0121284607F069FF8022AB
:100C4000414664233046904409F002FCB82CC7D1D9
:100C500002B0BDE8F08100BFF8B5D0E90056074604
:100C6000B5420FD005F1080454F8080C844204F191
:100C7000180403D0A968013115F0F2FC1835AE4212
:100C8000F2D13E6826B1B9683046891B15F0E8FC00
:100C90003846F8BD2DE9F041804600F53476B36C56
:100CA00023B106F14001032208469847D6E90D57C3
:100CB000BD4228460FD005F1080454F8080C8442C0
:100CC00004F1180403D0A968013115F0C9FC1835E6
:100CD000AF42F2D1706B18B1F16B091A15F0C0FC7C
:100CE000F06906F12403984203D0716A013115F0CE
:100CF000B7FC706806F10C03984203D0F16801312B
:100D000015F0AEFC4645A6F1500301D01E46C6E7DD
:100D10003046BDE8F08100BFE8B138B5044625464D
:100D2000E068FFF7F9FFA468AB6A18461BB1296BAE
:100D3000C91A15F095FC286905F11803984203D0EB
:100D4000A969013115F08CFC3421284615F088FC86
:100D5000002CE4D138BD704710B504468068FFF719
:100D6000DBFF204610BD00BF30B50D4C87B00D4BEA
:100D700025686846196803F025FE2846694603F091
:100D8000A3FF009802AB984203D00299013115F0FD
:100D900067FC206807B0BDE8304004F003B800BF2E
:100DA00014090024AC09002430B50E4D87B0286822
:100DB00003F056FF0C4B04466846196803F002FE28
:100DC0002046694605F0BEF9009802AB984203D070
:100DD0000299013115F044FC286807B0BDE83040A5
:100DE00003F0E0BF14090024BC0900242DE9F04FF2
:100DF00085B0A1F1200504AC9DF83870009104E99C
:100E00000C00EBB25E2B00F29580036880465D4AD1
:100E1000DB689DF8084093429DF8096040F094809B
:100E20008020B8F804302344834200F38380D8F84C
:100E30000030554A9B68934240F088804020B8F8C3
:100E4000062093190192834274DC002E00F0898001
:100E500006FB05F56FF00040039B964628442E44A0
:100E6000B8F804A003EB4000023B03EB460B30F85C
:100E7000026FBCB30EF007034FF0010C4FEADE0225
:100E800051460CFA03FC0AF114034FFA8CFC03EBF5
:100E9000C21200236FEA0C0942440EE07F2907D8F2
:100EA000BEF13F0F04D815789FB14CEA05051570C7
:100EB0000133013201319C4214D006FA03F52D04AE
:100EC000ECD47F29F4D8BEF13F0FF1D81578002F6C
:100ED000EBD0013309EA0505013201319C4202F8E9
:100EE000015CEAD158450EF1010EC0D1D8F80030AE
:100EF00054442449DA68A4B28A422DD18020844225
:100F00001CD29B68204AA8F80440934221D140207B
:100F1000019B834207D3D8F800301B4A9B68934259
:100F200029D13F230193DDE90003A8F8063005B07D
:100F3000BDE8F08F002005B0BDE8F08FDA681149F8
:100F40008A4211D17F24DCE798476AE740469847F8
:100F500075E740469847DBE740469047D8F80030B1
:100F6000CDE7B8F804A0C1E7404690470138D8F86B
:100F7000003084B2C5E740469847013883B20193F8
:100F8000D1E700BF8D0A0008890A00082DE9F04F5B
:100F900089B008AC9DF84870019104E90C000B7809
:100FA000002B00F0AB801A469DF818809DF8193090
:100FB0000646454690460393079B0593A8F12004F7
:100FC000E3B25E2B00F29E8033685E4ADB68934298
:100FD00040F09B808020B3882B44834200F39280B2
:100FE0003368594A9B68934240F092804020F188D0
:100FF000039A02918B18834200F38480002A00F048
:10100000918002FB04F46FF00049059BA144144455
:10101000B6F804B003EB4909023BCDF8108003EBAE
:1010200044030C469A4639F802CFA5B304F00703EF
:101030004FF0010EE20859460EFA03FE0BF11403BD
:101040004FFA8EFE03EBC21200236FEA0E08324401
:101050000DE07F2906D83F2C04D8107897B14EEACE
:1010600000001070013301320131AB4213D00CFA91
:1010700003F00004EDD47F29F4D83F2CF2D8107887
:10108000002FECD0013308EA000001320131AB42FD
:1010900002F8010CEBD1D14504F10104C3D1DDF814
:1010A000108032680BEB05042649D368A4B28B424A
:1010B00034D18020844204D3D36822498B423AD170
:1010C0007F249368204AB480934224D14020029B1D
:1010D000834206D333681C4A9B68934225D13F2341
:1010E0000293029BF380019B1878404507D113F8C7
:1010F000018F0193B8F1000F7FF460AF002009B0B9
:10110000BDE8F08F4FF00008EDE73046984762E702
:10111000304698476BE730469847D8E730469847BF
:101120003268C7E7B6F804B0BBE730469847431EBD
:101130009BB20293D5E7304698470138326884B2B3
:10114000BFE700BF8D0A0008890A00087F291ED862
:101150003F2A1CD86BB1D3084FF0010C02F00702F4
:1011600001EBC3130CFA02F2C1180B7D1A430A7586
:101170007047D3084FF0010C02F0070201EBC313D4
:101180000CFA02FCC1180A7D22EA0C020A757047AB
:101190002DE9F04F83B05C1A0C9E002C9DF8349022
:1011A000A6EB0208B8BF6442B8F1000FB8BFC8F19F
:1011B00000088B428CBF4FF0010A4FF0FF3A964275
:1011C000A4EB080C51D84FF0FF357F2B019512D8B6
:1011D0003F2E10D8F50806F0070E012703EBC515C2
:1011E0000544B9F1000F47D007FA0EF795F814E05F
:1011F00047EA0E072F75964201D18B4229D0C8F1DC
:1012000000077F2914D83F2A12D8D50802F0070B0F
:101210004FF0010E01EBC5150544B9F1000F1BD0CD
:101220000EFA0BFE95F814B04EEA0B0E85F814E09A
:10123000B7EB4C0F4FEA4C0502DAACEB080C51440B
:10124000AC4202DD019DA4442A449942D9D1964280
:10125000D7D103B0BDE8F08F0EFA0BFB95F814E080
:101260002EEA0B0E85F814E0E2E701257F2B0195AD
:10127000C5D83F2EAED9C2E707FA0EFE2F7D9642A3
:1012800027EA0E072F75B8D0B9E700BF00000000AD
:101290002DE9F04F2DED068B83B01F4680460D469D
:1012A0009DF8503016460193139B002BC0F221820B
:1012B000129A134406EE103ADDED127AB8EEC66BC0
:1012C0009FEDCD4BB8EEE77B9FEDCD5B27EE047B2A
:1012D00026EE046B87EE050B86EE05ABF7EEC08BB2
:1012E000B0EE680A15F0D0FD07EE907AB7EECAAB03
:1012F000F8EE679AB0EE408AB0EE680A15F0C8FFC3
:1013000060EE698AB0EE4A0A15F0BEFDB0EE409A72
:10131000B0EE4A0A15F0BCFF20EE690A29EE888A71
:1013200029EE899A70EE687AF0EE006A39EE487A12
:1013300067EEA77AE7EE077AF4EEE67AF1EE10FAB6
:1013400006D5139BB42B40F396804FF0010901E0C2
:101350004FF00009012478424FF0000C0095E31B88
:10136000214627462246A340B9F1000F6AD14242E6
:1013700006EE90CACCF1000107EE102AB8EEE66A3C
:1013800007EE901A06EE900AB8EEC77A139A66EE48
:10139000084AF8EEE77AB42A27EE284AF8EEE66A19
:1013A00067EE885A74EEC43A26EEA85A26EE096A09
:1013B00066EE806A67EE897A27EE007AF5EEC03A2B
:1013C00040F3F280F1EE10FA00F17F8176EE473AB9
:1013D00074EEC54AF5EEC03AF1EE10FAF5EEC04AE9
:1013E000CCBF01220022F1EE10FA00F1778136EE37
:1013F000666A35EEC55AB5EEC06AF1EE10FAB5EE82
:10140000C05ACCBF01210021F1EE10FA00F16F812A
:1014100077EEE66AF5EEC06AF1EE10FACCBF01276E
:10142000002775EEC45AF5EEC05AF1EE10FA00F13D
:10143000478177EEC77AF5EEC07AF1EE10FACCBFAD
:1014400001240024002A40F08A80002964D1BFB919
:10145000C4BB9C4558DB0CF1010C03EB4C0E1CEBA0
:10146000000F0EF1010E00F0C08098424FDB734672
:1014700000287FF779AF03B0BDEC068BBDE8F08F95
:10148000009DA6EB0C0E00EB050ABAF17F0FDFD82A
:10149000BEF13F0FDCD84FEADE0B019D0AEBCB1A01
:1014A000002D00F0B1800EF0070BC2444FF0010E8A
:1014B0000EFA0BFE9AF814B04EEA0B0E8AF814E0FE
:1014C000002CC6D0009DA6EB0C0EA5EB000ABAF1CD
:1014D0007F0FBED8BEF13F0FBBD84FEADE0B019D98
:1014E0000AEBCB1A002D00F0AE800EF0070BC244C1
:1014F0004FF0010E9C450EFA0BFE9AF814B04EEA1E
:101500000B0E8AF814E0A6DA98429E46AFDA013054
:101510000EEB40030133ABE7009D0CEB060E00EB36
:10152000050ABAF17F0F92D8BEF13F0F8FD84FEA6C
:10153000DE0B019D0AEBCB1A002D73D00EF0070BCA
:10154000C2444FF0010E0EFA0BFE9AF814B04EEAA8
:101550000B0E8AF814E0002F3FF47AAF90E7009D5D
:101560000CEB060EA5EB000ABAF17F0F3FF66DAF4C
:10157000BEF13F0F3FF669AF4FEADE0B019D0AEB6C
:10158000CB1A002D6DD00EF0070BC2444FF0010EA8
:101590000EFA0BFE9AF814B04EEA0B0E8AF814E01D
:1015A00000293FF454AFB7E7F1EE10FA7ED44A4673
:1015B00074EEC54AF5EEC04AF1EE10FA6CD4002183
:1015C00035EEC55AB5EEC05AF1EE10FA5AD40027DE
:1015D00075EEC45AF5EEC05AF1EE10FA3FF529AF98
:1015E0000024002A3FF431AFB9E798428FDB002393
:1015F0003BE700BFAFF300807A008BFCFA21094083
:101600000000000000806640C2444FF0010B0EF065
:10161000070E0BFA0EFE9AF814B02BEA0E0E8AF89B
:1016200014E015E7C2444FF0010B0EF0070E0BFA61
:101630000EFE9AF814B02BEA0E0E8AF814E0002F72
:101640003FF406AF1CE7C2444FF0010B0EF0070E4B
:101650000BFA0EFE9AF814B02BEA0E0E8AF814E07C
:10166000F7E6C2444FF0010B0EF0070E0BFA0EFE28
:101670009AF814B02BEA0E0E8AF814E000293FF411
:10168000E6AE49E777EEE66AF5EEC06AF1EE10FAEB
:10169000CCBF012700279BE736EE666AB5EEC06A2D
:1016A000F1EE10FACCBF0121002189E776EE473A2E
:1016B000F5EEC03AF1EE10FACCBF0122002277E736
:1016C0000124002A3FF4C1AE49E774EEC54A012265
:1016D000F5EEC04AF1EE10FA7FF589AE35EEC55A47
:1016E0000121B5EEC05AF1EE10FA7FF591AE012757
:1016F00097E6DDE91223134406EE102A1293139B9A
:101700005B421393D8E500BF2DE9F04F89B01D4629
:10171000884606901046129C10F8013B13999DF8DC
:101720005060009233B1002210F8013B0132002BCF
:10173000FAD193B22A78687812FB03F302B21BB293
:1017400023EAE373082900F2A981DFE811F002011E
:1017500014012001340142015001670171010900A7
:10176000A18827880F44B4F90610FF1A0029BFB2D8
:10177000C0F2FF80B4F802C006980CEB6104C2808E
:10178000A4EB52028380078094B24480A64AD8F822
:10179000003011460192DA688A4240F08D81802043
:1017A000B84205D8DA6801998A4240F09A817F27C9
:1017B0009E4A9B68A8F804709342039240F0898186
:1017C0004020A04207D8D8F80030039A9B68934283
:1017D00040F082813F24009BA8F8064093F800B0B7
:1017E0006B782C7804936B680793BBF1000F00F0C3
:1017F000AC80ABF12005EBB25E2B00F22E81D8F865
:101800000030019ADB68934240F02A818020B8F8CA
:10181000043023449842C0F22081D8F80030039A63
:101820009B68934240F01F814020B8F80610049A4C
:1018300002918B189842C0F21081002A00F01E819C
:1018400002FB05F56FF0004E079BAE441544CDF842
:1018500014B003EB4E0E023BB8F804A003EB4503B3
:101860000D469B463EF8027FA4B305F007034FF0F8
:10187000010CEA0851460CFA03FC0AF114034FFA72
:101880008CFC03EBC21200236FEA0C0942440DE00A
:101890007F2906D83F2D04D8107896B14CEA000075
:1018A00010700133013201319C4213D007FA03F06A
:1018B0000004EDD47F29F4D83F2DF2D81078002E03
:1018C000ECD0013309EA0000013201319C4202F8F8
:1018D000010CEBD1F34505F10105C3D1DDF814B0DE
:1018E000D8F800200AEB04050199D368ADB28B4209
:1018F00040F0BF808020854205D3D36801998B4298
:1019000040F0C5807F259368039AA8F8045093425D
:1019100040F0AC804020029B834208D3D8F80030CE
:10192000039A9B68934240F0AC803F230293029B52
:10193000A8F80630009A13785B4506D112F801BF6B
:101940000092BBF1000F7FF454AF069809B0BDE8D8
:10195000F08FB4F9041027880029B8BF013107EBD4
:101960006107B4F90610A7EB63070029BFB2BFF601
:1019700001AF0131FEE6B4F900700699B4F90240F6
:101980000F80BFB24C80A4B28B80CA80FEE6B4F94F
:10199000041027880029B4F90240B8BF013107EBD1
:1019A000610706998B80A7EB63034C80A4B29FB2BA
:1019B000CA800F80EAE6A1882788B4F902400F4464
:1019C00006998B80FB1A4C80A4B29FB2CA800F800C
:1019D000DCE6E78861883944B4F90070081A069992
:1019E00084B20F808B80BFB2CA804C80CEE6B4F93F
:1019F000041027880029B8BF013107EB6107A7EB66
:101A00006307B4F802C0BFB2E488069964448B80CF
:101A1000201ACA800F8084B24C80B7E62788A1883C
:101A20000F44FF1AEDE700BF8D0A0008890A00087D
:101A3000B4F90610B4F802C00029B4F90070069891
:101A4000B8BF0131C2800CEB610407808380BFB254
:101A5000A4EB520294B2448098E64FF0000B69E781
:101A600040469847D3E640469847DEE640469847CA
:101A700051E740469847D8F800203CE7B8F804A062
:101A80002EE740469847013883B202934FE740461D
:101A900098470138D8F8002085B234E7D8F80030EC
:101AA0000024069A1249148054809480D480DA6805
:101AB00001918A4205D0274640469047D8F8003029
:101AC0006EE69B680B4AA8F80440934203923FF4E9
:101AD00082AE4046984774E640469847013884B243
:101AE00079E6404690470138D8F8003087B25FE683
:101AF0008D0A0008890A00082DE9F04F87B09DF88B
:101B00004850109C2E4601959DF844509EB3994232
:101B10002ED89946A24228D87F29164694BF002382
:101B2000012308E09CF814804EEA080E8CF814E0BB
:101B30000136B44219D33F2EFAD8002BF8D14FEA20
:101B4000D60C06F0070E4FF0010801EBCC1C08FA8A
:101B50000EFE8444002DE5D19CF814B001362BEA2A
:101B60000E0AB4428CF814A0E5D201318945D1D2D5
:101B700007B0BDE8F08FA3EB0108B8F1000FB8BFC4
:101B8000C8F100089942C0F04E817F2B4FF0FF3A18
:101B900094BF002601263F2A009694BF0027012704
:101BA0000297A6B99FB9D60802F0070C012703EBEC
:101BB000C6160644002D00F0948107FA0CF796F83B
:101BC00014C047EA0C073775002602960096994222
:101BD00000F09781464694468E46BEF17F0F16D898
:101BE000BCF13F0F13D84FEADC070CF0070B4FF0A6
:101BF00001090EEBC7170744002D00F0398109FADF
:101C00000BF997F814B049EA0B0987F8149077009C
:101C100018BFD644B84502DD46440CF1FF3C73457D
:101C2000DBD16245D9D100260496A4EB0209009FBE
:101C3000B9F1000FB8BFC9F100093F2C94BF0026CD
:101C40000126A242C9F100080396C0F02381002FAB
:101C500040F05081002E40F04D814FF0FF3600964D
:101C6000E60803EBC6160644002D00F01E814FF077
:101C7000010C04F007070CFA07F796F814C047EABE
:101C80000C07377500260396A24200F03D81C4463A
:101C900016461F4605927F2F15D83F2E13D84FEAC0
:101CA000D60E06F0070B4FF0010A07EBCE1E864456
:101CB000002D00F0E6800AFA0BFA9EF814B04AEA0A
:101CC0000B0A8EF814A0B8EB4C0F4FEA4C0E02DA58
:101CD000ACEB090C013FBEF1000F01D0009A164495
:101CE000BB42D8D1B442D6D1059AA1EB030EBEF1C6
:101CF000000FB8BFCEF1000E7F2994BF4FF0000A4D
:101D00004FF0010A99428CBF4FF001094FF0FF39A3
:101D1000BAF1000F13D1039E8EB9E60801EBC61687
:101D20000644002D00F0D3804FF0010C04F00707AB
:101D30000CFA07F796F814C047EA0C073775049EAB
:101D400026BB774626467F2B14D83F2E12D84FEA63
:101D5000D60C06F0070B4FF0010803EBCC1C8444B3
:101D6000002D73D008FA0BF89CF814B048EA0B0861
:101D70008CF814805FEA470C18BF4B44E64501DD40
:101D80007744013E9942DED1B442DCD1A2EB040E8D
:101D9000BEF1000FB8BFCEF1000EA2428CBF4FF0D3
:101DA00001084FF0FF38CEF1000CBAF1000F0ED150
:101DB000029B63B9D30802F00707012601EBC313A6
:101DC0000344002D7CD0BE401F7D3E431E75019B09
:101DD000002B7FF4CDAE66460B467F2B12D83F2CEE
:101DE00010D8E70804F0070A4FF0010903EBC71702
:101DF0000744A5B309FA0AF997F814A049EA0A09B1
:101E000087F81490BCEB460F4FEA460702DAA6EBC0
:101E10000E06013B07B144449942DED1A242DCD117
:101E200007B0BDE8F08F3F2A4FF0010A94BF0026AB
:101E300001267F2B029694BF002701270097002ED2
:101E40007FF4C8AE002F3FF4AEAEC3E608FA0BFB3A
:101E50009CF8148028EA0B088CF814808AE709FAA9
:101E60000AFA97F8149029EA0A0987F81490C9E742
:101E700009FA0BFB97F8149029EA0B0987F81490DC
:101E8000C5E60AFA0BFB9EF814A02AEA0B0A8EF8A4
:101E900014A018E797BB8EBB01260096E60803EB5B
:101EA000C6160644002D7FF4E2AE012704F0070CAD
:101EB000039507FA0CFC377D27EA0C073775E3E634
:101EC00006FA07F71E7D26EA07061E757FE701273B
:101ED00004F0070C07FA0CFC377D27EA0C0737756E
:101EE0002DE707FA0CFC377D029527EA0C070095D1
:101EF00037756CE64FF0FF360096C5E60126009672
:101F0000C5E60126049690E601260196EDE600BF9F
:101F1000836810B5044613B1032201469847204652
:101F200010BD00BFF0B50D4651F8043B044687B024
:101F300040F8043B0027FEF7FFFD05F11C0104F10A
:101F40001C0002AEFEF7F8FD636BEA6B30460293AD
:101F5000A36B03936B6B6363AB6BA363E36BE26392
:101F6000EF630493C5E90D77FEF776FE05F1400CAB
:101F70006B4604F140029CE8030083E8030096E806
:101F800003008CE803000599D5F84CC0E964D5F846
:101F900048E0AF6493E8030086E8030092E803009A
:101FA00086E8030093E8030082E80300A36C304650
:101FB000C4F848E00493E36CC4F84CC00593FFF701
:101FC000A7FF07B0F0BD00BFF8B5836C064623B18C
:101FD00000F14001032208469847D6E90D57BD425B
:101FE0000FD005F1080454F8080C844204F11804D9
:101FF00003D0A968013114F033FB1835AF42F2D198
:10200000776B27B1F16B3846C91B14F029FBF069D7
:1020100006F12403984203D0716A013114F020FBC9
:10202000706806F10C03984203D0F168013114F096
:1020300017FB3046F8BD00BF38B54A4804F07CFFB6
:10204000484804F08DFF484805F062FFFDEEC07A75
:10205000464D17EE904A2B68A34205D017EE901A12
:10206000434802F019FD2C60424805F051FFFDEE97
:10207000C07A414D17EE904A2B68A34205D017EE67
:10208000901A3E4802F008FD2C603D4805F040FFE4
:10209000FDEEC07A3B4D17EE904A2B68A34205D067
:1020A00017EE901A384802F0F7FC2C60374805F01C
:1020B0002FFFFDEEC07A364D17EE904A2B68A342F3
:1020C00005D017EE901A334802F0E6FC2C60324C33
:1020D0002378DBB93149234D0A68686D0244092A27
:1020E00023DC002AC8BF13460B6095F841302C480A
:1020F000A3F17F03B3FA83F35B09237005F0C4FEF9
:1021000050BB284805F0C0FE30BB38BD154D6B6D87
:10211000002B0DDC15D0214B15481B6803EB830306
:1021200000EB031002F0A0FC0BE009230B60DCE7DE
:102130001A4B0F481B6803EB830300EB031002F0FC
:1021400079FC95F8413016487F3B18BF0123237076
:1021500005F09AFE0028D4D0134B1868BDE838402B
:1021600002F072BDE40C0024A8A20024A4A2002462
:10217000C0090024200900241C090024100A00249E
:10218000E4A20024E0A20024600A00245C090024E8
:1021900058090024B00A002494090024E00C00240B
:1021A000BC0D0024C20D00241409002410B50B4CF2
:1021B000206802F051FDBCEEC00A0021084810EE74
:1021C000103A9AB206F082FB206802F03FFD014609
:1021D0000448BDE8104006F09BBC00BF1409002471
:1021E000040D002498A2002489B24A4B92B27F29A0
:1021F00028BF7F213F2A2DE9F04F28BF3F22D0F88A
:1022000000A0454885B01D78A0F8A621A0F8A4112B
:102210005A789AF800B05B6802920393BBF1000F02
:1022200072D0ABF12003DAB25E2A70D83A49B1F825
:10223000A4E10EEB0502802A019268DCB1F8A62128
:10224000029900920A44402A61DC002945D0029A92
:102250006FF00047009802FB03F31F441344039AF6
:10226000A2F1020902EB470709EB430937F802CF55
:102270007DB300F007030126C20800249E4049F206
:10228000B413734476B203EBC213244A6FEA060810
:10229000134472460BE07F2A04D83F2802D81978ED
:1022A00031431970013401330132A54211D00CFAC7
:1022B00004F10904EFD47F2AF4D83F28F2D8197822
:1022C00001340133013208EA0101A54203F8011C7F
:1022D000EDD1B94500F10100C8D1009ABDF8043034
:1022E0003F2A0D4928BF3F227F2B28BF7F23A1F81B
:1022F000A621A1F8A4319AF800305B4504D11AF860
:1023000001BFBBF1000F8CD105B0BDE8F08F4FF0DD
:10231000000BF0E700030024E49C0024E40C0024FC
:10232000F0B58B4C89B04FF480620021894804AD30
:1023300015F03CF9216802A802F094FC002202A8E2
:102340001146FFF751FF0298A84203D004990131CA
:1023500014F086F9804B03F1800113F8012F42F04D
:10236000080299421A70F8D101223E2302A80021E6
:10237000ADF81030CDE902520B22FFF735FF02987D
:10238000A84203D00499013114F06AF9206802F0E0
:1023900067FC014602A8714C03F0E8FE029B20682E
:1023A000AB4200F0BC8004F10802904263D0049A72
:1023B0002360039B6360A368A260002860D0029042
:1023C00004930023039303700298A84203D0049956
:1023D000013114F045F9624B03F1800113F8012F2C
:1023E00042F0200299421A70F8D10295D4E90064B3
:1023F000E64202D0002E00F0A8800F2C01947FD876
:10240000012C7AD133782A468DF81030002302A8A7
:102410000394022113553622FFF7E6FE0298A842E4
:1024200003D00499013114F01BF94E4F4E4E3C6815
:1024300004EB840306EB031605E03B6801345036D9
:102440000433A34220DD092CF7DC314602A802F058
:1024500077FA3B6802A80721E31A03EB83035A00CB
:102460000C32FFF7C1FE0298A842E6D00499013170
:1024700014F0F6F8E1E7039AC4E90032049BA36084
:10248000029504AD28469CE7324EB024002537481B
:102490008DF808400134294606F03AFB64230122F6
:1024A00002A93348E4B207F0D3FF29462F488DF83C
:1024B000085006F02DFB0122642302A92C4807F0E6
:1024C000C7FF1023294629488DF8083006F020FB65
:1024D0006423012202A9264807F0BAFF01212348FC
:1024E00006F016FB8022314664232148164407F08B
:1024F000AFFFB82CCAD109B0F0BD24BB2A4685E78E
:10250000002201A902A814F075FA019B029004931D
:102510002246314615F022F8DDE9014276E7039ABA
:1025200032B1012A09D0294615F018F8039A20681B
:10253000002362608354029843E79DF810300370D3
:10254000039A2068F4E72846E2E70A4814F03CFAC8
:1025500014090024989E0024179F0024DC02002404
:1025600097A10024E00C0024C0090024949E0024BC
:102570008C9E00245C8A01082DE9F04784B0002479
:102580006B46846083E8060002EB42032F4AB2EBFD
:10259000C30F01EBC309C0E9004453D3DC008046FC
:1025A000002C43D00E46204614F072F80444B14586
:1025B0000746C8F80840C8F800003AD000F11804EF
:1025C0000BE09AF8003004F8103C1836002344F869
:1025D000145C1834B14543552BD0A4F11000A4F17C
:1025E0001803274644F8180CD6E900A51AEB050F86
:1025F00002D0BAF1000F22D00F2D039504D8012D7F
:10260000DFD0002DE1D009E01846002203A914F024
:10261000F1F9039B44F8180C44F8103C2A46514643
:1026200014F09CFF039D54F8180CCEE72746046075
:1026300084604046C8F8047004B0BDE8F0870448E0
:1026400014F0C2F9034814F0C2F900BFF8FFFF7F8D
:102650005C8A0108888A0108F0B583B0002302ACC7
:1026600004E9060004461148B0EB820FA360C4E9F8
:10267000003318D396007EB130460F4614F008F8A8
:1026800005463946324635442060A56014F066FFA1
:102690002046656003B0F0BD354620462660A66042
:1026A000656003B0F0BD024814F091F9FCFFFF7FB4
:1026B000888A01082DE9F041044600F1080782B03C
:1026C0000846276088461546FDF764FE0F28064633
:1026D000019017D8012812D198F8003023720023F6
:1026E00066602046BB55D5E900122B60E261AA68FE
:1026F000A1616B60AB60226202B0BDE8F08100288E
:10270000EDD008E0002201A9204614F073F9019BE6
:1027100007462060A36032463846414614F01EFF4B
:10272000019E2768DBE700BF2DE9F041044600F178
:10273000080782B00846276088461546FDF72AFE3E
:102740000F280646019017D8012812D198F80030BA
:102750002372002366602046BB55D5E900122B602A
:10276000E261AA68A1616B60AB60226202B0BDE861
:10277000F0810028EDD008E0002201A9204614F0E5
:1027800039F9019B07462060A3603246384641462E
:1027900014F0E4FE019E2768DBE700BF2DE9F04757
:1027A000D1E90024002382B0A41A0D46804683603C
:1027B000C0E9003349D0284B9C424BD8204613F047
:1027C00067FF82465444C8E900AAC8F80840D5E922
:1027D0000069B14533D00AF118040AE03B7804F8E7
:1027E000103C1836002344F8145C18344E45435509
:1027F00025D0A4F110007568A4F11803A24644F88E
:10280000180C3768EF4200D00FB30F2D019504D894
:10281000012DE3D0002DE4D009E01846002201A9E3
:1028200014F0E8F8019B44F8180C44F8103C2A46D0
:10283000394614F093FE019D54F8180CD1E7404638
:10284000C8F804A002B0BDE8F087A246BAE7034882
:1028500014F0BAF814F0B5F8F8FFFF7F5C8A0108AD
:102860002DE980480021A5B0BA4804F0C9FD5420E4
:1028700013F00EFFDFF850B3044602F059FBB64BDD
:102880000AA8B6491C60FEF711F9594603A806AC20
:10289000FFF784FFB24B03AAB24E0AA9B24D10A8AB
:1028A000069300230094DFF82493DFF824A3DFF8D5
:1028B0002483AE4F9FEDAE8ACDE9085601F0B2FEFB
:1028C00010A9AC48FFF72EFB10A8FFF77DFB2046B0
:1028D000FFF71EFB03A8FEF7BFF90AA814F0ACF837
:1028E000A5490AA8FEF7E2F8494603A8FFF756FFF4
:1028F000002303AA0AA9009410A8CDF818A0CDE9D6
:10290000085601F08FFE10A99C48FFF70BFB10A89A
:10291000FFF75AFB2046FFF7FBFA03A8FEF79CF9E6
:102920000AA814F089F896490AA8FEF7BFF84146AC
:1029300003A8FFF733FF934B03AA0AA9009410A83A
:1029400006930023CDE9085601F06CFE10A98E48CD
:10295000FFF7E8FA10A8FFF737FB2046FFF7D8FA91
:1029600003A8FEF779F90AA814F066F882490AA8C4
:10297000FEF79CF8394603A8FFF710FF002303AACF
:102980000AA9009410A8CDF818A0CDE9085601F0C6
:1029900049FE10A97D48FFF7C5FA10A8FFF714FB00
:1029A0002046FFF7B5FA03A8FEF756F90AA814F077
:1029B00043F877490AA8FEF779F8764903A8FFF7A4
:1029C000EDFE002303AA0AA9009410A8CDF818A0D0
:1029D000CDE9085601F026FE10A96F48FFF7A2FACC
:1029E00010A8FFF7F1FA2046FFF792FA03A8FEF7C6
:1029F00033F90AA814F020F868490AA8FEF756F837
:102A0000674903A8FFF7CAFE002303AA0AA9009496
:102A100010A8CDF818A0CDE9085601F003FE10A9C2
:102A20006048FFF77FFA10A8FFF7CEFA2046FFF7BD
:102A30006FFA03A8FEF710F90AA813F0FDFF4E493C
:102A40000AA8FEF733F8584903A8FFF7A7FE0023AA
:102A500003AA0AA9009410A8CDF818A0CDE9085639
:102A600001F0E0FD10A95148FFF75CFA10A8FFF74C
:102A7000ABFA2046FFF74CFA03A8FEF7EDF80AA8D8
:102A800013F0DAFF3C490AA8FEF710F8484903A8FA
:102A9000FFF784FE002303AA0AA9009410A8CDF82A
:102AA00018A0CDE9085601F0BDFD10A94148FFF777
:102AB00039FA10A8FFF788FA2046FFF729FA03A889
:102AC000FEF7CAF80AA813F0B7FF3B490AA8FDF7BA
:102AD000EDFF374903A8FFF761FE002303AA0AA907
:102AE000009410A8CDF818A0CDE9085601F09AFD81
:102AF00010A93248FFF716FA10A8FFF765FA20462A
:102B0000FFF706FA03A8FEF7A7F80AA813F094FF48
:102B10002B490AA8FDF7CAFF494603A8FFF73EFE66
:102B2000002303AA0AA9009410A8CDF818A0CDE9A3
:102B3000085601F077FD10A92248FFF7F3F910A815
:102B4000FFF742FA2046FFF7E3F903A8FEF784F8FF
:102B500042E000BFE40C002414090024BC8A0108F0
:102B6000690D0008850A0008110B0008C008002440
:102B700000000000C0090024C88A0108100A0024CF
:102B8000D48A0108A90D0008600A0024B00A0024B4
:102B9000E08A0108FC080024000B0024EC8A0108EC
:102BA000F0080024500B002408030024A00B00248C
:102BB000F4020024F00B0024F88A0108400C0024E1
:102BC000048B0108900C002414030024CC0800247A
:102BD000910A0008080900240AA813F02DFF544E9A
:102BE000544D10ACB0EE480ADBE900239B1ADB1011
:102BF00006FB03F300EE903A0FCD0FC495E80F00EB
:102C0000F8EE600A84E80F00002210A94A4805F097
:102C10004FF905F1100C0DF1400EB0EE480AD9E95C
:102C200000239B1ADB1006FB03F300EE903ABCE88E
:102C30000F00AEE80F009CE80F00F8EE600A84E891
:102C40000F00002210A93D4805F032F905F1300CC3
:102C50000DF1400EB0EE480AD8E900239B1ADB10B4
:102C600006FB03F300EE903ABCE80F00AEE80F005D
:102C70009CE80F00F8EE600A84E80F00002210A91B
:102C80002F4805F015F905F1500CB0EE480AD7E9C8
:102C900000239B1ADB1006FB03F310AE00EE903A04
:102CA000BCE80F000FC69CE80F00F8EE600A84E84D
:102CB0000F0010A90022234805F0FAF81E4805F07D
:102CC00027F9BDEEC00A204B1C4883ED000A05F031
:102CD0001FF9BDEEC00A1D4B194883ED000A05F02F
:102CE00017F9BDEEC00A1A4B164883ED000A05F02D
:102CF0000FF9BDEEC00A174B0021174A174883EDA4
:102D0000000A174B83ED008A122300931160154AC5
:102D1000154B1170426813F05BFFA5F1680004F0D9
:102D200007F9FFF789F9FFF7FBFAFFF73FFAF8E732
:102D3000ABAAAAAA3C0D0024A8A2002420090024C2
:102D4000E4A200245C090024A4A200241C0900249D
:102D5000E0A2002458090024E00C0024DC02002436
:102D60001809002494090024108B010810B50446AA
:102D7000006818B1A168091A13F072FC204610BD52
:102D80002DE9F04F8C6883B08B4681460192002C70
:102D900036D0019BD3F800A0D3F8048000E014469D
:102DA0006669454627695046B045394628BF3546CD
:102DB0002A4615B114F0C2FB08B9A8EB060000289A
:102DC000D4E90212AEBF00210A460121002AE6D151
:102DD000B9B9A3468DB12A465146384614F0AEFB28
:102DE00058B100284FF000034846B4BFC9E9003B82
:102DF000C9E9004303B0BDE8F08FA6EB0800F0E797
:102E00000C1DDBF80C30A34210D02046A34613F073
:102E10007BFD019B0446D3F80480D3F800A0D0E9E1
:102E200004764645354628BF4546D3E70023484645
:102E3000C9E9003403B0BDE8F08F00BF2DE9F04FC1
:102E40001F460B1D83B00E469A4205464DD01446D0
:102E5000D7E900B8D2E90419C246C84528BFCA4616
:102E6000BAF1000F1CD052465846019114F066FB8F
:102E70000028019902D1A8EB0903002B14DB0846B6
:102E80005246594614F05AFB08B9A9EB080000282D
:102E900050DB0023C5E90043284603B0BDE8F08FAE
:102EA000A8EB0903002BF0DAF368A34217D0204601
:102EB00013F02AFDD0F814A08146C245524628BF1F
:102EC000424622B15946006914F038FB08B9AAEB12
:102ED0000800002825DAD9F80C30002B4BD0284602
:102EE000C5E9004403B0BDE8F08F4B69CBB10C6974
:102EF000D7F80480D4F81490C1454A4628BF42460A
:102F000022B13968206914F019FB08B9A9EB08004F
:102F1000002806DA00232846C5E9003403B0BDE8DE
:102F2000F08F28463A463146FFF72AFF284603B07D
:102F3000BDE8F08F3369A342ECD0204613F0E2FCE9
:102F4000D0F814A08146C245524628BF424662B11D
:102F50005846D9F8101014F0F1FA30B10028E0DA30
:102F6000E3682BB1C5E9009996E7A8EB0A00F5E7FD
:102F7000C5E9003490E7C5E900398DE72DE9F04F48
:102F8000ADF52D7DA84964ACACAD2046FDF78EFDB6
:102F9000A6496AA8FDF78AFDA54970A8FDF786FD38
:102FA000A44976A8FDF782FDA3497CA8FDF77EFD24
:102FB000A24982A8FDF77AFDA14988A8FDF776FD10
:102FC000A0498EA8FDF772FD9F4994A8FDF76EFDFC
:102FD0009E499AA8FDF76AFD9D49A0A8FDF766FDE8
:102FE0009C49A6A8FDF762FD0C231AAA1A941B930C
:102FF0005DAB994806CAFFF7BFFA183D284613F0A3
:103000001BFDA542F9D1954A88AE9549924813F027
:10301000AFFA94499448FDF749FD94499448FDF767
:1030200045FD94499448FDF741FD94499448FDF7C6
:103030003DFD94499448FDF739FD94499448FDF7C6
:1030400035FD94499448FDF731FD94499448FDF7C6
:103050002DFD94499448FDF729FD94499448FDF7C6
:1030600025FD94499448FDF721FD94499448FDF7C6
:103070001DFD94499448FDF719FD94499448FDF7C6
:1030800015FD94499448FDF711FD94499448FDF7C6
:103090000DFD94499448FDF709FD94499448FDF7C6
:1030A00005FD94499448FDF701FD94499448FDF7C6
:1030B000FDFC94499448FDF7F9FC94499448FDF7C8
:1030C000F5FC94499448FDF7F1FC94499448FDF7C8
:1030D000EDFC94499448FDF7E9FC94499448FDF7C8
:1030E000E5FC94499448FDF7E1FC94499448FDF7C8
:1030F000DDFC94499448FDF7D9FC94499448FDF7C8
:10310000D5FC94499448FDF7D1FC94499448FDF7C7
:10311000CDFC94499448FDF7C9FC94499448FDF7C7
:10312000C5FC94499448FDF7C1FC94499448FDF7C7
:10313000BDFC94499448FDF7B9FC94499448FDF7C7
:10314000B5FC94499448FDF7B1FC94499448FDF7C7
:10315000ADFC94499448FDF7A9FC94499448FDF7C7
:10316000A5FC94499448FDF7A1FC94499448FDF7C7
:103170009DFC94499448FDF799FC94499448FDF7C7
:1031800095FC94499448FDF791FC94499448FDF7C7
:103190008DFC94499448FDF789FC94499448FDF7C7
:1031A00085FC94499448FDF781FC94499448FDF7C7
:1031B0007DFC94499448FDF779FC94499448FDF7C7
:1031C00075FC94499448FDF771FC94499448FDF7C7
:1031D0006DFC94499448FDF769FC94499448FDF7C7
:1031E00065FC94499448FDF761FC94499448FDF7C7
:1031F0005DFC1A4A93491C4813F0BAF992492846D3
:10320000FDF754FC91496AA8FDF750FC904970A85D
:10321000FDF74CFC8F4976A8FDF748FC8E497CA849
:10322000FDF744FC1AE100BF248B0108288B01083C
:103230002C8B0108308B0108348B0108388B010876
:103240003C8B0108408B0108448B0108488B010826
:103250004C8B0108508B0108FC080024000000245E
:10326000590C0008548B010820030024588B0108D6
:10327000380300245C8B010850030024608B010894
:1032800068030024648B010880030024688B010814
:10329000980300246C8B0108B0030024708B010894
:1032A000C8030024748B0108E0030024788B010814
:1032B000F80300247C8B010810040024808B010893
:1032C00028040024848B010840040024888B010812
:1032D000580400248C8B010870040024908B010892
:1032E00088040024948B0108A0040024988B010812
:1032F000B80400249C8B0108D0040024A08B010892
:10330000E8040024A48B010800050024A88B010810
:1033100018050024AC8B010830050024B08B01088F
:1033200048050024B48B010860050024B88B01080F
:1033300078050024BC8B010890050024C08B01088F
:10334000A8050024C48B0108C0050024C88B01080F
:10335000D8050024CC8B0108F0050024D08B01088F
:1033600008060024D48B010820060024D88B01080D
:1033700038060024DC8B010850060024E08B01088D
:1033800068060024E48B010880060024E88B01080D
:1033900098060024EC8B0108B0060024F08B01088D
:1033A000C8060024F48B0108E0060024F88B01080D
:1033B000F8060024FC8B010810070024008C01088B
:1033C00028070024048C010840070024088C010809
:1033D000580700240C8C010870070024108C010889
:1033E00088070024148C0108A0070024188C010809
:1033F000B80700241C8C0108D0070024208C010889
:10340000E8070024248C010800080024288C010807
:10341000180800242C8C010830080024308C010886
:1034200048080024348C010860080024388C010806
:10343000780800243C8C010890080024408C010886
:10344000A8080024A10B0008448C01084C8C01083A
:10345000548C01085C8C0108648C0108B44982A872
:10346000FDF724FBB34988A8FDF720FB072318AA22
:10347000189519935DABB04806CAFFF77DF8304642
:1034800013F0DAFAB542A6F11806F8D1AB4D4FF0B9
:103490000709AB4A5DAFAB496DAEA7484FF00008D6
:1034A00013F066F80DF1580CDFF8BCA20DF52C7B7B
:1034B0000FCDCDE916790FC795E8070008AB87E86F
:1034C00007009CE8060030A856AFFFF7C5F830AA01
:1034D0009D492046FFF7EEF805F10C0C0DF1500E5A
:1034E000BCE80F00CDE914790FC79CE8070007ABD3
:1034F00087E807009EE806002DA84FAFFFF7ACF85D
:103500002DAA92493046FFF7D5F805F1280C0DF1A8
:10351000480EBCE80F00CDE912790FC79CE8070000
:1035200006AB87E807009EE806002AA848AFFFF729
:1035300093F82AAA864976A8FFF7F6F805F1440C15
:103540000DF1400EBCE80F00CDE910790FC79CE8E3
:10355000070005AB87E807009EE8060027A841AFF3
:10356000FFF77AF827AA7B497FA8FFF7DDF805F176
:10357000600C0DF1380EBCE80F00CDE90E790FC7D5
:103580009CE8070004AB87E807009EE8060024A833
:103590003AAFFFF761F824AA6F4988A8FFF7C4F88B
:1035A00005F17C0C0DF1300E9835BCE80F00CDE92B
:1035B0000C790FC79CE8070003AB87E807009EE87B
:1035C000060021A833AFFFF747F8219B84F8C0809D
:1035D0000DF1280CC4F8CC30229B0A97C4F8D030E7
:1035E000239BCDF82C90C4F8D43093ABCDF88480D5
:1035F000C4F8B430594BCDF8888093930423CDF8A8
:103600008C80C4F8B8300FCD0FC795E8070002AB27
:1036100087E807009CE806001EA8FFF71DF81EAA11
:1036200044499AA8FFF746F80AF104038AF804808F
:10363000CAF80880CAF81480CAE9033326E0484B68
:103640009F4200F2C882384613F022F8034656E93A
:103650000310421A1F4488422F63C5E90A3305D07C
:103660001846019213F088FF019A03461344294635
:103670004A464046EB623B4B13F048F9DAF8143007
:103680000133CAF814302436B3456FD0354AA6F159
:1036900024031CA8111FFFF7D1FBDDF87490B9F1CA
:1036A000000FF0D02F4A1C9BA9EB0208B8FA88F84B
:1036B0004FEA5818002B18BF48F00108B8F1000F66
:1036C00000F07582342012F0E3FF0546183056E909
:1036D00009372861FB4202D0002B00F07E820F2FB9
:1036E000099713D8012F0ED11B782B7600236F6119
:1036F000C3552B6356E90310C5E90A33471A9ED117
:103700003A463B46A6E7002FF0D00AE0002209A97E
:1037100005F11000019313F06DF9099A019B2861DE
:10372000AA613A46194613F019FF099F2869DDE797
:103730006C8C0108748C0108F0080024388601089C
:1037400000000024590C0008448C01084C8C01082E
:10375000548C01085C8C0108648C01084D69786FF9
:10376000FCFFFF7FDC080024D80800249AAD05F197
:103770001800FFF7FBFA284613F05EF9AC42A5F1FA
:103780002405F4D11EA87CADFFF7F0FA21A8FFF7BD
:10379000EDFA24A8FFF7EAFA27A8FFF7E7FA2AA824
:1037A000FFF7E4FA2DA8FFF7E1FA30A8FFF7DEFAF9
:1037B000AB4AAC49AC4812F0DBFEAC492046FDF701
:1037C00075F9AB496AA8FDF771F9AA4970A8FDF728
:1037D0006DF9A94976A8FDF769F904235DAA5D94FE
:1037E0005E9356ABA54806CAFEF7C6FE183D2846AE
:1037F00013F022F9A542F9D1994A82ADA0499F4818
:1038000012F0B6FE9F492046FDF750F99E496AA87E
:10381000FDF74CF99D4970A8FDF748F99C4976A839
:10382000FDF744F99B497CA8FDF740F9052356AA0A
:10383000569457934FAB984806CAFEF79DFE183D25
:10384000284613F0F9F8A542F9D1854AACAD8C4968
:10385000914812F08DFE91492046FDF727F99049D5
:103860006AA8FDF723F98F4970A8FDF71FF98E4963
:1038700076A8FDF71BF98D497CA8FDF717F98C494F
:1038800082A8FDF713F988A88A49FDF70FF98EA8D9
:103890008949FDF70BF994A88849FDF707F99AA81B
:1038A0008749FDF703F9A0A88649FDF7FFF8A6A808
:1038B0008549FDF7FBF80C234FAA4F94509348AB72
:1038C000824806CAFEF758FE183D284613F0B4F8A1
:1038D000A542F9D1624A82AD69497C4812F048FE9E
:1038E0007B492046FDF7E2F87A496AA8FDF7DEF841
:1038F000794970A8FDF7DAF8784976A8FDF7D6F887
:1039000077497CA8FDF7D2F8052348AA4894499343
:1039100041AB744806CAFEF72FFE183D284613F047
:103920008BF8A542F9D14E4A82AD55496D4812F047
:103930001FFE4E492046FDF7B9F86B496AA8FDF70E
:10394000B5F86A4970A8FDF7B1F876A86849FDF79F
:10395000ADF87CA86749FDF7A9F8052341AA419471
:1039600042933AAB644806CAFEF706FE183D284665
:1039700013F062F8A542F9D1394A002440495E4863
:1039800012F0F6FD5D485E4A00F510435D4E5E495B
:10399000C3F890215D4AC3F88C41C3F89441C3F841
:1039A000A841046044610462C0F8E440C3E966626F
:1039B000574A584EC3F8A021294A12F0D9FD56485B
:1039C000274A00F1080355494460047234460360F5
:1039D00012F0CEFD524A534B92E8030083E80300F5
:1039E00028465149FDF762F850496AA8FDF75EF88C
:1039F0004F4970A8FDF75AF8032233AB3A953B9232
:103A00003AAA4C4806CAFEF7B7FD70A813F014F89E
:103A10006AA813F011F8284613F00EF8104A184956
:103A200006F54875434812F0A3FD2046503400F0D7
:103A3000E5FDAC42F9D10A4A3F49364812F098FDFB
:103A40003E4B3F4A03F1500403F1F00513603D493A
:103A50003D483E4A046003F1A004156078E000BFD1
:103A600000000024590D0008D80800247C8C0108AF
:103A7000848C01088C8C0108948C0108C0080024F7
:103A8000590C00089C8C0108A08C0108A48C01082A
:103A9000A88C0108AC8C0108CC080024B08C01086B
:103AA000B88C0108C08C0108C48C0108CC8C0108BA
:103AB000D48C0108DC8C0108E08C0108E88C01083A
:103AC000F08C0108F88C0108008D01080809002419
:103AD000088D01080C8D0108148D01081C8D01084A
:103AE000248D0108140300242C8D0108348D010855
:103AF0003C8D0108448D010808030024E40C0024D7
:103B00000107010680707FF06D0A00080FF80700BA
:103B1000988E0108C0090024DC020024C36B010850
:103B20004C020024000300244C8D0108508D010834
:103B3000548D0108F4020024950C0008100A00249A
:103B40009C090024AC090024BC090024B809002405
:103B50000E6003F5A0712248224A046003F5C87084
:103B6000116003F5F071204A03F50C7403F520731E
:103B700010601E4A1E4811601E4904600B601E4AF8
:103B80001E491F4812F0F4FC1B4A1C491D4812F044
:103B9000EFFC194A19491C4812F0EAFC164A174969
:103BA0001A480DF52D7DBDE8F04F12F0E1BC56F836
:103BB000207CD9F814503A46AF4228BF2A4632B189
:103BC000D9F8101056F8240C13F0B8FC00B9781B83
:103BD0004FEAD07876E512F0F4FE0D4812F0F4FECC
:103BE000A0090024B4090024B0090024A809002475
:103BF000A40900249809002400000024690A000890
:103C0000A8A2002420090024E4A200245C090024C6
:103C10005C8A0108FFF7B2B9F0B500F1080783B07C
:103C2000076029B3044608460E46FCF7B3FB0F288D
:103C3000054601900DD8012808D133782372019BE5
:103C4000002122686360D15403B0F0BD0028F6D093
:103C500008E0002201A9204612F0CCFE019B074695
:103C60002060A3602A463146384613F077FCE6E729
:103C7000014812F0A9FE00BF5C8A0108914200F0E1
:103C800094802DE9F04F0D4687B09246804600F1B2
:103C900004092AE0484B9B4500F28B80584612F0FD
:103CA000F7FC0346D5E9061CACEB010203EB0B0065
:103CB0008C452063C4E90A3305D01846019213F0FD
:103CC0005BFC019A034603EB020C21464B463A4645
:103CD0003046C4F82CC012F019FED8F81430013365
:103CE000C8F814302435AA455CD02B464A464146D4
:103CF00004A8FFF7A3F8059F002FF3D0A9EB070650
:103D0000049BB6FA86F67609002B18BF46F001062A
:103D1000002E38D0342012F0BBFC04461830D5E910
:103D200000B320611BEB030F02D0BBF1000F3DD0AD
:103D30000F2B039315D8012B10D19BF8002022766E
:103D400000226361C2542263D5E9061CC4E90A2239
:103D5000BCEB010B9ED15A465B46A7E7002BEFD088
:103D60000AE0002203A904F11000019312F042FEC0
:103D7000039A019B2061A2611A46594613F0EEFB9B
:103D8000039B2069DCE76E687C693246A64228BF47
:103D9000224622B13969286813F0D0FB00B9301BE4
:103DA000C60FB7E707B0BDE8F08F7047034812F0C1
:103DB0000BFE12F006FE00BFFCFFFF7F5C8A0108CD
:103DC0002DE9F04FADF5297DA84960AC59AFA8ADFC
:103DD0002046FFF721FFA64966A8FFF71DFFA5496A
:103DE0006CA8FFF719FFA44972A8FFF715FFA349B4
:103DF00078A8FFF711FFA2497EA8FFF70DFFA149A0
:103E000084A8FFF709FFA0498AA8FFF705FF9F498B
:103E100090A8FFF701FF9E4996A8FFF7FDFE9D4978
:103E20009CA8FFF7F9FE9C49A2A8FFF7F5FE0C231A
:103E300018AA189419933B46984806CAFEF79CFBAB
:103E4000183D284612F0F8FDA542F9D1944A84AEF7
:103E50009449924812F08CFB93499448FFF7DCFE9A
:103E600093499448FFF7D8FE93499448FFF7D4FE4E
:103E700093499448FFF7D0FE93499448FFF7CCFE4E
:103E800093499448FFF7C8FE93499448FFF7C4FE4E
:103E900093499448FFF7C0FE93499448FFF7BCFE4E
:103EA00093499448FFF7B8FE93499448FFF7B4FE4E
:103EB00093499448FFF7B0FE93499448FFF7ACFE4E
:103EC00093499448FFF7A8FE93499448FFF7A4FE4E
:103ED00093499448FFF7A0FE93499448FFF79CFE4E
:103EE00093499448FFF798FE93499448FFF794FE4E
:103EF00093499448FFF790FE93499448FFF78CFE4E
:103F000093499448FFF788FE93499448FFF784FE4D
:103F100093499448FFF780FE93499448FFF77CFE4D
:103F200093499448FFF778FE93499448FFF774FE4D
:103F300093499448FFF770FE93499448FFF76CFE4D
:103F400093499448FFF768FE93499448FFF764FE4D
:103F500093499448FFF760FE93499448FFF75CFE4D
:103F600093499448FFF758FE93499448FFF754FE4D
:103F700093499448FFF750FE93499448FFF74CFE4D
:103F800093499448FFF748FE93499448FFF744FE4D
:103F900093499448FFF740FE93499448FFF73CFE4D
:103FA00093499448FFF738FE93499448FFF734FE4D
:103FB00093499448FFF730FE93499448FFF72CFE4D
:103FC00093499448FFF728FE93499448FFF724FE4D
:103FD00093499448FFF720FE93499448FFF71CFE4D
:103FE00093499448FFF718FE93499448FFF714FE4D
:103FF00093499448FFF710FE93499448FFF70CFE4D
:1040000093499448FFF708FE93499448FFF704FE4C
:1040100093499448FFF700FE93499448FFF7FCFD4D
:1040200093499448FFF7F8FD93499448FFF7F4FD4E
:1040300093499448FFF7F0FD194A93491B4812F041
:1040400097FA92492846FFF7E7FD914966A8FFF7DE
:10405000E3FD90496CA8FFF7DFFD8F4972A8FFF7D9
:10406000DBFD8E4978A8FFF7D7FD19E1248B010805
:10407000288B01082C8B0108308B0108348B010838
:10408000388B01083C8B0108408B0108448B0108E8
:10409000488B01084C8B0108508B0108F8A80024BC
:1040A00000000024590C0008548B01081CA30024B4
:1040B000588B010834A300245C8B01084CA3002416
:1040C000608B010864A30024648B01087CA3002496
:1040D000688B010894A300246C8B0108ACA3002416
:1040E000708B0108C4A30024748B0108DCA3002496
:1040F000788B0108F4A300247C8B01080CA4002415
:10410000808B010824A40024848B01083CA4002493
:10411000888B010854A400248C8B01086CA4002413
:10412000908B010884A40024948B01089CA4002493
:10413000988B0108B4A400249C8B0108CCA4002413
:10414000A08B0108E4A40024A48B0108FCA4002493
:10415000A88B010814A50024AC8B01082CA5002411
:10416000B08B010844A50024B48B01085CA5002491
:10417000B88B010874A50024BC8B01088CA5002411
:10418000C08B0108A4A50024C48B0108BCA5002491
:10419000C88B0108D4A50024CC8B0108ECA5002411
:1041A000D08B010804A60024D48B01081CA600248F
:1041B000D88B010834A60024DC8B01084CA600240F
:1041C000E08B010864A60024E48B01087CA600248F
:1041D000E88B010894A60024EC8B0108ACA600240F
:1041E000F08B0108C4A60024F48B0108DCA600248F
:1041F000F88B0108F4A60024FC8B01080CA700240E
:10420000008C010824A70024048C01083CA700248A
:10421000088C010854A700240C8C01086CA700240A
:10422000108C010884A70024148C01089CA700248A
:10423000188C0108B4A700241C8C0108CCA700240A
:10424000208C0108E4A70024248C0108FCA700248A
:10425000288C010814A800242C8C01082CA8002408
:10426000308C010844A80024348C01085CA8002488
:10427000388C010874A800243C8C01088CA8002408
:10428000408C0108A4A80024A10B0008448C01085C
:104290004C8C0108548C01085C8C0108648C01086A
:1042A000BC497EA8FFF7B8FCBB4984A8FFF7B4FC63
:1042B000072316AA169517933B46B84806CAFEF779
:1042C0005BF9304612F0B8FBB542A6F11806F8D1FA
:1042D000B34E4FF0070AB34A0DF5A478B2490DF179
:1042E000480BAE484FF0000912F042F9BC460DF100
:1042F000500E96AD0FCEACE80F0096E8070007AB66
:104300008CE80700CDE9147A2CA89EE80600FEF799
:10431000A3F92CAAA5492046FEF7CCF906F10C0E0C
:10432000C446BEE80F00ACE80F009EE8070006ABED
:104330008CE80700CDE9128A29A89BE80600FEF761
:104340008BF929AA9A4969A8FEF7B4F906F1280E53
:104350000DF5967C0DF1400BBEE80F00CDE910CABB
:10436000ACE80F009EE8070005AB8CE807009BE86F
:10437000060026A80DF1380BFEF76EF926AA8D4926
:1043800072A8FEF7D1F944AB06F1440ECDF83CA07B
:104390000E939C46BEE80F00ACE80F009EE80700B5
:1043A00004AB8CE807009BE8060023A80DF1300B56
:1043B000FEF752F923AA80497BA8FEF7B5F93DAB79
:1043C00006F1600ECDF834A00C939C46BEE80F00B9
:1043D000ACE80F009EE8070003AB8CE807009BE801
:1043E000060020A80DF1280BFEF736F920AA734924
:1043F00084A8FEF799F936AB06F17C0ECDF82CA017
:104400000A939C469836BEE80F00ACE80F009EE881
:10441000070002AB8CE807009BE806001DA8FEF72A
:104420001BF92FAB84F8C0900DF1200E9C46CDE90E
:10443000083A1D9BCDF87490C4F8CC301E9BCDF883
:104440007890C4F8D0301F9BCDF87C90C4F8D4305D
:104450008FABC4F8B4305A4B8F930423C4F8B830F0
:104460000FCEACE80F0096E8070001AB8CE8070020
:104470009EE806001AA8FEF7EFF81AAA4649284651
:10448000FEF718F94F489FAA2146031D80F80490B3
:10449000C0F80890C0F81490C0E90333FFF7EEFBB2
:1044A00005F11800FEF762FC284612F0C5FAA54295
:1044B000A5F12405F4D11AA878ADFEF757FC1DA884
:1044C000FEF754FC20A8FEF751FC23A8FEF74EFC93
:1044D00026A8FEF74BFC29A8FEF748FC2CA8FEF7FF
:1044E00045FC304A3849374812F042F837492046EF
:1044F000FFF792FB364966A8FFF78EFB35496CA89B
:10450000FFF78AFB344972A8FFF786FB04233C605F
:104510007B604346314897E80600FEF72DF8183DCA
:10452000284612F089FAA542F9D11E4A7EAD1E49ED
:104530002A4812F01DF82A492046FFF76DFB66A8AD
:104540002849FFF769FB6CA82749FFF765FB72A8AC
:104550002649FFF761FB78A82549FFF75DFB052297
:10456000C8F800404BABC8F80420224898E8060081
:10457000FEF702F8183D284612F05EFAA542F9D17E
:10458000084A09491B480DF5297DBDE8F04F11F097
:10459000EFBF00BF6C8C0108748C0108ECA80024EC
:1045A000FC86010800000024590C0008448C010816
:1045B0004C8C0108548C01085C8C0108648C010847
:1045C0004D69786FD4A80024590D00087C8C01082F
:1045D000848C01088C8C0108948C0108BCA80024F0
:1045E0009C8C0108A08C0108A48C0108A88C0108EF
:1045F000AC8C0108C8A80024FFF7E2BB002200F140
:10460000240110B400F10C0482600273446080F84D
:1046100024205DF8044BC2638264C0E90712C0E93C
:104620000D2270472DE9F04F2DED028B89B0044625
:10463000934608EE101A0193002304F11C078360CF
:104640000373036280F82430C3638364C0E90D33CD
:1046500000F10C03436000F124030430836112F085
:104660004EFA04F134039B4540D0D4F83490E26B09
:10467000DBE9005AA2EB0902AAEB05084245C0F0AB
:104680008180A66BA6EB0901884500F2C480B8F1D1
:10469000000F16DD4FEAE806A44ACA4602FB06F6FA
:1046A0002946504612F02BFA013E05F118050AF191
:1046B000180AF5D1B8F1000FA66BCCBF42461822FC
:1046C00091444E450FD009F1080555F8080CA84251
:1046D00004D0D9F80810013111F0C2FF09F118090E
:1046E0001835B145F1D1636B4344A363019B23604B
:1046F00000230693149B9E68002E00F0888004AD72
:10470000022214992846B047149BD3E9026C95E81D
:10471000030002AA04F1400382E8030093E80300C7
:1047200085E8030092E8030083E80300A36CE26CD1
:10473000A6640693C4F84CC007921BB10322294615
:104740002846984718EE101A384612F0D8F9A36890
:104750000A2B11D00025226A6FF040439A4200F0E4
:10476000DC80012272493846154412F0AFFAA36882
:10477000C3F10A03AB42EED8204609B0BDEC028B70
:10478000BDE8F08FB8F1000F00F09980694B9845B3
:1047900000F2C680404611F07BFF8146AA4500F03A
:1047A000968009F1180B08EE907A0EE0012E40F089
:1047B00088803B780BF8103C183500234BF8146CBC
:1047C0000BF1180BAA4583557FD0ABF11000ABF16C
:1047D0001803D5E900764BF8180CF74202D0002FE9
:1047E00000F0A0800F2E0496E0D91846002204A9FC
:1047F00012F000F9049B4BF8180C4BF8103C3246B1
:10480000394612F0ABFE049E5BF8180CD4E7DDF8D5
:104810001CC004AD7BE7CA104448002900FB02F22B
:1048200010DD16462946484612F069F9013E05F1A9
:10483000180509F11809F5D1D4E90D96DBE9005AFC
:10484000A6EB09010D44554564D01836BB46A94670
:104850000DE0012D2CD13B7806F8103C09F1180928
:10486000002346F8145C1836D145435523D0A6F1F1
:104870001000A6F1180346F8180CD9E90075EF42AC
:1048800001D0002F4ED00F2D0495E2D918460022FA
:1048900004A912F0AFF8049B46F8180C46F8103C37
:1048A0002A46394612F05AFE049D56F8180CD5E7F0
:1048B000002DD3D0F4E7636B5F46434415E7C14650
:1048C0006CE7002E3FF478AF99E718EE907AD4E9C0
:1048D0000D6A56450FD006F1080555F8080CA84298
:1048E00003D0B168013111F0BBFE18361835B2455E
:1048F000F3D1D4F834A0BAF1000F05D0E16B5046E3
:10490000A1EB0A0111F0ACFE09EB0803C4F83490E6
:10491000E363EAE609EB0803E7E6074812F057F815
:1049200012F04FF8054812F04FF800BFABAAAAAA40
:10493000D08A0108F8FFFF7FCC8E01085C8A01084D
:104940002DE9F043044608300B6883B04F6B2060BC
:1049500003EB4303D1E907964FEAC30819EB060FAF
:1049600007EBC30502D0B9F1000F26D00F2E019638
:1049700014D8012E0FD199F80030237200236660FD
:10498000835520466A6857F8081012F09FF92046B0
:1049900003B0BDE8F083002EF0D007E0002201A9AB
:1049A000204612F027F8019B2060A360324649465A
:1049B00012F0D4FD019E2068E0E7014812F004F8EF
:1049C0005C8A01080B684A6B03EB430370B504462D
:1049D00002EBC30082B004F108014568216052F87F
:1049E0003360EE4200D006B30F2D01950CD8012D97
:1049F00007D1337823720023204665604B5502B0FF
:104A000070BD002DF7D008E001A90022204611F06A
:104A1000F1FF019B01462060A3602A46084631460B
:104A200012F09CFD019D2168E5E7014811F0CCFFE3
:104A30005C8A0108D0E90D320168D31A4A1CDB10E8
:104A400010B5084C04FB03F3B2FBF3F103FB112395
:104A50000360836C23B1C36C4030BDE8104018473D
:104A600011F0BBFFABAAAAAA0368013B002B0360AD
:104A700008DA084AD0E90D135B1ADB1002FB03F3D6
:104A8000013B0360836C13B1C36C4030184710B511
:104A900011F0A3FFABAAAAAA836C016013B1C36C87
:104AA0004030184710B511F098FF00BFF0B500F185
:104AB000080783B0076029B3044608460E46FBF793
:104AC00069FC0F28054601900DD8012808D13378DC
:104AD0002372019B002122686360D15403B0F0BDB2
:104AE0000028F6D008E0002201A9204611F082FF3C
:104AF000019B07462060A3602A463146384612F0E3
:104B00002DFDE6E7014811F05FFF00BF5C8A010858
:104B100070B5002182B000F13806054600910C46C0
:104B2000C26B30461C4B12F053F80BE06FF0404361
:104B3000EA6B9B1A012B2BD902221849304612F03E
:104B4000C5F80134286D01F00FFBA0421EDDAB68F3
:104B5000A342EBD12146286D01F0FEFA0346104A2C
:104B6000304603EB430302EBC30C52F83310DCF87E
:104B7000042012F0ABF8EA6B6FF040439A4207D082
:104B800001220849304612F0A1F8DAE702B070BD00
:104B9000054811F01CFF00BF8C990108E48E010844
:104BA0001CA90024D08A0108CC8E010830B5234905
:104BB00083B00446203012F0ABF898B362686369A2
:104BC00053F82210A160206D01F0C6FA0123019074
:104BD000237320B307EE900AF2EE085A9FED186A8D
:104BE000F3EE096AB8EEE77AC7EE257A67EE867AC1
:104BF000F8FE677A77EEA67A63682046C4ED047AF9
:104C00000133D4E90512521A921093FBF2F102FB20
:104C10001133636003B0BDE83040FFF779BFDFEDCB
:104C2000097AE9E712F070FD0546206D01F09CFA63
:104C300095FBF0F101FB1051A160C4E7248D010840
:104C4000CDCC4C4400000000FFF7B0BF034600226B
:104C5000007B1A73704700BF90ED040A704700BFD5
:104C6000006D704700F1080370B5CD6B82B0036032
:104C700004468E6BEE4200D006B30F2D01950CD882
:104C8000012D07D1327822720022204665605A55E4
:104C900002B070BD002DF7D008E0002201A9204627
:104CA00011F0A8FE019A03462060A2602A46184629
:104CB000314612F053FC019D2368E5E7014811F0ED
:104CC00083FE00BF5C8A0108203011F018BF00BFCE
:104CD0002DE9F84FD0E900890F4692466FF0604108
:104CE000A9EB0802B1EBA20F54D093100646A7EB34
:104CF0000805012B1C4638BF01241C1948D2002C82
:104D00003CD1A346DAF80030002D4BF8053024DC06
:104D1000A9EB07090435B9F1000F5D4413DC4D44DC
:104D2000B8F1000F04D1B460C6E900B5BDE8F88F52
:104D3000B168A1EB0801404611F092FCB460C6E9ED
:104D400000B5BDE8F88F284639464A464D4412F072
:104D500005FCB8F1000FE6D0EAE7A9EB07092A46FF
:104D600041465846043512F007FCB9F1000F5D4486
:104D7000E9DCB1684D44A1EB0801DCE78C4228BFB7
:104D80000C46A400204611F083FC83460444B9E796
:104D9000024CF7E7024811F01AFE00BFFCFFFF7F4C
:104DA000E88E010870B500230446406982B0E169CD
:104DB00004F11405E361C4E9053310B1091A11F0D7
:104DC0004FFC04F120065749304611F0A1FFF0B91D
:104DD000206D01F0C9F90138002801900DDA002397
:104DE000C4E90133237302B070BD43F8040BA3611F
:104DF0000198013800280190F1DBD4E906139942AB
:104E00000B46F2D101AA2846FFF762FFF0E74649B8
:104E1000304611F07DFF88BB019005E043F8042B7C
:104E2000A361019B01330193206D01F09DF9019A6B
:104E3000904209DDD4E9061399420B46EED101AA4E
:104E40002846FFF745FFECE7206D01F08DF90138AA
:104E50000028019008DCC2E743F8040BA361019825
:104E6000013800280190BADDD4E9061399420B46B7
:104E7000F2D101AA2846FFF72BFFF0E72B49304675
:104E800011F046FF002832D1019005E043F8042BD1
:104E9000A361019B01330193206D01F065F9019A33
:104EA0000138904209DDD4E9061399420B46EDD151
:104EB00001AA2846FFF70CFFEBE7206D01F054F93B
:104EC00001380028019008DC89E743F8040BA3614E
:104ED000019801380028019081DDD4E90613994238
:104EE0000B46F2D101AA2846FFF7F2FEF0E70023B5
:104EF000019305E043F8042BA361019B0133019367
:104F0000206D01F031F9019A90427FF768AFD4E942
:104F1000061399420B46EDD101AA2846FFF7D8FEA9
:104F2000EBE700BF0C8D0108148D01081C8D0108F2
:104F3000F0B500F12802002583B0082600230221E5
:104F400006600446026200F1380703612A46C56123
:104F5000456280F82850C56380F840500573114BB6
:104F6000C0E90555C0E90155009100F1400120302C
:104F70008161294611F02CFE6C2011F089FB064658
:104F800001F060F809232946266538460093064B50
:104F9000E26B11F01DFE2046FFF704FF204603B030
:104FA000F0BD00BF088D0108048F01082DE9F04F06
:104FB000ADF52D7DA84964ACACAD2046FFF776FD7C
:104FC000A6496AA8FFF772FDA54970A8FFF76EFD14
:104FD000A44976A8FFF76AFDA3497CA8FFF766FD00
:104FE000A24982A8FFF762FDA14988A8FFF75EFDEC
:104FF000A0498EA8FFF75AFD9F4994A8FFF756FDD8
:105000009E499AA8FFF752FD9D49A0A8FFF74EFDC3
:105010009C49A6A8FFF74AFD0C231AAA1A941B93D1
:105020005DAB994806CAFDF7A7FA183D284611F06E
:1050300003FDA542F9D1954A88AE9549924811F0F1
:1050400097FA94499448FFF731FD94499448FFF743
:105050002DFD94499448FFF729FD94499448FFF7A2
:1050600025FD94499448FFF721FD94499448FFF7A2
:105070001DFD94499448FFF719FD94499448FFF7A2
:1050800015FD94499448FFF711FD94499448FFF7A2
:105090000DFD94499448FFF709FD94499448FFF7A2
:1050A00005FD94499448FFF701FD94499448FFF7A2
:1050B000FDFC94499448FFF7F9FC94499448FFF7A4
:1050C000F5FC94499448FFF7F1FC94499448FFF7A4
:1050D000EDFC94499448FFF7E9FC94499448FFF7A4
:1050E000E5FC94499448FFF7E1FC94499448FFF7A4
:1050F000DDFC94499448FFF7D9FC94499448FFF7A4
:10510000D5FC94499448FFF7D1FC94499448FFF7A3
:10511000CDFC94499448FFF7C9FC94499448FFF7A3
:10512000C5FC94499448FFF7C1FC94499448FFF7A3
:10513000BDFC94499448FFF7B9FC94499448FFF7A3
:10514000B5FC94499448FFF7B1FC94499448FFF7A3
:10515000ADFC94499448FFF7A9FC94499448FFF7A3
:10516000A5FC94499448FFF7A1FC94499448FFF7A3
:105170009DFC94499448FFF799FC94499448FFF7A3
:1051800095FC94499448FFF791FC94499448FFF7A3
:105190008DFC94499448FFF789FC94499448FFF7A3
:1051A00085FC94499448FFF781FC94499448FFF7A3
:1051B0007DFC94499448FFF779FC94499448FFF7A3
:1051C00075FC94499448FFF771FC94499448FFF7A3
:1051D0006DFC94499448FFF769FC94499448FFF7A3
:1051E00065FC94499448FFF761FC94499448FFF7A3
:1051F0005DFC94499448FFF759FC94499448FFF7A3
:1052000055FC94499448FFF751FC94499448FFF7A2
:105210004DFC94499448FFF749FC94499448FFF7A2
:1052200045FC1A4A93491C4811F0A2F992492846B4
:10523000FFF73CFC91496AA8FFF738FC904970A839
:10524000FFF734FC8F4976A8FFF730FC8E497CA825
:10525000FFF72CFC1AE100BF248B0108288B010802
:105260002C8B0108308B0108348B0108388B010826
:105270003C8B0108408B0108448B0108488B0108D6
:105280004C8B0108508B0108F8AE0024000000246C
:10529000590C0008548B01081CA90024588B0108E4
:1052A00034A900245C8B01084CA90024608B010800
:1052B00064A90024648B01087CA90024688B010880
:1052C00094A900246C8B0108ACA90024708B010800
:1052D000C4A90024748B0108DCA90024788B010880
:1052E000F4A900247C8B01080CAA0024808B0108FF
:1052F00024AA0024848B01083CAA0024888B01087E
:1053000054AA00248C8B01086CAA0024908B0108FD
:1053100084AA0024948B01089CAA0024988B01087D
:10532000B4AA00249C8B0108CCAA0024A08B0108FD
:10533000E4AA0024A48B0108FCAA0024A88B01087D
:1053400014AB0024AC8B01082CAB0024B08B0108FB
:1053500044AB0024B48B01085CAB0024B88B01087B
:1053600074AB0024BC8B01088CAB0024C08B0108FB
:10537000A4AB0024C48B0108BCAB0024C88B01087B
:10538000D4AB0024CC8B0108ECAB0024D08B0108FB
:1053900004AC0024D48B01081CAC0024D88B010879
:1053A00034AC0024DC8B01084CAC0024E08B0108F9
:1053B00064AC0024E48B01087CAC0024E88B010879
:1053C00094AC0024EC8B0108ACAC0024F08B0108F9
:1053D000C4AC0024F48B0108DCAC0024F88B010879
:1053E000F4AC0024FC8B01080CAD0024008C0108F7
:1053F00024AD0024048C01083CAD0024088C010875
:1054000054AD00240C8C01086CAD0024108C0108F4
:1054100084AD0024148C01089CAD0024188C010874
:10542000B4AD00241C8C0108CCAD0024208C0108F4
:10543000E4AD0024248C0108FCAD0024288C010874
:1054400014AE00242C8C01082CAE0024308C0108F2
:1054500044AE0024348C01085CAE0024388C010872
:1054600074AE00243C8C01088CAE0024408C0108F2
:10547000A4AE0024A10B0008448C01084C8C010848
:10548000548C01085C8C0108648C0108B44982A822
:10549000FFF70CFBB34988A8FFF708FB072318AAFE
:1054A000189519935DABB04806CAFDF765F830460C
:1054B00011F0C2FAAE42A6F11806F8D1AB4D4FF08A
:1054C0000709AB4A5DAFAB496DAEA7484FF0000886
:1054D00011F04EF80DF1580CDFF8BCA20DF52C7B45
:1054E0000FCDCDE916790FC795E8070008AB87E81F
:1054F00007009CE8060030A856AFFDF7ADF830AACB
:105500009D492046FDF7D6F805F10C0C0DF1500E23
:10551000BCE80F00CDE914790FC79CE8070007AB82
:1055200087E807009EE806002DA84FAFFDF794F826
:105530002DAA92493046FDF7BDF805F1280C0DF172
:10554000480EBCE80F00CDE912790FC79CE80700B0
:1055500006AB87E807009EE806002AA848AFFDF7DB
:105560007BF82AAA864976A8FDF7DEF805F1440CF7
:105570000DF1400EBCE80F00CDE910790FC79CE893
:10558000070005AB87E807009EE8060027A841AFA3
:10559000FDF762F827AA7B497FA8FDF7C5F805F15A
:1055A000600C0DF1380EBCE80F00CDE90E790FC785
:1055B0009CE8070004AB87E807009EE8060024A8E3
:1055C0003AAFFDF749F824AA6F4988A8FDF7ACF86F
:1055D00005F17C0C0DF1300E9835BCE80F00CDE9DB
:1055E0000C790FC79CE8070003AB87E807009EE82B
:1055F000060021A80AAFFDF72FF833AB84F8C0806E
:105600009C46CDE90A39219BCDF88480C4F8CC3082
:10561000229BCDF88880C4F8D030239BCDF88C80B5
:10562000C4F8D43093ABC4F8B430584B93930423EC
:10563000C4F8B8300FCDACE80F0095E8070002AB16
:105640008CE8070097E806001EA8FDF705F81EAADB
:1056500044499AA8FDF72EF80AF104038AF8048059
:10566000CAF80880CAF81480CAE9033326E0484B18
:105670009F4200F2B681384611F00AF8034656E917
:105680000310421A1F4481422F63C5E90A3305D033
:105690001846019211F070FF019A034613442946FF
:1056A0004A464046EB623B4B11F030F9DAF81430D1
:1056B0000133CAF8143024365E456FD0354AA6F15E
:1056C00024031CA8111FFDF7B9FBDDF87490B9F194
:1056D000000FF0D02F4A1C9BA9EB0208B8FA88F8FB
:1056E0004FEA5818002B18BF48F00108B8F1000F16
:1056F00000F06381342010F0CBFF0546183056E9E6
:1057000009372861FB4202D0002B00F06C810F2F7B
:10571000099713D8012F0ED11B782B7600236F61C8
:10572000C3552B6356E90310C5E90A33471A9ED1C6
:105730003A463B46A6E7002FF0D00AE0002209A92E
:1057400005F11000019311F055F9099A019B2861A8
:10575000AA613A46194611F001FF099F2869DDE761
:105760006C8C0108748C0108ECAE0024C087010821
:1057700000000024590C0008448C01084C8C0108DE
:10578000548C01085C8C0108648C01084D69786FA9
:10579000FCFFFF7FD8AE0024D4AE00249AAD05F103
:1057A0001800FDF7E3FA284611F046F9A542A5F1E5
:1057B0002405F4D11EA87CADFDF7D8FA21A8FDF789
:1057C000D5FA24A8FDF7D2FA27A8FDF7CFFA2AA820
:1057D000FDF7CCFA2DA8FDF7C9FA30A8FDF7C6FAF7
:1057E000824A8349834810F0C3FE83492046FFF76D
:1057F0005DF982496AA8FFF759F9814970A8FFF756
:1058000055F9804976A8FFF751F904235DAA5D9404
:105810005E9356AB7C4806CAFCF7AEFE183D2846A0
:1058200011F00AF9A542F9D1704A82AD774976485C
:1058300010F09EFE76492046FFF738F975496AA8B0
:10584000FFF734F9744970A8FFF730F9734976A867
:10585000FFF72CF972497CA8FFF728F9052356AA0F
:10586000569457934FAB6F4806CAFCF785FE183D18
:10587000284611F0E1F8A542F9D15C4AACAD634984
:10588000684810F075FE68492046FFF70FF9674930
:105890006AA8FFF70BF9664970A8FFF707F9654991
:1058A00076A8FFF703F964497CA8FFF7FFF863497E
:1058B00082A8FFF7FBF888A86149FFF7F7F88EA8E0
:1058C0006049FFF7F3F894A85F49FFF7EFF89AA84B
:1058D0005E49FFF7EBF8A0A85D49FFF7E7F8A6A837
:1058E0005C49FFF7E3F80C234FAA4F94509348AB61
:1058F000594806CAFCF740FE183D284611F09CF8AE
:10590000A542F9D1394A82AD4049534810F030FEE2
:1059100052492046FFF7CAF851496AA8FFF7C6F86E
:10592000504970A8FFF7C2F84F4976A8FFF7BEF8B4
:105930004E497CA8FFF7BAF8052348AA4894499332
:1059400041AB4B4806CAFCF717FE183D284611F03C
:1059500073F8A542F9D1254A82AD2C49444810F08C
:1059600007FE25492046FFF7A1F86AA84149FFF73D
:105970009DF870A84049FFF799F876A83F49FFF7CE
:1059800095F87CA83E49FFF791F8052241943AAB7F
:10599000429241AA3B4806CAFCF7EEFD183D284654
:1059A00011F04AF8A542F9D1104A184935480DF5C9
:1059B0002D7DBDE8F04F10F0DBBD56F8207CD9F806
:1059C00014503A46AF4228BF2A4632B1D9F81010D7
:1059D00056F8240C11F0B2FD00B9781B4FEAD078CC
:1059E00088E610F0EEFF284810F0EEFF00000024DB
:1059F000590D0008D4AE00247C8C0108848C010869
:105A00008C8C0108948C0108BCAE0024590C000851
:105A10009C8C0108A08C0108A48C0108A88C0108AA
:105A2000AC8C0108C8AE0024B08C0108B88C010809
:105A3000C08C0108C48C0108CC8C0108D48C0108EE
:105A4000DC8C0108E08C0108E88C0108F08C01086E
:105A5000F88C0108008D010804AF0024088D0108AE
:105A60000C8D0108148D01081C8D0108248D01087E
:105A700010A900242C8D0108348D01083C8D0108EB
:105A8000448D010804A900245C8A0108FFF78EBA3E
:105A9000F0B500F1080783B0076029B30446084653
:105AA0000E46FAF777FC0F28054601900DD801281D
:105AB00008D133782372019B002122686360D1549E
:105AC00003B0F0BD0028F6D008E0002201A920466E
:105AD00010F090FF019B07462060A3602A463146E4
