:020000040800F2
:10000000000002207D09000879090008CDB300082E
:100010007909000879090008790900080000000042
:100020000000000000000000000000007909000846
:1000300079090008000000007909000851B30008A0
:100040007909000879090008790900087909000888
:100050007909000879090008790900087909000878
:100060007909000879090008790900083198000821
:100070003D980008918400084998000855980008A8
:10008000FDB00008618D00087909000879090008B1
:100090007909000879090008790900087909000838
:1000A0007909000879090008790900087909000828
:1000B000790900087909000879090008958D000878
:1000C00079090008A18D000879090008F9A0000845
:1000D00079090008EDAA000895AB000841AC0008BA
:1000E0007909000879090008000000007909000872
:1000F00079090008790900087909000805A10008B4
:1001000079090008790900087909000879090008C7
:10011000EDAC000899AD00085D870008790900087A
:100120004587000851870008790900087909000807
:100130007909000879090008790900087909000897
:1001400000000000000000000000000000000000AF
:1001500079090008790900087909000845AE000806
:10016000AD8D00087909000861B3000885B3000867
:1001700079090008A9B3000879090008790900087D
:100180007909000879090008F1AE00089DAF000860
:100190007909000879090008790900087909000837
:1001A0007909000879090008790900087909000827
:1001B00051950008790900087909000879090008B3
:1001C0007909000879090008790900087909000807
:1001D00079090008790900087909000879090008F7
:1001E00079090008790900087909000879090008E7
:1001F00079090008790900087909000879090008D7
:1002000079090008790900087909000879090008C6
:1002100079090008790900087909000879090008B6
:100220007909000879090008790900080000000030
:100230007909000879090008000000007909000820
:100240007909000879090008790900087909000886
:100250007909000879090008790900087909000876
:100260007909000879090008790900087909000866
:10027000790900087909000849B000080000000069
:1002800079090008790900087909000800000000D0
:080290000000000079090008DC
:1002980010B5054C237833B9044B13B10448AFF3B8
:1002A80000800123237010BDC0020024000000005C
:1002B8000092010808B5034B1BB103490348AFF38B
:1002C800008008BD00000000C4020024009201085C
:1002D80010F8012B11F8013B012A28BF9A42F7D0E8
:1002E800D01A7047034613F8012B002AFBD1181ABD
:1002F8000138704781F0004102E000BF83F00043FD
:1003080030B54FEA41044FEA430594EA050F08BFA8
:1003180090EA020F1FBF54EA000C55EA020C7FEA6C
:10032800645C7FEA655C00F0E2804FEA5454D4EBE9
:100338005555B8BF6D420CDD2C4480EA020281EAB3
:10034800030382EA000083EA010180EA020281EAEB
:100358000303362D88BF30BD11F0004F4FEA01313D
:100368004FF4801C4CEA113102D0404261EB41014C
:1003780013F0004F4FEA03334CEA133302D05242D2
:1003880063EB430394EA050F00F0A780A4F101048E
:10039800D5F1200E0DDB02FA0EFC22FA05F28018C8
:1003A80041F1000103FA0EF2801843FA05F35941AE
:1003B8000EE0A5F120050EF1200E012A03FA0EFC2D
:1003C80028BF4CF0020C43FA05F3C01851EBE37157
:1003D80001F0004507D54FF0000EDCF1000C7EEB74
:1003E80000006EEB0101B1F5801F1BD3B1F5001FB2
:1003F8000CD349085FEA30004FEA3C0C04F10104D1
:100408004FEA445212F5800F80F09A80BCF1004FF9
:1004180008BF5FEA500C50F1000041EB045141EA7B
:10042800050130BD5FEA4C0C404141EB0101013C44
:1004380028BFB1F5801FE9D291F0000F04BF014633
:100448000020B1FA81F308BF2033A3F10B03B3F105
:1004580020020CDA0C3208DD02F1140CC2F10C0295
:1004680001FA0CF021FA02F10CE002F11402D8BFF3
:10047800C2F1200C01FA02F120FA0CFCDCBF41EABF
:100488000C019040E41AA2BF01EB0451294330BD8E
:100498006FEA04041F3C1CDA0C340EDC04F114046B
:1004A800C4F1200220FA04F001FA02F340EA030042
:1004B80021FA04F345EA030130BDC4F10C04C4F188
:1004C800200220FA02F001FA04F340EA0300294668
:1004D80030BD21FA04F0294630BD94F0000F83F4B2
:1004E800801306BF81F480110134013D4EE77FEA95
:1004F800645C18BF7FEA655C29D094EA050F08BFE1
:1005080090EA020F05D054EA000C04BF19461046C1
:1005180030BD91EA030F1EBF0021002030BD5FEA05
:10052800545C05D14000494128BF41F0004130BD2D
:1005380014F580043CBF01F5801130BD01F0004581
:1005480045F0FE4141F470014FF0000030BD7FEAF4
:10055800645C1ABF194610467FEA655C1CBF0B46EF
:10056800024650EA013406BF52EA033591EA030F06
:1005780041F4002130BD00BF90F0000F04BF0021FE
:10058800704730B54FF4806404F132044FF0000531
:100598004FF0000150E700BF90F0000F04BF0021AA
:1005A800704730B54FF4806404F1320410F0004510
:1005B80048BF40424FF000013EE700BF42004FEA0B
:1005C800E2014FEA31014FEA02701FBF12F07F4388
:1005D80093F07F4F81F06051704732F07F4208BF3F
:1005E800704793F07F4F04BF41F40021704730B546
:1005F8004FF4607401F0004521F000411CE700BF92
:1006080050EA010208BF704730B54FF000050AE014
:1006180050EA010208BF704730B511F0004502D515
:10062800404261EB41014FF4806404F132045FEA17
:10063800915C3FF4D8AE4FF003025FEADC0C18BFC0
:1006480003325FEADC0C18BF033202EBDC02C2F1B2
:10065800200300FA03FC20FA02F001FA03FE40EA44
:100668000E0021FA02F11444BDE600BF53B94AB99D
:10067800002908BF00281CBF4FF0FF314FF0FF30A2
:1006880000F074B9ADF1080C6DE904CE00F006F87D
:10069800DDF804E0DDE9022304B070472DE9F047F6
:1006A800089D04468E46002B4DD18A42944669D94E
:1006B800B2FA82F252B101FA02F3C2F1200120FA31
:1006C80001F10CFA02FC41EA030E94404FEA1C487F
:1006D800210CBEFBF8F61FFA8CF708FB16E341EA7B
:1006E800034306FB07F199420AD91CEB030306F101
:1006F800FF3080F01F81994240F21C81023E634422
:100708005B1AA4B2B3FBF8F008FB103344EA0344C5
:1007180000FB07F7A7420AD91CEB040400F1FF33DA
:1007280080F00A81A74240F207816444023840EA17
:100738000640E41B00261DB1D4400023C5E9004350
:100748003146BDE8F0878B4209D9002D00F0EF80D3
:100758000026C5E9000130463146BDE8F087B3FA06
:1007680083F6002E4AD18B4202D3824200F2F980EE
:10077800841A61EB030301209E46002DE0D0C5E9F1
:10078800004EDDE702B9FFDEB2FA82F2002A40F03D
:100798009280A1EB0C014FEA1C471FFA8CFE012640
:1007A800200CB1FBF7F307FB131140EA01410EFBE4
:1007B80003F0884208D91CEB010103F1FF3802D28B
:1007C800884200F2CB804346091AA4B2B1FBF7F085
:1007D80007FB101144EA01440EFB00FEA64508D9A8
:1007E8001CEB040400F1FF3102D2A64500F2BB80E5
:1007F8000846A4EB0E0440EA03409CE7C6F1200734
:10080800B34022FA07FC4CEA030C20FA07F401FA79
:1008180006F31C43F9404FEA1C4900FA06F3B1FB02
:10082800F9F8200C1FFA8CFE09FB181140EA014167
:1008380008FB0EF0884202FA06F20BD91CEB010104
:1008480008F1FF3A80F08880884240F28580A8F15C
:1008580002086144091AA4B2B1FBF9F009FB1011AE
:1008680044EA014100FB0EFE8E4508D91CEB01014C
:1008780000F1FF346CD28E456AD90238614440EAEF
:100888000840A0FB0294A1EB0E01A142C846A6466F
:1008980056D353D05DB1B3EB080261EB0E0101FAF8
:1008A80007F722FA06F3F1401F43C5E90071002655
:1008B8003146BDE8F087C2F12003D8400CFA02FCAB
:1008C80021FA03F3914001434FEA1C471FFA8CFEBB
:1008D800B3FBF7F007FB10360B0C43EA064300FBAB
:1008E8000EF69E4204FA02F408D91CEB030300F149
:1008F800FF382FD29E422DD9023863449B1B89B200
:10090800B3FBF7F607FB163341EA034106FB0EF388
:100918008B4208D91CEB010106F1FF3816D28B4235
:1009280014D9023E6144C91A46EA004638E72E4601
:10093800284605E70646E3E61846F8E64B45A9D2F9
:10094800B9EB020864EB0C0E0138A3E74646EAE768
:10095800204694E74046D1E7D0467BE7023B614416
:1009680032E7304609E76444023842E7704700BF7F
:10097800FEE700BF0B480C4A904203D0121A0B49FD
:1009880016F074FD0A480B4A904203D0121A00214F
:1009980016F094FD0AF0CAFE16F024FD02F02CF8B9
:1009A800FEE700BF00000024C002002438920108BE
:1009B800C002002494D00024704700BF704700BFD5
:1009C800704700BF704700BF49424FF4806214303F
:1009D800C9B216F073BD00BF0368184740207047BE
:1009E8008020704710B5044640F2144115F008FE07
:1009F800204610BD2AB1012A07D0022A08D00020BB
:100A08007047054B03600020704701600020704765
:100A18000B680360F3E700BF24810108F0B583B0D9
:100A2800002302AC04E9060004460F48B0EB820F2D
:100A3800A360C4E9003314D3960076B130460F465C
:100A480015F0F6FD05463946324635442060A56066
:100A580016F00CFD656003B0F0BD35462660A66053
:100A6800F8E7024815F083FFFCFFFF7FF07C0108E0
:100A780038B50B460C460546006853F8081B9942E2
:100A880018D005F1080290420DD0626829606A60AA
:100A9800A168AA68A96058B12060A26000232268F2
:100AA8006360137038BD6268C5E90012A268AA6065
:100AB8002360F3E762682AB1012A07D016F0D6FC52
:100AC8002868626800236A608354E7E7237A037022
:100AD80028686268F6E700BFF0B500F1080783B040
:100AE800076029B3044608460E46FFF7FBFB0F28AC
:100AF800054601900DD8012808D133782372019B4F
:100B0800002122686360D15403B0F0BD0028F6D0FC
:100B180008E0002201A9204615F034FF019B074692
:100B28002060A3602A463146384616F09FFCE6E767
:100B3800014815F019FF00BF247D01082DE9F04197
:100B4800B02482B000F1080600F1100500F1140885
:100B5800002728468DF807400134394607F0A8FFDA
:100B6800642301220DF107013046E4B209F040FC8C
:100B7800394628468DF8077007F09AFF012264234A
:100B88000DF10701304609F033FC10233946284699
:100B98008DF8073007F08CFF642301220DF107015F
:100BA800304609F025FC0121284607F081FF802204
:100BB800414664233046904409F01AFCB82CC7D14A
:100BC80002B0BDE8F08100BFF8B5D0E9005607468D
:100BD800B5420FD005F1080454F8080C844204F11A
:100BE800180403D0A968013115F00AFD1835AE4282
:100BF800F2D13E6826B1B9683046891B15F000FD70
:100C08003846F8BD2DE9F041804600F53476B36CDE
:100C180023B106F14001032208469847D6E90D574B
:100C2800BD4228460FD005F1080454F8080C844248
:100C380004F1180403D0A968013115F0E1FC183556
:100C4800AF42F2D1706B18B1F16B091A15F0D8FCEC
:100C5800F06906F12403984203D0716A013115F056
:100C6800CFFC706806F10C03984203D0F16801319B
:100C780015F0C6FC4645A6F1500301D01E46C6E74E
:100C88003046BDE8F08100BFE8B138B504462546D6
:100C9800E068FFF7F9FFA468AB6A18461BB1296B37
:100CA800C91A15F0ADFC286905F11803984203D05C
:100CB800A969013115F0A4FC3421284615F0A0FCDF
:100CC800002CE4D138BD704770B585680646D5B1AB
:100CD8002C46E868FFF7D8FFAD68A36A18461BB131
:100CE800216BC91A15F08CFC206904F1180398428D
:100CF80003D0A169013115F083FC3421204615F099
:100D08007FFC002DE4D1304670BD00BF2DE9F04FC7
:100D180085B0A1F1200504AC9DF83870009104E974
:100D28000C00EBB25E2B00F29580036880465D4AAA
:100D3800DB689DF8084093429DF8096040F0948074
:100D48008020B8F804302344834200F38380D8F825
:100D58000030554A9B68934240F088804020B8F89C
:100D6800062093190192834274DC002E00F08980DA
:100D780006FB05F56FF00040039B964628442E4479
:100D8800B8F804A003EB4000023B03EB460B30F835
:100D9800026FBCB30EF007034FF0010C4FEADE02FE
:100DA80051460CFA03FC0AF114034FFA8CFC03EBCE
:100DB800C21200236FEA0C0942440EE07F2907D8CB
:100DC800BEF13F0F04D815789FB14CEA05051570A0
:100DD8000133013201319C4214D006FA03F52D0487
:100DE800ECD47F29F4D8BEF13F0FF1D81578002F45
:100DF800EBD0013309EA0505013201319C4202F8C2
:100E0800015CEAD158450EF1010EC0D1D8F8003086
:100E180054442449DA68A4B28A422DD180208442FD
:100E28001CD29B68204AA8F80440934221D1402054
:100E3800019B834207D3D8F800301B4A9B68934232
:100E480029D13F230193DDE90003A8F8063005B056
:100E5800BDE8F08F002005B0BDE8F08FDA681149D1
:100E68008A4211D17F24DCE798476AE740469847D1
:100E780075E740469847DBE740469047D8F800308A
:100E8800CDE7B8F804A0C1E7404690470138D8F844
:100E9800003084B2C5E740469847013883B20193D1
:100EA800D1E700BFE9090008E50900082DE9F04F7E
:100EB80083B00090002800F0D880009BD3F80C90F5
:100EC800B9F1000F00F0BF80D9F80CA0BAF1000FFB
:100ED80000F0A580DAF80CB0BBF1000F00F08B80B1
:100EE800DBF80C40002C5ED0E568002D38D0EE68A9
:100EF800002E46D0F768002F69D0D7F80C80B8F1DB
:100F0800000F19D0D8F80C00CDF80480FFF7CEFFF9
:100F1800019AD8F80880106902F11801884204D0B3
:100F28009169013115F06CFB019A2C21104615F0DE
:100F380067FBB8F1000FE5D1386907F11802D7F857
:100F48000880904203D0B969013115F059FB2C2172
:100F5800384615F055FBB8F1000F38D04746CCE7B6
:100F6800206904F11803A568984203D0A1690131EA
:100F780015F046FB2C21204615F042FB9DB12C466E
:100F8800B2E7286905F11803AE68984203D0A96949
:100F9800013115F035FB2C21284615F031FB002EC8
:100FA800DED03546A3E7DBF810000BF11803DBF8B9
:100FB8000840984204D0DBF81810013115F020FBE6
:100FC8002C21584615F01CFBACB1A34688E73069C4
:100FD80006F11803D6F80880984203D0B1690131A8
:100FE80015F00EFB2C21304615F00AFBB8F1000F66
:100FF800C7D046467EE7DAF810000AF11803DAF897
:101008000840984204D0DAF81810013115F0F8FABF
:101018002C21504615F0F4FA0CB1A2465AE7D9F83B
:10102800100009F11803D9F80840984204D0D9F8FB
:101038001810013115F0E4FA2C21484615F0E0FAB1
:101048000CB1A14640E7009B1A461869183394680A
:10105800984203D09169013115F0D2FA2C210098F9
:1010680015F0CEFA0CB1009427E703B0BDE8F08F75
:1010780070B5846806469CB12546E068FFF716FF00
:10108800A468286905F11803984203D0A9690131B9
:1010980015F0B6FA2C21284615F0B2FA002CEBD13F
:1010A800304670BD2DE9F04F89B008AC9DF8487006
:1010B800019104E90C000B78002B00F0AB801A4674
:1010C8009DF818809DF819300646454690460393CA
:1010D800079B0593A8F12004E3B25E2B00F29E80E3
:1010E80033685E4ADB68934240F09B808020B38877
:1010F8002B44834200F392803368594A9B68934299
:1011080040F092804020F188039A02918B18834224
:1011180000F38480002A00F0918002FB04F46FF051
:101128000049059BA1441444B6F804B003EB4909EF
:10113800023BCDF8108003EB44030C469A4639F87D
:1011480002CFA5B304F007034FF0010EE208594699
:101158000EFA03FE0BF114034FFA8EFE03EBC212D4
:1011680000236FEA0E0832440DE07F2906D83F2C91
:1011780004D8107897B14EEA00001070013301329C
:101188000131AB4213D00CFA03F00004EDD47F29EF
:10119800F4D83F2CF2D81078002FECD0013308EAAD
:1011A800000001320131AB4202F8010CEBD1D1450C
:1011B80004F10104C3D1DDF8108032680BEB05049B
:1011C8002649D368A4B28B4234D18020844204D308
:1011D800D36822498B423AD17F249368204AB4804D
:1011E800934224D14020029B834206D333681C4A91
:1011F8009B68934225D13F230293029BF380019B76
:101208001878404507D113F8018F0193B8F1000F02
:101218007FF460AF002009B0BDE8F08F4FF0000800
:10122800EDE73046984762E7304698476BE7304627
:101238009847D8E7304698473268C7E7B6F804B009
:10124800BBE730469847013883B20293D5E730466A
:1012580098470138326884B2BFE700BFE90900083F
:10126800E50900087F291ED83F2A1CD86BB1D3088E
:101278004FF0010C02F0070201EBC3130CFA02F263
:10128800C1180B7D1A430A757047D3084FF0010C3B
:1012980002F0070201EBC3130CFA02FCC1180A7D25
:1012A80022EA0C020A75704710B50446D0F8AC0063
:1012B80004F1B403984204D0D4F8B410013115F005
:1012C8009FF9D4F8880004F19003984204D0D4F828
:1012D8009010013115F094F9E06F20B1D4F8841022
:1012E800091A15F08DF9206F18B1A16F091A15F0B8
:1012F80087F9A06D04F16003984203D0216E013193
:1013080015F07EF9E06B04F14403984203D0616C58
:10131800013115F075F9606A04F12C03984203D085
:10132800E16A013115F06CF9A06918B1216A091A4E
:1013380015F066F9204610BD2DE9F04F83B05C1A10
:101348000C9E002C9DF83490A6EB0208B8BF6442AE
:10135800B8F1000FB8BFC8F100088B428CBF4FF03E
:10136800010A4FF0FF3A9642A4EB080C51D84FF00F
:10137800FF357F2B019512D83F2E10D8F50806F0BF
:10138800070E012703EBC5150544B9F1000F47D037
:1013980007FA0EF795F814E047EA0E072F759642FC
:1013A80001D18B4229D0C8F100077F2914D83F2AE0
:1013B80012D8D50802F0070B4FF0010E01EBC51546
:1013C8000544B9F1000F1BD00EFA0BFE95F814B0C6
:1013D8004EEA0B0E85F814E0B7EB4C0F4FEA4C05BC
:1013E80002DAACEB080C5144AC4202DD019DA44486
:1013F8002A449942D9D19642D7D103B0BDE8F08F9B
:101408000EFA0BFB95F814E02EEA0B0E85F814E0A3
:10141800E2E701257F2B0195C5D83F2EAED9C2E75B
:1014280007FA0EFE2F7D964227EA0E072F75B8D0D1
:10143800B9E700BF000000002DE9F04F2DED068B45
:1014480083B01F4680460D469DF8503016460193DE
:10145800139B002BC0F22182129A134406EE103A15
:10146800DDED127AB8EEC66B9FEDCD4BB8EEE77B9B
:101478009FEDCD5B27EE047B26EE046B87EE050B14
:1014880086EE05ABF7EEC08BB0EE680A15F084FC6B
:1014980007EE907AB7EECAABF8EE679AB0EE408ADC
:1014A800B0EE680A15F07CFE60EE698AB0EE4A0A72
:1014B80015F072FCB0EE409AB0EE4A0A15F070FED4
:1014C80020EE690A29EE888A29EE899A70EE687AF0
:1014D800F0EE006A39EE487A67EEA77AE7EE077A07
:1014E800F4EEE67AF1EE10FA06D5139BB42B40F32E
:1014F80096804FF0010901E04FF00009012478427D
:101508004FF0000C0095E31B214627462246A340D6
:10151800B9F1000F6AD1424206EE90CACCF100013F
:1015280007EE102AB8EEE66A07EE901A06EE900A61
:10153800B8EEC77A139A66EE084AF8EEE77AB42A44
:1015480027EE284AF8EEE66A67EE885A74EEC43A3F
:1015580026EEA85A26EE096A66EE806A67EE897A50
:1015680027EE007AF5EEC03A40F3F280F1EE10FA79
:1015780000F17F8176EE473A74EEC54AF5EEC03A3F
:10158800F1EE10FAF5EEC04ACCBF01220022F1EECE
:1015980010FA00F1778136EE666A35EEC55AB5EE77
:1015A800C06AF1EE10FAB5EEC05ACCBF0121002195
:1015B800F1EE10FA00F16F8177EEE66AF5EEC06A97
:1015C800F1EE10FACCBF0127002775EEC45AF5EEEC
:1015D800C05AF1EE10FA00F1478177EEC77AF5EEBE
:1015E800C07AF1EE10FACCBF01240024002A40F0A2
:1015F8008A80002964D1BFB9C4BB9C4558DB0CF173
:10160800010C03EB4C0E1CEB000F0EF1010E00F069
:10161800C08098424FDB734600287FF779AF03B04C
:10162800BDEC068BBDE8F08F009DA6EB0C0E00EB21
:10163800050ABAF17F0FDFD8BEF13F0FDCD84FEAB9
:10164800DE0B019D0AEBCB1A002D00F0B1800EF0E5
:10165800070BC2444FF0010E0EFA0BFE9AF814B0B5
:101668004EEA0B0E8AF814E0002CC6D0009DA6EBBB
:101678000C0EA5EB000ABAF17F0FBED8BEF13F0FE2
:10168800BBD84FEADE0B019D0AEBCB1A002D00F008
:10169800AE800EF0070BC2444FF0010E9C450EFAC7
:1016A8000BFE9AF814B04EEA0B0E8AF814E0A6DA8C
:1016B80098429E46AFDA01300EEB40030133ABE7A8
:1016C800009D0CEB060E00EB050ABAF17F0F92D8CD
:1016D800BEF13F0F8FD84FEADE0B019D0AEBCB1A04
:1016E800002D73D00EF0070BC2444FF0010E0EFA16
:1016F8000BFE9AF814B04EEA0B0E8AF814E0002F8D
:101708003FF47AAF90E7009D0CEB060EA5EB000ABC
:10171800BAF17F0F3FF66DAFBEF13F0F3FF669AFED
:101728004FEADE0B019D0AEBCB1A002D6DD00EF0AF
:10173800070BC2444FF0010E0EFA0BFE9AF814B0D4
:101748004EEA0B0E8AF814E000293FF454AFB7E7CD
:10175800F1EE10FA7ED44A4674EEC54AF5EEC04A58
:10176800F1EE10FA6CD4002135EEC55AB5EEC05A28
:10177800F1EE10FA5AD4002775EEC45AF5EEC05AA5
:10178800F1EE10FA3FF529AF0024002A3FF431AFFB
:10179800B9E798428FDB00233BE700BFAFF3008037
:1017A8007A008BFCFA2109400000000000806640A6
:1017B800C2444FF0010B0EF0070E0BFA0EFE9AF81A
:1017C80014B02BEA0E0E8AF814E015E7C2444FF065
:1017D800010B0EF0070E0BFA0EFE9AF814B02BEA66
:1017E8000E0E8AF814E0002F3FF406AF1CE7C2443F
:1017F8004FF0010B0EF0070E0BFA0EFE9AF814B01C
:101808002BEA0E0E8AF814E0F7E6C2444FF0010BFB
:101818000EF0070E0BFA0EFE9AF814B02BEA0E0E15
:101828008AF814E000293FF4E6AE49E777EEE66A65
:10183800F5EEC06AF1EE10FACCBF012700279BE74E
:1018480036EE666AB5EEC06AF1EE10FACCBF012139
:10185800002189E776EE473AF5EEC03AF1EE10FA44
:10186800CCBF0122002277E70124002A3FF4C1AE51
:1018780049E774EEC54A0122F5EEC04AF1EE10FAC6
:101888007FF589AE35EEC55A0121B5EEC05AF1EEA5
:1018980010FA7FF591AE012797E6DDE9122313448C
:1018A80006EE102A1293139B5B421393D8E500BFF0
:1018B8002DE9F04F89B01D46884606901046129CC7
:1018C80010F8013B13999DF85060009233B1002243
:1018D80010F8013B0132002BFAD193B22A786878CC
:1018E80012FB03F302B21BB223EAE373082900F2E6
:1018F800A981DFE811F0020114012001340142013D
:101908005001670171010900A18827880F44B4F9C3
:101918000610FF1A0029BFB2C0F2FF80B4F802C057
:1019280006980CEB6104C280A4EB52028380078006
:1019380094B24480A64AD8F8003011460192DA6879
:101948008A4240F08D818020B84205D8DA68019932
:101958008A4240F09A817F279E4A9B68A8F80470C3
:101968009342039240F089814020A04207D8D8F8DA
:101978000030039A9B68934240F082813F24009B89
:10198800A8F8064093F800B06B782C7804936B683D
:101998000793BBF1000F00F0AC80ABF12005EBB270
:1019A8005E2B00F22E81D8F80030019ADB68934252
:1019B80040F02A818020B8F8043023449842C0F2CD
:1019C8002081D8F80030039A9B68934240F01F8129
:1019D8004020B8F80610049A02918B189842C0F279
:1019E8001081002A00F01E8102FB05F56FF0004E01
:1019F800079BAE441544CDF814B003EB4E0E023BE2
:101A0800B8F804A003EB45030D469B463EF8027F59
:101A1800A4B305F007034FF0010CEA0851460CFA8D
:101A280003FC0AF114034FFA8CFC03EBC2120023E7
:101A38006FEA0C0942440DE07F2906D83F2D04D8EF
:101A4800107896B14CEA0000107001330132013170
:101A58009C4213D007FA03F00004EDD47F29F4D890
:101A68003F2DF2D81078002EECD0013309EA00009F
:101A7800013201319C4202F8010CEBD1F34505F12A
:101A88000105C3D1DDF814B0D8F800200AEB04052D
:101A98000199D368ADB28B4240F0BF808020854267
:101AA80005D3D36801998B4240F0C5807F259368A0
:101AB800039AA8F80450934240F0AC804020029B5F
:101AC800834208D3D8F80030039A9B68934240F0C9
:101AD800AC803F230293029BA8F80630009A137843
:101AE8005B4506D112F801BF0092BBF1000F7FF4ED
:101AF80054AF069809B0BDE8F08FB4F904102788F0
:101B08000029B8BF013107EB6107B4F90610A7EB4C
:101B180063070029BFB2BFF601AF0131FEE6B4F991
:101B280000700699B4F902400F80BFB24C80A4B28D
:101B38008B80CA80FEE6B4F9041027880029B4F91E
:101B48000240B8BF013107EB610706998B80A7EB0C
:101B580063034C80A4B29FB2CA800F80EAE6A188D2
:101B68002788B4F902400F4406998B80FB1A4C80F1
:101B7800A4B29FB2CA800F80DCE6E7886188394446
:101B8800B4F90070081A069984B20F808B80BFB22E
:101B9800CA804C80CEE6B4F9041027880029B8BF63
:101BA800013107EB6107A7EB6307B4F802C0BFB2C6
:101BB800E488069964448B80201ACA800F8084B216
:101BC8004C80B7E62788A1880F44FF1AEDE700BFCD
:101BD800E9090008E5090008B4F90610B4F802C0DC
:101BE8000029B4F900700698B8BF0131C2800CEB27
:101BF800610407808380BFB2A4EB520294B2448090
:101C080098E64FF0000B69E740469847D3E6404610
:101C18009847DEE64046984751E740469847D8F847
:101C280000203CE7B8F804A02EE740469847013862
:101C380083B202934FE7404698470138D8F800200E
:101C480085B234E7D8F800300024069A1249148087
:101C580054809480D480DA6801918A4205D027465E
:101C680040469047D8F800306EE69B680B4AA8F8C3
:101C78000440934203923FF482AE4046984774E68C
:101C880040469847013884B279E640469047013883
:101C9800D8F8003087B25FE6E9090008E5090008CE
:101CA8002DE9F04F87B09DF84850109C2E460195BD
:101CB8009DF844509EB399422ED89946A24228D8FE
:101CC8007F29164694BF0023012308E09CF814805E
:101CD8004EEA080E8CF814E00136B44219D33F2EB0
:101CE800FAD8002BF8D14FEAD60C06F0070E4FF0C1
:101CF800010801EBCC1C08FA0EFE8444002DE5D146
:101D08009CF814B001362BEA0E0AB4428CF814A0E1
:101D1800E5D201318945D1D207B0BDE8F08FA3EBF8
:101D28000108B8F1000FB8BFC8F100089942C0F027
:101D38004E817F2B4FF0FF3A94BF002601263F2AA1
:101D4800009694BF002701270297A6B99FB9D60825
:101D580002F0070C012703EBC6160644002D00F01D
:101D6800948107FA0CF796F814C047EA0C07377500
:101D7800002602960096994200F0978146469446BE
:101D88008E46BEF17F0F16D8BCF13F0F13D84FEA2D
:101D9800DC070CF0070B4FF001090EEBC7170744DF
:101DA800002D00F0398109FA0BF997F814B049EAC7
:101DB8000B0987F81490770018BFD644B84502DDA0
:101DC80046440CF1FF3C7345DBD16245D9D100266E
:101DD8000496A4EB0209009FB9F1000FB8BFC9F13E
:101DE80000093F2C94BF00260126A242C9F1000831
:101DF8000396C0F02381002F40F05081002E40F060
:101E08004D814FF0FF360096E60803EBC6160644F0
:101E1800002D00F01E814FF0010C04F007070CFAAA
:101E280007F796F814C047EA0C073775002603969B
:101E3800A24200F03D81C44616461F4605927F2FF8
:101E480015D83F2E13D84FEAD60E06F0070B4FF0E1
:101E5800010A07EBCE1E8644002D00F0E6800AFA40
:101E68000BFA9EF814B04AEA0B0A8EF814A0B8EBE5
:101E78004C0F4FEA4C0E02DAACEB090C013FBEF1F5
:101E8800000F01D0009A1644BB42D8D1B442D6D133
:101E9800059AA1EB030EBEF1000FB8BFCEF1000EFC
:101EA8007F2994BF4FF0000A4FF0010A99428CBF76
:101EB8004FF001094FF0FF39BAF1000F13D1039E1B
:101EC8008EB9E60801EBC6160644002D00F0D38053
:101ED8004FF0010C04F007070CFA07F796F814C046
:101EE80047EA0C073775049E26BB774626467F2BA4
:101EF80014D83F2E12D84FEAD60C06F0070B4FF035
:101F0800010803EBCC1C8444002D73D008FA0BF8AD
:101F18009CF814B048EA0B088CF814805FEA470C68
:101F280018BF4B44E64501DD7744013E9942DED1B6
:101F3800B442DCD1A2EB040EBEF1000FB8BFCEF163
:101F4800000EA2428CBF4FF001084FF0FF38CEF1CF
:101F5800000CBAF1000F0ED1029B63B9D30802F04E
:101F68000707012601EBC3130344002D7CD0BE40B4
:101F78001F7D3E431E75019B002B7FF4CDAE664648
:101F88000B467F2B12D83F2C10D8E70804F0070A1D
:101F98004FF0010903EBC7170744A5B309FA0AF97B
:101FA80097F814A049EA0A0987F81490BCEB460F81
:101FB8004FEA460702DAA6EB0E06013B07B1444496
:101FC8009942DED1A242DCD107B0BDE8F08F3F2AAA
:101FD8004FF0010A94BF002601267F2B029694BF7A
:101FE800002701270097002E7FF4C8AE002F3FF48A
:101FF800AEAEC3E608FA0BFB9CF8148028EA0B087F
:102008008CF814808AE709FA0AFA97F8149029EAF2
:102018000A0987F81490C9E709FA0BFB97F8149096
:1020280029EA0B0987F81490C5E60AFA0BFB9EF813
:1020380014A02AEA0B0A8EF814A018E797BB8EBBE7
:1020480001260096E60803EBC6160644002D7FF429
:10205800E2AE012704F0070C039507FA0CFC377D64
:1020680027EA0C073775E3E606FA07F71E7D26EA26
:1020780007061E757FE7012704F0070C07FA0CFC1A
:10208800377D27EA0C0737752DE707FA0CFC377DF3
:10209800029527EA0C07009537756CE64FF0FF3676
:1020A8000096C5E601260096C5E60126049690E648
:1020B80001260196EDE600BF836810B5044613B10A
:1020C800032201469847204610BD00BFF0B50D46D3
:1020D80051F8043B044687B040F8043B0027FEF75C
:1020E800C7FC05F11C0104F11C0002AEFEF7C0FCA0
:1020F800636BEA6B30460293A36B03936B6B63636A
:10210800AB6BA363E36BE263EF630493C5E90D77FD
:10211800FEF75AFD05F1400C6B4604F140029CE8BD
:10212800030083E8030096E803008CE803000599A0
:10213800D5F84CC0E964D5F848E0AF6493E80300EB
:1021480086E8030092E8030086E8030093E80300AA
:1021580082E80300A36C3046C4F848E00493E36CBB
:10216800C4F84CC00593FFF7A7FF07B0F0BD00BF48
:10217800F8B5836C064623B100F1400103220846F6
:102188009847D6E90D57BD420FD005F1080454F819
:10219800080C844204F1180403D0A968013114F032
:1021A8002FFA1835AF42F2D1776B27B1F16B384669
:1021B800C91B14F025FAF06906F12403984203D0EC
:1021C800716A013114F01CFA706806F10C03984228
:1021D80003D0F168013114F013FA3046F8BD00BF9E
:1021E80038B5414804F08CFE3F4804F09DFE3F4856
:1021F80005F05EFEFDEEC07A3D4D17EE904A2B6865
:10220800A34205D017EE901A3A4802F00DFB2C6055
:10221800394805F04DFEFDEEC07A384D17EE904A6C
:102228002B68A34205D017EE901A354802F0FCFA45
:102238002C60344805F03CFEFDEEC07A324D17EEB6
:10224800904A2B68A34205D017EE901A2F4802F047
:10225800EBFA2C602E4805F02BFEFDEEC07A2D4DD2
:1022680017EE904A2B68A34205D017EE901A2A4819
:1022780002F0DAFA2C60294C23789BB928491A4DC8
:102288000A68686D0244092A1BDC002AC8BF134685
:102298000B6095F84130A3F17F03B3FA83F35B0930
:1022A800237038BD104D6B6D002B0DDC15D01C4B09
:1022B80010481B6803EB830300EB031002F09CFA41
:1022C8000BE009230B60E4E7154B0A481B6803EB96
:1022D800830300EB031002F075FA95F841307F3B59
:1022E80018BF0123237038BD40080024049E002431
:1022F800009E002458040024B8030024B4030024DA
:10230800A8040024449E0024409E0024F8040024CD
:10231800F4030024F0030024480500242C040024BE
:102328007807002489B24A4B92B27F2928BF7F21BF
:102338003F2A2DE9F04F28BF3F22D0F800A045489A
:1023480085B01D78A0F8A621A0F8A4115A789AF8AB
:1023580000B05B6802920393BBF1000F72D0ABF13F
:102368002003DAB25E2A70D83A49B1F8A4E10EEB3C
:102378000502802A019268DCB1F8A6210299009230
:102388000A44402A61DC002945D0029A6FF00047D0
:10239800009802FB03F31F441344039AA2F10209B5
:1023A80002EB470709EB430937F802CF7DB300F08A
:1023B80007030126C20800249E4049F2B41373445F
:1023C80076B203EBC213244A6FEA06081344724636
:1023D8000BE07F2A04D83F2802D8197831431970B6
:1023E800013401330132A54211D00CFA04F1090479
:1023F800EFD47F2AF4D83F28F2D819780134013372
:10240800013208EA0101A54203F8011CEDD1B945E2
:1024180000F10100C8D1009ABDF804303F2A0D49E7
:1024280028BF3F227F2B28BF7F23A1F8A621A1F830
:10243800A4319AF800305B4504D11AF801BFBBF10A
:10244800000F8CD105B0BDE8F08F4FF0000BF0E71E
:1024580000030024409800244008002400214FF481
:1024680080626248F0B589B015F028F8604B03F136
:10247800800113F8012F42F0080299421A70F8D12E
:1024880004AD01213E2302A80B22ADF81030CDE99E
:1024980002510021FFF746FF0298A84203D0049991
:1024A800013114F0ADF8534B03F1800113F8012FFB
:1024B80042F0200299421A70F8D14F4B0295D3E9A5
:1024C8000064E64202D0002E00F08C800F2C0194AC
:1024D80077D8012C38D133782A468DF8103000236C
:1024E80002A80394022113553622FFF71BFF029816
:1024F800A84203D00499013114F082F83F4F404EAE
:102508003C6804EB840306EB031605E03B680134E2
:1025180050360433A3421BDD092CF7DC314602A8F0
:1025280002F00EF93B6802A80721E31A03EB8303C4
:102538005A000C32FFF7F6FE0298A842E6D004993A
:10254800013114F05DF8E1E7002C49D12A46C6E7CD
:10255800264EB02400252B488DF808400134294622
:1025680006F0A6FA6423012202A92748E4B207F07C
:102578003FFF294623488DF8085006F099FA0122B2
:10258800642302A9204807F033FF102329461D4879
:102598008DF8083006F08CFA6423012202A91A4843
:1025A80007F026FF0121174806F082FA80223146FB
:1025B80064231548164407F01BFFB82CCAD109B08C
:1025C800F0BD002201A902A814F0DCF9019B0290D9
:1025D80004932246314614F049FFDDE901427EE7C3
:1025E8002846F6E7094814F0BFF900BFF49900241B
:1025F800739A0024F39C0024DC020024780700244A
:1026080058040024F0990024E8990024247D010846
:102618002DE9F04784B000246B46846083E8060007
:1026280002EB42032F4AB2EBC30F01EBC309C0E927
:10263800004453D3DC008046002C43D00E4620468D
:1026480013F0F6FF0444B1450746C8F80840C8F837
:1026580000003AD000F118040BE09AF8003004F8B2
:10266800103C1836002344F8145C1834B14543551F
:102678002BD0A4F11000A4F11803274644F8180C35
:10268800D6E900A51AEB050F02D0BAF1000F22D047
:102698000F2D039504D8012DDFD0002DE1D009E0DE
:1026A8001846002203A914F06DF9039B44F8180C8E
:1026B80044F8103C2A46514614F0D8FE039D54F8BD
:1026C800180CCEE72746046084604046C8F80470BA
:1026D80004B0BDE8F087044814F046F9034814F044
:1026E80046F900BFF8FFFF7F247D0108F07C010850
:1026F8002DE9F041044600F1080782B0084627603A
:1027080088461546FDF7EEFD0F280646019017D8B6
:10271800012812D198F80030237200236660204601
:10272800BB55D5E900122B60E261AA68A1616B6014
:10273800AB60226202B0BDE8F0810028EDD008E06D
:10274800002201A9204614F01DF9019B07462060CC
:10275800A36032463846414614F088FE019E276839
:10276800DBE700BF2DE9F041044600F1080782B01D
:102778000846276088461546FDF7B4FD0F2806462B
:10278800019017D8012812D198F80030237200233D
:1027980066602046BB55D5E900122B60E261AA6845
:1027A800A1616B60AB60226202B0BDE8F0810028D5
:1027B800EDD008E0002201A9204614F0E3F8019BBF
:1027C80007462060A36032463846414614F04EFE64
:1027D800019E2768DBE700BF2DE9F041044600F1C0
:1027E800080782B00846276088461546FDF77AFD37
:1027F8000F280646019017D8012812D198F8003002
:102808002372002366602046BB55D5E900122B6071
:10281800E261AA68A1616B60AB60226202B0BDE8A8
:10282800F0810028EDD008E0002201A9204614F02C
:10283800A9F8019B07462060A36032463846414606
:1028480014F014FE019E2768DBE700BF2DE9F04174
:10285800044600F1080782B00846276088461546F6
:10286800FDF740FD0F280646019017D8012812D120
:1028780098F800302372002366602046BB55D5E9DE
:1028880000122B60E261AA68A1616B60AB602262F2
:1028980002B0BDE8F0810028EDD008E0002201A9CF
:1028A800204614F06FF8019B07462060A36032466B
:1028B8003846414614F0DAFD019E2768DBE700BF81
:1028C8002DE9F041044600F1080782B00846276068
:1028D80088461546FDF706FD0F280646019017D8CD
:1028E800012812D198F80030237200236660204630
:1028F800BB55D5E900122B60E261AA68A1616B6043
:10290800AB60226202B0BDE8F0810028EDD008E09B
:10291800002201A9204614F035F8019B07462060E3
:10292800A36032463846414614F0A0FD019E276850
:10293800DBE700BF2DE9F047D1E90024002382B08E
:10294800A41A0D4680468360C0E9003349D0284B5D
:102958009C424BD8204613F06BFE82465444C8E98B
:1029680000AAC8F80840D5E90069B14533D00AF192
:1029780018040AE03B7804F8103C1836002344F8A1
:10298800145C18344E45435525D0A4F110007568E1
:10299800A4F11803A24644F8180C3768EF4200D097
:1029A8000FB30F2D019504D8012DE3D0002DE4D0ED
:1029B80009E01846002201A913F0E4FF019B44F83E
:1029C800180C44F8103C2A46394614F04FFD019D76
:1029D80054F8180CD1E74046C8F804A002B0BDE886
:1029E800F087A246BAE7034813F0BEFF13F0B9FF19
:1029F800F8FFFF7F247D01082DE98048A5B0DFF8A6
:102A080060B30021BA4806AC04F0DEFCB9490AA854
:102A1800B94EFEF761F8B94D5946DFF848A303A847
:102A2800FFF788FF002303AA0AA9009410A80996B3
:102A38000895CDF818A001F0F5FC10A9B048FFF7EB
:102A480045FB10A8FFF794FB2046FFF735FB03A8CA
:102A5800FEF7BAF8DFF810930AA8DFF8108313F02E
:102A6800B3FFA8490AA8A84FFEF736F8494603A8B5
:102A78009FEDA68AFFF75EFF002303AA0AA9009428
:102A880010A8CDF818A0CDE9085601F0CBFC10A984
:102A98009F48FFF71BFB10A8FFF76AFB2046FFF7CC
:102AA8000BFB03A8FEF790F80AA813F08DFF9949CD
:102AB8000AA8FEF711F8414603A8FFF73BFF0023D9
:102AC80003AA0AA9009410A8CDF818A0CDE90856C1
:102AD80001F0A8FC10A99048FFF7F8FA10A8FFF732
:102AE80047FB2046FFF7E8FA03A8FEF76DF80AA8A7
:102AF80013F06AFF83490AA8FDF7EEFF394603A8D9
:102B0800FFF718FF002303AA0AA9009410A8CDF81C
:102B180018A0CDE9085601F085FC10A97F48FFF7F9
:102B2800D5FA10A8FFF724FB2046FFF7C5FA03A83B
:102B3800FEF74AF80AA813F047FF79490AA8FDF7F3
:102B4800CBFF784903A8FFF7F5FE002303AA0AA9DB
:102B5800009410A8CDF818A0CDE9085601F062FC41
:102B680010A97148FFF7B2FA10A8FFF701FB204639
:102B7800FFF7A2FA03A8FEF727F80AA813F024FF24
:102B88006A490AA8FDF7A8FF694903A8FFF7D2FE1A
:102B9800002303AA0AA9009410A8CDF818A0CDE92B
:102BA800085601F03FFC10A96248FFF78FFA10A8F9
:102BB800FFF7DEFA2046FFF77FFA03A8FEF704F8CE
:102BC8000AA813F001FF4F490AA8FDF785FF5A49E3
:102BD80003A8FFF7AFFE002303AA0AA9009410A8D0
:102BE800CDF818A0CDE9085601F01CFC10A95348EF
:102BF800FFF76CFA10A8FFF7BBFA2046FFF75CFA5C
:102C080003A8FDF7E1FF0AA813F0DEFE3D490AA874
:102C1800FDF762FF4A4903A8FFF78CFE002303AAC9
:102C28000AA9009410A8CDF818A0CDE9085601F01B
:102C3800F9FB10A94348FFF749FA10A8FFF798FADB
:102C48002046FFF739FA03A8FDF7BEFF0AA813F0DC
:102C5800BBFE3D490AA8FDF73FFF394903A8FFF726
:102C680069FE002303AA0AA9009410A8CDF818A0A9
:102C7800CDE9085601F0D6FB10A93448FFF726FA2B
:102C880010A8FFF775FA2046FFF716FA03A8FDF714
:102C98009BFF0AA813F098FE2D490AA8FDF71CFF10
:102CA800494603A8FFF746FE002303AA0AA9009491
:102CB80010A8CDF818A0CDE9085601F0B3FB10A96B
:102CC8002448FFF703FA10A8FFF752FA2046FFF747
:102CD800F3F903A8FDF778FF0AA813F075FE1E4E56
:102CE8001E4D10ACB0EE480ADBE900239B1A3FE00A
:102CF80040080024507D0108E1090008FD0900088A
:102D0800580400245C7D01082C0300240000000006
:102D1800A8040024687D0108F8040024480500245C
:102D2800747D01089803002498050024807D01081B
:102D38008C030024E8050024080300243806002436
:102D4800F4020024880600248C7D0108D80600249B
:102D5800987D010828070024ABAAAAAA980800248D
:102D680014030024C909000838030024A40300241C
:102D7800DB1006FB03F300EE903A0FCD0FC495E885
:102D88000F00F8EE600A84E80F00002210A94948F5
:102D980005F05EF805F1100C0DF1400EB0EE480A92
:102DA800D9E900239B1ADB1006FB03F300EE903AE7
:102DB800BCE80F00AEE80F009CE80F00F8EE600AD0
:102DC80084E80F00002210A93B4805F041F805F1FE
:102DD800300C0DF1400EB0EE480AD8E900239B1ADA
:102DE800DB1006FB03F300EE903ABCE80F00AEE8F8
:102DF8000F009CE80F00F8EE600A84E80F0000223C
:102E080010A92E4805F024F805F1500CB0EE480A38
:102E1800D7E900239B1ADB1006FB03F310AE00EE84
:102E2800903ABCE80F000FC69CE80F00F8EE600A65
:102E380084E80F0010A90022214805F009F81D4870
:102E480005F036F8BDEEC00A1E4B1B4883ED000A9C
:102E580005F02EF8BDEEC00A1B4B184883ED000A9A
:102E680005F026F8BDEEC00A184B154883ED000A98
:102E780005F01EF8BDEEC00A154B0021154A16488C
:102E880083ED000A154B83ED008A1223009311701D
:102E9800134A144B1160144A1170426813F034FE3F
:102EA800A5F1680004F028F8FFF79AF9FFF7D6FAB9
:102EB800FAE700BF049E0024B8030024449E0024BF
:102EC800F4030024009E0024B4030024409E002440
:102ED800F00300243C9E0024DC020024B0030024FC
:102EE80078070024A47D01082C04002410B50446AA
:102EF800006818B1A168091A13F082FB204610BDBA
:102F08002DE9F04F8C6883B08B4681460192002CE6
:102F180036D0019BD3F800A0D3F8048000E0144613
:102F28006669454627695046B045394628BF354643
:102F38002A4615B114F08AFA08B9A8EB0600002849
:102F4800D4E90212AEBF00210A460121002AE6D1C7
:102F5800B9B9A3468DB12A465146384614F076FAD7
:102F680058B100284FF000034846B4BFC9E9003BF8
:102F7800C9E9004303B0BDE8F08FA6EB0800F0E70D
:102F88000C1DDBF80C30A34210D02046A34613F0EA
:102F98008BFC019B0446D3F80480D3F800A0D0E949
:102FA80004764645354628BF4546D3E700234846BC
:102FB800C9E9003403B0BDE8F08F00BF2DE9F04F38
:102FC8001F460B1D83B00E469A4205464DD0144647
:102FD800D7E900B8D2E90419C246C84528BFCA468D
:102FE800BAF1000F1CD052465846019114F02EFA3F
:102FF8000028019902D1A8EB0903002B14DB08462D
:103008005246594614F022FA08B9A9EB08000028DC
:1030180050DB0023C5E90043284603B0BDE8F08F24
:10302800A8EB0903002BF0DAF368A34217D0204677
:1030380013F03AFCD0F814A08146C245524628BF86
:10304800424622B15946006914F000FA08B9AAEBC1
:103058000800002825DAD9F80C30002B4BD0284678
:10306800C5E9004403B0BDE8F08F4B69CBB10C69EA
:10307800D7F80480D4F81490C1454A4628BF424680
:1030880022B13968206914F0E1F908B9A9EB080000
:10309800002806DA00232846C5E9003403B0BDE855
:1030A800F08F28463A463146FFF72AFF284603B0F4
:1030B800BDE8F08F3369A342ECD0204613F0F2FB51
:1030C800D0F814A08146C245524628BF424662B194
:1030D8005846D9F8101014F0B9F930B10028E0DAE0
:1030E800E3682BB1C5E9009996E7A8EB0A00F5E774
:1030F800C5E9003490E7C5E900398DE791426CD005
:103108002DE9F04F0C4687B09246804600F104093D
:1031180014E01B782B7600216E614B465A46815588
:103128002946A6693846AE6213F0C0FBD8F81430B9
:103138000133C8F814301C34A2454BD023464A4604
:10314800414604A8FFF73AFFDDF814B0BBF1000FC1
:10315800F1D0A9EB0B07049BB7FA87F77F09002B7F
:1031680018BF47F0010727B32C2013F061FA054672
:103178001830D4E900362861F34200D073B30F2E1B
:10318800039604D8012EC4D0002EC4D00AE0002231
:1031980003A905F11000019313F0F4FB039A019BB6
:1031A8002861AA613246194614F060F9039E28691D
:1031B800B1E76668DBF814503246AE4228BF2A46AB
:1031C8002AB1DBF81010206814F040F900B9701B20
:1031D800C70FC9E707B0BDE8F08F7047014813F083
:1031E800C3FB00BF247D01082DE9F04F8C6883B034
:1031F8008B4681460192002C36D0019BD3F800A063
:10320800D3F8048000E014466669454627695046AD
:10321800B045394628BF35462A4615B114F016F987
:1032280008B9A8EB06000028D4E90212AEBF0021B5
:103238000A460121002AE6D1B9B9A3468DB12A462A
:103248005146384614F002F958B100284FF00003EF
:103258004846B4BFC9E9003BC9E9004303B0BDE82B
:10326800F08FA6EB0800F0E70C1DDBF80C30A3424A
:1032780010D02046A34613F017FB019B0446D3F851
:103288000480D3F800A0D0E904764645354628BF27
:103298004546D3E700234846C9E9003403B0BDE8F2
:1032A800F08F00BF2DE9F04F1F460B1D83B00E466F
:1032B8009A4205464DD01446D7E900B8D2E9041918
:1032C800C246C84528BFCA46BAF1000F1CD05246AC
:1032D8005846019114F0BAF80028019902D1A8EBD8
:1032E8000903002B14DB08465246594614F0AEF881
:1032F80008B9A9EB0800002850DB0023C5E9004302
:10330800284603B0BDE8F08FA8EB0903002BF0DADC
:10331800F368A34217D0204613F0C6FAD0F814A0D9
:103328008146C245524628BF424622B159460069E5
:1033380014F08CF808B9AAEB0800002825DAD9F8A7
:103348000C30002B4BD02846C5E9004403B0BDE83B
:10335800F08F4B69CBB10C69D7F80480D4F814907E
:10336800C1454A4628BF424622B13968206914F04F
:103378006DF808B9A9EB0800002806DA00232846EA
:10338800C5E9003403B0BDE8F08F28463A46314617
:10339800FFF72AFF284603B0BDE8F08F3369A34240
:1033A800ECD0204613F07EFAD0F814A08146C2452E
:1033B800524628BF424662B15846D9F8101014F058
:1033C80045F830B10028E0DAE3682BB1C5E9009987
:1033D80096E7A8EB0A00F5E7C5E9003490E7C5E9E8
:1033E80000398DE7914200F094802DE9F04F0D46A9
:1033F80087B09246804600F104092AE0484B9B4575
:1034080000F28B80584613F013F90346D5E9061CE1
:10341800ACEB010203EB0B008C452063C4E90A33D3
:1034280005D01846019214F02FF8019A034603EBD1
:10343800020C21464B463A463046C4F82CC013F0DD
:1034480035FAD8F814300133C8F814302435AA45B1
:103458005CD02B464A46414604A8FFF723FF059F48
:10346800002FF3D0A9EB0706049BB6FA86F6760977
:10347800002B18BF46F00106002E38D0342013F078
:10348800D7F804461830D5E900B320611BEB030FC9
:1034980002D0BBF1000F3DD00F2B039315D8012BA1
:1034A80010D19BF80020227600226361C254226367
:1034B800D5E9061CC4E90A22BCEB010B9ED15A4689
:1034C8005B46A7E7002BEFD00AE0002203A904F12E
:1034D8001000019313F056FA039A019B2061A26130
:1034E8001A46594613F0C2FF039B2069DCE76E6851
:1034F8007C693246A64228BF224622B1396928682B
:1035080013F0A4FF00B9301BC60FB7E707B0BDE83A
:10351800F08F7047034813F027FA13F022FA00BF20
:10352800FCFFFF7F247D01082DE9F04FADF63C0D2F
:10353800BE49A6AC2046FDF7CFFA0123BC49ADA889
:10354800A361FDF7C9FA0223BA49B4A86363FDF77A
:10355800C3FA0423B849BBA82365FDF7BDFA0823BD
:10356800B649C2A8E366FDF7B7FAB54810220023AA
:10357800011DC4F88820C9AA0371836015464361F8
:10358800C0E903112146FFF7B9FD1C3D284613F099
:103598001BFAA542F9D1AB4A9FAFAB49EEADA8489B
:1035A80012F0B6FFA9492046FDF796FAA849ACA83B
:1035B800FDF792FAA749B2A8FDF78EFAA649B8A86E
:1035C800FDF78AFAA549BEA8FDF786FAA449C4A85A
:1035D800FDF782FAA349CAA8FDF77EFAA249D0A846
:1035E800FDF77AFAA149D6A8FDF776FAA049DCA832
:1035F800FDF772FA9F49E2A8FDF76EFA9E49E8A81E
:10360800FDF76AFA0C2337AA379438933B469B4850
:1036180006CAFEF7FDFF183D284613F0D5F9A54266
:10362800F9D1884A0DF6280595490DF638069348CC
:1036380012F06EFF93492046FDF74EFA9249ACA866
:10364800FDF74AFA9149B2A8FDF746FA9049B8A899
:10365800FDF742FA8F49BEA8FDF73EFA8E49C4A885
:10366800FDF73AFA8D49CAA8FDF736FA8C49D0A871
:10367800FDF732FA8B49D6A8FDF72EFA8A49DCA85D
:10368800FDF72AFA8949E2A8FDF726FA8849E8A849
:10369800FDF722FA8749EEA8FDF71EFA8649F4A835
:1036A800FDF71AFA8549FAA8FDF716FA84490DF5C7
:1036B8008060FDF711FA83490DF58360FDF70CFA78
:1036C80081490DF58660FDF707FA80490DF5896097
:1036D800FDF702FA7E490DF58C60FDF7FDF97D498D
:1036E8000DF58F60FDF7F8F97B490DF59260FDF750
:1036F800F3F97A490DF59560FDF7EEF978490DF57E
:103708009860FDF7E9F977490DF59B60FDF7E4F955
:1037180075490DF59E60FDF7DFF974490DF5A16057
:10372800FDF7DAF972490DF5A460FDF7D5F971498D
:103738000DF5A760FDF7D0F96F490DF5AA60FDF703
:10374800CBF96E490DF5AD60FDF7C6F96C490DF57D
:10375800B060FDF7C1F96B490DF5B360FDF7BCF931
:1037680069490DF5B660FDF7B7F968490DF5B96017
:10377800FDF7B2F966490DF5BC60FDF7ADF965498D
:103788000DF5BF60FDF7A8F963490DF5C260FDF7B7
:10379800A3F962490DF5C560FDF79EF960490DF57D
:1037A800C860FDF799F95F490DF5CB60FDF794F90D
:1037B8005D490DF5CE60FDF78FF95C490DF5D160D7
:1037C800FDF78AF95A490DF5D460FDF785F959498D
:1037D8000DF5D760FDF780F957490DF5DA60FDF76B
:1037E8007BF956490DF5DD60FDF776F954490DF57D
:1037F800E060FDF771F953490DF5E360FDF76CF9E9
:1038080051490DF5E660FDF767F950490DF5E96096
:10381800FDF762F94E490DF5EC60FDF75DF94D498C
:103828000DF5EF60FDF758F996E000BFB87D010887
:10383800BC7D0108C07D0108C47D0108C87D010860
:10384800440300240000002479100008CC7D0108FE
:10385800D07D0108D47D0108D87D0108DC7D0108F0
:10386800E07D0108E47D0108E87D0108EC7D0108A0
:10387800F07D0108F47D0108F87D01089803002413
:10388800D10B0008FC7D0108007E0108047E0108B8
:10389800087E01080C7E0108107E0108147E0108CC
:1038A800187E01081C7E0108207E0108247E01087C
:1038B800287E01082C7E0108307E0108347E01082C
:1038C800387E01083C7E0108407E0108447E0108DC
:1038D800487E01084C7E0108507E0108547E01088C
:1038E800587E01085C7E0108607E0108647E01083C
:1038F800687E01086C7E0108707E0108747E0108EC
:10390800787E01087C7E0108807E0108847E01089B
:10391800887E01088C7E0108907E0108947E01084B
:10392800987E01089C7E0108A07E0108A47E0108FB
:10393800A87E0108AC7E0108B07E0108B47E0108AB
:10394800B87E0108BC7E0108C07E0108C47E01085B
:10395800C87E0108CC7E0108C6490DF5F260FDF766
:10396800BBF8C5490DF5F560FDF7B6F8C3490DF587
:10397800F860FDF7B1F8C2490DF5FB60FDF7ACF84A
:10398800C0490DF5FE60FDF7A7F8BF490DF6080020
:10399800FDF7A2F8BD490DF50260FDF79DF83C233F
:1039A80035AA359436933B46B94806CAFEF730FE29
:1039B80055F8080C183E8542A5F1180503D0B168E2
:1039C800013112F01DFEA642F2D1B24ACAADB24987
:1039D800AF4812F09DFDB1493046FDF77DF8B0497A
:1039E800ACA8FDF779F8AF49B2A8FDF775F8AE496C
:1039F800B8A8FDF771F8AD49BEA8FDF76DF8AC4958
:103A0800C4A8FDF769F8AB49CAA8FDF765F807230C
:103A180033AA339634933B46A74806CAFEF7F8FD07
:103A2800284612F0D1FFB542A5F11805F8D1A34EEA
:103A38004FF0070A974A0DF5187897490DF5DE7982
:103A48009D480DF1BC0B12F063FDBC460DF1C40E90
:103A5800DCAD0FCEACE80F0096E80700CDE9317A6F
:103A68008CE807009EE8060072A8FCF7D7FF72AA48
:103A78008A492046FEF73CFE06F10C0EC446BEE815
:103A88000F00ACE80F009EE80700CDE92F8A8CE80C
:103A980007009BE8060048460DF1B40BFCF7BEFF93
:103AA8004A467F49AFA8FEF723FE06F1280E0DF51A
:103AB800117CBEE80F00CDE92DCAACE80F009EE8E6
:103AC80007008CE807009BE806006CA80DF1AC0B1A
:103AD800FCF7A4FF6CAA7349B8A8FEF743FE06F1E9
:103AE800440E0DF50A7CBEE80F00CDE92BCAACE800
:103AF8000F009EE807008CE807009BE8060069A80D
:103B08000DF1A40BFCF78AFF69AA6749C1A8FEF763
:103B180029FE06F1600E0DF5037CBEE80F00CDE925
:103B280029CAACE80F009EE807008CE807009BE86C
:103B3800060066A80DF19C0BFCF770FF66AA5B49AE
:103B4800CAA8FEF70FFE06F17C0E0DF5F87C983634
:103B5800BEE80F00CDE927CAACE80F009EE80700D1
:103B68008CE807009BE8060063A8FCF757FF63AAE8
:103B78004F49D3A8FEF730FE0DF5EA7C0DF1940EFF
:103B8800CDF898A0CDF894C00FCEACE80F0096E819
:103B980007008CE807009EE8060060A8FCF73EFFD7
:103BA80060AA44492846FEF7A3FD45480023E5AA34
:103BB8002146037183604361031DC0E90333FFF7A6
:103BC80011FC05F11800FFF791F9284612F0FCFEE8
:103BD800A542A5F12405F4D160A8BEADFFF786F98A
:103BE80063A8FFF783F966A8FFF780F969A8FFF7CC
:103BF8007DF96CA8FFF77AF94846FFF777F972A8BC
:103C0800FFF774F9234A2F492D4812F081FC2E49F9
:103C18002046FCF761FF2D49ACA8FCF75DFF2C4955
:103C2800B2A8FCF759FF2B49B8A8FCF755FF0423A5
:103C380023AA239424933B46274806CAFEF7E8FCA8
:103C4800183D284612F0C0FEA542F9D1114AC4AD6C
:103C58001149214812F05CFC20492046FCF73CFF42
:103C68001F49ACA8FCF738FF1E49B2A8FCF734FF7F
:103C78003AE000BFD07E0108D47E0108D87E010852
:103C8800DC7E0108E07E0108E47E0108E87E010888
:103C98002003002400000024D10B0008EC7E01085A
:103CA800F47E0108FC7E0108047F01080C7F0108EE
:103CB800147F01081C7F01088C0300242477010865
:103CC8005C030024D10C0008247F01082C7F010824
:103CD800347F01083C7F01082C030024B87D0108CB
:103CE800BC7D0108C07D0108BF49B8A8FCF7F4FEF7
:103CF800BE49BEA8FCF7F0FE052321AA2194229311
:103D08003B46BB4806CAFEF783FC183D284612F01E
:103D18005BFEA542F9D1B74AEEAEB749B44812F0F6
:103D2800F7FBB6492046FCF7D7FEB549ACA8FCF727
:103D3800D3FEB449B2A8FCF7CFFEB349B8A8FCF744
:103D4800CBFEB249BEA8FCF7C7FEB149C4A8FCF730
:103D5800C3FEB049CAA8FCF7BFFED0A8AE49FCF71D
:103D6800BBFED6A8AD49FCF7B7FEAD49DCA8FCF709
:103D7800B3FEE2A8AB49FCF7AFFEE8A8AA49FCF7F6
:103D8800ABFE0C231FAA1F9420933B46A74806CAE4
:103D9800FEF73EFC183E304612F016FEA642F9D158
:103DA800DFF894A24FF0030B924A0DF26C4592494A
:103DB8009E4812F0ADFB1DAB9AE80700CDE91D9BAC
:103DC80089E8070093E8060072A80DF15C09FCF782
:103DD80025FE72AA89493046FEF78AFC83AA0AF1B1
:103DE8000C030DF16C0C1B9204220DF5037E1C9242
:103DF8000FCB8EE80F009CE806006CA8FCF70EFEBF
:103E08006CAA7F49AFA8FEF7ADFC7CAA0AF11C0397
:103E18000DF1640C199204220DF5F87E1A920FCB5D
:103E28008EE80F009CE8060069A8FCF7F7FD69AA70
:103E38007449B8A8FEF70AFD91AB0AF12C0E0DF5EE
:103E4800117C179305231893BEE80F00ACE80F0008
:103E5800DEF8003066A899E80600CCF800300DF1CD
:103E68005409FCF7DBFD66AA7149C1A8FEF7B4FC4A
:103E78008AAB0AF1400E0DF50A7C159305231693BB
:103E8800BEE80F00ACE80F00DEF8003063A899E840
:103E98000600CCF800300DF14C09FCF7BFFD63AA11
:103EA8006449CAA8FEF7D2FC0AF1540E0623C44698
:103EB800CDF84C801493BEE80F00ACE80F009EE8E4
:103EC80003008CE8030099E8060060A80DF1440996
:103ED800FCF7A4FD60AA4D49D3A8FEF77DFC0AF1C2
:103EE8006C0E0723BC46C9F80070C9F80430BEE858
:103EF8000F00ACE80F009EE807008CE8070099E87F
:103F080006005DA8FCF78AFD5DAA4149DCA8FEF71A
:103F180063FC04220AF188030DF5EA7E109275AA63
:103F28000DF13C0C0F920FCB8EE80F009CE80600B9
:103F38005AA8FCF773FD5AAA3649E5A8FEF786FC8D
:103F48000AF198020DF5A87C0DABCDF838B0CDF884
:103F580034C007CA8CE8070093E8060057A8FCF7A6
:103F68005DFD57AA2C49EEA8FEF736FC0AF1A4021B
:103F78000DF59C7C0BABCDF830B0CDF82CC007CA42
:103F88008CE8070093E8060051A8FCF747FD51AA02
:103F98002249F7A8FEF720FC0523022107AA089367
:103FA80009AB0A9101214BA80992079193E80600F1
:103FB800FCF734FD4BAA1A490DF58060FEF798FB13
:103FC8000AF1B0020DF58A7C05ABCDF818B0CDF832
:103FD80014C007CA8CE8070093E8060048A8FCF755
:103FE8001DFD48AA2AE000BFC47D0108C87D01085C
:103FF8003803002400000024D10B0008447F010886
:104008004C7F0108547F0108587F0108607F010830
:10401800687F0108707F0108747F01087C7F0108B0
:10402800847F01088C7F0108947F0108A403002481
:104038009C7F01085C7F0108E8770108B5490DF20B
:104048002440FEF78FFB0AF1BC020DF1FC0C03AB18
:10405800CDF810B00AF1C80ACDF80CC007CA8CE830
:10406800070093E8060042A8FCF7D8FC42AAAA4930
:104078000DF58960FEF724FC01AB0DF1E40CCDF8D9
:1040880008B09AE80700CDF804C08CE8070093E868
:1040980006003CA8FCF7C2FC3CAAA0492846FEF74B
:1040A8000FFC9F4800230DF592623146037183602F
:1040B8004361031DC0E90333FFF794F905F11800C4
:1040C800FEF714FF284612F07FFCAE42A5F1240546
:1040D800F4D13CA8C4ADFEF709FF42A8FEF706FFDD
:1040E80048A8FEF703FF4BA8FEF700FF51A8FEF70C
:1040F800FDFE57A8FEF7FAFE5AA8FEF7F7FE5DA8E0
:10410800FEF7F4FE60A8FEF7F1FE63A8FEF7EEFEE8
:1041180066A8FEF7EBFE69A8FEF7E8FE6CA8FEF7B6
:10412800E5FE72A8FEF7E2FE7E4A7F497C4812F05F
:10413800EFF97E492046FCF7CFFC7D49ACA8FCF797
:10414800CBFC7C49B2A8FCF7C7FC7B49B8A8FCF7B4
:10415800C3FC7A49BEA8FCF7BFFC05233C607B6022
:104168004346774897E80600FEF752FA183D284676
:1041780012F02AFCA542F9D16A4AC4AD71497048C7
:1041880012F0C6F970492046FCF7A6FC6F49ACA8A6
:10419800FCF7A2FC6E49B2A8FCF79EFCB8A86D49D2
:1041A800FCF79AFCBEA86C49FCF796FC0523C8F8F6
:1041B8000040C8F8043091AB684898E80600FEF75C
:1041C80027FA183D284612F0FFFBA542F9D1554AB7
:1041D80000245C49614812F09BF96148614A00F586
:1041E8001043614E6149C3F89021614AC3F88C417C
:1041F800C3F89441C3F8A841046044610462C0F85C
:10420800E440C3E966625B4A5B4EC3F8A021454AB5
:1042180012F07EF95948434A00F1080358494460AE
:1042280004723446036012F073F9564A564B92E80A
:10423800030083E8030028465449FCF74DFC544921
:10424800ACA8FCF749FC5349B2A8FCF745FC03228B
:104258008AAB9195929291AA4F4806CAFEF7D8F96F
:10426800B2A812F0B1FBACA812F0AEFB284612F0CF
:10427800ABFB2C4A334906F54875474812F048F914
:10428800464800F037FB274A4549444812F040F9B0
:104298002046503400F0B2F8AC42F9D1214A4149E5
:1042A800354812F035F9404B404A03F1500403F108
:1042B800F00513603E493F483F4A046003F1A004FB
:1042C80015600E6003F5A0713C483D4A046003F593
:1042D800C870116003F5F0713A4A03F50C7403F5E0
:1042E80020731060384A39481160394904600B60FE
:1042F8000C4A3849384812F00BF90A4A3549374808
:1043080012F006F9074A3349354812F001F9054A0F
:10431800304967E0A47F01088C7F0108947F010879
:104328007403002400000024D10C0008AC7F0108AD
:10433800B07F0108B87F0108C07F0108C87F010865
:1043480014030024D10B0008247F0108D07F010842
:10435800D87F0108E07F0108E87F010808030024EE
:10436800400800240107010680707FF0C509000895
:104378000FF807003C81010858040024DC020024DF
:10438800056B01084C02002400030024F07F01089B
:10439800F47F0108F87F0108F40200247C07002458
:1043A800B11200080D0C0008A804002434040024ED
:1043B8004404002454040024500400243804002435
:1043C8004C04002448040024400400243C04002435
:1043D80030040024C1090008049E0024B803002406
:1043E800449E002403480DF63C0DBDE8F04F12F042
:1043F8008FB800BFF4030024FFF796B8002200F13D
:10440800240110B400F10C0482600273446080F847
:1044180024205DF8044BC2638264C0E90712C0E936
:104428000D2270472DE9F04F2DED028B89B004461F
:10443800934608EE101A0193002304F11C078360C9
:104448000373036280F82430C3638364C0E90D33C7
:1044580000F10C03436000F124030430836112F07F
:10446800EBFA04F134039B4540D0D4F83490E26B66
:10447800DBE9005AA2EB0902AAEB05084245C0F0A5
:104488008180A66BA6EB0901884500F2C480B8F1CB
:10449800000F16DD4FEAE806A44ACA4602FB06F6F4
:1044A8002946504612F0C8FA013E05F118050AF1EE
:1044B800180AF5D1B8F1000FA66BCCBF42461822F6
:1044C80091444E450FD009F1080555F8080CA8424B
:1044D80004D0D9F80810013112F092F809F118093E
:1044E8001835B145F1D1636B4344A363019B236045
:1044F80000230693149B9E68002E00F0888004AD6C
:10450800022214992846B047149BD3E9026C95E817
:10451800030002AA04F1400382E8030093E80300C1
:1045280085E8030092E8030083E80300A36CE26CCB
:10453800A6640693C4F84CC007921BB1032229460F
:104548002846984718EE101A384612F075FAA368EC
:104558000A2B11D00025226A6FF040439A4200F0DE
:10456800DC80012272493846154412F04BFBA368DF
:10457800C3F10A03AB42EED8204609B0BDEC028B6A
:10458800BDE8F08FB8F1000F00F09980694B9845AD
:1045980000F2C680404612F04BF88146AA4500F06A
:1045A800968009F1180B08EE907A0EE0012E40F083
:1045B80088803B780BF8103C183500234BF8146CB6
:1045C8000BF1180BAA4583557FD0ABF11000ABF166
:1045D8001803D5E900764BF8180CF74202D0002FE3
:1045E80000F0A0800F2E0496E0D91846002204A9F6
:1045F80012F0C8F9049B4BF8180C4BF8103C3246E3
:10460800394612F033FF049E5BF8180CD4E7DDF846
:104618001CC004AD7BE7CA104448002900FB02F225
:1046280010DD16462946484612F006FA013E05F105
:10463800180509F11809F5D1D4E90D96DBE9005AF6
:10464800A6EB09010D44554564D01836BB46A9466A
:104658000DE0012D2CD13B7806F8103C09F1180922
:10466800002346F8145C1836D145435523D0A6F1EB
:104678001000A6F1180346F8180CD9E90075EF42A6
:1046880001D0002F4ED00F2D0495E2D918460022F4
:1046980004A912F077F9049B46F8180C46F8103C68
:1046A8002A46394612F0E2FE049D56F8180CD5E762
:1046B800002DD3D0F4E7636B5F46434415E7C1464A
:1046C8006CE7002E3FF478AF99E718EE907AD4E9BA
:1046D8000D6A56450FD006F1080555F8080CA84292
:1046E80003D0B168013111F08BFF18361835B24587
:1046F800F3D1D4F834A0BAF1000F05D0E16B5046DD
:10470800A1EB0A0111F07CFF09EB0803C4F834900F
:10471800E363EAE609EB0803E7E6074812F027F93E
:1047280012F01FF9054812F01FF900BFABAAAAAA98
:10473800647D0108F8FFFF7F70810108247D01086E
:104748002DE9F043044608300B6883B04F6B2060B6
:1047580003EB4303D1E907964FEAC30819EB060FA9
:1047680007EBC30502D0B9F1000F26D00F2E019632
:1047780014D8012E0FD199F80030237200236660F7
:10478800835520466A6857F8081012F03BFA20460D
:1047980003B0BDE8F083002EF0D007E0002201A9A5
:1047A800204612F0EFF8019B2060A360324649468C
:1047B80012F05CFE019E2068E0E7014812F0D4F890
:1047C800247D0108D0E90D320168D31A4A1CDB1098
:1047D80010B5084C04FB03F3B2FBF3F103FB112300
:1047E8000360836C23B1C36C4030BDE810401847A8
:1047F80012F0C0F8ABAAAAAA0368013B002B036019
:1048080008DA084AD0E90D135B1ADB1002FB03F340
:10481800013B0360836C13B1C36C4030184710B57B
:1048280012F0A8F8ABAAAAAA836C016013B1C36CF2
:104838004030184710B512F09DF800BFF0B500F1F0
:10484800080783B0076029B3044608460E46FBF7FD
:1048580049FD0F28054601900DD8012808D1337865
:104868002372019B002122686360D15403B0F0BD1C
:104878000028F6D008E0002201A9204612F082F8AC
:10488800019B07462060A3602A463146384612F04D
:10489800EDFDE6E7014812F067F800BF247D010846
:1048A800F0B583B0002302AC04E9060004460F48C3
:1048B800B0EB820FA360C4E9003314D3960076B13D
:1048C80030460F4611F0B4FE0546394632463544A7
:1048D8002060A56012F0CAFD656003B0F0BD3546E2
:1048E8002660A660F8E7024812F041F8FCFFFF7F57
:1048F800F07C01082DE9F04100F12C020446002566
:1049080000F144039EB05830A56204F13C0684F8D7
:104918002C5084F84450C4E90852C4E90F35C4E95E
:10492800065500F0F1FF082200232946A56004F18E
:104938002400E3602561894BC4E90025022205AD06
:104948000092A26A12F0E0F8012303A8636100F064
:10495800DBFF039BA06DAB4200F0AD8004F1600269
:10496800904200F09F80059AA365049BE365236E3F
:104978002266002800F09B8003900593002304938F
:104988000370099A206F22670A9AA16F62670B9ACF
:1049980009930A930B93A26710B1091A11F030FE1C
:1049A8000C9A0023E06FE2670D9AD4F88410C4F8DB
:1049B80080200E9A0C930D930E93C4F8842010B1A6
:1049C800091A11F01DFE0F9B11AFD4F88800BB42E5
:1049D8007FD004F19002C4F88830109B9042C4F84C
:1049E8008C3000F09F80119AD4F89030C4F8902051
:1049F800002800F09A8011930F9000230DF16808A9
:104A080010930370159BD4F8AC00C4F8A030169B23
:104A1800C4F8A430179BC4F8A830189B434568D045
:104A280004F1B402C4F8AC30199B9042C4F8B03019
:104A38006FD01A9AD4F8B430C4F8B42000286BD0D8
:104A48001A9318900023199303701898404503D0BF
:104A58001A99013111F0D4FD0F98B84203D0119979
:104A6800013111F0CDFD0C9818B10E99091A11F009
:104A7800C7FD099818B10B99091A11F0C1FD0398DF
:104A8800A84203D00599013111F0BAFD0921226C21
:104A9800334B30460091002112F036F820461EB004
:104AA800BDE8F081049AC4E91632059B2366039594
:104AB80005AD284662E7049A32B1012A47D0294653
:104AC80012F0D4FC049AA06D0023E2658354039885
:104AD80054E7109A3AB1012A32D0394612F0C6FC8E
:104AE800109AD4F888000023C4F88C2083540F98B7
:104AF80083E7199A3AB1012A1BD0414612F0B6FC55
:104B0800199AD4F8AC000023C4F8B020835418983C
:104B180098E71A9BC4F8B430CDF860800DF16808A6
:104B280040468FE7119BC4F890300F9711AF384675
:104B380063E79DF868300370199AD4F8AC00E2E78F
:104B48009DF844300370109AD4F88800CBE79DF89C
:104B580014300370049AA06DB6E700BFAC7F01085B
:104B6800888101082DE9F04FADF63C0DBE49A6AC91
:104B78002046FFF763FE0123BC49ADA8A361FFF7F8
:104B88005DFE0223BA49B4A86363FFF757FE042306
:104B9800B849BBA82365FFF751FE0823B649C2A848
:104BA800E366FFF74BFEB54810220023011DC4F849
:104BB8008820C9AA0371836043611546C0E90311BF
:104BC8002146FEF79BFA1C3D284611F0FDFEA54242
:104BD800F9D1AB4A0DF51F78AA49EEADA74811F0F7
:104BE80097FCA9492046FFF729FEA849ACA8FFF77A
:104BF80025FEA749B2A8FFF721FEA649B8A8FFF7E6
:104C08001DFEA549BEA8FFF719FEA449C4A8FFF7D1
:104C180015FEA349CAA8FFF711FEA249D0A8FFF7BD
:104C28000DFEA149D6A8FFF709FEA049DCA8FFF7A9
:104C380005FE9F49E2A8FFF701FE9E49E8A8FFF795
:104C4800FDFD0C2337AA3794389343469A4806CA81
:104C5800FDF7DEFC183D284611F0B6FEA542F9D155
:104C6800874A0DF6280595490DF63806924811F041
:104C78004FFC93492046FFF7E1FD9249ACA8FFF7A6
:104C8800DDFD9149B2A8FFF7D9FD9049B8A8FFF713
:104C9800D5FD8F49BEA8FFF7D1FD8E49C4A8FFF7FF
:104CA800CDFD8D49CAA8FFF7C9FD8C49D0A8FFF7EB
:104CB800C5FD8B49D6A8FFF7C1FD8A49DCA8FFF7D7
:104CC800BDFD8949E2A8FFF7B9FD8849E8A8FFF7C3
:104CD800B5FD8749EEA8FFF7B1FD8649F4A8FFF7AF
:104CE800ADFD8549FAA8FFF7A9FD84490DF5806057
:104CF800FFF7A4FD82490DF58360FFF79FFD814909
:104D08000DF58660FFF79AFD7F490DF58960FFF77D
:104D180095FD7E490DF58C60FFF790FD7C490DF5FA
:104D28008F60FFF78BFD7B490DF59260FFF786FDDD
:104D380079490DF59560FFF781FD78490DF5986083
:104D4800FFF77CFD76490DF59B60FFF777FD754908
:104D58000DF59E60FFF772FD73490DF5A160FFF731
:104D68006DFD72490DF5A460FFF768FD70490DF5FA
:104D7800A760FFF763FD6F490DF5AA60FFF75EFDB9
:104D88006D490DF5AD60FFF759FD6C490DF5B06043
:104D9800FFF754FD6A490DF5B360FFF74FFD694908
:104DA8000DF5B660FFF74AFD67490DF5B960FFF7E5
:104DB80045FD66490DF5BC60FFF740FD64490DF5FA
:104DC800BF60FFF73BFD63490DF5C260FFF736FD95
:104DD80061490DF5C560FFF731FD60490DF5C86003
:104DE800FFF72CFD5E490DF5CB60FFF727FD5D4908
:104DF8000DF5CE60FFF722FD5B490DF5D160FFF799
:104E08001DFD5A490DF5D460FFF718FD58490DF5F9
:104E1800D760FFF713FD57490DF5DA60FFF70EFD70
:104E280055490DF5DD60FFF709FD54490DF5E060C2
:104E3800FFF704FD52490DF5E360FFF7FFFC514908
:104E48000DF5E660FFF7FAFC4F490DF5E960FFF74D
:104E5800F5FC4E490DF5EC60FFF7F0FC4C490DF5FB
:104E6800EF60FFF7EBFC95E0B87D0108BC7D010819
:104E7800C07D0108C47D0108C87D0108B89E0024D2
:104E88000000002479100008CC7D0108D07D0108BD
:104E9800D47D0108D87D0108DC7D0108E07D01088A
:104EA800E47D0108E87D0108EC7D0108F07D01083A
:104EB800F47D0108F87D01080C9F0024D10B00083F
:104EC800FC7D0108007E0108047E0108087E0108B7
:104ED8000C7E0108107E0108147E0108187E010866
:104EE8001C7E0108207E0108247E0108287E010816
:104EF8002C7E0108307E0108347E0108387E0108C6
:104F08003C7E0108407E0108447E0108487E010875
:104F18004C7E0108507E0108547E0108587E010825
:104F28005C7E0108607E0108647E0108687E0108D5
:104F38006C7E0108707E0108747E0108787E010885
:104F48007C7E0108807E0108847E0108887E010835
:104F58008C7E0108907E0108947E0108987E0108E5
:104F68009C7E0108A07E0108A47E0108A87E010895
:104F7800AC7E0108B07E0108B47E0108B87E010845
:104F8800BC7E0108C07E0108C47E0108C87E0108F5
:104F9800CC7E0108BF490DF5F260FFF74FFCBE4912
:104FA8000DF5F560FFF74AFCBC490DF5F860FFF711
:104FB80045FCBB490DF5FB60FFF740FCB9490DF511
:104FC800FE60FFF73BFCB8490DF60800FFF736FC1A
:104FD800B6490DF50260FFF731FC3C2335AA35943C
:104FE80036934346B24806CAFDF712FB55F8080C3B
:104FF800183E8542A5F1180503D0B168013111F0BA
:10500800FFFAA642F2D1AB4ACAADAB49A84811F0A3
:105018007FFAAA493046FFF711FCA949ACA8FFF767
:105028000DFCA849B2A8FFF709FCA749B8A8FFF7E3
:1050380005FCA649BEA8FFF701FCA549C4A8FFF7CF
:10504800FDFBA449CAA8FFF7F9FB072333AA339647
:1050580034934346A04806CAFDF7DAFA284611F009
:10506800B3FCAE42A5F11805F8D19C4E4746914ACB
:105078004FF0070A90490DF5187997480DF5DE7B32
:1050880011F046FA0DF1C40CDCAD0FCE0FC796E84F
:105098000700CDE9318A87E807009CE8060072A876
:1050A8004F46FFF7FDFB72AA84492046FDF720FB17
:1050B80006F10C0C0DF1BC0EBCE80F000FC79CE804
:1050C8000700CDE92F9A87E807009EE806005846B2
:1050D80091AFFFF7E5FB5A467949AFA8FDF708FB02
:1050E80006F1280C0DF1B40EBCE80F00CDE92D7ABD
:1050F8000FC79CE8070087E807009EE806006CA831
:105108008AAFFFF7CDFB6CAA6E49B8A8FDF72AFB5A
:1051180006F1440C0DF1AC0EBCE80F00CDE92B7A7A
:105128000FC79CE8070087E807009EE8060069A803
:1051380083AFFFF7B5FB69AA6349C1A8FDF712FB66
:1051480006F1600C0DF1A40EBCE80F00CDE9297A38
:105158000FC79CE8070087E807009EE8060066A8D6
:105168007CAFFFF79DFB66AA5849CAA8FDF7FAFA73
:1051780006F17C0C0DF19C0E9836BCE80F00CDE9C9
:10518800277A0FC79CE8070087E807009EE8060013
:1051980063A875AFFFF784FB63AA4D49D3A8FDF751
:1051A8001BFB0DF1940C2597CDF898A00FCE0FC7D7
:1051B80096E8070087E807009CE8060060A8FFF764
:1051C8006FFB60AA43492846FDF792FA444800233A
:1051D800E5AA2146037183604361031DC0E90333D7
:1051E800FEF700F905F11800FDF780FE284611F0DA
:1051F800EBFBAC42A5F12405F4D160A8BEADFDF7E8
:1052080075FE63A8FDF772FE66A8FDF76FFE69A834
:10521800FDF76CFE6CA8FDF769FE5846FDF766FEC3
:1052280072A8FDF763FE234A2E492D4811F070F944
:105238002D492046FFF702FB2C49ACA8FFF7FEFAE0
:105248002B49B2A8FFF7FAFA2A49B8A8FFF7F6FAE5
:10525800042323AA239424934346274806CAFDF728
:10526800D7F9183D284611F0AFFBA542F9D1114AEC
:10527800C4AD1149204811F04BF920492046FFF7E9
:10528800DDFA1F49ACA8FFF7D9FA1E49B2A8FFF703
:10529800D5FA39E0D07E0108D47E0108D87E01080D
:1052A800DC7E0108E07E0108E47E0108E87E010852
:1052B800949E002400000024D10B0008EC7E010815
:1052C800F47E0108FC7E0108047F01080C7F0108B8
:1052D800147F01081C7F0108009F0024BC78010886
:1052E800D09E0024D10C0008247F01082C7F0108DF
:1052F800347F01083C7F0108A09E0024B87D010886
:10530800BC7D0108C07D0108BE49B8A8FFF796FA20
:10531800BD49BEA8FFF792FA052321AA219422933A
:105328004346BA4806CAFDF773F9183D284611F0F6
:105338004BFBA542F9D1B64AEEAEB649B34811F0D7
:10534800E7F8B5492046FFF779FAB449ACA8FFF762
:1053580075FAB349B2A8FFF771FAB249B8A8FFF7CE
:105368006DFAB149BEA8FFF769FAB049C4A8FFF7BA
:1053780065FAAF49CAA8FFF761FAD0A8AD49FFF7A7
:105388005DFAD6A8AC49FFF759FAAC49DCA8FFF793
:1053980055FAE2A8AA49FFF751FAE8A8A949FFF780
:1053A8004DFA0C231FAA1F9420934346A64806CA09
:1053B800FDF72EF9183E304611F006FBA642F9D14A
:1053C800A24F4FF0030A924A0DF26C4591499E484C
:1053D80011F09EF81DAB97E80700CDE91DBA8BE8E0
:1053E800070093E8060072A80DF15C0BFFF758FA66
:1053F80072AA89493046FDF77BF983AA07F10C03A5
:105408000DF16C0C1B9204220DF5037E1C920FCB40
:105418008EE80F009CE806006CA8FFF741FA6CAA1A
:105428007E49AFA8FDF79EF97CAA07F11C030DF190
:10543800640C199204220DF5F87E1A920FCB8EE8AF
:105448000F009CE8060069A8FFF72AFA69AA7449C0
:10545800B8A8FDF7FBF991AB07F12C0E0DF5117CFF
:10546800179305231893BEE80F00ACE80F00DEF889
:10547800003066A89BE80600CCF800300DF1540B0C
:10548800FFF70EFA66AA7249C1A8FDF7A5F98AAB1B
:1054980007F1400E15939C4605231693BEE80F00AE
:1054A800ACE80F00DEF8003063A89BE80600CCF8F3
:1054B80000300DF14C0BFFF7F3F963AA6549CAA850
:1054C800FDF7C4F907F1540E0623CC46CDF84C90ED
:1054D8001493BEE80F00ACE80F009EE803008CE8C8
:1054E80003009BE8060060A80DF1440BFFF7D8F90C
:1054F80060AA4D49D3A8FDF76FF907F16C0E072391
:10550800C446CBF80080CBF80430BEE80F00ACE806
:105518000F009EE807008CE807009BE806005DA8DE
:10552800FFF7BEF95DAA4149DCA8FDF755F9042249
:1055380007F188030DF5EA7E109275AA0DF13C0C6F
:105548000F920FCB8EE80F009CE806005AA8FFF7D1
:10555800A7F95AAA3649E5A8FDF778F907F198029C
:105568000DF5A87C0DABCDF838A0CDF834C007CA2E
:105578008CE8070093E8060057A8FFF791F957AAA7
:105588002C49EEA8FDF728F907F1A4020DF59C7C3B
:105598000BABCDF830A0CDF82CC007CA8CE80700BB
:1055A80093E8060051A8FFF77BF951AA2249F7A80A
:1055B800FDF712F90523022107AA089309AB0A91FE
:1055C80001214BA80992079193E80600FFF768F9B3
:1055D8004BAA1A490DF58060FDF78AF807F1B00269
:1055E8000DF58A7C05ABCDF818A0CDF814C007CA14
:1055F8008CE8070093E8060048A8FFF751F948AA85
:105608002AE000BFC47D0108C87D0108AC9E0024C3
:1056180000000024D10B0008447F01084C7F0108DA
:10562800547F0108587F0108607F0108687F0108DE
:10563800707F0108747F01087C7F0108847F01085E
:105648008C7F0108947F0108189F00248079010845
:105658009C7F01085C7F010869490DF22440FDF731
:1056680081F807F1BC020DF1FC0C03ABCDF810A0DA
:10567800C837CDF80CC007CA8CE8070093E80600C5
:1056880042A8FFF70DF942AA5E490DF58960FDF7BA
:1056980017F901AB0DF1E40CCDF808A097E8070065
:1056A800CDF804C08CE8070093E806003CA8FFF793
:1056B800F7F83CAA54492846FDF702F95348002355
:1056C8000DF592623146037183604361031DC0E9A1
:1056D8000333FDF787FE05F11800FDF707FC2846A0
:1056E80011F072F9AE42A5F12405F4D13CA8C4AD7D
:1056F800FDF7FCFB42A8FDF7F9FB48A8FDF7F6FB10
:105708004BA8FDF7F3FB51A8FDF7F0FB57A8FDF7F1
:10571800EDFB5AA8FDF7EAFB5DA8FDF7E7FB60A8DB
:10572800FDF7E4FB63A8FDF7E1FB66A8FDF7DEFBE8
:1057380069A8FDF7DBFB6CA8FDF7D8FB72A8FDF79D
:10574800D5FB334A3349314810F0E2FE324920464E
:10575800FFF774F83149ACA8FFF770F83049B2A8E0
:10576800FFF76CF82F49B8A8FFF768F82E49BEA8CC
:10577800FFF764F80523C8F80040C8F804304B4622
:105788002A4898E80600FCF743FF183D284611F020
:105798001BF9A542F9D11E4AC4AD2549234810F08A
:1057A800B7FE24492046FFF749F8ACA82249FFF77D
:1057B80045F8B2A82149FFF741F8B8A82049FFF7F2
:1057C8003DF8BEA81F49FFF739F80522C9F800407F
:1057D80091ABC9F804201C4899E80600FCF718FFAB
:1057E800183D284611F0F0F8A542F9D1084A1049A9
:1057F80015480DF63C0DBDE8F04F10F089BE00BF0E
:10580800A47F01088C7F0108947F0108E89E00248A
:1058180000000024D10C0008AC7F0108B07F01080B
:10582800B87F0108C07F0108C87F0108889E00244E
:10583800D10B0008247F0108D07F0108D87F010818
:10584800E07F0108E87F01087C9E0024FFF78AB901
:10585800F0B500F1080783B0076029B3044608468D
:105868000E46FAF73FFD0F28054601900DD801288E
:1058780008D133782372019B002122686360D154D8
:1058880003B0F0BD0028F6D008E0002201A92046A8
:1058980011F078F8019B07462060A3602A4631463C
:1058A800384611F0E3FDE6E7014811F05DF800BF66
:1058B800247D0108F0B583B0002302AC04E906009A
:1058C80004460F48B0EB820FA360C4E9003314D339
:1058D800960076B130460F4610F0AAFE05463946C6
:1058E800324635442060A56011F0C0FD656003B004
:1058F800F0BD35462660A660F8E7024811F037F893
:10590800FCFFFF7FF07C010800F1380300F108027A
:105918002DE9F047002588B00363052700F15C03F3
:1059280000F130094FF0010A2E4E044600F15408E8
:105938000572294643653346456380F838508565C6
:1059480080F85C50C0F84CA0C0E90025C0E90655B5
:10595800C0E90855C0E90A552A464846009711F09B
:10596800D3F82946A56440461F4B0097A26D11F055
:10597800CBF88DF8155004ADC4F84CA003970295E8
:1059880096E80300049048468DF8141002A911F017
:1059980053F80298A84203D00499514410F030FEFD
:1059A800114B05220295039293E80300002304900B
:1059B80040468DF8141002A98DF8153011F03CF806
:1059C8000298A84203D00499013110F019FE002171
:1059D8006268064B2046009111F096F8204608B000
:1059E800BDE8F087EC7E0108447F01082C8B010894
:1059F8002DE9F04FADF63C0DBE49A6AC2046FFF7A9
:105A080027FF0123BC49ADA8A361FFF721FF0223AB
:105A1800BA49B4A86363FFF71BFF0423B849BBA8BE
:105A28002365FFF715FF0823B649C2A8E366FFF709
:105A38000FFFB54810220023011DC4F88820C9AA09
:105A48000371836043611546C0E903112146FDF7E0
:105A580055FB1C3D284610F0B7FFA542F9D1AB4ACB
:105A68009FAEAB49EEADA84810F052FDA9492046BB
:105A7800FFF7EEFEA849ACA8FFF7EAFEA749B2A8CF
:105A8800FFF7E6FEA649B8A8FFF7E2FEA549BEA8BB
:105A9800FFF7DEFEA449C4A8FFF7DAFEA349CAA8A7
:105AA800FFF7D6FEA249D0A8FFF7D2FEA149D6A893
:105AB800FFF7CEFEA049DCA8FFF7CAFE9F49E2A87F
:105AC800FFF7C6FE9E49E8A8FFF7C2FE0C2337AAD7
