:020000040800F2
:1000000000000220F9350008F53500085DB400084D
:10001000F5350008F5350008F5350008000000004A
:10002000000000000000000000000000F53500089E
:10003000F535000800000000F53500084DB4000853
:10004000F5350008F5350008F5350008F5350008E8
:10005000F5350008F5350008F5350008F5350008D8
:10006000F5350008F5350008F5350008E99D00086C
:10007000F59D0008ED8F0008019E00080D9E000808
:1000800011B20008B52F0108F5350008F535000854
:10009000F5350008F5350008F5350008F535000898
:1000A000F5350008F5350008F5350008F535000888
:1000B000F5350008F5350008F5350008E92F010889
:1000C000F5350008F52F0108F5350008F53500086D
:1000D000F5350008E5AB000891AC000841AD00081B
:1000E000F5350008F535000800000000F53500087A
:1000F000F5350008F5350008F5350008F535000838
:10010000F5350008F5350008F5350008F535000827
:10011000F1AD0008A1AE0008C1920008F535000855
:10012000A9920008B5920008F5350008F5350008D9
:10013000F5350008F5350008F5350008F5350008F7
:1001400000000000000000000000000000000000AF
:10015000F5350008F5350008F535000851AF000801
:1001600001300108F5350008F5350008F5350008BF
:10017000F5350008F5350008F5350008F5350008B7
:10018000F5350008F535000801B00008B1B00008E9
:10019000F5350008F5350008F5350008F535000897
:1001A000F5350008F5350008F5350008F535000887
:1001B000319B0008F5350008F5350008F5350008D5
:1001C000F5350008F5350008F5350008F535000867
:1001D000F5350008F5350008F5350008F535000857
:1001E000F5350008F5350008F5350008F535000847
:1001F000F5350008F5350008F5350008F535000837
:10020000F5350008F5350008F5350008F535000826
:10021000F5350008F5350008F5350008F535000816
:10022000F5350008F5350008F53500080000000038
:10023000F5350008F535000800000000F535000828
:10024000F5350008F5350008F5350008F5350008E6
:10025000F5350008F5350008F5350008F5350008D6
:10026000F5350008F5350008F5350008F5350008C6
:10027000F5350008F535000861B100080000000000
:10028000F5350008F5350008F535000800000000D8
:0802900000000000F535000834
:1002C0000348044B834202D0034B03B118477047E5
:1002D0007002002470020024000000000548064956
:1002E0000B1AD90F01EBA301491002D0034B03B144
:1002F00018477047700200247002002400000000BC
:1003000010B5064C237843B9FFF7DAFF044B13B15D
:100310000448AFF300800123237010BD7002002455
:1003200000000000DC4E010808B5044B1BB1044975
:100330000448AFF30080BDE80840CFE700000000AC
:1003400074020024DC4E0108F8B510EE104AC4F324
:100350000A53B3F57D7FB7EEC07A1ED227EE077B36
:10036000B3F5667F6FD327EE074B27EE043B724B46
:1003700093ED0E5B93ED106B93ED0C0BA7EE050B5D
:1003800093ED145BA4EE060B93ED126BA7EE056BD9
:10039000A6EE030BB7EEC00BF8BD40F22E4293421F
:1003A00054D8654991ED086B27EE066BBDEEC66B20
:1003B00091ED0A5B16EE103A03F500031B1613F0DD
:1003C000020F06EE903A01F1700208BF0A46D80704
:1003D000B8EEE66BA6EE457B27EE076B1AD503F069
:1003E000030301EBC30393ED005B92ED164B27EE85
:1003F000057B27EE065B92ED1A3BA5EE047B26EE0D
:10040000055B92ED184BA6EE034BA4EE057BB7EE11
:10041000C70BF8BD92ED0E4B26EE067B26EE073B92
:1004200092ED0C0B92ED105BA6EE040B92ED144BCB
:10043000A7EE050B92ED127BA6EE047BA7EE030B55
:10044000B7EEC00BF8BDB7EE000AF8BDB3F5FF6F0D
:1004500050D23A4AC4F3836002EB8003C4F316011E
:1004600052F820501E6A186941F40001C4F3C253C7
:100470009940A1FB066705FB01F33A46E0FB012327
:10048000111C43F100550020101A05F0404163EBA8
:10049000010102F0B5FEAD0F294B9FED257B05EB69
:1004A000D47441EC160B14F0020FA3F1700208BFD4
:1004B0001346E90726EE077B27EE076B1ED504F0EF
:1004C000030402EBC40494ED005B93ED164B27EE9E
:1004D000057B27EE065B93ED1A3BA5EE047B26EE2B
:1004E000055B93ED184BA6EE034BA4EE057BB7EE30
:1004F000C70BF8BDBDE8F84000F062B893ED0E3BC5
:1005000026EE065B26EE052B93ED0C7B93ED104B50
:10051000A6EE037B93ED143BA5EE047B93ED125BFB
:10052000A6EE035BA5EE027BB7EEC70BF8BD00BFDE
:10053000182D4454FB21193C983E0108383E01080F
:10054000083F010810B52DED028BB0EE408A04463D
:1005500000F04EFAB0EE480ABDEC028B046010BD0C
:1005600028B1F1EE407A27EE800A2220EAE7F0EE89
:10057000407A27EE800A2220E4E700BF9FED010ABF
:10058000EEE700BF000000109FED010AE8E700BFA2
:100590000000201A9FED010AE2E700BF0000007092
:1005A0009FED060AFFEE007AB7EE007A00284FF0C2
:1005B000220047FE277A87EE800AC3E7000000008A
:1005C00070EE407AB4EE400A87EEA77AF1EE10FAA8
:1005D000B0EE470A01D62120B4E7704710EE103A7A
:1005E00040F22A41C3F30A528A42B7EEC05A33D8C6
:1005F000B7EE000B2D4B93ED4A4B93ED483BB0EE1D
:10060000437BA4EE057B17EE102A37EE437B02F006
:100610001F0193ED506B94EE057B27EE074B03EB28
:10062000C101D1E90001A6EE070B30B493ED4C5B9C
:1006300093ED4E6B00231C184FEAC23242EB0105CA
:10064000A5EE076B45EC174BA6EE040B30BC20EE75
:10065000070BB7EEC00B704713F5000F20D0B2F5B3
:10066000FF6F1AD2DFED127AB4EEE70AF1EE10FA5C
:1006700010DCDFED107AB4EEE70AF1EE10FA12D4D6
:10068000DFED0D7AB4EEE70AF1EE10FAB0D50020F6
:10069000FFF77ABF0020FFF77DBF30EE000A7047FA
:1006A0009FED060A70470020FFF768BFD03B0108A6
:1006B0001772B142B4F1CFC2CF8ECEC2000000009B
:1006C00010B483B08DED010A019AB2F17E5F3BD088
:1006D000A2F50003B3F1FE4F3CD2BFEE002B02F1B6
:1006E00040432F4903F54D03C3F3C340DC0D01EB39
:1006F0000010E40590ED001B121B03EE902A91ED13
:10070000444B91ED467B91ED426B90ED020B91EDE8
:10071000405BDB15B7EEE33AA1EE032B03EE903A14
:10072000A4EE027BB8EEE33B22EE024BA3EE050BF8
:10073000A6EE047B30EE020BA4EE070BB7EEC00B67
:1007400003B05DF8044B70479FED160A03B05DF8E7
:10075000044B7047530019D0B2F1FF4F1CD0002A50
:100760000DDBB3F17F4F0AD2DFED0F7A9DED017AF9
:1007700067EE277A17EE902AA2F13862ADE79DED79
:10078000010A03B05DF8044BFFF71ABF012003B064
:100790005DF8044BFFF704BF9DED010AD0E700BFF1
:1007A000183D0108000000000000004B00000000A0
:1007B000F0B510EE104A220DC2F30A03B3F57D7FA7
:1007C00083B0B7EEC06A1BD226EE065BB3F5667F38
:1007D00070D326EE052B25EE021B774B93ED1A3BCB
:1007E00093ED187B93ED164BA5EE037BA2EE046B05
:1007F000B0EE460BA7EE010BB7EEC00B03B0F0BD99
:1008000040F22E4293425FD86B4991ED087B26EE71
:10081000077BBDEEC77B91ED0A5B17EE103A03F53F
:1008200000031B1613F0020F07EE903A01F170025D
:1008300008BF0A46D807B8EEE77BA7EE456BB0EED7
:10084000460B26EE067B1BD403F0030301EBC30328
:1008500093ED006B92ED165B20EE060B20EE076B1E
:1008600092ED1A4BA6EE050B27EE066B92ED185B88
:10087000A7EE045BA5EE060BB7EEC00B03B0F0BD10
:1008800092ED0E4B27EE076B27EE063B92ED0C0B1D
:1008900092ED105BA7EE040B92ED144BA6EE050B48
:1008A00092ED126BA7EE046BA6EE030BB7EEC00B36
:1008B00003B0F0BD12F4FF6FA0D1B7EEC55B00EE40
:1008C000104A8DED015A99E7B3F5FF6F50D23B4ABC
:1008D000C4F3836002EB8003C4F3160152F8205086
:1008E0001E6A186941F40001C4F3C2539940A1FB88
:1008F000066705FB01F33A46E0FB0123111C43F1B7
:1009000000550020101A05F0404163EB010102F090
:1009100077FCAD0F2A4B9FED267B05EBD47441ECA1
:10092000160B14F0020FA3F1700208BF1346E9077B
:1009300026EE077B27EE076B1FD404F0030402EBBF
:10094000C40494ED005B93ED164B27EE057B27EE78
:10095000065B93ED1A3BA5EE047B26EE055B93ED5B
:10096000184BA6EE034BA4EE057BB7EEC70B45E78D
:1009700003B0BDE8F040FFF723BE93ED0E3B26EE3B
:10098000065B26EE052B93ED0C7B93ED104BA6EE4C
:10099000037B93ED143BA5EE047B93ED125BA6EE77
:1009A000035BA5EE027BB7EEC70B27E7AFF3008032
:1009B000182D4454FB21193C983E0108383E01088B
:1009C000083F010808B5062000F0F0FB012002F006
:1009D0000FFE00BF10B5054C34B113460A46014660
:1009E000022000F03FFE10BD204610BD6516000835
:1009F000014B1868704700BF0400002470B50D4E0D
:100A00000D4D761BB61006D00024013455F8043B7A
:100A10009847A642F9D1094E094D761B14F052FAB7
:100A2000B61006D00024013455F8043B9847A6427E
:100A3000F9D170BDE44E0108E44E0108004F0108F1
:100A4000E44E0108024B0146186800F039BA00BFB5
:100A500004000024024B0146186800F0DBB900BF17
:100A6000040000240000000000000000000000005E
:100A700001F0FF01102A2BDB10F0070F08D010F84F
:100A8000013B013A8B422DD010F0070F42B3F6D153
:100A9000F0B441EA012141EA014122F007047FF06C
:100AA00000070023F0E80256083C85EA010586EAC3
:100AB000010685FA47F5A3FA87F586FA47F6A5FAFF
:100AC00087F68EB9EED1F0BC01F0FF0102F007020B
:100AD00032B110F8013B013A83EA010313B1F8D1B6
:100AE0000020704701387047002D06BF3546033897
:100AF000073815F0010F07D1013015F4807F02BFD0
:100B0000013015F4C03F0130F0BC0138704700BF20
:100B1000032A70B412D940EA0105AD0704460B461A
:100B200020D11946204653F8045B54F8046BAE42BA
:100B300018D1043A032A20461946F2D8541E72B13D
:100B400003780A789A4208BF241806D00CE010F8FF
:100B5000013F11F8012F934206D1A042F7D10020A6
:100B600070BC7047541EEBE7981A70BC704700BF0A
:100B7000844641EA000313F003036DD1403A41D3A8
:100B800051F8043B40F8043B51F8043B40F8043B67
:100B900051F8043B40F8043B51F8043B40F8043B57
:100BA00051F8043B40F8043B51F8043B40F8043B47
:100BB00051F8043B40F8043B51F8043B40F8043B37
:100BC00051F8043B40F8043B51F8043B40F8043B27
:100BD00051F8043B40F8043B51F8043B40F8043B17
:100BE00051F8043B40F8043B51F8043B40F8043B07
:100BF00051F8043B40F8043B51F8043B40F8043BF7
:100C0000403ABDD2303211D351F8043B40F8043B96
:100C100051F8043B40F8043B51F8043B40F8043BD6
:100C200051F8043B40F8043B103AEDD20C3205D3A6
:100C300051F8043B40F8043B043AF9D2043208D09E
:100C4000D2071CBF11F8013B00F8013B01D30B8810
:100C500003806046704700BF082A13D38B078DD0EE
:100C600010F003038AD0C3F10403D21ADB071CBFC0
:100C700011F8013B00F8013B80D331F8023B20F82A
:100C8000023B7BE7043AD9D3013A11F8013B00F863
:100C9000013BF9D20B7803704B7843708B788370EB
:100CA000604670478842F0B40DD98B1883420AD948
:100CB000841832B1224613F8014D02F8014D9942D1
:100CC000F9D1F0BC70470F2A0ED80346541E002AF3
:100CD000F7D001340C44013B11F8012B03F8012F2C
:100CE000A142F9D1F0BC704740EA01039B073BD118
:100CF000A2F110073F0901F1200606EB071601F1EA
:100D0000100300F1100453F8105C44F8105C53F821
:100D10000C5C44F80C5C53F8085C44F8085C53F82D
:100D2000045C44F8045C1033B34204F11004EAD1CB
:100D30007B1C1B0112F00C0F194402F00F05034439
:100D400015D0043DAD0803EB850C1C1F0E4656F86C
:100D5000047B44F8047F6445F9D10135AD002B4490
:100D6000294402F00302B1E7541E0346B1E72A46C4
:100D7000ACE700BFF0B4860746D0541E002A3CD032
:100D8000CAB2034602E014F1FF3436D303F8012B54
:100D90009D07F8D1032C29D9CDB245EA05250F2CA2
:100DA00045EA054533D9A4F11006360903F12007B9
:100DB00007EB061703F1100242E9045542E9025518
:100DC0001032BA42F8D1721C14F00C0F03EB02126D
:100DD00004F00F0613D0331F23F00303043313442E
:100DE00042F8045B9342FBD106F003042CB1C9B274
:100DF0001C4403F8011B9C42FBD1F0BC70473446F5
:100E00001346002CF3D1F8E714460346C2E71A460E
:100E10002646E0E700293CD038B551F8043C0C1FC9
:100E2000002BB8BFE418054600F0B2FC234B1A684B
:100E30002AB1A2420DD921686018824223D0626093
:100E400028461C60BDE8384000F0A4BCA34203D88B
:100E50001A465368002BF9D111685018A04219D0D6
:100E600024D821686018834206D063605460284605
:100E7000BDE8384000F08EBCD3E900030144636054
:100E800021605460F3E7D2E900020144626021600E
:100E9000D6E7704720680144501883421160E6D1BC
:100EA000D3E90003014453601160E0E70C232B6099
:100EB0002846BDE8384000F06DBC00BF8C0200241D
:100EC000F8B5CD1C25F0030508350C2D38BF0C25D1
:100ED000002D064633DBA94231D82A4F00F058FCDA
:100EE0003A6852B113685B1B04D43FE023685B1B74
:100EF00029D522465468002CF8D1796800293BD0C6
:100F00002946304600F0BAF8431C28D0C41C24F00F
:100F10000304A04205D0211A304600F0AFF801309A
:100F20001DD02560304600F035FC04F10B0020F0A8
:100F30000700231DC21A01D01B1AA350F8BD0C22B2
:100F400032600020F8BD0B2B05D8A242636811D097
:100F50005360E7E7144623601C442560E2E70C2356
:100F60003046336000F016FC0020F8BD0B2BF1D8A2
:100F7000536814463B60D5E7304600F07FF8786050
:100F8000BEE700BF8C02002438B5124B1C68A26B70
:100F900005461AB10023C2E9045338BD1820FFF7F3
:100FA00051FD0246A06378B1012000210A4B136075
:100FB000C2E904010B230948094993810023C2E9CE
:100FC0000101C2E9045338BD064B0748422100F035
:100FD00099FB00BF040000240E33CDAB34126DE644
:100FE000ECDE0500FC4D0108144E010838B51A4B23
:100FF0001C68A26B92B1146918495369184801FB27
:1010000004F100FB0313A4FB0045611C1D4445F1E2
:10101000000323F00040C2E9041338BD1820FFF795
:1010200011FD0246A06388B101200021C2E904013C
:101030000A480C4C0C4B0D490D4D146053600B24A9
:10104000034695609481C2E9041338BD094B0A48F0
:101050004E2100F057FB00BF040000242DF451582E
:101060002D7F954C0E33CDAB34126DE62E7F954C13
:10107000ECDE0500FC4D0108144E010838B5074CA4
:10108000002305460846236002F09CFA431C00D06A
:1010900038BD2368002BFBD02B6038BD3CC5002435
:1010A00010B580210446FFF70BFF606440B1031FB9
:1010B00000227C3043F8042F8342FBD1002010BD76
:1010C0004FF0FF3010BD00BF436C0BB100207047E4
:1010D000E6E700BF1F2970B5054608D8436C1646E1
:1010E0000C464BB153F8240043F8246070BD16221F
:1010F00002604FF0FF3070BDFFF7D2FF08B96B6C94
:10110000F0E74FF0FF3070BD1F2938B521D8426C91
:1011100005460C466AB152F8213053B1012B16D066
:10112000591C10D00025204642F8245098472846E4
:1011300038BD284600F070F8224601462846BDE832
:10114000384000F055B816230360012038BD002058
:1011500038BD162303604FF0FF3038BD1F2921D85A
:1011600038B5436C05460C4683B153F8242003EB95
:1011700084034AB1511C10D0012A0CD0002520460E
:101180001D609047284638BD012038BDFFF788FF15
:1011900028B96B6CE9E7032038BD022038BD4FF059
:1011A000FF3038BD4FF0FF30704700BF024B0146A3
:1011B0001868FFF7A9BF00BF04000024024B0A46CD
:1011C00001461868FFF786BF04000024034B186827
:1011D000436C0BB10020704762E700BF040000249D
:1011E000024B01461868FFF7B9BF00BF0400002496
:1011F00038B50B46074C05461146184600232360B8
:1012000002F0C8F9431C00D038BD2368002BFBD086
:101210002B6038BD3CC5002402F0ACB900000000D2
:10122000A2EB0300704700BF02780B78012A28BFA9
:101230009A42F5D16DE9044540EA0104CDE902671F
:101240006FF0000C4FEA447212B380EA010414F00C
:10125000070F6AD100F0070420F0070004F003052F
:1012600021F007014FEAC505F0E8042314F0040F4C
:10127000F1E804670CFA05F462EA040266EA04067F
:101280000AD063EA0403624667EA0407664603E09D
:10129000F0E80423F1E8046782FA4CF582EA0604D8
:1012A000A4FA8CF46CBB83FA4CF583EA0705A5FA23
:1012B0008CF595B950E9022351E9026782FA4CF5A1
:1012C00082EA0604A4FA8CF483FA4CF583EA070553
:1012D000A5FA8CF52543DBD09CB92DBAB5FA85F477
:1012E00024F0070427FA04F1DDE9026723FA04F386
:1012F00003F0FF0001F0FF01FDE80445A0EB010051
:10130000704724BAB4FA84F424F0070426FA04F1EE
:10131000DDE9026722FA04F202F0FF0001F0FF01AA
:10132000FDE80445A0EB0100704714F0030F3CD129
:1013300010F0030428D150F8082B51F8083B82FA2A
:101340004CF582EA0305A5FA8CF55DB950F8042C3A
:1013500051F8043C82FA4CF582EA0305A5FA8CF5B3
:10136000002DE8D02DBAB5FA85F424F0070423FA4D
:1013700004F122FA04F202F0FF0001F0FF01FDE89F
:101380000445A0EB010070474FEAC40420F00300BD
:1013900050F8082B21F0030151F8083B0CFA04F433
:1013A00062EA040263EA0403C9E710F003041AD0F6
:1013B000A1EB040120F00300E40750F8042B06D051
:1013C0000FD28B785FFAA2F4E41A06D12BB1CB7856
:1013D0005FFAB2F4E41A00D11BB920465DF8104B55
:1013E000704701F1040150F8042BCC0721F00301F0
:1013F00051F8043B48D824D222F07F4482FA4CF5BD
:1014000094EA1325A5FA8CF50AD165B951F8043B85
:1014100084EA0204B4EB036F0ED150F8042BEBE71F
:101420004FEA132355E035F07F454DD10878FDE8AC
:101430000445C0F1000070474FEA126203F0FF0359
:1014400047E002EA1C4482FA4CF594EA1345A5FAF7
:101450008CF50AD165B951F8043B84EA0204B4EB77
:10146000034F0CD150F8042BEBE74FEA134330E065
:1014700015EA1C4528D10B884FEA124229E04FEAB1
:10148000124203EA1C4324E002F0FF0482FA4CF506
:1014900094EA1365A5FA8CF50AD165B951F8043BB5
:1014A00084EA0204B4EB032F09D150F8042BEBE7D4
:1014B0004FEA13630DE015F0FF0F05D10B684FEAFB
:1014C000122223F07F4304E04FF00000FDE80445C2
:1014D000704712BA1BBA82FA4CF482EA0304A4FAE7
:1014E0008CF5B5FA85F402FA04F203FA04F34FEA34
:1014F0001260FDE80445A0EB136070470000000097
:1015000090F800F06DE9024520F007016FF0000C43
:1015100010F0070491F820F040F049804FF00004EB
:101520006FF00700D1E9002391F840F000F10800C6
:1015300082FA4CF2A4FA8CF283FA4CF3A2FA8CF3FE
:101540004BBBD1E9022382FA4CF200F10800A4FA65
:101550008CF283FA4CF3A2FA8CF3E3B9D1E90423B9
:1015600082FA4CF200F10800A4FA8CF283FA4CF3F0
:10157000A2FA8CF37BB9D1E9062301F1200182FAAA
:101580004CF200F10800A4FA8CF283FA4CF3A2FAB0
:101590008CF3002BC6D0002A04BF04301A4612BABE
:1015A000B2FA82F2FDE8024500EBD2007047D1E9C1
:1015B000002304F00305C4F100004FEAC50514F050
:1015C000040F91F840F00CFA05F562EA05021CBF21
:1015D00063EA050362464FF00004A9E770B5141EE4
:1015E0009AB005462BDB1A464FF402730091049122
:1015F000ADF80C3013D0013C4FF6FF761E9B0294E1
:1016000069460594ADF80E6000F0A2F9421C01DABB
:101610008B232B60009B00221A701AB070BD1E9B9A
:1016200002944FF6FF7669460594ADF80E6000F01F
:101630008FF9431C01DA8B232B601AB070BD8B230A
:1016400003604FF0FF30F8E710B5054C82B000930F
:1016500013460A4601462068FFF7C0FF02B010BDDE
:10166000040000242DE9F843224C25680DB36C6872
:101670001F2C3BDC984691460F46064688B1D5F8AC
:10168000880028B3D0F8003140F824900122A2400D
:1016900000EB84011343022EC0F80031C1F88080B2
:1016A00010D0A31C01346C6045F823700020BDE805
:1016B000F883114E114D2560002ED8D03468C5F83E
:1016C0008840D4E7D0F804311A43C0F80421E8E791
:1016D0000B4B5BB14FF48470FFF7B4F930B10023CA
:1016E0006C68C0E94033C5F88800CDE74FF0FF30A3
:1016F000DDE700BF280400247C3F01089C03002490
:10170000450A000800B50A4C2668054685B01C4607
:10171000F06852B1074B0091CDE9013206492B46E2
:10172000224600F021F8FFF74DF9044B1A46F2E784
:1017300004000024484E0108584E0108F44C0108EA
:1017400008B513460022FFF7DDFF00BF0CB400B55B
:1017500083B004AB53F8042B019300F077FA03B085
:101760005DF804EB02B070470EB410B583B005AB62
:10177000064C53F8042B01930146206800F066FAEA
:1017800003B0BDE8104003B0704700BF0400002460
:10179000704700BF704700BF2DE9F0478E681D46B7
:1017A000AE420C460B68174636D88046888910F43E
:1017B000906F0ED1354618462A463946FFF772FA21
:1017C000A2682368961B2B44A66023600020BDE816
:1017D000F087D1E9041606EB4606A3EB010906EBF8
:1017E000D6766B1C76104B44B342324684BF1E46FD
:1017F0003246430512D511464046FFF761FB82464B
:1018000000B34A462169FFF7B3F9A38923F4906333
:1018100043F08003A38106E02E46CCE7404601F06A
:1018200071FA824650B1A6EB09020AEB0903666120
:10183000C4F810A02360A2602E46BCE72169404690
:10184000FFF7E8FA0C23C8F80030A38943F04003FF
:10185000A3814FF0FF30BAE72DE9F04F936883B0D2
:101860009046002B6DD017688D6882460C4608683C
:10187000083743E0A38913F4906F2ED0D4E9041500
:1018800005EB4505A0EB010B05EBD5750BEB060051
:101890006D100130A8422A4684BF05462A465B05E2
:1018A00036D511465046FFF70BFB00283AD05A4672
:1018B00021690190FFF75CF9A289019B22F49062F3
:1018C00042F08002A281A5EB0B0203EB0B006561E5
:1018D00023612060A2603546B3465A464946FFF769
:1018E000E1F9D8F80830A2682068551B58449E1BBF
:1018F000A5602060C8F808601EB3083757E9029653
:10190000AB46002EF9D0AE42B4D23546B346E4E73A
:10191000504601F0F7F903460028D4D1216950461A
:10192000FFF778FA0C23CAF80030A389002243F0AD
:1019300040034FF0FF30A381C8E9012203B0BDE8A6
:10194000F08F0020C8F8040003B0BDE8F08F00BF9E
:101950002DE9F04F90468A899FB014068B4602907D
:1019600003D50A69002A00F00B81059330238DF816
:10197000323098F800308E4E002120220B918DF8E5
:1019800031200127002B00F08480252B00F0F68009
:10199000454603E0252B00F0868025466B786C1CBD
:1019A000002BF7D1B4EB080A73D042465346594690
:1019B0000298FFF7F1FE01306BD00B9B6A7853441D
:1019C0000B93002A65D000234FF0FF3201340693B9
:1019D000CDE908338DF85B301C93079205E0069A39
:1019E00007FA03F313432C4606932546052215F800
:1019F000011B3046FFF73CF8AA46831B0028EED1B6
:101A0000069BD90644BF20228DF85B2021781A0757
:101A100044BF2B228DF85B202A2948D1059A1168F2
:101A20000432002905927EDB09916178A51C2E29DC
:101A300056D0604C03222046FFF71AF8002868D0E1
:101A4000001B069B402404FA00F00343069305F1B3
:101A50000108297858488DF830100622FFF708F859
:101A6000002866D0554B002B56D005AB00935A4644
:101A7000534B029806A9AFF300808146B9F1FF3FAE
:101A800007D00B9B4B440B9398F80030002B7FF44E
:101A90007CAFBBF80C305B0654BF0B984FF0FF30A7
:101AA0001FB0BDE8F08FB4EB080A8CD07DE7A1F140
:101AB0003002092A88BFA246B9D8099B01E02C460A
:101AC0000135297803EB830302EB4303A1F13002D4
:101AD000092AAA46F3D92E2904F102050993A8D1AF
:101AE0009AF801102A292ED1059B9AF802101A683B
:101AF00007920433002A05930AF103050AF1020351
:101B000037DB2C4C032220469A46FEF7B1FF002813
:101B100096D1A84655469CE7059B073323F007035B
:101B200008330593ADE7494243F002030991069358
:101B30007BE705AB00935A46214B029806A900F0BB
:101B400089FA81469AE7A1F130020023092A079316
:101B500001D923E05546697803EB830302EB430385
:101B6000A1F13002092A05F1010AF3D902350793E0
:101B70005FE74FF0FF329A4607925AE7444622E762
:101B800040210393FFF79CF9039BCBF80000CBF8AF
:101B9000100030B14022CBF81420E6E6AA46013509
:101BA00047E7029A0C2313604FF0FF3078E700BF3D
:101BB000884E0108904E0108944E01080000000074
:101BC000991700089368013B002B936011DA10B459
:101BD0009469A34209DB0A2907D01368581C1060D6
:101BE000197008465DF8044B70475DF8044B00F02F
:101BF0007DBB1368581C106019700846704700BF01
:101C00009BB1F8B513440F4606465D1E541E01E015
:101C1000AC4208D03A4614F8011F3046FFF7D2FF15
:101C2000431CF5D1F8BD0020F8BD0020704700BF6F
:101C3000936810B5144613B95360184610BD00F0F0
:101C400015FE0023C4E9013310BD00BF2DE9F04F9C
:101C50009FB08B4690461C46039018B18369002BB9
:101C600000F0B780A24B9B4500F0B980A14B9B458B
:101C700000F0C780A04B9B4504BF039BD3F80CB07A
:101C8000BBF80C30180740F1B280DBF81030002BA5
:101C900000F0AD8030238DF8323098F80030059494
:101CA000002120220B918DF83120944E0127002B2A
:101CB00000F08780252B00F01581454603E0252B99
:101CC00000F0A38025466B786C1C002BF7D1B4EB99
:101CD000080A76D04246534659460398FFF790FFCC
:101CE00001306ED00B9B6A7853440B93002A68D066
:101CF00000234FF0FF3201340693CDE908338DF80D
:101D00005B301C93079205E0069A07FA03F313432E
:101D10002C4606932546052215F8011B3046FEF792
:101D2000A7FEAA46831B0028EED1069BD90644BF16
:101D300020228DF85B2021781A0744BF2B228DF8D2
:101D40005B202A2966D1059A116804320029059280
:101D5000C0F29D8009916178A51C2E2973D0684C32
:101D600003222046FEF784FE002800F08680001B38
:101D7000069B402404FA00F00343069305F1010892
:101D8000297860488DF830100622FEF771FE002891
:101D900000F083805C4B002B72D005AB00935A4659
:101DA0005A4B039806A9AFF300808146B9F1FF3F73
:101DB00007D00B9B4B440B9398F80030002B7FF41B
:101DC00079AFBBF80C305B0618D40B981FB0BDE898
:101DD000F08F00F02BFD464B9B457FF447AF039BF4
:101DE000D3F804B0BBF80C3018073FF54EAF594696
:101DF000039800F0DBFA00283FF44CAF4FF0FF30BF
:101E0000E4E7039BD3F808B03AE7B4EB080A3FF4E1
:101E10006FAF5FE7A1F13002092A88BFA2469CD8C4
:101E2000099B01E02C460135297803EB830302EB83
:101E30004303A1F13002092AAA46F3D92E2904F15D
:101E4000020509938BD19AF801102A292FD1059BFD
:101E50009AF802101A6807920433002A05930AF1CF
:101E600003050AF1020338DB254C032220469A467B
:101E7000FEF7FEFD00287FF47AAFA84655467FE7BF
:101E8000059B073323F007030833059391E7494285
:101E900043F00203099106935DE705AB00935A46B0
:101EA0001A4B039806A900F0D5F881467EE7A1F108
:101EB00030020023092A079301D915E055466978B5
:101EC00003EB830302EB4303A1F13002092A05F17E
:101ED000010AF3D90235079341E74FF0FF329A46E2
:101EE00007923CE7444603E7AA46013537E700BFBF
:101EF000C03F0108A03F0108803F0108884E01084B
:101F0000904E0108944E010800000000011C0008DA
:101F100010B4044C13460A46014620685DF8044B91
:101F2000FFF794BE040000242DE9F0470C469146CB
:101F30000A698968DDF820808A42B8BF0A46C9F874
:101F4000002094F8431006461F4611B10132C9F82B
:101F50000020236899065CD5D9F800200232C9F820
:101F60000020236813F0060F19461DD1E1688A1A74
:101F7000002AD8BF194617DD04F1190A002505E02B
:101F8000E368D9F800209B1AAB420CDD01235246CE
:101F900039463046C047013005F10105F0D14FF018
:101FA000FF30BDE8F087216894F84330003318BF54
:101FB00001238A060AD5E1185A1C302081F8430013
:101FC000224494F8451082F84310023304F143028E
:101FD00039463046C0470130E1D02368A268216904
:101FE00003F00603042B1DD08A4226DD4FF00009C2
:101FF000521A91441A34002501E04D451DDA01239F
:10200000224639463046C047013005F10105F4D17A
:10201000C5E713F0060F13D094F84330003318BF10
:102020000123D3E7D9F80000E3688A42A3EB000359
:1020300023EAE379DCDC002BDCDC0020BDE8F08760
:10204000E168D9F800208A1A002AD8BF194693DC23
:10205000AAE700BF2DE9F0430C46097E85B06E2942
:10206000064617460C98984604F1430E6DD039D9B0
:10207000732900F0F68044D9752900F0048178298D
:1020800040F0118178232268DFF858C284F8453087
:102090000168150651F8043B016040F1A180D107A9
:1020A00044BF42F020022260002B00F093801022F7
:1020B000002184F843106068A0600028C0F2C88046
:1020C000216821F004012160002B40F0A38000284A
:1020D00040F0C0807546082A00F0AC80AEEB0503E6
:1020E000236141E0632900F0E5801AD8002938D047
:1020F000582940F0D88084F845102268DFF8E8C1FC
:10210000C6E76F2900F0BF80702940F0CC802268BC
:10211000DFF8D0C142F020027823226084F84530F5
:10212000B6E7642902D0692940F0BD8022680368BF
:10213000110603F1040557D5196805600B460029FF
:1021400059DBDFF8A4C10A22B5E703682268616998
:102150001D1D056015061B6802D4500600F1BD80E8
:102160001960002375462361CDF800803B4603AA21
:1021700021463046FFF7D8FE013020D02A46236999
:1021800039463046C047013019D022680398E368C9
:10219000920719D51A1A002A16DD04F1190900252B
:1021A00004E0E36803981A1AAA420DDD01234A46A7
:1021B00039463046C047013005F10105F1D14FF0F5
:1021C000FF3005B0BDE8F0839842B8BF184605B0AF
:1021D000BDE8F083226822F020022260102267E727
:1021E000500648BF9BB25AE75106A5D5B3F9003057
:1021F00005601946A3E76168A1602D200029C3F19D
:10220000000384F8430002DB22F004022260DFF8BE
:10221000D8C00A22754600E00B46B3FBF2F102FB80
:10222000113093421CF8000005F8010DF4D2082A81
:102230007FF454AF2368DB077FF550AF62682369F2
:102240009A423FF74BAF302305F8013C013D45E78B
:10225000002BDFD19CF8003084F8423004F14205B5
:1022600039E703686268191D01601D68002128466E
:10227000FEF7FEFB002832D0401B60602061002387
:1022800084F8433070E72268036812F0800F03F18E
:1022900004051AD01B6805606F290CBF08220A22AA
:1022A000DFF844C004E7012384F84210236104F1FD
:1022B0004205E4E703681A68191D0123016004F16F
:1022C000420584F842202361D9E712F0400F0DBF88
:1022D0001B6805601B880560DEE7198041E76068C0
:1022E000CCE700BFB04E01089C4E0108F8B50D4682
:1022F0001446064608B1836943B3254B9C422AD055
:10230000244B9C4229D0244B9C4208BFF468A389EB
:10231000A269A2601A0722D5236903B32268616902
:10232000D31AEDB299422F4629DD0133A168501C22
:102330000139A1602060157062699A4216D0A389A4
:10234000DB0701D50A2D11D03846F8BD00F06EFA32
:102350000F4B9C42D4D17468D9E7B468D7E72146C3
:10236000304600F023F838B92369D7E721463046D4
:1023700000F032F90028E7D04FF0FF37E4E72146BC
:10238000304600F029F90028F6D122680123CDE774
:10239000C03F0108A03F0108803F0108024B0A46E8
:1023A00001461868FFF7A2BF040000243B4B70B53C
:1023B0001D6806460C460DB1AB69DBB1384B9C423B
:1023C0001ED0384B9C424AD0374B9C4208BFEC6829
:1023D000B4F90C2093B2190718D5206908B313F08B
:1023E00001022CD0636900225B42A361A26060B34A
:1023F000002070BD284600F019FA294B9C42E0D11C
:102400006C68B4F90C2093B21907E6D4DD063CD50C
:10241000580726D4206942F00803A3819BB2002804
:10242000DDD103F42072B2F5007FD8D030462146CA
:1024300000F01EFCA389206913F00102D2D1990794
:1024400058BF6269A2600028D2D1B4F90C301A06D4
:10245000CFD543F04003A3814FF0FF3070BDAC688F
:10246000B6E7616B51B104F14403994204D03046A0
:10247000FEF7D0FCB4F90C2000236363002320692D
:10248000636022F024022060C5E742F04002092385
:1024900033604FF0FF30A28170BD00BF0400002404
:1024A000C03F0108A03F0108803F01088B891A073F
:1024B0002DE9F0410C46804641D44A68002A59DD96
:1024C000E66A002E53D00022D8F80050216AC8F8DE
:1024D000002013F4805251D101234046B047431CE1
:1024E0005FD0A389E66A216A5F0705D56268636BDE
:1024F000801A0BB1236CC01A024600234046B04735
:10250000461C45D1D8F80030B4F90C20002B55D02A
:102510001D2B01D0162B5AD123690022C4E90032A9
:10252000616BC8F8005011B304F14403994202D022
:102530004046FEF76FFC00206063BDE8F0810E6945
:10254000AEB10D680E6099070CBF63690023AD1B27
:10255000A3600AE02B463246A76A216A4046B84784
:102560000028A5EB000506440ADD002DF2DC002062
:10257000BDE8F0810A6C002AA2DCF8E7606DB3E7E1
:10258000A38943F04003A3814FF0FF30BDE8F08101
:102590002269A389226000226260DA04C0D56065E6
:1025A000BEE7D8F80030002B9BD01D2B0CD0162B8B
:1025B0000AD0A38943F04003A381D9E72169C4E984
:1025C0000013D304ACD5EAE7C8F80050CFE742F0D7
:1025D0004002A281CCE700BF0B6923B310B50446CB
:1025E00082B008B18369BBB1104B994212D0104B35
:1025F000994216D00F4B994208BFE168B1F90C30EF
:102600002BB1204602B0BDE81040FFF74FBF0020BD
:1026100002B010BD6168F1E7019100F007F901997E
:10262000E2E7A168EAE70020704700BFC03F010869
:10263000A03F0108803F010820B1054B0146186802
:10264000FFF7CABF034B0449186800F0B9BA00BFCE
:1026500004000024783F0108D925000800207047B5
:10266000014900F0ADBA00BFD9250008002070472D
:1026700070B54A1E682505FB02F50E4605F174018A
:10268000FEF71EFC044640B100210C30666005F1E7
:1026900068022160A060FEF76DFB204670BD00BFA0
:1026A0001E4B70B51D68AB69064643B34835D5E986
:1026B0000134013B05D51EE0013B5A1C04F16804BE
:1026C00019D0B4F90C20002AF6D10025144B656608
:1026D000C4E90055A560C4E90455A5612946E36035
:1026E000082204F15C00FEF745FBC4E90D55C4E97E
:1026F0001255204670BD2C682CB12546D7E72846D8
:1027000000F010F8D2E704213046FFF7B1FF04468D
:1027100028600028F1D10C233360EAE7783F0108F4
:102720000100FFFF2DE9F84F334B34491A688162ED
:1027300090424FF00003C0E91233036504BF012348
:1027400083610546FFF7ACFF68602846FFF7A8FFE6
:10275000A8602846FFF7A4FF6E68E8600024042301
:10276000F3607466C6E90044B460C6E90444B46129
:10277000214606F15C000822FEF7FCFADFF888B07B
:10278000AF68DFF888A0DFF88890DFF888801C4BFE
:10279000C6F83080C6E9086BC6E90AA92146FB6085
:1027A00008227C66C7E90044BC60C7E90444BC61F8
:1027B00007F15C00FEF7DEFAEE68124BC7F83080D6
:1027C000C7E9087BC7E90AA92146F3607466C6E930
:1027D0000044B460C6E90444B46106F15C00082218
:1027E000FEF7C8FA0123C6E9086BC6E90AA9C6F8CC
:1027F0003080AB61BDE8F88F783F010861260008A2
:102800000900010012000200512D0008792D000876
:10281000B92D0008D92D0008024B0349186800F0B3
:10282000CFB900BF783F0108D9250008836903B9F3
:1028300078E77047704700BF704700BF704700BF20
:10284000704700BF024B0349186800F093B900BFFE
:10285000040000245D260008024B0349186800F0BC
:1028600089B900BF040000246D2600089368002B7E
:1028700000F002812DE9F04FB1F90C309BB20C460B
:10288000190783B08246904635D522699AB313F072
:102890000202D8F800603DD00027D4F828B0D4F860
:1028A00020C0DFF8CC923D464D452B463A4628BF26
:1028B0004B4661465046D5B1D847002840F3D280F8
:1028C000D8F808301B1A07442D1AC8F80830002B16
:1028D00000F0B780D4F820C0D4F828B04D452B467E
:1028E0003A4628BF4B4661465046002DE4D1D6E912
:1028F00000750836D8E721465046FFF757FD0028F7
:1029000040F03081B4F90C30D8F800609BB213F07D
:102910000202C1D113F0010940F0B080A76820681D
:102920004D46002D54D09A0540F1BC80AF42BB46C5
:1029300000F2E78013F4906F2FD0D4E9041707EB6F
:102940004707A0EB010B07EBD777681C7F105844B3
:10295000B8423A4684BF07463A465B0540F1E980F3
:1029600011465046FEF7ACFA002800F0F5805A46B2
:1029700021690190FEF7FCF8A289019B22F4906284
:1029800042F08002A281A7EB0B0203EB0B00676110
:1029900023612060A2602F46AB465A464946FEF7A7
:1029A00081F9A2682368D21B5B442F46A260236092
:1029B0000025D8F80830DB1BB944C8F80830002BD4
:1029C0003FD0B4F90C30A76820689BB2002DAAD183
:1029D000D6E900950836A4E70BF1080353E902672E
:1029E0009B460833002FF9D03A460A213046FEF7BD
:1029F0003FF8002853D00130A0EB06094B46D4E93C
:102A000004122068BB4228BF3B46884203D9A56810
:102A10001544AB4219DC9A427DDC1346A56A216A53
:102A200032465046A847051E1CDDB9EB05096BD0A0
:102A30000120D8F808305B1B2E447F1BC8F80830F3
:102A400013BB002003B0BDE8F08F31462A46FEF7E5
:102A500029F923682B44236021465046FFF7BCFD2B
:102A60000028E2D0B4F90C3043F040034FF0FF30BF
:102A7000A38103B0BDE8F08F002070473346914634
:102A8000104617464E469B46002FA5D00028B5D1CC
:102A90003A460A213046FDF7EBFF0028ABD17B1CFC
:102AA0009946ACE72369834215D36169A94212D8DC
:102AB0002E4BA76A9D4294BF2B466FF000434A46B7
:102AC00093FBF1F3504601FB03F3216AB847071E5D
:102AD000C8DDED1B6DE7AF4228BF2F463A46494699
:102AE000FEF7E0F8A3682268DB1B3A44A36022608B
:102AF000002BEED121465046FFF76EFD0028E8D0AE
:102B0000B0E72F46AB4648E721465046FFF764FD45
:102B100000288ED0A6E71A4631460193FEF7C2F888
:102B2000019BA1682268C91A1A44A16022601D464F
:102B30007BE7504600F0E6F8034600287FF423AF19
:102B400021695046FEF766F9B4F90C300C2223F0E7
:102B50008003CAF8002087E70C23CAF80030B4F9D4
:102B60000C3081E74FF0FF306CE700BFFEFFFF7FC6
:102B700000FCFF7F2DE9F04110F148071BD088468B
:102B80000026D7E90154013D0FD4A389012B05F19B
:102B9000FF3506D9B4F90E300133204601D0C047C5
:102BA00006436B1C04F16804EFD13F68002FE8D1A5
:102BB0003046BDE8F0813E463046BDE8F08100BFBA
:102BC0002DE9F84310F148071FD0884606464FF01C
:102BD0000009D7E90154013D11D4A389012B05F166
:102BE000FF3508D9B4F90E3001332146304602D002
:102BF000C04749EA00096B1C04F16804EDD13F6845
:102C0000002FE6D14846BDE8F883B9464846BDE8FE
:102C1000F88300BF70B50C46B1F90E10002996B0CC
:102C200016461D4613DB6A4600F002F900280EDB4B
:102C3000019A02F47042A2F50052B2FA82F25209ED
:102C40004FF4806300202A60336016B070BDA38902
:102C500000221B062A6004D540230020336016B0F2
:102C600070BD4FF480630020336016B070BD00BFAC
:102C70008A8992070B4606D501F1470201211A60A5
:102C8000C3E90421704770B582B001AB6A460C46B7
:102C90000646FFF7BFFF009905463046FEF710F9DC
:102CA000B4F90C3070B11649B162019A00992060F4
:102CB00043F08003A381C4E904018AB92B43A381B3
:102CC00002B070BD9A05FBD423F0030304F1470260
:102CD00043F002030121A3812260C4E90421EFE74C
:102CE0003046B4F90E1000F0B7F810B9B4F90C3052
:102CF000E4E7A38923F0030343F001031BB2DDE7FC
:102D00006126000809B3F8B51446CAB106460D4657
:102D100000F0CAF8A04202D32F463846F8BD21463B
:102D20003046FEF7CDF807460028F6D02246294661
:102D3000FDF71EFF30462946FEF76CF83846F8BD11
:102D40002746FEF767F83846F8BD1146FEF7B8B8D3
:102D500010B50C46B1F90E1000F0AEF8002803DBF8
:102D6000636D0344636510BDA38923F48053A3817D
:102D700010BD00BF002070472DE9F0411646B1F9A3
:102D80000C201F46D3050C460546B1F90E1009D498
:102D900022F48052A2813B4632462846BDE8F041EB
:102DA00000F01EB80022022300F068F8B4F90C20ED
:102DB000B4F90E10ECE700BF10B50C46B1F90E10D7
:102DC00000F05CF8A389421C0EBF23F4805343F447
:102DD00080536065A38110BDB1F90E1000F016B8E4
:102DE00070B50D46084C114606461A462846002383
:102DF000236000F0F5FB431C00D070BD2368002B5E
:102E0000FBD0336070BD00BF3CC5002438B5074C13
:102E1000002305460846236000F09CFB431C00D0BD
:102E200038BD2368002BFBD02B6038BD3CC5002487
:102E300038B50B46074C054611461846002323605B
:102E400000F090FB431C00D038BD2368002BFBD062
:102E50002B6038BD3CC5002438B5074C002305461F
:102E60000846236000F08EFB431C00D038BD236869
:102E7000002BFBD02B6038BD3CC5002470B50D463F
:102E8000084C114606461A4628460023236000F0E7
:102E900089FB431C00D070BD2368002BFBD033603E
:102EA00070BD00BF3CC5002451F8043C181F002B26
:102EB000BCBF0B58C018704770B50D46084C114682
:102EC00006461A4628460023236000F073FB431C85
:102ED00000D070BD2368002BFBD0336070BD00BFF5
:102EE0003CC5002481F0004102E000BF83F00043B4
:102EF00030B54FEA41044FEA430594EA050F08BF95
:102F000090EA020F1FBF54EA000C55EA020C7FEA58
:102F1000645C7FEA655C00F0E2804FEA5454D4EBD5
:102F20005555B8BF6D420CDD2C4480EA020281EA9F
:102F3000030382EA000083EA010180EA020281EAD7
:102F40000303362D88BF30BD11F0004F4FEA013129
:102F50004FF4801C4CEA113102D0404261EB410138
:102F600013F0004F4FEA03334CEA133302D05242BE
:102F700063EB430394EA050F00F0A780A4F101047A
:102F8000D5F1200E0DDB02FA0EFC22FA05F28018B4
:102F900041F1000103FA0EF2801843FA05F359419A
:102FA0000EE0A5F120050EF1200E012A03FA0EFC19
:102FB00028BF4CF0020C43FA05F3C01851EBE37143
:102FC00001F0004507D54FF0000EDCF1000C7EEB60
:102FD00000006EEB0101B1F5801F1BD3B1F5001F9E
:102FE0000CD349085FEA30004FEA3C0C04F10104BD
:102FF0004FEA445212F5800F80F09A80BCF1004FE6
:1030000008BF5FEA500C50F1000041EB045141EA67
:10301000050130BD5FEA4C0C404141EB0101013C30
:1030200028BFB1F5801FE9D291F0000F04BF01461F
:103030000020B1FA81F308BF2033A3F10B03B3F1F1
:1030400020020CDA0C3208DD02F1140CC2F10C0281
:1030500001FA0CF021FA02F10CE002F11402D8BFDF
:10306000C2F1200C01FA02F120FA0CFCDCBF41EAAB
:103070000C019040E41AA2BF01EB0451294330BD7A
:103080006FEA04041F3C1CDA0C340EDC04F1140457
:10309000C4F1200220FA04F001FA02F340EA03002E
:1030A00021FA04F345EA030130BDC4F10C04C4F174
:1030B000200220FA02F001FA04F340EA0300294654
:1030C00030BD21FA04F0294630BD94F0000F83F49E
:1030D000801306BF81F480110134013D4EE77FEA81
:1030E000645C18BF7FEA655C29D094EA050F08BFCD
:1030F00090EA020F05D054EA000C04BF19461046AE
:1031000030BD91EA030F1EBF0021002030BD5FEAF1
:10311000545C05D14000494128BF41F0004130BD19
:1031200014F580043CBF01F5801130BD01F000456D
:1031300045F0FE4141F470014FF0000030BD7FEAE0
:10314000645C1ABF194610467FEA655C1CBF0B46DB
:10315000024650EA013406BF52EA033591EA030FF2
:1031600041F4002130BD00BF90F0000F04BF0021EA
:10317000704730B54FF4806404F132044FF000051D
:103180004FF0000150E700BF90F0000F04BF002196
:10319000704730B54FF4806404F1320410F00045FC
:1031A00048BF40424FF000013EE700BF42004FEAF7
:1031B000E2014FEA31014FEA02701FBF12F07F4374
:1031C00093F07F4F81F06051704732F07F4208BF2B
:1031D000704793F07F4F04BF41F40021704730B532
:1031E0004FF4607401F0004521F000411CE700BF7E
:1031F00050EA010208BF704730B54FF000050AE001
:1032000050EA010208BF704730B511F0004502D501
:10321000404261EB41014FF4806404F132045FEA03
:10322000915C3FF4D8AE4FF003025FEADC0C18BFAC
:1032300003325FEADC0C18BF033202EBDC02C2F19E
:10324000200300FA03FC20FA02F001FA03FE40EA30
:103250000E0021FA02F11444BDE600BF53B94AB989
:10326000002908BF00281CBF4FF0FF314FF0FF308E
:1032700000F06EB9ADF1080C6DE904CE00F006F86F
:10328000DDF804E0DDE9022304B070472DE9F047E2
:10329000089D04468C46002B40F083808A421746E6
:1032A00047D9B2FA82F242B1C2F1200024FA00F00A
:1032B0009140974040EA010C94404FEA1748230C94
:1032C000BCFBF8F61FFA87FE08FB16C143EA014370
:1032D00006FB0EF1994209D9FB1806F1FF3080F088
:1032E0001981994240F21681023E3B445B1AA4B216
:1032F000B3FBF8F008FB103344EA034400FB0EFE76
:10330000A64509D93C1900F1FF3380F00581A64597
:1033100040F2028102383C4440EA0640A4EB0E042D
:1033200000261DB1D4400023C5E900433146BDE865
:10333000F08702B9FFDEB2FA82F2002A50D1CB1B2D
:103340004FEA174E1FFA87F80126B3FBFEFC210C4B
:103350000EFB1C3341EA034108FB0CF38B4207D9F7
:1033600079180CF1FF3002D28B4200F2E9808446DA
:10337000C91AA3B2B1FBFEF00EFB101143EA0144DF
:1033800008FB00F8A04507D93C1900F1FF3302D231
:10339000A04500F2D9801846A4EB080440EA0C408E
:1033A000BFE78B4209D9002D00F0B1800026C5E9A6
:1033B000000130463146BDE8F087B3FA83F6002EAF
:1033C0004AD18B4202D3824200F2B880841A61EB68
:1033D000030101208C46002DA8D0C5E9004CA5E7CB
:1033E000C2F1200320FA03F6974001FA02F04FEAF7
:1033F000174ED9403043030CB1FBFEF61FFA87F895
:103400000EFB161143EA014306FB08F1994204FA48
:1034100002F409D9FB1806F1FF3C80F08D80994237
:1034200040F28A80023E3B445B1A81B2B3FBFEF05D
:103430000EFB103341EA034100FB08F38B4207D92E
:10344000791800F1FF3C73D28B4271D902383944AC
:10345000CB1A40EA064678E7C6F1200C03FA06F4D8
:1034600022FA0CF31C4320FA0CF701FA06F34FEA98
:10347000144E21FA0CF11F433B0CB1FBFEF91FFA6D
:1034800084F80EFB191143EA014109FB08FA8A4549
:1034900002FA06F200FA06F308D9611809F1FF30C2
:1034A00048D28A4546D9A9F102092144A1EB0A0173
:1034B000BFB2B1FBFEF00EFB101147EA014700FB63
:1034C00008F8B84507D9E71900F1FF312ED2B84501
:1034D0002CD90238274440EA0940A7EB0807A0FB93
:1034E00002894F45C64649461AD317D05DB1B3EBA2
:1034F0000E0267EB010707FA0CFCF2404CEA0202ED
:10350000F740C5E9002700263146BDE8F0872E4682
:1035100028460BE70646E9E61846FDE64345E5D2B0
:10352000B8EB020E69EB04010138DFE70846D2E789
:1035300060468DE78146B9E7664675E730464AE75B
:10354000ACF1020C394413E702383C4424E700BFD5
:10355000704700BF024B58221A604FF0FF3070478F
:103560003CC50024024B58221A604FF0FF307047D0
:103570003CC50024024B58221A604FF0FF307047C0
:103580003CC50024024B58221A600020704700BF3F
:103590003CC50024024B58221A604FF0FF307047A0
:1035A0003CC50024024B58221A604FF0FF30704790
:1035B0003CC50024024B58221A604FF0FF30704780
:1035C0003CC50024044A05491368002B08BF0B467C
:1035D00018441060184670472C04002440C500248D
:1035E000024B58221A604FF0FF3070473CC5002450
:1035F000FEE700BFFEE700BF0D4B0E4A934206D028
:103600000D4951F8040B43F8040B9342F9D10B4BCD
:103610000B4A934204D0002143F8041B9342FBD190
:1036200008F09EF8FDF7EAF903F038F8FEE700BF6E
:103630000000002470020024044F010870020024DE
:1036400040C50024704700BF704700BF704700BFEF
:10365000494200F1130300F21342C9B203F8011FFB
:103660009342FBD1704700BF4020704780207047D5
:1036700010B50446006808B10FF0ACFE204610BD3E
:10368000F8B5D0E900560746B5420DD005F108045B
:1036900054F8080C1835A04204F1180401D00FF0BA
:1036A00099FEAE42F4D13E6816B130460FF092FE5C
:1036B0003846F8BD10B5044640F214410FF08CFEB8
:1036C000204610BD2DE9F041561A002E16DB0446A7
:1036D000B0100D46174610B130460FF07FFE00EBDC
:1036E0000608AF422060C4F8088003D0324629465D
:1036F000FDF73EFAC4F80480BDE8F08101480FF000
:10370000CFFF00BFE03F0108F0B5044600F1080715
:1037100083B0084627600E46FDF7F2FE0F280546E7
:1037200001900ED8012809D133782372019B002122
:10373000226820466360D15403B0F0BD0028F5D064
:1037400008E0002201A920460FF0B6FF019B0746C2
:103750002060A3602A4631463846FDF709FAE5E7BE
:103760002DE9F041804600F51074D4E90D57BD42B3
:1037700028460DD005F1080656F8080C1835B04259
:1037800006F1180601D00FF025FEAF42F4D1606BB0
:1037900008B10FF01FFEE06904F12403984201D044
:1037A0000FF018FE606804F10C03984201D00FF08E
:1037B00011FE4445A4F1400301D01C46D5E7204644
:1037C000BDE8F0812DE9F041B02582B000F1080795
:1037D00000F1100600F11404002130468DF8075066
:1037E0000135884605F018FF642301220DF1070119
:1037F000384606F073FE414630468DF8078005F0E6
:103800000BFF012264230DF107013846EDB206F0EB
:1038100065FE1023414630468DF8073005F0FCFE6A
:10382000642301220DF10701384606F057FE0121FD
:10383000304605F0F1FE80222146642338461444C8
:1038400006F04CFEB82DC7D102B0BDE8F08100BF34
:103850002DE9F04F85B0A1F12004009104A99DF855
:10386000388001E90C00E3B25E2B00F2948003681B
:1038700081465C4ADB689DF8086093429DF80950D8
:1038800040F093808020B9F804303344834200F341
:103890008280D9F80030544A9B68934240F0878078
:1038A0004020B9F806104B190191834273DC002DBA
:1038B00000F0888005FB04F4039A6FF00043B9F828
:1038C00004A02544A2F1020B23440BEB450B0D464B
:1038D00002EB430E3EF8024FA6B305F007030127A3
:1038E000E80841469F4000220AEBC0137FB24B44D8
:1038F00009EBC0106FEA070CB8460F460CE07F29B1
:1039000006D83F2D04D8197DA7B148EA01011975E1
:1039100001320133964214D004FA02F111F4004F3F
:10392000A3EB0001EBD17F29F2D83F2DF0D8197D10
:10393000002FEAD001320CEA010101339642D9741A
:10394000EAD1B846F34505F10105C3D1D9F80030F5
:103950000AEB06042349DA68A4B28A422DD18020FA
:1039600084421CD29B68204AA9F80440934221D18A
:103970004020019B834207D3D9F800301A4A9B6844
:10398000934229D13F230193DDE90003A9F80630D2
:1039900005B0BDE8F08F002005B0BDE8F08FDA6813
:1039A00010498A4211D17F24DCE798476BE74846EB
:1039B000984776E748469847DBE748469047D9F866
:1039C0000030CDE7B9F804A0C0E748469047013879
:1039D000D9F8003084B2C5E748469847013883B229
:1039E0000193D1E76D360008693600082DE9F04FE4
:1039F00089B08B4691F800909DF8484008A904943E
:103A000001E90C00B9F1000F00F0B7809DF8193002
:103A100080469DF818A04D460193079B0593A5F19C
:103A20002004E3B25E2B00F2AC80D8F80030654A87
:103A3000DB68934240F0A7808020B8F804305344FC
:103A4000834200F39E80D8F800305F4A9B6893421F
:103A500040F09C804020B8F80610019A00918B1825
:103A6000834200F38E801046002A00F09A801346AD
:103A70006FF00046B8F8047003FB04F3059CBE46E3
:103A8000CDF80CB01E44A21E0344574604EB460674
:103A9000DDF8109002EB430302959B4636F802AF27
:103AA000A7B3012401F00702C8080EF1140304FAB9
:103AB00002F2744603EBC013002052B243446FEA93
:103AC000020C0EE07F2C07D83F2905D81D78B9F1EC
:103AD000000F12D015431D70013001330134B8427C
:103AE00014D00AFA00F52D04ECD47F2CF4D83F2929
:103AF000F2D81D78B9F1000FECD001300CEA0505C1
:103B000001330134B84203F8015CEAD15E4501F1AA
:103B10000101C3D1BA46029D7746DDF80CB0D8F852
:103B2000002057442749D368BFB28B4234D180204C
:103B3000874204D3D36823498B423BD17F279368C4
:103B4000214AA8F80470934223D14020009B83426D
:103B500007D3D8F800301C4A9B68934224D13F23F6
:103B60000093009BA8F806309BF80000A84205D1FE
:103B70001BF8015F002D7FF452AF002009B0BDE8B3
:103B8000F08F0025F0E74046984756E740469847B3
:103B900061E740469847D9E740469847D8F8002063
:103BA000C6E7B8F80470BAE740469847013883B2D0
:103BB0000093D6E7404698470138D8F8002087B2EE
:103BC000BDE700BF6D360008693600087F2921D89F
:103BD0003F2A1FD810B473B9D308012402F007029A
:103BE00001EBC3139440C1180A7D22EA04020A754E
:103BF0005DF8044B7047D408012302F0070201EB83
:103C0000C41403FA02F201190B7D1A430A755DF818
:103C1000044B7047704700BF2DE9F04F0C468BB046
:103C20001146904609901D469DF8580011F8012B49
:103C30000890DDE9146332B1002211F8010B013262
:103C40000028FAD192B22978687811FB02F201B209
:103C500012B222EAE272082B00F2AD81DFE813F023
:103C6000000112011E013201400150016B01780177
:103C700009003788B088B6F906300744002BA7EB57
:103C80000207BFB2C0F2FC80B6F802C009980CEB84
:103C90006306034607808280D980A6EB51018EB26D
:103CA0005E80B64A236811460192DA688A4240F083
:103CB0008F818020B84205D8DA6801998A4240F0A5
:103CC0009A817F279B68AE4AA7809342039240F077
:103CD0008A814020B04206D82368039A9B689342A9
:103CE00040F084813F266B78E680049398F800606A
:103CF0006B6895F800B00793002E00F0AD80A6F138
:103D00002005EBB25E2B00F234812368019ADB6858
:103D1000934240F030818020A3885B449842C0F2F7
:103D200028812368039A9B68934240F02B814020AE
:103D3000E188049A02918B189842C0F21A811046C9
:103D4000002A00F0298113466FF00047B4F804C040
:103D500003FB05F3079DCDF81880AA1E1F440344FA
:103D6000DDF8209005EB4707059602EB430322465A
:103D70005C469846934637F802AFA4B3012501F09C
:103D80000702C8080CF1140305FA02F2654603EBBA
:103D9000C013002052B25B446FEA020E0EE07F2D8A
:103DA00007D83F2905D81E78B9F1000F12D0164365
:103DB0001E70013001330135844214D00AFA00F636
:103DC0003604ECD47F2DF4D83F29F2D81E78B9F10F
:103DD000000FECD001300EEA0606013301358442B3
:103DE00003F8016CEAD1B84501F10101C3D15B468A
:103DF000059EA346DDF818801C462268DC44019924
:103E0000D3681FFA8CF58B4240F0C2808020854237
:103E100005D3D36801998B4240F0C7807F25936812
:103E2000039AA580934240F0B0804020029B8342D9
:103E300007D32368039A9B68934240F0B0803F23E6
:103E40000293029BE38098F80030B34204D118F843
:103E5000016F002E7FF453AF09980BB0BDE8F08FCF
:103E6000B6F9040037880028B6F90630B8BF01302B
:103E7000002B07EB6007A7EB6207BFB2BFF604AFEA
:103E8000013301E7B6F90070099BB6F902601F80A3
:103E9000BFB25E80B6B29A80D98002E7B6F904302C
:103EA0003788002BB6F90260B8BF013307EB630710
:103EB000099B9A80A7EB62025E80B6B297B2D98066
:103EC0001F80EEE6B3883788B6F902601F44099B6D
:103ED0009A80BA1A5E80B6B297B2D9801F80E0E6A7
:103EE0007388B6F806C0B6F900709C44099BACEB29
:103EF00000001F809A80BFB286B2D9805E80D0E673
:103F0000B6F904C03788BCF1000F7388B6F806E034
:103F1000B8BF0CF1010C099E07EB6C07B2800EEBE9
:103F20000306A7EB6202301A099B97B286B2D980CA
:103F30001F805E80B5E6B6F804C037887388B6F88F
:103F400006E06744099EB2800EEB0306BA1AEAE760
:103F5000B6F90630B6F90000002BB6F802C0099E8B
:103F600087B2B8BF013330800CEB6306099B18465B
:103F700091E6002667E720469847CDE66D360008B3
:103F80006936000820469847D2E6204698474DE714
:103F90002046984722683AE7B4F804C02DE7204647
:103FA0009847013883B202934BE72046984701387F
:103FB000226885B233E723680026124FDA68099930
:103FC000BA4201970E804E808E80CE8004D0374654
:103FD0002046904723686DE69B680B4AA680934273
:103FE00003923FF480AE2046984773E620469847F8
:103FF000013886B277E6204690470138236887B2B9
:1040000060E600BF6D360008693600082DE9F04F04
:1040100083B05E1A0C9F9DF83480A7EB020EBEF1B0
:10402000000FB8BFCEF1000E8B428CBF4FF00109DC
:104030004FF0FF39002EB8BF76429742A6EB0E0430
:104040004FD84FF0FF357F2B019514D83F2F12D852
:10405000FD0807F0070C4FF0010A03EBC515B8F196
:10406000000F45D005440AFA0CFC95F814A04CEA60
:104070000A0C85F814C0974201D18B4229D0CEF1A9
:10408000000C7F2914D83F2A12D8D5084FF0010B15
:1040900002F0070A01EBC5150BFA0AFA054495F878
:1040A00014B0B8F1000F17D04AEA0B0A85F814A033
:1040B000BCEB440F4FEA440502DAA4EB0E0449447A
:1040C000AE4202DD019D34442A449942D9D197423F
:1040D000D7D103B0BDE8F08F2BEA0A0A85F814A007
:1040E000E6E701257F2B0195C9D83F2FB0D9C6E758
:1040F00005440AFA0CFA974295F814C02CEA0A0C07
:1041000085F814C0B9D0BAE72DE9F04F2DED068B34
:1041100085B01C460F4690469DF858300390029398
:10412000159B002BC0F2F281149A134406EE103A4C
:10413000DDED147AB8EEC66B9FEDD54BB8EEE77B9C
:104140009FEDD55B27EE047B26EE046B87EE050B17
:1041500086EE05ABF7EEC08BB0EE680AFCF7F4F81C
:10416000B7EECAAB07EE904AB0EE408AB0EE680AEE
:10417000F8EE679AFCF71CFBF0EE408AB0EE4A0AB4
:10418000FCF7E2F8B0EE409AB0EE4A0AFCF710FBFA
:1041900068EEE98A20EE690A29EE888A29EE899A72
:1041A00070EE687AF0EE006A39EE487A67EEA77A28
:1041B000E7EE077AF4EEE67AF1EE10FA06D5159BF3
:1041C000B42B40F3EE804FF0010E01E04FF0000EF3
:1041D0000126C4F101033A466042B340002431464F
:1041E000374694460196BEF1000F6AD1424206EE70
:1041F000904A614207EE102AF8EEE66A07EE901A3E
:10420000159AB8EEC77A66EE884AB42A26EE896A0D
:1042100006EE900A27EE284AF8EEE77AF8EEE66A0C
:1042200074EEC43A67EE885A26EEA85A67EE897A89
:1042300027EE007A66EE806AF5EEC03A40F3DC8045
:10424000F1EE10FA00F14D8176EE473A74EEC54A70
:10425000F5EEC03AF1EE10FAF5EEC04ACCBF0122FD
:104260000022F1EE10FA019200F1458136EE666A05
:1042700035EEC55AB5EEC06AF1EE10FAB5EEC05A89
:10428000CCBF01210021F1EE10FA00F13D8177EE63
:10429000E66AF5EEC06AF1EE10FACCBF0126002600
:1042A00075EEC45AF5EEC05AF1EE10FA00F117811E
:1042B00077EEC77AF5EEC07AF1EE10FACCBF01279F
:1042C0000027019AF2B1ACEB000904EB0805B9F143
:1042D0007F0F17D83F2D15D84FEAD50A4FF0010BA5
:1042E00005F00705029A09EBCA190BFA05F5002A31
:1042F00000F0C280039A914499F814B045EA0B0586
:1043000089F81450F1B100EB0C0904EB0805B9F180
:104310007F0F17D83F2D15D84FEAD50A4FF0010B64
:1043200005F00705029A09EBCA190BFA05F5002AF0
:1043300000F08E80039A914499F814B045EA0B0579
:1043400089F81450EEB100EB0C09A8EB0405B9F1A3
:104350007F0F16D83F2D14D84FEAD50A4FF0010B26
:1043600005F00705029A09EBCA190BFA05F5002AB0
:1043700065D0039A914499F814B045EA0B0589F881
:104380001450D7B99C4216DB013403EB4405C442F8
:1043900005F101054FD0984208DB2B4600287FF736
:1043A00022AF05B0BDEC068BBDE8F08F013005EB08
:1043B00040030133F2E71D46EDE7ACEB0009A8EB43
:1043C0000405B9F17F0FDDD83F2DDBD84FEAD50AC0
:1043D0004FF0010B05F00705029A09EBCA190BFA19
:1043E00005F5002A3FD0039A914499F814B045EAA4
:1043F0000B0589F81450C5E7F1EE10FA64D4CDF836
:1044000004E074EEC54AF5EEC04AF1EE10FA51D45C
:10441000002135EEC55AB5EEC05AF1EE10FA3FD480
:10442000002675EEC45AF5EEC05AF1EE10FA3FF5CB
:104430003FAF002745E79842B8DB0023ABE7039A7C
:10444000914499F814B02BEA050589F8145098E7BF
:10445000039A914499F814B02BEA050589F8145091
:10446000002E8ED06FE7039A914499F814B02BEA8E
:10447000050589F8145085E7039A914499F814B01A
:104480002BEA050589F8145000293FF45BAF3AE7A1
:104490007A008BFCFA210940000000000080664091
:1044A00077EEE66AF5EEC06AF1EE10FACCBF0126AF
:1044B0000026B6E736EE666AB5EEC06AF1EE10FA8F
:1044C000CCBF01210021A4E776EE473AF5EEC03AD1
:1044D000F1EE10FACCBF01220022019291E70127F0
:1044E000EFE674EEC54A01220192F5EEC04AF1EE04
:1044F00010FA7FF5BBAE35EEC55A0121B5EEC05AB4
:10450000F1EE10FA7FF5C3AE0126C9E6DDE914230A
:10451000134406EE102A1493159B5B42159307E68D
:104520002DE9F04F87B09DF84860109C9DF84450ED
:1045300001969EB399422ED89A46A24228D87F2946
:10454000164694BF0023012308E09CF814904EEA1D
:10455000090E8CF814E00136B44219D33F2EFAD874
:10456000002BF8D14FEAD60C06F0070E4FF00109E8
:1045700001EBCC1C09FA0EFE8444002DE5D19CF819
:1045800014B001362BEA0E08B4428CF81480E5D240
:1045900001318A45D1D207B0BDE8F08FA3EB010805
:1045A000B8F1000FB8BFC8F10008994280F05481FB
:1045B0003F2A4FF0010994BF002601267F2B029667
:1045C00094BF002701270097DEB9D7B9002D00F06E
:1045D000588100264FEAD20E4FF0010C02F0070777
:1045E00003EBCE1E029600260CFA07F700960EEBA0
:1045F000000696F814C047EA0C073775994200F098
:104600009781C44616460F467F2F15D83F2E13D8E4
:104610004FEAD60E4FF0010B06F0070A07EBCE1E4D
:104620000BFA0AFA86449EF814B0002D00F045817A
:104630004AEA0B0A8EF814A05FEA4C0E18BF4F44EA
:10464000F04501DDC444013EBB42DDD1B242DBD1C5
:1046500000260496A4EB0209B9F1000FB8BFC9F116
:1046600000093F2C94BF00260126A242C9F1000890
:104670000396C0F03181002E40F05381009E002E41
:1046800040F04F814FF0FF360096002D00F02C8156
:1046900000264FEAD40E4FF0010C04F007070396F2
:1046A00003EBCE160CFA07F7064496F814C047EA57
:1046B0000C073775A24200F03E81C44616461F46DD
:1046C00005927F2F15D83F2E13D84FEAD60E4FF004
:1046D000010B06F0070A07EBCE1E0BFA0AFA864416
:1046E0009EF814B0002D00F0ED804AEA0B0A8EF817
:1046F00014A0B8EB4C0F4FEA4C0E02DAACEB090CED
:10470000013FBEF1000F01D0009A1644BB42D8D140
:10471000B442D6D1059A7F29A1EB030E94BF4FF086
:1047200000094FF0010999428CBF4FF001084FF08A
:10473000FF38BEF1000FB8BFCEF1000EB9F1000F87
:1047400013D1039E8EB9E6084FF0010C04F0070761
:1047500001EBC6160CFA07F7064496F814C0002DB4
:1047600000F0DB8047EA0C073775049E2EBB7746C6
:1047700026467F2B15D83F2E13D84FEAD60C4FF084
:10478000010B06F0070A03EBCC1C0BFA0AFA84446F
:104790009CF814B0002D00F09A804AEA0B0A8CF8BD
:1047A00014A05FEA470C18BF4344E64501DD774497
:1047B000013E9942DDD1B442DBD1A2EB040EA2420C
:1047C0008CBF4FF001084FF0FF38BEF1000FB8BFAB
:1047D000CEF1000ECEF1000CB9F1000F0FD1029B0B
:1047E0006BB9D30802F00707012601EBC313002DB4
:1047F00000F08B800344BE401F7D3E431E75019B2D
:10480000002B7FF4C8AE66460B467F2B13D83F2C97
:1048100011D8E70804F0070A4FF0010903EBC717A6
:10482000002D40D0074409FA0AF997F814A049EA84
:104830000A0987F81490BCEB460F4FEA460702DAE4
:10484000A6EB0E06013B07B144449942DDD1A242DA
:10485000DBD107B0BDE8F08F7F2B4FF0FF3994BF5D
:10486000002601263F2A009694BF002701270297C1
:10487000002E7FF4C3AE002F7FF4C0AE002D7FF476
:10488000A8AED6084FF0010C02F00707029503EB23
:10489000C61600950CFA07F7064496F814C02CEAE1
:1048A00007073775AAE6074409FA0AFA97F8149039
:1048B00029EA0A0987F81490BDE72BEA0A0A8EF85C
:1048C00014A0B9E62BEA0A0A8EF814A011E72BEA25
:1048D0000A0A8CF814A064E73EBB009E2EBB01269A
:1048E0000096002D7FF4D4AEE6084FF0010C04F0E2
:1048F0000707039503EBC6160CFA07F7064496F86C
:1049000014C02CEA07073775D4E6034406FA07F704
:104910001E7D26EA07061E7571E72CEA0707377524
:1049200023E74FF0FF360096C4E601260096C4E662
:10493000012604968EE601260196ECE610B50446A3
:10494000806908B10EF046FD234653F8080B9842E3
:1049500001D00EF03FFD204610BD00BFF8B5D0E9F4
:104960000D560446B5420DD005F1080757F8080C5E
:104970001835B84207F1180701D00EF02BFDAE42F2
:10498000F4D1666B16B130460EF024FDE06904F1F7
:104990002403984201D00EF01DFD606804F10C0361
:1049A000984201D00EF016FD2046F8BD2DE9F041E9
:1049B0000A6801F10C030C464968054602609942F9
:1049C00040684ED005F10C029042A268C5E9011280
:1049D00042D0E168EA68E96000283FD06060E260A8
:1049E000002304F12402A3600370E169E8699142A5
:1049F00044D005F124039842236AC5E907134AD03D
:104A0000616A6B6A6962002847D0E06163620023D3
:104A100023620370D5E90D68D4E90D2146456A6328
:104A2000E26BC5E90E12C4E90D33E3630DD006F164
:104A30000804374654F8080C1837844204F1180467
:104A400001D00EF0C7FCB845F4D116B130460EF0D7
:104A5000C1FC2846BDE8F081E268EA601846636060
:104A6000BEE7A2682AB1012A20D0FCF781F8A2682B
:104A700068680023AA6083546068B1E7226A2AB19B
:104A8000012A0DD0FCF774F8226AE86900232A6233
:104A90008354E069BBE7636A6B621046E261B6E784
:104AA00094F824300370226AE869EFE7237B0370EF
:104AB000A2686868DDE700BF0A4B00210A48D3ED11
:104AC000007AFCEEE77A10B517EE903A074C9AB2EE
:104AD00004F080FC2178064804F09EFD002323703A
:104AE00010BD00BF10050024B8080024989E0024C3
:104AF000509E002489B24E4B92B27F2928BF7F215D
:104B00003F2A2DE9F04F28BF3F22D0F80080494DC1
:104B100049F2A81449F2AA1087B093F801B02A52BA
:104B200029531A7898F800A05B6801920593BAF1AE
:104B3000000F77D05146A1F12003DAB25E2A74D873
:104B40003D48019AB0F800C00CEB020ABAF1800FA0
:104B50006BDCB0F8029009EB0B02402A65DCBBF17C
:104B6000000F4BD00BFB03F3059E6FF0004248464D
:104B7000B41E1A445B4406EB420204EB4303039366
:104B800032F8023F0293019BA3B3012600F0070411
:104B900049F2B81EC30806FA04F46746E644002644
:104BA00064B20EEBC313E5430495224D2B440FE092
:104BB0007F2F07D83F2805D893F800E044EA0E0E6F
:104BC00083F800E00136019D01330137B54211D071
:104BD000029D05FA06FE1EF4004FE9D17F2FF1D8A1
:104BE0003F28EFD893F800E0049D05EA0E0E83F805
:104BF00000E0E7E7039B01309342C1D14A461FFA28
:104C00008AF30D483F2A28BF3F227F2B28BF7F23EE
:104C10004280038098F800308B4203D118F8011FBE
:104C2000002988D107B0BDE8F08F0021F2E700BF6E
:104C3000F004002498080024409A00242DE9F84F3D
:104C4000D0E900976FF060489346A7EB0902B8EBF4
:104C5000A20F4FD0931005468A46002B45D0B3EBE8
:104C6000430FA1EB09044FEA43021BD9DFF89C80F4
:104C700040460EF0B3FBDBF800300646002C8044C3
:104C8000335117DCA7EB0A070434002F344426DC29
:104C90003C44B9F1000F19D1C5F80880C5E900649A
:104CA000BDE8F88F4ABB1646DBF80030002C904672
:104CB0003351E7DDA7EB0A07224649463046043464
:104CC000FBF7F0FF002F344409DC3C4448460EF06B
:104CD00081FBC5F80880C5E90064BDE8F88F51463E
:104CE0003A462046FBF744FFD2E7A1EB09044FF018
:104CF0000408BDE704480EF0D3FC904528BF904659
:104D00004FEA8808B4E700BF14400108FCFFFF7FAA
:104D10002DE9F843D0E9012306460F469A4205D013
:104D20000B6842F8043B4260BDE8F883D0F800907D
:104D30006FF06041A2EB0904B1EBA40F4FEAA403AA
:104D40002AD03BB3B3EB430F4FEA43051FD9164DAF
:104D500028460EF043FB804605443B68002C48F88B
:104D6000043009DC04344444B9F1000F0BD1B560C0
:104D7000C6E90084BDE8F88322460434494640462B
:104D80004444FBF78FFF48460EF024FBEFE735B9AC
:104D9000A846E2E70425DBE704480EF081FC8D42DB
:104DA00028BF0D46AD00D3E7FCFFFF7F144001088C
:104DB000C9B170B506460C46E1683046FFF7F8FF0A
:104DC000A06A2546A46808B10EF004FB286905F125
:104DD0001803984201D00EF0FDFA28460EF0FAFAB8
:104DE000002CE9D170BD704710B504468168FFF70B
:104DF000DFFF204610BD00BFA9B170B506460C46C6
:104E0000E1683046FFF7F8FF206904F118032546F2
:104E1000A468984201D00EF0DDFA28460EF0DAFAC6
:104E2000002CEDD170BD704710B504468168FFF7C6
:104E3000E3FF204610BD00BF70B5054682B00E46A8
:104E400002B141B3941B0F2C019411D8012C286896
:104E500008D1337803700023019C28686C600355E7
:104E600002B070BD64B900236C60035502B070BD20
:104E7000002201A928460EF01FFC019B2860AB60B0
:104E800022463146FBF774FE019C286800236C60C3
:104E9000035502B070BD01480EF0FFFB3040010821
:104EA000634B2DE9F04703F5806286B0002403F8D8
:104EB000014F9A42FAD15F4A02AD4FF000036846B3
:104EC0001168526800950A44FFF7B6FF684622460B
:104ED0002146FFF70FFE0098A84201D00EF07AFAA3
:104EE000554B03F1800113F8012F42F008028B4269
:104EF0001A70F8D13E23012468460B220021009548
:104F00000194ADF80830FFF7F5FD0098A84201D0F4
:104F10000EF060FA494B03F1800113F8012F42F0C3
:104F2000200299421A70F8D1454A4FF000036846B2
:104F30000095D2E900120A44FFF77EFF6846362248
:104F40000221FFF7D7FD0098A84201D00EF042FAE7
:104F50003C4F3D4E3C6806EB841605E03B6801344F
:104F600040360433A34228DD092CF7DC32684FF0C9
:104F70000003D6F83490684602EB42080095D6E963
:104F8000071209EBC80A0A44FFF756FF59F8381010
:104F9000DAF8042068460EF0DCFC3B68684607211E
:104FA000E31A03EB83035A000C32FFF7A3FD0098CA
:104FB000A842D3D00EF00EFAD0E7244EB024002140
:104FC00023488DF8004001340D4604F025FB64238E
:104FD000012269461F4805F081FA29461C48E4B2BF
:104FE0008DF8005004F018FB01226423694619482B
:104FF00005F074FA1023294615488DF8003004F0A6
:105000000BFB642301226946124805F067FA01216F
:105010000F4804F001FB8022314664230D481644FA
:1050200005F05CFAB82CCAD106B0BDE8F08700BF25
:105030004F9A002490040024CF9A00244F9D00240E
:10504000300400249408002414060024509A0024FC
:105050004C9A0024449A002408B4F0B50E46114638
:10506000044682B0C81D00AF20F0070007F11C0302
:10507000ADEB000D53F8042B6D467B602846B0471E
:1050800004F108032A182946204623604FF0000344
:10509000FFF7D2FE20460837BD46BDE8F04001B01C
:1050A000704700BF81422DE9F04F074683B041D0E1
:1050B00089460568564BD1E900488168A8EB04028F
:1050C000491B4FEAE20A0192C91003FB0AFA03FBEB
:1050D00001F1514532D34668711B4FEAE10B03FBE6
:1050E0000BFBDA4566D8019B002B11DD2E462146CD
:1050F00030460EF038FBBAF1010A04F1180406F14B
:105100001806F4D1019B7E68002BD8BF18231D44DC
:10511000AE420BD005F1080454F8080C844201D0CB
:105120000EF058F918351834B542F5D13D68019B99
:105130001D447D60384603B0BDE8F08FBAF1000F22
:1051400061D0344B9A4560D801980EF047F9064675
:10515000444511D006F108056268183445F8085C2A
:10516000A5F1080054F8181C4FF0000318350A4444
:10517000FFF762FEA045EFD1D7E9005845450DD0B5
:1051800005F1080454F8080CA04201D00EF022F9F1
:1051900018351834A845F5D1D7F80080B8F1000FBC
:1051A00002D040460EF016F9019B3E6033441D4686
:1051B000BB60BEE7002911DD214628460EF0D3FA78
:1051C000BBF1010B04F1180405F11805F4D1D9F86D
:1051D0000040D9F80480D7E90056711B0C444445BF
:1051E000A5D008366268183446F8086CA6F10800A5
:1051F00054F8181C4FF0000318360A44FFF71CFE41
:10520000A045EFD192E75646A2E70EF043FA00BF61
:10521000ABAAAAAA555555052DE9F8430446002521
:105220009146984600F10C0200F1240385600F4678
:10523000426004F11C06E36104302573256284F8A2
:105240002450E563C4E90D550EF08DFA494604F18A
:105250003400FFF727FF39463046C4F800800EF0CF
:1052600082FAA3680A2B0FD0226A6FF040439A4259
:105270000DD001220749304615440EF06AFBA368A1
:10528000C3F10A03AB42EFD82046BDE8F8830248D9
:105290000EF006FA8C4E01085C4001082DE9F84337
:1052A000551A204C0646204BE81004FB00F49C42A3
:1052B00035D80F4690461CB128460EF08FF80446AC
:1052C0006319B8453460B36026D0183D174B1837C2
:1052D00004F10808ED0803FB05F525F0604505EB32
:1052E000450904EBC90909F1200957F8181CA8F170
:1052F000080057F8142C4FF0000348F8088C08F108
:1053000018080A441837FFF797FDC845EDD1013555
:1053100005EB450504EBC5047460BDE8F88304485B
:105320000EF0BEF9ABAAAAAA55555505ABAAAA0A12
:10533000E03F01082DE9F843D1E900260023214C84
:10534000B61A054603600F46C0E90133F01004FBAE
:1053500000F434B11C4B9C4232D830460EF03EF87B
:1053600004462644C5E90044AE60D7E90086B0454E
:1053700022D004F10809474649F8089C183757F825
:10538000181CA9F1080057F8142C4FF0000309F17C
:1053900018090A44FFF750FDBE42EDD1183E0B4BF1
:1053A000A6EB0806F60803FB06F323F0604301337F
:1053B00003EB430304EBC30428466C60BDE8F883A9
:1053C0000EF068F9ABAAAAAA55555505ABAAAA0AC8
:1053D0002DE9F04F8C6883B08B4681460192B4B3BF
:1053E000019BD3F80480D3F800A06669454627697D
:1053F0005046B045394628BF35462A4615B1FBF719
:1054000087FB08B9A8EB06000021884203DBE268AD
:105410002AB11446E9E7A2680121002AF9D1B9B9F5
:10542000A3468DB12A4651463846FBF771FB58B169
:1054300000284FF000034846B4BFC9E9003BC9E962
:10544000004303B0BDE8F08FA6EB0800F0E70C1DA9
:10545000DBF80C30A34210D02046A3460EF0BCF877
:10546000019B46690446D3F80480D3F800A0B045F8
:105470004546076928BF3546D3E700234846C9E9B2
:10548000003403B0BDE8F08F2DE9F04F1F460B1D2F
:1054900083B00E469A42054650D0D7F80480144691
:1054A000D2F81490C246D7F800B0C845116928BF99
:1054B000CA46BAF1000F1CD0524658460191FBF77C
:1054C00027FB0028019902D1A8EB0903002B14DB6C
:1054D000084652465946FBF71BFB08B9A9EB0800E2
:1054E000002850DB0023C5E90043284603B0BDE88F
:1054F000F08FA8EB0903002BF0DAF368A34217D072
:1055000020460EF069F8D0F814A042468146D045F6
:1055100028BF524622B159460069FBF7F9FA08B98B
:10552000AAEB0800002825DAD9F80C30002B4BD064
:105530002846C5E9004403B0BDE8F08F4B69CBB104
:105540000C69D7F80480D4F81490C1454A4628BFA6
:10555000424622B139682069FBF7DAFA08B9A9EBAB
:105560000800002806DA00232846C5E9003403B005
:10557000BDE8F08F28463A463146FFF729FF284616
:1055800003B0BDE8F08F3369A342ECD020460EF0A3
:1055900010F8D0F814A042468146D04528BF5246A4
:1055A00062B15846D9F81010FBF7B2FA30B10028B2
:1055B000E0DAE3682BB1C5E9009996E7A8EB0A00A9
:1055C000F5E7C5E9003490E7C5E900398DE700BF8C
:1055D0002DE9F0411D4684B00646342001910DF0BE
:1055E000FDFE2D680446019A284604F1180804F1CE
:1055F0001003C4F8108050F8081B814245D0AF68F2
:105600002161A76169680027286002A86F60616155
:1056100031462F722763C4E90A77FFF735FFDDE9CA
:10562000027515B3331D5FB101202A4621460DF0E6
:10563000D5FF736920460133736104B0BDE8F08182
:105640009D42F1D0D4F814806F694246B84528BF16
:105650003A4632B1296920690193FBF759FA019B57
:1056600008B9A8EB0700C00FDFE7A06A08B10DF08A
:10567000B1FE2069804501D00DF0ACFE20460DF052
:10568000A9FE384604B0BDE8F081D0F800E0D0F8BB
:1056900004C08768C168C4F818E0C8F804C0C8F836
:1056A0000870C8F80C10ADE72DE9F04FA44D0023A9
:1056B0008BB02868AB60C5E9003308B10DF08AFEF5
:1056C000A04A0DF1180904A84FF0000311680A68F8
:1056D000496B02EB4202CDF8109001EBC20451F885
:1056E000321062680A44FFF7A7FB97488468002CD1
:1056F00076D000F1040ADDE904B7D0466669594660
:10570000BE42324628BF3A461AB12069FBF700FA7A
:1057100000B9F01B002873DBA046A468002CEDD173
:10572000D0455FD0D8F814403A46A74228BF224659
:105730002AB1D8F810105846FBF7EAF900B9381B1F
:1057400000284FDBCB45D8E90A37A7EB03074FEA20
:10575000A70602D058460DF03DFEDFF804824FF058
:10576000000304A8D8F800100A68496B02EB420253
:10577000CDF8109001EBC20451F8321062680A446F
:10578000FFF75AFB714904A80EF005F9049B044683
:105790004B4502D018460DF01DFE002C35D1731E6E
:1057A000002B049308DA15E042F8043B049B6A607E
:1057B000013B002B04930DDBD5E9011081420A4621
:1057C000F2D104AA5E48FFF739FA049B013B002B93
:1057D0000493F1DA5E4B00221A600BB0BDE8F08F43
:1057E00000F1040802A804AC414603AB0090594AFA
:1057F00055480394FFF7ECFEDDF810B08046A1E7B2
:10580000E468002C7FF47AAF8AE7D8F800104FF0F4
:10581000000304A80A68496B02EB4202CDF810901D
:1058200001EBC20451F8321062680A44FFF704FB2E
:10583000494904A80EF0AFF8049B04464B4502D03A
:1058400018460DF0C7FD7CBB002F049422DC731EAC
:10585000002B0493BEDDD5E9011081420A460CD02D
:1058600042F8043B6A60049B013B002B0493B1DDCA
:10587000D5E9011081420A46F2D104AA3048FFF767
:10588000DDF9F0E743F8044B6B60049C0134B4424B
:105890000494DCDAD5E9011291420B46F2D104AA54
:1058A0002748FFF7CBF9F0E7D8F800104FF00003D6
:1058B00004A80A68496B02EB4202CDF8109001EB94
:1058C000C20451F8321062680A44FFF7B5FA23495E
:1058D00004A80EF060F8049B04464B4502D018461D
:1058E0000DF078FD002C3DD1013E0494002E08DC23
:1058F00070E743F8044B6B60049C0134B442049499
:1059000009DAD5E9011291420B46F2D104AA0C48FA
:10591000FFF794F9F0E7049608E043F8046B6B6036
:10592000049E013E002E04967FF754AFD5E9011284
:1059300091420B46F1D104AA0148FFF77FF9EFE746
:105940005C0500241006002478040024744001083B
:1059500068050024584301087C4001088440010880
:1059600000060024D8F800104FF0000304A80A68CD
:10597000496B02EB4202CDF8109001EBC20451F8E2
:10598000321062680A44FFF757FA164904A80EF06D
:1059900002F8049B04464B4502D018460DF01AFD50
:1059A000BCB100239F42049309DC13E742F8043B97
:1059B0006A60049B0133B3420493BFF60BAFD5E991
:1059C000011081420A46F1D104AA0748FFF736F9CF
:1059D000EFE74FF0FF3304A903480493FFF798F96A
:1059E000F8E600BF8C4001085C0500242DE9F04F6B
:1059F00000218BB0DFF848814C4B0DF11809D8F825
:105A00000420404600910DF017FF494A494F4FF0DE
:105A10000003116804A80A68496B02EB4202CDF842
:105A2000109001EBC20451F8321062680A44FFF78B
:105A300003FABC68002C62D007F1040ADDE904B661
:105A400057466569B5422A4628BF324622B15946B3
:105A50002069FBF75DF800B9A81B00285EDB27462C
:105A6000A468002CEDD157454AD07C693246A64245
:105A700028BF224622B139695846FBF749F800B9D8
:105A8000301B00283CDBCB45D7E90A34A4EB0304E8
:105A90004FEAA40602D058460DF09CFC002C2BDDEA
:105AA0000024254F0DE0D8F804206FF040439A42BF
:105AB00038D00122214922480DF04BFF0134B44275
:105AC0001ADA3B68A342EED11E4910221E4B51F850
:105AD00024500DEB02001D490095FFF7BDFA184850
:105AE000DDE904120DF035FF04984845E6D0013495
:105AF0000DF070FCB442E4DB0BB0BDE8F08F04376E
