:020000040800F2
:10000000000002204D230008492300082D9A000813
:100010004923000849230008492300080000000084
:10002000000000000000000000000000492300085C
:100030004923000800000000492300081D9A000819
:1000400049230008492300084923000849230008E0
:1000500049230008492300084923000849230008D0
:10006000492300084923000849230008B9830008F0
:10007000C5830008BD750008D1830008DD83000832
:10008000E197000885150108492300084923000865
:100090004923000849230008492300084923000890
:1000A0004923000849230008492300084923000880
:1000B000492300084923000849230008B91501080D
:1000C00049230008C51501084923000849230008F1
:1000D00049230008B59100086192000811930008B7
:1000E00049230008492300080000000049230008B4
:1000F0004923000849230008492300084923000830
:10010000492300084923000849230008492300081F
:10011000C1930008719400089178000849230008F1
:1001200079780008857800084923000849230008E9
:1001300049230008492300084923000849230008EF
:1001400000000000000000000000000000000000AF
:100150004923000849230008492300082195000885
:10016000D115010849230008492300084923000844
:1001700049230008492300084923000849230008AF
:100180004923000849230008D195000881960008FA
:10019000492300084923000849230008492300088F
:1001A000492300084923000849230008492300087F
:1001B0000181000849230008492300084923000859
:1001C000492300084923000849230008492300085F
:1001D000492300084923000849230008492300084F
:1001E000492300084923000849230008492300083F
:1001F000492300084923000849230008492300082F
:10020000492300084923000849230008492300081E
:10021000492300084923000849230008492300080E
:100220004923000849230008492300080000000072
:100230004923000849230008000000004923000862
:1002400049230008492300084923000849230008DE
:1002500049230008492300084923000849230008CE
:1002600049230008492300084923000849230008BE
:1002700049230008492300083197000800000000C6
:100280004923000849230008492300080000000012
:080290000000000049230008F2
:1002C0000348044B834202D0034B03B118477047E5
:1002D0007002002470020024000000000548064956
:1002E0000B1AD90F01EBA301491002D0034B03B144
:1002F00018477047700200247002002400000000BC
:1003000010B5064C237843B9FFF7DAFF044B13B15D
:100310000448AFF300800123237010BD7002002455
:1003200000000000A430010808B5044B1BB10449CB
:100330000448AFF30080BDE80840CFE700000000AC
:1003400074020024A4300108F8B510EE104AC4F37A
:100350000A53B3F57D7FB7EEC07A1ED227EE077B36
:10036000B3F5667F6FD327EE074B27EE043B724B46
:1003700093ED0E5B93ED106B93ED0C0BA7EE050B5D
:1003800093ED145BA4EE060B93ED126BA7EE056BD9
:10039000A6EE030BB7EEC00BF8BD40F22E4293421F
:1003A00054D8654991ED086B27EE066BBDEEC66B20
:1003B00091ED0A5B16EE103A03F500031B1613F0DD
:1003C000020F06EE903A01F1700208BF0A46D80704
:1003D000B8EEE66BA6EE457B27EE076B1AD503F069
:1003E000030301EBC30393ED005B92ED164B27EE85
:1003F000057B27EE065B92ED1A3BA5EE047B26EE0D
:10040000055B92ED184BA6EE034BA4EE057BB7EE11
:10041000C70BF8BD92ED0E4B26EE067B26EE073B92
:1004200092ED0C0B92ED105BA6EE040B92ED144BCB
:10043000A7EE050B92ED127BA6EE047BA7EE030B55
:10044000B7EEC00BF8BDB7EE000AF8BDB3F5FF6F0D
:1004500050D23A4AC4F3836002EB8003C4F316011E
:1004600052F820501E6A186941F40001C4F3C253C7
:100470009940A1FB066705FB01F33A46E0FB012327
:10048000111C43F100550020101A05F0404163EBA8
:10049000010101F08FFDAD0F294B9FED257B05EB91
:1004A000D47441EC160B14F0020FA3F1700208BFD4
:1004B0001346E90726EE077B27EE076B1ED504F0EF
:1004C000030402EBC40494ED005B93ED164B27EE9E
:1004D000057B27EE065B93ED1A3BA5EE047B26EE2B
:1004E000055B93ED184BA6EE034BA4EE057BB7EE30
:1004F000C70BF8BDBDE8F84000F062B893ED0E3BC5
:1005000026EE065B26EE052B93ED0C7B93ED104B50
:10051000A6EE037B93ED143BA5EE047B93ED125BFB
:10052000A6EE035BA5EE027BB7EEC70BF8BD00BFDE
:10053000182D4454FB21193C882101082821010869
:10054000F821010810B52DED028BB0EE408A04466B
:1005500000F066F9B0EE480ABDEC028B046010BDF5
:1005600028B1F1EE407A27EE800A2220EAE7F0EE89
:10057000407A27EE800A2220E4E700BF9FED010ABF
:10058000EEE700BF000000109FED010AE8E700BFA2
:100590000000201A9FED010AE2E700BF0000007092
:1005A0009FED060AFFEE007AB7EE007A00284FF0C2
:1005B000220047FE277A87EE800AC3E7000000008A
:1005C00070EE407AB4EE400A87EEA77AF1EE10FAA8
:1005D000B0EE470A01D62120B4E7704700000000C2
:1005E000F0B510EE104A220DC2F30A03B3F57D7F79
:1005F00083B0B7EEC06A1BD226EE065BB3F5667F0A
:1006000070D326EE052B25EE021B774B93ED1A3B9C
:1006100093ED187B93ED164BA5EE037BA2EE046BD6
:10062000B0EE460BA7EE010BB7EEC00B03B0F0BD6A
:1006300040F22E4293425FD86B4991ED087B26EE43
:10064000077BBDEEC77B91ED0A5B17EE103A03F511
:1006500000031B1613F0020F07EE903A01F170022F
:1006600008BF0A46D807B8EEE77BA7EE456BB0EEA9
:10067000460B26EE067B1BD403F0030301EBC303FA
:1006800093ED006B92ED165B20EE060B20EE076BF0
:1006900092ED1A4BA6EE050B27EE066B92ED185B5A
:1006A000A7EE045BA5EE060BB7EEC00B03B0F0BDE2
:1006B00092ED0E4B27EE076B27EE063B92ED0C0BEF
:1006C00092ED105BA7EE040B92ED144BA6EE050B1A
:1006D00092ED126BA7EE046BA6EE030BB7EEC00B08
:1006E00003B0F0BD12F4FF6FA0D1B7EEC55B00EE12
:1006F000104A8DED015A99E7B3F5FF6F50D23B4A8E
:10070000C4F3836002EB8003C4F3160152F8205057
:100710001E6A186941F40001C4F3C2539940A1FB59
:10072000066705FB01F33A46E0FB0123111C43F188
:1007300000550020101A05F0404163EB010101F063
:1007400039FCAD0F2A4B9FED267B05EBD47441ECB1
:10075000160B14F0020FA3F1700208BF1346E9074D
:1007600026EE077B27EE076B1FD404F0030402EB91
:10077000C40494ED005B93ED164B27EE057B27EE4A
:10078000065B93ED1A3BA5EE047B26EE055B93ED2D
:10079000184BA6EE034BA4EE057BB7EEC70B45E75F
:1007A00003B0BDE8F040FFF70BBF93ED0E3B26EE24
:1007B000065B26EE052B93ED0C7B93ED104BA6EE1E
:1007C000037B93ED143BA5EE047B93ED125BA6EE49
:1007D000035BA5EE027BB7EEC70B27E7AFF3008004
:1007E000182D4454FB21193C8821010828210108B7
:1007F000F821010808B5062000F076FB012001F081
:10080000A1FD00BF10B5054C34B113460A460146A0
:10081000022000F0C7FD10BD204610BDA513000842
:10082000014B1868704700BF0400002470B50D4EDE
:100830000D4D761BB61006D00024013455F8043B4C
:100840009847A642F9D1094E094D761B12F01EFCBD
:10085000B61006D00024013455F8043B9847A64250
:10086000F9D170BDAC300108AC300108C8300108C6
:10087000AC300108024B0146186800F039BA00BFDD
:1008800004000024024B0146186800F0DBB900BFE9
:100890000400002400000000000000000000000030
:1008A00001F0FF01102A2BDB10F0070F08D010F821
:1008B000013B013A8B422DD010F0070F42B3F6D125
:1008C000F0B441EA012141EA014122F007047FF03E
:1008D00000070023F0E80256083C85EA010586EA95
:1008E000010685FA47F5A3FA87F586FA47F6A5FAD1
:1008F00087F68EB9EED1F0BC01F0FF0102F00702DD
:1009000032B110F8013B013A83EA010313B1F8D187
:100910000020704701387047002D06BF3546033868
:10092000073815F0010F07D1013015F4807F02BFA1
:10093000013015F4C03F0130F0BC0138704700BFF2
:10094000032A70B412D940EA0105AD0704460B46EC
:1009500020D11946204653F8045B54F8046BAE428C
:1009600018D1043A032A20461946F2D8541E72B10F
:1009700003780A789A4208BF241806D00CE010F8D1
:10098000013F11F8012F934206D1A042F7D1002078
:1009900070BC7047541EEBE7981A70BC704700BFDC
:1009A000844641EA000313F003036DD1403A41D37A
:1009B00051F8043B40F8043B51F8043B40F8043B39
:1009C00051F8043B40F8043B51F8043B40F8043B29
:1009D00051F8043B40F8043B51F8043B40F8043B19
:1009E00051F8043B40F8043B51F8043B40F8043B09
:1009F00051F8043B40F8043B51F8043B40F8043BF9
:100A000051F8043B40F8043B51F8043B40F8043BE8
:100A100051F8043B40F8043B51F8043B40F8043BD8
:100A200051F8043B40F8043B51F8043B40F8043BC8
:100A3000403ABDD2303211D351F8043B40F8043B68
:100A400051F8043B40F8043B51F8043B40F8043BA8
:100A500051F8043B40F8043B103AEDD20C3205D378
:100A600051F8043B40F8043B043AF9D2043208D070
:100A7000D2071CBF11F8013B00F8013B01D30B88E2
:100A800003806046704700BF082A13D38B078DD0C0
:100A900010F003038AD0C3F10403D21ADB071CBF92
:100AA00011F8013B00F8013B80D331F8023B20F8FC
:100AB000023B7BE7043AD9D3013A11F8013B00F835
:100AC000013BF9D20B7803704B7843708B788370BD
:100AD000604670478842F0B40DD98B1883420AD91A
:100AE000841832B1224613F8014D02F8014D9942A3
:100AF000F9D1F0BC70470F2A0ED80346541E002AC5
:100B0000F7D001340C44013B11F8012B03F8012FFD
:100B1000A142F9D1F0BC704740EA01039B073BD1E9
:100B2000A2F110073F0901F1200606EB071601F1BB
:100B3000100300F1100453F8105C44F8105C53F8F3
:100B40000C5C44F80C5C53F8085C44F8085C53F8FF
:100B5000045C44F8045C1033B34204F11004EAD19D
:100B60007B1C1B0112F00C0F194402F00F0503440B
:100B700015D0043DAD0803EB850C1C1F0E4656F83E
:100B8000047B44F8047F6445F9D10135AD002B4462
:100B9000294402F00302B1E7541E0346B1E72A4696
:100BA000ACE700BFF0B4860746D0541E002A3CD004
:100BB000CAB2034602E014F1FF3436D303F8012B26
:100BC0009D07F8D1032C29D9CDB245EA05250F2C74
:100BD00045EA054533D9A4F11006360903F120078B
:100BE00007EB061703F1100242E9045542E90255EA
:100BF0001032BA42F8D1721C14F00C0F03EB02123F
:100C000004F00F0613D0331F23F0030304331344FF
:100C100042F8045B9342FBD106F003042CB1C9B245
:100C20001C4403F8011B9C42FBD1F0BC70473446C6
:100C30001346002CF3D1F8E714460346C2E71A46E0
:100C40002646E0E700293CD038B551F8043C0C1F9B
:100C5000002BB8BFE418054600F0F4FB234B1A68DC
:100C60002AB1A2420DD921686018824223D0626065
:100C700028461C60BDE8384000F0E6BBA34203D81C
:100C80001A465368002BF9D111685018A04219D0A8
:100C900024D821686018834206D0636054602846D7
:100CA000BDE8384000F0D0BBD3E9000301446360E5
:100CB00021605460F3E7D2E90002014462602160E0
:100CC000D6E7704720680144501883421160E6D18E
:100CD000D3E90003014453601160E0E70C232B606B
:100CE0002846BDE8384000F0AFBB00BF8C020024AE
:100CF000F8B5CD1C25F0030508350C2D38BF0C25A3
:100D0000002D064633DBA94231D82A4F00F09AFB6A
:100D10003A6852B113685B1B04D43FE023685B1B45
:100D200029D522465468002CF8D1796800293BD097
:100D30002946304600F040F8431C28D0C41C24F05B
:100D40000304A04205D0211A304600F035F80130E6
:100D50001DD02560304600F077FB04F10B0020F039
:100D60000700231DC21A01D01B1AA350F8BD0C2284
:100D700032600020F8BD0B2B05D8A242636811D069
:100D80005360E7E7144623601C442560E2E70C2328
:100D90003046336000F058FB0020F8BD0B2BF1D833
:100DA000536814463B60D5E7304600F005F878609C
:100DB000BEE700BF8C02002438B5074C002305466F
:100DC0000846236001F0B0FA431C00D038BD236808
:100DD000002BFBD02B6038BD4CC4002410B5802103
:100DE0000446FFF785FF606440B1031F00227C309A
:100DF00043F8042F8342FBD1002010BD4FF0FF3099
:100E000010BD00BF436C0BB100207047E6E700BF88
:100E10001F2970B5054608D8436C16460C464BB1E1
:100E200053F8240043F8246070BD162202604FF08E
:100E3000FF3070BDFFF7D2FF08B96B6CF0E74FF0E1
:100E4000FF3070BD1F2938B521D8426C05460C46CD
:100E50006AB152F8213053B1012B16D0591C10D071
:100E60000025204642F824509847284638BD284699
:100E700000F070F8224601462846BDE8384000F0F0
:100E800055B816230360012038BD002038BD162355
:100E900003604FF0FF3038BD1F2921D838B5436CAF
:100EA00005460C4683B153F8242003EB84034AB172
:100EB000511C10D0012A0CD0002520461D609047FF
:100EC000284638BD012038BDFFF788FF28B96B6C74
:100ED000E9E7032038BD022038BD4FF0FF3038BDB0
:100EE0004FF0FF30704700BF024B01461868FFF714
:100EF000A9BF00BF04000024024B0A46014618683F
:100F0000FFF786BF04000024034B1868436C0BB145
:100F10000020704762E700BF04000024024B014636
:100F20001868FFF7B9BF00BF0400002438B50B46AE
:100F3000074C0546114618460023236001F0ECF9E2
:100F4000431C00D038BD2368002BFBD02B6038BD7C
:100F50004CC4002401F0D8B90000000000000000DB
:100F6000A2EB0300704700BF02780B78012A28BF6C
:100F70009A42F5D16DE9044540EA0104CDE90267E2
:100F80006FF0000C4FEA447212B380EA010414F0CF
:100F9000070F6AD100F0070420F0070004F00305F2
:100FA00021F007014FEAC505F0E8042314F0040F0F
:100FB000F1E804670CFA05F462EA040266EA040642
:100FC0000AD063EA0403624667EA0407664603E060
:100FD000F0E80423F1E8046782FA4CF582EA06049B
:100FE000A4FA8CF46CBB83FA4CF583EA0705A5FAE6
:100FF0008CF595B950E9022351E9026782FA4CF564
:1010000082EA0604A4FA8CF483FA4CF583EA070515
:10101000A5FA8CF52543DBD09CB92DBAB5FA85F439
:1010200024F0070427FA04F1DDE9026723FA04F348
:1010300003F0FF0001F0FF01FDE80445A0EB010013
:10104000704724BAB4FA84F424F0070426FA04F1B1
:10105000DDE9026722FA04F202F0FF0001F0FF016D
:10106000FDE80445A0EB0100704714F0030F3CD1EC
:1010700010F0030428D150F8082B51F8083B82FAED
:101080004CF582EA0305A5FA8CF55DB950F8042CFD
:1010900051F8043C82FA4CF582EA0305A5FA8CF576
:1010A000002DE8D02DBAB5FA85F424F0070423FA10
:1010B00004F122FA04F202F0FF0001F0FF01FDE862
:1010C0000445A0EB010070474FEAC40420F0030080
:1010D00050F8082B21F0030151F8083B0CFA04F4F6
:1010E00062EA040263EA0403C9E710F003041AD0B9
:1010F000A1EB040120F00300E40750F8042B06D014
:101100000FD28B785FFAA2F4E41A06D12BB1CB7818
:101110005FFAB2F4E41A00D11BB920465DF8104B17
:10112000704701F1040150F8042BCC0721F00301B2
:1011300051F8043B48D824D222F07F4482FA4CF57F
:1011400094EA1325A5FA8CF50AD165B951F8043B48
:1011500084EA0204B4EB036F0ED150F8042BEBE7E2
:101160004FEA132355E035F07F454DD10878FDE86F
:101170000445C0F1000070474FEA126203F0FF031C
:1011800047E002EA1C4482FA4CF594EA1345A5FABA
:101190008CF50AD165B951F8043B84EA0204B4EB3A
:1011A000034F0CD150F8042BEBE74FEA134330E028
:1011B00015EA1C4528D10B884FEA124229E04FEA74
:1011C000124203EA1C4324E002F0FF0482FA4CF5C9
:1011D00094EA1365A5FA8CF50AD165B951F8043B78
:1011E00084EA0204B4EB032F09D150F8042BEBE797
:1011F0004FEA13630DE015F0FF0F05D10B684FEABE
:10120000122223F07F4304E04FF00000FDE8044584
:10121000704712BA1BBA82FA4CF482EA0304A4FAA9
:101220008CF5B5FA85F402FA04F203FA04F34FEAF6
:101230001260FDE80445A0EB136070470000000059
:1012400090F800F06DE9024520F007016FF0000C06
:1012500010F0070491F820F040F049804FF00004AE
:101260006FF00700D1E9002391F840F000F1080089
:1012700082FA4CF2A4FA8CF283FA4CF3A2FA8CF3C1
:101280004BBBD1E9022382FA4CF200F10800A4FA28
:101290008CF283FA4CF3A2FA8CF3E3B9D1E904237C
:1012A00082FA4CF200F10800A4FA8CF283FA4CF3B3
:1012B000A2FA8CF37BB9D1E9062301F1200182FA6D
:1012C0004CF200F10800A4FA8CF283FA4CF3A2FA73
:1012D0008CF3002BC6D0002A04BF04301A4612BA81
:1012E000B2FA82F2FDE8024500EBD2007047D1E984
:1012F000002304F00305C4F100004FEAC50514F013
:10130000040F91F840F00CFA05F562EA05021CBFE3
:1013100063EA050362464FF00004A9E770B5141EA6
:101320009AB005462BDB1A464FF4027300910491E4
:10133000ADF80C3013D0013C4FF6FF761E9B0294A3
:1013400069460594ADF80E6000F05CF9421C01DAC4
:101350008B232B60009B00221A701AB070BD1E9B5D
:1013600002944FF6FF7669460594ADF80E6000F0E2
:1013700049F9431C01DA8B232B601AB070BD8B2313
:1013800003604FF0FF30F8E710B5054C82B00093D2
:1013900013460A4601462068FFF7C0FF02B010BDA1
:1013A000040000242DE9F843224C25680DB36C6835
:1013B0001F2C3BDC984691460F46064688B1D5F86F
:1013C000880028B3D0F8003140F824900122A240D0
:1013D00000EB84011343022EC0F80031C1F8808075
:1013E00010D0A31C01346C6045F823700020BDE8C8
:1013F000F883114E114D2560002ED8D03468C5F801
:101400008840D4E7D0F804311A43C0F80421E8E753
:101410000B4B5BB14FF48470FFF72CFA30B1002313
:101420006C68C0E94033C5F88800CDE74FF0FF3065
:10143000DDE700BF28040024682201089C03002483
:1014400075080008704700BF704700BF2DE9F047DE
:101450008E681D46AE420C460B68174636D880464D
:10146000888910F4906F0ED1354618462A463946C1
:10147000FFF730FBA2682368961B2B44A66023600D
:101480000020BDE8F087D1E9041606EB4606A3EB81
:10149000010906EBD6766B1C76104B44B3423246FC
:1014A00084BF1E463246430512D511464046FFF71B
:1014B0001FFC824600B34A462169FFF771FAA389EF
:1014C00023F4906343F08003A38106E02E46CCE72B
:1014D000404600F0B3FB824650B1A6EB09020AEB8E
:1014E00009036661C4F810A02360A2602E46BCE721
:1014F00021694046FFF7A6FB0C23C8F80030A389FA
:1015000043F04003A3814FF0FF30BAE72DE9F04FDD
:10151000936883B09046002B6DD017688D68824623
:101520000C460868083743E0A38913F4906F2ED067
:10153000D4E9041505EB4505A0EB010B05EBD575CA
:101540000BEB06006D100130A8422A4684BF054609
:101550002A465B0536D511465046FFF7C9FB0028E1
:101560003AD05A4621690190FFF71AFAA289019BE5
:1015700022F4906242F08002A281A5EB0B0203EB01
:101580000B00656123612060A2603546B3465A4670
:101590004946FFF79FFAD8F80830A2682068551B23
:1015A00058449E1BA5602060C8F808601EB3083729
:1015B00057E90296AB46002EF9D0AE42B4D235467A
:1015C000B346E4E7504600F039FB03460028D4D187
:1015D00021695046FFF736FB0C23CAF80030A38977
:1015E000002243F040034FF0FF30A381C8E90122FD
:1015F00003B0BDE8F08F0020C8F8040003B0BDE8D8
:10160000F08F00BF2DE9F04F90468A899FB01406F5
:101610008B46029003D50A69002A00F00B810593DE
:1016200030238DF8323098F800308E4E0021202281
:101630000B918DF831200127002B00F08480252BA1
:1016400000F0F680454603E0252B00F08680254615
:101650006B786C1C002BF7D1B4EB080A73D04246B0
:10166000534659460298FFF7F1FE01306BD00B9BB1
:101670006A7853440B93002A65D000234FF0FF3261
:1016800001340693CDE908338DF85B301C93079243
:1016900005E0069A07FA03F313432C460693254602
:1016A000052215F8011B3046FFF7FAF8AA46831BFE
:1016B0000028EED1069BD90644BF20228DF85B207E
:1016C00021781A0744BF2B228DF85B202A2948D1A4
:1016D000059A11680432002905927EDB0991617830
:1016E000A51C2E2956D0604C03222046FFF7D8F8BF
:1016F000002868D0001B069B402404FA00F0034336
:10170000069305F10108297858488DF83010062213
:10171000FFF7C6F8002866D0554B002B56D005AB16
:1017200000935A46534B029806A9AFF300808146B6
:10173000B9F1FF3F07D00B9B4B440B9398F8003057
:10174000002B7FF47CAFBBF80C305B0654BF0B98CA
:101750004FF0FF301FB0BDE8F08FB4EB080A8CD01B
:101760007DE7A1F13002092A88BFA246B9D8099BBA
:1017700001E02C460135297803EB830302EB430398
:10178000A1F13002092AAA46F3D92E2904F1020553
:101790000993A8D19AF801102A292ED1059B9AF80D
:1017A00002101A6807920433002A05930AF1030510
:1017B0000AF1020337DB2C4C032220469A46FFF73E
:1017C0006FF8002896D1A84655469CE7059B07333D
:1017D00023F0070308330593ADE7494243F00203C2
:1017E000099106937BE705AB00935A46214B02987B
:1017F00006A900F0D7F881469AE7A1F1300200234C
:10180000092A079301D923E05546697803EB83033E
:1018100002EB4303A1F13002092A05F1010AF3D9D1
:10182000023507935FE74FF0FF329A4607925AE777
:10183000444622E740210393FFF75AFA039BCBF873
:101840000000CBF8100030B14022CBF81420E6E6BF
:10185000AA46013547E7029A0C2313604FF0FF3088
:1018600078E700BF50300108583001085C300108AB
:10187000000000004D1400082DE9F0470C46914689
:101880000A698968DDF820808A42B8BF0A46C9F82B
:10189000002094F8431006461F4611B10132C9F8E2
:1018A0000020236899065CD5D9F800200232C9F8D7
:1018B0000020236813F0060F19461DD1E1688A1A2B
:1018C000002AD8BF194617DD04F1190A002505E0E2
:1018D000E368D9F800209B1AAB420CDD0123524685
:1018E00039463046C047013005F10105F0D14FF0CF
:1018F000FF30BDE8F087216894F84330003318BF0B
:1019000001238A060AD5E1185A1C302081F84300C9
:10191000224494F8451082F84310023304F1430244
:1019200039463046C0470130E1D02368A2682169BA
:1019300003F00603042B1DD08A4226DD4FF0000978
:10194000521A91441A34002501E04D451DDA012355
:10195000224639463046C047013005F10105F4D131
:10196000C5E713F0060F13D094F84330003318BFC7
:101970000123D3E7D9F80000E3688A42A3EB000310
:1019800023EAE379DCDC002BDCDC0020BDE8F08717
:10199000E168D9F800208A1A002AD8BF194693DCDA
:1019A000AAE700BF2DE9F0430C46097E85B06E29F9
:1019B000064617460C98984604F1430E6DD039D967
:1019C000732900F0F68044D9752900F00481782944
:1019D00040F0118178232268DFF858C284F845303E
:1019E0000168150651F8043B016040F1A180D10760
:1019F00044BF42F020022260002B00F093801022AE
:101A0000002184F843106068A0600028C0F2C880FC
:101A1000216821F004012160002B40F0A380002800
:101A200040F0C0807546082A00F0AC80AEEB05039C
:101A3000236141E0632900F0E5801AD8002938D0FD
:101A4000582940F0D88084F845102268DFF8E8C1B2
:101A5000C6E76F2900F0BF80702940F0CC80226873
:101A6000DFF8D0C142F020027823226084F84530AC
:101A7000B6E7642902D0692940F0BD802268036876
:101A8000110603F1040557D5196805600B460029B6
:101A900059DBDFF8A4C10A22B5E70368226861694F
:101AA0001D1D056015061B6802D4500600F1BD809F
:101AB0001960002375462361CDF800803B4603AAD8
:101AC00021463046FFF7D8FE013020D02A46236950
:101AD00039463046C047013019D022680398E36880
:101AE000920719D51A1A002A16DD04F119090025E2
:101AF00004E0E36803981A1AAA420DDD01234A465E
:101B000039463046C047013005F10105F1D14FF0AB
:101B1000FF3005B0BDE8F0839842B8BF184605B065
:101B2000BDE8F083226822F020022260102267E7DD
:101B3000500648BF9BB25AE75106A5D5B3F900300D
:101B400005601946A3E76168A1602D200029C3F153
:101B5000000384F8430002DB22F004022260DFF875
:101B6000D8C00A22754600E00B46B3FBF2F102FB37
:101B7000113093421CF8000005F8010DF4D2082A38
:101B80007FF454AF2368DB077FF550AF62682369A9
:101B90009A423FF74BAF302305F8013C013D45E742
:101BA000002BDFD19CF8003084F8423004F142056C
:101BB00039E703686268191D01601D680021284625
:101BC000FEF76EFE002832D0401B606020610023CB
:101BD00084F8433070E72268036812F0800F03F145
:101BE00004051AD01B6805606F290CBF08220A2261
:101BF000DFF844C004E7012384F84210236104F1B4
:101C00004205E4E703681A68191D0123016004F125
:101C1000420584F842202361D9E712F0400F0DBF3E
:101C20001B6805601B880560DEE7198041E7606876
:101C3000CCE700BF783001086430010809B3F8B57B
:101C40001446CAB106460D4600F01EF8A04202D363
:101C50002F463846F8BD21463046FFF749F807467B
:101C60000028F6D022462946FEF79AFE304629463D
:101C7000FEF7E8FF3846F8BD2746FEF7E3FF384693
:101C8000F8BD1146FFF734B851F8043C181F002B7B
:101C9000BCBF0B58C018704781F0004102E000BF84
:101CA00083F0004330B54FEA41044FEA430594EA1C
:101CB000050F08BF90EA020F1FBF54EA000C55EA57
:101CC000020C7FEA645C7FEA655C00F0E2804FEA28
:101CD0005454D4EB5555B8BF6D420CDD2C4480EA0A
:101CE000020281EA030382EA000083EA010180EA3A
:101CF000020281EA0303362D88BF30BD11F0004F88
:101D00004FEA01314FF4801C4CEA113102D04042BD
:101D100061EB410113F0004F4FEA03334CEA1333F8
:101D200002D0524263EB430394EA050F00F0A78010
:101D3000A4F10104D5F1200E0DDB02FA0EFC22FA0B
:101D400005F2801841F1000103FA0EF2801843FAFF
:101D500005F359410EE0A5F120050EF1200E012AF0
:101D600003FA0EFC28BF4CF0020C43FA05F3C0182E
:101D700051EBE37101F0004507D54FF0000EDCF1A7
:101D8000000C7EEB00006EEB0101B1F5801F1BD350
:101D9000B1F5001F0CD349085FEA30004FEA3C0C54
:101DA00004F101044FEA445212F5800F80F09A804A
:101DB000BCF1004F08BF5FEA500C50F1000041EB4E
:101DC000045141EA050130BD5FEA4C0C404141EB52
:101DD0000101013C28BFB1F5801FE9D291F0000F4D
:101DE00004BF01460020B1FA81F308BF2033A3F1FC
:101DF0000B03B3F120020CDA0C3208DD02F1140CF3
:101E0000C2F10C0201FA0CF021FA02F10CE002F12D
:101E10001402D8BFC2F1200C01FA02F120FA0CFC26
:101E2000DCBF41EA0C019040E41AA2BF01EB04516F
:101E3000294330BD6FEA04041F3C1CDA0C340EDC6D
:101E400004F11404C4F1200220FA04F001FA02F3B0
:101E500040EA030021FA04F345EA030130BDC4F16E
:101E60000C04C4F1200220FA02F001FA04F340EA63
:101E70000300294630BD21FA04F0294630BD94F014
:101E8000000F83F4801306BF81F480110134013DFB
:101E90004EE77FEA645C18BF7FEA655C29D094EA6C
:101EA000050F08BF90EA020F05D054EA000C04BFEA
:101EB0001946104630BD91EA030F1EBF00210020D5
:101EC00030BD5FEA545C05D14000494128BF41F074
:101ED000004130BD14F580043CBF01F5801130BDD8
:101EE00001F0004545F0FE4141F470014FF0000063
:101EF00030BD7FEA645C1ABF194610467FEA655C14
:101F00001CBF0B46024650EA013406BF52EA0335B5
:101F100091EA030F41F4002130BD00BF90F0000FA3
:101F200004BF0021704730B54FF4806404F13204DF
:101F30004FF000054FF0000150E700BF90F0000F98
:101F400004BF0021704730B54FF4806404F13204BF
:101F500010F0004548BF40424FF000013EE700BF8F
:101F600042004FEAE2014FEA31014FEA02701FBF1F
:101F700012F07F4393F07F4F81F06051704732F051
:101F80007F4208BF704793F07F4F04BF41F40021A8
:101F9000704730B54FF4607401F0004521F0004106
:101FA0001CE700BF50EA010208BF704730B54FF090
:101FB00000050AE050EA010208BF704730B511F091
:101FC000004502D5404261EB41014FF4806404F1C9
:101FD00032045FEA915C3FF4D8AE4FF003025FEA4F
:101FE000DC0C18BF03325FEADC0C18BF033202EBD3
:101FF000DC02C2F1200300FA03FC20FA02F001FA2D
:1020000003FE40EA0E0021FA02F11444BDE600BFCF
:1020100053B94AB9002908BF00281CBF4FF0FF314F
:102020004FF0FF3000F06EB9ADF1080C6DE904CE51
:1020300000F006F8DDF804E0DDE9022304B07047A3
:102040002DE9F047089D04468C46002B40F0838024
:102050008A42174647D9B2FA82F242B1C2F1200051
:1020600024FA00F09140974040EA010C94404FEA76
:102070001748230CBCFBF8F61FFA87FE08FB16C1B5
:1020800043EA014306FB0EF1994209D9FB1806F118
:10209000FF3080F01981994240F21681023E3B44A4
:1020A0005B1AA4B2B3FBF8F008FB103344EA034414
:1020B00000FB0EFEA64509D93C1900F1FF3380F064
:1020C0000581A64540F2028102383C4440EA0640C0
:1020D000A4EB0E0400261DB1D4400023C5E9004343
:1020E0003146BDE8F08702B9FFDEB2FA82F2002A7B
:1020F00050D1CB1B4FEA174E1FFA87F80126B3FBCE
:10210000FEFC210C0EFB1C3341EA034108FB0CF3DF
:102110008B4207D979180CF1FF3002D28B4200F2C2
:10212000E9808446C91AA3B2B1FBFEF00EFB101180
:1021300043EA014408FB00F8A04507D93C1900F127
:10214000FF3302D2A04500F2D9801846A4EB080460
:1021500040EA0C40BFE78B4209D9002D00F0B18066
:102160000026C5E9000130463146BDE8F087B3FAE4
:1021700083F6002E4AD18B4202D3824200F2B8800D
:10218000841A61EB030101208C46002DA8D0C5E91B
:10219000004CA5E7C2F1200320FA03F6974001FAAC
:1021A00002F04FEA174ED9403043030CB1FBFEF664
:1021B0001FFA87F80EFB161143EA014306FB08F1EC
:1021C000994204FA02F409D9FB1806F1FF3C80F0A9
:1021D0008D80994240F28A80023E3B445B1A81B274
:1021E000B3FBFEF00EFB103341EA034100FB08F3A2
:1021F0008B4207D9791800F1FF3C73D28B4271D919
:1022000002383944CB1A40EA064678E7C6F1200C7A
:1022100003FA06F422FA0CF31C4320FA0CF701FA35
:1022200006F34FEA144E21FA0CF11F433B0CB1FBAD
:10223000FEF91FFA84F80EFB191143EA014109FB6C
:1022400008FA8A4502FA06F200FA06F308D961187C
:1022500009F1FF3048D28A4546D9A9F10209214443
:10226000A1EB0A01BFB2B1FBFEF00EFB101147EA71
:10227000014700FB08F8B84507D9E71900F1FF311D
:102280002ED2B8452CD90238274440EA0940A7EBA2
:102290000807A0FB02894F45C64649461AD317D006
:1022A0005DB1B3EB0E0267EB010707FA0CFCF240DD
:1022B0004CEA0202F740C5E9002700263146BDE896
:1022C000F0872E4628460BE70646E9E61846FDE667
:1022D0004345E5D2B8EB020E69EB04010138DFE7B4
:1022E0000846D2E760468DE78146B9E7664675E75E
:1022F00030464AE7ACF1020C394413E702383C445B
:1023000024E700BF704700BF024B58221A604FF00D
:10231000FF3070474CC40024024B58221A604FF023
:10232000FF3070474CC40024044A05491368002B51
:1023300008BF0B4618441060184670472C04002450
:1023400050C40024FEE700BFFEE700BF0D4B0E4A5D
:10235000934206D00D4951F8040B43F8040B934205
:10236000F9D10B4B0B4A934204D0002143F8041BD4
:102370009342FBD107F0DCFCFEF758FA02F0B4FE02
:10238000FEE700BF0000002470020024CC300108EA
:102390007002002450C40024704700BF704700BF83
:1023A000494200F1130300F21342C9B203F8011FBE
:1023B0009342FBD1704700BF402070478020704798
:1023C000F8B5D0E900560746B5420DD005F108042E
:1023D00054F8080C1835A04204F1180401D00FF08D
:1023E000E1FAAE42F4D13E6816B130460FF0DAFAA7
:1023F0003846F8BD10B5044640F214410FF0D4FA47
:10240000204610BDF0B5044600F1080783B0084629
:1024100027600E46FEF714FF0F28054601900ED8E0
:10242000012809D133782372019B002122682046BC
:102430006360D15403B0F0BD0028F5D008E000225D
:1024400001A920460FF01CFC019B07462060A360F9
:102450002A4631463846FEF7A3FAE5E72DE9F04172
:10246000561A002E16DB0446B0100D46174610B162
:1024700030460FF09BFA00EB0608AF422060C4F82C
:10248000088003D032462946FEF78AFAC4F8048051
:10249000BDE8F08101480FF0EBFB00BF6C220108A2
:1024A0002DE9F041804600F51074D4E90D57BD4286
:1024B00028460DD005F1080656F8080C1835B0422C
:1024C00006F1180601D00FF06DFAAF42F4D1606B3F
:1024D00008B10FF067FAE06904F12403984201D0D3
:1024E0000FF060FA606804F10C03984201D00FF01D
:1024F00059FA4445A4F1400301D01C46D5E72046D3
:10250000BDE8F0812DE9F041B02582B000F1080767
:1025100000F1100600F11404002130468DF8075038
:102520000135884605F060FB642301220DF10701A7
:10253000384606F0BBFA414630468DF8078005F074
:1025400053FB012264230DF107013846EDB206F07A
:10255000ADFA1023414630468DF8073005F044FBB4
:10256000642301220DF10701384606F09FFA01218C
:10257000304605F039FB8022214664233846144456
:1025800006F094FAB82DC7D102B0BDE8F08100BFC3
:102590002DE9F04F85B0A1F12004009104A99DF828
:1025A000388001E90C00E3B25E2B00F294800368EE
:1025B00081465C4ADB689DF8086093429DF80950AB
:1025C00040F093808020B9F804303344834200F314
:1025D0008280D9F80030544A9B68934240F087804B
:1025E0004020B9F806104B190191834273DC002D8D
:1025F00000F0888005FB04F4039A6FF00043B9F8FB
:1026000004A02544A2F1020B23440BEB450B0D461D
:1026100002EB430E3EF8024FA6B305F00703012775
:10262000E80841469F4000220AEBC0137FB24B44AA
:1026300009EBC0106FEA070CB8460F460CE07F2983
:1026400006D83F2D04D8197DA7B148EA01011975B4
:1026500001320133964214D004FA02F111F4004F12
:10266000A3EB0001EBD17F29F2D83F2DF0D8197DE3
:10267000002FEAD001320CEA010101339642D974ED
:10268000EAD1B846F34505F10105C3D1D9F80030C8
:102690000AEB06042349DA68A4B28A422DD18020CD
:1026A00084421CD29B68204AA9F80440934221D15D
:1026B0004020019B834207D3D9F800301A4A9B6817
:1026C000934229D13F230193DDE90003A9F80630A5
:1026D00005B0BDE8F08F002005B0BDE8F08FDA68E6
:1026E00010498A4211D17F24DCE798476BE74846BE
:1026F000984776E748469847DBE748469047D9F839
:102700000030CDE7B9F804A0C0E74846904701384B
:10271000D9F8003084B2C5E748469847013883B2FB
:102720000193D1E7BD230008B92300082DE9F04F3C
:1027300089B08B4691F800909DF8484008A9049410
:1027400001E90C00B9F1000F00F0B7809DF81930D5
:1027500080469DF818A04D460193079B0593A5F16F
:102760002004E3B25E2B00F2AC80D8F80030654A5A
:10277000DB68934240F0A7808020B8F804305344CF
:10278000834200F39E80D8F800305F4A9B689342F2
:1027900040F09C804020B8F80610019A00918B18F8
:1027A000834200F38E801046002A00F09A80134680
:1027B0006FF00046B8F8047003FB04F3059CBE46B6
:1027C000CDF80CB01E44A21E0344574604EB460647
:1027D000DDF8109002EB430302959B4636F802AFFA
:1027E000A7B3012401F00702C8080EF1140304FA8C
:1027F00002F2744603EBC013002052B243446FEA66
:10280000020C0EE07F2C07D83F2905D81D78B9F1BE
:10281000000F12D015431D70013001330134B8424E
:1028200014D00AFA00F52D04ECD47F2CF4D83F29FB
:10283000F2D81D78B9F1000FECD001300CEA050593
:1028400001330134B84203F8015CEAD15E4501F17D
:102850000101C3D1BA46029D7746DDF80CB0D8F825
:10286000002057442749D368BFB28B4234D180201F
:10287000874204D3D36823498B423BD17F27936897
:10288000214AA8F80470934223D14020009B834240
:1028900007D3D8F800301C4A9B68934224D13F23C9
:1028A0000093009BA8F806309BF80000A84205D1D1
:1028B0001BF8015F002D7FF452AF002009B0BDE886
:1028C000F08F0025F0E74046984756E74046984786
:1028D00061E740469847D9E740469847D8F8002036
:1028E000C6E7B8F80470BAE740469847013883B2A3
:1028F0000093D6E7404698470138D8F8002087B2C1
:10290000BDE700BFBD230008B92300087F2921D8F7
:102910003F2A1FD810B473B9D308012402F007026C
:1029200001EBC3139440C1180A7D22EA04020A7520
:102930005DF8044B7047D408012302F0070201EB55
:10294000C41403FA02F201190B7D1A430A755DF8EB
:10295000044B7047704700BF2DE9F04F0C468BB019
:102960001146904609901D469DF8580011F8012B1C
:102970000890DDE9146332B1002211F8010B013235
:102980000028FAD192B22978687811FB02F201B2DC
:1029900012B222EAE272082B00F2AD81DFE813F0F6
:1029A000000112011E013201400150016B0178014A
:1029B00009003788B088B6F906300744002BA7EB2A
:1029C0000207BFB2C0F2FC80B6F802C009980CEB57
:1029D0006306034607808280D980A6EB51018EB240
:1029E0005E80B64A236811460192DA688A4240F056
:1029F0008F818020B84205D8DA6801998A4240F078
:102A00009A817F279B68AE4AA7809342039240F049
:102A10008A814020B04206D82368039A9B6893427B
:102A200040F084813F266B78E680049398F800603C
:102A30006B6895F800B00793002E00F0AD80A6F10A
:102A40002005EBB25E2B00F234812368019ADB682B
:102A5000934240F030818020A3885B449842C0F2CA
:102A600028812368039A9B68934240F02B81402081
:102A7000E188049A02918B189842C0F21A8110469C
:102A8000002A00F0298113466FF00047B4F804C013
:102A900003FB05F3079DCDF81880AA1E1F440344CD
:102AA000DDF8209005EB4707059602EB430322462D
:102AB0005C469846934637F802AFA4B3012501F06F
:102AC0000702C8080CF1140305FA02F2654603EB8D
:102AD000C013002052B25B446FEA020E0EE07F2D5D
:102AE00007D83F2905D81E78B9F1000F12D0164338
:102AF0001E70013001330135844214D00AFA00F609
:102B00003604ECD47F2DF4D83F29F2D81E78B9F1E1
:102B1000000FECD001300EEA060601330135844285
:102B200003F8016CEAD1B84501F10101C3D15B465C
:102B3000059EA346DDF818801C462268DC440199F6
:102B4000D3681FFA8CF58B4240F0C280802085420A
:102B500005D3D36801998B4240F0C7807F259368E5
:102B6000039AA580934240F0B0804020029B8342AC
:102B700007D32368039A9B68934240F0B0803F23B9
:102B80000293029BE38098F80030B34204D118F816
:102B9000016F002E7FF453AF09980BB0BDE8F08FA2
:102BA000B6F9040037880028B6F90630B8BF0130FE
:102BB000002B07EB6007A7EB6207BFB2BFF604AFBD
:102BC000013301E7B6F90070099BB6F902601F8076
:102BD000BFB25E80B6B29A80D98002E7B6F90430FF
:102BE0003788002BB6F90260B8BF013307EB6307E3
:102BF000099B9A80A7EB62025E80B6B297B2D98039
:102C00001F80EEE6B3883788B6F902601F44099B3F
:102C10009A80BA1A5E80B6B297B2D9801F80E0E679
:102C20007388B6F806C0B6F900709C44099BACEBFB
:102C300000001F809A80BFB286B2D9805E80D0E645
:102C4000B6F904C03788BCF1000F7388B6F806E007
:102C5000B8BF0CF1010C099E07EB6C07B2800EEBBC
:102C60000306A7EB6202301A099B97B286B2D9809D
:102C70001F805E80B5E6B6F804C037887388B6F862
:102C800006E06744099EB2800EEB0306BA1AEAE733
:102C9000B6F90630B6F90000002BB6F802C0099E5E
:102CA00087B2B8BF013330800CEB6306099B18462E
:102CB00091E6002667E720469847CDE6BD23000849
:102CC000B923000820469847D2E6204698474DE7AA
:102CD0002046984722683AE7B4F804C02DE720461A
:102CE0009847013883B202934BE720469847013852
:102CF000226885B233E723680026124FDA68099903
:102D0000BA4201970E804E808E80CE8004D0374626
:102D10002046904723686DE69B680B4AA680934245
:102D200003923FF480AE2046984773E620469847CA
:102D3000013886B277E6204690470138236887B28B
:102D400060E600BFBD230008B92300082DE9F04F5D
:102D500083B05E1A0C9F9DF83480A7EB020EBEF183
:102D6000000FB8BFCEF1000E8B428CBF4FF00109AF
:102D70004FF0FF39002EB8BF76429742A6EB0E0403
:102D80004FD84FF0FF357F2B019514D83F2F12D825
:102D9000FD0807F0070C4FF0010A03EBC515B8F169
:102DA000000F45D005440AFA0CFC95F814A04CEA33
:102DB0000A0C85F814C0974201D18B4229D0CEF17C
:102DC000000C7F2914D83F2A12D8D5084FF0010BE8
:102DD00002F0070A01EBC5150BFA0AFA054495F84B
:102DE00014B0B8F1000F17D04AEA0B0A85F814A006
:102DF000BCEB440F4FEA440502DAA4EB0E0449444D
:102E0000AE4202DD019D34442A449942D9D1974211
:102E1000D7D103B0BDE8F08F2BEA0A0A85F814A0D9
:102E2000E6E701257F2B0195C9D83F2FB0D9C6E72A
:102E300005440AFA0CFA974295F814C02CEA0A0CD9
:102E400085F814C0B9D0BAE72DE9F04F2DED068B07
:102E500085B01C460F4690469DF85830039002936B
:102E6000159B002BC0F2F281149A134406EE103A1F
:102E7000DDED147AB8EEC66B9FEDD54BB8EEE77B6F
:102E80009FEDD55B27EE047B26EE046B87EE050BEA
:102E900086EE05ABF7EEC08BB0EE680AFDF754FA8C
:102EA000B7EECAAB07EE904AB0EE408AB0EE680AC1
:102EB000F8EE679AFDF794FBF0EE408AB0EE4A0A0E
:102EC000FDF742FAB0EE409AB0EE4A0AFDF788FBF1
:102ED00068EEE98A20EE690A29EE888A29EE899A45
:102EE00070EE687AF0EE006A39EE487A67EEA77AFB
:102EF000E7EE077AF4EEE67AF1EE10FA06D5159BC6
:102F0000B42B40F3EE804FF0010E01E04FF0000EC5
:102F10000126C4F101033A466042B3400024314621
:102F2000374694460196BEF1000F6AD1424206EE42
:102F3000904A614207EE102AF8EEE66A07EE901A10
:102F4000159AB8EEC77A66EE884AB42A26EE896AE0
:102F500006EE900A27EE284AF8EEE77AF8EEE66ADF
:102F600074EEC43A67EE885A26EEA85A67EE897A5C
:102F700027EE007A66EE806AF5EEC03A40F3DC8018
:102F8000F1EE10FA00F14D8176EE473A74EEC54A43
:102F9000F5EEC03AF1EE10FAF5EEC04ACCBF0122D0
:102FA0000022F1EE10FA019200F1458136EE666AD8
:102FB00035EEC55AB5EEC06AF1EE10FAB5EEC05A5C
:102FC000CCBF01210021F1EE10FA00F13D8177EE36
:102FD000E66AF5EEC06AF1EE10FACCBF01260026D3
:102FE00075EEC45AF5EEC05AF1EE10FA00F11781F1
:102FF00077EEC77AF5EEC07AF1EE10FACCBF012772
:103000000027019AF2B1ACEB000904EB0805B9F115
:103010007F0F17D83F2D15D84FEAD50A4FF0010B77
:1030200005F00705029A09EBCA190BFA05F5002A03
:1030300000F0C280039A914499F814B045EA0B0558
:1030400089F81450F1B100EB0C0904EB0805B9F153
:103050007F0F17D83F2D15D84FEAD50A4FF0010B37
:1030600005F00705029A09EBCA190BFA05F5002AC3
:1030700000F08E80039A914499F814B045EA0B054C
:1030800089F81450EEB100EB0C09A8EB0405B9F176
:103090007F0F16D83F2D14D84FEAD50A4FF0010BF9
:1030A00005F00705029A09EBCA190BFA05F5002A83
:1030B00065D0039A914499F814B045EA0B0589F854
:1030C0001450D7B99C4216DB013403EB4405C442CB
:1030D00005F101054FD0984208DB2B4600287FF709
:1030E00022AF05B0BDEC068BBDE8F08F013005EBDB
:1030F00040030133F2E71D46EDE7ACEB0009A8EB16
:103100000405B9F17F0FDDD83F2DDBD84FEAD50A92
:103110004FF0010B05F00705029A09EBCA190BFAEB
:1031200005F5002A3FD0039A914499F814B045EA76
:103130000B0589F81450C5E7F1EE10FA64D4CDF808
:1031400004E074EEC54AF5EEC04AF1EE10FA51D42F
:10315000002135EEC55AB5EEC05AF1EE10FA3FD453
:10316000002675EEC45AF5EEC05AF1EE10FA3FF59E
:103170003FAF002745E79842B8DB0023ABE7039A4F
:10318000914499F814B02BEA050589F8145098E792
:10319000039A914499F814B02BEA050589F8145064
:1031A000002E8ED06FE7039A914499F814B02BEA61
:1031B000050589F8145085E7039A914499F814B0ED
:1031C0002BEA050589F8145000293FF45BAF3AE774
:1031D0007A008BFCFA210940000000000080664064
:1031E00077EEE66AF5EEC06AF1EE10FACCBF012682
:1031F0000026B6E736EE666AB5EEC06AF1EE10FA62
:10320000CCBF01210021A4E776EE473AF5EEC03AA3
:10321000F1EE10FACCBF01220022019291E70127C2
:10322000EFE674EEC54A01220192F5EEC04AF1EED6
:1032300010FA7FF5BBAE35EEC55A0121B5EEC05A86
:10324000F1EE10FA7FF5C3AE0126C9E6DDE91423DD
:10325000134406EE102A1493159B5B42159307E660
:103260002DE9F04F87B09DF84860109C9DF84450C0
:1032700001969EB399422ED89A46A24228D87F2919
:10328000164694BF0023012308E09CF814904EEAF0
:10329000090E8CF814E00136B44219D33F2EFAD847
:1032A000002BF8D14FEAD60C06F0070E4FF00109BB
:1032B00001EBCC1C09FA0EFE8444002DE5D19CF8EC
:1032C00014B001362BEA0E08B4428CF81480E5D213
:1032D00001318A45D1D207B0BDE8F08FA3EB0108D8
:1032E000B8F1000FB8BFC8F10008994280F05481CE
:1032F0003F2A4FF0010994BF002601267F2B02963A
:1033000094BF002701270097DEB9D7B9002D00F040
:10331000588100264FEAD20E4FF0010C02F0070749
:1033200003EBCE1E029600260CFA07F700960EEB72
:10333000000696F814C047EA0C073775994200F06A
:103340009781C44616460F467F2F15D83F2E13D8B7
:103350004FEAD60E4FF0010B06F0070A07EBCE1E20
:103360000BFA0AFA86449EF814B0002D00F045814D
:103370004AEA0B0A8EF814A05FEA4C0E18BF4F44BD
:10338000F04501DDC444013EBB42DDD1B242DBD198
:1033900000260496A4EB0209B9F1000FB8BFC9F1E9
:1033A00000093F2C94BF00260126A242C9F1000863
:1033B0000396C0F03181002E40F05381009E002E14
:1033C00040F04F814FF0FF360096002D00F02C8129
:1033D00000264FEAD40E4FF0010C04F007070396C5
:1033E00003EBCE160CFA07F7064496F814C047EA2A
:1033F0000C073775A24200F03E81C44616461F46B0
:1034000005927F2F15D83F2E13D84FEAD60E4FF0D6
:10341000010B06F0070A07EBCE1E0BFA0AFA8644E8
:103420009EF814B0002D00F0ED804AEA0B0A8EF8E9
:1034300014A0B8EB4C0F4FEA4C0E02DAACEB090CBF
:10344000013FBEF1000F01D0009A1644BB42D8D113
:10345000B442D6D1059A7F29A1EB030E94BF4FF059
:1034600000094FF0010999428CBF4FF001084FF05D
:10347000FF38BEF1000FB8BFCEF1000EB9F1000F5A
:1034800013D1039E8EB9E6084FF0010C04F0070734
:1034900001EBC6160CFA07F7064496F814C0002D87
:1034A00000F0DB8047EA0C073775049E2EBB774699
:1034B00026467F2B15D83F2E13D84FEAD60C4FF057
:1034C000010B06F0070A03EBCC1C0BFA0AFA844442
:1034D0009CF814B0002D00F09A804AEA0B0A8CF890
:1034E00014A05FEA470C18BF4344E64501DD77446A
:1034F000013E9942DDD1B442DBD1A2EB040EA242DF
:103500008CBF4FF001084FF0FF38BEF1000FB8BF7D
:10351000CEF1000ECEF1000CB9F1000F0FD1029BDD
:103520006BB9D30802F00707012601EBC313002D86
:1035300000F08B800344BE401F7D3E431E75019BFF
:10354000002B7FF4C8AE66460B467F2B13D83F2C6A
:1035500011D8E70804F0070A4FF0010903EBC71779
:10356000002D40D0074409FA0AF997F814A049EA57
:103570000A0987F81490BCEB460F4FEA460702DAB7
:10358000A6EB0E06013B07B144449942DDD1A242AD
:10359000DBD107B0BDE8F08F7F2B4FF0FF3994BF30
:1035A000002601263F2A009694BF00270127029794
:1035B000002E7FF4C3AE002F7FF4C0AE002D7FF449
:1035C000A8AED6084FF0010C02F00707029503EBF6
:1035D000C61600950CFA07F7064496F814C02CEAB4
:1035E00007073775AAE6074409FA0AFA97F814900C
:1035F00029EA0A0987F81490BDE72BEA0A0A8EF82F
:1036000014A0B9E62BEA0A0A8EF814A011E72BEAF7
:103610000A0A8CF814A064E73EBB009E2EBB01266C
:103620000096002D7FF4D4AEE6084FF0010C04F0B4
:103630000707039503EBC6160CFA07F7064496F83E
:1036400014C02CEA07073775D4E6034406FA07F7D7
:103650001E7D26EA07061E7571E72CEA07073775F7
:1036600023E74FF0FF360096C4E601260096C4E635
:10367000012604968EE601260196ECE610B5044676
:10368000806908B10EF08EF9234653F8080B984272
:1036900001D00EF087F9204610BD00BFF8B5D0E983
:1036A0000D560446B5420DD005F1080757F8080C31
:1036B0001835B84207F1180701D00EF073F9AE4281
:1036C000F4D1666B16B130460EF06CF9E06904F186
:1036D0002403984201D00EF065F9606804F10C03F0
:1036E000984201D00EF05EF92046F8BD2DE9F04178
:1036F0000A6801F10C030C464968054602609942CC
:1037000040684ED005F10C029042A268C5E9011252
:1037100042D0E168EA68E96000283FD06060E2607A
:10372000002304F12402A3600370E169E869914277
:1037300044D005F124039842236AC5E907134AD00F
:10374000616A6B6A6962002847D0E06163620023A6
:1037500023620370D5E90D68D4E90D2146456A63FB
:10376000E26BC5E90E12C4E90D33E3630DD006F137
:103770000804374654F8080C1837844204F118043A
:1037800001D00EF00FF9B845F4D116B130460EF065
:1037900009F92846BDE8F081E268EA6018466360EE
:1037A000BEE7A2682AB1012A20D0FDF7F9F8A26885
:1037B00068680023AA6083546068B1E7226A2AB16E
:1037C000012A0DD0FDF7ECF8226AE86900232A628D
:1037D0008354E069BBE7636A6B621046E261B6E757
:1037E00094F824300370226AE869EFE7237B0370C2
:1037F000A2686868DDE700BF124AB2EE086A124BA1
:1038000000211268DFED116A03EB8203104893ED8B
:10381000007AB8EEC77A10B5C7EE067A0D4C67EE9F
:10382000A67AF8FE677AFCEEE77A17EE903A9AB23B
:1038300004F0B8F82178084804F0D6F90023237082
:1038400010BD00BF140500242C050024CDCC4C4431
:1038500044080024E89D0024DC9D002489B24E4BDE
:1038600092B27F2928BF7F213F2A2DE9F04F28BF40
:103870003F22D0F80080494D49F2A81449F2AA101D
:1038800087B093F801B02A5229531A7898F800A00B
:103890005B6801920593BAF1000F77D05146A1F110
:1038A0002003DAB25E2A74D83D48019AB0F800C00D
:1038B0000CEB020ABAF1800F6BDCB0F8029009EB56
:1038C0000B02402A65DCBBF1000F4BD00BFB03F36E
:1038D000059E6FF000424846B41E1A445B4406EB56
:1038E000420204EB4303039332F8023F0293019B2D
:1038F000A3B3012600F0070449F2B81EC30806FA74
:1039000004F46746E644002664B20EEBC313E543B5
:103910000495224D2B440FE07F2F07D83F2805D870
:1039200093F800E044EA0E0E83F800E00136019DB2
:1039300001330137B54211D0029D05FA06FE1EF48F
:10394000004FE9D17F2FF1D83F28EFD893F800E05E
:10395000049D05EA0E0E83F800E0E7E7039B0130C3
:103960009342C1D14A461FFA8AF30D483F2A28BF25
:103970003F227F2B28BF7F234280038098F80030AE
:103980008B4203D118F8011F002988D107B0BDE888
:10399000F08F0021F2E700BFE40400242408002493
:1039A000CC990024C9B170B506460C46E168304692
:1039B000FFF7F8FFA06A2546A46808B10DF0F2FFF2
:1039C000286905F11803984201D00DF0EBFF284655
:1039D0000DF0E8FF002CE9D170BD704710B504462A
:1039E0008168FFF7DFFF204610BD00BFA9B170B5A9
:1039F00006460C46E1683046FFF7F8FF206904F1FF
:103A000018032546A468984201D00DF0CBFF284644
:103A10000DF0C8FF002CEDD170BD704710B5044605
:103A20008168FFF7E3FF204610BD00BF70B5054673
:103A300082B00E4602B141B3941B0F2C019411D8F1
:103A4000012C286808D1337803700023019C286872
:103A50006C60035502B070BD64B900236C600355FF
:103A600002B070BD002201A928460EF009F9019BA1
:103A70002860AB6022463146FCF792FF019C286823
:103A800000236C60035502B070BD01480EF0EDF8E4
:103A9000A0220108634B2DE9F04703F5806286B050
:103AA000002403F8014F9A42FAD15F4A02AD4FF069
:103AB000000368461168526800950A44FFF7B6FF94
:103AC000684622462146FFF7C9FE0098A84201D069
:103AD0000DF068FF554B03F1800113F8012F42F000
:103AE00008028B421A70F8D13E23012468460B224B
:103AF000002100950194ADF80830FFF7AFFE009863
:103B0000A84201D00DF04EFF494B03F1800113F89C
:103B1000012F42F0200299421A70F8D1454A4FF025
:103B2000000368460095D2E900120A44FFF77EFFC1
:103B3000684636220221FFF791FE0098A84201D084
:103B40000DF030FF3C4F3D4E3C6806EB841605E01F
:103B50003B68013440360433A34228DD092CF7DCEE
:103B600032684FF00003D6F83490684602EB420802
:103B70000095D6E9071209EBC80A0A44FFF756FF79
:103B800059F83810DAF8042068460EF0C6F93B6898
:103B900068460721E31A03EB83035A000C32FFF750
:103BA0005DFE0098A842D3D00DF0FCFED0E7244E75
:103BB000B024002123488DF8004001340D4604F064
:103BC00013F86423012269461F4804F06FFF294659
:103BD0001C48E4B28DF8005004F006F8012264237A
:103BE0006946194804F062FF1023294615488DF8EC
:103BF000003003F0F9FF642301226946124804F003
:103C000055FF01210F4803F0EFFF80223146642366
:103C10000D48164404F04AFFB82CCAD106B0BDE8DE
:103C2000F08700BFDB990024900400245B9A0024F5
:103C3000DB9C00243004002420080024A00500247C
:103C4000DC990024D8990024D099002408B4F0B558
:103C50000E461146044682B0C81D00AF20F0070092
:103C600007F11C03ADEB000D53F8042B6D467B6090
:103C70002846B04704F108032A1829462046236045
:103C80004FF00003FFF7D2FE20460837BD46BDE8DF
:103C9000F04001B0704700BFF0B5002489B01E4F5E
:103CA0001E4D21461E4B38467A6800940EF0A8F847
:103CB0002B68A3422BDD1B4E0DE07A686FF040436A
:103CC0009A4226D00122184913480EF026F90134F1
:103CD0002B68A3421BDD3368A342EED113491022A7
:103CE000134B02A851F8241000911249FFF7AEFFC0
:103CF0000948DDE902120EF010F9029804AB98426F
:103D0000E5D00DF04FFE01342B68A342E3DC09B08F
:103D1000F0BD09480DF0ACFF90040024100500240C
:103D2000482F010814050024E82201082C0500246E
:103D3000CC22010889130008D022010881422DE914
:103D4000F04F074683B041D089460568564BD1E90C
:103D500000488168A8EB0402491B4FEAE20A01927D
:103D6000C91003FB0AFA03FB01F1514532D346683F
:103D7000711B4FEAE10B03FB0BFBDA4566D8019B95
:103D8000002B11DD2E46214630460DF0D0FFBAF152
:103D9000010A04F1180406F11806F4D1019B7E68AB
:103DA000002BD8BF18231D44AE420BD005F10804E8
:103DB00054F8080C844201D00DF0F4FD1835183485
:103DC000B542F5D13D68019B1D447D60384603B086
:103DD000BDE8F08FBAF1000F61D0344B9A4560D83E
:103DE00001980DF0E3FD0646444511D006F10805A3
:103DF0006268183445F8085CA5F1080054F8181CEE
:103E00004FF0000318350A44FFF710FEA045EFD12C
:103E1000D7E9005845450DD005F1080454F8080CC1
:103E2000A04201D00DF0BEFD18351834A845F5D1DB
:103E3000D7F80080B8F1000F02D040460DF0B2FD77
:103E4000019B3E6033441D46BB60BEE7002911DD87
:103E5000214628460DF06BFFBBF1010B04F118045D
:103E600005F11805F4D1D9F80040D9F80480D7E954
:103E70000056711B0C444445A5D0083662681834BE
:103E800046F8086CA6F1080054F8181C4FF000031F
:103E900018360A44FFF7CAFDA045EFD192E756460F
:103EA000A2E70DF0DFFE00BFABAAAAAA5555550543
:103EB0002DE9F843044600259146984600F10C028E
:103EC00000F1240385600F46426004F11C06E361A3
:103ED00004302573256284F82450E563C4E90D5548
:103EE0000DF025FF494604F13400FFF727FF39465E
:103EF0003046C4F800800DF01AFFA3680A2B0FD0DB
:103F0000226A6FF040439A420DD0012207493046A1
:103F100015440EF002F8A368C3F10A03AB42EFD8D0
:103F20002046BDE8F88302480DF0A2FE5430010897
:103F3000D02201082DE9F843551A204C0646204BA3
:103F4000E81004FB00F49C4235D80F4690461CB1A3
:103F500028460DF02BFD04466319B8453460B36064
:103F600026D0183D174B183704F10808ED0803FB5D
:103F700005F525F0604505EB450904EBC90909F194
:103F8000200957F8181CA8F1080057F8142C4FF016
:103F9000000348F8088C08F118080A441837FFF79E
:103FA00045FDC845EDD1013505EB450504EBC504DC
:103FB0007460BDE8F88304480DF05AFEABAAAAAAC3
:103FC00055555505ABAAAA0A6C2201082DE9F843FC
:103FD000074690461D4600293CD04FF00109342089
:103FE0000DF0E4FC2968044600F118066A684FF0F9
:103FF0000003266110300A44FFF718FDA969EA6939
:104000000023561AA362C4E90B33B31036D0B3F1C0
:10401000005F35D230460DF0C9FC0346D5E90612E3
:10402000551A1E448A42C4E90A33266304D018464E
:104030002A46FCF74FFD03461D4448463B1D4246B9
:104040002146E5620DF0B2FD7B69204601337B61BC
:10405000BDE8F883031D9A42BFD054696E68A6423A
:10406000324628BF22462AB1D8F810102868FCF73B
:1040700067FC00B9301B4FEAD079B0E73546D0E78E
:104080000DF0F0FD2DE9F843D1E900260023214C85
:10409000B61A054603600F46C0E90133F01004FB71
:1040A00000F434B11C4B9C4232D830460DF07EFCFB
:1040B00004462644C5E90044AE60D7E90086B04511
:1040C00022D004F10809474649F8089C183757F8E8
:1040D000181CA9F1080057F8142C4FF0000309F13F
:1040E00018090A44FFF7A2FCBE42EDD1183E0B4B63
:1040F000A6EB0806F60803FB06F323F06043013342
:1041000003EB430304EBC30428466C60BDE8F8836B
:104110000DF0A8FDABAAAAAA55555505ABAAAA0A47
:104120002DE9F04F8C6883B08B4681460192B4B381
:10413000019BD3F80480D3F800A06669454627693F
:104140005046B045394628BF35462A4615B1FCF7DA
:10415000F7FB08B9A8EB06000021884203DBE26800
:104160002AB11446E9E7A2680121002AF9D1B9B9B8
:10417000A3468DB12A4651463846FCF7E1FB58B1BB
:1041800000284FF000034846B4BFC9E9003BC9E925
:10419000004303B0BDE8F08FA6EB0800F0E70C1D6C
:1041A000DBF80C30A34210D02046A3460DF0FCFCF7
:1041B000019B46690446D3F80480D3F800A0B045BB
:1041C0004546076928BF3546D3E700234846C9E975
:1041D000003403B0BDE8F08F2DE9F04F1F460B1DF2
:1041E00083B00E469A42054650D0D7F80480144654
:1041F000D2F81490C246D7F800B0C845116928BF5C
:10420000CA46BAF1000F1CD0524658460191FCF73D
:1042100097FB0028019902D1A8EB0903002B14DBBE
:10422000084652465946FCF78BFB08B9A9EB080033
:10423000002850DB0023C5E90043284603B0BDE851
:10424000F08FA8EB0903002BF0DAF368A34217D034
:1042500020460DF0A9FCD0F814A042468146D04576
:1042600028BF524622B159460069FCF769FB08B9DC
:10427000AAEB0800002825DAD9F80C30002B4BD027
:104280002846C5E9004403B0BDE8F08F4B69CBB1C7
:104290000C69D7F80480D4F81490C1454A4628BF69
:1042A000424622B139682069FCF74AFB08B9A9EBFC
:1042B0000800002806DA00232846C5E9003403B0C8
:1042C000BDE8F08F28463A463146FFF729FF2846D9
:1042D00003B0BDE8F08F3369A342ECD020460DF067
:1042E00050FCD0F814A042468146D04528BF524623
:1042F00062B15846D9F81010FCF722FB30B1002803
:10430000E0DAE3682BB1C5E9009996E7A8EB0A006B
:10431000F5E7C5E9003490E7C5E900398DE700BF4E
:104320002DE9F0411D4684B00646342001910DF080
:104330003DFB2D680446019A284604F1180804F153
:104340001003C4F8108050F8081B814245D0AF68B4
:104350002161A76169680027286002A86F60616118
:1043600031462F722763C4E90A77FFF735FFDDE98D
:10437000027515B3331D5FB101202A4621460DF0A9
:1043800015FC736920460133736104B0BDE8F08108
:104390009D42F1D0D4F814806F694246B84528BFD9
:1043A0003A4632B1296920690193FCF7C9FA019BA9
:1043B00008B9A8EB0700C00FDFE7A06A08B10DF04D
:1043C000F1FA2069804501D00DF0ECFA20460DF09D
:1043D000E9FA384604B0BDE8F081D0F800E0D0F842
:1043E00004C08768C168C4F818E0C8F804C0C8F8F9
:1043F0000870C8F80C10ADE7B64A4FF0000311681A
:104400000A68496B02EB42022DE9F04FBBB001EBA9
:10441000C20436AD34A8349551F8321062680A44AB
:10442000FFF704FBAC4B9C68002C00F0EC820433DB
:10443000DDE934799846049366694E45324628BFD3
:104440004A4622B139462069FCF77AFA08B9A6EB48
:1044500009000028C0F23683A046A468002CEBD1E6
:10446000049B984500F0D382D8F814404A46A145F1
:1044700028BF22462AB1D8F810103846FCF760FA57
:1044800008B9A9EB04000028C0F2C182AF42D8E904
:104490000A32A2EB03094FEAA903079302D0384678
:1044A0000DF080FA8D4A4FF0000334A811680A68B5
:1044B000496B02EB4202349501EBC20451F8321011
:1044C00062680A44FFF7B2FA854B9C68002C00F042
:1044D000AB820433DDE934A7984605936669BE4292
:1044E000324628BF3A4622B151462069FCF728FAE5
:1044F00000B9F01B0028C0F2E082A046A468002C9E
:10450000ECD1059B984500F09382D8F814403A46C8
:10451000A74228BF22462AB1D8F810105046FCF70F
:104520000FFA00B9381B0028C0F28282AA45D8E9E8
:104530000A23A3EB02034FEAA303099302D05046D8
:104540000DF030FAB9F1000F40F3ED81099B4FF007
:10455000000ADFF898B1013308935E4B34A819685C
:104560004FF000030A68496B02EB4202349501EBFD
:10457000C20451F8321062680A44FFF757FA564BEA
:104580009C68002C00F08B82DDF8D480049E349F60
:10459000D4F81490C1454A4628BF424622B1394654
:1045A0002069FCF7CDF908B9A9EB08000028C0F292
:1045B00062822646A468002CEAD1049B9E4200F049
:1045C0006F8274694246A04528BF224622B13169F4
:1045D0003846FCF7B5F908B9A8EB04000028C0F28A
:1045E0005F82B36AAF4253F82A6002D038460DF0BA
:1045F000D9F9089B96FBF3F3002B039304DD099A8A
:1046000096FBF2F302FB1366344B34A8013E1968A3
:104610004FF000030A68496B02EB4202349501EB4C
:10462000C20451F8321062680A44FFF7FFF92C4BBC
:104630009C68002C00F02482059FDDF8D08006964F
:10464000DDF8D4904646B8462F4665694D452A4662
:1046500028BF4A4622B131462069FCF771F908B9F2
:10466000A5EB09000028C0F20182A046A468002C36
:10467000EBD13D464746B046DDE905369F4200F0A6
:1046800000827C694A46A14528BF224622B1396989
:104690004046FCF755F908B9A9EB04000028C0F220
:1046A000F081104BA845BA6A5C461B6852F8261088
:1046B0001B68039A13440C4A03EB4303126801EB93
:1046C000830312681344CBF8003011D040460DF03C
:1046D00069F90DE09C050024780400249405002469
:1046E0006004002484050024980500242C0500247F
:1046F000039B10220AA8B7490093B74BFFF7A6FA0D
:1047000003210022B54B00910AA811460DF078FB59
:1047100012AB8446074610935CF8083B634500F0F3
:104720002D828268109312927B68002211936FF0A1
:1047300040437A6011993A725B1AC7F800C0032BA4
:1047400040F23B820422A64910A818AF0DF0E5FB09
:104750008646169784465EF8083B734500F0028251
:10476000826816931892DCF80420002399491CA84B
:1047700017921022CCF804308CF80830CCF800E006
:10478000954B0096FFF762FA169B179EBB421D9A47
:1047900014BF18990F21B01888421C990AD90DF13D
:1047A000780C614514BFDDF878C04FF00F0C604500
:1047B00040F2BB8116A80DF0B0FB0646B4460DF1E1
:1047C0009008CDF888805CF8083B634500F0BE8116
:1047D000B268229324927368002223936FF04043BF
:1047E0007260239932725B1AC6F800C0032B40F244
:1047F000E48104227B4922A82AAE0DF08EFB864676
:10480000289684465EF8083B734500F0C4812893DF
:1048100083682A93DCF8042000232EA80BF1040BF4
:1048200029921022CCF804300DF1C0098CF8083020
:104830002168694BCCF800E000916649FFF706FA61
:10484000289B299CB3422F9A14BF2A990F21A018A4
:1048500088422E9908D9494514BFDDF8C0C04FF0F1
:104860000F0C604540F2478128A80DF056FB044626
:104870003495A4465CF8083B634500F04A813493C4
:10488000A3683693636800223593C4F800C022728F
:104890003499554BA9426260186800F01D8103F1FC
:1048A0000802904200F04981DDE93542C3E9001475
:1048B00099689A60002800F0458134903691002371
:1048C000359303703498A84201D00DF06BF82E9800
:1048D000484501D00DF066F82898B04201D00DF09F
:1048E00061F82298404501D00DF05CF81C981EAB91
:1048F000984201D00DF056F81698B84201D00DF04C
:1049000051F8109812AB984201D00DF04BF80A986C
:104910000CAB984201D00DF045F80AF1010A079B53
:104920009A45FFF61AAE314B34A819684FF00003D0
:104930000A68496B02EB4202349501EBC20451F85C
:10494000321062680A44FFF771F8294B9C68002C0A
:104950007CD0359FDDF81080DDF8D0906669BE42CE
:10496000324628BF3A4622B149462069FBF7E8FFA4
:1049700000B9F01B0028C0F2AA80A046A468002C51
:10498000ECD1049B984563D0D8F814403A46A7422E
:1049900028BF22462AB1D8F810104846FBF7D0FFAE
:1049A00000B9381B002853DB124CA945D8E90A236B
:1049B000A3EB02034FEAA303236003D048460CF0A5
:1049C000F1FF23680C49086890FBF3F203FB120324
:1049D0000B6013E089130008CC220108EC220108C7
:1049E000F0220108F8220108300400249C0500246C
:1049F000780400241005002414050024FFF74CF966
:104A00003BB0BDE8F08F6E4B04339846049328A862
:104A100034AC41462EAB00906A4A69482E94FFF7A9
:104A20007FFC349F804631E5674B043398460593FD
:104A300028A834AC41462EAB0090624A62482E94BE
:104A4000FFF76EFCDDF8D0A080466FE5DDF8108042
:104A500028A834AC41462EAB00905A4A58482E94B0
:104A6000FFF75EFCDDF8D09080469DE7E468002CFF
:104A70007FF4EBADFDE5E468002C7FF489AD9CE5A7
:104A8000059F28A834AC39462EAB00904D4A4E48BD
:104A90002E94FFF745FCDDF8D080074601E6049E22
:104AA00028A834AC31462EAB0090464A44482E9498
:104AB000FFF736FC349F064693E5E468002C7FF44C
:104AC0000DAD1EE5E468002C7FF4B6ACC8E4E468E4
:104AD000002C7FF443AF54E7359A3AB1012A66D0EF
:104AE0002946FBF75DFF394B359A186800215A605B
:104AF00081543498E3E6002200942EA811460DF06C
:104B00007FF904463495A4465CF8083B63457FF47E
:104B1000B6AEAE46DCF80000DCF80410DCF8082085
:104B2000DCF80C30AEE80F00ACE6002200961CA8C2
:104B300011460DF065F9064640E63598369A19603B
:104B4000C3E90102349536AD2846B8E6C646DCF81E
:104B50000000DCF80410DCF80820DCF80C30AEE8CB
:104B60000F0038E6B846DEF80000DEF80410DEF884
:104B70000820DEF80C30A8E80F00F4E50DF1480E2F
:104B8000DCF80000DCF80410DCF80820DCF80C305D
:104B9000AEE80F00C8E5B146DEF80000DEF804100C
:104BA000DEF80820DEF80C30A9E80F0032E69DF8A8
:104BB000D8200270359A186898E705480DF058F823
:104BC00078040024AC25010860040024300400248B
:104BD000D0220108F0B589B00023071D054602ACBC
:104BE0000590C760076103718360436184E8060034
:104BF000039E06EBC60601EB86068E4212D00C46DB
:104C000023463A4606A82946FFF7E6FA079A2346BE
:104C10002846243422B105A900910699FFF7D6F958
:104C2000B442EDD1284609B0F0BD00BF2DE9F04FE8
:104C30008C6883B08B4681460192B4B3019BD3F854
:104C40000480D3F800A06669454627695046B04500
:104C5000394628BF35462A4615B1FBF771FE08B91B
:104C6000A8EB06000021884203DBE2682AB1144663
:104C7000E9E7A2680121002AF9D1B9B9A3468DB1AB
:104C80002A4651463846FBF75BFE58B100284FF0E4
:104C900000034846B4BFC9E9003BC9E9004303B07B
:104CA000BDE8F08FA6EB0800F0E70C1DDBF80C3038
:104CB000A34210D02046A3460CF076FF019B466924
:104CC0000446D3F80480D3F800A0B04545460769F0
:104CD00028BF3546D3E700234846C9E9003403B06E
:104CE000BDE8F08F2DE9F04F1F460B1D83B00E4637
:104CF0009A42054650D0D7F804801446D2F8149052
:104D0000C246D7F800B0C845116928BFCA46BAF1F3
:104D1000000F1CD0524658460191FBF711FE0028A7
:104D2000019902D1A8EB0903002B14DB0846524677
:104D30005946FBF705FE08B9A9EB0800002850DB2F
:104D40000023C5E90043284603B0BDE8F08FA8EB77
:104D50000903002BF0DAF368A34217D020460CF0C9
:104D600023FFD0F814A042468146D04528BF5246C2
:104D700022B159460069FBF7E3FD08B9AAEB080028
:104D8000002825DAD9F80C30002B4BD02846C5E98D
:104D9000004403B0BDE8F08F4B69CBB10C69D7F884
:104DA0000480D4F81490C1454A4628BF424622B137
:104DB00039682069FBF7C4FD08B9A9EB0800002891
:104DC00006DA00232846C5E9003403B0BDE8F08FB9
:104DD00028463A463146FFF729FF284603B0BDE88A
:104DE000F08F3369A342ECD020460CF0CAFED0F815
:104DF00014A042468146D04528BF524662B158466B
:104E0000D9F81010FBF79CFD30B10028E0DAE36818
:104E10002BB1C5E9009996E7A8EB0A00F5E7C5E9CB
:104E2000003490E7C5E900398DE700BF674A4FF0CD
:104E3000000311680A68496B02EB42022DE9F04F4A
:104E40008BB0634F01EBC205DFF888A10DF11809A3
:104E50003C6804A80AF1040BCDF81090013451F815
:104E600032106A683C600A44FEF7E0FDDAF8085048
:104E7000002D34D05C46DDE904686B69314643455A
:104E80001A4628BF42462AB128690193FBF758FD0C
:104E9000019B08B9A3EB0800002859DB2C46AD683C
:104EA000002DEAD15C451BD065694246A84528BF64
:104EB0002A4622B121693046FBF742FD08B9A8EB2A
:104EC000050000280CDB4E45A56A3C6802D0304640
:104ED0000CF068FDA5423FDD0BB0BDE8F08F5C46ED
:104EE0002C2026460CF062FD049B00F118080446B5
:104EF0004B4500F1100CC0F8108042D0069A0361B7
:104F000082610599002532466346616102A8A56267
:104F100030498DF81850CDE90495FFF7E3FEDDE93F
:104F20000256002E37D0281E18BF01205E4508BF4C
:104F300040F00100002838D0274B324621460CF0C3
:104F400035FEDAF814300133CAF81430049EBAE79B
:104F5000ED68002D91D1A5E720490024204A0B6877
:104F600010685A1C1F4D3C601F4C92FBF0F300FB75
:104F70001323EA5C0B602270FEF78EFE0BB0BDE8D7
:104F8000F08F4D460FCDA061C8F80410C8F8082076
:104F9000C8F80C30B5E72069804501D00CF002FD5F
:104FA00020462C460CF0FEFCD0E7D4F8148075693E
:104FB0004246A84528BF2A4622B131692069FBF73D
:104FC000BFFC08B9A8EB0500C00FB5E778050024C1
:104FD00070050024480400244C0400241405002417
:104FE0001005002418050024E89D0024F8B5374C6E
:104FF000374D204601F008F8204601F019F82A78CC
:10500000E2B93449A06D0B680344092B33DC002B53
:10501000D8BF13460B6094F841302F48A3F17F03AB
:10502000B3FA83F35B092B7001F054FE002848D1DA
:105030002A4801F04FFE002843D1F8BDA36D002B94
:105040001CDC33D0234B26491A68900101EB8212F5
:105050000B58013B002B0B5008DA224BD2E90D26EE
:10506000B21AD21003FB02F3013B0B50FFF7C4F955
:10507000FEF712FE1AE009230B60CCE7154B184E21
:105080001B68184906EB83109B01D0E90D72F0589C
:10509000D21B0130D21001FB02F2B0FBF2F102FB95
:1050A0001102F250FFF7A8F9FEF7F6FD94F841302F
:1050B00009487F3B18BF01232B7001F00BFE00282D
:1050C000B6D0BDE8F840FFF7B1BE00BF2408002409
:1050D0007405002420080024000900240609002487
:1050E000A0050024ABAAAAAA00B59BB00021A14844
:1050F00001F0E6F9A04904A806ACFDF783F99F4941
:1051000001A8FEF7BFFF01AA002304A90AA8FEF721
:10511000CFFE0AA99A48FEF7E9FA0AA8FEF7BEFAF6
:1051200001A8FDF74DF90498A04201D00CF03AFC1B
:10513000944904A8FDF766F9934901A8FEF7A2FF78
:10514000002301AA04A90AA8FEF7B2FE0AA98F4803
:10515000FEF7CCFA0AA8FEF7A1FA01A8FDF730F98C
:105160000498A04201D00CF01DFC894904A8FDF769
:1051700049F9884901A8FEF785FF002301AA04A97F
:105180000AA8FEF795FE0AA98348FEF7AFFA0AA817
:10519000FEF784FA01A8FDF713F90498A04201D0A4
:1051A0000CF000FC7D4904A8FDF72CF97C4901A80E
:1051B000FEF768FF002301AA04A90AA8FEF778FEFB
:1051C0000AA97848FEF792FA0AA8FEF767FA01A83A
:1051D000FDF7F6F80498A04201D00CF0E3FB6C490F
:1051E00004A8FDF70FF9704901A8FEF74BFF002353
:1051F00001AA04A90AA8FEF75BFE0AA96B48FEF7FC
:1052000075FA0AA8FEF74AFA01A8FDF7D9F804983A
:10521000A04201D00CF0C6FB5D4904A8FDF7F2F8EE
:10522000634901A8FEF72EFF002301AA04A90AA8DA
:10523000FEF73EFE0AA95F48FEF758FA0AA8FEF7F5
:105240002DFA01A8FDF7BCF80498A04201D00CF09B
:10525000A9FB4F4904A8FDF7D5F8574901A8FEF767
:1052600011FF002301AA04A90AA8FEF721FE0AA93A
:105270005248FEF73BFA0AA8FEF710FA01A8FDF71C
:105280009FF80498A04201D00CF08CFB404904A880
:10529000FDF7B8F84A4901A8FEF7F4FE002301AA79
:1052A00004A90AA8FEF704FE0AA94648FEF71EFA5A
:1052B0000AA8FEF7F3F901A8FDF782F80498A042C6
:1052C00001D00CF06FFB404904A8FDF79BF83C4966
:1052D00001A8FEF7D7FE002301AA04A90AA8FEF739
:1052E000E7FD0AA93948FEF701FA0AA8FEF7D6F940
:1052F00001A8FDF765F80498A04201D00CF052FB1C
:10530000334904A8FDF77EF8224901A8FEF7BAFE4A
:10531000002301AA04A90AA8FEF7CAFD0AA92D487C
:10532000FEF7E4F90AA8FEF7B9F901A8FDF748F875
:105330000498A04201D00CF035FB0023264A2749EF
:1053400027481360274D284A284C0B6003602849E2
:1053500028482B70236013700CF0D0FDFFF74CF839
:10536000044800F04DFEFFF741FEFEF793FBFEF709
:1053700043FAF8E72408002400230108EC04002481
:10538000A00500240823010804050024E0050024EA
:1053900010230108D8040024200600241423010847
:1053A000C004002460060024F8040024A0060024A1
:1053B000B4040024E0060024CC04002420070024C8
:1053C000A8040024600700241C230108A00700246F
:1053D00024230108E00700241405002410050024FC
:1053E00070050024E89D0024740500242008002492
:1053F0003023010830040024B84849F29C11B84B0E
:1054000049F2A01C49F294122DE9F04F4FF60F0E0D
:105410000025435049F2A216B24B49F2901AB24C01
:1054200049F29819072749F2A41B49F2AC18ADF5C7
:105430002B7D20F80CE0845059ACAC4AAC49875520
:105440009DAE40F80B3045610562C0F8E85040F869
:105450000A5040F8095040F808500CF029FAA54BC2
:10546000A54903F10800A54A5D6018601D7203C9D3
:1054700082E803009D4A1846A1490CF019FAA14898
:105480009A4A00F108039E494560036005720CF0DA
:105490000FFA9D492046FCF7B5FF9C495FA8FCF731
:1054A000B1FF9B4965A8FCF7ADFF9A496BA8FCF7D3
:1054B000A9FF994971A8FCF7A5FF984977A8FCF7BF
:1054C000A1FF97497DA8FCF79DFF964983A8FCF7AB
:1054D00099FF954989A8FCF795FF94498FA8FCF797
:1054E00091FF934995A8FCF78DFF92499BA8FCF783
:1054F00089FF91482146A1AA8560C0E90055FEF7C1
:1055000019FD56F8080CB042A6F1180601D00CF0AF
:1055100049FA55AB9E42F4D1744A7FAD874986481B
:105520000CF0C6F986492046FCF76CFF85495FA858
:10553000FCF768FF844965A8FCF764FF83496BA802
:10554000FCF760FF824971A8FCF75CFF814977A8EE
:10555000FCF758FF80497DA8FCF754FF7F480023E3
:1055600083AA21468360C0E90033FEF7E3FC55F8C7
:10557000080CA842A5F1180501D00CF013FA55ABA0
:105580009D42F4D1DFF8D8B152AE584A00256B499C
:105590000DF1F40971480DF1D8080CF089F927953F
:1055A0000DF1A00ABBE80F000FC69BE8070086E8D4
:1055B0000700224652A925A80BF10C06CDE9255576
:1055C000FCF74CFF5E492046FCF71CFF0DF5967C6E
:1055D00024950FCEACE80F0096E80700DDE92536EC
:1055E0008CE80700A36152AA279B4BA922A8E66179
:1055F00023620BF12806259526952795CDE922559E
:10560000FCF72CFF4F4962A8FCF7FCFE0DF5887CE7
:1056100021950FCEACE80F0096E80700DDE92236B1
:105620008CE80700E3634BAA249B44A91FA82664C7
:1056300063640BF14406229523952495CDE91F550B
:10564000FCF70CFF40496BA8FCF7DCFECC461E952E
:105650000FCEACE80F0096E80700DDE91F368CE8B6
:105660000700236644AA219B49461CA86666A366D8
:105670000BF160061F9520952195CDE91C55FCF78F
:10568000EDFE324974A8FCF7BDFEC4461B950FCE53
:10569000ACE80F0096E80700DDE91C368CE807004F
:1056A000C4F884304A461E9B414619A8C4F8886055
:1056B000C4F88C300BF17C061C950BF1980B1D95F2
:1056C0001E95CDE91955FCF7C9FE21497DA8FCF7C7
:1056D00099FE0DF1BC0C18950FCE43E02408002470
:1056E00080707FF078250108010701060000002482
:1056F000992300089004002418020024E4040024E4
:10570000F31D010830040024382301083C2301085C
:105710004023010844230108482301084C230108C1
:105720005023010854230108582301085C23010871
:105730006023010864230108EC040024C12300084D
:1057400068230108702301087823010880230108D9
:1057500088230108902301089823010804050024E8
:10576000701F0108ACE80F00199B1995C4F8A83008
:105770001A9B1A95C4F8AC301B9B1B95C4F8B0302B
:1057800096E807008CE8070042462FA916A813AE3A
:10579000CDE91655FCF762FEB24986A8FCF732FE49
:1057A000D446B560BBE80F00ACE80F00169B169519
:1057B000C4F8CC30179B1795C4F8D030189B1895B7
:1057C000C4F8D4309BE80700C6E900558CE8070010
:1057D0002FAA514630460DF50F7BFCF73FFEA2493C
:1057E0008FA8FCF70FFE31680DA8072308AA0090C8
:1057F000C4F8F0103560D6E90101CDE90843C4F8DA
:10580000F40010ABC4F8F810984806CAC6E9015570
:10581000FFF7E0F95846FDF731FFA345ABF1240B44
:10582000F8D1306808B10CF0BDF8169808B10CF04A
:10583000B9F8199808B10CF0B5F81C9808B10CF03B
:10584000B1F81F9808B10CF0ADF8229808B10CF02F
:10585000A9F8259808B10CF0A5F8854A8BAD8549C3
:1058600082480CF025F884492046FCF7CBFD83499B
:105870005FA8FCF7C7FD824965A8FCF7C3FD814915
:105880006BA8FCF7BFFD804971A8FCF7BBFD7F4901
:1058900077A8FCF7B7FD7E497DA8FCF7B3FD7D49ED
:1058A00083A8FCF7AFFD7C4989A8FCF7ABFD7B48DA
:1058B00000238FAA21468360C0E90033FEF73AFB3C
:1058C00055F8080CA842A5F1180501D00CF06AF8AB
:1058D00055ABAB42F4D1DFF8CCB10025644A704936
:1058E0006E480BF0E5FF31959BE807008AE807005A
:1058F00051462BAA2FA80DF5217ACDE92F55FCF79B
:10590000ADFD5D492046FCF77DFD0BF10C03DDF894
:10591000C4E02795C4F820E031950FCB89E80F004B
:10592000309B49462F9841AAE3610DF11809A06107
:1059300025A830952F95CDE92555FCF78FFD4F49CA
:1059400062A8FCF75FFD279F0BF11C0E0DF5887C0C
:105950006764269F24952764259F2795E7632695EE
:105960002595BEE80F00DEF800E0ACE80F0049AA7C
:1059700044A922A8CCF800E0CDE92255FCF76EFD41
:105980003F496BA8FCF73EFD0BF1300E0DF5967C00
:10599000239F219567662395BEE80F00ACE80F00B2
:1059A000249B51AA2495A366229B229523669EE8F8
:1059B0000300CDE91F558CE803004BA91FA8FCF795
:1059C0004DFD304974A8FCF71DFD219B0BF1480EDD
:1059D0000DF5A47CC4F88C30209B1E95C4F888304B
:1059E0001F9B2195C4F8843020951F95BEE80F00B9
:1059F000ACE80F009EE807008CE80700224652A999
:105A00001CA8CDE91C55FCF729FD1F497DA8FCF712
:105A1000F9FC1C9A0BF164031B95C4F8A8201C9593
:105A2000DDE91D10CDE91955C4F8B000C4F8AC107B
:105A30001E951D950FCB88E80F0041463AAA19A87C
:105A4000FCF70CFD114986A8FCF7DCFC0BF1740394
:105A5000199A0BF1800B1895C4F8CC201995DDE943
:105A60001A1021E090230108982301086004002403
:105A700000000024DD390008A0230108A823010844
:105A8000AC230108B0230108B8230108C023010892
:105A9000C4230108CC230108D4230108C004002436
:105AA000C123000834200108CDE91655C4F8D400FC
:105AB000C4F8D0101B951A9593E8070086E80700F4
:105AC00016AA314605261046FCF7C8FCB0498FA837
:105AD000FCF798FC169B1295C4F8F0300DAB1695A8
:105AE000DDE91721CDE91055C4F8F810C4F8F42009
:105AF000189517959BE8070083E8070010AA194638
