:020000040800F2
:1000000000000220B9180008B51800082D78000873
:10001000B5180008B5180008B51800080000000061
:10002000000000000000000000000000B5180008FB
:10003000B518000800000000B51800081D78000879
:10004000B5180008B5180008B5180008B51800085C
:10005000B5180008B5180008B5180008B51800084C
:10006000B5180008B5180008B5180008B9610008EF
:10007000C5610008BD530008D1610008DD610008BA
:10008000E175000885F30008B5180008B5180008E8
:10009000B5180008B5180008B5180008B51800080C
:1000A000B5180008B5180008B5180008B5180008FC
:1000B000B5180008B5180008B5180008B9F300080D
:1000C000B5180008C5F30008B5180008B5180008F1
:1000D000B5180008B56F00086170000811710008BC
:1000E000B5180008B518000800000000B518000891
:1000F000B5180008B5180008B5180008B5180008AC
:10010000B5180008B5180008B5180008B51800089B
:10011000C17100087172000891560008B5180008F6
:100120007956000885560008B5180008B51800086B
:10013000B5180008B5180008B5180008B51800086B
:1001400000000000000000000000000000000000AF
:10015000B5180008B5180008B51800082173000884
:10016000D1F30008B5180008B5180008B518000844
:10017000B5180008B5180008B5180008B51800082B
:10018000B5180008B5180008D1730008817400087C
:10019000B5180008B5180008B5180008B51800080B
:1001A000B5180008B5180008B5180008B5180008FB
:1001B000015F0008B5180008B5180008B518000858
:1001C000B5180008B5180008B5180008B5180008DB
:1001D000B5180008B5180008B5180008B5180008CB
:1001E000B5180008B5180008B5180008B5180008BB
:1001F000B5180008B5180008B5180008B5180008AB
:10020000B5180008B5180008B5180008B51800089A
:10021000B5180008B5180008B5180008B51800088A
:10022000B5180008B5180008B5180008000000004F
:10023000B5180008B518000800000000B51800083F
:10024000B5180008B5180008B5180008B51800085A
:10025000B5180008B5180008B5180008B51800084A
:10026000B5180008B5180008B5180008B51800083A
:10027000B5180008B5180008317500080000000026
:10028000B5180008B5180008B518000800000000EF
:0802900000000000B518000891
:1002C0000348044B834202D0034B03B118477047E5
:1002D0007002002470020024000000000548064956
:1002E0000B1AD90F01EBA301491002D0034B03B144
:1002F00018477047700200247002002400000000BC
:1003000010B5064C237843B9FFF7DAFF044B13B15D
:100310000448AFF300800123237010BD7002002455
:10032000000000005C0A010808B5044B1BB1044939
:100330000448AFF30080BDE80840CFE700000000AC
:10034000740200245C0A0108F8B510EE104AC4F3E8
:100350000A53B3F57D7FB7EEC07A1ED227EE077B36
:10036000B3F5667F6FD327EE074B27EE043B724B46
:1003700093ED0E5B93ED106B93ED0C0BA7EE050B5D
:1003800093ED145BA4EE060B93ED126BA7EE056BD9
:10039000A6EE030BB7EEC00BF8BD40F22E4293421F
:1003A00054D8654991ED086B27EE066BBDEEC66B20
:1003B00091ED0A5B16EE103A03F500031B1613F0DD
:1003C000020F06EE903A01F1700208BF0A46D80704
:1003D000B8EEE66BA6EE457B27EE076B1AD503F069
:1003E000030301EBC30393ED005B92ED164B27EE85
:1003F000057B27EE065B92ED1A3BA5EE047B26EE0D
:10040000055B92ED184BA6EE034BA4EE057BB7EE11
:10041000C70BF8BD92ED0E4B26EE067B26EE073B92
:1004200092ED0C0B92ED105BA6EE040B92ED144BCB
:10043000A7EE050B92ED127BA6EE047BA7EE030B55
:10044000B7EEC00BF8BDB7EE000AF8BDB3F5FF6F0D
:1004500050D23A4AC4F3836002EB8003C4F316011E
:1004600052F820501E6A186941F40001C4F3C253C7
:100470009940A1FB066705FB01F33A46E0FB012327
:10048000111C43F100550020101A05F0404163EBA8
:10049000010101F045F8AD0F294B9FED257B05EBE0
:1004A000D47441EC160B14F0020FA3F1700208BFD4
:1004B0001346E90726EE077B27EE076B1ED504F0EF
:1004C000030402EBC40494ED005B93ED164B27EE9E
:1004D000057B27EE065B93ED1A3BA5EE047B26EE2B
:1004E000055B93ED184BA6EE034BA4EE057BB7EE30
:1004F000C70BF8BDBDE8F84000F062B893ED0E3BC5
:1005000026EE065B26EE052B93ED0C7B93ED104B50
:10051000A6EE037B93ED143BA5EE047B93ED125BFB
:10052000A6EE035BA5EE027BB7EEC70BF8BD00BFDE
:10053000182D4454FB21193C68FB000808FB0008F7
:10054000D8FB000810B52DED028BB0EE408A0446B2
:1005500000F066F9B0EE480ABDEC028B046010BDF5
:1005600028B1F1EE407A27EE800A2220EAE7F0EE89
:10057000407A27EE800A2220E4E700BF9FED010ABF
:10058000EEE700BF000000109FED010AE8E700BFA2
:100590000000201A9FED010AE2E700BF0000007092
:1005A0009FED060AFFEE007AB7EE007A00284FF0C2
:1005B000220047FE277A87EE800AC3E7000000008A
:1005C00070EE407AB4EE400A87EEA77AF1EE10FAA8
:1005D000B0EE470A01D62120B4E7704700000000C2
:1005E000F0B510EE104A220DC2F30A03B3F57D7F79
:1005F00083B0B7EEC06A1BD226EE065BB3F5667F0A
:1006000070D326EE052B25EE021B774B93ED1A3B9C
:1006100093ED187B93ED164BA5EE037BA2EE046BD6
:10062000B0EE460BA7EE010BB7EEC00B03B0F0BD6A
:1006300040F22E4293425FD86B4991ED087B26EE43
:10064000077BBDEEC77B91ED0A5B17EE103A03F511
:1006500000031B1613F0020F07EE903A01F170022F
:1006600008BF0A46D807B8EEE77BA7EE456BB0EEA9
:10067000460B26EE067B1BD403F0030301EBC303FA
:1006800093ED006B92ED165B20EE060B20EE076BF0
:1006900092ED1A4BA6EE050B27EE066B92ED185B5A
:1006A000A7EE045BA5EE060BB7EEC00B03B0F0BDE2
:1006B00092ED0E4B27EE076B27EE063B92ED0C0BEF
:1006C00092ED105BA7EE040B92ED144BA6EE050B1A
:1006D00092ED126BA7EE046BA6EE030BB7EEC00B08
:1006E00003B0F0BD12F4FF6FA0D1B7EEC55B00EE12
:1006F000104A8DED015A99E7B3F5FF6F50D23B4A8E
:10070000C4F3836002EB8003C4F3160152F8205057
:100710001E6A186941F40001C4F3C2539940A1FB59
:10072000066705FB01F33A46E0FB0123111C43F188
:1007300000550020101A05F0404163EB010100F064
:10074000EFFEAD0F2A4B9FED267B05EBD47441ECF9
:10075000160B14F0020FA3F1700208BF1346E9074D
:1007600026EE077B27EE076B1FD404F0030402EB91
:10077000C40494ED005B93ED164B27EE057B27EE4A
:10078000065B93ED1A3BA5EE047B26EE055B93ED2D
:10079000184BA6EE034BA4EE057BB7EEC70B45E75F
:1007A00003B0BDE8F040FFF70BBF93ED0E3B26EE24
:1007B000065B26EE052B93ED0C7B93ED104BA6EE1E
:1007C000037B93ED143BA5EE047B93ED125BA6EE49
:1007D000035BA5EE027BB7EEC70B27E7AFF3008004
:1007E000182D4454FB21193C68FB000808FB000845
:1007F000D8FB000808B5062000F088FA012001F0B7
:1008000057F800BF10B5054C34B113460A460146EF
:10081000022000F0A3FC10BD204610BD5D110008B1
:10082000014B1868704700BF0400002470B50D4EDE
:100830000D4D761BB61006D00024013455F8043B4C
:100840009847A642F9D1094E094D761B10F0FAF8E7
:10085000B61006D00024013455F8043B9847A64250
:10086000F9D170BD640A0108640A0108800A010810
:10087000640A0108024B0146186800F04BB900BF3A
:1008800004000024024B0146186800F0EDB800BFD8
:1008900004000024844641EA000313F003036DD1F1
:1008A000403A41D351F8043B40F8043B51F8043B33
:1008B00040F8043B51F8043B40F8043B51F8043B3A
:1008C00040F8043B51F8043B40F8043B51F8043B2A
:1008D00040F8043B51F8043B40F8043B51F8043B1A
:1008E00040F8043B51F8043B40F8043B51F8043B0A
:1008F00040F8043B51F8043B40F8043B51F8043BFA
:1009000040F8043B51F8043B40F8043B51F8043BE9
:1009100040F8043B51F8043B40F8043B51F8043BD9
:1009200040F8043B403ABDD2303211D351F8043B79
:1009300040F8043B51F8043B40F8043B51F8043BB9
:1009400040F8043B51F8043B40F8043B103AEDD228
:100950000C3205D351F8043B40F8043B043AF9D279
:10096000043208D0D2071CBF11F8013B00F8013B4C
:1009700001D30B8803806046704700BF082A13D359
:100980008B078DD010F003038AD0C3F10403D21A71
:10099000DB071CBF11F8013B00F8013B80D331F8A5
:1009A000023B20F8023B7BE7043AD9D3013A11F825
:1009B000013B00F8013BF9D20B7803704B78437090
:1009C0008B78837060467047F0B4860746D0541E1B
:1009D000002A3CD0CAB2034602E014F1FF3436D3F9
:1009E00003F8012B9D07F8D1032C29D9CDB245EA94
:1009F00005250F2C45EA054533D9A4F11006360923
:100A000003F1200707EB061703F1100242E9045532
:100A100042E902551032BA42F8D1721C14F00C0FA0
:100A200003EB021204F00F0613D0331F23F003036D
:100A30000433134442F8045B9342FBD106F00304F1
:100A40002CB1C9B21C4403F8011B9C42FBD1F0BC81
:100A5000704734461346002CF3D1F8E7144603469A
:100A6000C2E71A462646E0E700293CD038B551F8DF
:100A7000043C0C1F002BB8BFE418054600F0BEFB79
:100A8000234B1A682AB1A2420DD92168601882420C
:100A900023D0626028461C60BDE8384000F0B0BB3F
:100AA000A34203D81A465368002BF9D11168501895
:100AB000A04219D024D821686018834206D0636010
:100AC00054602846BDE8384000F09ABBD3E90003E3
:100AD0000144636021605460F3E7D2E900020144FD
:100AE00062602160D6E77047206801445018834255
:100AF0001160E6D1D3E90003014453601160E0E7DF
:100B00000C232B602846BDE8384000F079BB00BFBD
:100B10008C020024F8B5CD1C25F0030508350C2DFA
:100B200038BF0C25002D064633DBA94231D82A4FA9
:100B300000F064FB3A6852B113685B1B04D43FE0D9
:100B400023685B1B29D522465468002CF8D17968AC
:100B500000293BD02946304600F040F8431C28D0FD
:100B6000C41C24F00304A04205D0211A304600F032
:100B700035F801301DD02560304600F041FB04F10E
:100B80000B0020F00700231DC21A01D01B1AA3502E
:100B9000F8BD0C2232600020F8BD0B2B05D8A24214
:100BA000636811D05360E7E7144623601C44256056
:100BB000E2E70C233046336000F022FB0020F8BD52
:100BC0000B2BF1D8536814463B60D5E7304600F054
:100BD00005F87860BEE700BF8C02002438B5074CEA
:100BE000002305460846236000F054FE431C00D055
:100BF00038BD2368002BFBD02B6038BD2CC60024E9
:100C000010B580210446FFF785FF606440B1031FE3
:100C100000227C3043F8042F8342FBD1002010BD1A
:100C20004FF0FF3010BD00BF436C0BB10020704788
:100C3000E6E700BF1F2970B5054608D8436C164685
:100C40000C464BB153F8240043F8246070BD1622C3
:100C500002604FF0FF3070BDFFF7D2FF08B96B6C38
:100C6000F0E74FF0FF3070BD1F2938B521D8426C36
:100C700005460C466AB152F8213053B1012B16D00B
:100C8000591C10D00025204642F824509847284689
:100C900038BD284600F070F8224601462846BDE8D7
:100CA000384000F055B816230360012038BD0020FD
:100CB00038BD162303604FF0FF3038BD1F2921D8FF
:100CC00038B5436C05460C4683B153F8242003EB3A
:100CD00084034AB1511C10D0012A0CD000252046B3
:100CE0001D609047284638BD012038BDFFF788FFBA
:100CF00028B96B6CE9E7032038BD022038BD4FF0FE
:100D0000FF3038BD4FF0FF30704700BF024B014647
:100D10001868FFF7A9BF00BF04000024024B0A4671
:100D200001461868FFF786BF04000024034B1868CB
:100D3000436C0BB10020704762E700BF0400002441
:100D4000024B01461868FFF7B9BF00BF040000243A
:100D500038B50B46074C054611461846002323605C
:100D600000F090FD431C00D038BD2368002BFBD061
:100D70002B6038BD2CC6002400F07CBD00000000B4
:100D8000A2EB0300704700BF02780B78012A28BF4E
:100D90009A42F5D16DE9044540EA0104CDE90267C4
:100DA0006FF0000C4FEA447212B380EA010414F0B1
:100DB000070F6AD100F0070420F0070004F00305D4
:100DC00021F007014FEAC505F0E8042314F0040FF1
:100DD000F1E804670CFA05F462EA040266EA040624
:100DE0000AD063EA0403624667EA0407664603E042
:100DF000F0E80423F1E8046782FA4CF582EA06047D
:100E0000A4FA8CF46CBB83FA4CF583EA0705A5FAC7
:100E10008CF595B950E9022351E9026782FA4CF545
:100E200082EA0604A4FA8CF483FA4CF583EA0705F7
:100E3000A5FA8CF52543DBD09CB92DBAB5FA85F41B
:100E400024F0070427FA04F1DDE9026723FA04F32A
:100E500003F0FF0001F0FF01FDE80445A0EB0100F5
:100E6000704724BAB4FA84F424F0070426FA04F193
:100E7000DDE9026722FA04F202F0FF0001F0FF014F
:100E8000FDE80445A0EB0100704714F0030F3CD1CE
:100E900010F0030428D150F8082B51F8083B82FACF
:100EA0004CF582EA0305A5FA8CF55DB950F8042CDF
:100EB00051F8043C82FA4CF582EA0305A5FA8CF558
:100EC000002DE8D02DBAB5FA85F424F0070423FAF2
:100ED00004F122FA04F202F0FF0001F0FF01FDE844
:100EE0000445A0EB010070474FEAC40420F0030062
:100EF00050F8082B21F0030151F8083B0CFA04F4D8
:100F000062EA040263EA0403C9E710F003041AD09A
:100F1000A1EB040120F00300E40750F8042B06D0F5
:100F20000FD28B785FFAA2F4E41A06D12BB1CB78FA
:100F30005FFAB2F4E41A00D11BB920465DF8104BF9
:100F4000704701F1040150F8042BCC0721F0030194
:100F500051F8043B48D824D222F07F4482FA4CF561
:100F600094EA1325A5FA8CF50AD165B951F8043B2A
:100F700084EA0204B4EB036F0ED150F8042BEBE7C4
:100F80004FEA132355E035F07F454DD10878FDE851
:100F90000445C0F1000070474FEA126203F0FF03FE
:100FA00047E002EA1C4482FA4CF594EA1345A5FA9C
:100FB0008CF50AD165B951F8043B84EA0204B4EB1C
:100FC000034F0CD150F8042BEBE74FEA134330E00A
:100FD00015EA1C4528D10B884FEA124229E04FEA56
:100FE000124203EA1C4324E002F0FF0482FA4CF5AB
:100FF00094EA1365A5FA8CF50AD165B951F8043B5A
:1010000084EA0204B4EB032F09D150F8042BEBE778
:101010004FEA13630DE015F0FF0F05D10B684FEA9F
:10102000122223F07F4304E04FF00000FDE8044566
:10103000704712BA1BBA82FA4CF482EA0304A4FA8B
:101040008CF5B5FA85F402FA04F203FA04F34FEAD8
:101050001260FDE80445A0EB13607047000000003B
:101060000000000000000000000000000000000080
:101070000000000000000000000000000000000070
:1010800090F800F06DE9024520F007016FF0000CC8
:1010900010F0070491F820F040F049804FF0000470
:1010A0006FF00700D1E9002391F840F000F108004B
:1010B00082FA4CF2A4FA8CF283FA4CF3A2FA8CF383
:1010C0004BBBD1E9022382FA4CF200F10800A4FAEA
:1010D0008CF283FA4CF3A2FA8CF3E3B9D1E904233E
:1010E00082FA4CF200F10800A4FA8CF283FA4CF375
:1010F000A2FA8CF37BB9D1E9062301F1200182FA2F
:101100004CF200F10800A4FA8CF283FA4CF3A2FA34
:101110008CF3002BC6D0002A04BF04301A4612BA42
:10112000B2FA82F2FDE8024500EBD2007047D1E945
:10113000002304F00305C4F100004FEAC50514F0D4
:10114000040F91F840F00CFA05F562EA05021CBFA5
:1011500063EA050362464FF00004A9E72DE9F8436E
:10116000224C25680DB36C681F2C3BDC98469146D9
:101170000F46064688B1D5F8880028B3D0F800316C
:1011800040F824900122A24000EB84011343022E78
:10119000C0F80031C1F8808010D0A31C01346C600D
:1011A00045F823700020BDE8F883114E114D2560ED
:1011B000002ED8D03468C5F88840D4E7D0F8043180
:1011C0001A43C0F80421E8E70B4B5BB14FF484707D
:1011D000FFF750FB30B100236C68C0E94033C5F81D
:1011E0008800CDE74FF0FF30DDE700BF2804002482
:1011F00048FC00089C03002475080008704700BFE5
:10120000704700BF81F0004102E000BF83F000435F
:1012100030B54FEA41044FEA430594EA050F08BF91
:1012200090EA020F1FBF54EA000C55EA020C7FEA55
:10123000645C7FEA655C00F0E2804FEA5454D4EBD2
:101240005555B8BF6D420CDD2C4480EA020281EA9C
:10125000030382EA000083EA010180EA020281EAD4
:101260000303362D88BF30BD11F0004F4FEA013126
:101270004FF4801C4CEA113102D0404261EB410135
:1012800013F0004F4FEA03334CEA133302D05242BB
:1012900063EB430394EA050F00F0A780A4F1010477
:1012A000D5F1200E0DDB02FA0EFC22FA05F28018B1
:1012B00041F1000103FA0EF2801843FA05F3594197
:1012C0000EE0A5F120050EF1200E012A03FA0EFC16
:1012D00028BF4CF0020C43FA05F3C01851EBE37140
:1012E00001F0004507D54FF0000EDCF1000C7EEB5D
:1012F00000006EEB0101B1F5801F1BD3B1F5001F9B
:101300000CD349085FEA30004FEA3C0C04F10104B9
:101310004FEA445212F5800F80F09A80BCF1004FE2
:1013200008BF5FEA500C50F1000041EB045141EA64
:10133000050130BD5FEA4C0C404141EB0101013C2D
:1013400028BFB1F5801FE9D291F0000F04BF01461C
:101350000020B1FA81F308BF2033A3F10B03B3F1EE
:1013600020020CDA0C3208DD02F1140CC2F10C027E
:1013700001FA0CF021FA02F10CE002F11402D8BFDC
:10138000C2F1200C01FA02F120FA0CFCDCBF41EAA8
:101390000C019040E41AA2BF01EB0451294330BD77
:1013A0006FEA04041F3C1CDA0C340EDC04F1140454
:1013B000C4F1200220FA04F001FA02F340EA03002B
:1013C00021FA04F345EA030130BDC4F10C04C4F171
:1013D000200220FA02F001FA04F340EA0300294651
:1013E00030BD21FA04F0294630BD94F0000F83F49B
:1013F000801306BF81F480110134013D4EE77FEA7E
:10140000645C18BF7FEA655C29D094EA050F08BFC9
:1014100090EA020F05D054EA000C04BF19461046AA
:1014200030BD91EA030F1EBF0021002030BD5FEAEE
:10143000545C05D14000494128BF41F0004130BD16
:1014400014F580043CBF01F5801130BD01F000456A
:1014500045F0FE4141F470014FF0000030BD7FEADD
:10146000645C1ABF194610467FEA655C1CBF0B46D8
:10147000024650EA013406BF52EA033591EA030FEF
:1014800041F4002130BD00BF90F0000F04BF0021E7
:10149000704730B54FF4806404F132044FF000051A
:1014A0004FF0000150E700BF90F0000F04BF002193
:1014B000704730B54FF4806404F1320410F00045F9
:1014C00048BF40424FF000013EE700BF42004FEAF4
:1014D000E2014FEA31014FEA02701FBF12F07F4371
:1014E00093F07F4F81F06051704732F07F4208BF28
:1014F000704793F07F4F04BF41F40021704730B52F
:101500004FF4607401F0004521F000411CE700BF7A
:1015100050EA010208BF704730B54FF000050AE0FD
:1015200050EA010208BF704730B511F0004502D5FE
:10153000404261EB41014FF4806404F132045FEA00
:10154000915C3FF4D8AE4FF003025FEADC0C18BFA9
:1015500003325FEADC0C18BF033202EBDC02C2F19B
:10156000200300FA03FC20FA02F001FA03FE40EA2D
:101570000E0021FA02F11444BDE600BF53B94AB986
:10158000002908BF00281CBF4FF0FF314FF0FF308B
:1015900000F06EB9ADF1080C6DE904CE00F006F86C
:1015A000DDF804E0DDE9022304B070472DE9F047DF
:1015B000089D04468C46002B40F083808A421746E3
:1015C00047D9B2FA82F242B1C2F1200024FA00F007
:1015D0009140974040EA010C94404FEA1748230C91
:1015E000BCFBF8F61FFA87FE08FB16C143EA01436D
:1015F00006FB0EF1994209D9FB1806F1FF3080F085
:101600001981994240F21681023E3B445B1AA4B212
:10161000B3FBF8F008FB103344EA034400FB0EFE72
:10162000A64509D93C1900F1FF3380F00581A64594
:1016300040F2028102383C4440EA0640A4EB0E042A
:1016400000261DB1D4400023C5E900433146BDE862
:10165000F08702B9FFDEB2FA82F2002A50D1CB1B2A
:101660004FEA174E1FFA87F80126B3FBFEFC210C48
:101670000EFB1C3341EA034108FB0CF38B4207D9F4
:1016800079180CF1FF3002D28B4200F2E9808446D7
:10169000C91AA3B2B1FBFEF00EFB101143EA0144DC
:1016A00008FB00F8A04507D93C1900F1FF3302D22E
:1016B000A04500F2D9801846A4EB080440EA0C408B
:1016C000BFE78B4209D9002D00F0B1800026C5E9A3
:1016D000000130463146BDE8F087B3FA83F6002EAC
:1016E0004AD18B4202D3824200F2B880841A61EB65
:1016F000030101208C46002DA8D0C5E9004CA5E7C8
:10170000C2F1200320FA03F6974001FA02F04FEAF3
:10171000174ED9403043030CB1FBFEF61FFA87F891
:101720000EFB161143EA014306FB08F1994204FA45
:1017300002F409D9FB1806F1FF3C80F08D80994234
:1017400040F28A80023E3B445B1A81B2B3FBFEF05A
:101750000EFB103341EA034100FB08F38B4207D92B
:10176000791800F1FF3C73D28B4271D902383944A9
:10177000CB1A40EA064678E7C6F1200C03FA06F4D5
:1017800022FA0CF31C4320FA0CF701FA06F34FEA95
:10179000144E21FA0CF11F433B0CB1FBFEF91FFA6A
:1017A00084F80EFB191143EA014109FB08FA8A4546
:1017B00002FA06F200FA06F308D9611809F1FF30BF
:1017C00048D28A4546D9A9F102092144A1EB0A0170
:1017D000BFB2B1FBFEF00EFB101147EA014700FB60
:1017E00008F8B84507D9E71900F1FF312ED2B845FE
:1017F0002CD90238274440EA0940A7EB0807A0FB90
:1018000002894F45C64649461AD317D05DB1B3EB9E
:101810000E0267EB010707FA0CFCF2404CEA0202E9
:10182000F740C5E9002700263146BDE8F0872E467F
:1018300028460BE70646E9E61846FDE64345E5D2AD
:10184000B8EB020E69EB04010138DFE70846D2E786
:1018500060468DE78146B9E7664675E730464AE758
:10186000ACF1020C394413E702383C4424E700BFD2
:10187000704700BF024B58221A604FF0FF3070478C
:101880002CC60024024B58221A604FF0FF307047DC
:101890002CC60024044A05491368002B08BF0B46D8
:1018A00018441060184670472C04002430C60024E9
:1018B000FEE700BFFEE700BF0D4B0E4A934206D085
:1018C0000D4951F8040B43F8040B9342F9D10B4B2B
:1018D0000B4A934204D0002143F8041B9342FBD1EE
:1018E00006F026F9FEF7A2FF01F07CFDFEE700BF3F
:1018F0000000002470020024840A01087002002401
:1019000030C60024704700BF704700BF494200F155
:10191000130300F21342C9B203F8011F9342FBD133
:10192000704700BF4020704780207047F8B5D0E96D
:1019300000560746B5420DD005F1080454F8080CCE
:101940001835A04204F1180401D00DF02BFFAE426F
:10195000F4D13E6816B130460DF024FF3846F8BD8C
:1019600010B5044640F214410DF01EFF204610BD94
:10197000F0B5044600F1080783B0084627600E461C
:10198000FFF77EFB0F28054601900ED8012809D1EC
:1019900033782372019B0021226820466360D15472
:1019A00003B0F0BD0028F5D008E0002201A92046D0
:1019B0000DF0B4FF019B07462060A3602A46314624
:1019C0003846FEF767FFE5E72DE9F041804600F570
:1019D0001074D4E90D57BD4228460DD005F1080614
:1019E00056F8080C1835B04206F1180601D00DF073
:1019F000D9FEAF42F4D1606B08B10DF0D3FEE069BF
:101A000004F12403984201D00DF0CCFE606804F18B
:101A10000C03984201D00DF0C5FE4445A4F14003EB
:101A200001D01C46D5E72046BDE8F0812DE9F04FF6
:101A300085B0A1F12004009104A99DF8388001E946
:101A40000C00E3B25E2B00F29480036881465C4A8E
:101A5000DB689DF8086093429DF8095040F0938040
:101A60008020B9F804303344834200F38280D9F8EF
:101A70000030544A9B68934240F087804020B9F878
:101A800006104B190191834273DC002D00F0888011
:101A900005FB04F4039A6FF00043B9F804A0254451
:101AA000A2F1020B23440BEB450B0D4602EB430E58
:101AB0003EF8024FA6B305F007030127E8084146A8
:101AC0009F4000220AEBC0137FB24B4409EBC010C9
:101AD0006FEA070CB8460F460CE07F2906D83F2D69
:101AE00004D8197DA7B148EA010119750132013303
:101AF000964214D004FA02F111F4004FA3EB000156
:101B0000EBD17F29F2D83F2DF0D8197D002FEAD0F4
:101B100001320CEA010101339642D974EAD1B84688
:101B2000F34505F10105C3D1D9F800300AEB0604ED
:101B30002349DA68A4B28A422DD1802084421CD283
:101B40009B68204AA9F80440934221D14020019B80
:101B5000834207D3D9F800301A4A9B68934229D1AF
:101B60003F230193DDE90003A9F8063005B0BDE885
:101B7000F08F002005B0BDE8F08FDA6810498A4286
:101B800011D17F24DCE798476BE74846984776E712
:101B900048469847DBE748469047D9F80030CDE7FC
:101BA000B9F804A0C0E7484690470138D9F800309A
:101BB00084B2C5E748469847013883B20193D1E71C
:101BC00029190008251900082DE9F04F89B08B4626
:101BD00091F800909DF8484008A9049401E90C0090
:101BE000B9F1000F00F0B7809DF8193080469DF8DC
:101BF00018A04D460193079B0593A5F12004E3B27D
:101C00005E2B00F2AC80D8F80030654ADB68934266
:101C100040F0A7808020B8F804305344834200F39A
:101C20009E80D8F800305F4A9B68934240F09C80C9
:101C30004020B8F80610019A00918B18834200F3F7
:101C40008E801046002A00F09A8013466FF00046FE
:101C5000B8F8047003FB04F3059CBE46CDF80CB045
:101C60001E44A21E0344574604EB4606DDF81090BE
:101C700002EB430302959B4636F802AFA7B301245B
:101C800001F00702C8080EF1140304FA02F27446C8
:101C900003EBC013002052B243446FEA020C0EE083
:101CA0007F2C07D83F2905D81D78B9F1000F12D035
:101CB00015431D70013001330134B84214D00AFAC3
:101CC00000F52D04ECD47F2CF4D83F29F2D81D78F0
:101CD000B9F1000FECD001300CEA050501330134F5
:101CE000B84203F8015CEAD15E4501F10101C3D1BC
:101CF000BA46029D7746DDF80CB0D8F8002057446C
:101D00002749D368BFB28B4234D18020874204D3A5
:101D1000D36823498B423BD17F279368214AA8F897
:101D20000470934223D14020009B834207D3D8F80C
:101D300000301C4A9B68934224D13F230093009BB0
:101D4000A8F806309BF80000A84205D11BF8015FF7
:101D5000002D7FF452AF002009B0BDE8F08F0025C0
:101D6000F0E74046984756E74046984761E74046C7
:101D70009847D9E740469847D8F80020C6E7B8F812
:101D80000470BAE740469847013883B20093D6E71B
:101D9000404698470138D8F8002087B2BDE700BF19
:101DA00029190008251900082DE9F041B02582B055
:101DB00000F1080700F1100600F11404002130467C
:101DC0008DF807500135884603F00EFE642301228A
:101DD0000DF10701384604F069FD414630468DF8A3
:101DE000078003F001FE012264230DF1070138464C
:101DF000EDB204F05BFD1023414630468DF807300C
:101E000003F0F2FD642301220DF10701384604F0CE
:101E10004DFD0121304603F0E7FD80222146642379
:101E20003846144404F042FDB82DC7D102B0BDE8D5
:101E3000F08100BF7F2921D83F2A1FD810B473B981
:101E4000D308012402F0070201EBC3139440C11828
:101E50000A7D22EA04020A755DF8044B7047D40833
:101E6000012302F0070201EBC41403FA02F2011984
:101E70000B7D1A430A755DF8044B7047704700BF2D
:101E8000F8B5D0E90D560446B5420DD005F1080766
:101E900057F8080C1835B84207F1180701D00DF0B3
:101EA00081FCAE42F4D1666B16B130460DF07AFC7F
:101EB000E06904F12403984201D00DF073FC6068DE
:101EC00004F10C03984201D00DF06CFC2046F8BDE3
:101ED0002DE9F04F0C468BB01146904609901D46F7
:101EE0009DF8580011F8012B0890DDE9146332B118
:101EF000002211F8010B01320028FAD192B22978A0
:101F0000687811FB02F201B212B222EAE272082BE7
:101F100000F2AD81DFE813F0000112011E01320171
:101F2000400150016B01780109003788B088B6F98B
:101F300006300744002BA7EB0207BFB2C0F2FC80BB
:101F4000B6F802C009980CEB63060346078082804E
:101F5000D980A6EB51018EB25E80B64A2368114645
:101F60000192DA688A4240F08F818020B84205D819
:101F7000DA6801998A4240F09A817F279B68AE4ACD
:101F8000A7809342039240F08A814020B04206D855
:101F90002368039A9B68934240F084813F266B78C4
:101FA000E680049398F800606B6895F800B007939A
:101FB000002E00F0AD80A6F12005EBB25E2B00F202
:101FC00034812368019ADB68934240F0308180209D
:101FD000A3885B449842C0F228812368039A9B68D7
:101FE000934240F02B814020E188049A02918B18A3
:101FF0009842C0F21A811046002A00F02981134647
:102000006FF00047B4F804C003FB05F3079DCDF85B
:102010001880AA1E1F440344DDF8209005EB4707F3
:10202000059602EB430322465C469846934637F8F2
:1020300002AFA4B3012501F00702C8080CF1140394
:1020400005FA02F2654603EBC013002052B25B446E
:102050006FEA020E0EE07F2D07D83F2905D81E78C3
:10206000B9F1000F12D016431E7001300133013553
:10207000844214D00AFA00F63604ECD47F2DF4D84A
:102080003F29F2D81E78B9F1000FECD001300EEAEA
:10209000060601330135844203F8016CEAD1B845E4
:1020A00001F10101C3D15B46059EA346DDF818800E
:1020B0001C462268DC440199D3681FFA8CF58B42D8
:1020C00040F0C2808020854205D3D36801998B42BD
:1020D00040F0C7807F259368039AA580934240F023
:1020E000B0804020029B834207D32368039A9B68F9
:1020F000934240F0B0803F230293029BE38098F824
:102100000030B34204D118F8016F002E7FF453AFB2
:1021100009980BB0BDE8F08FB6F9040037880028A5
:10212000B6F90630B8BF0130002B07EB6007A7EB0C
:102130006207BFB2BFF604AF013301E7B6F9007022
:10214000099BB6F902601F80BFB25E80B6B29A806A
:10215000D98002E7B6F904303788002BB6F902605F
:10216000B8BF013307EB6307099B9A80A7EB6202B4
:102170005E80B6B297B2D9801F80EEE6B38837880A
:10218000B6F902601F44099B9A80BA1A5E80B6B203
:1021900097B2D9801F80E0E67388B6F806C0B6F91A
:1021A00000709C44099BACEB00001F809A80BFB27A
:1021B00086B2D9805E80D0E6B6F904C03788BCF11B
:1021C000000F7388B6F806E0B8BF0CF1010C099E49
:1021D00007EB6C07B2800EEB0306A7EB6202301A26
:1021E000099B97B286B2D9801F805E80B5E6B6F8AB
:1021F00004C037887388B6F806E06744099EB28049
:102200000EEB0306BA1AEAE7B6F90630B6F9000093
:10221000002BB6F802C0099E87B2B8BF01333080E8
:102220000CEB6306099B184691E6002667E72046FB
:102230009847CDE629190008251900082046984737
:10224000D2E6204698474DE72046984722683AE76D
:10225000B4F804C02DE720469847013883B20293B2
:102260004BE7204698470138226885B233E7236858
:102270000026124FDA680999BA4201970E804E8003
:102280008E80CE8004D037462046904723686DE686
:102290009B680B4AA680934203923FF480AE20468F
:1022A000984773E620469847013886B277E620467D
:1022B00090470138236887B260E600BF29190008FB
:1022C000251900082DE9F04F83B05E1A0C9F9DF888
:1022D0003480A7EB020EBEF1000FB8BFCEF1000EA6
:1022E0008B428CBF4FF001094FF0FF39002EB8BF71
:1022F00076429742A6EB0E044FD84FF0FF357F2B66
:10230000019514D83F2F12D8FD0807F0070C4FF0A5
:10231000010A03EBC515B8F1000F45D005440AFAD0
:102320000CFC95F814A04CEA0A0C85F814C09742EE
:1023300001D18B4229D0CEF1000C7F2914D83F2A3D
:1023400012D8D5084FF0010B02F0070A01EBC515B2
:102350000BFA0AFA054495F814B0B8F1000F17D03B
:102360004AEA0B0A85F814A0BCEB440F4FEA440577
:1023700002DAA4EB0E044944AE4202DD019D34446E
:102380002A449942D9D19742D7D103B0BDE8F08F02
:102390002BEA0A0A85F814A0E6E701257F2B0195B0
:1023A000C9D83F2FB0D9C6E705440AFA0CFA9742BC
:1023B00095F814C02CEA0A0C85F814C0B9D0BAE715
:1023C0002DE9F04F2DED068B85B01C460F4690464B
:1023D0009DF8583003900293159B002BC0F2F281B8
:1023E000149A134406EE103ADDED147AB8EEC66B7B
:1023F0009FEDD54BB8EEE77B9FEDD55B27EE047BD9
:1024000026EE046B87EE050B86EE05ABF7EEC08B70
:10241000B0EE680AFDF798FFB7EECAAB07EE904A38
:10242000B0EE408AB0EE680AF8EE679AFEF7D8F888
:10243000F0EE408AB0EE4A0AFDF786FFB0EE409A11
:10244000B0EE4A0AFEF7CCF868EEE98A20EE690A97
:1024500029EE888A29EE899A70EE687AF0EE006A91
:1024600039EE487A67EEA77AE7EE077AF4EEE67A75
:10247000F1EE10FA06D5159BB42B40F3EE804FF029
:10248000010E01E04FF0000E0126C4F101033A46AF
:102490006042B34000243146374694460196BEF16F
:1024A000000F6AD1424206EE904A614207EE102ABE
:1024B000F8EEE66A07EE901A159AB8EEC77A66EE5D
:1024C000884AB42A26EE896A06EE900A27EE284A40
:1024D000F8EEE77AF8EEE66A74EEC43A67EE885AE8
:1024E00026EEA85A67EE897A27EE007A66EE806AB1
:1024F000F5EEC03A40F3DC80F1EE10FA00F14D81C8
:1025000076EE473A74EEC54AF5EEC03AF1EE10FAAF
:10251000F5EEC04ACCBF01220022F1EE10FA019282
:1025200000F1458136EE666A35EEC55AB5EEC06AF1
:10253000F1EE10FAB5EEC05ACCBF01210021F1EE48
:1025400010FA00F13D8177EEE66AF5EEC06AF1EE31
:1025500010FACCBF0126002675EEC45AF5EEC05A1B
:10256000F1EE10FA00F1178177EEC77AF5EEC07A36
:10257000F1EE10FACCBF01270027019AF2B1ACEBC3
:10258000000904EB0805B9F17F0F17D83F2D15D8C6
:102590004FEAD50A4FF0010B05F00705029A09EB47
:1025A000CA190BFA05F5002A00F0C280039A91447B
:1025B00099F814B045EA0B0589F81450F1B100EB15
:1025C0000C0904EB0805B9F17F0F17D83F2D15D87A
:1025D0004FEAD50A4FF0010B05F00705029A09EB07
:1025E000CA190BFA05F5002A00F08E80039A91446F
:1025F00099F814B045EA0B0589F81450EEB100EBD8
:102600000C09A8EB0405B9F17F0F16D83F2D14D89B
:102610004FEAD50A4FF0010B05F00705029A09EBC6
:10262000CA190BFA05F5002A65D0039A914499F866
:1026300014B045EA0B0589F81450D7B99C4216DB53
:10264000013403EB4405C44205F101054FD0984223
:1026500008DB2B4600287FF722AF05B0BDEC068BC8
:10266000BDE8F08F013005EB40030133F2E71D4672
:10267000EDE7ACEB0009A8EB0405B9F17F0FDDD85D
:102680003F2DDBD84FEAD50A4FF0010B05F00705C7
:10269000029A09EBCA190BFA05F5002A3FD0039AF2
:1026A000914499F814B045EA0B0589F81450C5E730
:1026B000F1EE10FA64D4CDF804E074EEC54AF5EEFC
:1026C000C04AF1EE10FA51D4002135EEC55AB5EEEC
:1026D000C05AF1EE10FA3FD4002675EEC45AF5EE5A
:1026E000C05AF1EE10FA3FF53FAF002745E7984298
:1026F000B8DB0023ABE7039A914499F814B02BEAB6
:10270000050589F8145098E7039A914499F814B094
:102710002BEA050589F81450002E8ED06FE7039A36
:10272000914499F814B02BEA050589F8145085E70F
:10273000039A914499F814B02BEA050589F81450CE
:1027400000293FF45BAF3AE77A008BFCFA2109409D
:10275000000000000080664077EEE66AF5EEC06A91
:10276000F1EE10FACCBF01260026B6E736EE666A17
:10277000B5EEC06AF1EE10FACCBF01210021A4E74A
:1027800076EE473AF5EEC03AF1EE10FACCBF0122F0
:102790000022019291E70127EFE674EEC54A01227B
:1027A0000192F5EEC04AF1EE10FA7FF5BBAE35EEC0
:1027B000C55A0121B5EEC05AF1EE10FA7FF5C3AE4D
:1027C0000126C9E6DDE91423134406EE102A14930A
:1027D000159B5B42159307E62DE9F04F87B09DF8F6
:1027E0004860109C9DF8445001969EB399422ED8A3
:1027F0009A46A24228D87F29164694BF0023012377
:1028000008E09CF814904EEA090E8CF814E00136AA
:10281000B44219D33F2EFAD8002BF8D14FEAD60C88
:1028200006F0070E4FF0010901EBCC1C09FA0EFE71
:102830008444002DE5D19CF814B001362BEA0E0833
:10284000B4428CF81480E5D201318A45D1D207B068
:10285000BDE8F08FA3EB0108B8F1000FB8BFC8F1D5
:102860000008994280F054813F2A4FF0010994BF3B
:10287000002601267F2B029694BF00270127009790
:10288000DEB9D7B9002D00F0588100264FEAD20EEC
:102890004FF0010C02F0070703EBCE1E0296002654
:1028A0000CFA07F700960EEB000696F814C047EAFC
:1028B0000C073775994200F09781C44616460F46BB
:1028C0007F2F15D83F2E13D84FEAD60E4FF0010BAD
:1028D00006F0070A07EBCE1E0BFA0AFA86449EF8AA
:1028E00014B0002D00F045814AEA0B0A8EF814A0BE
:1028F0005FEA4C0E18BF4F44F04501DDC444013E71
:10290000BB42DDD1B242DBD100260496A4EB020922
:10291000B9F1000FB8BFC9F100093F2C94BF0026E0
:102920000126A242C9F100080396C0F03181002EB1
:1029300040F05381009E002E40F04F814FF0FF3653
:102940000096002D00F02C8100264FEAD40E4FF0A7
:10295000010C04F00707039603EBCE160CFA07F7F9
:10296000064496F814C047EA0C073775A24200F0F7
:102970003E81C44616461F4605927F2F15D83F2E2E
:1029800013D84FEAD60E4FF0010B06F0070A07EBFB
:10299000CE1E0BFA0AFA86449EF814B0002D00F001
:1029A000ED804AEA0B0A8EF814A0B8EB4C0F4FEA00
:1029B0004C0E02DAACEB090C013FBEF1000F01D066
:1029C000009A1644BB42D8D1B442D6D1059A7F2989
:1029D000A1EB030E94BF4FF000094FF0010999429B
:1029E0008CBF4FF001084FF0FF38BEF1000FB8BFA9
:1029F000CEF1000EB9F1000F13D1039E8EB9E60897
:102A00004FF0010C04F0070701EBC6160CFA07F7AC
:102A1000064496F814C0002D00F0DB8047EA0C074E
:102A20003775049E2EBB774626467F2B15D83F2E42
:102A300013D84FEAD60C4FF0010B06F0070A03EB50
:102A4000CC1C0BFA0AFA84449CF814B0002D00F058
:102A50009A804AEA0B0A8CF814A05FEA470C18BF68
:102A60004344E64501DD7744013E9942DDD1B4425D
:102A7000DBD1A2EB040EA2428CBF4FF001084FF055
:102A8000FF38BEF1000FB8BFCEF1000ECEF1000C42
:102A9000B9F1000F0FD1029B6BB9D30802F0070701
:102AA000012601EBC313002D00F08B800344BE40D0
:102AB0001F7D3E431E75019B002B7FF4C8AE66460A
:102AC0000B467F2B13D83F2C11D8E70804F0070AD8
:102AD0004FF0010903EBC717002D40D0074409FA56
:102AE0000AF997F814A049EA0A0987F81490BCEB90
:102AF000460F4FEA460702DAA6EB0E06013B07B186
:102B000044449942DDD1A242DBD107B0BDE8F08F49
:102B10007F2B4FF0FF3994BF002601263F2A0096F5
:102B200094BF002701270297002E7FF4C3AE002F29
:102B30007FF4C0AE002D7FF4A8AED6084FF0010C94
:102B400002F00707029503EBC61600950CFA07F78B
:102B5000064496F814C02CEA07073775AAE607441E
:102B600009FA0AFA97F8149029EA0A0987F81490E2
:102B7000BDE72BEA0A0A8EF814A0B9E62BEA0A0A86
:102B80008EF814A011E72BEA0A0A8CF814A064E767
:102B90003EBB009E2EBB01260096002D7FF4D4AED6
:102BA000E6084FF0010C04F00707039503EBC61687
:102BB0000CFA07F7064496F814C02CEA0707377595
:102BC000D4E6034406FA07F71E7D26EA07061E75BB
:102BD00071E72CEA0707377523E74FF0FF360096B9
:102BE000C4E601260096C4E6012604968EE6012678
:102BF0000196ECE62DE9F0410A6801F10C030C4660
:102C0000496805460260994240684ED005F10C02C1
:102C10009042A268C5E9011242D0E168EA68E96021
:102C200000283FD06060E260002304F12402A3602A
:102C30000370E169E869914244D005F124039842A8
:102C4000236AC5E907134AD0616A6B6A6962002882
:102C500047D0E0616362002323620370D5E90D6809
:102C6000D4E90D2146456A63E26BC5E90E12C4E959
:102C70000D33E3630DD006F10804374654F8080C11
:102C80001837844204F1180401D00CF08BFDB845CC
:102C9000F4D116B130460CF085FD2846BDE8F08130
:102CA000E268EA6018466360BEE7A2682AB1012ABA
:102CB00020D0FDF7EFFDA26868680023AA60835466
:102CC0006068B1E7226A2AB1012A0DD0FDF7E2FD62
:102CD000226AE86900232A628354E069BBE7636AD9
:102CE0006B621046E261B6E794F824300370226A02
:102CF000E869EFE7237B0370A2686868DDE700BF3F
:102D0000F8B52A4C204601F091F8204601F0A2F8CF
:102D1000274B197891B92748A56D02682A44092ADA
:102D20002ADC002AD8BF0A46026094F84120A2F1AA
:102D30007F02B2FA82F252091A70F8BDA26D002A1F
:102D40001DDD1C4A1C4E12681C4806EB82159201C0
:102D5000D5E90D71B558C91B0135C91000FB01F14A
:102D6000B5FBF1F001FB1051B15094F841207F3ACE
:102D700018BF01221A70F8BD09220260D5E7F4D00D
:102D80000C4A0D4811688D0100EB81114259013A3E
:102D9000002A4251E9DA094AD1E90D16711AC9101F
:102DA00002FB01F2013A4251DFE700BF040A0024AE
:102DB000FC040024000A002480070024ABAAAAAA6D
:102DC00089B24E4B92B27F2928BF7F213F2A2DE93D
:102DD000F04F28BF3F22D0F80080494D49F2A81497
:102DE00049F2AA1087B093F801B02A5229531A78F1
:102DF00098F800A05B6801920593BAF1000F77D0B4
:102E00005146A1F12003DAB25E2A74D83D48019AF6
:102E1000B0F800C00CEB020ABAF1800F6BDCB0F81E
:102E2000029009EB0B02402A65DCBBF1000F4BD08E
:102E30000BFB03F3059E6FF000424846B41E1A4494
:102E40005B4406EB420204EB4303039332F8023F78
:102E50000293019BA3B3012600F0070449F2B81EB8
:102E6000C30806FA04F46746E644002664B20EEB93
:102E7000C313E5430495224D2B440FE07F2F07D861
:102E80003F2805D893F800E044EA0E0E83F800E0EE
:102E90000136019D01330137B54211D0029D05FA7B
:102EA00006FE1EF4004FE9D17F2FF1D83F28EFD85E
:102EB00093F800E0049D05EA0E0E83F800E0E7E7D2
:102EC000039B01309342C1D14A461FFA8AF30D4851
:102ED0003F2A28BF3F227F2B28BF7F2342800380C9
:102EE00098F800308B4203D118F8011F002988D1CF
:102EF00007B0BDE8F08F0021F2E700BF9004002486
:102F0000040A0024AC9B002470B5054682B00E462E
:102F100002B141B3941B0F2C019411D8012C2868E5
:102F200008D1337803700023019C28686C60035536
:102F300002B070BD64B900236C60035502B070BD6F
:102F4000002201A928460CF0E9FC019B2860AB6037
:102F500022463146FDF79EFC019C286800236C60E8
:102F6000035502B070BD01480CF0CDFC4CFC0008CC
:102F70004A4B2DE9F04703F5806186B0002203F843
:102F8000012F8B42FAD1464B03F1800113F8012F38
:102F900042F0040299421A70F8D102AF3E23012494
:102FA00068460B22002100970194ADF80830FFF726
:102FB00007FF0098B84201D00CF0F4FB394E3A4DAF
:102FC000346805EB841505E033680134403505337A
:102FD000A34228DB092CF7DC2A684FF00003D5F860
:102FE0003490684602EB42080097D5E9071209EBD6
:102FF000C80A0A44FFF788FF59F83810DAF80420A5
:1030000068460CF020FD336868460721E31A03EB9D
:1030100083035A000B32FFF7D3FE0098B842D3D097
:103020000CF0C0FBD0E7214EB024002120488DF8E1
:10303000004001340D4602F0D7FC642301226946AA
:103040001C4803F033FC29461948E4B28DF80050BF
:1030500002F0CAFC012264236946164803F026FCEC
:103060001023294612488DF8003002F0BDFC64237D
:10307000012269460F4803F019FC01210C4802F0B7
:10308000B3FC8022314664230A48164403F00EFC48
:10309000B82CCAD106B0BDE8F08700BFBB9B0024A6
:1030A0003B9C0024000A002480070024BC9B0024D1
:1030B000B89B0024B09B002481422DE9F04F0746C5
:1030C00083B041D089460568564BD1E900488168F4
:1030D000A8EB0402491B4FEAE20A0192C91003FB64
:1030E0000AFA03FB01F1514532D34668711B4FEADE
:1030F000E10B03FB0BFBDA4566D8019B002B11DDCE
:103100002E46214630460CF03CFCBAF1010A04F18F
:10311000180406F11806F4D1019B7E68002BD8BF75
:1031200018231D44AE420BD005F1080454F8080CD6
:10313000844201D00CF036FB18351834B542F5D175
:103140003D68019B1D447D60384603B0BDE8F08FAB
:10315000BAF1000F61D0344B9A4560D801980CF059
:1031600025FB0646444511D006F10805626818346F
:1031700045F8085CA5F1080054F8181C4FF000034E
:1031800018350A44FFF7C0FEA045EFD1D7E9005833
:1031900045450DD005F1080454F8080CA04201D0B3
:1031A0000CF000FB18351834A845F5D1D7F800808D
:1031B000B8F1000F02D040460CF0F4FA019B3E60DB
:1031C00033441D46BB60BEE7002911DD2146284679
:1031D0000CF0D7FBBBF1010B04F1180405F1180545
:1031E000F4D1D9F80040D9F80480D7E90056711B12
:1031F0000C444445A5D008366268183446F8086C7B
:10320000A6F1080054F8181C4FF0000318360A44C1
:10321000FFF77AFEA045EFD192E75646A2E70CF001
:103220006FFB00BFABAAAAAA555555052DE9F84377
:10323000044600259146984600F10C0200F1240353
:1032400085600F46426004F11C06E361043025737B
:10325000256284F82450E563C4E90D550CF091FB18
:10326000494604F13400FFF727FF39463046C4F8D9
:1032700000800CF086FBA3680A2B0FD0226A6FF047
:1032800040439A420DD001220749304615440CF0C4
:10329000DAFBA368C3F10A03AB42EFD82046BDE8CE
:1032A000F88302480CF032FB90FC000878FC000820
:1032B0002DE9F843551A204C0646204BE81004FB34
:1032C00000F49C4235D80F4690461CB128460CF0BD
:1032D0006DFA04466319B8453460B36026D0183DD2
:1032E000174B183704F10808ED0803FB05F525F026
:1032F000604505EB450904EBC90909F1200957F8B8
:10330000181CA8F1080057F8142C4FF0000348F8D7
:10331000088C08F118080A441837FFF7F5FDC8456E
:10332000EDD1013505EB450504EBC5047460BDE83E
:10333000F88304480CF0EAFAABAAAAAA5555550539
:10334000ABAAAA0A94FC00082DE9F843D1E90026AB
:103350000023214CB61A054603600F46C0E901332D
:10336000F01004FB00F434B11C4B9C4232D83046C0
:103370000CF01CFA04462644C5E90044AE60D7E9C7
:103380000086B04522D004F10809474649F8089C58
:10339000183757F8181CA9F1080057F8142C4FF0EB
:1033A000000309F118090A44FFF7AEFDBE42EDD152
:1033B000183E0B4BA6EB0806F60803FB06F323F0BA
:1033C0006043013303EB430304EBC30428466C6002
:1033D000BDE8F8830CF094FAABAAAAAA5555550596
:1033E000ABAAAA0A30B59BB00021A24800F07CFF2E
:1033F000A14904A806ACFEF7BBFAA04901A8FFF753
:10340000A3FF01AA002304A90AA8FFF70FFF0AA936
:103410009B48FFF7EFFB0AA8FEF732FD01A8FEF775
:1034200085FA0498A04201D00CF0BCF9954904A893
:10343000FEF79EFA944901A8FFF786FF002301AA30
:1034400004A90AA8FFF7F2FE0AA99048FFF7D2FBE9
:103450000AA8FEF715FD01A8FEF768FA0498A04235
:1034600001D00CF09FF98A4904A8FEF781FA894936
:1034700001A8FFF769FF052301AA04A90AA8FFF71D
:10348000D5FE0AA98448FFF7B5FB0AA8FEF7F8FCA9
:1034900001A8FEF74BFA0498A04201D00CF082F983
:1034A0007E4904A8FEF764FA7D4901A8FFF74CFFA6
:1034B000002301AA04A90AA8FFF7B8FE0AA97948BF
:1034C000FFF798FB0AA8FEF7DBFC01A8FEF72EFA2F
:1034D0000498A04201D00CF065F9734904A8FEF7E6
:1034E00047FA724901A8FFF72FFF002301AA04A998
:1034F0000AA8FFF79BFE0AA96D48FFF77BFB0AA805
:10350000FEF7BEFC01A8FEF711FA0498A04201D014
:103510000CF048F9674904A8FEF72AFA664901A8A1
:10352000FFF712FF002301AA04A90AA8FFF77EFEF5
:103530000AA96248FFF75EFB0AA8FEF7A1FC01A8F2
:10354000FEF7F4F90498A04201D00CF02BF95C4985
:1035500004A8FEF70DFA5B4901A8FFF7F5FE00236A
:1035600001AA04A90AA8FFF761FE0AA95648FFF7B5
:1035700041FB0AA8FEF784FC01A8FEF7D7F90498DE
:10358000A04201D00CF00EF9504904A8FEF7F0F962
:103590004F4901A8FFF7D8FE052301AA04A90AA8EC
:1035A000FFF744FE0AA94B48FFF724FB0AA8FEF7E1
:1035B00067FC01A8FEF7BAF90498A04201D00CF00C
:1035C000F1F8454904A8FEF7D3F9414901A8FFF7EE
:1035D000BBFE052301AA04A90AA8FFF727FE0AA932
:1035E0003E48FFF707FB0AA8FEF74AFC01A8FEF7D2
:1035F0009DF90498A04201D00CF0D4F8384904A8F1
:10360000FEF7B6F9234901A8FFF79EFE002301AAA1
:1036100004A90AA8FFF70AFE0AA93248FFF7EAFA46
:103620000AA8FEF72DFC01A8FEF780F90498A04235
:1036300001D00CF0B7F800232B4C2C482C492D4A14
:103640002360036002F148052B4C2C480B702C4979
:10365000236003700020012342F8040F954201F813
:10366000013FF7D1034800F0DDFBFFF749FBFFF70F
:103670007FFCFAE7040A0024C8FC00087804002450
:1036800000070024D0FC000884040024C0060024A5
:10369000D8FC00086004002440050024E4FC000875
:1036A0005404002440070024ECFC000848040024D3
:1036B00040060024F4FC00083C040024800600249A
:1036C000FCFC00086C0400248005002408FD0008B0
:1036D000300400240006002410FD0008C00500246A
:1036E00014FD0008000500249C0400249804002414
:1036F000C89F0024B0040024000A0024FC04002415
:103700009F0400242DE9F84300F10C0204460E4604
:1037100009684FF000032C4D40F8041B6260D6E9A5
:1037200001120A44FFF7F0FB04F12403326A04F1AA
:103730001C00E3614FF00003F1690A44FFF7E4FB6A
:103740000023D6E90D27C4E90D33BF1AE363F8104F
:1037500005FB00F535B11D4B9D4232D838460CF0C3
:1037600025F805462F44C4E90D55E763D6E90D86D3
:10377000B04522D005F10809474649F8089C18379A
:1037800057F8181CA9F1080057F8142C4FF0000343
:1037900009F118090A44FFF7B7FBBE42EDD1183E04
:1037A0000B4BA6EB0806F60803FB06F323F0604379
:1037B000013303EB430305EBC3052046A563BDE8D6
:1037C000F8830CF09DF800BFABAAAAAA5555550581
:1037D000ABAAAA0A2DE9F04FB94849F2A2164FF058
:1037E000070BDFF8B4E34FF60F0C002449F2AC13DB
:1037F00049F2941249F29C1149F2A41500F806B05E
:1038000049F2901AAF4E49F29818DFF8909349F2B6
:10381000A017C9B040F801E020F807C0465144ADF8
:10382000A949ADF1100640F80290C450A74A44617E
:103830000462C0F8E84040F80A4040F808400BF045
:1038400037FFA34AA34B92E8030083E80300A24991
:103850006846FEF78DF8A14906A8FEF789F8A04949
:103860000CA8FEF785F89F4912A8FEF781F89E493B
:1038700018A8FEF77DF89D491EA8FEF779F89C4927
:1038800024A8FEF775F89B492AA8FEF771F89A4913
:1038900030A8FEF76DF8994936A8FEF769F89849FF
:1038A0003CA8FEF765F8974942A8FEF761F89648EC
:1038B000694648AA8460C0E90044FFF7F9FC55F85E
:1038C000080CA842A5F1180501D00BF06BFFB5421A
:1038D000F5D17E4A6C468D4907278B480BF0E8FEF0
:1038E0008B496846FEF744F88A4906A8FEF740F877
:1038F00089490CA8FEF73CF8884912A8FEF738F869
:10390000874918A8FEF734F886491EA8FEF730F854
:10391000854924A8FEF72CF8844800232AAA694682
:103920008360C0E90033FFF7C3FCD4F8900004F1D2
:103930009803183C984201D00BF034FF013FF4D1BA
:10394000624A6C467149092578480BF0B1FE784906
:103950006846FEF70DF8774906A8FEF709F876499C
:103960000CA8FEF705F8754912A8FEF701F874498E
:1039700018A8FDF7FDFF73491EA8FDF7F9FF72496E
:1039800024A8FDF7F5FF71492AA8FDF7F1FF70495A
:1039900030A8FDF7EDFF6F4836AA69468760C0E999
:1039A0000077FFF785FCD4F8C00004F1C803183C89
:1039B000984201D00BF0F6FE013DF4D1434A6C462B
:1039C0005249052763480BF073FE63496846FDF7CB
:1039D000CFFF624906A8FDF7CBFF61490CA8FDF7B0
:1039E000C7FF604912A8FDF7C3FF5F4918A8FDF79C
:1039F000BFFF5E481EAA69468560C0E90055FFF713
:103A000057FC206E04F16803183C984201D00BF07B
:103A1000C9FE013FF5D12D4A6C463C490525534866
:103A20000BF046FE52496846FDF7A2FF514906A831
:103A3000FDF79EFF50490CA8FDF79AFF4F4912A8C9
:103A4000FDF796FF4E4918A8FDF792FF4D481EAAB4
:103A500069468760C0E90077FFF72AFC206E04F111
:103A60006803183C984201D00BF09CFE013DF5D153
:103A7000164A6C462549042742480BF019FE3C497A
:103A80006846FDF775FF404906A8FDF771FF3F49FD
:103A90000CA8FDF76DFF3E4912A8FDF769FF3D48F0
:103AA00018AA69468560C0E90055FFF701FCA06CC3
:103AB00004F15003183C984272D00BF073FE6FE093
:103AC000040A002488FF00080519000800000024EB
:103AD000180200249004002420FD000824FD0008A2
:103AE00028FD00082CFD000830FD000834FD00080A
:103AF00038FD00083CFD000840FD000844FD0008BA
:103B000048FD00084CFD0008780400242D19000829
:103B100050FD000858FD000860FD000868FD000821
:103B200070FD000878FD000880FD00088404002472
:103B300088FD000890FD000894FD000898FD00082D
:103B4000A0FD0008A8FD0008ACFD0008B4FD0008B9
:103B5000BCFD000854040024C4FD0008C8FD000892
:103B6000D0FD0008D8FD0008E0FD0008480400244E
:103B7000E8FD0008F0FD0008F8FD000800FE000860
:103B800008FE00083C04002410FE000818FE00088F
:103B900020FE00086C04002480707FF001070106FD
:103BA000013F84D1744A6C467449052574480BF072
:103BB0007FFD74496846FDF7DBFE734906A8FDF7F3
:103BC000D7FE72490CA8FDF7D3FE714912A8FDF784
:103BD000CFFE704918A8FDF7CBFE6F481EAA6946B4
:103BE0008760C0E90077FFF763FB206E04F168038C
:103BF000183C984201D00BF0D5FD013DF5D15E4A4D
:103C000038AC5E4964480BF053FD64496846FDF7E3
:103C1000AFFE634906A8FDF7ABFE62490CA8FDF7AD
:103C2000A7FE614912A8FDF7A3FE604918A8FDF799
:103C30009FFE5F491EA8FDF79BFE5E4924A8FDF785
:103C400097FE5D492AA8FDF793FE5C4930A8FDF771
:103C50008FFE5B4936A8FDF78BFE5A483CAA6946A1
:103C60008560C0E90055FFF723FB54F8080CA0421B
:103C7000A4F1180401D00BF095FDA642F5D13E4AFF
:103C80003E4950480BF014FD4F4B03F520740022C1
:103C900003F10C0003F124011A731A6283F8242043
:103CA000DA63D961C3E90102C3E90D2240339C42C2
:103CB000EDD1314A454944480BF0FAFC42494448A9
:103CC000FFF720FD2C4A434941480BF0F1FC4249E3
:103CD0004248FFF717FD284A3E4940480BF0E8FCF0
:103CE0003F494048FFF70EFD234A3A493D480BF053
:103CF000DFFC3D493D48FFF705FD1F4A35493B487C
:103D00000BF0D6FC3A493B48FFF7FCFC1A4A314914
:103D100038480BF0CDFC38493848FFF7F3FC164A19
:103D20002C4936480BF0C4FC35493648FFF7EAFC0D
:103D3000114A284933480BF0BBFC33493348FFF79D
:103D4000E1FC0D4A234931480BF0B2FC30493148BF
:103D5000FFF7D8FC084A1F492E480BF0A9FC2E4952
:103D60002E48FFF7CFFC044A1A492C480BF0A0FC60
:103D700049B0BDE8F08F00BF000000242D190008F5
:103D80006C04002428FE00082CFE000830FE000809
:103D900034FE000838FE0008300400243CFE000811
:103DA00040FE000844FE000848FE00084CFE0008E3
:103DB00050FE000854FE000858FE000860FE00088F
:103DC00068FE00086004002480070024C919000868
:103DD00000070024811E0008C0070024C00600243C
:103DE0000008002440050024400800244007002467
:103DF0008008002440060024C00800248006002417
:103E00000009002480050024400900240006002445
:103E100080090024C0050024C009002400050024F6
:103E2000FFF7D8BC183001F05BBA00BF10B50446EC
:103E30005C3000F0E1FD04F17C0000F0DDFD04F1F8
:103E40009C0000F0D9FD04F1BC00BDE8104000F07A
:103E5000D3BD00BF3C3000F019BE00BF2DE9F043D8
:103E600032499DB004464FF441700991012100226E
:103E7000012303260127129100252D494FF0010847
:103E80004FF00009ADF82C001B200A910895CDE9F0
:103E90000E23CDE91023CDE91A23CDE90C67CDE936
:103EA0001667CDE9188900F0DDFA034618204FF0B7
:103EB0007C57ADF84E3000F0D5FA03461C20302672
:103EC000ADF84C3000F0CEFA03461920ADF8503072
:103ED00000F0C8FA03461A20ADF8543000F0C2FAD8
:103EE00000220023054608A902A8ADF85250032578
:103EF000CDE9022302F078F912A903A802F074F9BF
:103F00001D2000F0AFFAADF80400019800F03AFB74
:103F100005A904F114000797DDE90223CDE9056541
:103F200000F0FCFC1DB0BDE8F08300BF04020404F7
:103F300004050406F0B506460F20002406F1180714
:103F400006F15C052DED028B99B09FED258A00F0FE
:103F500089FA034607A8ADF80C30039900F010FE6B
:103F6000102000F07FFA03460DF12D00ADF810305F
:103F7000049900F005FE152000F074FA03460DF1D7
:103F80003E00ADF81430059900F0FAFD122000F063
:103F900069FA03460DF14F00ADF81830069900F0AC
:103FA000EFFD042307A938461A4600F0F7FDE1B2F9
:103FB000384601F0ABF9014601343046019100F07A
:103FC00067FA2846F0EE480A0023019901222035BD
:103FD00000F0F4FC042CEAD119B0BDEC028BF0BD6A
:103FE0006F12033B000000002DE9F04106468CB043
:103FF000092049F2AC1400F035FA034634441E207F
:10400000ADF8003000F02EFAADF80200012526468A
:10401000009BA572A04626F8083F3046019301F0A8
:10402000F9FBBDF806300027A57128F8043F40468B
:1040300001F0F0FB002200234FF0080C02A92046FB
:10404000CDF81CC00695CDE90423CDE90823022252
:104050000223CDE90A23A2A3D3E90023CDE9022359
:1040600002F0A0FB3946404601F0BEFC0A2003F0F6
:10407000E1FB2946404601F0B7FC0A2003F0DAFBD9
:10408000AE23304639468DF8083001F0ADFC2A46A3
:1040900002A92046642302F009FCD52330463946A4
:1040A0008DF8083001F0A0FC2A4602A920466423BE
:1040B00002F0FCFB8023304639468DF8083001F0D1
:1040C00093FC2A4602A92046642302F0EFFBA823B2
:1040D000304639468DF8083001F086FC2A4602A9A0
:1040E0002046642302F0E2FB3F23304639468DF838
:1040F000083001F079FC2A4602A92046642302F028
:10410000D5FBDA23304639468DF8083001F06CFCD7
:104110002A4602A92046642302F0C8FB1223304637
:1041200039468DF8083001F05FFC2A4602A9204686
:10413000642302F0BBFBD323304639468DF80830A8
:1041400001F052FC2A4602A96423204602F0AEFB8D
:10415000304639468DF8087001F046FC2A4602A91F
:104160002046642302F0A2FB4023304639468DF8F6
:10417000083001F039FC2A4602A92046642302F0E7
:1041800095FBA623304639468DF8083001F02CFC0B
:104190002A4602A92046642302F088FBA423304665
:1041A00039468DF8083001F01FFC2A4602A9204646
:1041B000642302F07BFB8D23304639468DF80830AE
:1041C00001F012FC2A4602A92046642302F06EFB8D
:1041D0001423304639468DF8083001F005FC2A4694
:1041E00002A92046642302F061FBA1233046394630
:1041F0008DF8083001F0F8FB2A4602A92046642316
:1042000002F054FBC823304639468DF8083001F0DF
:10421000EBFB2A4602A92046642302F047FB8123D8
:10422000304639468DF8083001F0DEFB2A4602A9F7
:104230002046642302F03AFB8F23304639468DF83E
:10424000083001F0D1FB2A4602A92046642302F07F
:104250002DFBD923304639468DF8083001F0C4FBD8
:104260002A4602A92046642302F020FB252330467B
:1042700039468DF8083001F0B7FB2A4602A92046DE
:10428000642302F013FBDB23304639468DF80830F7
:1042900001F0AAFB2A4602A92046642302F006FB8D
:1042A0003423304639468DF8083001F09DFB2A460C
:1042B00002A92046642302F0F9FAAF2330463946BA
:1042C0008DF8083001F090FB2A4602A964232046AD
:1042D00002F0ECFA0CB0BDE8F08100BFAFF3008053
:1042E000060B0B000105060A2DE9F04304468DB0CC
:1042F00000250126019100F095F80199204600F073
:1043000003F904F1200920460227FFF7A7FD204604
:10431000FFF76AFE05A9484649F2B858CDE9086595
:10432000CDE9067501F0C2F92A463946484601F042
:1043300039FA0C2000F096F803460B20ADF8103047
:1043400000F090F803462846ADF80C3000F08AF8EB
:1043500003462046ADF8083000F09AF8049904F1BD
:104360003C00DDE9023200F06BFB112000F07AF82E
:1043700004EB080249F2BA5324F808001046E6524A
:1043800001F048FA142000F06DF8034605A904F185
:10439000DC00ADF8143000F0A9FB132000F062F847
:1043A000034605A904F1E200ADF8143000F09EFBCD
:1043B0002046FFF719FE49F2901349F2941CDFF8EA
:1043C00060E049F29810E550144A47F6122344F889
:1043D0000CE005A9204405920B930A96CDE90656F8
:1043E000CDE9085703F002F949F2841149F280122D
:1043F0000A2384F8EC5020466550A55084F8F0302C
:10440000FFF798FD49F2C0531122E25003F010FA71
:1044100049F2BC53E0500DB0BDE8F083010601073E
:10442000010701060B4A40F207110B4B02604FF4E3
:10443000877243600623C1844285037480F8293063
:1044400070B40224054E064D80F82540C0E902658F
:1044500070BC704700070500010508050905070540
:1044600006050A061F2882B009D8084B03EB400254
:1044700013F81030507843EA002002B0704701234F
:104480000C2043EA002002B0704700BFBCFF0008C8
:1044900090ED0E0A704700BFF0B51A4D91B00021A3
:1044A0000446079505F100754FF441700022012381
:1044B0000326012705F540750691029106A9ADF87E
:1044C000240002A808953025CDE90C23CDE90E2360
:1044D000CDE90A6701F088FE40F601334FF07E56C1
:1044E000ADF80430019800F04DF80323029A03A9B7
:1044F00004F114000596CDE9035300F0DBF911B087
:10450000F0BD00BF0402040430B504462DED028B5B
:1045100083B089B3012240F201130092ADF8043058
:10452000694604F1300003F069FA204600F04CF8C7
:10453000E01C01F06BFA04F1250001F06BF904F1C5
:10454000140504F1290001F065F92046FFF7A4FFE6
:10455000284600F027FA2846B0EE408A00F01EFAFE
:10456000D0ED007AF8EE677A88EE277A84ED0E7A3D
:1045700003B0BDEC028B30BD40F201130091ADF8E9
:104580000430CDE710B584B003460124ADF8040033
:1045900003A8ADF80C30ADF80E4001F03BF9214610
:1045A00003A801F021FA204603F044F903A80021F2
:1045B00001F01AFA204603F03DF9214603A801F064
:1045C00013FA04B010BD00BF2DE9F043444C8BB08A
:1045D000A063037823B1002528460BB0BDE8F08323
:1045E000404A0A23002601276260082208932023FC
:1045F00002A9201DC4E90267C4E9042340264FF440
:10460000C07700224FF40063C4E90667C4E90823B9
:104610004FF48056002702220723C4E90A67CDE938
:1046200002230426032200230827CDE90623CDE92F
:10463000046708F049FB054600284CD14FF00108FB
:104640004FF010090126002702A94FF48052019073
:10465000201DCDE902894FF002084FF01009CDE985
:10466000046708F05BFB642003F0C2FB02A94FF46F
:104670008052201DCDE90467CDE9028904264FF060
:1046800003084FF01009002708F048FB02A94FF477
:104690008052201DCDE90467CDE9028908F03EFB78
:1046A00040F232234FF0010C042601931027019BA6
:1046B00002A94FF48052201DCDE904C3CDE9026761
:1046C00008F02CFB201D40F6060108F047FB2846A9
:1046D0000BB0BDE8F083012528460BB0BDE8F083A0
:1046E000D09F002440410052694A2DE9F0431568EB
:1046F0008FB015B10FB0BDE8F083664B01210C24DB
:10470000002611600327D3F8D4204FF683784FF0AA
:10471000020908A942F480525F48C3F8D420D3F8B4
:10472000D42002F480520092009AD3F8E02042F0A4
:104730001002C3F8E020D3F8E02002F0100201924A
:10474000019AD3F8E02042F04002C3F8E020D3F809
:10475000E02002F040020292029AD3F8E02042F0F8
:104760000802C3F8E020D3F8E02002F00802039228
:10477000039AD3F8E02042F48072C3F8E020D3F823
:10478000E02002F480720492049AD3F8E02042F010
:104790008002C3F8E020D3F8E02002F08002059206
:1047A000059AD3F8E02042F02002C3F8E020D3F8C5
:1047B000E02002F020020692069AD3F8E02042F0B0
:1047C0000402C3F8E020D3F8E0300C9403F00403B3
:1047D0000793079BCDE90A67CDE9088905F0E6FA5A
:1047E00048F23712022308A92C480C94DFF8C08045
:1047F000CDE90A67CDE9082305F0D8FA4CF2037237
:10480000022308A926480C94CDE90A67CDE90823BC
:1048100005F0CCFA40F2FF62022308A921480C946B
:10482000CDE90A67CDE9082305F0C0FA4FF60C720E
:10483000022308A91C480C94CDE90A67CDE9082396
:1048400005F0B4FA4FF63F02022308A917480C946A
:10485000CDE90823CDE90A6705F0A8FAD8F83800B1
:10486000013003F0A5F9D8F838300646581C03F09B
:10487000A7F902220746032308A930460C9408979B
:104880000B93CDE9092505F091FA0FB0BDE8F0834F
:10489000CC9F00240044025800100258001802580F
:1048A000000C025800200258001C02580014025844
:1048B000D09F002470B5164C154684B0046004F1F6
:1048C000080601AB07C986E80700D4ED047AF5EEC7
:1048D000C07A83E80700F1EE10FA15DDF7EE006A02
:1048E00086EEA77A84ED0B7A75B1204640F8145F06
:1048F00001F06AFD0346074A00201969064BE16092
:10490000E261636204B070BD012004B070BD00BFFD
:104910000CA0002400200030000000302DE9F04100
:10492000194C174686B09846046004F1080C6E4690
:1049300003AD07C98CE80700D4ED047AF5EEC07A20
:1049400086E80700F1EE10FA85E8070011DDF7EEC2
:10495000006A86EEA77A84ED0B7A57B1204640F8BC
:10496000147F01F031FD094A0169094BE160E26100
:104970006362084A0020084BC4F818802262A362D0
:1049800006B0BDE8F08100BF0CA00024002000307C
:1049900000000030003000300010003000680830A7
:1049A000704700BF0068143001F010BD024B0022B8
:1049B000C3E90522704700BF0CA00024F6EE006A90
:1049C000016060EE207A0021B7EE007A027643762D
:1049D00067EEA67A80ED020AC0ED070A80ED047A40
:1049E000C7EE276AC160416110B4002484765DF887
:1049F000044BC0ED016A70470268037E128807EE1F
:104A0000902AFBEEC87A1BB1B7EE007A77EE677A90
:104A1000D0ED056A90ED047A77EEE67A437E67EE94
:104A2000877A0BB1F1EE677A90ED030A90ED017A87
:104A300077EEC07AA7EE270A80ED030A704700BF21
:104A400030B5044685B04FF480751030ADF80820BD
:104A5000ADF80C100180A2826582E5828DED000A1E
:104A6000ADF8043000F0D6FE04F1140000F0D2FEE0
:104A70009DED000A2046019900F040F800224FF613
:104A8000FF73E261238305B030BD00BF70B5067EC1
:104A900004461030760000F099FF034676B2657E3A
:104AA00004F114001E436D0026766DB200F08EFFF7
:104AB000034620461D43657600F03CF8237E002225
:104AC00003F00303E261022B06D0627E02F00302D0
:104AD000022A00D133B170BD637E9B07FBD1012355
:104AE000E36170BD4FF0FF33E36170BD09880022C0
:104AF0000180C0F8022000F08DBE00BFB7EE007A42
:104B000001220346C7EE007A70B4002683B0C1F3D9
:104B100007250024ADF80410C660417010449D7054
:104B2000DC701A709A809A71C3ED027A03B070BC7F
:104B300000F070BE38B544790546837901306400D1
:104B400064B2B3B100F042FFB0FA80F35B092343D3
:104B5000DBB2A3F17F026B71012A0ED9FF2B07D1C3
:104B6000D5ED037A95ED027A77EE877AC5ED037A73
:104B700038BD00F02BFF43B2E9E70023EB6038BDFE
:104B800082B000230322ADF80410BDF80410827037
:104B900001800374C37002B0704700BF2DE9F04F6D
:104BA000DB4F0026DB4C8FB007F138054260037005
:104BB0009646A4F80961844603960696BE61C4F839
:104BC000FD60C4F80161C4F80561C4F82461C4E95A
:104BD0004A75C7E90066C7E90266C7E90466C4E921
:104BE0004366C4E94566C4E94766CDE90466CDE994
:104BF0000766CDE90966CDE90B6684F8FC204268BA
:104C000084F80C62002A00F091820D460868A046E4
:104C10004968EB68AA683E80A8E80F002B7C88F8FA
:104C200000302B7C84F8FD302B7C002B40F09F82E1
:104C3000DCF80430012B40F2B4812B46B64A002147
:104C400053F8119F7980D3F804809E68D868C4F81F
:104C50001190C2F804809660D0601B7C137495F8A4
:104C6000213084F8FE3095F82130002B40F083820B
:104C7000DCF80430022B40F294812B46A74A002135
:104C800053F8229FB980D3F804809E68D868C4F88E
:104C90002290C2F804809660D0601B7C137495F853
:104CA000323084F8FF3095F83230002B40F05B82D0
:104CB000DCF80430032B40F274812B46984A002123
:104CC00053F8339FF980D3F804809E68D868C4F8FD
:104CD0003390C2F804809660D0601B7C137495F802
:104CE000433084F8003195F84330002B40F0478280
:104CF000DCF80430042B40F25481A8460023894E8E
:104D000058F8440F3B81D8F80410D8F80C30D8F884
:104D100008200FC698F81030337095F8543084F896
:104D2000013195F8543013B1012384F80C32DCF8CA
:104D30000430052B40F235812B467B4A002153F885
:104D4000559F7981D3F804809E68D868C4F855903F
:104D5000C2F804809660D0601B7C137495F86530AF
:104D600084F8023195F8653013B1012384F80C32D0
:104D7000DCF80430062B40F214812B466B4A0021EC
:104D800053F8669FB981D3F804809E68D868C4F848
:104D90006690C2F804809660D0601B7C137495F80E
:104DA000763084F8033195F8763013B1012384F816
:104DB0000C32DCF80430072B40F2F3802B465C4ABF
:104DC000002153F8779FF981D3F804809E68D86852
:104DD000C4F87790C2F804809660D0601B7C13748E
:104DE00095F8873084F8043195F88730002B40F02F
:104DF000CA81DCF80430082B40F2D380A846002397
:104E00004C4E58F8880F3B82D8F80410D8F80C3074
:104E1000D8F808200FC698F81030337095F89830FD
:104E200084F8053195F89830002B40F01D82DCF8AD
:104E30000430092B40F2B5802B463F4A002153F83D
:104E4000999F7982D3F804809E68D868C4F89990B5
:104E5000C2F804809660D0601B7C137495F8A9306A
:104E600084F8063195F8A930002B40F0F981DCF880
:104E700004300A2B40F295802B46304A002153F82B
:104E8000AA9FB982D3F804809E68D868C4F8AA9013
:104E9000C2F804809660D0601B7C137495F8BA3019
:104EA00084F8073195F8BA30002B40F0D581DCF852
:104EB00004300B2B75D92B46214A002153F8BB9F98
:104EC000F982D3F804809E68D868C4F8BB90C2F811
:104ED00004809660D0601B7C137495F8CB3084F806
:104EE000083195F8CB30002B40F0A881DCF8043075
:104EF0000C2B56D9A8460023124E58F8CC0F3B83F2
:104F0000D8F80410D8F80C30D8F808200FC61BE0E9
:104F10000040003040A0002451A0002462A00024E2
:104F200073A0002484A0002495A00024A6A000243F
:104F3000B7A00024C8A00024D9A00024EAA000241F
:104F4000FBA000240CA1002498F81030337095F8D1
:104F5000DC3084F8093195F8DC3013B1012384F892
:104F60000C32DCF804300D2B1BD92B46C64A00212D
:104F700053F8DD9F7983D3F804809E68D868C4F81D
:104F8000DD90C2F804809660D0601B7C137495F8A5
:104F9000ED3084F80A3195F8ED3013B1012384F82F
:104FA0000C325FFA8EF2B9484FF480210023C4F826
:104FB00048210122C4F830010820C4F8341194F8C3
:104FC0000C12C4F8383184F84431C4E95533C4E9CB
:104FD0004F20002900F0BD8084F8453184F84C2131
:104FE000C4F85C219CF8003000200021C4E958017D
:104FF000F3B101220021013B84F86821C4E95D126C
:10500000082B0ED8DFE813F009001E012301D100A0
:10501000D600DB00E000C300CA0003234022C4E93D
:105020005B329B4803F024FB034648B1FFBEFEE71A
:10503000974884F8683103F01BFB03460028F5D13C
:1050400003A99348039303F06FFC0546002840F042
:10505000F38040F2FF73022204200021CDE90823EF
:1050600094F8FC30CDE90A01002B00F0E28006271D
:10507000DFF848B221E0022B00F0AC80012B40F0B9
:10508000FB809AF80130012B00F0F480002B814B5B
:1050900018BF002306A97E480693079702F00CFF6D
:1050A000002840F0E580013594F8FC30EDB2AB42C9
:1050B00040F2BF80784B53F825700FFA85F808EB63
:1050C000081804EB080A504600F0A4FB05EB051392
:1050D00023441B7C042B00F3AA80022B00F3A58041
:1050E00000F084806319002283F8EE2014F8083061
:1050F000002BC0D19AF80130062B00F0E380072B7B
:1051000000F0DE80022B00F0BD80032B00F0B880A1
:10511000002B00F0B380012B00F0D680042B00F0B0
:10512000D580052B5D4B18BF0023B3E75FFA8EF3E4
:10513000564D4FF480200121C4F848310823C4F8AB
:10514000382184F84421C4E95522C4E94C50C4E90B
:105150004F1301210022032384F8451184F84C21C8
:10516000C4F85C313EE7012384F80C32A0E501234A
:1051700084F80C325CE5012384F80C3278E50123D5
:1051800084F80C32B4E5012384F80C3231E640F2A5
:10519000FF134FF49072C4E95B3242E740F2FF33F1
:1051A0004FF4A072C4E95B323BE71F23A022C4E99D
:1051B0005B3236E73F23C022C4E95B3231E77F230D
:1051C000E022C4E95B322CE7FF234FF48072C4E98C
:1051D0005B3226E79AF80130042B24D0052B20D02F
:1051E000EBB1012B2E4B18BF002353E701216319AC
:1051F00008F10409002201971E462F46A1441546D6
:1052000083F8EE104846013500F004FB96F8EE30C6
:1052100009F10409AB42F5DC3D46019F66E7214BED
:1052200038E7214B36E7214B34E70221DFE7032142
:10523000DDE70FB0BDE8F08FFFBEFEE7012384F885
:105240000C3253E607236022C4E95B32E9E60F2300
:105250008022C4E95B32E4E6012384F80C3226E6BE
:10526000012384F80C3202E6012384F80C32DEE5D7
:10527000FFBEFEE75B460DE700230BE70C4B09E79B
:105280000C4B07E70C4B05E71DA100240020024052
:1052900070A100240002B025FCFF00080000B84FF8
:1052A0000008302E0004002A000180211000C010E8
:1052B000000021430080F03E0040C03A2000F0147E
:1052C000034BE7E6034BE5E6034BE3E6034BE1E67E
:1052D0008000501D0800900C000052470000844BD5
:1052E00038B5094C40F2FF724FF0011104F5987582
:1052F000284603F0C7FA284694F8FC20D4F8281171
:10530000BDE8384003F02CB840A00024034B0D2921
:10531000D3F8280198BF00EB4100704740A000245B
:10532000224B02689A4200D07047214B092000218D
:10533000D3F8D820F0B51F4C42F02002002583B0EE
:1053400094F80C624FF48067C4F8B451C4F8B851B3
:10535000AE42C3F8D82004F5CA75D3F8D83014BFCC
:1053600000224FF48072144E03F02003C4F89461BD
:1053700000260193019B4FF40053C4F8B0214FF471
:105380000062C4E966012846C4E96867C4E96A2383
:1053900003F01EFE08B1FFBEFEE704F59873C4F8E3
:1053A0007C51C4F8CC3103B0F0BD00BF00200240F6
:1053B0000044025840A0002440000240014804F08C
:1053C00097B900BFD4A1002402682DE9F84F4C4BD7
:1053D0009A4201D0BDE8F88F4A4E96F80C32002B65
:1053E000F8D096F8FC20002A76D00024371D06F568
:1053F000867506F1FC09A04616E05FFA83FA03F011
:10540000010119F80FBC384600F0EEFA381DBBF167
:10541000010FCAF3400123D896F8FC20013411375C
:105420000235A3B29A4227D919F8013F002BF5D0D3
:10543000D6F828210021D6F82C3132F814008A46FB
:105440002A7803EB041323F812002B8801339BB254
:105450002B8099F800209A42CFD8A5F80080D0E799
:1054600000F0C2FABBF1020F07F10800CAF3800195
:10547000D2D000F0B9FACFE796F80C224FF0090825
:105480004FF00009204B002A4FF000044FF48065D4
:105490004FF400604FF4005114BF00224FF48072AB
:1054A000C6F89431C6E96689C6E96845C6E96A0165
:1054B00000231648C6E96C23C6F8B83103F088FD0E
:1054C00008B1FFBEFEE796F8FC20D6F82811104878
:1054D000BDE8F84F02F044BF0B4B09240025002023
:1054E0004FF480614FF400684FF40059C6F89431CE
:1054F000C6E96645C6E96801C6E96A89D8E700BF1A
:105500000020024040A0002440000240D4A100241A
:1055100070A10024704700BF504B02689A4200D02F
:1055200070474F4BD3F8E8102DE9F04341F000519C
:105530004C4C85B0D4F84821C3F8E810D3F8E810F3
:1055400001F0005101910199D3F8E01041F00101FF
:10555000C3F8E010D3F8E03003F001030293029B9C
:1055600032F002033DD0013A012A6CD9D4F84C3113
:10557000012B0AD000223620114603F04BFA3620C8
:1055800003F082FA05B0BDE8F083D4F8483133F077
:10559000020234D0013B012BECD8334B4426402788
:1055A0000022C4F88C304FF48063304D0021C4E9F0
:1055B0002467C4E926234FF400664FF400574FF4E4
:1055C00080724FF480332846C4F8B010C4E92867CD
:1055D000C4E92A2303F0FCFC80B9E560C4F8C440A8
:1055E000C8E74FF48062032303A8ADF80C208DF8C0
:1055F0000E3000F00FF9D4F84821B4E7FEE7432657
:1056000040271B4B4FF000081A4D4FF48069A263EE
:105610004FF4807263614FF480332846C4E9066713
:105620004FF400664FF40057C4E90889C4E90A67DB
:10563000C4E90C2303F0CCFC20B9D4F84831A560B0
:10564000E464A7E7FEE74FF4A062032303A8ADF8E4
:105650000C208DF80E3000F0DDF887E70074004074
:105660000044025850A2002428040240DCA2002476
:105670001004024064A20024014804F039B800BFBD
:1056800064A20024014804F033B800BFDCA2002467
:1056900010B5054C204603F0DDFA04F58270BDE834
:1056A000104007F095BF00BF50A20024F0B53A4D5E
:1056B0000C463A4F8DB0056005F5A2760FCC0FC6AB
:1056C000236828462F60336003F068FA0023D5F87A
:1056D0004C410393C4B11622012C049217D000222E
:1056E000D5F85411D5F848319142CDE9062218BFBA
:1056F0000222059233F0020237D0013B012B3ED942
:10570000002420460DB0F0BD02230493E7E7244AAD
:105710000093C5F80C31C5F81431C5F81C31C5F833
:105720000421CDE9013302F0F3F9D5F844314BF609
:105730008031024605F58270C5F80841002B08BF8C
:105740000B46B2FBF3F3C5F8103107F0C5FD034675
:105750000028D6D12022694605F582700293009276
:1057600007F0EEFF0028BAD0CBE703A90A4803F000
:10577000A5FA78B9D5F84831013B012BC0D81022E1
:1057800003A9054803F09AFA041E18BF0124204615
:105790000DB0F0BD0124B4E750A200240074004015
:1057A000001000402DE9F0410668D6F84C5105BBC9
:1057B000D6F850310C461746002B0CBF4FF00808A6
:1057C0004FF0000831F0020305D0013C012C14D940
:1057D0002846BDE8F0811346294642463046013C42
:1057E00003F01EFA2946304603F0EEF9012CEFD8FB
:1057F00003E001252846BDE8F0813B4642461021E2
:10580000304603F00DFA3046102103F0DDF928464A
:10581000BDE8F08130B583788FB00446022B37D0D5
:10582000032B33D0012B31D000230A93E378012BD3
:105830002AD0022B28D000230B93002320460C9360
:1058400002F0B6F90546204602F0BAF9237809902D
:10585000082B13D8DFE803F01F3245586B7E91A464
:105860000500594BD3F8E02042F48072C3F8E020E1
:10587000D3F8E03003F480730893089B284609A905
:1058800004F094FA0FB030BD0B93D6E70A93CDE73E
:1058900011230A93CAE74C4B284609A9D3F8E02004
:1058A00042F00102C3F8E020D3F8E03003F0010336
:1058B0000093009B04F07AFA0FB030BD424B2846AB
:1058C00009A9D3F8E02042F00202C3F8E020D3F89F
:1058D000E03003F002030193019B04F067FA0FB07C
:1058E00030BD394B284609A9D3F8E02042F0040224
:1058F000C3F8E020D3F8E03003F004030293029BE6
:1059000004F054FA0FB030BD2F4B284609A9D3F844
:10591000E02042F00802C3F8E020D3F8E03003F0C2
:1059200008030393039B04F041FA0FB030BD264BEC
:10593000284609A9D3F8E02042F01002C3F8E0207D
:10594000D3F8E03003F010030493049B04F02EFA24
:105950000FB030BD1C4B284609A9D3F8E02042F017
:105960002002C3F8E020D3F8E03003F020030593D1
:10597000059B04F01BFA0FB030BD134B284609A954
:10598000D3F8E02042F04002C3F8E020D3F8E03042
:1059900003F040030693069B04F008FA0FB030BDF5
:1059A000094B284609A9D3F8E02042F08002C3F849
:1059B000E020D3F8E03003F080030793079B04F066
:1059C000F5F90FB030BD00BF0044025838B50546A8
:1059D00002F0EEF80446284602F0F2F801462046AE
:1059E000BDE8384004F0D4BB70B506460D4602F061
:1059F000DFF80446304602F0E3F82A1E014620464E
:105A000018BF0122BDE8704004F0C8BB2DE9F04F7B
:105A1000A44C0346ABB0204623655F7893F8008022
:105A200004F044FDE8B9012F4FF001059E490346FB
:105A300014BF4FF480124FF40002E060A560C4E987
:105A4000001592FAA2F2B2FA82F24FF48076E06187
:105A50002046013A2362C4E9042604F0BBFC034655
:105A600018B101202BB0BDE8F08F4FF0660C41F269
:105A7000883220460EA91496179313931B93CDF8E2
:105A800038C0CDE91533CDE9193304F02DFD0028D8
:105A9000E7D1992341F288320EA920460E9304F0F3
:105AA00023FD0028DDD14FF0000B4FF0010C4FF02B
:105AB000050A4FF08079249008AA21901CA929900A
:105AC00041F28833CDF870A0CDF89490CDE908BCB0
:105AD0004FF0100B4FF0010CCDE90ABC4FF0000B5A
:105AE0004FF4800CCDE92260CDE927002046CDE9B6
:105AF0000CBC04F065FE0028B3D1ADF8080013908B
