:020000040800F2
:10000000000002200D230008092300089D84000839
:100010000923000809230008092300080000000044
:10002000000000000000000000000000092300089C
:100030000923000800000000092300088D8400083F
:1000400009230008092300080923000809230008E0
:1000500009230008092300080923000809230008D0
:10006000092300080923000809230008296E000855
:10007000356E00082D600008416E00084D6E0008C6
:1000800051820008F5FF0008092300080923000831
:100090000923000809230008092300080923000890
:1000A0000923000809230008092300080923000880
:1000B0000923000809230008092300082900010872
:1000C0000923000835000108092300080923000856
:1000D00009230008257C0008D17C0008817D0008E8
:1000E0000923000809230008000000000923000874
:1000F0000923000809230008092300080923000830
:10010000092300080923000809230008092300081F
:10011000317E0008E17E0008016300080923000821
:10012000E9620008F56200080923000809230008B5
:1001300009230008092300080923000809230008EF
:1001400000000000000000000000000000000000AF
:10015000092300080923000809230008917F0008EB
:1001600041000108092300080923000809230008A9
:1001700009230008092300080923000809230008AF
:10018000092300080923000841800008F1800008C5
:10019000092300080923000809230008092300088F
:1001A000092300080923000809230008092300087F
:1001B000716B0008092300080923000809230008BF
:1001C000092300080923000809230008092300085F
:1001D000092300080923000809230008092300084F
:1001E000092300080923000809230008092300083F
:1001F000092300080923000809230008092300082F
:10020000092300080923000809230008092300081E
:10021000092300080923000809230008092300080E
:100220000923000809230008092300080000000032
:100230000923000809230008000000000923000822
:1002400009230008092300080923000809230008DE
:1002500009230008092300080923000809230008CE
:1002600009230008092300080923000809230008BE
:100270000923000809230008A181000800000000EC
:1002800009230008092300080923000800000000D2
:08029000000000000923000832
:1002C0000348044B834202D0034B03B118477047E5
:1002D0007002002470020024000000000548064956
:1002E0000B1AD90F01EBA301491002D0034B03B144
:1002F00018477047700200247002002400000000BC
:1003000010B5064C237843B9FFF7DAFF044B13B15D
:100310000448AFF300800123237010BD7002002455
:10032000000000007418010808B5044B1BB1044913
:100330000448AFF30080BDE80840CFE700000000AC
:100340007402002474180108F8B510EE104AC4F3C2
:100350000A53B3F57D7FB7EEC07A1ED227EE077B36
:10036000B3F5667F6FD327EE074B27EE043B724B46
:1003700093ED0E5B93ED106B93ED0C0BA7EE050B5D
:1003800093ED145BA4EE060B93ED126BA7EE056BD9
:10039000A6EE030BB7EEC00BF8BD40F22E4293421F
:1003A00054D8654991ED086B27EE066BBDEEC66B20
:1003B00091ED0A5B16EE103A03F500031B1613F0DD
:1003C000020F06EE903A01F1700208BF0A46D80704
:1003D000B8EEE66BA6EE457B27EE076B1AD503F069
:1003E000030301EBC30393ED005B92ED164B27EE85
:1003F000057B27EE065B92ED1A3BA5EE047B26EE0D
:10040000055B92ED184BA6EE034BA4EE057BB7EE11
:10041000C70BF8BD92ED0E4B26EE067B26EE073B92
:1004200092ED0C0B92ED105BA6EE040B92ED144BCB
:10043000A7EE050B92ED127BA6EE047BA7EE030B55
:10044000B7EEC00BF8BDB7EE000AF8BDB3F5FF6F0D
:1004500050D23A4AC4F3836002EB8003C4F316011E
:1004600052F820501E6A186941F40001C4F3C253C7
:100470009940A1FB066705FB01F33A46E0FB012327
:10048000111C43F100550020101A05F0404163EBA8
:10049000010101F06FFDAD0F294B9FED257B05EBB1
:1004A000D47441EC160B14F0020FA3F1700208BFD4
:1004B0001346E90726EE077B27EE076B1ED504F0EF
:1004C000030402EBC40494ED005B93ED164B27EE9E
:1004D000057B27EE065B93ED1A3BA5EE047B26EE2B
:1004E000055B93ED184BA6EE034BA4EE057BB7EE30
:1004F000C70BF8BDBDE8F84000F062B893ED0E3BC5
:1005000026EE065B26EE052B93ED0C7B93ED104B50
:10051000A6EE037B93ED143BA5EE047B93ED125BFB
:10052000A6EE035BA5EE027BB7EEC70BF8BD00BFDE
:10053000182D4454FB21193C18090108B80801087A
:100540008809010810B52DED028BB0EE408A0446F3
:1005500000F066F9B0EE480ABDEC028B046010BDF5
:1005600028B1F1EE407A27EE800A2220EAE7F0EE89
:10057000407A27EE800A2220E4E700BF9FED010ABF
:10058000EEE700BF000000109FED010AE8E700BFA2
:100590000000201A9FED010AE2E700BF0000007092
:1005A0009FED060AFFEE007AB7EE007A00284FF0C2
:1005B000220047FE277A87EE800AC3E7000000008A
:1005C00070EE407AB4EE400A87EEA77AF1EE10FAA8
:1005D000B0EE470A01D62120B4E7704700000000C2
:1005E000F0B510EE104A220DC2F30A03B3F57D7F79
:1005F00083B0B7EEC06A1BD226EE065BB3F5667F0A
:1006000070D326EE052B25EE021B774B93ED1A3B9C
:1006100093ED187B93ED164BA5EE037BA2EE046BD6
:10062000B0EE460BA7EE010BB7EEC00B03B0F0BD6A
:1006300040F22E4293425FD86B4991ED087B26EE43
:10064000077BBDEEC77B91ED0A5B17EE103A03F511
:1006500000031B1613F0020F07EE903A01F170022F
:1006600008BF0A46D807B8EEE77BA7EE456BB0EEA9
:10067000460B26EE067B1BD403F0030301EBC303FA
:1006800093ED006B92ED165B20EE060B20EE076BF0
:1006900092ED1A4BA6EE050B27EE066B92ED185B5A
:1006A000A7EE045BA5EE060BB7EEC00B03B0F0BDE2
:1006B00092ED0E4B27EE076B27EE063B92ED0C0BEF
:1006C00092ED105BA7EE040B92ED144BA6EE050B1A
:1006D00092ED126BA7EE046BA6EE030BB7EEC00B08
:1006E00003B0F0BD12F4FF6FA0D1B7EEC55B00EE12
:1006F000104A8DED015A99E7B3F5FF6F50D23B4A8E
:10070000C4F3836002EB8003C4F3160152F8205057
:100710001E6A186941F40001C4F3C2539940A1FB59
:10072000066705FB01F33A46E0FB0123111C43F188
:1007300000550020101A05F0404163EB010101F063
:1007400019FCAD0F2A4B9FED267B05EBD47441ECD1
:10075000160B14F0020FA3F1700208BF1346E9074D
:1007600026EE077B27EE076B1FD404F0030402EB91
:10077000C40494ED005B93ED164B27EE057B27EE4A
:10078000065B93ED1A3BA5EE047B26EE055B93ED2D
:10079000184BA6EE034BA4EE057BB7EEC70B45E75F
:1007A00003B0BDE8F040FFF70BBF93ED0E3B26EE24
:1007B000065B26EE052B93ED0C7B93ED104BA6EE1E
:1007C000037B93ED143BA5EE047B93ED125BA6EE49
:1007D000035BA5EE027BB7EEC70B27E7AFF3008004
:1007E000182D4454FB21193C18090108B8080108C8
:1007F0008809010808B5062000F046FB012001F039
:1008000081FD00BF10B5054C34B113460A460146C0
:10081000022000F0A7FD10BD204610BD65130008A2
:10082000014B1868704700BF0400002470B50D4EDE
:100830000D4D761BB61006D00024013455F8043B4C
:100840009847A642F9D1094E094D761B11F006F8DA
:10085000B61006D00024013455F8043B9847A64250
:10086000F9D170BD7C1801087C180108981801089E
:100870007C180108024B0146186800F009BA00BF55
:1008800004000024024B0146186800F0ABB900BF19
:100890000400002400000000000000000000000030
:1008A00001F0FF01102A2BDB10F0070F08D010F821
:1008B000013B013A8B422DD010F0070F42B3F6D125
:1008C000F0B441EA012141EA014122F007047FF03E
:1008D00000070023F0E80256083C85EA010586EA95
:1008E000010685FA47F5A3FA87F586FA47F6A5FAD1
:1008F00087F68EB9EED1F0BC01F0FF0102F00702DD
:1009000032B110F8013B013A83EA010313B1F8D187
:100910000020704701387047002D06BF3546033868
:10092000073815F0010F07D1013015F4807F02BFA1
:10093000013015F4C03F0130F0BC0138704700BFF2
:10094000844641EA000313F003036DD1403A41D3DA
:1009500051F8043B40F8043B51F8043B40F8043B99
:1009600051F8043B40F8043B51F8043B40F8043B89
:1009700051F8043B40F8043B51F8043B40F8043B79
:1009800051F8043B40F8043B51F8043B40F8043B69
:1009900051F8043B40F8043B51F8043B40F8043B59
:1009A00051F8043B40F8043B51F8043B40F8043B49
:1009B00051F8043B40F8043B51F8043B40F8043B39
:1009C00051F8043B40F8043B51F8043B40F8043B29
:1009D000403ABDD2303211D351F8043B40F8043BC9
:1009E00051F8043B40F8043B51F8043B40F8043B09
:1009F00051F8043B40F8043B103AEDD20C3205D3D9
:100A000051F8043B40F8043B043AF9D2043208D0D0
:100A1000D2071CBF11F8013B00F8013B01D30B8842
:100A200003806046704700BF082A13D38B078DD020
:100A300010F003038AD0C3F10403D21ADB071CBFF2
:100A400011F8013B00F8013B80D331F8023B20F85C
:100A5000023B7BE7043AD9D3013A11F8013B00F895
:100A6000013BF9D20B7803704B7843708B7883701D
:100A7000604670478842F0B40DD98B1883420AD97A
:100A8000841832B1224613F8014D02F8014D994203
:100A9000F9D1F0BC70470F2A0ED80346541E002A25
:100AA000F7D001340C44013B11F8012B03F8012F5E
:100AB000A142F9D1F0BC704740EA01039B073BD14A
:100AC000A2F110073F0901F1200606EB071601F11C
:100AD000100300F1100453F8105C44F8105C53F854
:100AE0000C5C44F80C5C53F8085C44F8085C53F860
:100AF000045C44F8045C1033B34204F11004EAD1FE
:100B00007B1C1B0112F00C0F194402F00F0503446B
:100B100015D0043DAD0803EB850C1C1F0E4656F89E
:100B2000047B44F8047F6445F9D10135AD002B44C2
:100B3000294402F00302B1E7541E0346B1E72A46F6
:100B4000ACE700BFF0B4860746D0541E002A3CD064
:100B5000CAB2034602E014F1FF3436D303F8012B86
:100B60009D07F8D1032C29D9CDB245EA05250F2CD4
:100B700045EA054533D9A4F11006360903F12007EB
:100B800007EB061703F1100242E9045542E902554A
:100B90001032BA42F8D1721C14F00C0F03EB02129F
:100BA00004F00F0613D0331F23F003030433134460
:100BB00042F8045B9342FBD106F003042CB1C9B2A6
:100BC0001C4403F8011B9C42FBD1F0BC7047344627
:100BD0001346002CF3D1F8E714460346C2E71A4641
:100BE0002646E0E700293CD038B551F8043C0C1FFC
:100BF000002BB8BFE418054600F004FC234B1A682C
:100C00002AB1A2420DD921686018824223D06260C5
:100C100028461C60BDE8384000F0F6BBA34203D86C
:100C20001A465368002BF9D111685018A04219D008
:100C300024D821686018834206D063605460284637
:100C4000BDE8384000F0E0BBD3E900030144636035
:100C500021605460F3E7D2E9000201446260216040
:100C6000D6E7704720680144501883421160E6D1EE
:100C7000D3E90003014453601160E0E70C232B60CB
:100C80002846BDE8384000F0BFBB00BF8C020024FE
:100C9000F8B5CD1C25F0030508350C2D38BF0C2503
:100CA000002D064633DBA94231D82A4F00F0AAFBBB
:100CB0003A6852B113685B1B04D43FE023685B1BA6
:100CC00029D522465468002CF8D1796800293BD0F8
:100CD0002946304600F040F8431C28D0C41C24F0BC
:100CE0000304A04205D0211A304600F035F8013047
:100CF0001DD02560304600F087FB04F10B0020F08A
:100D00000700231DC21A01D01B1AA350F8BD0C22E4
:100D100032600020F8BD0B2B05D8A242636811D0C9
:100D20005360E7E7144623601C442560E2E70C2388
:100D30003046336000F068FB0020F8BD0B2BF1D883
:100D4000536814463B60D5E7304600F005F87860FC
:100D5000BEE700BF8C02002438B5074C00230546CF
:100D60000846236001F0C0FA431C00D038BD236858
:100D7000002BFBD02B6038BD84C3002410B580212C
:100D80000446FFF785FF606440B1031F00227C30FA
:100D900043F8042F8342FBD1002010BD4FF0FF30F9
:100DA00010BD00BF436C0BB100207047E6E700BFE9
:100DB0001F2970B5054608D8436C16460C464BB142
:100DC00053F8240043F8246070BD162202604FF0EF
:100DD000FF3070BDFFF7D2FF08B96B6CF0E74FF042
:100DE000FF3070BD1F2938B521D8426C05460C462E
:100DF0006AB152F8213053B1012B16D0591C10D0D2
:100E00000025204642F824509847284638BD2846F9
:100E100000F070F8224601462846BDE8384000F050
:100E200055B816230360012038BD002038BD1623B5
:100E300003604FF0FF3038BD1F2921D838B5436C0F
:100E400005460C4683B153F8242003EB84034AB1D2
:100E5000511C10D0012A0CD0002520461D6090475F
:100E6000284638BD012038BDFFF788FF28B96B6CD4
:100E7000E9E7032038BD022038BD4FF0FF3038BD10
:100E80004FF0FF30704700BF024B01461868FFF774
:100E9000A9BF00BF04000024024B0A46014618689F
:100EA000FFF786BF04000024034B1868436C0BB1A6
:100EB0000020704762E700BF04000024024B014697
:100EC0001868FFF7B9BF00BF0400002438B50B460F
:100ED000074C0546114618460023236001F0FCF933
:100EE000431C00D038BD2368002BFBD02B6038BDDD
:100EF00084C3002401F0E8B90000000000000000F5
:100F0000A2EB0300704700BF02780B78012A28BFCC
:100F10009A42F5D16DE9044540EA0104CDE9026742
:100F20006FF0000C4FEA447212B380EA010414F02F
:100F3000070F6AD100F0070420F0070004F0030552
:100F400021F007014FEAC505F0E8042314F0040F6F
:100F5000F1E804670CFA05F462EA040266EA0406A2
:100F60000AD063EA0403624667EA0407664603E0C0
:100F7000F0E80423F1E8046782FA4CF582EA0604FB
:100F8000A4FA8CF46CBB83FA4CF583EA0705A5FA46
:100F90008CF595B950E9022351E9026782FA4CF5C4
:100FA00082EA0604A4FA8CF483FA4CF583EA070576
:100FB000A5FA8CF52543DBD09CB92DBAB5FA85F49A
:100FC00024F0070427FA04F1DDE9026723FA04F3A9
:100FD00003F0FF0001F0FF01FDE80445A0EB010074
:100FE000704724BAB4FA84F424F0070426FA04F112
:100FF000DDE9026722FA04F202F0FF0001F0FF01CE
:10100000FDE80445A0EB0100704714F0030F3CD14C
:1010100010F0030428D150F8082B51F8083B82FA4D
:101020004CF582EA0305A5FA8CF55DB950F8042C5D
:1010300051F8043C82FA4CF582EA0305A5FA8CF5D6
:10104000002DE8D02DBAB5FA85F424F0070423FA70
:1010500004F122FA04F202F0FF0001F0FF01FDE8C2
:101060000445A0EB010070474FEAC40420F00300E0
:1010700050F8082B21F0030151F8083B0CFA04F456
:1010800062EA040263EA0403C9E710F003041AD019
:10109000A1EB040120F00300E40750F8042B06D074
:1010A0000FD28B785FFAA2F4E41A06D12BB1CB7879
:1010B0005FFAB2F4E41A00D11BB920465DF8104B78
:1010C000704701F1040150F8042BCC0721F0030113
:1010D00051F8043B48D824D222F07F4482FA4CF5E0
:1010E00094EA1325A5FA8CF50AD165B951F8043BA9
:1010F00084EA0204B4EB036F0ED150F8042BEBE743
:101100004FEA132355E035F07F454DD10878FDE8CF
:101110000445C0F1000070474FEA126203F0FF037C
:1011200047E002EA1C4482FA4CF594EA1345A5FA1A
:101130008CF50AD165B951F8043B84EA0204B4EB9A
:10114000034F0CD150F8042BEBE74FEA134330E088
:1011500015EA1C4528D10B884FEA124229E04FEAD4
:10116000124203EA1C4324E002F0FF0482FA4CF529
:1011700094EA1365A5FA8CF50AD165B951F8043BD8
:1011800084EA0204B4EB032F09D150F8042BEBE7F7
:101190004FEA13630DE015F0FF0F05D10B684FEA1E
:1011A000122223F07F4304E04FF00000FDE80445E5
:1011B000704712BA1BBA82FA4CF482EA0304A4FA0A
:1011C0008CF5B5FA85F402FA04F203FA04F34FEA57
:1011D0001260FDE80445A0EB1360704700000000BA
:1011E00000000000000000000000000000000000FF
:1011F00000000000000000000000000000000000EF
:1012000090F800F06DE9024520F007016FF0000C46
:1012100010F0070491F820F040F049804FF00004EE
:101220006FF00700D1E9002391F840F000F10800C9
:1012300082FA4CF2A4FA8CF283FA4CF3A2FA8CF301
:101240004BBBD1E9022382FA4CF200F10800A4FA68
:101250008CF283FA4CF3A2FA8CF3E3B9D1E90423BC
:1012600082FA4CF200F10800A4FA8CF283FA4CF3F3
:10127000A2FA8CF37BB9D1E9062301F1200182FAAD
:101280004CF200F10800A4FA8CF283FA4CF3A2FAB3
:101290008CF3002BC6D0002A04BF04301A4612BAC1
:1012A000B2FA82F2FDE8024500EBD2007047D1E9C4
:1012B000002304F00305C4F100004FEAC50514F053
:1012C000040F91F840F00CFA05F562EA05021CBF24
:1012D00063EA050362464FF00004A9E770B5141EE7
:1012E0009AB005462BDB1A464FF402730091049125
:1012F000ADF80C3013D0013C4FF6FF761E9B0294E4
:1013000069460594ADF80E6000F05CF9421C01DA04
:101310008B232B60009B00221A701AB070BD1E9B9D
:1013200002944FF6FF7669460594ADF80E6000F022
:1013300049F9431C01DA8B232B601AB070BD8B2353
:1013400003604FF0FF30F8E710B5054C82B0009312
:1013500013460A4601462068FFF7C0FF02B010BDE1
:10136000040000242DE9F843224C25680DB36C6875
:101370001F2C3BDC984691460F46064688B1D5F8AF
:10138000880028B3D0F8003140F824900122A24010
:1013900000EB84011343022EC0F80031C1F88080B5
:1013A00010D0A31C01346C6045F823700020BDE808
:1013B000F883114E114D2560002ED8D03468C5F841
:1013C0008840D4E7D0F804311A43C0F80421E8E794
:1013D0000B4B5BB14FF48470FFF74CFA30B1002334
:1013E0006C68C0E94033C5F88800CDE74FF0FF30A6
:1013F000DDE700BF28040024F80901089C0300244D
:1014000075080008704700BF704700BF2DE9F0471E
:101410008E681D46AE420C460B68174636D880468D
:10142000888910F4906F0ED1354618462A46394601
:10143000FFF720FBA2682368961B2B44A66023605D
:101440000020BDE8F087D1E9041606EB4606A3EBC1
:10145000010906EBD6766B1C76104B44B34232463C
:1014600084BF1E463246430512D511464046FFF75B
:101470000FFC824600B34A462169FFF761FAA3894F
:1014800023F4906343F08003A38106E02E46CCE76B
:10149000404600F0B3FB824650B1A6EB09020AEBCE
:1014A00009036661C4F810A02360A2602E46BCE761
:1014B00021694046FFF796FB0C23C8F80030A3894A
:1014C00043F04003A3814FF0FF30BAE72DE9F04F1E
:1014D000936883B09046002B6DD017688D68824664
:1014E0000C460868083743E0A38913F4906F2ED0A8
:1014F000D4E9041505EB4505A0EB010B05EBD5750B
:101500000BEB06006D100130A8422A4684BF054649
:101510002A465B0536D511465046FFF7B9FB002831
:101520003AD05A4621690190FFF70AFAA289019B35
:1015300022F4906242F08002A281A5EB0B0203EB41
:101540000B00656123612060A2603546B3465A46B0
:101550004946FFF78FFAD8F80830A2682068551B73
:1015600058449E1BA5602060C8F808601EB3083769
:1015700057E90296AB46002EF9D0AE42B4D23546BA
:10158000B346E4E7504600F039FB03460028D4D1C7
:1015900021695046FFF726FB0C23CAF80030A389C7
:1015A000002243F040034FF0FF30A381C8E901223D
:1015B00003B0BDE8F08F0020C8F8040003B0BDE818
:1015C000F08F00BF2DE9F04F90468A899FB0140636
:1015D0008B46029003D50A69002A00F00B8105931F
:1015E00030238DF8323098F800308E4E00212022C2
:1015F0000B918DF831200127002B00F08480252BE2
:1016000000F0F680454603E0252B00F08680254655
:101610006B786C1C002BF7D1B4EB080A73D04246F0
:10162000534659460298FFF7F1FE01306BD00B9BF1
:101630006A7853440B93002A65D000234FF0FF32A1
:1016400001340693CDE908338DF85B301C93079283
:1016500005E0069A07FA03F313432C460693254642
:10166000052215F8011B3046FFF71AF9AA46831B1D
:101670000028EED1069BD90644BF20228DF85B20BE
:1016800021781A0744BF2B228DF85B202A2948D1E4
:10169000059A11680432002905927EDB0991617870
:1016A000A51C2E2956D0604C03222046FFF7F8F8DF
:1016B000002868D0001B069B402404FA00F0034376
:1016C000069305F10108297858488DF83010062254
:1016D000FFF7E6F8002866D0554B002B56D005AB37
:1016E00000935A46534B029806A9AFF300808146F7
:1016F000B9F1FF3F07D00B9B4B440B9398F8003098
:10170000002B7FF47CAFBBF80C305B0654BF0B980A
:101710004FF0FF301FB0BDE8F08FB4EB080A8CD05B
:101720007DE7A1F13002092A88BFA246B9D8099BFA
:1017300001E02C460135297803EB830302EB4303D8
:10174000A1F13002092AAA46F3D92E2904F1020593
:101750000993A8D19AF801102A292ED1059B9AF84D
:1017600002101A6807920433002A05930AF1030550
:101770000AF1020337DB2C4C032220469A46FFF77E
:101780008FF8002896D1A84655469CE7059B07335D
:1017900023F0070308330593ADE7494243F0020302
:1017A000099106937BE705AB00935A46214B0298BB
:1017B00006A900F0D7F881469AE7A1F1300200238C
:1017C000092A079301D923E05546697803EB83037F
:1017D00002EB4303A1F13002092A05F1010AF3D912
:1017E000023507935FE74FF0FF329A4607925AE7B8
:1017F000444622E740210393FFF74AFA039BCBF8C4
:101800000000CBF8100030B14022CBF81420E6E6FF
:10181000AA46013547E7029A0C2313604FF0FF30C8
:1018200078E700BF20180108281801082C180108C3
:10183000000000000D1400082DE9F0470C46914609
:101840000A698968DDF820808A42B8BF0A46C9F86B
:10185000002094F8431006461F4611B10132C9F822
:101860000020236899065CD5D9F800200232C9F817
:101870000020236813F0060F19461DD1E1688A1A6B
:10188000002AD8BF194617DD04F1190A002505E022
:10189000E368D9F800209B1AAB420CDD01235246C5
:1018A00039463046C047013005F10105F0D14FF00F
:1018B000FF30BDE8F087216894F84330003318BF4B
:1018C00001238A060AD5E1185A1C302081F843000A
:1018D000224494F8451082F84310023304F1430285
:1018E00039463046C0470130E1D02368A2682169FB
:1018F00003F00603042B1DD08A4226DD4FF00009B9
:10190000521A91441A34002501E04D451DDA012395
:10191000224639463046C047013005F10105F4D171
:10192000C5E713F0060F13D094F84330003318BF07
:101930000123D3E7D9F80000E3688A42A3EB000350
:1019400023EAE379DCDC002BDCDC0020BDE8F08757
:10195000E168D9F800208A1A002AD8BF194693DC1A
:10196000AAE700BF2DE9F0430C46097E85B06E2939
:10197000064617460C98984604F1430E6DD039D9A7
:10198000732900F0F68044D9752900F00481782984
:1019900040F0118178232268DFF858C284F845307E
:1019A0000168150651F8043B016040F1A180D107A0
:1019B00044BF42F020022260002B00F093801022EE
:1019C000002184F843106068A0600028C0F2C8803D
:1019D000216821F004012160002B40F0A380002841
:1019E00040F0C0807546082A00F0AC80AEEB0503DD
:1019F000236141E0632900F0E5801AD8002938D03E
:101A0000582940F0D88084F845102268DFF8E8C1F2
:101A1000C6E76F2900F0BF80702940F0CC802268B3
:101A2000DFF8D0C142F020027823226084F84530EC
:101A3000B6E7642902D0692940F0BD8022680368B6
:101A4000110603F1040557D5196805600B460029F6
:101A500059DBDFF8A4C10A22B5E70368226861698F
:101A60001D1D056015061B6802D4500600F1BD80DF
:101A70001960002375462361CDF800803B4603AA18
:101A800021463046FFF7D8FE013020D02A46236990
:101A900039463046C047013019D022680398E368C0
:101AA000920719D51A1A002A16DD04F11909002522
:101AB00004E0E36803981A1AAA420DDD01234A469E
:101AC00039463046C047013005F10105F1D14FF0EC
:101AD000FF3005B0BDE8F0839842B8BF184605B0A6
:101AE000BDE8F083226822F020022260102267E71E
:101AF000500648BF9BB25AE75106A5D5B3F900304E
:101B000005601946A3E76168A1602D200029C3F193
:101B1000000384F8430002DB22F004022260DFF8B5
:101B2000D8C00A22754600E00B46B3FBF2F102FB77
:101B3000113093421CF8000005F8010DF4D2082A78
:101B40007FF454AF2368DB077FF550AF62682369E9
:101B50009A423FF74BAF302305F8013C013D45E782
:101B6000002BDFD19CF8003084F8423004F14205AC
:101B700039E703686268191D01601D680021284665
:101B8000FEF78EFE002832D0401B606020610023EB
:101B900084F8433070E72268036812F0800F03F185
:101BA00004051AD01B6805606F290CBF08220A22A1
:101BB000DFF844C004E7012384F84210236104F1F4
:101BC0004205E4E703681A68191D0123016004F166
:101BD000420584F842202361D9E712F0400F0DBF7F
:101BE0001B6805601B880560DEE7198041E76068B7
:101BF000CCE700BF481801083418010809B3F8B54C
:101C00001446CAB106460D4600F01EF8A04202D3A3
:101C10002F463846F8BD21463046FFF739F80746CB
:101C20000028F6D022462946FEF78AFE304629468D
:101C3000FEF7D8FF3846F8BD2746FEF7D3FF3846F3
:101C4000F8BD1146FFF724B851F8043C181F002BCB
:101C5000BCBF0B58C018704781F0004102E000BFC4
:101C600083F0004330B54FEA41044FEA430594EA5C
:101C7000050F08BF90EA020F1FBF54EA000C55EA97
:101C8000020C7FEA645C7FEA655C00F0E2804FEA68
:101C90005454D4EB5555B8BF6D420CDD2C4480EA4A
:101CA000020281EA030382EA000083EA010180EA7A
:101CB000020281EA0303362D88BF30BD11F0004FC8
:101CC0004FEA01314FF4801C4CEA113102D04042FE
:101CD00061EB410113F0004F4FEA03334CEA133339
:101CE00002D0524263EB430394EA050F00F0A78051
:101CF000A4F10104D5F1200E0DDB02FA0EFC22FA4C
:101D000005F2801841F1000103FA0EF2801843FA3F
:101D100005F359410EE0A5F120050EF1200E012A30
:101D200003FA0EFC28BF4CF0020C43FA05F3C0186E
:101D300051EBE37101F0004507D54FF0000EDCF1E7
:101D4000000C7EEB00006EEB0101B1F5801F1BD390
:101D5000B1F5001F0CD349085FEA30004FEA3C0C94
:101D600004F101044FEA445212F5800F80F09A808A
:101D7000BCF1004F08BF5FEA500C50F1000041EB8E
:101D8000045141EA050130BD5FEA4C0C404141EB92
:101D90000101013C28BFB1F5801FE9D291F0000F8D
:101DA00004BF01460020B1FA81F308BF2033A3F13C
:101DB0000B03B3F120020CDA0C3208DD02F1140C33
:101DC000C2F10C0201FA0CF021FA02F10CE002F16E
:101DD0001402D8BFC2F1200C01FA02F120FA0CFC67
:101DE000DCBF41EA0C019040E41AA2BF01EB0451B0
:101DF000294330BD6FEA04041F3C1CDA0C340EDCAE
:101E000004F11404C4F1200220FA04F001FA02F3F0
:101E100040EA030021FA04F345EA030130BDC4F1AE
:101E20000C04C4F1200220FA02F001FA04F340EAA3
:101E30000300294630BD21FA04F0294630BD94F054
:101E4000000F83F4801306BF81F480110134013D3B
:101E50004EE77FEA645C18BF7FEA655C29D094EAAC
:101E6000050F08BF90EA020F05D054EA000C04BF2A
:101E70001946104630BD91EA030F1EBF0021002015
:101E800030BD5FEA545C05D14000494128BF41F0B4
:101E9000004130BD14F580043CBF01F5801130BD18
:101EA00001F0004545F0FE4141F470014FF00000A3
:101EB00030BD7FEA645C1ABF194610467FEA655C54
:101EC0001CBF0B46024650EA013406BF52EA0335F6
:101ED00091EA030F41F4002130BD00BF90F0000FE4
:101EE00004BF0021704730B54FF4806404F1320420
:101EF0004FF000054FF0000150E700BF90F0000FD9
:101F000004BF0021704730B54FF4806404F13204FF
:101F100010F0004548BF40424FF000013EE700BFCF
:101F200042004FEAE2014FEA31014FEA02701FBF5F
:101F300012F07F4393F07F4F81F06051704732F091
:101F40007F4208BF704793F07F4F04BF41F40021E8
:101F5000704730B54FF4607401F0004521F0004146
:101F60001CE700BF50EA010208BF704730B54FF0D0
:101F700000050AE050EA010208BF704730B511F0D1
:101F8000004502D5404261EB41014FF4806404F109
:101F900032045FEA915C3FF4D8AE4FF003025FEA8F
:101FA000DC0C18BF03325FEADC0C18BF033202EB13
:101FB000DC02C2F1200300FA03FC20FA02F001FA6D
:101FC00003FE40EA0E0021FA02F11444BDE600BF10
:101FD00053B94AB9002908BF00281CBF4FF0FF3190
:101FE0004FF0FF3000F06EB9ADF1080C6DE904CE92
:101FF00000F006F8DDF804E0DDE9022304B07047E4
:102000002DE9F047089D04468C46002B40F0838064
:102010008A42174647D9B2FA82F242B1C2F1200091
:1020200024FA00F09140974040EA010C94404FEAB6
:102030001748230CBCFBF8F61FFA87FE08FB16C1F5
:1020400043EA014306FB0EF1994209D9FB1806F158
:10205000FF3080F01981994240F21681023E3B44E4
:102060005B1AA4B2B3FBF8F008FB103344EA034454
:1020700000FB0EFEA64509D93C1900F1FF3380F0A4
:102080000581A64540F2028102383C4440EA064000
:10209000A4EB0E0400261DB1D4400023C5E9004383
:1020A0003146BDE8F08702B9FFDEB2FA82F2002ABB
:1020B00050D1CB1B4FEA174E1FFA87F80126B3FB0E
:1020C000FEFC210C0EFB1C3341EA034108FB0CF320
:1020D0008B4207D979180CF1FF3002D28B4200F203
:1020E000E9808446C91AA3B2B1FBFEF00EFB1011C1
:1020F00043EA014408FB00F8A04507D93C1900F168
:10210000FF3302D2A04500F2D9801846A4EB0804A0
:1021100040EA0C40BFE78B4209D9002D00F0B180A6
:102120000026C5E9000130463146BDE8F087B3FA24
:1021300083F6002E4AD18B4202D3824200F2B8804D
:10214000841A61EB030101208C46002DA8D0C5E95B
:10215000004CA5E7C2F1200320FA03F6974001FAEC
:1021600002F04FEA174ED9403043030CB1FBFEF6A4
:102170001FFA87F80EFB161143EA014306FB08F12C
:10218000994204FA02F409D9FB1806F1FF3C80F0E9
:102190008D80994240F28A80023E3B445B1A81B2B4
:1021A000B3FBFEF00EFB103341EA034100FB08F3E2
:1021B0008B4207D9791800F1FF3C73D28B4271D959
:1021C00002383944CB1A40EA064678E7C6F1200CBB
:1021D00003FA06F422FA0CF31C4320FA0CF701FA76
:1021E00006F34FEA144E21FA0CF11F433B0CB1FBEE
:1021F000FEF91FFA84F80EFB191143EA014109FBAD
:1022000008FA8A4502FA06F200FA06F308D96118BC
:1022100009F1FF3048D28A4546D9A9F10209214483
:10222000A1EB0A01BFB2B1FBFEF00EFB101147EAB1
:10223000014700FB08F8B84507D9E71900F1FF315D
:102240002ED2B8452CD90238274440EA0940A7EBE2
:102250000807A0FB02894F45C64649461AD317D046
:102260005DB1B3EB0E0267EB010707FA0CFCF2401D
:102270004CEA0202F740C5E9002700263146BDE8D6
:10228000F0872E4628460BE70646E9E61846FDE6A7
:102290004345E5D2B8EB020E69EB04010138DFE7F4
:1022A0000846D2E760468DE78146B9E7664675E79E
:1022B00030464AE7ACF1020C394413E702383C449B
:1022C00024E700BF704700BF024B58221A604FF04E
:1022D000FF30704784C30024024B58221A604FF02D
:1022E000FF30704784C30024044A05491368002B5B
:1022F00008BF0B4618441060184670472C04002491
:1023000088C30024FEE700BFFEE700BF0D4B0E4A66
:10231000934206D00D4951F8040B43F8040B934245
:10232000F9D10B4B0B4A934204D0002143F8041B14
:102330009342FBD106F034FAFEF778FA02F008FA7D
:10234000FEE700BF00000024700200249C18010872
:102350007002002488C30024704700BF704700BF8C
:10236000494200F1130300F21342C9B203F8011FFE
:102370009342FBD1704700BF4020704780207047D8
:10238000F8B5D0E900560746B5420DD005F108046E
:1023900054F8080C1835A04204F1180401D00EF0CE
:1023A00039F8AE42F4D13E6816B130460EF032F83C
:1023B0003846F8BD10B5044640F214410EF02CF832
:1023C000204610BDF0B5044600F1080783B008466A
:1023D00027600E46FEF714FF0F28054601900ED821
:1023E000012809D133782372019B002122682046FD
:1023F0006360D15403B0F0BD0028F5D008E000229E
:1024000001A920460EF0C2F8019B07462060A36098
:102410002A4631463846FEF793FAE5E72DE9F041C2
:10242000804600F51074D4E90D57BD4228460DD002
:1024300005F1080656F8080C1835B04206F11806E2
:1024400001D00DF0E7FFAF42F4D1606B08B10DF0A1
:10245000E1FFE06904F12403984201D00DF0DAFFB6
:10246000606804F10C03984201D00DF0D3FF44459D
:10247000A4F1400301D01C46D5E72046BDE8F08119
:102480002DE9F041B02582B000F1080700F11006F7
:1024900000F11404002130468DF8075001358846BC
:1024A00004F0DAF8642301220DF10701384605F043
:1024B00035F8414630468DF8078004F0CDF801220A
:1024C00064230DF107013846EDB205F027F810231B
:1024D000414630468DF8073004F0BEF864230122EF
:1024E0000DF10701384605F019F80121304604F0D6
:1024F000B3F88022214664233846144405F00EF8D0
:10250000B82DC7D102B0BDE8F08100BF2DE9F04F72
:1025100085B0A1F12004009104A99DF8388001E95B
:102520000C00E3B25E2B00F29480036881465C4AA3
:10253000DB689DF8086093429DF8095040F0938055
:102540008020B9F804303344834200F38280D9F804
:102550000030544A9B68934240F087804020B9F88D
:1025600006104B190191834273DC002D00F0888026
:1025700005FB04F4039A6FF00043B9F804A0254466
:10258000A2F1020B23440BEB450B0D4602EB430E6D
:102590003EF8024FA6B305F007030127E8084146BD
:1025A0009F4000220AEBC0137FB24B4409EBC010DE
:1025B0006FEA070CB8460F460CE07F2906D83F2D7E
:1025C00004D8197DA7B148EA010119750132013318
:1025D000964214D004FA02F111F4004FA3EB00016B
:1025E000EBD17F29F2D83F2DF0D8197D002FEAD00A
:1025F00001320CEA010101339642D974EAD1B8469E
:10260000F34505F10105C3D1D9F800300AEB060402
:102610002349DA68A4B28A422DD1802084421CD298
:102620009B68204AA9F80440934221D14020019B95
:10263000834207D3D9F800301A4A9B68934229D1C4
:102640003F230193DDE90003A9F8063005B0BDE89A
:10265000F08F002005B0BDE8F08FDA6810498A429B
:1026600011D17F24DCE798476BE74846984776E727
:1026700048469847DBE748469047D9F80030CDE711
:10268000B9F804A0C0E7484690470138D9F80030AF
:1026900084B2C5E748469847013883B20193D1E731
:1026A0007D230008792300087F2921D83F2A1FD8DD
:1026B00010B473B9D308012402F0070201EBC3136D
:1026C0009440C1180A7D22EA04020A755DF8044BA1
:1026D0007047D408012302F0070201EBC41403FA87
:1026E00002F201190B7D1A430A755DF8044B70471D
:1026F000704700BF2DE9F04F89B08B4691F80090EC
:102700009DF8484008A9049401E90C00B9F1000FB4
:1027100000F0B7809DF8193080469DF818A04D460E
:102720000193079B0593A5F12004E3B25E2B00F211
:10273000AC80D8F80030654ADB68934240F0A7804F
:102740008020B8F804305344834200F39E80D8F8C8
:1027500000305F4A9B68934240F09C804020B8F86C
:102760000610019A00918B18834200F38E80104668
:10277000002A00F09A8013466FF00046B8F8047003
:1027800003FB04F3059CBE46CDF80CB01E44A21E0C
:102790000344574604EB4606DDF8109002EB430372
:1027A00002959B4636F802AFA7B3012401F0070259
:1027B000C8080EF1140304FA02F2744603EBC013C6
:1027C000002052B243446FEA020C0EE07F2C07D87F
:1027D0003F2905D81D78B9F1000F12D015431D709F
:1027E000013001330134B84214D00AFA00F52D0447
:1027F000ECD47F2CF4D83F29F2D81D78B9F1000F22
:10280000ECD001300CEA050501330134B84203F87D
:10281000015CEAD15E4501F10101C3D1BA46029DD6
:102820007746DDF80CB0D8F8002057442749D36824
:10283000BFB28B4234D18020874204D3D36823496E
:102840008B423BD17F279368214AA8F804709342BA
:1028500023D14020009B834207D3D8F800301C4A84
:102860009B68934224D13F230093009BA8F8063035
:102870009BF80000A84205D11BF8015F002D7FF4F2
:1028800052AF002009B0BDE8F08F0025F0E74046C8
:10289000984756E74046984761E740469847D9E74A
:1028A00040469847D8F80020C6E7B8F80470BAE761
:1028B00040469847013883B20093D6E74046984790
:1028C0000138D8F8002087B2BDE700BF7D2300089B
:1028D000792300082DE9F04F83B05E1A0C9F9DF814
:1028E0003480A7EB020EBEF1000FB8BFCEF1000E90
:1028F0008B428CBF4FF001094FF0FF39002EB8BF5B
:1029000076429742A6EB0E044FD84FF0FF357F2B4F
:10291000019514D83F2F12D8FD0807F0070C4FF08F
:10292000010A03EBC515B8F1000F45D005440AFABA
:102930000CFC95F814A04CEA0A0C85F814C09742D8
:1029400001D18B4229D0CEF1000C7F2914D83F2A27
:1029500012D8D5084FF0010B02F0070A01EBC5159C
:102960000BFA0AFA054495F814B0B8F1000F17D025
:102970004AEA0B0A85F814A0BCEB440F4FEA440561
:1029800002DAA4EB0E044944AE4202DD019D344458
:102990002A449942D9D19742D7D103B0BDE8F08FEC
:1029A0002BEA0A0A85F814A0E6E701257F2B01959A
:1029B000C9D83F2FB0D9C6E705440AFA0CFA9742A6
:1029C00095F814C02CEA0A0C85F814C0B9D0BAE7FF
:1029D0002DE9F04F2DED068B85B01C460F46904635
:1029E0009DF8583003900293159B002BC0F2F281A2
:1029F000149A134406EE103ADDED147AB8EEC66B65
:102A00009FEDD54BB8EEE77B9FEDD55B27EE047BC2
:102A100026EE046B87EE050B86EE05ABF7EEC08B5A
:102A2000B0EE680AFDF790FCB7EECAAB07EE904A2D
:102A3000B0EE408AB0EE680AF8EE679AFDF7D0FD76
:102A4000F0EE408AB0EE4A0AFDF77EFCB0EE409A06
:102A5000B0EE4A0AFDF7C4FD68EEE98A20EE690A85
:102A600029EE888A29EE899A70EE687AF0EE006A7B
:102A700039EE487A67EEA77AE7EE077AF4EEE67A5F
:102A8000F1EE10FA06D5159BB42B40F3EE804FF013
:102A9000010E01E04FF0000E0126C4F101033A4699
:102AA0006042B34000243146374694460196BEF159
:102AB000000F6AD1424206EE904A614207EE102AA8
:102AC000F8EEE66A07EE901A159AB8EEC77A66EE47
:102AD000884AB42A26EE896A06EE900A27EE284A2A
:102AE000F8EEE77AF8EEE66A74EEC43A67EE885AD2
:102AF00026EEA85A67EE897A27EE007A66EE806A9B
:102B0000F5EEC03A40F3DC80F1EE10FA00F14D81B1
:102B100076EE473A74EEC54AF5EEC03AF1EE10FA99
:102B2000F5EEC04ACCBF01220022F1EE10FA01926C
:102B300000F1458136EE666A35EEC55AB5EEC06ADB
:102B4000F1EE10FAB5EEC05ACCBF01210021F1EE32
:102B500010FA00F13D8177EEE66AF5EEC06AF1EE1B
:102B600010FACCBF0126002675EEC45AF5EEC05A05
:102B7000F1EE10FA00F1178177EEC77AF5EEC07A20
:102B8000F1EE10FACCBF01270027019AF2B1ACEBAD
:102B9000000904EB0805B9F17F0F17D83F2D15D8B0
:102BA0004FEAD50A4FF0010B05F00705029A09EB31
:102BB000CA190BFA05F5002A00F0C280039A914465
:102BC00099F814B045EA0B0589F81450F1B100EBFF
:102BD0000C0904EB0805B9F17F0F17D83F2D15D864
:102BE0004FEAD50A4FF0010B05F00705029A09EBF1
:102BF000CA190BFA05F5002A00F08E80039A914459
:102C000099F814B045EA0B0589F81450EEB100EBC1
:102C10000C09A8EB0405B9F17F0F16D83F2D14D885
:102C20004FEAD50A4FF0010B05F00705029A09EBB0
:102C3000CA190BFA05F5002A65D0039A914499F850
:102C400014B045EA0B0589F81450D7B99C4216DB3D
:102C5000013403EB4405C44205F101054FD098420D
:102C600008DB2B4600287FF722AF05B0BDEC068BB2
:102C7000BDE8F08F013005EB40030133F2E71D465C
:102C8000EDE7ACEB0009A8EB0405B9F17F0FDDD847
:102C90003F2DDBD84FEAD50A4FF0010B05F00705B1
:102CA000029A09EBCA190BFA05F5002A3FD0039ADC
:102CB000914499F814B045EA0B0589F81450C5E71A
:102CC000F1EE10FA64D4CDF804E074EEC54AF5EEE6
:102CD000C04AF1EE10FA51D4002135EEC55AB5EED6
:102CE000C05AF1EE10FA3FD4002675EEC45AF5EE44
:102CF000C05AF1EE10FA3FF53FAF002745E7984282
:102D0000B8DB0023ABE7039A914499F814B02BEA9F
:102D1000050589F8145098E7039A914499F814B07E
:102D20002BEA050589F81450002E8ED06FE7039A20
:102D3000914499F814B02BEA050589F8145085E7F9
:102D4000039A914499F814B02BEA050589F81450B8
:102D500000293FF45BAF3AE77A008BFCFA21094087
:102D6000000000000080664077EEE66AF5EEC06A7B
:102D7000F1EE10FACCBF01260026B6E736EE666A01
:102D8000B5EEC06AF1EE10FACCBF01210021A4E734
:102D900076EE473AF5EEC03AF1EE10FACCBF0122DA
:102DA0000022019291E70127EFE674EEC54A012265
:102DB0000192F5EEC04AF1EE10FA7FF5BBAE35EEAA
:102DC000C55A0121B5EEC05AF1EE10FA7FF5C3AE37
:102DD0000126C9E6DDE91423134406EE102A1493F4
:102DE000159B5B42159307E62DE9F04F0C468BB01F
:102DF0001146904609901D469DF8580011F8012B88
:102E00000890DDE9146332B1002211F8010B0132A0
:102E10000028FAD192B22978687811FB02F201B247
:102E200012B222EAE272082B00F2AD81DFE813F061
:102E3000000112011E013201400150016B017801B5
:102E400009003788B088B6F906300744002BA7EB95
:102E50000207BFB2C0F2FC80B6F802C009980CEBC2
:102E60006306034607808280D980A6EB51018EB2AB
:102E70005E80B64A236811460192DA688A4240F0C1
:102E80008F818020B84205D8DA6801998A4240F0E3
:102E90009A817F279B68AE4AA7809342039240F0B5
:102EA0008A814020B04206D82368039A9B689342E7
:102EB00040F084813F266B78E680049398F80060A8
:102EC0006B6895F800B00793002E00F0AD80A6F176
:102ED0002005EBB25E2B00F234812368019ADB6897
:102EE000934240F030818020A3885B449842C0F236
:102EF00028812368039A9B68934240F02B814020ED
:102F0000E188049A02918B189842C0F21A81104607
:102F1000002A00F0298113466FF00047B4F804C07E
:102F200003FB05F3079DCDF81880AA1E1F44034438
:102F3000DDF8209005EB4707059602EB4303224698
:102F40005C469846934637F802AFA4B3012501F0DA
:102F50000702C8080CF1140305FA02F2654603EBF8
:102F6000C013002052B25B446FEA020E0EE07F2DC8
:102F700007D83F2905D81E78B9F1000F12D01643A3
:102F80001E70013001330135844214D00AFA00F674
:102F90003604ECD47F2DF4D83F29F2D81E78B9F14D
:102FA000000FECD001300EEA0606013301358442F1
:102FB00003F8016CEAD1B84501F10101C3D15B46C8
:102FC000059EA346DDF818801C462268DC44019962
:102FD000D3681FFA8CF58B4240F0C2808020854276
:102FE00005D3D36801998B4240F0C7807F25936851
:102FF000039AA580934240F0B0804020029B834218
:1030000007D32368039A9B68934240F0B0803F2324
:103010000293029BE38098F80030B34204D118F881
:10302000016F002E7FF453AF09980BB0BDE8F08F0D
:10303000B6F9040037880028B6F90630B8BF013069
:10304000002B07EB6007A7EB6207BFB2BFF604AF28
:10305000013301E7B6F90070099BB6F902601F80E1
:10306000BFB25E80B6B29A80D98002E7B6F904306A
:103070003788002BB6F90260B8BF013307EB63074E
:10308000099B9A80A7EB62025E80B6B297B2D980A4
:103090001F80EEE6B3883788B6F902601F44099BAB
:1030A0009A80BA1A5E80B6B297B2D9801F80E0E6E5
:1030B0007388B6F806C0B6F900709C44099BACEB67
:1030C00000001F809A80BFB286B2D9805E80D0E6B1
:1030D000B6F904C03788BCF1000F7388B6F806E073
:1030E000B8BF0CF1010C099E07EB6C07B2800EEB28
:1030F0000306A7EB6202301A099B97B286B2D98009
:103100001F805E80B5E6B6F804C037887388B6F8CD
:1031100006E06744099EB2800EEB0306BA1AEAE79E
:10312000B6F90630B6F90000002BB6F802C0099EC9
:1031300087B2B8BF013330800CEB6306099B184699
:1031400091E6002667E720469847CDE67D230008F4
:103150007923000820469847D2E6204698474DE755
:103160002046984722683AE7B4F804C02DE7204685
:103170009847013883B202934BE7204698470138BD
:10318000226885B233E723680026124FDA6809996E
:10319000BA4201970E804E808E80CE8004D0374692
:1031A0002046904723686DE69B680B4AA6809342B1
:1031B00003923FF480AE2046984773E62046984736
:1031C000013886B277E6204690470138236887B2F7
:1031D00060E600BF7D230008792300082DE9F04F49
:1031E00087B09DF84860109C9DF8445001969EB3AE
:1031F00099422ED89A46A24228D87F29164694BFD3
:103200000023012308E09CF814904EEA090E8CF884
:1032100014E00136B44219D33F2EFAD8002BF8D16E
:103220004FEAD60C06F0070E4FF0010901EBCC1C5B
:1032300009FA0EFE8444002DE5D19CF814B0013645
:103240002BEA0E08B4428CF81480E5D201318A458D
:10325000D1D207B0BDE8F08FA3EB0108B8F1000FA1
:10326000B8BFC8F10008994280F054813F2A4FF05E
:10327000010994BF002601267F2B029694BF0027E8
:1032800001270097DEB9D7B9002D00F0588100263C
:103290004FEAD20E4FF0010C02F0070703EBCE1EEF
:1032A000029600260CFA07F700960EEB000696F839
:1032B00014C047EA0C073775994200F09781C4465D
:1032C00016460F467F2F15D83F2E13D84FEAD60E3D
:1032D0004FF0010B06F0070A07EBCE1E0BFA0AFAB5
:1032E00086449EF814B0002D00F045814AEA0B0A8E
:1032F0008EF814A05FEA4C0E18BF4F44F04501DD74
:10330000C444013EBB42DDD1B242DBD1002604966B
:10331000A4EB0209B9F1000FB8BFC9F100093F2CB5
:1033200094BF00260126A242C9F100080396C0F00E
:103330003181002E40F05381009E002E40F04F81DD
:103340004FF0FF360096002D00F02C8100264FEA4A
:10335000D40E4FF0010C04F00707039603EBCE16D2
:103360000CFA07F7064496F814C047EA0C073775BD
:10337000A24200F03E81C44616461F4605927F2FAA
:1033800015D83F2E13D84FEAD60E4FF0010B06F09A
:10339000070A07EBCE1E0BFA0AFA86449EF814B011
:1033A000002D00F0ED804AEA0B0A8EF814A0B8EB6D
:1033B0004C0F4FEA4C0E02DAACEB090C013FBEF1A8
:1033C000000F01D0009A1644BB42D8D1B442D6D1E6
:1033D000059A7F29A1EB030E94BF4FF000094FF02F
:1033E000010999428CBF4FF001084FF0FF38BEF140
:1033F000000FB8BFCEF1000EB9F1000F13D1039E3C
:103400008EB9E6084FF0010C04F0070701EBC61671
:103410000CFA07F7064496F814C0002D00F0DB8084
:1034200047EA0C073775049E2EBB774626467F2B4E
:1034300015D83F2E13D84FEAD60C4FF0010B06F0EB
:10344000070A03EBCC1C0BFA0AFA84449CF814B06C
:10345000002D00F09A804AEA0B0A8CF814A05FEA6B
:10346000470C18BF4344E64501DD7744013E9942CD
:10347000DDD1B442DBD1A2EB040EA2428CBF4FF0EF
:1034800001084FF0FF38BEF1000FB8BFCEF1000EBB
:10349000CEF1000CB9F1000F0FD1029B6BB9D3082C
:1034A00002F00707012601EBC313002D00F08B800B
:1034B0000344BE401F7D3E431E75019B002B7FF4DD
:1034C000C8AE66460B467F2B13D83F2C11D8E708B1
:1034D00004F0070A4FF0010903EBC717002D40D095
:1034E000074409FA0AF997F814A049EA0A0987F883
:1034F0001490BCEB460F4FEA460702DAA6EB0E0625
:10350000013B07B144449942DDD1A242DBD107B06F
:10351000BDE8F08F7F2B4FF0FF3994BF00260126C6
:103520003F2A009694BF002701270297002E7FF4C0
:10353000C3AE002F7FF4C0AE002D7FF4A8AED60836
:103540004FF0010C02F00707029503EBC616009539
:103550000CFA07F7064496F814C02CEA07073775EB
:10356000AAE6074409FA0AFA97F8149029EA0A0920
:1035700087F81490BDE72BEA0A0A8EF814A0B9E682
:103580002BEA0A0A8EF814A011E72BEA0A0A8CF833
:1035900014A064E73EBB009E2EBB01260096002DC2
:1035A0007FF4D4AEE6084FF0010C04F00707039552
:1035B00003EBC6160CFA07F7064496F814C02CEA7B
:1035C00007073775D4E6034406FA07F71E7D26EA97
:1035D00007061E7571E72CEA0707377523E74FF0DA
:1035E000FF360096C4E601260096C4E6012604963E
:1035F0008EE601260196ECE6F8B5D0E90D560446B4
:10360000B5420DD005F1080757F8080C1835B84237
:1036100007F1180701D00CF0FDFEAE42F4D1666B45
:1036200016B130460CF0F6FEE06904F1240398422E
:1036300001D00CF0EFFE606804F10C03984201D059
:103640000CF0E8FE2046F8BD2DE9F0410A6801F1D2
:103650000C030C46496805460260994240684ED00A
:1036600005F10C029042A268C5E9011242D0E1685E
:10367000EA68E96000283FD06060E260002304F15E
:103680002402A3600370E169E869914244D005F126
:1036900024039842236AC5E907134AD0616A6B6A1A
:1036A0006962002847D0E0616362002323620370EF
:1036B000D5E90D68D4E90D2146456A63E26BC5E999
:1036C0000E12C4E90D33E3630DD006F1080437464A
:1036D00054F8080C1837844204F1180401D00CF097
:1036E00099FEB845F4D116B130460CF093FE284649
:1036F000BDE8F081E268EA6018466360BEE7A26850
:103700002AB1012A20D0FDF71BF9A26868680023BE
:10371000AA6083546068B1E7226A2AB1012A0DD0F9
:10372000FDF70EF9226AE86900232A628354E069F2
:10373000BBE7636A6B621046E261B6E794F8243037
:103740000370226AE869EFE7237B0370A268686868
:10375000DDE700BFF8B5394C204601F08DF9204671
:1037600001F09EF9364B1978D1B93648A56D02683B
:103770002A44092A48DC002AD8BF0A46026094F885
:1037800041203148A2F17F02B2FA82F252091A7046
:1037900001F0D8FF30BB2D4801F0D4FF10BBF8BDBD
:1037A000A26D002A33DD274A294E1268294806EB0C
:1037B00082159201D5E90D71B558C91B0135C910A3
:1037C00000FB01F1B5FBF1F001FB1051B15094F891
:1037D00041201D487F3A18BF01221A7001F0B2FF44
:1037E0000028D8D01C481D4902681D4D01321D4CCF
:1037F00081FB0231D317C3EB610303EB8303D31ABD
:10380000EA5C03602270F8BD09220260B7E7DED0EF
:103810000C4A0F4811688D0100EB81114259013AA1
:10382000002A4251D3DA0B4AD1E90D16711AC91098
:1038300002FB01F2013A4251C9E700BF2007002410
:10384000980400241C070024FC070024020800241C
:103850009C040024ABAAAAAAE49C002467666666BE
:10386000EC9C0024E89C0024F8B51F4F00211F4D5C
:103870003B681F4E05EB83031E4C3046D3ED006AB8
:103880002DED028BF8EEE66A9FED1B8AF2EE088AB8
:1038900086EEA87A27EE087AB8FE477ABCEEC77A99
:1038A00017EE103A9AB202F0B5FD3B68012130469E
:1038B00005EB830393ED007AB8EEC77AC7EE287A5A
:1038C00067EE887AF8FE677AFCEEE77A17EE903AB0
:1038D0009AB202F09FFD2178084802F0BDFE002355
:1038E000BDEC028B2370F8BDE49C0024F89C0024FE
:1038F00040070024E89C0024CDCC4C44D89C0024F4
:1039000070B5054682B00E4602B141B3941B0F2C30
:10391000019411D8012C286808D133780370002352
:10392000019C28686C60035502B070BD64B9002327
:103930006C60035502B070BD002201A928460CF04E
:1039400025FE019B2860AB6022463146FCF7F8FF5C
:10395000019C286800236C60035502B070BD0148CB
:103960000CF009FEFC0901082DE9F843551A204C1A
:103970000646204BE81004FB00F49C4235D80F4665
:1039800090461CB128460CF049FD04466319B84521
:103990003460B36026D0183D174B183704F108087F
:1039A000ED0803FB05F525F0604505EB450904EB43
:1039B000C90909F1200957F8181CA8F1080057F89F
:1039C000142C4FF0000348F8088C08F118080A443A
:1039D0001837FFF795FFC845EDD1013505EB4505D3
:1039E00004EBC5047460BDE8F88304480CF0C6FD20
:1039F000ABAAAAAA55555505ABAAAA0A280A0108D6
:103A00002DE9F04FB74849F2A2164FF0070BDFF847
:103A1000ACE34FF60F0C002449F2AC1349F29412B8
:103A200049F29C1149F2A41500F806B049F2901A27
:103A3000AD4E49F29818DFF8889349F2A017C9B043
:103A400040F801E020F807C0465144ADA749ADF168
:103A5000100640F80290C450A54A44610462C0F8C0
:103A6000E84040F80A4040F808400CF059FCA14AF0
:103A7000A14B92E8030083E80300A0496846FEF7E3
:103A8000A1FC9F4906A8FEF79DFC9E490CA8FEF7E5
:103A900099FC9D4912A8FEF795FC9C4918A8FEF7D1
:103AA00091FC9B491EA8FEF78DFC9A4924A8FEF7BD
:103AB00089FC99492AA8FEF785FC984930A8FEF7A9
:103AC00081FC974936A8FEF77DFC96493CA8FEF795
:103AD00079FC954942A8FEF775FC9448694648AAC6
:103AE0008460C0E90044FFF73FFF55F8080CA84286
:103AF000A5F1180501D00CF08DFCB542F5D17C4A3A
:103B00006C468B49062789480CF00AFC89496846AF
:103B1000FEF758FC884906A8FEF754FC87490CA814
:103B2000FEF750FC864912A8FEF74CFC854918A800
:103B3000FEF748FC84491EA8FEF744FC8348002396
:103B400024AA69468360C0E90033FFF70DFFA06F28
:103B500004F18003183C984201D00CF05BFC013F5B
:103B6000F5D1634A6C467249092578480CF0D8FBB8
:103B700077496846FEF726FC764906A8FEF722FC40
:103B800075490CA8FEF71EFC744912A8FEF71AFC32
:103B9000734918A8FEF716FC72491EA8FEF712FC1E
:103BA000714924A8FEF70EFC70492AA8FEF70AFC0A
:103BB0006F4930A8FEF706FC6E4836AA6946876052
:103BC000C0E90077FFF7D0FED4F8C00004F1C803C5
:103BD000183C984201D00CF01DFC013DF4D1444A40
:103BE0006C465349052763480CF09AFB62496846C6
:103BF000FEF7E8FB614906A8FEF7E4FB60490CA864
:103C0000FEF7E0FB5F4912A8FEF7DCFB5E4918A84F
:103C1000FEF7D8FB5D481EAA69468560C0E90055DD
:103C2000FFF7A2FE206E04F16803183C984201D011
:103C30000CF0F0FB013FF5D12D4A6C463C490525BF
:103C400052480CF06DFB52496846FEF7BBFB5149E8
:103C500006A8FEF7B7FB50490CA8FEF7B3FB4F4987
:103C600012A8FEF7AFFB4E4918A8FEF7ABFB4D4874
:103C70001EAA69468760C0E90077FFF775FE206ECF
:103C800004F16803183C984201D00CF0C3FB013DDD
:103C9000F5D1174A6C462649042742480CF040FBF0
:103CA00041496846FEF78EFB404906A8FEF78AFBAD
:103CB0003F490CA8FEF786FB3E4912A8FEF782FB9F
:103CC0003D4818AA69468560C0E90055FFF74CFEDB
:103CD000A06C04F15003183C984273D00CF09AFB8E
:103CE00070E000BF200700244C0D01085923000894
:103CF0000000002418020024900400245C0A01083B
:103D0000600A0108640A0108680A01086C0A0108CF
:103D1000700A0108740A0108780A01087C0A01087F
:103D2000800A0108840A0108880A01086C0400243A
:103D3000812300088C0A0108940A0108A00A0108DE
:103D4000A80A0108B00A0108B80A0108840400247E
:103D5000C00A0108C80A0108CC0A0108D00A0108F3
:103D6000D80A0108E00A0108E40A0108EC0A01087F
:103D7000F40A010848040024FC0A0108000B0108A9
:103D8000080B0108100B0108180B01087804002427
:103D9000200B01082C0B0108340B01083C0B010817
:103DA000440B01083C0400244C0B0108540B01088F
:103DB0005C0B0108640B01086004002480707FF034
:103DC00001070106013F83D14F4A6C464F4909253F
:103DD0004F480CF0A5FA4F496846FEF7F3FA4E49F2
:103DE00006A8FEF7EFFA4D490CA8FEF7EBFA4C498E
:103DF00012A8FEF7E7FA4B4918A8FEF7E3FA4A497A
:103E00001EA8FEF7DFFA494924A8FEF7DBFA484965
:103E10002AA8FEF7D7FA474930A8FEF7D3FA464852
:103E200036AA69468760C0E90077FFF79DFDD4F8A0
:103E3000C00004F1C803183C984201D00CF0EAFA23
:103E4000013DF4D1304A38AC30493B480CF068FAB7
:103E50003A496846FEF7B6FA394906A8FEF7B2FABB
:103E600038490CA8FEF7AEFA374912A8FEF7AAFAAD
:103E7000364918A8FEF7A6FA35491EA8FEF7A2FA99
:103E8000344924A8FEF79EFA33492AA8FEF79AFA85
:103E9000324930A8FEF796FA314936A8FEF792FA71
:103EA00030483CAA69468560C0E90055FFF75CFDD3
:103EB00054F8080CA042A4F1180401D00CF0AAFA9E
:103EC000A642F5D1104A114926480CF029FA264B92
:103ED00003F52074002203F10C0003F124011A738E
:103EE0001A6283F82420DA63D961C3E90102C3E9C5
:103EF0000D2240339C42EDD1034A1C491A480CF074
:103F00000FFA49B0BDE8F08F0000002481230008BB
:103F1000600400246C0B0108700B0108740B01088D
:103F2000780B01087C0B0108800B0108840B010849
:103F3000880B01088C0B010830040024900B010849
:103F4000940B0108980B01089C0B0108A00B0108B9
:103F5000A40B0108A80B0108AC0B0108B40B010865
:103F6000BC0B0108540400249C0400241D240008F8
:103F700081422DE9F04F074683B041D0894605685C
:103F8000564BD1E900488168A8EB0402491B4FEA6F
:103F9000E20A0192C91003FB0AFA03FB01F1514541
:103FA00032D34668711B4FEAE10B03FB0BFBDA458A
:103FB00066D8019B002B11DD2E46214630460CF0C1
:103FC0003CFBBAF1010A04F1180406F11806F4D119
:103FD000019B7E68002BD8BF18231D44AE420BD036
:103FE00005F1080454F8080C844201D00CF012FAD0
:103FF00018351834B542F5D13D68019B1D447D60EC
:10400000384603B0BDE8F08FBAF1000F61D0344BF1
:104010009A4560D801980CF001FA0646444511D043
:1040200006F108056268183445F8085CA5F1080037
:1040300054F8181C4FF0000318350A44FFF760FCD1
:10404000A045EFD1D7E9005845450DD005F108044A
:1040500054F8080CA04201D00CF0DCF918351834E3
:10406000A845F5D1D7F80080B8F1000F02D040463E
:104070000CF0D0F9019B3E6033441D46BB60BEE7A7
:10408000002911DD214628460CF0D7FABBF1010BBF
:1040900004F1180405F11805F4D1D9F80040D9F855
:1040A0000480D7E90056711B0C444445A5D008365E
:1040B0006268183446F8086CA6F1080054F8181C19
:1040C0004FF0000318360A44FFF71AFCA045EFD161
:1040D00092E75646A2E70CF04BFA00BFABAAAAAA99
:1040E000555555052DE9F843044600259146984657
:1040F00000F10C0200F1240385600F46426004F1D8
:104100001C06E36104302573256284F82450E563BE
:10411000C4E90D550CF091FA494604F13400FFF75B
:1041200027FF39463046C4F800800CF086FAA368B1
:104130000A2B0FD0226A6FF040439A420DD0012221
:104140000749304615440CF059FBA368C3F10A0334
:10415000AB42EFD82046BDE8F88302480CF00EFAD7
:1041600024180108C40B010808B4F0B50E46114626
:10417000044682B0C81D00AF20F0070007F11C0301
:10418000ADEB000D53F8042B6D467B602846B0471D
:1041900004F108032A182946204623604FF0000343
:1041A000FFF7AEFB20460837BD46BDE8F04001B042
:1041B000704700BFA14B2DE9F04F03F580629FB01F
:1041C000002403F8014F9342FAD19D4A49F2A81600
:1041D0009C4B12A8156810229B4900959B4DAC5131
:1041E000FFF7C2FF9A4918A8964B0C7810229649FF
:1041F0000094FFF7B9FF14A9129B139C8B42199AE4
:1042000014BF14990F21A0188842189940F23C82DB
:104210001AADA9420B9514BF1A9D0F25A84240F272
:104220002B8212A80CF0EAFA044625460EAB0C933A
:1042300055F8083BAB4200F02A82A2680C930E921C
:104240000023626823720D922560189863600B9BAF
:10425000984201D00CF0DEF8129814AB984201D0CD
:104260000CF0D8F87B4BDDF830A05A7818785B68F2
:104270009AF800B00793784B0392029302330493A9
:10428000BBF1000F74D0ABF12003DAB25E2A00F26A
:10429000AA81029AB2F800E00EEB0002802A069290
:1042A00000F3A181049A0399128805920A44402AD6
:1042B00000F39981002945D0039A6FF0004C0799CB
:1042C00002FB03F3059DA1F102099C44134401EB99
:1042D0004C0C09EB43093CF8027F78B305F0070268
:1042E000012649F2B814EB08964071467444002246
:1042F00076B204EBC313554C6FEA060823440BE077
:104300007F2904D83F2D02D81C7834431C70013219
:1043100001330131824211D007FA02F42404EFD4B0
:104320007F29F4D83F2DF2D81C78013201330131B6
:1043300008EA0404824203F8014CEDD1CC4505F1B2
:104340000105C8D1059ABDF818303F2A049928BF45
:104350003F227F2B0A8028BF7F23029A13809AF87E
:1043600000305B4504D11AF801BFBBF1000F8AD1C0
:104370003A4B03F1800113F8012F42F004029942F5
:104380001A70F8D114AD49F2A8114FF4302401226B
:104390003E23129580282D4D13926C50ADF850306D
:1043A00044D8039A352A41DC002A3FD06FF00043FD
:1043B0004FF01E0C02F10B070B211CFB023C079B6C
:1043C00003EB4C0C3CF8026F68B301F007030125C6
:1043D000CC0849F2B8129D401C4B4FF0000803EB8B
:1043E000C4146DB2434622446FEA050E0AE07F2BE7
:1043F00004D83F2902D814782C43147001330132B9
:10440000834210D006FA03F42404F0D47F2BF5D8AD
:104410003F29F3D81478013301320EEA04048342B1
:1044200002F8014CEED101318F42CBD1044B0C4A42
:104430001B6802EB8312039305921FE0D7980024B8
:104440001C070024DC0B0108491300082007002486
:104450009804002490040024C8980024579900244C
:104460009C040024059A8D4B039940321B6801314E
:1044700005925A1D03918A42C0F2B880039907221F
:104480000298CB1A028003EB8303049A5B000B3380
:104490009BB23F2B28BF3F2309291380E2DC059AFA
:1044A0004FF000030B9F18A81468556B04EB4404ED
:1044B000D169126A05EBC40618970A44FFF720FA7F
:1044C000726855F8341018A80CF098F9189A744BC3
:1044D00092F800A01F7809925A785B6808920A93B4
:1044E000BAF1000F73D0DDF824B0AAF12003DAB2DC
:1044F0005E2A75D8029AB2F800E00EEB0702802A15
:1045000007926DDC049A0899128806920A44402AA0
:1045100066DC002945D0089A6FF000460A9902FB34
:1045200003F30698A1F102091E44134401EB460669
:1045300009EB430936F802CF7FB300F007020125EB
:1045400049F2B814C30895407146744400226DB214
:1045500004EBC313534C6FEA050823440BE07F2997
:1045600004D83F2802D81C782C431C700132013338
:104570000131974211D00CFA02F42404EFD47F29C0
:10458000F4D83F28F2D81C7801320133013108EA0F
:104590000404974203F8014CEDD1B14500F101004C
:1045A000C8D1069ABDF81C303F2A049928BF3F2283
:1045B0007F2B0A8028BF7F23029A13809BF800304C
:1045C000534504D11BF801AFBAF1000F8DD1099BFF
:1045D0000B9A93423FF446AF09980BF01BFF41E75B
:1045E0004FF0000AEAE74FF0000BB8E62E4EB02479
:1045F00000212E488DF8604001340D4602F02CF861
:104600006423012218A92A4802F088FF2946274876
:10461000E4B28DF8605002F01FF80122642318A95B
:10462000234802F07BFF1023294620488DF8603094
:1046300002F012F86423012218A91D4802F06EFF4F
:1046400001211A4802F008F88022314664231848F4
:10465000164402F063FFB82CCAD1129814AB9842EA
:1046600001D00BF0D7FE0C980EAB984201D00BF0A6
:10467000D1FE1FB0BDE8F08F0022009418A81146AB
:104680000CF03EF80446D0E51AAB0B93C9E50EAE2C
:1046900028686968AA68EB680FC6D1E51C07002482
:1046A0009004002420070024D8980024D4980024E3
:1046B000CC9800242DE9F843D1E900260023214CB1
:1046C000B61A054603600F46C0E90133F01004FB3B
:1046D00000F434B11C4B9C4232D830460BF09EFEA5
:1046E00004462644C5E90044AE60D7E90086B045DB
:1046F00022D004F10809474649F8089C183757F8B2
:10470000181CA9F1080057F8142C4FF0000309F108
:1047100018090A44FFF7F4F8BE42EDD1183E0B4BDE
:10472000A6EB0806F60803FB06F323F0604301330B
:1047300003EB430304EBC30428466C60BDE8F88335
:104740000BF016FFABAAAAAA55555505ABAAAA0AA3
:1047500030B59BB00021A24800F0EAFBA14904A8B3
:1047600006ACFDF72FFEA04901A8FFF7A3FF01AAA1
:10477000002304A90AA8FFF7B5FC0AA99B48FEF785
:1047800063FF0AA8FEF738FF01A8FDF7F9FD0498BA
:10479000A04201D00BF03EFE954904A8FDF712FEA1
:1047A000944901A8FFF786FF002301AA04A90AA8DB
:1047B000FFF798FC0AA99048FEF746FF0AA8FEF703
:1047C0001BFF01A8FDF7DCFD0498A04201D00BF00F
:1047D00021FE8A4904A8FDF7F5FD894901A8FFF7E4
:1047E00069FF052301AA04A90AA8FFF77BFC0AA90F
:1047F0008448FEF729FF0AA8FEF7FEFE01A8FDF790
:10480000BFFD0498A04201D00BF004FE7E4904A82D
:10481000FDF7D8FD7D4901A8FFF74CFF002301AA51
:1048200004A90AA8FFF75EFC0AA97948FEF70CFF65
:104830000AA8FEF7E1FE01A8FDF7A2FD0498A04238
:1048400001D00BF0E7FD734904A8FDF7BBFD7249E9
:1048500001A8FFF72FFF002301AA04A90AA8FFF768
:1048600041FC0AA96D48FEF7EFFE0AA8FEF7C4FE58
:1048700001A8FDF785FD0498A04201D00BF0CAFD08
:10488000674904A8FDF79EFD664901A8FFF712FFDE
:10489000002301AA04A90AA8FFF724FC0AA9624878
:1048A000FEF7D2FE0AA8FEF7A7FE01A8FDF768FDF5
:1048B0000498A04201D00BF0ADFD5C4904A8FDF7BF
:1048C00081FD5B4901A8FFF7F5FE002301AA04A9B9
:1048D0000AA8FFF707FC0AA95648FEF7B5FE0AA882
:1048E000FEF78AFE01A8FDF74BFD0498A04201D017
:1048F0000BF090FD504904A8FDF764FD4F4901A855
:10490000FFF7D8FE052301AA04A90AA8FFF7EAFBCE
:104910000AA94B48FEF798FE0AA8FEF76DFE01A80B
:10492000FDF72EFD0498A04201D00BF073FD454920
:1049300004A8FDF747FD414901A8FFF7BBFE052389
:1049400001AA04A90AA8FFF7CDFB0AA93E48FEF771
:104950007BFE0AA8FEF750FE01A8FDF711FD0498A2
:10496000A04201D00BF056FD384904A8FDF72AFDFE
:10497000234901A8FFF79EFE002301AA04A90AA863
:10498000FFF7B0FB0AA93248FEF75EFE0AA8FEF761
:1049900033FE01A8FDF7F4FC0498A04201D00BF00F
:1049A00039FD00232B482C492C4A03602C4C02F182
:1049B00028052C480B702C4923600370002342F813
:1049C000043B954201F8013BF8D1054800F050F84E
:1049D000FEF7C0FEFFF7EEFBFEF746FFF8E700BF6D
:1049E00020070024E00B01086C0400249C04002430
:1049F000E80B010884040024DC040024F00B010807
:104A0000540400241C050024FC0B01084804002465
:104A10005C050024040C0108780400249C05002493
:104A20000C0C01083C040024DC050024140C0108D3
:104A3000600400241C060024200C0108300400241B
:104A40005C060024280C01089C0600242C0C01089C
:104A5000DC060024E49C0024E89C0024F89C00244C
:104A60001C07002498040024EC9C0024FEF7C8BF17
:104A7000183001F06DBA00BF10B504465C3000F08C
:104A8000DFFD04F17C0000F0DBFD04F19C0000F090
:104A9000D7FD04F1BC00BDE8104000F0D1BD00BF5F
:104AA0003C3000F017BE00BF2DE9F04332499DB005
:104AB00004464FF44170099101210022012303268D
:104AC0000127129100252D494FF001084FF00009F0
:104AD000ADF82C001B200A910895CDE90E23CDE9F5
:104AE0001023CDE91A23CDE90C67CDE91667CDE98E
:104AF000188900F0DBFA034618204FF07C57ADF818
:104B00004E3000F0D3FA03461C203026ADF84C306E
:104B100000F0CCFA03461920ADF8503000F0C6FA88
:104B200003461A20ADF8543000F0C0FA00220023EA
:104B3000054608A902A8ADF852500325CDE9022385
:104B400002F08AF912A903A802F086F91D2000F0EC
:104B5000ADFAADF80400019800F038FB05A904F1A6
:104B600014000797DDE90223CDE9056500F0FAFCA2
:104B70001DB0BDE8F08300BF040204040405040670
:104B8000F0B506460F20002406F1180706F15C0573
:104B90002DED028B99B09FED258A00F087FA034630
:104BA00007A8ADF80C30039900F022FE102000F0A9
:104BB0007DFA03460DF12D00ADF81030049900F098
:104BC00017FE152000F072FA03460DF13E00ADF815
:104BD0001430059900F00CFE122000F067FA03462D
:104BE0000DF14F00ADF81830069900F001FE0423D6
:104BF00007A938461A4600F009FEE1B2384601F02E
:104C0000BDF9014601343046019100F065FA2846AD
:104C1000F0EE480A002301990122203500F0F2FC51
:104C2000042CEAD119B0BDEC028BF0BD6F12033B2E
:104C30002DE9F04106468CB0092049F2AC1400F091
:104C400035FA034634441E20ADF8003000F02EFA49
:104C5000ADF8020001252646009BA572A04626F865
:104C6000083F3046019301F00DFCBDF806300027E7
:104C7000A57128F8043F404601F004FC00220023FF
:104C80004FF0080C02A92046CDF81CC00695CDE9CE
:104C90000423CDE9082302220223CDE90A23A2A39B
:104CA000D3E90023CDE9022302F0B4FB39464046A4
:104CB00001F0D2FC0A2003F0F5FB2946404601F042
:104CC000CBFC0A2003F0EEFBAE23304639468DF8CC
:104CD000083001F0C1FC2A4602A92046642302F0F4
:104CE0001DFCD523304639468DF8083001F0B4FC60
:104CF0002A4602A92046642302F010FC8023304695
:104D000039468DF8083001F0A7FC2A4602A9204652
:104D1000642302F003FCA823304639468DF808309E
:104D200001F09AFC2A4602A92046642302F0F6FB11
:104D30003F23304639468DF8083001F08DFC2A4675
:104D400002A92046642302F0E9FBDA233046394603
:104D50008DF8083001F080FC2A4602A92046642321
:104D600002F0DCFB1223304639468DF8083001F0A2
:104D700073FC2A4602A92046642302F0CFFBD3230A
:104D8000304639468DF8083001F066FC2A4602A903
:104D90006423204602F0C2FB304639468DF8087085
:104DA00001F05AFC2A4602A92046642302F0B6FB11
:104DB0004023304639468DF8083001F04DFC2A4634
:104DC00002A92046642302F0A9FBA62330463946F7
:104DD0008DF8083001F040FC2A4602A920466423E1
:104DE00002F09CFBA423304639468DF8083001F0D0
:104DF00033FC2A4602A92046642302F08FFB8D2350
:104E0000304639468DF8083001F026FC2A4602A9C2
:104E10002046642302F082FB1423304639468DF885
:104E2000083001F019FC2A4602A92046642302F04A
:104E300075FBA123304639468DF8083001F00CFC93
:104E40002A4602A92046642302F068FBC8233046A4
:104E500039468DF8083001F0FFFB2A4602A92046AA
:104E6000642302F05BFB8123304639468DF808301D
:104E700001F0F2FB2A4602A92046642302F04EFB11
:104E80008F23304639468DF8083001F0E5FB2A467D
:104E900002A92046642302F041FBD923304639465B
:104EA0008DF8083001F0D8FB2A4602A92046642379
:104EB00002F034FB2523304639468DF8083001F0E6
:104EC000CBFB2A4602A92046642302F027FBDB2302
:104ED000304639468DF8083001F0BEFB2A4602A95B
:104EE0002046642302F01AFB3423304639468DF8FD
:104EF000083001F0B1FB2A4602A92046642302F0E3
:104F00000DFBAF23304639468DF8083001F0A4FB85
:104F10002A4602A96423204602F000FB0CB0BDE83B
:104F2000F08100BFAFF30080060B0B000105060AFD
:104F30002DE9F04304468DB000250126019100F0D3
:104F400095F80199204600F003F904F12009204664
:104F50000227FFF7A9FD2046FFF76AFE05A948468C
:104F600049F2B858CDE90865CDE9067501F0D6F9E2
:104F70002A463946484601F04DFA0C2000F096F8D2
:104F800003460B20ADF8103000F090F80346284699
:104F9000ADF80C3000F08AF803462046ADF8083032
:104FA00000F09AF8049904F13C00DDE9023200F0C7
:104FB0006BFB112000F07AF804EB080249F2BA53B7
:104FC00024F808001046E65201F05CFA142000F0C4
:104FD0006DF8034605A904F1DC00ADF8143000F0CB
:104FE000A9FB132000F062F8034605A904F1E200D2
:104FF000ADF8143000F09EFB2046FFF719FE49F291
:10500000901349F2941CDFF860E049F29810E550E3
:10501000144A47F6122344F80CE005A920440592EF
:105020000B930A96CDE90656CDE9085703F016F919
:1050300049F2841149F280120A2384F8EC50204688
:105040006550A55084F8F030FFF79AFD49F2C0533F
:105050001122E25003F024FA49F2BC53E0500DB0A3
:10506000BDE8F08301060107010701060B4A40F283
:1050700007110B4B02604FF4877243600623C18413
:105080004285037480F8293070B40224054E064D21
:1050900080F82540C0E9026570BC70470007050034
:1050A000010508050905070506050A061F2882B03F
:1050B00009D8084B03EB400213F81030507843EA4C
:1050C000002002B0704701230C2043EA002002B008
:1050D000704700BF800D010890ED0E0A704700BFB9
:1050E000F0B51A4D91B000210446079505F1007501
:1050F0004FF44170002201230326012705F5407576
:105100000691029106A9ADF8240002A80895302561
:10511000CDE90C23CDE90E23CDE90A6701F09CFE11
:1051200040F601334FF07E56ADF80430019800F0A0
:105130004DF80323029A03A904F114000596CDE962
:10514000035300F0DBF911B0F0BD00BF040204040A
:1051500030B504462DED028B83B089B3012240F2B5
:1051600001130092ADF80430694604F1300003F0F9
:105170007DFA204600F04CF8E01C01F07FFA04F1C3
:10518000250001F07FF904F1140504F1290001F074
:1051900079F92046FFF7A4FF284600F027FA2846B1
:1051A000B0EE408A00F01EFAD0ED007AF8EE677A91
:1051B00088EE277A84ED0E7A03B0BDEC028B30BD09
:1051C00040F201130091ADF80430CDE710B584B082
:1051D00003460124ADF8040003A8ADF80C30ADF887
:1051E0000E4001F04FF9214603A801F035FA2046A0
:1051F00003F058F903A8002101F02EFA204603F02D
:1052000051F9214603A801F027FA04B010BD00BFF0
:105210002DE9F043444C8BB0A063037823B1002503
:1052200028460BB0BDE8F083404A0A230026012738
:10523000626008220893202302A9201DC4E90267A6
:10524000C4E9042340264FF4C07700224FF40063E2
:10525000C4E90667C4E908234FF4805600270222F8
:105260000723C4E90A67CDE90223042603220023A9
:105270000827CDE90623CDE9046708F05DFB054664
:1052800000284CD14FF001084FF0100901260027EB
:1052900002A94FF480520190201DCDE902894FF000
:1052A00002084FF01009CDE9046708F06FFB642095
:1052B00003F0D6FB02A94FF48052201DCDE904670C
:1052C000CDE9028904264FF003084FF010090027AA
:1052D00008F05CFB02A94FF48052201DCDE9046761
:1052E000CDE9028908F052FB40F232234FF0010C65
:1052F000042601931027019B02A94FF48052201D20
:10530000CDE904C3CDE9026708F040FB201D40F65B
:10531000060108F05BFB28460BB0BDE8F0830125D1
:1053200028460BB0BDE8F083289D00244041005280
:10533000694A2DE9F04315688FB015B10FB0BDE88B
:10534000F083664B01210C24002611600327D3F85B
:10535000D4204FF683784FF0020908A942F4805216
:105360005F48C3F8D420D3F8D42002F480520092CE
:10537000009AD3F8E02042F01002C3F8E020D3F8FE
:10538000E02002F010020192019AD3F8E02042F0EE
:105390004002C3F8E020D3F8E02002F0400202927D
:1053A000029AD3F8E02042F00802C3F8E020D3F8D4
:1053B000E02002F008020392039AD3F8E02042F4BE
:1053C0008072C3F8E020D3F8E02002F480720492E7
:1053D000049AD3F8E02042F08002C3F8E020D3F82A
:1053E000E02002F080020592059AD3F8E02042F016
:1053F0002002C3F8E020D3F8E02002F02002069259
:10540000069AD3F8E02042F00402C3F8E020D3F873
:10541000E0300C9403F004030793079BCDE90A677F
:10542000CDE9088905F0FAFA48F23712022308A9F3
:105430002C480C94DFF8C080CDE90A67CDE9082339
:1054400005F0ECFA4CF20372022308A926480C94EA
:10545000CDE90A67CDE9082305F0E0FA40F2FF62E2
:10546000022308A921480C94CDE90A67CDE9082355
:1054700005F0D4FA4FF60C72022308A91C480C94CC
:10548000CDE90A67CDE9082305F0C8FA4FF63F02D7
:10549000022308A917480C94CDE90823CDE90A672F
:1054A00005F0BCFAD8F83800013003F0B9F9D8F8A3
:1054B00038300646581C03F0BBF902220746032386
:1054C00008A930460C9408970B93CDE9092505F0FF
:1054D000A5FA0FB0BDE8F083209D002400440258D7
:1054E0000010025800180258000C02580020025800
:1054F000001C025800140258289D002470B5164C58
:10550000154684B0046004F1080601AB07C986E8BB
:105510000700D4ED047AF5EEC07A83E80700F1EED7
:1055200010FA15DDF7EE006A86EEA77A84ED0B7AA5
:1055300075B1204640F8145F01F07EFD0346074A2E
:1055400000201969064BE160E261636204B070BD3E
:10555000012004B070BD00BF649D00240020003015
:10556000000000302DE9F041194C174686B09846EE
:10557000046004F1080C6E4603AD07C98CE807000F
:10558000D4ED047AF5EEC07A86E80700F1EE10FA61
:1055900085E8070011DDF7EE006A86EEA77A84ED54
:1055A0000B7A57B1204640F8147F01F045FD094AB7
:1055B0000169094BE160E2616362084A0020084B1F
:1055C000C4F818802262A36206B0BDE8F08100BF73
:1055D000649D0024002000300000003000300030C6
:1055E0000010003000680830704700BF00681430B9
:1055F00001F024BD024B0022C3E90522704700BF21
:10560000649D0024F6EE006A016060EE207A0021BD
:10561000B7EE007A0276437667EEA67A80ED020A4C
:10562000C0ED070A80ED047AC7EE276AC1604161C8
:1056300010B4002484765DF8044BC0ED016A704715
:105640000268037E128807EE902AFBEEC87A1BB12F
:10565000B7EE007A77EE677AD0ED056A90ED047ABE
:1056600077EEE67A437E67EE877A0BB1F1EE677AE2
:1056700090ED030A90ED017A77EEC07AA7EE270A43
:1056800080ED030A704700BF30B5044685B04FF483
:1056900080751030ADF80820ADF80C100180A282A2
:1056A0006582E5828DED000AADF8043000F0EAFE77
:1056B00004F1140000F0E6FE9DED000A2046019979
:1056C00000F054F800224FF6FF73E261238305B027
:1056D00030BD00BF70B5067E04461030760000F085
:1056E000ADFF034676B2657E04F114001E436D00E3
:1056F00026766DB200F0A2FF034620461D43657674
:1057000000F050F8237E002203F00303E261022B35
:1057100006D0627E02F00302022A00D133B170BDCE
:10572000637E9B07FBD10123E36170BD4FF0FF3324
:10573000E36170BD098800220180C0F8022000F0FA
:10574000A1BE00BF10B543790446037100F076FF97
:1057500000280CBF01230023637104D12079B0FA23
:1057600080F0400910BD002010BD00BFB7EE007AE8
:1057700001220346C7EE007A70B4002683B0C1F35D
:1057800007250024ADF80410C660417010449D70D8
:10579000DC701A709A809A71C3ED027A03B070BC03
:1057A00000F070BE38B54479054683790130640055
:1057B00064B2B3B100F042FFB0FA80F35B09234357
:1057C000DBB2A3F17F026B71012A0ED9FF2B07D147
:1057D000D5ED037A95ED027A77EE877AC5ED037AF7
:1057E00038BD00F02BFF43B2E9E70023EB6038BD82
:1057F00082B000230322ADF80410BDF804108270BB
:1058000001800374C37002B0704700BF2DE9F04FF0
:10581000DB4F0026DB4C8FB007F138054260037088
:105820009646A4F80961844603960696BE61C4F8BC
:10583000FD60C4F80161C4F80561C4F82461C4E9DD
:105840004A75C7E90066C7E90266C7E90466C4E9A4
:105850004366C4E94566C4E94766CDE90466CDE917
:105860000766CDE90966CDE90B6684F8FC2042683D
:1058700084F80C62002A00F091820D460868A04668
:105880004968EB68AA683E80A8E80F002B7C88F87E
:1058900000302B7C84F8FD302B7C002B40F09F8265
:1058A000DCF80430012B40F2B4812B46B64A0021CB
:1058B00053F8119F7980D3F804809E68D868C4F8A3
:1058C0001190C2F804809660D0601B7C137495F828
:1058D000213084F8FE3095F82130002B40F083828F
:1058E000DCF80430022B40F294812B46A74A0021B9
:1058F00053F8229FB980D3F804809E68D868C4F812
:105900002290C2F804809660D0601B7C137495F8D6
:10591000323084F8FF3095F83230002B40F05B8253
:10592000DCF80430032B40F274812B46984A0021A6
:1059300053F8339FF980D3F804809E68D868C4F880
:105940003390C2F804809660D0601B7C137495F885
:10595000433084F8003195F84330002B40F0478203
:10596000DCF80430042B40F25481A8460023894E11
:1059700058F8440F3B81D8F80410D8F80C30D8F808
:1059800008200FC698F81030337095F8543084F81A
:10599000013195F8543013B1012384F80C32DCF84E
:1059A0000430052B40F235812B467B4A002153F809
:1059B000559F7981D3F804809E68D868C4F85590C3
:1059C000C2F804809660D0601B7C137495F8653033
:1059D00084F8023195F8653013B1012384F80C3254
:1059E000DCF80430062B40F214812B466B4A002170
:1059F00053F8669FB981D3F804809E68D868C4F8CC
:105A00006690C2F804809660D0601B7C137495F891
:105A1000763084F8033195F8763013B1012384F899
:105A20000C32DCF80430072B40F2F3802B465C4A42
:105A3000002153F8779FF981D3F804809E68D868D5
:105A4000C4F87790C2F804809660D0601B7C137411
:105A500095F8873084F8043195F88730002B40F0B2
:105A6000CA81DCF80430082B40F2D380A84600231A
:105A70004C4E58F8880F3B82D8F80410D8F80C30F8
:105A8000D8F808200FC698F81030337095F8983081
:105A900084F8053195F89830002B40F01D82DCF831
:105AA0000430092B40F2B5802B463F4A002153F8C1
:105AB000999F7982D3F804809E68D868C4F8999039
:105AC000C2F804809660D0601B7C137495F8A930EE
:105AD00084F8063195F8A930002B40F0F981DCF804
:105AE00004300A2B40F295802B46304A002153F8AF
:105AF000AA9FB982D3F804809E68D868C4F8AA9097
