:020000040800F2
:1000000000000220A11500089D1500086D5B000886
:100010009D1500089D1500089D15000800000000B2
:100020000000000000000000000000009D15000816
:100030009D150008000000009D1500085D5B00088C
:100040009D1500089D1500089D1500089D150008C8
:100050009D1500089D1500089D1500089D150008B8
:100060009D1500089D1500089D150008D54900083C
:10007000E1490008D53E0008ED490008F9490008AB
:100080002159000869CE00089D1500089D1500083B
:100090009D1500089D1500089D1500089D15000878
:1000A0009D1500089D1500089D1500089D15000868
:1000B0009D1500089D1500089D1500089DCE00089F
:1000C0009D150008A9CE00089D1500089D15000883
:1000D0009D150008F5520008A1530008515400086E
:1000E0009D1500089D150008000000009D150008E2
:1000F0009D1500089D1500089D1500089D15000818
:100100009D1500089D1500089D1500089D15000807
:1001100001550008B15500089D1500089D150008FF
:100120009D1500089D1500089D1500089D150008E7
:100130009D1500089D1500089D1500089D150008D7
:1001400000000000000000000000000000000000AF
:100150009D1500089D1500089D15000861560008B2
:10016000B5CE00089D1500089D1500089D150008D6
:100170009D1500089D1500089D1500089D15000897
:100180009D1500089D15000811570008C15700086B
:100190009D1500089D1500089D1500089D15000877
:1001A0009D1500089D1500089D1500089D15000867
:1001B0001D4700089D1500089D1500089D150008A5
:1001C0009D1500089D1500089D1500089D15000847
:1001D0009D1500089D1500089D1500089D15000837
:1001E0009D1500089D1500089D1500089D15000827
:1001F0009D1500089D1500089D1500089D15000817
:100200009D1500089D1500089D1500089D15000806
:100210009D1500089D1500089D1500089D150008F6
:100220009D1500089D1500089D15000800000000A0
:100230009D1500089D150008000000009D15000890
:100240009D1500089D1500089D1500089D150008C6
:100250009D1500089D1500089D1500089D150008B6
:100260009D1500089D1500089D1500089D150008A6
:100270009D1500089D150008715800080000000039
:100280009D1500089D1500089D1500080000000040
:08029000000000009D150008AC
:100298000348044B834202D0034B03B1184770470D
:1002A800CC010024CC0100240000000005480649C8
:1002B8000B1AD90F01EBA301491002D0034B03B16C
:1002C80018477047CC010024CC010024000000002E
:1002D80010B5064C237843B9FFF7DAFF044B13B186
:1002E8000448AFF300800123237010BDD00100241F
:1002F80000000000BCE5000808B5044B1BB1044928
:100308000448AFF30080BDE80840CFE700000000D4
:10031800D4010024BCE5000810EE103A40F22A414E
:10032800C3F30A528A42B7EEC05A33D8B7EE000B6D
:100338002D4B93ED4A4B93ED483BB0EE437BA4EE37
:10034800057B17EE102A37EE437B02F01F0193ED71
:10035800506B94EE057B27EE074B03EBC101D1E907
:100368000001A6EE070B30B493ED4C5B93ED4E6B9A
:1003780000231C184FEAC23242EB0105A5EE076BB9
:1003880045EC174BA6EE040B30BC20EE070BB7EE7E
:10039800C00B704713F5000F20D0B2F5FF6F1AD2CB
:1003A800DFED127AB4EEE70AF1EE10FA10DCDFEDB9
:1003B800107AB4EEE70AF1EE10FA12D4DFED0D7AF6
:1003C800B4EEE70AF1EE10FAB0D5002000F0D4BA86
:1003D800002000F0D7BA30EE000A70479FED060AF9
:1003E8007047002000F0C2BAE8DF00081772B14277
:1003F800B4F1CFC2CF8ECEC20000000010B483B0DB
:100408008DED010A019AB2F17E5F3BD0A2F500039F
:10041800B3F1FE4F3CD2BFEE002B02F140432F490F
:1004280003F54D03C3F3C340DC0D01EB0010E405F5
:1004380090ED001B121B03EE902A91ED444B91EDB9
:10044800467B91ED426B90ED020B91ED405BDB1525
:10045800B7EEE33AA1EE032B03EE903AA4EE027B4B
:10046800B8EEE33B22EE024BA3EE050BA6EE047BAF
:1004780030EE020BA4EE070BB7EEC00B03B05DF82D
:10048800044B70479FED160A03B05DF8044B7047A4
:10049800530019D0B2F1FF4F1CD0002A0DDBB3F185
:1004A8007F4F0AD2DFED0F7A9DED017A67EE277A4A
:1004B80017EE902AA2F13862ADE79DED010A03B06C
:1004C8005DF8044B00F074BA012003B05DF8044BEA
:1004D80000F05EBA9DED010AD0E700BF30E10008E8
:1004E800000000000000004B10B582B08DED010A3D
:1004F800019C24F00043B3F1FF4F0DDBF7EE007AC7
:10050800B0EE407A87EE870A002CACBF30EE270A9F
:1005180030EE670A02B010BD1D4A934216DCB3F1F3
:10052800105F1BDBB3F17E5F21DB00F081FB30EE57
:10053800000A00F04BFAB0EE007A70EE076AF7EEA8
:10054800007A87EE260A37EEC00A01E0B7EE000A05
:10055800002CB8BFB1EE400A02B010BDDDED017A43
:10056800B7EE000A37EE800A20EE270AD2E700F03D
:100578005FFBF8EE007A20EE270A00F027FAB0EECB
:10058800007A30EE077AF1EE407A87EE870ADFE7E5
:10059800FFFFAF4100000000F0B510EE104A220D39
:1005A800C2F30A03B3F57D7F83B0B7EEC06A1BD2EE
:1005B80026EE065BB3F5667F70D326EE052B25EE97
:1005C800021B774B93ED1A3B93ED187B93ED164B7B
:1005D800A5EE037BA2EE046BB0EE460BA7EE010B73
:1005E800B7EEC00B03B0F0BD40F22E4293425FD885
:1005F8006B4991ED087B26EE077BBDEEC77B91ED3D
:100608000A5B17EE103A03F500031B1613F0020FEE
:1006180007EE903A01F1700208BF0A46D807B8EE13
:10062800E77BA7EE456BB0EE460B26EE067B1BD4A8
:1006380003F0030301EBC30393ED006B92ED165B2C
:1006480020EE060B20EE076B92ED1A4BA6EE050B7B
:1006580027EE066B92ED185BA7EE045BA5EE060B82
:10066800B7EEC00B03B0F0BD92ED0E4B27EE076B53
:1006780027EE063B92ED0C0B92ED105BA7EE040BF8
:1006880092ED144BA6EE050B92ED126BA7EE046BE0
:10069800A6EE030BB7EEC00B03B0F0BD12F4FF6F6C
:1006A800A0D1B7EEC55B00EE104A8DED015A99E76F
:1006B800B3F5FF6F50D23B4AC4F3836002EB80036B
:1006C800C4F3160152F820501E6A186941F400015B
:1006D800C4F3C2539940A1FB066705FB01F33A46F0
:1006E800E0FB0123111C43F100550020101A05F00E
:1006F800404163EB010100F0A3FDAD0F2A4B9FEDD4
:10070800267B05EBD47441EC160B14F0020FA3F111
:10071800700208BF1346E90726EE077B27EE076B32
:100728001FD404F0030402EBC40494ED005B93EDC2
:10073800164B27EE057B27EE065B93ED1A3BA5EEDD
:10074800047B26EE055B93ED184BA6EE034BA4EE57
:10075800057BB7EEC70B45E703B0BDE8F04000F0F6
:1007680027B993ED0E3B26EE065B26EE052B93ED9F
:100778000C7B93ED104BA6EE037B93ED143BA5EE9B
:10078800047B93ED125BA6EE035BA5EE027BB7EE4E
:10079800C70B27E7AFF30080182D4454FB21193C01
:1007A800B8E2000858E2000828E3000808B52DED73
:1007B800028BF0EE408AB0EE608A00F027F8114B09
:1007C80093F90030013310D0B4EE488AF1EE10FAF4
:1007D8000BD6F4EE688AF1EE10FA06D6DFED0A8A37
:1007E800B4EE688AF1EE10FA02D0BDEC028B08BDB7
:1007F80000F034FA88EEA80ABDEC028B21230360CE
:1008080008BD00BF0400002400000000F0B482B05E
:10081800CDED010A019830F0004C40D010EE105A8E
:1008280025F00046B6F1FF4F39DABCF1FF4F36DC50
:1008380066453ADB05F000473AD015F0FF4F5AD12C
:10084800310200296FF07D0204DD4900002902F120
:10085800FF32FADC10F0FF4F5CD15FEA0C216FF039
:100868007D0403D4490004F1FF34FBD512F17E0F57
:100878004ADBC5F3160343F4000314F17E0F3DDB96
:10088800C0F3160040F40000121B02E010D04B0029
:10089800013A191AAAB10029F8DA5B00F8E7DDED88
:1008A800017A60EE277A87EEA70A02B0F0BC70479B
:1008B8001E4AFB0F02EB830393ED000A02B0F0BC63
:1008C800704713EA210338BF0B46002BF0D0184AB3
:1008D800934204DC5B00934204F1FF34FADD14F127
:1008E8007E0F1BDBA3F500033B437F3443EAC4536D
:1008F80000EE103AD9E7F2157F3AABE76FF07D01C9
:10090800091B0CFA01F0BFE76FF07D039B1A06FA8A
:1009180003F3B2E74FEAEC547F3CA7E76FF07D02A0
:10092800141B23413B4300EE103ABEE750E2000897
:10093800FFFF7F0010B52DED028BB0EE408A044614
:1009480000F08CF9B0EE480ABDEC028B046010BDD3
:1009580028B1F1EE407A27EE800A2220EAE7F0EE8D
:10096800407A27EE800A2220E4E700BF9FED010AC3
:10097800EEE700BF000000109FED010AE8E700BFA6
:100988000000201A9FED010AE2E700BF0000007096
:100998009FED060AFFEE007AB7EE007A00284FF0C6
:1009A800220047FE277A87EE800AC3E7000000008E
:1009B80070EE407AB4EE400A87EEA77AF1EE10FAAC
:1009C800B0EE470A01D62120B4E7704710EE102A8E
:1009D800884922F000438B4229D9B3F1FF4F7FD8D1
:1009E80000F0D680002A7EDB834A934200F2F08032
:1009F800DFED826A60EE266AB6EE007A37EE267A76
:100A08009FED7F6ADFED7F6AFDEEC77AB0EE407A30
:100A180017EE903AF8EEE77AA7EEC67A67EEA66A7E
:100A280037EE660A77EE407A77EEE67A07E076499F
:100A38008B4279D8B3F14C5FC0F083800023B6EEC7
:100A4800003A20EE034A9FED716ADFED715ADFED3F
:100A5800714A9FED715ADFED716A20EE047AF7EE64
:100A6800003AE7EE065AB0EE086AE5EE874AF1EE7C
:100A7800085AA4EE875AE5EE076AB0EE635AA6EE66
:100A8800875AA4EE456AE0EE465A35EE466AC6EE47
:100A9800256A66EE876A002B41D076EEE76A5A1C13
:100AA800D6EE807A37EEC77A64D0012B52D05A1C22
:100AB800392A4FEAC35126D8162B6FDC4FF08072C3
:100AC80042FA03F3C3F17E5377EE407A00EE103A10
:100AD80030EE670A10EE103A0B4400EE103A7047F9
:100AE80030EE000A7047DFED4E7A70EE277AF5EEA9
:100AF800C07AF1EE10FA6ED4DFED406ABEEE007AED
:100B080060EE266A7AE777EE407A33EEE70A10EE6F
:100B1800103A0B4400EE103A30EE630A704790EE3C
:100B2800267A30EE470A70473E498B4256D8002A4B
:100B38009FED337A25DBDFED336A30EE477A012308
:100B48006EE7DFED397A70EE277A77EEE77A30EEE6
:100B5800670A7047FDEE007AB4EEE70AF1EE10FA84
:100B68002DD530EE030AF8EE007A37EE400A20EE73
:100B7800270A704770EE477ABEEE000AA7EE830A8E
:100B88007047DFED2A6A30EE077A4FF0FF3347E708
:100B9800FFEE007A002A20FE270A7047C3F17F0380
:100BA800DB0507EE903A77EE277A70EE677A37EE34
:100BB800A30A10EE103A0B4400EE103A704770EE9C
:100BC800477AB0EE007AE7EE873AB0EE630A7047EC
:100BD8000020FFF7D7BEBFEE000A70479FED077AE7
:100BE800F6EE007A60EE076ABEEE007A002A27FE6B
:100BF800877A03E743B895411772B1423BAAB83FD9
:100C08008071313FD1F717371872B13EBBED57B439
:100C1800547E8636CD70A6B8010DD03A898808BDB5
:100C28006042A20D9115853FCAF24971D1F717B7F5
:100C380010EE103A23F0004300EE103A704700BF60
:100C480010B5054C34B113460A460146022000F09F
:100C580019F910BD204610BD8D0E0008014B18680B
:100C6800704700BF0800002470B50D4E0D4D761B6F
:100C7800B61006D00024013455F8043B9847A64224
:100C8800F9D1094E094D761B0DF088FCB61006D037
:100C98000024013455F8043B9847A642F9D170BDA9
:100CA800C4E50008C4E50008DCE50008C4E5000860
:100CB800844641EA000313F003036DD1403A41D35F
:100CC80051F8043B40F8043B51F8043B40F8043B1E
:100CD80051F8043B40F8043B51F8043B40F8043B0E
:100CE80051F8043B40F8043B51F8043B40F8043BFE
:100CF80051F8043B40F8043B51F8043B40F8043BEE
:100D080051F8043B40F8043B51F8043B40F8043BDD
:100D180051F8043B40F8043B51F8043B40F8043BCD
:100D280051F8043B40F8043B51F8043B40F8043BBD
:100D380051F8043B40F8043B51F8043B40F8043BAD
:100D4800403ABDD2303211D351F8043B40F8043B4D
:100D580051F8043B40F8043B51F8043B40F8043B8D
:100D680051F8043B40F8043B103AEDD20C3205D35D
:100D780051F8043B40F8043B043AF9D2043208D055
:100D8800D2071CBF11F8013B00F8013B01D30B88C7
:100D980003806046704700BF082A13D38B078DD0A5
:100DA80010F003038AD0C3F10403D21ADB071CBF77
:100DB80011F8013B00F8013B80D331F8023B20F8E1
:100DC800023B7BE7043AD9D3013A11F8013B00F81A
:100DD800013BF9D20B7803704B7843708B788370A2
:100DE80060467047F0B4860746D0541E002A3CD0AF
:100DF800CAB2034602E014F1FF3436D303F8012BDC
:100E08009D07F8D1032C29D9CDB245EA05250F2C29
:100E180045EA054533D9A4F11006360903F1200740
:100E280007EB061703F1100242E9045542E902559F
:100E38001032BA42F8D1721C14F00C0F03EB0212F4
:100E480004F00F0613D0331F23F0030304331344B5
:100E580042F8045B9342FBD106F003042CB1C9B2FB
:100E68001C4403F8011B9C42FBD1F0BC704734467C
:100E78001346002CF3D1F8E714460346C2E71A4696
:100E88002646E0E72DE9F843224C25680DB36C6847
:100E98001F2C3BDC984691460F46064688B1D5F88C
:100EA800880028B3D0F8003140F824900122A240ED
:100EB80000EB84011343022EC0F80031C1F8808092
:100EC80010D0A31C01346C6045F823700020BDE8E5
:100ED800F883114E114D2560002ED8D03468C5F81E
:100EE8008840D4E7D0F804311A43C0F80421E8E771
:100EF8000B4B5BB14FF48470AFF3008030B100232B
:100F08006C68C0E94033C5F88800CDE74FF0FF3082
:100F1800DDE700BF8003002498E30008F402002402
:100F28000000000081F0004102E000BF83F00043B0
:100F380030B54FEA41044FEA430594EA050F08BF6C
:100F480090EA020F1FBF54EA000C55EA020C7FEA30
:100F5800645C7FEA655C00F0E2804FEA5454D4EBAD
:100F68005555B8BF6D420CDD2C4480EA020281EA77
:100F7800030382EA000083EA010180EA020281EAAF
:100F88000303362D88BF30BD11F0004F4FEA013101
:100F98004FF4801C4CEA113102D0404261EB410110
:100FA80013F0004F4FEA03334CEA133302D0524296
:100FB80063EB430394EA050F00F0A780A4F1010452
:100FC800D5F1200E0DDB02FA0EFC22FA05F280188C
:100FD80041F1000103FA0EF2801843FA05F3594172
:100FE8000EE0A5F120050EF1200E012A03FA0EFCF1
:100FF80028BF4CF0020C43FA05F3C01851EBE3711B
:1010080001F0004507D54FF0000EDCF1000C7EEB37
:1010180000006EEB0101B1F5801F1BD3B1F5001F75
:101028000CD349085FEA30004FEA3C0C04F1010494
:101038004FEA445212F5800F80F09A80BCF1004FBD
:1010480008BF5FEA500C50F1000041EB045141EA3F
:10105800050130BD5FEA4C0C404141EB0101013C08
:1010680028BFB1F5801FE9D291F0000F04BF0146F7
:101078000020B1FA81F308BF2033A3F10B03B3F1C9
:1010880020020CDA0C3208DD02F1140CC2F10C0259
:1010980001FA0CF021FA02F10CE002F11402D8BFB7
:1010A800C2F1200C01FA02F120FA0CFCDCBF41EA83
:1010B8000C019040E41AA2BF01EB0451294330BD52
:1010C8006FEA04041F3C1CDA0C340EDC04F114042F
:1010D800C4F1200220FA04F001FA02F340EA030006
:1010E80021FA04F345EA030130BDC4F10C04C4F14C
:1010F800200220FA02F001FA04F340EA030029462C
:1011080030BD21FA04F0294630BD94F0000F83F475
:10111800801306BF81F480110134013D4EE77FEA58
:10112800645C18BF7FEA655C29D094EA050F08BFA4
:1011380090EA020F05D054EA000C04BF1946104685
:1011480030BD91EA030F1EBF0021002030BD5FEAC9
:10115800545C05D14000494128BF41F0004130BDF1
:1011680014F580043CBF01F5801130BD01F0004545
:1011780045F0FE4141F470014FF0000030BD7FEAB8
:10118800645C1ABF194610467FEA655C1CBF0B46B3
:10119800024650EA013406BF52EA033591EA030FCA
:1011A80041F4002130BD00BF90F0000F04BF0021C2
:1011B800704730B54FF4806404F132044FF00005F5
:1011C8004FF0000150E700BF90F0000F04BF00216E
:1011D800704730B54FF4806404F1320410F00045D4
:1011E80048BF40424FF000013EE700BF42004FEACF
:1011F800E2014FEA31014FEA02701FBF12F07F434C
:1012080093F07F4F81F06051704732F07F4208BF02
:10121800704793F07F4F04BF41F40021704730B509
:101228004FF4607401F0004521F000411CE700BF55
:1012380050EA010208BF704730B54FF000050AE0D8
:1012480050EA010208BF704730B511F0004502D5D9
:10125800404261EB41014FF4806404F132045FEADB
:10126800915C3FF4D8AE4FF003025FEADC0C18BF84
:1012780003325FEADC0C18BF033202EBDC02C2F176
:10128800200300FA03FC20FA02F001FA03FE40EA08
:101298000E0021FA02F11444BDE600BF53B94AB961
:1012A800002908BF00281CBF4FF0FF314FF0FF3066
:1012B80000F06EB9ADF1080C6DE904CE00F006F847
:1012C800DDF804E0DDE9022304B070472DE9F047BA
:1012D800089D04468C46002B40F083808A421746BE
:1012E80047D9B2FA82F242B1C2F1200024FA00F0E2
:1012F8009140974040EA010C94404FEA1748230C6C
:10130800BCFBF8F61FFA87FE08FB16C143EA014347
:1013180006FB0EF1994209D9FB1806F1FF3080F05F
:101328001981994240F21681023E3B445B1AA4B2ED
:10133800B3FBF8F008FB103344EA034400FB0EFE4D
:10134800A64509D93C1900F1FF3380F00581A6456F
:1013580040F2028102383C4440EA0640A4EB0E0405
:1013680000261DB1D4400023C5E900433146BDE83D
:10137800F08702B9FFDEB2FA82F2002A50D1CB1B05
:101388004FEA174E1FFA87F80126B3FBFEFC210C23
:101398000EFB1C3341EA034108FB0CF38B4207D9CF
:1013A80079180CF1FF3002D28B4200F2E9808446B2
:1013B800C91AA3B2B1FBFEF00EFB101143EA0144B7
:1013C80008FB00F8A04507D93C1900F1FF3302D209
:1013D800A04500F2D9801846A4EB080440EA0C4066
:1013E800BFE78B4209D9002D00F0B1800026C5E97E
:1013F800000130463146BDE8F087B3FA83F6002E87
:101408004AD18B4202D3824200F2B880841A61EB3F
:10141800030101208C46002DA8D0C5E9004CA5E7A2
:10142800C2F1200320FA03F6974001FA02F04FEACE
:10143800174ED9403043030CB1FBFEF61FFA87F86C
:101448000EFB161143EA014306FB08F1994204FA20
:1014580002F409D9FB1806F1FF3C80F08D8099420F
:1014680040F28A80023E3B445B1A81B2B3FBFEF035
:101478000EFB103341EA034100FB08F38B4207D906
:10148800791800F1FF3C73D28B4271D90238394484
:10149800CB1A40EA064678E7C6F1200C03FA06F4B0
:1014A80022FA0CF31C4320FA0CF701FA06F34FEA70
:1014B800144E21FA0CF11F433B0CB1FBFEF91FFA45
:1014C80084F80EFB191143EA014109FB08FA8A4521
:1014D80002FA06F200FA06F308D9611809F1FF309A
:1014E80048D28A4546D9A9F102092144A1EB0A014B
:1014F800BFB2B1FBFEF00EFB101147EA014700FB3B
:1015080008F8B84507D9E71900F1FF312ED2B845D8
:101518002CD90238274440EA0940A7EB0807A0FB6A
:1015280002894F45C64649461AD317D05DB1B3EB79
:101538000E0267EB010707FA0CFCF2404CEA0202C4
:10154800F740C5E9002700263146BDE8F0872E465A
:1015580028460BE70646E9E61846FDE64345E5D288
:10156800B8EB020E69EB04010138DFE70846D2E761
:1015780060468DE78146B9E7664675E730464AE733
:10158800ACF1020C394413E702383C4424E700BFAD
:10159800704700BFFEE700BF0D4B0E4A934206D0CE
:1015A8000D4951F8040B43F8040B9342F9D10B4B46
:1015B8000B4A934204D0002143F8041B9342FBD109
:1015C80004F050FCFFF750FB00F01AF8FEE700BFEC
:1015D80000000024CC010024E0E50008D00100242C
:1015E80084B80024704700BF704700BF704700BF31
:1015F800704700BF704700BF704700BF704700BF0B
:101608002DE9F04F2DED068BB7EE009A89B0002139
:10161800764800F0DDFC754800F002FCC9EE007A5F
:10162800734E4FF07C5CDFED739A00279FED728A52
:10163800304672496C46F0EE408A714AF0EE08AACC
:10164800704B714DB0EE690A9FED70AAB846C6F8A6
:1016580004C0DFF80C9281ED008AC2ED00AAC6ED45
:10166800038AC6ED029A86ED058AC6ED047A85EDF1
:10167800008A83ED00AA0CF037FC40F20113F0EE6B
:10168800407ADFF8E0A14846B384B0EE680AC6EDB8
:10169800067A37700BF01CFFDFF8CCB1F0EE680A61
:1016A800B0EE6A0A5A480CF02BFCB0EE680A5046B5
:1016B8000CF00AF8F0EE490A9FED560ABBE80F0055
:1016C8000FC49BE80F000BF1100584E80F003A46A1
:1016D8006946514801F0B4FEEC46B0EE480AF2EE15
:1016E800040A0FCDACE80F0095E80F0084E80F005E
:1016F8003A466946494801F0A3FEABF1100EEC46A4
:10170800F2EE0A0AB1EE000ABEE80F00ACE80F00DC
:101718009BE80F0084E80F003A466946404801F00C
:101728008FFEA5F1100EEC46B0EE690ADFED3D0A1A
:10173800DFF838B1BEE80F00ACE80F0095E80F00FD
:1017480084E80F0069460222374801F079FE012338
:10175800364A4FF0020C364D3370C9F80820354E22
:10176800354A364882ED008A3549DFF804E1354AC2
:1017780089ED058A89ED069ACAF80450DFF8F490D5
:101788003770314C314D324E8AED02AA80ED008A15
:1017980013700F708EED008A89F800C008EB4800BE
:1017A80000222C4B4FF07C575FFA88F108F10108B2
:1017B80005EB80004BF8047B06F8012F44F8043B46
:1017C80004F090FBB8F1080FE8D1F7EE000A9FED9E
:1017D8000A1A2148B0EE600A04F096FB034800F0AC
:1017E80021FB1E49014800F019FBFEE7940500247F
:1017F800140500240000C84200000000040500246D
:1018080010980024BC0400240805002400409C46CD
:10181800C89700248FC2F53C0C0400245C05002402
:10182800D897002400401C46840400240AD7233C8F
:101838003333333FC4970024100500240C050024DB
:1018480045040024440400243C0500248C0300249F
:10185800830300240000DC42E0030024ED1C0008A0
:1018680048040024C0040024F0050024EC030024EC
:1018780080040024149800240B4B1B7843B10B4AB6
:101888000B4B11789B6D0B4403F0070313707047E3
:10189800084A074B10789B6D0749034403F001037E
:1018A800D81C13700870704744040024C49700249F
:1018B8009405002414980024140500240F4B1B7869
:1018C80043B10F4B93F8B9207F2A0AD093F8A93077
:1018D8007F2B00D070470B4A137883F001031370F5
:1018E8007047094A0948117893F8A930425C7F2B60
:1018F80082F001024254EDD1EDE700BF4404002418
:101908009405002445040024C4970024840300247B
:101918002DE9F8435E485F4D5F4C604F2DED028B1B
:1019280001F0FCFC5E4885ED000A01F0F7FC5D4B18
:1019380084ED000A1B78002B42D097ED008AD5ED84
:10194800008ADFF89081584898F8006001F0A6FDF9
:1019580038EE687A9FED4C6BB0EEC77AB7EEC77A6F
:10196800B4EEC67BF1EE10FA04DD504B03EB8603B0
:1019780083ED000A4E4E4F4801F090FDD4ED007AF9
:1019880096ED007A98F800C037EE677A9FED3E6BC7
:10199800B0EEC77AB7EEC77AB4EEC67BF1EE10FAAE
:1019A80050DC454B03EB8C0393ED000ADFF82881EC
:1019B800404688ED020A0CF097FA88ED060A39E0ED
:1019C800D5ED008A97ED008A3C4801F067FD38EEB6
:1019D800688A374EDFF80491B0EEC88A3848DFF8D5
:1019E80000819FED296BB7EEC88AB4EEC68BD4EDA3
:1019F800008A96ED008AF1EE10FAC8BF89ED000A58
:101A080001F04CFD38EE688A2E489FED1F6BB0EE52
:101A1800C88AB7EEC88AB4EEC68BF1EE10FAC8BF12
:101A280088ED000A99ED000A0CF096FAD8F8002023
:101A3800254B9A602A6823683A603360BDEC028BB4
:101A4800BDE8F883FDEEC07A2049214817EE902AB8
:101A580081FB0231D317C3EB6103174903EB830EF4
:101A68000133A2EB0E0200EE103A01EB8C0300EBFF
:101A78008202B8EEC00AD2ED007A20EE270A83ED82
:101A8800000A93E7AFF30080FCA9F1D24D62403F12
:101A9800F005002404050024080500240C05002492
:101AA80010060024440400240C040024EC03002441
:101AB800100500245C0500243C050024D897002468
:101AC80084040024C8970024C0040024676666665E
:101AD8006C000024C49700241405002410980024E6
:101AE800BC04002470B5194E86B0194B327803AD8A
:101AF8006C4602EB420203EB820393E8070084E89A
:101B0800070085E807002946124801F05BFD337895
:101B1800114AD35C63B194E8070085E807002946B9
:101B28000E4801F04FFD0E4800F09CF906B070BD5C
:101B38009FED0C1A0948F0EE410AB0EE410A01F097
:101B480027FD074800F08EF906B070BDC497002441
:101B58008C0300246006002484030024B4060024B7
:101B68009405002400000000114B1B7810B533B118
:101B7800FFF7B8FF0F48BDE8104000F073B90E4CEE
:101B88009FED0E1AD4ED000AB0EE410A0C4801F0A0
:101B9800FFFC9FED0A1AD4ED000A0A48B0EE410A8C
:101BA80001F0F6FC0348BDE8104000F05BB900BF47
:101BB800440400249405002480040024000000004C
:101BC800B40600246006002410B5114C204600F02D
:101BD80039F9204600F02AF994F841307F2B0ED0CD
:101BE8000C4B1B780BB90C4A1370FFF745FEFFF737
:101BF80065FEFFF78DFEBDE81040FFF7B5BF054A4B
:101C0800002006491378087083F001031370E9E790
:101C1800940500244404002445040024C4970024A7
:101C280070B5254D0446254E28460BF069FC244B1B
:101C3800304686ED010A83ED000A0BF073FF214858
:101C480084ED000A0BF05EFD1F4884ED000A0CF0DD
:101C580069F910B11D4B1B786BB11D4B1D4A1B78E0
:101C6800D25CB2B92B782BB91B4B1B7813B101236B
:101C780085F8343070BD164916480A78013202F0EA
:101C8800070213460A70825C002AEBD0012285F80D
:101C98003420124A1249094801EB830102EB8303FD
:101CA80091ED000A1B6886ED020AEB600CF01CF946
:101CB80086ED060AD6E700BF480400241405002470
:101CC80080040024C0040024C8970024440400248D
:101CD800C49700248403002445040024EC03002452
:101CE8003C05002470B582B00C461646FFF76CFF21
:101CF8000023019386B1013E002526F0010601A8C4
:101D08000834FFF78DFF019AB54205F1020544F842
:101D1800082C44F8042CF2D102B070BDF8B52C4B55
:101D280049F220272B4849F22222B3F800C00025A7
:101D3800998849F21C2620F807C049F224238152C9
:101D480049F22821244F49F22C22244CC55049F24B
:101D58002E2385514FF60F064750072186522246FB
:101D6800C15445611E490562C0F874511D4E0CF0FE
:101D780003F922461C491D480CF0FEF822461C496E
:101D88001C480CF0F9F8224631461B480CF0F4F8D0
:101D98002246314619480CF0EFF8224631461848D9
:101DA8000CF0EAF82246314616480CF0E5F82246CF
:101DB800154916480CF0E0F82246154915480CF06C
:101DC800DBF8224628461449BDE8F8400CF0D4B8A0
:101DD8008CDF00089405002480707FF00000002448
:101DE800F1150008ED150008F91500081405002480
:101DF800F5150008480400240C0400245C050024A0
:101E0800D89700248404002401160008C8970024E9
:101E1800FD150008C00400240516000800F0B8B934
:101E280000F0BAB9183001F0E3BF00BF10B504469E
:101E38005C3001F073FA04F17C00BDE8104001F059
:101E48006DBA00BF10B504463C3001F0C9FA04F180
:101E5800A40001F0F7FB04F1B400BDE8104001F064
:101E6800F1BB00BF10B50446CC3001F0C1FB04F54E
:101E78009070BDE8104001F0BBBB00BF2DE9F041F8
:101E880004468CB014204FF0010800F06BF90346AB
:101E9800132004F1CC07ADF80C3000F063F90346C9
:101EA800122004F5907406AEADF8103000F05AF91F
:101EB8000346049A03993846ADF8143009AD059BDA
:101EC800CDF8008001F03CFB112000F04BF90346EF
:101ED8001820ADF80C3000F045F903461720ADF88E
:101EE800103000F03FF90346049A20460399ADF8F4
:101EF8001430059BCDF8008001F022FB3046072105
:101F080003F0F0FF96E8070085E807003846294601
:101F180001F058FB96E8070085E8070029462046A7
:101F280001F050FB384601F063FB204601F060FBEE
:101F38000CB0BDE8F08100BF2DE9F0410446152042
:101F4800002504F1180704F19C062DED028B8EB0D4
:101F58009FED1E8A00F006F9034605A8ADF80C307F
:101F6800039901F095FB0F2000F0FCF803460DF1F2
:101F78002500ADF81030049901F08AFB04230222F1
:101F880005A9384601F092FB04F15C0204F17C03D8
:101F9800C4E927232946384656F8048B01F03EFF4A
:101FA80001462046019100F017F90023F0EE480A97
:101FB800019940461A4601F093F925B10EB0BDECDF
:101FC800028BBDE8F0810125E4E700BF6F12033BF7
:101FD800F0B5044600252DED028B8FB004F1A4075F
:101FE80004F1B406B7EE008A019100F09BF801995C
:101FF800204600F02DF91B2000F0B4F803462046D7
:10200800ADF8143000F0E8F80599384601F0FEFA0A
:102018001C2000F0A7F803462046ADF8183000F061
:10202800DBF80699304601F0F1FA1A20C4E9317656
:1020380000F098F803461920384EADF80C3000F03F
:1020480091F803460D20ADF8103000F08BF80346E8
:102058002046ADF81C3000F0BFF8079B04F13C00A7
:10206800DDE9031201F096F92046FFF707FF204645
:10207800FFF762FF49F21C2349F22022284949F25E
:102088002420E5500123A65047F612220226079184
:10209800204407A908950A9509930D92CDE90B6389
:1020A80003F040FC49F20C220A2349F2102184F87B
:1020B8007851204665503021A55084F87C3100F0D5
:1020C8006FF8204600F088F8C8EE007AD4F89C50E3
:1020D8002046C4ED117A00F07FF8284601F042F955
:1020E800D4F8A050204600F077F8284601F03AF9D5
:1020F8002046D4F8C45000F06FF8C8EE007A2046A5
:10210800D4F8C840C5ED027A00F066F8C8EE007A47
:10211800C4ED027A0FB0BDEC028BF0BD01070106D9
:10212800010601070B4A40F207110B4B02604FF4FE
:10213800877243600623C1844285037480F829307E
:1021480070B40224054E064D80F82540C0E90265AA
:1021580070BC70470007050001050805090507055B
:1021680006050A061F2882B009D8084B03EB40026F
:1021780013F81030507843EA002002B0704701236A
:102188000C2043EA002002B0704700BF9CE300081F
:10219800143001F087B800BF143001F07FB800BFD9
:1021A80038B500F1140504462DED028B284601F0E0
:1021B80067F8284601F072F82846B0EE408A01F028
:1021C8005BF8D0ED007AF8EE677A88EE277ABDECF6
:1021D800028B84ED0E7A38BD90ED0E0A704700BF71
:1021E800F0B51A4D91B000210446079505F1007528
:1021F8004FF44170002201230326012705F540759D
:102208000691029106A9ADF8240002A80895302588
:10221800CDE90C23CDE90E23CDE90A6702F064FC71
:1022280040F601334FF07E56ADF80430019800F0C7
:102238004DF80323029A03A904F114000596CDE989
:10224800035300F0E5FF11B0F0BD00BF0402040421
:1022580030B504462DED028B83B089B3012240F2DC
:1022680001130092ADF80430694604F1300003F020
:1022780061FD204600F04CF8E01C01F0D1FF04F1AC
:10228800250001F0D1FE04F1140504F1290001F044
:10229800CBFE2046FFF7A4FF284600F0FFFF2846A4
:1022A800B0EE408A00F0E8FFD0ED007AF8EE677AE9
:1022B80088EE277A84ED0E7A03B0BDEC028B30BD30
:1022C80040F201130091ADF80430CDE710B584B0A9
:1022D80003460124ADF8040003A8ADF80C30ADF8AE
:1022E8000E4001F0A1FE214603A801F087FF204619
:1022F80003F03AFC03A8002101F080FF204603F018
:1023080033FC214603A801F079FF04B010BD00BFDB
:102318002DE9F043444C8BB0A063037823B100252A
:1023280028460BB0BDE8F083404A0A23002601275F
:10233800626008220893202302A9201DC4E90267CD
:10234800C4E9042340264FF4C07700224FF4006309
:10235800C4E90667C4E908234FF48056002702221F
:102368000723C4E90A67CDE90223042603220023D0
:102378000827CDE90623CDE9046708F0C9FE05461C
:1023880000284CD14FF001084FF010090126002712
:1023980002A94FF480520190201DCDE902894FF027
:1023A80002084FF01009CDE9046708F0DBFE64204D
:1023B80003F0D2FE02A94FF48052201DCDE9046734
:1023C800CDE9028904264FF003084FF010090027D1
:1023D80008F0C8FE02A94FF48052201DCDE9046719
:1023E800CDE9028908F0BEFE40F232234FF0010C1D
:1023F800042601931027019B02A94FF48052201D47
:10240800CDE904C3CDE9026708F0ACFE201D40F613
:10241800060108F0C7FE28460BB0BDE8F083012589
:1024280028460BB0BDE8F0832098002440410052B4
:10243800694A2DE9F04315688FB015B10FB0BDE8B2
:10244800F083664B01210C24002611600327D3F882
:10245800D4204FF683784FF0020908A942F480523D
:102468005F48C3F8D420D3F8D42002F480520092F5
:10247800009AD3F8E02042F01002C3F8E020D3F825
:10248800E02002F010020192019AD3F8E02042F015
:102498004002C3F8E020D3F8E02002F040020292A4
:1024A800029AD3F8E02042F00802C3F8E020D3F8FB
:1024B800E02002F008020392039AD3F8E02042F4E5
:1024C8008072C3F8E020D3F8E02002F4807204920E
:1024D800049AD3F8E02042F08002C3F8E020D3F851
:1024E800E02002F080020592059AD3F8E02042F03D
:1024F8002002C3F8E020D3F8E02002F02002069280
:10250800069AD3F8E02042F00402C3F8E020D3F89A
:10251800E0300C9403F004030793079BCDE90A67A6
:10252800CDE9088905F0C6FC48F23712022308A94C
:102538002C480C94DFF8C080CDE90A67CDE9082360
:1025480005F0B8FC4CF20372022308A926480C9443
:10255800CDE90A67CDE9082305F0ACFC40F2FF623B
:10256800022308A921480C94CDE90A67CDE908237C
:1025780005F0A0FC4FF60C72022308A91C480C9425
:10258800CDE90A67CDE9082305F094FC4FF63F0230
:10259800022308A917480C94CDE90823CDE90A6756
:1025A80005F088FCD8F83800013003F0B5FCD8F8FD
:1025B80038300646581C03F0B7FC022207460323AE
:1025C80008A930460C9408970B93CDE9092505F026
:1025D80071FC0FB0BDE8F08318980024004402583D
:1025E8000010025800180258000C02580020025827
:1025F800001C025800140258209800242DE9F04FBE
:10260800DFF8288406460D46144608F114002DED1F
:10261800028B89B000AF02F057FBD8F814305BB3D7
:10262800D8F818304269002B0BBF022304234FF05F
:1026380008094FF01009FB61D8F804304BB3A1002A
:10264800E946012A01F1070121F00701ADEB010D6F
:102658006846ADEB010D694600F04281022A00F0A0
:10266800DB80002A74D022469847CD462437BD46E1
:10267800BDEC028BBDE8F08FD8F81830002BF5D0F0
:1026880002234FF008094269FB61D8F80430002B97
:10269800D5D1D8F80030BA617B61002BE6D06B4603
:1026A800DA4808EE103A02F057FB8646F869BA692C
:1026B800022800F08E816B46C7F810903969A3EBA9
:1026C800C4039D466300E946B3FBF0F3A9EBC40CD1
:1026D800C7F8189009EB830AB869E546ADEB010D18
:1026E8000CEB8301EB46F9603969C7F810A00AEBD7
:1026F800830AADEB010DCBF80000F9680AEB830003
:10270800E94601EB8301CBF80C00386901EB830340
:10271800C9F800C0CBE9010AF868C9E90213C9F889
:102728000400012A00F08283022A00F07C82002A39
:1027380000F086816208494658467B69984718EE3A
:10274800103A24379D46BD46BDEC028BBDE8F08F9C
:10275800002C88D098ED0B6A864606F1040CDFED54
:10276800B66A36F922A00EF1080E07EE10AA3CF957
:1027780022A0023207EE90AAB8EEC77A9442F8EE89
:10278800E77A27EE267A67EEA67A27EE067A67EECC
:10279800867A0EED027A4EED017AE2D8F961224688
:1027A80098479B4EF9690020D8ED046A2B1D9FEDD0
:1027B800A37A9FED986ADFED985A22E0F4EEC67A84
:1027C800F1EE10FAC0F2EF8447F6FE72D1ED017A0D
:1027D80045F8202066EEA77AF4EEC77AF1EE10FAF3
:1027E80040F2F580F4EEC67AF1EE10FAC0F2FC84FD
:1027F80047F6FE7243F820200230083184427FF603
:1028080034AFD1ED007A66EEA77AF4EEC77AF1EE2E
:1028180010FAD3D83246D9E7002C3FF424AF98ED0C
:102828000B6A8646002206F1040CDFED7C6A06EB93
:10283800820A0EF1080E9AED007A0CEB820A023237
:10284800DAED007AB8EEC77A9442F8EEE77A27EE26
:10285800267A67EEA67A27EE067A67EE867A0EED76
:10286800027A4EED017AE2D8F961224698476C4E19
:10287800F9690020D8ED046A2B1D9FED707ADFF806
:10288800B0C19FED646A20E0F4EEC67AF1EE10FA6A
:10289800C0F2A2843246D1ED017A45F8202066EED6
:1028A800A77AF4EEC77AF1EE10FA40F28E80F4EED1
:1028B800C67AF1EE10FAC0F28784324643F8202037
:1028C8000230083184427FF6D0AED1ED007A66EE50
:1028D800A77AF4EEC77AF1EE10FAD5D86246DAE7AD
:1028E800002C3FF4C0AE06F1040CFD6198ED0B6AB4
:1028F8001D46834663464FF0000ADFED4A6AB44638
:102908005CF82A200BF1080B53F82A600AF1020A36
:1029180082F4000286F4000E5445A2F5000207EE88
:10292800102AAEF5000207EE902AB8EEC77AF8EE44
:10293800E77A27EE267A67EEA67A27EE067A67EE1A
:10294800867A0BED027A4BED017AD9D82B46FD69D0
:102958002246F9619847344EF9690020D8ED046A97
:102968002B1D9FED367ADFF8CCC09FED2A6A1FE059
:10297800F4EEC67AF1EE10FAC0F21E843246D1EDBA
:10298800017A45F8202066EEA77AF4EEC77AF1EED0
:1029980010FA18D9F4EEC67AF1EE10FAC0F2FB83F9
:1029A800324643F820200230083184427FF65DAE7B
:1029B800D1ED007A66EEA77AF4EEC77AF1EE10FA56
:1029C800D6D86246DBE76246EBE7624676E73246F0
:1029D80010E7A3006008073323F00703ADEB030DEE
:1029E800EC46ADEB030DEA46ADEB090D0CEB8003AD
:1029F800C7F818C0EB46ADEB090D0AEB80003B6148
:102A0800E946CBE900C3C9E900A08AE67498002426
:102A18000280FFFF04FF7F3F00FEFF4600000030FA
:102A28000082FF7F0000003482FF7F005C98002452
:102A3800007E00807E0080FF0000003804FF7FBF1A
:102A4800002C00F0EC82F969D8F82030022900F057
:102A58001B8303EB8E0ADBF80C104FEA8E03C7F8D2
:102A680000B006F1040C5FED0C5A7B60DBF808300F
:102A7800D7F818E0FB600AF10403C7F818909B46E2
:102A8800D7F81090B9603D613CF9221036F9223030
:102A980006EE901A3AF9221006EE103A98ED0B5A03
:102AA80007EE101AF8EEE66AB8EEC66A3BF922108D
:102AB800B8EEC77A530807EE901A66EEA56A26EEB6
:102AC800256AF96827EE257A09EB8300F8EEE77A9C
:102AD8000EEB830526EE056A01EB830127EE057AE6
:102AE800023266EE856A67EEA57A85ED006A944241
:102AF800C0ED006A81ED007A98ED0B7AB86867EE50
:102B0800877A00EB8303C3ED007ABDD8D7F800B00D
:102B1800D7F818903D69620849467B695846984736
:102B2800D8F8283079680022D8ED046A1944D9F811
:102B380000E0D9F804C02B1D01F104088A461FEDF6
:102B4800417AC7F81880B14E9FEDB16ADFEDB15AEE
:102B5800D7F81C8052E0F4EEC67AF1EE10FAC0F213
:102B6800DC8247F6FE7B0CEB010045F822B0D0ED85
:102B7800007A66EEA77AF4EEC77AF1EE10FA4CD92D
:102B8800F4EEC67AF1EE10FAC0F2D08247F6FE7083
:102B9800B8F1020F43F822002CD0D9F808000844F5
:102BA800D0ED007A66EEA77AF4EEC77AF1EE10FA65
:102BB80037D9F4EEC67AF1EE10FAC0F2E38247F69E
:102BC800FE7BD9F80C004AF822B00144D1ED007A16
:102BD80066EEA77AF4EEC77AF1EE10FA1FD9F4EE92
:102BE800C67AF1EE10FAC0F2C58247F6FE71B869EE
:102BF80040F82210023294427FF6A1AD51080EEB44
:102C080081008900D0ED007A66EEA77AF4EEC77AE3
:102C1800F1EE10FA9FD8B346A5E73046B8E731463B
:102C2800E5E7B346CDE7002C00F0F981FA69D8F85A
:102C38002030022A00F0FA8103EB8E0ADBF8083014
:102C4800C7F800B006F1040CFB604FEA8E030AF1E6
:102C58000402DFED715A7B60DBF80C309346D7F83D
:102C680018E0BB600023C7F81890D7F810903D61B2
:102C780056F823105A0898ED0B5A07EE901A5CF88C
:102C8800231009EB8200B8EEE76A07EE901A5AF8AB
:102C980023100EEB8205F8EEE76A07EE901A0BEBAD
:102CA800830126EE256A0233B8EEE77AD1ED007A81
:102CB80066EEA56AF968F8EEE77A9C4227EE257A6F
:102CC80001EB820126EE056A66EE856A27EE057A33
:102CD80067EEA57A85ED006AC0ED006A81ED007A9D
:102CE80098ED0B7AB86867EE877A00EB8202C2ED3E
:102CF800007ABDD8D7F800B0D7F818903D69584683
:102D0800620849467B699847D8F8283079680022D4
:102D1800D8ED046A19442B1DD9F800C08B4604313C
:102D2800D9F80480C7F814B09FED3F7AD7F81CB0E3
:102D3800DFF8ECE09FED366A384EB961FB6150E090
:102D4800F4EEC67AF1EE10FAC0F20682304608EBCD
:102D5800010A45F82200DAED007A66EEA77AF4EE69
:102D6800C77AF1EE10FA4BD9F4EEC67AF1EE10FA02
:102D7800C0F2F9813046FB69BBF1020F43F822002B
:102D88002BD0D9F808000844D0ED007A66EEA77A6F
:102D9800F4EEC77AF1EE10FA36D9F4EEC67AF1EE0F
:102DA80010FAC0F2D2813046D9F80CA07B695144A0
:102DB80043F82200D1ED007A66EEA77AF4EEC77ADE
:102DC800F1EE10FA1ED9F4EEC67AF1EE10FAC0F25E
:102DD800B5813146BB6943F82210023294427FF62E
:102DE800AEAC51080CEB81008900D0ED007A66EE9C
:102DF800A77AF4EEC77AF1EE10FAA1D87046A6E7E2
:102E08007046B8E77146E5E77046CDE70280FFFFF8
:102E180004FF7F3F00FEFF46000000300082FF7F76
:102E2800007E00800000003404FF7FBF002C00F00B
:102E3800F680D8F820304FEA8E02BD60002103EBFF
:102E48008E0E06F1040C1FED096A0EF104003D69AF
:102E5800D7F818A0FA60C7F8189056F821204FEA5A
:102E680051095CF8213082F40002D8ED0B6A83F432
:102E78000003A2F50002A3F5000307EE102A05EBF4
:102E8800890207EE903A0AEB8903B8EEC77A4FEA4F
:102E98008909F8EEE77A27EE067A67EE867A27EE52
:102EA800267A67EEA67A83ED007AFB69C2ED007A8E
:102EB800022B27D05EF8212050F8213082F400023E
:102EC80083F40003A2F50002A3F5000307EE902A9D
:102ED800DBF80820B8EEE77A07EE903A4A44DBF8C8
:102EE8000C30F8EEE77A27EE067A4B4467EE867ADE
:102EF80027EE267A82ED007A98ED0B7A67EE877ACC
:102F0800C3ED007A02318C42A7D8D7F818905846FA
:102F180062087B694946BD689847D8F82830F9683F
:102F28000022D8ED046A19442B1DD9F800C08B463D
:102F38000431D9F80480C7F814B01FED457AD7F8E2
:102F48001CB0DFF8C8E29FEDAD6AAD4EB961FB6118
:102F580050E0F4EEC67AF1EE10FAC0F2C2803046C4
:102F680008EB010A45F82200DAED007A66EEA77A46
:102F7800F4EEC77AF1EE10FA4BD9F4EEC67AF1EE18
:102F880010FAC0F2BC803046FB69BBF1020F43F86F
:102F980022002BD0D9F808000844D0ED007A66EE5C
:102FA800A77AF4EEC77AF1EE10FA36D9F4EEC67ABB
:102FB800F1EE10FAC0F2AA803046D9F80CA07B696D
:102FC800514443F82200D1ED007A66EEA77AF4EE78
:102FD800C77AF1EE10FA1ED9F4EEC67AF1EE10FABD
:102FE800C0F286803146BB6943F82210023294420F
:102FF8007FF6A5AB51080CEB81008900D0ED007A73
:1030080066EEA77AF4EEC77AF1EE10FAA1D8704608
:10301800A6E77046B8E77146E5E77046CDE7224671
:10302800494658467B699847FFF789BB98ED0B6A74
:10303800002306F1040CDFED736AB869D7F810A015
:1030480006EB83020CEB830192ED007A5A08D1ED6E
:10305800007A0233B8EEC77A00EB8201F8EEE77A1D
:103068000AEB82029C4227EE267A67EEA67A27EEC2
:10307800067A67EE867A81ED007AC2ED007ADFD8AB
:103088004FEA8E037B603AE698ED0B6A06F1040C72
:10309800DFED5D6AB869D7F810A036F922303CF93F
:1030A800221007EE103A530807EE901A0232B8EED3
:1030B800C77A00EB8301F8EEE77A0AEB83039442C0
:1030C80027EE267A67EEA67A27EE067A67EE867AE4
:1030D80081ED007AC3ED007ADFD84FEA8E037B607A
:1030E80019E5F0EE675AFEEEE45A15EE900A37E756
:1030F800F0EE675AFEEEE45A15EE901A73E7F0EE1A
:10310800675AFEEEE45A15EE900A3DE7F0EE675A6C
:10311800FEEEE45A15EE900A4FE767EEA57AFDEE4B
:10312800E77A17EE900A0FFA80FB1CE567EEA57A9E
:10313800FDEEE77A17EE900A00B229E5F0EE675A3D
:10314800FEEEE05A15EE901A44E6F0EE675AFEEEEF
:10315800E05A15EE900A27E6F0EE675AFEEEE05ABE
:1031680015EE900AF3E5F0EE675AFEEEE05A15EE1A
:10317800900A00E667EEA57AFDEEE77A17EE901A58
:1031880009B234E567EEA57AFDEEE77A17EE900A04
:103198000FFA80FB15E5F0EE675AFEEEE45A15EEDD
:1031A800902AFFF7FEBB67EEA57AFDEEE77A17EEE9
:1031B800902A12B2FFF70ABBF0EE675AFEEEE45A05
:1031C80015EE902AFFF7DBBBF0EE675AFEEEE05AE9
:1031D80015EE902AFFF772BBF0EE675AFEEEE05A42
:1031E80015EE902AFFF757BB67EEA57AFDEEE77A52
:1031F80017EE902A12B2FFF7FDBA00BF04FF7F3F17
:1032080082FF7F0000000030000000387E0080FF51
:1032180070B5164C154684B0046004F1080601AB7D
:1032280007C986E80700D4ED047AF5EEC07A83E88A
:103238000700F1EE10FA15DDF7EE006A86EEA77AC0
:1032480084ED0B7A75B1204640F8145F01F03CFD1F
:103258000346074A00201969064BE160E261636290
:1032680004B070BD012004B070BD00BF5C9800249C
:10327800002000300000003000680830704700BFB0
:10328800B1F5807F03680A4628BF4FF48072B1F514
:10329800807F9A6094BF0020012070470068143036
:1032A80001F048BD70B5046882B0084E0D46A368A9
:1032B80004F11400626AE1699B00009601F006FDC2
:1032C8000020C4E9000502B070BD00BF0526000853
:1032D800024B0022C3E90522704700BF5C98002416
:1032E800F6EE006A016060EE207A0021B7EE007AFF
:1032F8000276437667EEA67A80ED020AC0ED070AE9
:1033080080ED047AC7EE276AC160416110B40024D9
:1033180084765DF8044BC0ED016A70470268037E4D
:10332800128807EE902AFBEEC87A1BB1B7EE007A36
:1033380077EE677AD0ED056A90ED047A77EEE67A53
:10334800437E67EE877A0BB1F1EE677A90ED030A58
:1033580090ED017A77EEC07AA7EE270A80ED030A8E
:10336800704700BF837E80ED020A73B9D0ED077AFB
:1033780027EE800AF6EE007AB7EE007A20EE270AEA
:10338800C7EE007AC0ED017A7047DFED017AEFE70A
:103398006F12033B30B5044685B04FF4807510308A
:1033A800ADF80820ADF80C100180A2826582E58294
:1033B8008DED000AADF8043000F036FE04F114007B
:1033C80000F032FE9DED000A2046019900F01EF93A
:1033D80000224FF6FF73E261238305B030BD00BFC2
:1033E80070B5067E04461030760000F0F9FE0346FC
:1033F80076B2657E04F114001E436D0026766DB228
:1034080000F0EEFE034620461D43657600F01AF9EB
:10341800237E002203F00303E261022B06D0627EC2
:1034280002F00302022A00D133B170BD637E9B070C
:10343800FBD10123E36170BD4FF0FF33E36170BD41
:10344800DFED157A70B5B4EE670A0C4606460546F8
:103458002DED028B80ED080AF1EE10FAC0ED090A95
:10346800B0EE608A80F8342048BFB0EE670A0FCC0F
:103478000FC594E80F0085E80F00FCF7BFFFF0EEDA
:10348800407AB0EE480AC6ED0A7AFCF7B7FF86ED37
:103498000B0ABDEC028B70BD95BFD63390F8343063
:1034A80010B50446032B47D8DFE803F0152435028E
:1034B800FFF734FF60EE006AD4ED087A94ED097ADC
:1034C80066EE806A37EE677AE6EE877AB0EE670ACC
:1034D800C4ED0C7A10BDFFF721FFD4ED087A94ED06
:1034E800097A37EE677AE0EE077AB0EE670AC4ED3C
:1034F8000C7A10BDFFF712FFD4ED087A94ED097A23
:1035080020EE000A37EE677AE0EE077AB0EE670A37
:10351800C4ED0C7A10BDFFF701FF94ED0A7AD4EDE3
:103528000B7A77EEC77AA0EE277AB0EE470AFCF757
:10353800F3FE84ED0C0A10BD90ED0C0A10BD00BF1F
:1035480030B585B004469FED110A9DF82050ADF8BE
:103558000C100399ADF808202A468DED000AADF845
:10356800043009F0DDFB9DED000A2A4604F11C0039
:10357800029909F0D5FB9DED000A2A4604F13800AE
:10358800019905B0BDE8304009F0CABB00007A4493
:1035980010B52DED028BF0EE608A0446B0EE418A3C
:1035A80009F0E2FB04F11C00B0EE680A09F0DCFB4C
:1035B800B0EE480A04F13800BDEC028BBDE81040BB
:1035C80009F0D2BB38B50C46054691ED000A09F062
:1035D800CBFB94ED010A05F11C0009F0C5FB05F1D0
:1035E800380094ED020ABDE8384009F0BDBB00BFC1
:1035F80010B5044609F0CAFB04F11C0009F0C6FB2B
:1036080004F13800BDE8104009F0C0BBB7EE007AFD
:1036180001220346C7EE007A70B4002683B0C1F3D6
:1036280007250024ADF80410C660417010449D7051
:10363800DC701A709A809A71C3ED027A03B070BC7C
:1036480000F0F2BC38B5447905468379013064004E
:1036580064B2B3B100F0C4FDB0FA80F35B09234350
:10366800DBB2A3F17F026B71012A0ED9FF2B07D1C0
:10367800D5ED037A95ED027A77EE877AC5ED037A70
:1036880038BD00F0ADFD43B2E9E70023EB6038BD7B
:1036980082B000230322ADF80410BDF80410827034
:1036A80001800374C37002B0704700BF2DE9F04F6A
:1036B800DB4F0026DB4C8FB007F138054260037002
:1036C8009646A4F80961844603960696BE61C4F836
:1036D800FD60C4F80161C4F80561C4F82461C4E957
:1036E8004A75C7E90066C7E90266C7E90466C4E91E
:1036F8004366C4E94566C4E94766CDE90466CDE991
:103708000766CDE90966CDE90B6684F8FC204268B6
:1037180084F80C62002A00F091820D460868A046E1
:103728004968EB68AA683E80A8E80F002B7C88F8F7
:1037380000302B7C84F8FD302B7C002B40F09F82DE
:10374800DCF80430012B40F2B4812B46B64A002144
:1037580053F8119F7980D3F804809E68D868C4F81C
:103768001190C2F804809660D0601B7C137495F8A1
:10377800213084F8FE3095F82130002B40F0838208
:10378800DCF80430022B40F294812B46A74A002132
:1037980053F8229FB980D3F804809E68D868C4F88B
:1037A8002290C2F804809660D0601B7C137495F850
:1037B800323084F8FF3095F83230002B40F05B82CD
:1037C800DCF80430032B40F274812B46984A002120
:1037D80053F8339FF980D3F804809E68D868C4F8FA
:1037E8003390C2F804809660D0601B7C137495F8FF
:1037F800433084F8003195F84330002B40F047827D
:10380800DCF80430042B40F25481A8460023894E8A
:1038180058F8440F3B81D8F80410D8F80C30D8F881
:1038280008200FC698F81030337095F8543084F893
:10383800013195F8543013B1012384F80C32DCF8C7
:103848000430052B40F235812B467B4A002153F882
:10385800559F7981D3F804809E68D868C4F855903C
:10386800C2F804809660D0601B7C137495F86530AC
:1038780084F8023195F8653013B1012384F80C32CD
:10388800DCF80430062B40F214812B466B4A0021E9
:1038980053F8669FB981D3F804809E68D868C4F845
:1038A8006690C2F804809660D0601B7C137495F80B
:1038B800763084F8033195F8763013B1012384F813
:1038C8000C32DCF80430072B40F2F3802B465C4ABC
:1038D800002153F8779FF981D3F804809E68D8684F
:1038E800C4F87790C2F804809660D0601B7C13748B
:1038F80095F8873084F8043195F88730002B40F02C
:10390800CA81DCF80430082B40F2D380A846002393
:103918004C4E58F8880F3B82D8F80410D8F80C3071
:10392800D8F808200FC698F81030337095F89830FA
:1039380084F8053195F89830002B40F01D82DCF8AA
:103948000430092B40F2B5802B463F4A002153F83A
:10395800999F7982D3F804809E68D868C4F89990B2
:10396800C2F804809660D0601B7C137495F8A93067
:1039780084F8063195F8A930002B40F0F981DCF87D
:1039880004300A2B40F295802B46304A002153F828
:10399800AA9FB982D3F804809E68D868C4F8AA9010
:1039A800C2F804809660D0601B7C137495F8BA3016
:1039B80084F8073195F8BA30002B40F0D581DCF84F
:1039C80004300B2B75D92B46214A002153F8BB9F95
:1039D800F982D3F804809E68D868C4F8BB90C2F80E
:1039E80004809660D0601B7C137495F8CB3084F803
:1039F800083195F8CB30002B40F0A881DCF8043072
:103A08000C2B56D9A8460023124E58F8CC0F3B83EE
:103A1800D8F80410D8F80C30D8F808200FC61BE0E6
:103A28000040003090980024A1980024B298002407
:103A3800C3980024D4980024E5980024F69800241C
:103A48000799002418990024299900243A990024F8
:103A58004B9900245C99002498F81030337095F83D
:103A6800DC3084F8093195F8DC3013B1012384F88F
:103A78000C32DCF804300D2B1BD92B46C64A00212A
:103A880053F8DD9F7983D3F804809E68D868C4F81A
:103A9800DD90C2F804809660D0601B7C137495F8A2
:103AA800ED3084F80A3195F8ED3013B1012384F82C
:103AB8000C325FFA8EF2B9484FF480210023C4F823
:103AC80048210122C4F830010820C4F8341194F8C0
:103AD8000C12C4F8383184F84431C4E95533C4E9C8
:103AE8004F20002900F0BD8084F8453184F84C212E
:103AF800C4F85C219CF8003000200021C4E958017A
:103B0800F3B101220021013B84F86821C4E95D1268
:103B1800082B0ED8DFE813F009001E012301D1009D
:103B2800D600DB00E000C300CA0003234022C4E93A
:103B38005B329B4802F050FF034648B1FFBEFEE7E8
:103B4800974884F8683102F047FF03460028F5D10A
:103B580003A99348039303F09BF80546002840F017
:103B6800F38040F2FF73022204200021CDE90823EC
:103B780094F8FC30CDE90A01002B00F0E28006271A
:103B8800DFF848B221E0022B00F0AC80012B40F0B6
:103B9800FB809AF80130012B00F0F480002B814B58
:103BA80018BF002306A97E480693079702F038FB42
:103BB800002840F0E580013594F8FC30EDB2AB42C6
:103BC80040F2BF80784B53F825700FFA85F808EB60
:103BD800081804EB080A504600F026FA05EB05130E
:103BE80023441B7C042B00F3AA80022B00F3A5803E
:103BF80000F084806319002283F8EE2014F808305E
:103C0800002BC0D19AF80130062B00F0E380072B77
:103C180000F0DE80022B00F0BD80032B00F0B8809E
:103C2800002B00F0B380012B00F0D680042B00F0AD
:103C3800D580052B5D4B18BF0023B3E75FFA8EF3E1
:103C4800564D4FF480200121C4F848310823C4F8A8
:103C5800382184F84421C4E95522C4E94C50C4E908
:103C68004F1301210022032384F8451184F84C21C5
:103C7800C4F85C313EE7012384F80C32A0E5012347
:103C880084F80C325CE5012384F80C3278E50123D2
:103C980084F80C32B4E5012384F80C3231E640F2A2
:103CA800FF134FF49072C4E95B3242E740F2FF33EE
:103CB8004FF4A072C4E95B323BE71F23A022C4E99A
:103CC8005B3236E73F23C022C4E95B3231E77F230A
:103CD800E022C4E95B322CE7FF234FF48072C4E989
:103CE8005B3226E79AF80130042B24D0052B20D02C
:103CF800EBB1012B2E4B18BF002353E701216319A9
:103D080008F10409002201971E462F46A1441546D2
:103D180083F8EE104846013500F086F996F8EE3043
:103D280009F10409AB42F5DC3D46019F66E7214BEA
:103D380038E7214B36E7214B34E70221DFE703213F
:103D4800DDE70FB0BDE8F08FFFBEFEE7012384F882
:103D58000C3253E607236022C4E95B32E9E60F23FD
:103D68008022C4E95B32E4E6012384F80C3226E6BB
:103D7800012384F80C3202E6012384F80C32DEE5D4
:103D8800FFBEFEE75B460DE700230BE70C4B09E798
:103D98000C4B07E70C4B05E76D9900240020024007
:103DA800C09900240002B025DCE300080000B84FE9
:103DB8000008302E0004002A000180211000C010E5
:103DC800000021430080F03E0040C03A2000F0147B
:103DD800034BE7E6034BE5E6034BE3E6034BE1E67B
:103DE8008000501D0800900C000052470000844BD2
:103DF80038B5094C40F2FF724FF0011104F598757F
:103E0800284602F0F3FE284694F8FC20D4F828113E
:103E1800BDE8384002F058BC90980024034B0D29A7
:103E2800D3F8280198BF00EB410070479098002410
:103E3800224B02689A4200D07047214B092000218A
:103E4800D3F8D820F0B51F4C42F02002002583B0EB
:103E580094F80C624FF48067C4F8B451C4F8B851B0
:103E6800AE42C3F8D82004F5CA75D3F8D83014BFC9
:103E780000224FF48072144E03F02003C4F89461BA
:103E880000260193019B4FF40053C4F8B0214FF46E
:103E98000062C4E966012846C4E96867C4E96A2380
:103EA80003F018F908B1FFBEFEE704F59873C4F8EB
:103EB8007C51C4F8CC3103B0F0BD00BF00200240F3
:103EC800004402589098002440000240014803F042
:103ED80091BC00BF249A002402682DE9F84F4C4B8E
:103EE8009A4201D0BDE8F88F4A4E96F80C32002B62
:103EF800F8D096F8FC20002A76D00024371D06F565
:103F0800867506F1FC09A04616E05FFA83FA03F00D
:103F1800010119F80FBC384600F070F9381DBBF1E3
:103F2800010FCAF3400123D896F8FC200134113759
:103F38000235A3B29A4227D919F8013F002BF5D0D0
:103F4800D6F828210021D6F82C3132F814008A46F8
:103F58002A7803EB041323F812002B8801339BB251
:103F68002B8099F800209A42CFD8A5F80080D0E796
:103F780000F044F9BBF1020F07F10800CAF3800111
:103F8800D2D000F03BF9CFE796F80C224FF00908A1
:103F98004FF00009204B002A4FF000044FF48065D1
:103FA8004FF400604FF4005114BF00224FF48072A8
:103FB800C6F89431C6E96689C6E96845C6E96A0162
:103FC80000231648C6E96C23C6F8B83103F082F816
:103FD80008B1FFBEFEE796F8FC20D6F82811104875
:103FE800BDE8F84F02F070BB0B4B092400250020F8
:103FF8004FF480614FF400684FF40059C6F89431CB
:10400800C6E96645C6E96801C6E96A89D8E700BF16
:10401800002002409098002440000240249A002486
:10402800C0990024704700BF30B583788FB004462C
:10403800022B37D0032B33D0012B31D000230A9326
:10404800E378012B2AD0022B28D000230B930023DE
:1040580020460C9301F060FF0546204601F064FFFE
:1040680023780990082B13D8DFE803F01F3245584E
:104078006B7E91A40500594BD3F8E02042F480727E
:10408800C3F8E020D3F8E03003F480730893089B6A
:10409800284609A903F00EFF0FB030BD0B93D6E7F1
:1040A8000A93CDE711230A93CAE74C4B284609A97E
:1040B800D3F8E02042F00102C3F8E020D3F8E03062
:1040C80003F001030093009B03F0F4FE0FB030BD32
:1040D800424B284609A9D3F8E02042F00202C3F86F
:1040E800E020D3F8E03003F002030193019B03F0D2
:1040F800E1FE0FB030BD394B284609A9D3F8E020BE
:1041080042F00402C3F8E020D3F8E03003F00403DF
:104118000293029B03F0CEFE0FB030BD2F4B284612
:1041280009A9D3F8E02042F00802C3F8E020D3F848
:10413800E03003F008030393039B03F0BBFE0FB0CA
:1041480030BD264B284609A9D3F8E02042F01002DA
:10415800C3F8E020D3F8E03003F010030493049B85
:1041680003F0A8FE0FB030BD1C4B284609A9D3F8B0
:10417800E02042F02002C3F8E020D3F8E03003F05A
:1041880020030593059B03F095FE0FB030BD134B3C
:10419800284609A9D3F8E02042F04002C3F8E020FD
:1041A800D3F8E03003F040030693069B03F082FE49
:1041B8000FB030BD094B284609A9D3F8E02042F0DA
:1041C8008002C3F8E020D3F8E03003F080030793BF
:1041D800079B03F06FFE0FB030BD00BF00440258CC
:1041E80038B5054601F098FE0446284601F09CFEC5
:1041F80001462046BDE8384004F04EB870B5064682
:104208000D4601F089FE0446304601F08DFE2A1E57
:104218000146204618BF0122BDE8704004F042B8AC
:104228002DE9F04FA44C0346ABB0204623655F78D8
:1042380093F8008004F0BEF9E8B9012F4FF00105AA
:104248009E49034614BF4FF480124FF40002E06009
:10425800A560C4E9001592FAA2F2B2FA82F24FF40C
:104268008076E0612046013A2362C4E9042604F01E
:1042780035F9034618B101202BB0BDE8F08F4FF097
:10428800660C41F2883220460EA9149617931393B0
:104298001B93CDF838C0CDE91533CDE9193304F0B7
:1042A800A7F90028E7D1992341F288320EA92046C0
:1042B8000E9304F09DF90028DDD14FF0000B4FF06C
:1042C800010C4FF0050A4FF08079249008AA21903C
:1042D8001CA9299041F28833CDF870A0CDF89490AC
:1042E800CDE908BC4FF0100B4FF0010CCDE90ABC2A
:1042F8004FF0000B4FF4800CCDE92260CDE9270088
:104308002046CDE90CBC04F0DFFA0028B3D1ADF8A3
:1043180008001390CDE91460CDE91609CDE91850CD
:10432800CDE91A00002F00F0CB80F023ADF808305B
:10433800C02341F288320EA95F480E9304F058F961
:10434800002898D141F288325B4802A904F0BAF9F2
:10435800044600288FD1002601274FF480754FF0BE
:1043680080794FF0000A4FF4800B219441F2883392
:10437800299408AA1CA950482295CDF89490CDE913
:104388000867CDE9234410260127CDE927440524F1
:10439800CDE90A671C94CDE90CAB04F095FA002826
:1043A8007FF469AF012406238DF8070041F28832B3
:1043B80013901CA91B90219029900E941C93CDE971
:1043C8001450CDE91609CDE91900CDE92250CDE9FF
:1043D8002400CDE92700384804F00AF900287FF4C2
:1043E8004AAF10260127052041F2883308AA1CA9E4
:1043F8001C903148CDF89490CDE90A67022602272F
:10440800CDE90CABCDE9086704F05EFA00287FF42B
:1044180032AF41F288320EA9274804F0E9F80028A3
:104428007FF429AF402341F288320DF10701224879
:104438008DF8073004F046F900287FF41CAF1026E9
:104448000127052002AA41F288330EA90E901A48C6
:10445800CDF85C90CDE9046740264027CDE906AB4E
:10446800CDE9026704F030FA064600287FF403AF6E
:104478002295002521960520299601271C9008AA37
:1044880041F288331CA90C48CDF89490CDE92366F5
:10449800CDE927660126CDE908561026CDE90CABF3
:1044A800CDE90A6704F010FA00287FF4E4AEB8F109
:1044B800000F50D00020DFE6A09A002400500052E0
:1044C800612341F288320EA920460E9304F090F839
:1044D80000287FF4D0AE41F2883202A9204604F0C9
:1044E8006FF900287FF4C7AEBDF80830062525907F
:1044F80041F2883223F07803219029901CA943F0D7
:10450800400322961C95ADF80830CDE92300CDE98B
:104518002700204604F06CF800287FF4ACAE102683
:10452800012720460225022441F2883308AA1CA943
:10453800CDF870A0CDF89490CDE90A6700264FF425
:104548008007CDE90845CDE90C6704F0BDF90028DE
:104558003FF4EEAE8FE6EB24A0264FF40057062575
:104568001C9400244FF0805000234FF480784FF4BF
:10457800406929900EAA1CA90C48CDE91E67CDE90F
:1045880020454FF440464FF0407700240025CDE900
:104598002733CDE92289CDE92467CDE90E4504F01A
:1045A80007FA003818BF012066E600BFA09A002469
:1045B8003E4B02682DE9F0479A428CB04FF0000557
:1045C800CDE90755CDE909550B9502D00CB0BDE8EA
:1045D800F087374B0226374905AFD3F8D420B146C8
:1045E800DFF8D4A04FF0030842F48042C3F8D42087
:1045F800D3F8D42002F480420092009AD3F8E02045
:1046080042F04002C3F8E020D3F8E02002F0400274
:104618000192019AD3F8E02042F02002C3F8E0208A
:10462800D3F8E02002F020020292029AD3F8E020A8
:1046380042F01002C3F8E020D3F8E02002F01002A4
:104648000392039AD3F8E0203243C3F8E020D3F86A
:10465800E03033400493049B03C90590ADF818106B
:10466800DAF8504034440236204601F055FC03463F
:1046780020461C4601F058FC17F8013B024607A9E2
:1046880020460B93CDE90729CDE9095803F012FC20
:104698000E2EE5D100225C20114602F06FFB5C2053
:1046A80002F0A6FB0CB0BDE8F08700BF0050005236
:1046B800004402581CE40008A09A0024124B026827
:1046C8009A4200D07047114AD2F8D43070B523F41A
:1046D800804302250E4EC2F8D430346D2C44023586
:1046E800204601F019FC034620461C4601F01CFC3C
:1046F8000146204603F002FD0E2DEED15C20BDE8F8
:10470800704002F083BB00BF0050005200440258C2
:10471800A09A0024014804F0D3B900BFA09A00244D
:10472800F8B5036871B9026A00F1280500F5AC74A0
:10473800012A0CBF002240228BBB1D495723C0F819
:1047480058110DE0426A00F1C00500F5E874012A2D
:104758000CBF00224022EBB116495A23C0F8D011F1
:1047680000214FF480504FF480674FF48046636017
:104778004FF40033A2604FF48072E16061622362FB
:10478800C4E90470C4E90662204602F0A3FC58B1EB
:10479800FFBEFEE708495823C0F8D011E0E70749F3
:1047A8005923C0F85811DBE7C5E92044A563F8BDD3
:1047B80010000240700002402800024058000240E9
:1047C8002DE9F043831D05468BB0041D05F10A0150
:1047D800083005F10C020593AB69CDE90640CDE937
:1047E8000812002B3DD0EB69B3FA83F84FEA58184A
:1047F8000222012305AE0AAF4FF006090192CDE966
:10480800023356F8044B2B792278934216D02B6842
:10481800F3B1012B02D1F2B10A230493204601F02F
:1048280083FB03462046009301F076FB694603F0BC
:1048380041FBBE42E5D10BB0BDE8F08369796378EE
:104848009942E4D1B8F1000FF3D02B68002BE0D1E6
:10485800CDF81090E2E76378022B14BF0A230823EF
:10486800DBE74FF00108C3E7534A0368934230B5CA
:1048780005468BB055D02032934252D04F4A9342CE
:1048880004D02032934201D00BB030BD4C4C4D487F
:10489800D4F8E03043F00103C4F8E030D4F8E03055
:1048A80003F001030593059BD4F8E03043F00803B7
:1048B800C4F8E030D4F8E03003F008030693069B10
:1048C800D4F8E03043F04003C4F8E030D4F8E030E6
:1048D80003F040030793079BD4F8F03043F4000338
:1048E800C4F8F030D4F8F03003F400030893089BC0
:1048F800FFF766FFD4F8D830296843F001032F4A40
:104908003048C4F8D830891AD4F8D83018BF0121F3
:1049180003F001030993099B0BB0BDE83040FFF792
:10492800FFBE274C2848D4F8E03043F00103C4F810
:10493800E030D4F8E03003F001030093009BD4F892
:10494800E03043F01003C4F8E030D4F8E03003F06E
:1049580010030193019BD4F8E03043F04003C4F8FE
:10496800E030D4F8E03003F040030293029BD4F81F
:10497800F03043F48003C4F8F030D4F8F03003F496
:1049880080030393039BFFF71BFFD4F8D8302968F3
:1049980043F00103084A0C48C4F8D830891AD4F8FF
:1049A800D83018BF012103F001030493049B0BB016
:1049B800BDE83040FFF7B4BE04580140045C014034
:1049C80000440258509D0024F49A0024014802F043
:1049D80011BF00BF4C9C0024014802F00BBF00BF70
:1049E800C49C0024014802F005BF00BFA89E002413
:1049F800014802F0FFBE00BF209F00241A4A036846
:104A0800934210B40BD02032934208D0174A9342F5
:104A180016D02032934213D05DF8044B7047144BE4
:104A28000022D3F85442C3F85822002CF4D0D3F80B
:104A38004802D3E9931223465DF8044B52081847FD
:104A48000B4B0022D3F8B044C3F8B424002CE3D0B5
:104A5800D3F8AC24D3F8A814D3F8A40452082346F6
:104A68005DF8044B184700BF04580140045C01403E
:104A7800F49A0024184A0368934210B40BD02032E9
:104A8800934208D0154A934217D02032934214D04B
:104A98005DF8044B7047124BD3E994245208C3F8CD
:104AA8005822002CF4D0D3E99201234601EB82016D
:104AB80000EB82005DF8044B1847094BD3F8AC248F
:104AC800D3F8B0445208C3F8B424002CE0D0D3F88B
:104AD800A814D3F8A404E8E704580140045C014092
:104AE800F49A0024000000002DE9F04F0C684FF400
:104AF8001778DFF8D09185B008FB04F8012C09EB92
:104B0800080CC0F800C000F397804FF0000A0E466A
:104B18000F466546CCF850A2CCE992AA0FCE0FC535
:104B28000FCE0FC563A3D3E9002364A1D1E9000127
:104B3800CDE9022304AB03EB8403CDE9000153F86C
:104B4800102C53F8083C96E80300CCF82820CCF841
:104B5800C0303B6985E80300042B0CD8DFE803F07C
:104B6800707A848E03004FF417734F4A03FB049343
:104B78009A64C3F8E020BA69002A43D03A6A4FF42D
:104B880017730121002A03FB04930CBF022203229E
:104B9800C3E90B21FA69002A41D1796A4FF41773E6
:104BA800003903FB049318BF0121C3E931127B6963
:104BB800022B05D83D493E4A11F803A052F823B00C
:104BC8004FF41772002508F12800022302FB049411
:104BD80059464844524665646563E565C4F8DC5047
:104BE800C4F8CC50C4F8F450C4E90F55C4E91555BD
:104BF800C4E93555C4E93B5506F028F8002847D0E4
:104C0800FFBEFEE7396A4FF41773003903FB0493BC
:104C180018BF0121C3E90B12FA69002ABDD07A6ACC
:104C28004FF417730121002A03FB04930CBF0222DF
:104C38000322C3E93121BAE7012005B0BDE8F08FAE
:104C48004FF417734FF4FA5203FB04939A64C3F8B2
:104C5800E02090E74FF417734FF47A5203FB049364
:104C68009A64C3F8E02086E74FF417734FF4FA42CA
:104C780003FB04939A64C3F8E0207CE74FF41773AE
:104C88004BF6803203FB04939A64C3F8E02072E782
:104C980008F1C000524659460223484405F0D6FFA1
:104CA8000028CAD0FFBEFEE70077010024E4000810
:104CB80028E4000824580140245C014004580140BD
:104CC800045C0140F49A00240068704770B50468D9
:104CD800154682B00E46226A0698012AC4F8481280
:104CE8009AB2C4F85402C4E9935311D0294604F186
:104CF8002800019206F06CF8636A019A012B10D023
:104D0800294604F1C00006F063F8002002B070BD27
:104D180004F12800019206F0EDF8636A019A012B6C
:104D2800EED1314604F1C00006F0E4F8002002B0EC
:104D380070BD00BF03681B69042B05D8044A02EB49
:104D4800830393ED000A70479FED020A704700BF86
:104D580034E4000800803B470368D3F858027047E2
:104D6800F0B5022287B00023D0F8241204464D0083
:104D78000493CDE9022390F820220B2A23D194F83A
:104D880022220B2A02D1002007B0F0BD6B1C484933
:104D9800484851F8233001781D7846788D4294F8B8
:104DA800237267D0AA4276D0D878DD1C81426DD0B4
:104DB800824278D098799D1D884270D0824232D044
:104DC800012007B0F0BD3A4B3A4853F82530017836
:104DD8001E784778B14294F821C23DD0B24240D003
:104DE800D878DE1C814240D082424BD098799E1DF3
:104DF800884243D08242E3D1DB796345E0D1334630
:104E080004F508769B783046059301F085F803464B
:104E180030461E4601F088F8034601A93046019342
:104E280003F048F8ABE7DB79BB42C9D12B4604F263
:104E380022249B782046059301F06EF8034620460D
:104E48001C4601F071F8034601A92046019303F0BE
:104E580031F8002007B0F0BD5878B842C0D0B2424F
:104E6800BED158786045BBD1CAE793F804E0BE4587
:104E7800BAD1BBE75878B04294D195E7D979B9420D
:104E8800B8D19DE718796045B0D1B8E793F804C068
:104E9800B4458DD18EE75878B84285D1C7E7D9791E
:104EA800B1428BD18CE71879B84283D1BEE700BFF5
:104EB8009C00002498000024826FD0F80831116803
:104EC8004A682DE9F0439A1A5C1E0646D0F80C0190
:104ED8002240C1B0191A1144B1FBF3F403FB1414B6
:104EE800A34248D3D6F81051D5F80031D5F80401BB
:104EF800013BD5F804111B1ADBB2A34294BFCB18AF
:104F08000B19C5F80431D5F80431B3F5807F05D9FC
:104F1800D5F80431A3F58073C5F80431C6F80C211F
:104F2800D5F8002104EB0208B8F5807F24D9C2F532
:104F38008077A918D2F5807223D1BC4201D0E21B38
:104F480023D15FFA88F306F58C79C5F80031D6F8D5
:104F58001C022718B7F5807F8CBFC0F580752546E1
:104F6800CDB9AC4201D0621B1BD1FFB2C6F81C728E
:104F780041B0BDE8F083FEE7A9182246002CE0D036
:104F880027466846FBF794FED7E729460DEB07004E
:104F9800FBF78EFED5E748442A466946FBF788FEAC
:104FA800DFE70DEB0501FFB24846FBF781FEC6F8C7
:104FB8001C7241B0BDE8F083F0B4244D8AB00646B7
:104FC80001AC0FCD0FC40FCD2F683568D6F88860B7
:104FD800019EB5420FC4276023D0029B9D4222D078
:104FE800039B9D4221D0049B9D4220D0059B9D425E
:104FF8001FD0069B9D421ED0079B9D421DD0089B3B
:105008009D421CD0099B9D421BD1082310494FF497
:105018000F70002200FB031383F814210AB0F0BCC0
:1050280070470023F2E70123F0E70223EEE70323AA
:10503800ECE70423EAE70523E8E70623E6E7072386
:10504800E4E7002383F81431FFDE00BF94DF000893
:10505800AC9F00242DE9F0479E4D92B0064609AC5E
:105068000FCD0FC40FCD2F6835680FC4099B27607B
:105078009D427ED00A9B9D427DD00B9B9D4200F0B5
:1050880022810C9B9D4200F01C810D9B9D4200F0EB
:1050980016810E9B9D4200F010810F9B9D4200F0EF
:1050A8000A81109B9D4200F00481119B9D4240F0B3
:1050B8000C8108244FF40F75874F05FB04F507EBA7
:1050C800050898F8220200F037FF98F8200200F04F
:1050D80033FFD8F82432082B13D8DFE803F04E5CEE
:1050E8006A788694A2B005007C4BD3F8F42042F08D
:1050F8000802C3F8F420D3F8F43003F00803089347
:10510800089B4046FFF72CFE012811D04FF40F787A
:10511800734A08FB04F857F8083007EB0804934271
:1051280008D01A6842F010021A6012B0BDE8F08781
:10513800FFBEFEE700236B4929228C35C4F88C108A
:105148004FF480613D44C4F89830C4F89C10284658
:10515800C4E924234FF48072C4E92833C4E92B330B
:10516800C4F8A82001F0B6FF8646002875D0FFBE17
:10517800FEE700249EE701249CE7584BD3F8F02073
:1051880042F01002C3F8F020D3F8F03003F0100317
:105198000093009BB5E7514BD3F8E82042F4003266
:1051A800C3F8E820D3F8E83003F400330193019BF7
:1051B800A7E74A4BD3F8E82042F48022C3F8E82056
:1051C800D3F8E83003F480230293029B99E7434B1A
:1051D800D3F8E82042F40022C3F8E820D3F8E830F6
:1051E80003F400230393039B8BE73C4BD3F8E8209D
:1051F80042F48012C3F8E820D3F8E83003F48013AF
:105208000493049B7DE7354BD3F8F02042F020024D
:10521800C3F8F020D3F8F03003F020030593059B82
:105228006FE72E4BD3F8E82042F08042C3F8E8201D
:10523800D3F8E83003F080430693069B61E7274BD9
:10524800D3F8E82042F00042C3F8E820D3F8E83069
:1052580003F000430793079B53E7B56712A9D4F8F7
:105268008CA009ADD4F82422DAF80030DFF878C031
:1052780001EB4209C4F8C46023F00806BCE80F003B
:10528800DCF800C0CAF800600FC57246A5F800C077
:10529800714639F9240C01F071FDD4F8243212AAB0
:1052A80002EB430333F9240C01F0A2FD57F8083050
:1052B80037E70724FEE60624FCE60524FAE604247C
:1052C800F8E60324F6E60224F4E6002393F82232F3
:1052D800FFDE00BF94DF0008AC9F002400440258A2
:1052E8000010014088000240B8DF0008F0B5284FE0
:1052F8008BB0384605F070FF3C68E369DA0601D4E4
:105308000BB0F0BD234E01AD0FCE0FC50FCE0FC5AC
:10531800019B36689C422E6029D0029B9C4228D073
:10532800039B9C4227D0049B9C4226D0059B9C4211
:1053380025D0069B9C4224D0079B9C4223D0089BE7
:105348009C4222D0099B9C420BD00020E369DB06DB
:1053580003D4102323620BB0F0BDFFF7ADFD3C680A
:10536800F7E708204FF40F7303FB0070EEE7002007
:10537800F8E70120F6E70220F4E70320F2E704202B
:10538800F0E70520EEE70620ECE70720EAE700BF94
:10539800AC9F002494DF0008F0B5294F8BB007F5C7
:1053A8000F7005F019FFD7F83C42E369DA0601D41B
:1053B8000BB0F0BD234E01AD0FCE0FC50FCE0FC5FC
:1053C800019B36689C422E602AD0029B9C4229D0C1
:1053D800039B9C4228D0049B9C4227D0059B9C425F
:1053E80026D0069B9C4225D0079B9C4224D0089B34
:1053F8009C4223D0099B9C420CD00020E369DB0629
:1054080003D4102323620BB0F0BDFFF755FDD7F886
:105418003C42F6E708204FF40F7303FB0070EDE7FA
:105428000020F8E70120F6E70220F4E70320F2E77E
:105438000420F0E70520EEE70620ECE70720EAE77E
:10544800AC9F002494DF0008F0B5294F8BB007F516
:105458008F6005F0C1FED7F87844E369DA0601D415
:105468000BB0F0BD234E01AD0FCE0FC50FCE0FC54B
:10547800019B36689C422E602AD0029B9C4229D010
:10548800039B9C4228D0049B9C4227D0059B9C42AE
:1054980026D0069B9C4225D0079B9C4224D0089B83
:1054A8009C4223D0099B9C420CD00020E369DB0678
:1054B80003D4102323620BB0F0BDFFF7FDFCD7F82F
:1054C8007844F6E708204FF40F7303FB0070EDE70C
:1054D8000020F8E70120F6E70220F4E70320F2E7CE
:1054E8000420F0E70520EEE70620ECE70720EAE7CE
:1054F800AC9F002494DF0008F0B5294F8BB007F269
:10550800B46005F069FED7F8B446E369DA0601D459
:105518000BB0F0BD234E01AD0FCE0FC50FCE0FC59A
:10552800019B36689C422E602AD0029B9C4229D05F
:10553800039B9C4228D0049B9C4227D0059B9C42FD
:1055480026D0069B9C4225D0079B9C4224D0089BD2
:105558009C4223D0099B9C420CD00020E369DB06C7
:1055680003D4102323620BB0F0BDFFF7A5FCD7F8D6
:10557800B446F6E708204FF40F7303FB0070EDE71D
:105588000020F8E70120F6E70220F4E70320F2E71D
:105598000420F0E70520EEE70620ECE70720EAE71D
:1055A800AC9F002494DF0008F0B5294F8BB007F5B5
:1055B8000F6005F011FED7F8F048E369DA0601D468
:1055C8000BB0F0BD234E01AD0FCE0FC50FCE0FC5EA
:1055D800019B36689C422E602AD0029B9C4229D0AF
:1055E800039B9C4228D0049B9C4227D0059B9C424D
:1055F80026D0069B9C4225D0079B9C4224D0089B22
:105608009C4223D0099B9C420CD00020E369DB0616
:1056180003D4102323620BB0F0BDFFF74DFCD7F87D
:10562800F048F6E708204FF40F7303FB0070EDE72E
:105638000020F8E70120F6E70220F4E70320F2E76C
:105648000420F0E70520EEE70620ECE70720EAE76C
:10565800AC9F002494DF0008F0B5294F8BB007F603
:105668002C3005F0B9FDD7F82C4BE369DA0601D4E4
:105678000BB0F0BD234E01AD0FCE0FC50FCE0FC539
:10568800019B36689C422E602AD0029B9C4229D0FE
:10569800039B9C4228D0049B9C4227D0059B9C429C
:1056A80026D0069B9C4225D0079B9C4224D0089B71
:1056B8009C4223D0099B9C420CD00020E369DB0666
:1056C80003D4102323620BB0F0BDFFF7F5FBD7F826
:1056D8002C4BF6E708204FF40F7303FB0070EDE73F
:1056E8000020F8E70120F6E70220F4E70320F2E7BC
:1056F8000420F0E70520EEE70620ECE70720EAE7BC
:10570800AC9F002494DF0008F0B5294F8BB007F652
:10571800685005F061FDD7F8684DE369DA0601D4F1
:105728000BB0F0BD234E01AD0FCE0FC50FCE0FC588
:10573800019B36689C422E602AD0029B9C4229D04D
:10574800039B9C4228D0049B9C4227D0059B9C42EB
:1057580026D0069B9C4225D0079B9C4224D0089BC0
:105768009C4223D0099B9C420CD00020E369DB06B5
:1057780003D4102323620BB0F0BDFFF79DFBD7F8CD
:10578800684DF6E708204FF40F7303FB0070EDE750
:105798000020F8E70120F6E70220F4E70320F2E70B
:1057A8000420F0E70520EEE70620ECE70720EAE70B
:1057B800AC9F002494DF0008F0B5294F8BB007F6A2
:1057C800A47005F009FDD7F8A44FE369DA0601D4FF
:1057D8000BB0F0BD234E01AD0FCE0FC50FCE0FC5D8
:1057E800019B36689C422E602AD0029B9C4229D09D
:1057F800039B9C4228D0049B9C4227D0059B9C423B
:1058080026D0069B9C4225D0079B9C4224D0089B0F
:105818009C4223D0099B9C420CD00020E369DB0604
:1058280003D4102323620BB0F0BDFFF745FBD7F874
:10583800A44FF6E708204FF40F7303FB0070EDE761
:105848000020F8E70120F6E70220F4E70320F2E75A
:105858000420F0E70520EEE70620ECE70720EAE75A
:10586800AC9F002494DF0008F0B5284F8BB0384671
:1058780005F0B2FC3C68E369DA0601D40BB0F0BD70
:10588800234E01AD0FCE0FC50FCE0FC5019B366855
:105898009C422E602AD0029B9C4229D0039B9C42AA
:1058A80028D0049B9C4227D0059B9C4226D0069B6F
:1058B8009C4225D0079B9C4224D0089B9C4223D025
:1058C800099B9C420BD00020E369DB0603D410231C
:1058D80023620BB0F0BDFFF7EFFA3C68F7E708204A
:1058E8004FF40F720B4B02FB0030EDE70020F7E797
:1058F8000120F5E70220F3E70320F1E70420EFE7B2
:105908000520EDE70620EBE70720E9E78CB1002446
:1059180094DF0008AC9F0024014801F06BBF00BF72
:1059280038A00024D1F804C04FF40F732DE9F047D4
:1059380003FB0CFADFF8F0900D4607460AEB09085E
:105948000E46BCF1080F08F508740FCDC7F80080A3
:105958000FC495E8070084E8070003D8D8F82C326C
:10596800022B02D90120BDE8F087D8F82822032AA3
:10597800F8D8D8F830120229F4D8D8F83442022CD2
:10598800F0D825480131254F002550F82C00890012
:1059980057F82370DFF894C0214B4AF809004046B5
:1059A800B6695CF8222053F82430C8F81410C8F8F7
:1059B8000460C8F80830C8F82850C8E90327C8E9BF
:1059C8000655C8E9085506F0FFFF0028CAD1014668
:1059D800404607F051F80028C4D10146404607F078
:1059E800A1F80028BED1404607F028F80028B9D110
:1059F8000C4909EB0A034FF48074C1F80401C8F894
:105A08001011C1F80001C8F80841A3F81401C8F83A
:105A18001C02C8F81802A6E748E400086CE400086D
:105A280088E4000818410030AC9F002478E400089E
:105A3800354B36481A883649F0B41E68354C9B7881
:105A48004FEA164CE2802372C280334C037233480B
:105A5800CA80A1F803204B710B72E280304923728F
:105A6800C2800372A4F803206371A0F803202D4CB0
:105A780043712D482D4DCA80A1F803204B710B723C
:105A8800E2802B492372C2802A4C03722A482B4F8A
:105A98002E8085F802C0A5F80320CA800B72284919
:105AA8006B71EA802B722680264DA4F8032063715F
:105AB800E280068084F802C0237280F802C0224C7B
:105AC800A0F803204371C280037220480E80A7F813
