:020000040800F2
:1000000000000220C9040008C504000825160008E5
:10001000C5040008C5040008C5040008000000006D
:10002000000000000000000000000000C5040008FF
:10003000C504000800000000C504000815160008EB
:10004000C5040008C5040008C5040008C50400086C
:10005000C5040008C5040008C5040008C50400085C
:10006000C5040008C5040008C5040008D51300082D
:10007000E1130008C5040008ED130008F913000897
:10008000C504000859590008C5040008C504000843
:10009000C5040008C5040008C5040008C50400081C
:1000A000C5040008C5040008C5040008C50400080C
:1000B000C5040008C5040008C50400088D590008DF
:1000C000C504000899590008C5040008C5040008C3
:1000D000C5040008C5040008C5040008C5040008DC
:1000E000C5040008C504000800000000C50400089D
:1000F000C5040008C5040008C5040008C5040008BC
:10010000C5040008C5040008C5040008C5040008AB
:10011000C5040008C5040008C5040008C50400089B
:10012000C5040008C5040008C5040008C50400088B
:10013000C5040008C5040008C5040008C50400087B
:1001400000000000000000000000000000000000AF
:10015000C5040008C5040008C5040008C50400085B
:10016000A5590008C5040008C5040008C504000816
:10017000C5040008C5040008C5040008C50400083B
:10018000C5040008C5040008C5040008C50400082B
:10019000C5040008C5040008C5040008C50400081B
:1001A000C5040008C5040008C5040008C50400080B
:1001B0001D110008C5040008C5040008C504000896
:1001C000C5040008C5040008C5040008C5040008EB
:1001D000C5040008C5040008C5040008C5040008DB
:1001E000C5040008C5040008C5040008C5040008CB
:1001F000C5040008C5040008C5040008C5040008BB
:10020000C5040008C5040008C5040008C5040008AA
:10021000C5040008C5040008C5040008C50400089A
:10022000C5040008C5040008C5040008000000005B
:10023000C5040008C504000800000000C50400084B
:10024000C5040008C5040008C5040008C50400086A
:10025000C5040008C5040008C5040008C50400085A
:10026000C5040008C5040008C5040008C50400084A
:10027000C5040008C5040008C5040008000000000B
:10028000C5040008C5040008C504000800000000FB
:0802900000000000C504000895
:100298000348044B834202D0034B03B1184770470D
:1002A8005C0000245C0000240000000005480649AA
:1002B8000B1AD90F01EBA301491002D0034B03B16C
:1002C800184770475C0000245C0000240000000010
:1002D80010B5064C237843B9FFF7DAFF044B13B186
:1002E8000448AFF300800123237010BD6000002490
:1002F800000000009460000808B5044B1BB10449D5
:100308000448AFF30080BDE80840CFE700000000D4
:10031800640000249460000810B5054C34B11346FD
:100328000A460146022000F079F810BD204610BDAB
:100338002504000870B50D4E0D4D761BB61006D07D
:100348000024013455F8043B9847A642F9D1094ED8
:10035800094D761B05F08EFEB61006D00024013438
:1003680055F8043B9847A642F9D170BD946000083F
:1003780094600008A860000894600008F0B486073C
:1003880046D0541E002A3CD0CAB2034602E014F1FB
:10039800FF3436D303F8012B9D07F8D1032C29D954
:1003A800CDB245EA05250F2C45EA054533D9A4F118
:1003B8001006360903F1200707EB061703F11002B0
:1003C80042E9045542E902551032BA42F8D1721C8A
:1003D80014F00C0F03EB021204F00F0613D0331FB6
:1003E80023F003030433134442F8045B9342FBD124
:1003F80006F003042CB1C9B21C4403F8011B9C424B
:10040800FBD1F0BC704734461346002CF3D1F8E713
:1004180014460346C2E71A462646E0E72DE9F843A4
:10042800224C25680DB36C681F2C3BDC984691461E
:100438000F46064688B1D5F8880028B3D0F80031B1
:1004480040F824900122A24000EB84011343022EBD
:10045800C0F80031C1F8808010D0A31C01346C6052
:1004680045F823700020BDE8F883114E114D256032
:10047800002ED8D03468C5F88840D4E7D0F80431C5
:100488001A43C0F80421E8E70B4B5BB14FF48470C2
:10049800AFF3008030B100236C68C0E94033C5F881
:1004A8008800CDE74FF0FF30DDE700BF10020024E1
:1004B800E45F00088401002400000000FEE700BF9C
:1004C8000D4B0E4A934206D00D4951F8040B43F8E0
:1004D800040B9342F9D10B4B0B4A934204D00021F1
:1004E80043F8041B9342FBD101F018FAFFF722FFEF
:1004F80000F00EF8FEE700BF000000245C000024B6
:10050800AC600008600000245C0C0024704700BF49
:10051800094810B500F020F800210748012400F030
:1005280077F82146044800F037F84FF4FA7084F061
:10053800010401F075F8F4E71402002403480023CD
:10054800034A04494361036205F03ABD14020024DA
:1005580000000024150500080B4A40F207110B4B58
:1005680002604FF4877243600623C1844285037496
:1005780080F8293070B40224054E064D80F82540D5
:10058800C0E9026570BC7047000705000105080551
:100598000905070506050A06253000F02FBB00BF30
:1005A800F0B51A4D91B000210446079505F1007584
:1005B8004FF44170002201230326012705F54075F9
:1005C8000691029106A9ADF8240002A808953025E5
:1005D800CDE90C23CDE90E23CDE90A6700F010FF21
:1005E80040F601334FF07E56ADF80430019800F024
:1005F8004DF80323029A03A904F114000596CDE9E6
:10060800035300F0DBF911B0F0BD00BF040204048D
:1006180030B504462DED028B83B089B3012240F238
:1006280001130092ADF80430694604F1300001F07E
:10063800DDF8204600F04CF8E01C00F0F1FA04F177
:10064800250000F0FFF904F1140504F1290000F079
:10065800F9F92046FFF7A4FF284600F0E7F92846F5
:10066800B0EE408A00F0DEF9D0ED007AF8EE677A55
:1006780088EE277A84ED0E7A03B0BDEC028B30BD8C
:1006880040F201130091ADF80430CDE710B584B005
:1006980003460124ADF8040003A8ADF80C30ADF80A
:1006A8000E4000F0CFF9214603A800F0A7FA204633
:1006B80000F0B6FF03A8002100F0A0FA204600F0E1
:1006C800AFFF214603A800F099FA04B010BD00BF9F
:1006D8002DE9F043444C8BB0A063037823B1002587
:1006E80028460BB0BDE8F083404A0A2300260127BC
:1006F800626008220893202302A9201DC4E902672A
:10070800C4E9042340264FF4C07700224FF4006365
:10071800C4E90667C4E908234FF48056002702227B
:100728000723C4E90A67CDE902230426032200232C
:100738000827CDE90623CDE9046704F0B9FF05468B
:1007480000284CD14FF001084FF01009012600276E
:1007580002A94FF480520190201DCDE902894FF083
:1007680002084FF01009CDE9046704F0CBFF6420BC
:1007780001F08CF902A94FF48052201DCDE90467DD
:10078800CDE9028904264FF003084FF0100900272D
:1007980004F0B8FF02A94FF48052201DCDE9046788
:1007A800CDE9028904F0AEFF40F232234FF0010C8C
:1007B800042601931027019B02A94FF48052201DA3
:1007C800CDE904C3CDE9026704F09CFF201D40F683
:1007D800060104F0B7FF28460BB0BDE8F0830125F9
:1007E80028460BB0BDE8F08358020024404100526F
:1007F800694A2DE9F04315688FB015B10FB0BDE80F
:10080800F083664B01210C24002611600327D3F8DE
:10081800D4204FF683784FF0020908A942F4805299
:100828005F48C3F8D420D3F8D42002F48052009251
:10083800009AD3F8E02042F01002C3F8E020D3F881
:10084800E02002F010020192019AD3F8E02042F071
:100858004002C3F8E020D3F8E02002F04002029200
:10086800029AD3F8E02042F00802C3F8E020D3F857
:10087800E02002F008020392039AD3F8E02042F441
:100888008072C3F8E020D3F8E02002F4807204926A
:10089800049AD3F8E02042F08002C3F8E020D3F8AD
:1008A800E02002F080020592059AD3F8E02042F099
:1008B8002002C3F8E020D3F8E02002F020020692DC
:1008C800069AD3F8E02042F00402C3F8E020D3F8F7
:1008D800E0300C9403F004030793079BCDE90A6703
:1008E800CDE9088901F0D2FF48F23712022308A99E
:1008F8002C480C94DFF8C080CDE90A67CDE90823BD
:1009080001F0C4FF4CF20372022308A926480C9494
:10091800CDE90A67CDE9082301F0B8FF40F2FF628C
:10092800022308A921480C94CDE90A67CDE90823D8
:1009380001F0ACFF4FF60C72022308A91C480C9476
:10094800CDE90A67CDE9082301F0A0FF4FF63F0281
:10095800022308A917480C94CDE90823CDE90A67B2
:1009680001F094FFD8F83800013001F017F8D8F8F2
:1009780038300646581C01F019F8022207460323AE
:1009880008A930460C9408970B93CDE9092501F086
:100998007DFF0FB0BDE8F0835002002400440258E8
:1009A8000010025800180258000C02580020025883
:1009B800001C0258001402585802002470B5164C46
:1009C800154684B0046004F1080601AB07C986E83F
:1009D8000700D4ED047AF5EEC07A83E80700F1EE5B
:1009E80010FA15DDF7EE006A86EEA77A84ED0B7A29
:1009F80075B1204640F8145F00F0F2FD0346074A3F
:100A080000201969064BE160E261636204B070BDC1
:100A1800012004B070BD00BF940200240020003003
:100A28000000003000680830704700BF00681430CC
:100A380000F0D8BD024B0022C3E90522704700BF71
:100A48009402002430B583788FB00446022B37D047
:100A5800032B33D0012B31D000230A93E378012BE9
:100A68002AD0022B28D000230B93002320460C9376
:100A780000F094FF0546204600F098FF237809907F
:100A8800082B13D8DFE803F01F3245586B7E91A47A
:100A98000500594BD3F8E02042F48072C3F8E020F7
:100AA800D3F8E03003F480730893089B284609A91B
:100AB80001F0ECFE0FB030BD0B93D6E70A93CDE7FB
:100AC80011230A93CAE74C4B284609A9D3F8E0201A
:100AD80042F00102C3F8E020D3F8E03003F001034C
:100AE8000093009B01F0D2FE0FB030BD424B284668
:100AF80009A9D3F8E02042F00202C3F8E020D3F8B5
:100B0800E03003F002030193019B01F0BFFE0FB038
:100B180030BD394B284609A9D3F8E02042F0040239
:100B2800C3F8E020D3F8E03003F004030293029BFB
:100B380001F0ACFE0FB030BD2F4B284609A9D3F801
:100B4800E02042F00802C3F8E020D3F8E03003F0D8
:100B580008030393039B01F099FE0FB030BD264BA9
:100B6800284609A9D3F8E02042F01002C3F8E02093
:100B7800D3F8E03003F010030493049B01F086FEE1
:100B88000FB030BD1C4B284609A9D3F8E02042F02D
:100B98002002C3F8E020D3F8E03003F020030593E7
:100BA800059B01F073FE0FB030BD134B284609A911
:100BB800D3F8E02042F04002C3F8E020D3F8E03058
:100BC80003F040030693069B01F060FE0FB030BDB2
:100BD800094B284609A9D3F8E02042F08002C3F85F
:100BE800E020D3F8E03003F080030793079B01F07F
:100BF8004DFE0FB030BD00BF0044025870B5064628
:100C08000D4600F0CBFE0446304600F0CFFE2A1E0B
:100C18000146204618BF0122BDE8704002F028B8FE
:100C28002DE9F04FA44C0346ABB0204623655F780E
:100C380093F8008002F0A4F9E8B9012F4FF00105FC
:100C48009E49034614BF4FF480124FF40002E0603F
:100C5800A560C4E9001592FAA2F2B2FA82F24FF442
:100C68008076E0612046013A2362C4E9042602F056
:100C78001BF9034618B101202BB0BDE8F08F4FF0E7
:100C8800660C41F2883220460EA9149617931393E6
:100C98001B93CDF838C0CDE91533CDE9193302F0EF
:100CA8008DF90028E7D1992341F288320EA9204610
:100CB8000E9302F083F90028DDD14FF0000B4FF0BE
:100CC800010C4FF0050A4FF08079249008AA219072
:100CD8001CA9299041F28833CDF870A0CDF89490E2
:100CE800CDE908BC4FF0100B4FF0010CCDE90ABC60
:100CF8004FF0000B4FF4800CCDE92260CDE92700BE
:100D08002046CDE90CBC02F0C5FA0028B3D1ADF8F5
:100D180008001390CDE91460CDE91609CDE9185003
:100D2800CDE91A00002F00F0CB80F023ADF8083091
:100D3800C02341F288320EA95F480E9302F03EF9B3
:100D4800002898D141F288325B4802A902F0A0F944
:100D5800044600288FD1002601274FF480754FF0F4
:100D680080794FF0000A4FF4800B219441F28833C8
:100D7800299408AA1CA950482295CDF89490CDE949
:100D88000867CDE9234410260127CDE92744052427
:100D9800CDE90A671C94CDE90CAB02F07BFA002878
:100DA8007FF469AF012406238DF8070041F28832E9
:100DB80013901CA91B90219029900E941C93CDE9A7
:100DC8001450CDE91609CDE91900CDE92250CDE935
:100DD8002400CDE92700384802F0F0F800287FF415
:100DE8004AAF10260127052041F2883308AA1CA91A
:100DF8001C903148CDF89490CDE90A670226022765
:100E0800CDE90CABCDE9086702F044FA00287FF47D
:100E180032AF41F288320EA9274802F0CFF80028F5
:100E28007FF429AF402341F288320DF107012248AF
:100E38008DF8073002F02CF900287FF41CAF10263B
:100E48000127052002AA41F288330EA90E901A48FC
:100E5800CDF85C90CDE9046740264027CDE906AB84
:100E6800CDE9026702F016FA064600287FF403AFC0
:100E78002295002521960520299601271C9008AA6D
:100E880041F288331CA90C48CDF89490CDE923662B
:100E9800CDE927660126CDE908561026CDE90CAB29
:100EA800CDE90A6702F0F6F900287FF4E4AEB8F15C
:100EB800000F50D00020DFE6C4020024005000528A
:100EC800612341F288320EA920460E9302F076F88B
:100ED80000287FF4D0AE41F2883202A9204602F001
:100EE80055F900287FF4C7AEBDF8083006252590CF
:100EF80041F2883223F07803219029901CA943F00D
:100F0800400322961C95ADF80830CDE92300CDE9C1
:100F18002700204602F052F800287FF4ACAE1026D5
:100F2800012720460225022441F2883308AA1CA979
:100F3800CDF870A0CDF89490CDE90A6700264FF45B
:100F48008007CDE90845CDE90C6702F0A3F9002830
:100F58003FF4EEAE8FE6EB24A0264FF400570625AB
:100F68001C9400244FF0805000234FF480784FF4F5
:100F7800406929900EAA1CA90C48CDE91E67CDE945
:100F880020454FF440464FF0407700240025CDE936
:100F98002733CDE92289CDE92467CDE90E4502F052
:100FA800EDF9003818BF012066E600BFC40200242E
:100FB8003E4B02682DE9F0479A428CB04FF000058D
:100FC800CDE90755CDE909550B9502D00CB0BDE820
:100FD800F087374B0226374905AFD3F8D420B146FE
:100FE800DFF8D4A04FF0030842F48042C3F8D420BD
:100FF800D3F8D42002F480420092009AD3F8E0207B
:1010080042F04002C3F8E020D3F8E02002F04002AA
:101018000192019AD3F8E02042F02002C3F8E020C0
:10102800D3F8E02002F020020292029AD3F8E020DE
:1010380042F01002C3F8E020D3F8E02002F01002DA
:101048000392039AD3F8E0203243C3F8E020D3F8A0
:10105800E03033400493049B03C90590ADF81810A1
:10106800DAF8504034440236204600F097FC034634
:1010780020461C4600F09AFC17F8013B024607A9D7
:1010880020460B93CDE90729CDE9095801F0FEFB6D
:101098000E2EE5D100225C20114600F023FD5C20D5
:1010A80000F05AFD0CB0BDE8F08700BF00500052B8
:1010B80000440258E85F0008C4020024124B02688A
:1010C8009A4200D07047114AD2F8D43070B523F450
:1010D800804302250E4EC2F8D430346D2C440235BC
:1010E800204600F05BFC034620461C4600F05EFCF0
:1010F8000146204601F0EEFC0E2DEED15C20BDE845
:10110800704000F037BD00BF005000520044025844
:10111800C4020024014802F0B9B900BFC402002487
:10112800F8B5036871B9026A00F1280500F5AC74D6
:10113800012A0CBF002240228BBB1D495723C0F84F
:1011480058110DE0426A00F1C00500F5E874012A63
:101158000CBF00224022EBB116495A23C0F8D01127
:1011680000214FF480504FF480674FF4804663604D
:101178004FF40033A2604FF48072E1606162236231
:10118800C4E90470C4E90662204600F057FE58B16D
:10119800FFBEFEE708495823C0F8D011E0E7074929
:1011A8005923C0F85811DBE7C5E92044A563F8BD09
:1011B800100002407000024028000240580002401F
:1011C8002DE9F043831D05468BB0041D05F10A0186
:1011D800083005F10C020593AB69CDE90640CDE96D
:1011E8000812002B3DD0EB69B3FA83F84FEA581880
:1011F8000222012305AE0AAF4FF006090192CDE99C
:10120800023356F8044B2B792278934216D02B6878
:10121800F3B1012B02D1F2B10A230493204600F066
:10122800C5FB03462046009300F0B8FB694601F071
:101238002DFBBE42E5D10BB0BDE8F0836979637838
:101248009942E4D1B8F1000FF3D02B68002BE0D11C
:10125800CDF81090E2E76378022B14BF0A23082325
:10126800DBE74FF00108C3E7534A0368934230B500
:1012780005468BB055D02032934252D04F4A934204
:1012880004D02032934201D00BB030BD4C4C4D48B5
:10129800D4F8E03043F00103C4F8E030D4F8E0308B
:1012A80003F001030593059BD4F8E03043F00803ED
:1012B800C4F8E030D4F8E03003F008030693069B46
:1012C800D4F8E03043F04003C4F8E030D4F8E0301C
:1012D80003F040030793079BD4F8F03043F400036E
:1012E800C4F8F030D4F8F03003F400030893089BF6
:1012F800FFF766FFD4F8D830296843F001032F4A76
:101308003048C4F8D830891AD4F8D83018BF012129
:1013180003F001030993099B0BB0BDE83040FFF7C8
:10132800FFBE274C2848D4F8E03043F00103C4F846
:10133800E030D4F8E03003F001030093009BD4F8C8
:10134800E03043F01003C4F8E030D4F8E03003F0A4
:1013580010030193019BD4F8E03043F04003C4F834
:10136800E030D4F8E03003F040030293029BD4F855
:10137800F03043F48003C4F8F030D4F8F03003F4CC
:1013880080030393039BFFF71BFFD4F8D830296829
:1013980043F00103084A0C48C4F8D830891AD4F835
:1013A800D83018BF012103F001030493049B0BB04C
:1013B800BDE83040FFF7B4BE04580140045C01406A
:1013C800004402587405002418030024014800F062
:1013D800FFBE00BF70040024014800F0F9BE00BF42
:1013E800E8040024014800F0F3BE00BFCC06002446
:1013F800014800F0EDBE00BF4407002400000000D3
:101408002DE9F04F0C684FF41778DFF8D09185B0CC
:1014180008FB04F8012C09EB080CC0F800C000F325
:1014280097804FF0000A0E460F466546CCF850A24A
:10143800CCE992AA0FCE0FC50FCE0FC563A3D3E98F
:10144800002364A1D1E90001CDE9022304AB03EB39
:101458008403CDE9000153F8102C53F8083C96E8B2
:101468000300CCF82820CCF8C0303B6985E803009D
:10147800042B0CD8DFE803F0707A848E03004FF455
:1014880017734F4A03FB04939A64C3F8E020BA69C0
:10149800002A43D03A6A4FF417730121002A03FB4C
:1014A80004930CBF02220322C3E90B21FA69002A24
:1014B80041D1796A4FF41773003903FB049318BFBD
:1014C8000121C3E931127B69022B05D83D493E4A07
:1014D80011F803A052F823B04FF41772002508F151
:1014E8002800022302FB0494594648445246656486
:1014F8006563E565C4F8DC50C4F8CC50C4F8F45012
:10150800C4E90F55C4E91555C4E93555C4E93B5537
:1015180004F00CF8002847D0FFBEFEE7396A4FF404
:101528001773003903FB049318BF0121C3E90B1299
:10153800FA69002ABDD07A6A4FF417730121002A8C
:1015480003FB04930CBF02220322C3E93121BAE74B
:10155800012005B0BDE8F08F4FF417734FF4FA522D
:1015680003FB04939A64C3F8E02090E74FF41773E1
:101578004FF47A5203FB04939A64C3F8E02086E799
:101588004FF417734FF4FA4203FB04939A64C3F8B9
:10159800E0207CE74FF417734BF6803203FB04938B
:1015A8009A64C3F8E02072E708F1C0005246594631
:1015B8000223484403F0BAFF0028CAD0FFBEFEE762
:1015C80000770100F05F0008F45F0008245801402C
:1015D800245C014004580140045C014018030024C5
:1015E8000068704703681B69042B05D8044A02EB9E
:1015F800830393ED000A70479FED020A704700BF0E
:101608000060000800803B47704700BF08B500F045
:101618002BFABDE8084000F025BB00BF704700BFAB
:1016280000F034BA000000002DE9F04FCFB00446B6
:101638004C2200210AA8FEF7A1FE2022002102A8C0
:10164800FEF79CFEBC2200211EA8FEF797FE022092
:1016580001F012FB23680022012B3DD0604B0225CC
:101668000192C821DA6A22F00102DA62DA6A03F525
:10167800113302F0010201929A6942F440429A61E0
:101688009B6903F440430193019B564B9A6992046A
:10169800FCD5554A022404204FF0010C936A2126F8
:1016A8004FF4803723F00303234393620523082272
:1016B8001590189300230AA81691CDF840C01794E6
:1016C80019941A92CDE91344CDE91B33CDE90A6781
:1016D80001F0E4FFC0B1FEE7424B04250092F0217F
:1016E8009A6942F440429A619A69A3F5113302F467
:1016F80040420092DA6A42F00102DA62DB6A03F0E1
:1017080001030093009BC0E73F260327002208231C
:10171800294602A8CDE90267CDE9042340264023E3
:101728004FF480624027CDE90823CDE9066702F02F
:10173800F5FA034600B1FEE78022022601270025BC
:1017480034924FF480723394802443924FF4805241
:101758004FF00C084FF008091EA8CDE93B334FF4B1
:10176800805335934FF4803346930623CDE922679F
:10177800CDE9244540F22716102704242025CDE979
:1017880026234FF480620023CDE92867CDE92A4556
:10179800CDE92C230FF2400BDBE900AB0026022732
:1017A80000244FF4803500224FF44013CDE91EABDE
:1017B800CDE92089CDE92E67CDE93045CDE93E2335
:1017C80002F0BEFC00B1FEE701F07CFA4FB0BDE8C4
:1017D800F08F00BFAFF300800F130F03010000006C
:1017E800000400580048025800440258F0B5054665
:1017F8000C4685B00126D1E9000185E8030000F018
:1018080005F92846FFF710FF002500F0DFF94FF033
:101818004053384A684601934FF48073ADF800602E
:10182800CDE9022300F0F4F94FF0404340F20111F2
:10183800192268460193ADF80E108DF808208DF82E
:1018480001608DF80D508DF80A5000F0E1F9042080
:1018580000F0CCF904F08CF904F034F8237913BBC8
:1018680063799BB1BFF34F8FBFF36F8F224B002279
:10187800C3F85022BFF34F8FBFF36F8F5A6942F4FA
:1018880000325A61BFF34F8FBFF36F8F00220023DE
:1018980069461A48CDE9002304F0F8F8174804F01F
:1018A8005DF905B0F0BD1449C1F88450BFF34F8FFE
:1018B800D1F8800043F6E077C0F34E32C0F3C90098
:1018C800520102EA0705034645EA8376013BC1F85F
:1018D80060625E1CF8D1203A12F1200FF1D1BFF3FB
:1018E8004F8F4B6943F480334B61BFF34F8FBFF386
:1018F8006F8FB5E70E00010300ED00E0D00700246C
:1019080003480023034A0449036004F059BB00BF9D
:10191800D0070024000000241116000830B4194C28
:101928000022194BD4F88810184841F47001184D5A
:10193800C4F888101C68174944F001041C601A6137
:101948001C68204018609A61DA611A629A62DA6249
:101958001A635A639A63DA631A645A64186820F43B
:10196800802018601A662B681940B1F1005F02D216
:10197800094B01221A60034B4FF0006230BC9A6099
:10198800704700BF00ED00E0004402587FEDF6EA22
:101998000010005C0000FFFF08810051024B027834
:1019A80053F82200704700BF44600008024B427899
:1019B80033F81200704700BF24600008704700BF6A
:1019C8000F4B1B780BB90120704710B504464FF434
:1019D8007A700C4AB0FBF3F31068B0FBF3F000F038
:1019E800DDF80F2C00D808B1012010BD00222146D7
:1019F8004FF0FF3000F076F8034B00201C6010BD5C
:101A08000C000024040000241000002470B5124CBF
:101A1800032000F053F8114E02F0E0F8A2691049D3
:101A28000346C2F303220F200E4D8A5C02F01F0208
:101A3800D3403360A26902408A5C02F01F02D3409F
:101A48002B60FFF7BDFF10B10124204670BD04468E
:101A5800FFF7B4FF204670BD00440258040000247C
:101A68001460000808000024034A044B11681B781E
:101A78000B441360704700BFD40700240C000024F7
:101A8800014B1868704700BFD407002438B50446D6
:101A9800FFF7F6FF0546631C02D0044B1B781C4475
:101AA800FFF7EEFF431BA342FAD338BD0C00002416
:101AB800014B1868000C70470010005C07490002D1
:101AC800074BCA6800F4E06010B44FF6FF042240E8
:101AD8005DF8044B10430343CB60704700ED00E012
:101AE8000000FA05194BDB68C3F3022330B4C3F1D5
:101AF80007051C1D042D28BF0425062C19D9033BF6
:101B08004FF0FF349C4022EA04024FF0FF340028D3
:101B180004FA05F421EA040101FA03F141EA020199
:101B28000ADB09010A4BC9B2034483F8001330BC2D
:101B3800704700221346E8E700F00F000901054B43
:101B4800C9B20344197630BC704700BF00ED00E00D
:101B580000E100E0FCEC00E0002807DB00F01F01DA
:101B680001234009024A8B4042F82030704700BFE9
:101B780000E100E000280DDB4309012200F01F000E
:101B88000549203302FA00F041F82300BFF34F8FD4
:101B9800BFF36F8F704700BF00E100E00138B0F17C
:101BA800807F0DD2074B0022072130B4F025064C68
:101BB8005860104684F823509A60196030BC70470A
:101BC8000120704710E000E000ED00E0BFF35F8FF8
:101BD800044A00200449536A23F48033536248605E
:101BE800704700BF00ED00E090ED00E0064A40F0CD
:101BF8000100064B5860536A43F480335362BFF3C5
:101C08004F8FBFF36F8F704700ED00E090ED00E05D
:101C1800124A437893600178E9B1436870B4D3609D
:101C2800C37A047B1B06857A867B43EA0473447B6C
:101C38000B43017A43EAC543C57B43EA8443447AAC
:101C480043EA464343EA054343EA042343EA41039C
:101C580070BC13617047D1601161704790ED00E06E
:101C6800704700BF08B5FFF7FBFF08BD0268354B9A
:101C7800354930B4354C364DA24218BF9A4204F16A
:101C880048040CBF012300238A4208BF43F0010324
:101C98004831AA4208BF43F001034835A24208BFB1
:101CA80043F0010348348A4208BF43F0010301F5B9
:101CB8006271AA4208BF43F0010305F56275A242AA
:101CC80008BF43F0010304F562748A4208BF43F079
:101CD80001034831AA4208BF43F001034835A24234
:101CE80008BF43F0010348348A4208BF43F00103A8
:101CF8004831AA4208BF43F00103A24208BF43F09B
:101D080001038A4208BF43F0010313B9114B9A42F9
:101D180013D1D3B21049114C103BA1FB03515F2BD7
:101D28000F4BC1F3021103EA0203615C88BF04335D
:101D3800C1658365184630BC704722F0FF03836590
:101D4800F8E700BF100002404000024028000240AF
:101D580058000240B8040240ABAAAAAA746000085E
:101D680000FCFFFF0368294A294930B4294D2A4C51
:101D7800AB4218BF934205F13C050CBF012200227B
:101D8800A34208BF42F001023C348B4208BF42F034
:101D980001023C31AB4208BF42F00102A34208BF36
:101DA80042F001028B4208BF42F0010212B91B4AFD
:101DB800934213D1DBB21A4D1A4A0121083B1A4C3F
:101DC800A5FB0353446602EB1312C3F304139200FA
:101DD80001FA03F30266836630BC7047DAB213492E
:101DE800134C1944103AA829A4FB02234FEA1313F1
:101DF80000D808330F4A03F01F0501210E4C1A447E
:101E0800A9404466920081660266E5E708540258D4
:101E1800445402581C5402583054025894540258DE
:101E2800CDCCCCCC0096001680580258F0FBFDBFF4
:101E3800ABAAAAAA0082001080080240F8B504469E
:101E4800FFF71EFE002C00F0DC8023680546974A49
:101E5800934249D01832934246D03032944895493B
:101E6800834218BF934200F148000CBF01220022B0
:101E78008B4208BF42F001023031834208BF42F072
:101E8800010230308B4208BF42F0010201F55C715B
:101E9800834208BF42F0010200F55C708B4208BF24
:101EA80042F001023031834208BF42F00102303073
:101EB8008B4208BF42F001023031834208BF42F032
:101EC800010230308B4208BF42F0010230318342B8
:101ED80008BF42F001028B4208BF42F001021AB962
:101EE800754A934240F0FC800222002184F8352094
:101EF80084F834101A6822F001021A6005E0FFF72E
:101F0800BFFD431B052B57D823681A68D107F6D4A1
:101F1800D4E9022120690A431F68D4E9051602435F
:101F28000A436649D4E90705324339400243606AE7
:101F38002A43042841EA020145D019605A6922F06F
:101F48000702104358612046FFF790FEE26D3F23D9
:101F580002F01F02934083602046FFF703FFA36847
:101F6800802B18D06368256EDAB2013BD4E91910CA
:101F7800072B2A60486015D8501E072843D9626F7E
:101F8800D4E91B3100201860002001234A606065F5
:101F980084F83530F8BD0023A16ED4E918026360D7
:101FA8000360516000230020C4E91B3363670123E9
:101FB800606584F83530F8BD20220323012062656E
:101FC80084F83530F8BDD4E90B50A26A28430143A0
:101FD8001960586920F00700104340F00400002DF4
:101FE800B0D0002E45D1012A5AD032F00202A9D130
:101FF800EA01A7D5012340221846626584F83530E6
:10200800F8BD0120F8BD21682D4B2E4E2E4DB14252
:1020180018BF994206F128060CBF01230023A942E4
:1020280008BF43F001032835B14208BF43F001035C
:102038002836A94208BF43F001032835B14208BF3A
:1020480043F00103A94208BF43F001033BB91F4B0A
:10205800994204D01E4B1F4913449B0003E01E4BBA
:102068001E4913449B0001228240C4E91B31626768
:1020780088E7B6F5005F04D0022ABBD9032AB7D097
:1020880060E7032A3FF65EAF01A151F822F000BFD6
:10209800FD1F0008F91F0008FD1F0008A9200008FF
:1020A800B5F1C07F7FF44EAFA4E700BF1000024037
:1020B8004000024070000240B80402403F8010FE19
:1020C800085402581C540258305402589454025868
:1020D8003F820010400902403F96001640590258BE
:1020E800334A344934488B4218BF934201F12801DE
:1020F800324D0CBF01220022834208BF42F0010288
:102108003C308B4208BF42F001023C31AB4208BF71
:1021180042F00102834208BF42F001028B4208BF2D
:1021280042F0010212B9264A93423AD10222002112
:10213800244F84F83520A26884F83410402A19689E
:1021480007EA01072BD0802A0CBF4FF480410021F9
:1021580022692046E668D2086569DFF870C042EA5D
:10216800D602A66942EAD502E56942EAD602164EC7
:1021780042EAD5021E44256A42EA1512ACFB0665FE
:102188003A432D091143AD001960E565FFF76EFD6F
:10219800E26D012302F01F0293404360DCE6102148
:1021A800D6E7402203230120626584F83530F8BD64
:1021B800085402581C5402583054025858540258B3
:1021C800945402580F00FEFFF8ABFDA7CDCCCCCC41
:1021D8002DE9F0479F4A00259F4E82B0036882464A
:1021E8009E49846D934218BFB342019508BF0126EA
:1021F8000D68276818BF002621684AD03032DFF8FA
:102208006CE29748734518BF93420EF1480E0CBF15
:1022180001220022834208BF42F001023030734598
:1022280008BF42F001020EF1300E834208BF42F0AF
:10223800010200F55C70734508BF42F001020EF51B
:102248005C7E834208BF42F001023030734508BF0C
:1022580042F001020EF1300E834208BF42F0010243
:102268003030734508BF42F001020EF1300E834250
:1022780008BF42F001023030734508BF42F0010246
:10228800834208BF42F001021AB9764A934240F0ED
:102298000B82DAF85C10082201F01F0C02FA0CF22B
:1022A800174240F08D8127FA0CF2D2070CD55A69F3
:1022B800100609D5012202FA0CF2A260DAF85420BD
:1022C80042F00202CAF854204FF0040E0EFA0CF045
:1022D80038425BD0002E4FD1634ADFF89091DFF887
:1022E80080814B4518BF934209F148090CBF012270
:1022F8000022434508BF42F0010208F130084B456F
:1023080008BF42F0010209F13009434508BF42F015
:10231800010208F55C784B4508BF42F0010209F557
:102328005C79434508BF42F0010208F130084B458B
:1023380008BF42F0010209F13009434508BF42F0E5
:10234800010208F130084B4508BF42F0010209F1CB
:102358003009434508BF42F0010208F130084B45F7
:1023680008BF42F00102434508BF42F001021AB912
:102378003C4A934240F02F821A68920706D5A06023
:10238800DAF8542042F00402CAF85420102202FA63
:102398000CFC1CEA070F6FD0002E46D1324A334896
:1023A8002F4E834218BF934200F148000CBF012210
:1023B8000022B34208BF42F001023036834208BF10
:1023C80042F001023030B34208BF42F0010206F584
:1023D8005C76834208BF42F0010200F55C70B342AC
:1023E80008BF42F001023036834208BF42F00102C2
:1023F8003030B34208BF42F001023036834208BF92
:1024080042F001023030B34208BF42F001023036D8
:10241800834208BF42F00102B34208BF42F0010202
:102428001AB9104A934240F0DE811A68C2F3C0021A
:1024380012B3C4F808C01A68520300F18B811A68F5
:10244800D60503D41A6822F008021A60DAF8403078
:1024580093B10DE02800024010000240040000245F
:1024680070000240B8040240580002404000024098
:1024780050469847DAF85C1001F01F0120268E407C
:102488003E426AD0DAF80020A74BA848A84F8242FB
:1024980018BF9A4200F130000CBF01230023BA4252
:1024A80008BF43F001033037824208BF43F00103FD
:1024B8003030BA4208BF43F001033037824208BFC8
:1024C80043F001033030BA4208BF43F0010307F577
:1024D8005C77824208BF43F0010300F55C70BA42A2
:1024E80008BF43F001033037824208BF43F00103BD
:1024F8003030BA4208BF43F001033037824208BF88
:1025080043F001033030BA4208BF43F001033037CB
:10251800824208BF43F00103BA4208BF43F00103F7
:102528001BB9844B9A4240F073811368C3F30013BC
:102538009BB1A6609AF83530042B136800F014811B
:1025480013F4802F136800F02D811C0340F13881AB
:10255800DAF83C300BB150469847DAF85430002B83
:1025680000F0DF80DAF85430D8071FD5DAF80020F9
:1025780004248AF83540136823F0010313606E4B76
:10258800A3FB0535AD0A02E01368D90704D5019B02
:102598000133AB420193F7D900238AF8343013682A
:1025A800DB074CBF032301238AF83530DAF84C30B7
:1025B800002B00F0B680504602B0BDE8F04718473F
:1025C800186840070AD5186820F004001860A2604F
:1025D800DAF8542042F00102CAF8542027FA0CF223
:1025E800D2077FF571AE554A5148DFF864818342BE
:1025F80018BF934200F148000CBF01220022434556
:1026080008BF42F0010208F13008834208BF42F0D7
:1026180001023030434508BF42F0010208F55C78FA
:10262800834208BF42F0010200F55C70434508BFD1
:1026380042F0010208F13008834208BF42F001026B
:102648003030434508BF42F0010208F130088342A8
:1026580008BF42F001023030434508BF42F0010292
:1026680008F13008834208BF42F001023030434588
:1026780008BF42F00102834208BF42F00102002A6B
:102688007FF415AE002E7FF412AE04221E6802FA03
:102698000CF23A4240F09F80102202FA0CFC17EA32
:1026A8000C0F3FF4E9AE79E6254A264E264DB34293
:1026B80018BF934206F128060CBF01220022AB4244
:1026C80008BF42F001022835B34208BF42F00102B8
:1026D8002836AB4208BF42F001022835B34208BF92
:1026E80042F00102AB4208BF42F0010212B9174A98
:1026F800934216D1DAF85C5004261A6805F01F05D3
:10270800AE400E4273D0570771D51004666040F191
:102718009F80D10300F1A280DAF84830002B7FF4C3
:102728004AAF02B0BDE8F08710000240280002401E
:1027380040000240B8040240B5814E1B58000240D8
:10274800085402581C5402583054025894540258E1
:10275800700002401B681B037FF578AEDAF848303A
:10276800002B7FF485AE87E623F01603DAF8405095
:102778001360536923F0800353613DB3136823F05A
:10278800080313603F230025012203FA01F1DAF858
:102798005030A1608AF834508AF83520002B7FF435
:1027A8000AAFBEE713F480737FF4D2AE1168012438
:1027B80021F0100111608AF834308AF83540C7E6F4
:1027C800DAF84430002B7FF4C6AEC6E6DAF84830B3
:1027D800002BD3D1D6E710221E6802FA0CFC17EAA8
:1027E8000C0F3FF449AE1A68C2F3800220E60226B5
:1027F800AE400E4210D097070ED56660140433D54C
:10280800D0033DD4DAF84430002B7FF4D4AE88E707
:102818001368C3F340038BE60826AE400E4280D00F
:1028280011077FF57EAF19680122002621F00E01FD
:1028380002FA05F51960DAF84C306560CAF85420D8
:102848008AF834608AF83520002B7FF4B4AE68E744
:10285800920603D41A6822F004021A60DAF84030AB
:10286800002B7FF4A8AE5CE712F0200208D11968AB
:10287800012421F00A0119608AF834208AF83540C9
:10288800DAF83C30002B7FF496AE4AE72DE9F04F9A
:102898000D6883B0002D00F0C4800023DFF82C827F
:1028A800DFF82CE201229A4012EA050C00F0B4800D
:1028B8004C6824F01007022F40F0B680DF0803F0C0
:1028C800070A4FF00F0B0E6900EB87074FEA8A0AD9
:1028D800D7F820900BFA0AFB06FA0AF64FEA430AE1
:1028E80029EA0B094FF0030B46EA09090BFA0AF625
:1028F80004EA0B0BC7F820906FEA060907680BFA81
:102908000AFB27EA06064BEA060606608768C4F350
:10291800001609EA070BCF689E4007FA0AF747EA4C
:102928000B078760476827EA020216434660C668B5
:10293800E7008A6806EA090902FA0AF242EA090285
:10294800C26069D5D8F8F47023F0030903F00302D4
:102958000F2647F0020709F1B0499200C8F8F47051
:1029680009F58069D8F8F47006FA02FA07F0020748
:1029780001974D4F019EB842D9F8086026EA0A0629
:1029880020D007F58067B8426BD0484FB8426DD069
:10299800474FB84260D0474FB84271D0464FB8420F
:1029A80073D0464FB84266D0454FB84272D0454FB3
:1029B800B84274D0444FB8420CBF09270A2707FA17
:1029C80002F21643C9F808606FEA0C07DEF8002027
:1029D800E60354BF3A404CEA0202CEF80020A203B4
:1029E800DEF804604FF0B04254BF3E404CEA0606A1
:1029F800CEF804601668E2024FF0B04254BF3E4081
:102A08004CEA0606A4024FF0B0441660526854BF60
:102A18003A404CEA02026260013335FA03F27FF46D
:102A280041AF03B0BDE8F08F4FEA430A4FF0030906
:102A3800D0F800B0013F04EA090609FA0AF9012FA3
:102A48002BEA090B06FA0AF66FEA090946EA0B06A9
:102A580006603FF66CAF59E7032707FA02F2164300
:102A6800B0E7012707FA02F21643ABE7022707FA95
:102A780002F21643A6E7062707FA02F21643A1E771
:102A8800042707FA02F216439CE7052707FA02F221
:102A9800164397E7072707FA02F2164392E7082733
:102AA80007FA02F216438DE70000025800080258A0
:102AB800000C02580010025800140258001802585E
:102AC800001C0258002002580024025800440258F2
:102AD80080000058002900F0AC8000232DE9F04F59
:102AE800DFF870A183B0DFF87091DFF87081DFF84C
:102AF80070B14FF0010E0EFA03F414EA010C73D012
:102B080023F0030503F003020F26484555444FEA16
:102B1800C202AF6806FA02F607EA0607019723D051
:102B280058456AD0464FB8426AD0464FB84271D02D
:102B3800454FB84273D0454FB84266D0444FB8426B
:102B480059D0DFF820E1704574D0DFF81CE17045FA
:102B58006AD0DFF818E1704514BF4FF00A0E4FF045
:102B6800090E0EFA02F200E00022019F974219D1E5
:102B7800AF684FF0B04227EA0606AE60D8F80050BA
:102B880025EA0C05C8F80050D8F8045025EA0C05C9
:102B9800C8F80450156825EA0C051560556825EA3B
:102BA8000C0555605A000326D0F800C00F2723FAF9
:102BB80006F5964003F0070200EB85054CEA060C83
:102BC8009200C0F800C097402A6A22EA07022A62E7
:102BD800826822EA06028260426822EA04044460AB
:102BE800C26822EA0606C660013331FA03F280D1D0
:102BF80003B0BDE8F08F4FF0060E0EFA02F2B4E70C
:102C08004FF0020E0EFA02F2AFE74FF0050E0EFA81
:102C180002F2AAE74FF0030E0EFA02F2A5E74FF010
:102C2800040E0EFA02F2A0E74FF0080E0EFA02F2B6
:102C38009BE770474FF0070E0EFA02F295E700BFC8
:102C480000080258000C02580010025800140258DC
:102C5800001802580004005800000258800000586C
:102C680000040258001C0258002002580024025890
:102C780002B909048161704738B5114BDA68520707
:102C880004D4DB6803F00703834215D10C4AD368E8
:102C9800154623F007031843D060FEF7F1FE0446FB
:102CA80005E0FEF7EDFE001BB0F57A7F06D86B68ED
:102CB8009B04F6D5002038BD012038BD032038BD5F
:102CC80000480258024AD36843F08073D3607047C3
:102CD80000480258F0B44C6A82B014B1B2F1406FA7
:102CE80030D18B69002B34D00E6A002E59D005687C
:102CF80023438F68C869EF61002800F0AE80134352
:102D08000F690C68B2F1406F43EA0603CE6843EAE4
:102D18000003C86A43EA0003086B43EA00034869F2
:102D28000190486B43EA0003019843EA070343EA2A
:102D3800060343EA040343EA80436B6160D04B68AF
:102D4800AB615DE08B6A0568013B2B618B69002BE9
:102D5800CAD10B6A002B44D0066823438D68C86922
:102D6800F561002869D013434D6B0F69B2F1406FCC
:102D780043EA0003C86ACC6843EA0003086B43EAE5
:102D88000003486943EA050343EA070343EA0403E7
:102D980043EA8043736133D04B68B36102B0F0BC3F
:102DA8007047CD69002D6CD023430668CC6AB2F118
:102DB800406F43EA02000F6B4B6B40EA0500CD6899
:102DC80040EA04000C6840EA070040EA03004B6947
:102DD80040EA050040EA040040EA83407061DBD124
:102DE8000EE0CB697BB95CB1CB6A00682343D1E9BB
:102DF8000C5413434A692B43234343EA82434361F8
:102E080002B0F0BC70472343CC6A0D6BB2F1406F3F
:102E180043EA0203006843EA04034C6B43EA0503F0
:102E2800CD6843EA04034C6943EA050343EA844353
:102E38004361E5D04B688361E2E7D1E90B051343B1
:102E48004C6B03432B43D1E904022343034343EA76
:102E58008243736102B0F0BC704713434F6B0C6937
:102E680033434A69D1E90B0C0343086843EA0C036E
:102E78003B432343034343EA82436B6102B0F0BC04
:102E880070471C43CE6A006844EA02030C684A692A
:102E98003343D1E90C753B432B43234343EA824335
:102EA800436102B0F0BC7047F8B50446FEF7E8FD90
:102EB800002C55D094F84030012B53D001230646FE
:102EC80084F8403094F8413003F0FF02002B35D0ED
:102ED800A76C2368A1681A68013922F4706242EA73
:102EE80001221A6001E07A1C32D19D6815F0200594
:102EF800F9D1D4E90716E26828461F680A436168D1
:102F080032431D4E42EA01623E406169A76932437D
:102F18001A4E1A6041EA07025F6821693E4042EA98
:102F28000142012132435A601A680A431A606564F3
:102F380084F84110002384F84030F8BD204684F816
:102F48004020FEF735F841F288331F46A364C0E7F6
:102F5800FEF796FD801BB84206D82FB12368C4E758
:102F68000120F8BD0220F8BD0423012084F8413077
:102F7800636C03436364DDE72FFFFF00FEF8E0FFA7
:102F8800C8B110B590F840300446012B11D0026842
:102F9800012380F84030136823F001031360FEF723
:102FA8008DF800236364184684F8413084F8403073
:102FB80010BD022010BD0120704700BF2DE9F0416F
:102FC80004460D469046FEF75BFD94F84030012B11
:102FD8003BD0012384F8403094F84130012BDEB215
:102FE80006D002260023304684F84030BDE8F08140
:102FF800002202230746626484F84130B8F1FF3F9B
:1030080023680ED19A6812F02002FBD12946204687
:10301800FFF760FE6B6AE3B10123002684F84130B4
:10302800E0E79A6812F020021ED0FEF729FDC01BC7
:10303800804502D3B8F1000FE0D1042384F8413071
:10304800636C43F001036364CCE702263046BDE8B5
:10305800F081226893689B07FCD502210123002692
:10306800D16084F84130BDE729462046FFF732FE9B
:103078006B6A43B1D0E7FEF703FDC01B8045DCD384
:10308800B8F1000FD9D0226893689907F3D5E4E71F
:103098002DE9F843044689461546FEF7F1FC94F8F5
:1030A80040302768012B67D0012384F8403094F81A
:1030B8004130012B5FFA83F807D04FF00208002354
:1030C800404684F84030BDE8F88300236364B9F1D2
:1030D800000F56D01223064684F841303B6901336D
:1030E800E3623B69C4F824900133A3627B6923F04F
:1030F80040637B61E36A002B31D0691C3B4611D1E8
:103108009A685207FCD5636A1B7887F82030E26A10
:10311800636A013A0133E262E26A6362F2B1691CEE
:103128002368EDD09B685807EDD4FEF7A9FC801BF7
:10313800854201D3002DF2D1042384F84130636C19
:1031480043F00103636413E0BB689B070CD4FEF7EC
:1031580097FC801B8542EFD3002DEDD02768691CB2
:10316800F2D1BB689A07FCD502234FF00008FB6038
:10317800012384F84130A2E74FF002084046BDE839
:10318800F883636C43F00803636498E72DE9F84318
:10319800044615468946FEF773FC2768BA6994F811
:1031A8004030012B6CD0012384F8403094F8413032
:1031B800012B5FFA83F807D04FF00208002340463E
:1031C80084F84030BDE8F88300236364B9F1000F48
:1031D8005BD02223064684F841303B690133A36360
:1031E8003B69C4F83090013363637B6923F0406323
:1031F80043F080637B61BA61A36B002B33D0681CFA
:103208003B4612D19A6812F0060FFBD097F820209F
:10321800236B1A70A26B236B013A0133A263A26B72
:103228002363FAB1681C2368ECD09B6813F0060F7F
:10323800ECD1FEF725FC801B854201D3002DF1D18E
:10324800042384F84130636C43F00103636413E0A2
:10325800BB689B070CD4FEF713FC801B8542EFD399
:10326800002DEDD02768691CF2D1BB689A07FCD500
:1032780002234FF00008FB60012384F841309DE7EA
:103288004FF002084046BDE8F883636C43F008033A
:10329800636493E72DE9F84304461D460F46164636
:1032A800FEF7EEFB94F84030012B4FD0012384F851
:1032B800403094F84130012B5FFA83F807D04FF083
:1032C80002080023404684F84030BDE8F883002215
:1032D80042238146626484F84130681C236829D1FE
:1032E8009A689106FCD43268394670689A62B26866
:1032F8005862DA621A68306922F44002D6F80CC0C3
:1033080042EA00064FF00062204646F480061E603E
:10331800C7F828C0FFF7DEFC681C22681BD1936839
:103328001907FCD5082101234FF00008D16084F863
:103338004130C6E79A689206D5D5FEF7A1FBA0EB07
:103348000900854212D3002DC7D10FE04FF00208C3
:103358004046BDE8F88393681B07E3D4FEF790FB6B
:10336800A0EB0900854201D3002DD5D1042384F8B0
:103378004130636C43F001036364A2E72DE9F8432D
:1033880004460F469046FEF77BFB94F84030012B2D
:1033980042D0012384F8403094F84130012BDEB24A
:1033A80006D002260023304684F84030BDE8F88372
:1033B800002282230546D4F84890626484F841309C
:1033C800B9F1FF3F226814D193689906FCD41368B9
:1033D800D8F8041023F00803082943EA010313600E
:1033E8001ED039464FF0406220460026FFF772FC97
:1033F800D8E793689B06EAD5FEF742FB401B814558
:1034080002D3B9F1000FDBD1042384F84130636C97
:1034180043F001036364C5E702263046BDE8F8833C
:10342800D8F8001010231163D360136843F4801395
:103438001360D6E7704700BF08B5006C00238363AC
:10344800C36290F84130082B0BD103680222DA607E
:103458001A6842F400321A601A6842F002021A60CE
:1034680008BD012380F84130FFF7E4FF08BD00BF25
:10347800704700BF704700BF704700BF704700BF6C
:10348800704700BF704700BF704700BF38B503687A
:1034980004469A68196855070ED548030CD594F860
:1034A8004120122A75D094F84120222A00F0A180E8
:1034B8002046FFF7E5FF38BD950726D5880324D5B4
:1034C8000222DA601A6822F4E0221A6094F8412095
:1034D800122A7AD094F84120222A00F0A98094F880
:1034E8004120022A00F0D08094F84120082AE2D135
:1034F8005A690121204622F040625A6184F841103D
:10350800636C3BBBFFF7B4FF38BD150725D4D5075F
:1035180035D5C80333D50125DD601A6822F4702239
:103528001A60626C42F0020262641A68520779D526
:103538001A68E06B22F0040257491A60816502F0AC
:1035480087FB0028B7D0636C204643F0040363640C
:1035580084F84150FFF76EFF38BD0803D7D508221D
:10356800DA601A68520206D51A68012122F410227C
:103578001A6084F841102046FFF784FF38BDD00652
:1035880099D5CA0297D510222046DA60FFF77CFF4A
:1035980038BD9A6850078BD518460EE0626A1278D3
:1035A80083F82020E16A20680139626AE162013209
:1035B800816862624D077FF57BAFE26A002AEDD130
:1035C800036823F48023036072E71A68510709D55A
:1035D8001A68E16B22F0040209681A60CB6823F0CC
:1035E8000103CB600123204684F84130FFF746FFF2
:1035F80038BD9A6852077FF55BAF18460EE093F81E
:103608002010226B1170A16B20680139226BA16315
:1036180001328168226349077FF54AAFA26B002A0D
:10362800EDD1CDE7204684F84150FFF703FF38BDC0
:103638001A6852071DD49A6812F47C5F0FD111E002
:1036480093F82010226B1170A16B20680139226B4E
:10365800A16301328168226311F47C5F02D0A26BFE
:10366800002AEDD10123204684F84130FFF704FFFA
:1036780038BD1A68E16B22F0040209681A60CB6849
:1036880023F00103CB60EDE70123204684F84130A5
:10369800FFF7F0FE38BD00BF41340008002800F0F5
:1036A800EE81F8B503680446D80730D5B3490A69EE
:1036B800896A02F03802102A00F00681182A00F000
:1036C800FE806368B3F5803F00F02681002B00F090
:1036D8006481B3F5A02FA94B1A6800F0408222F448
:1036E80080321A601A6822F480221A60FEF7C8F93C
:1036F800A24E41F28837054605E0FEF7C1F9401BA6
:10370800B84200F2488133689A03F6D523689807CF
:1037180000F18980D90630D5984A1369926A03F076
:103728003803082B00F0E080182B00F0D880E369FC
:10373800002B00F07181914B1A681E4642F08002FE
:103748001A60FEF79DF9054605E0FEF799F9401B5A
:10375800022800F220813368DB05F6D5FEF7A8F9C8
:1037680041F20303984200F21C827368226A23F034
:10377800F84343EA8263736023681D0717D56369BA
:10378800002B00F023817D4B5A6F1E4642F0010248
:103798005A67FEF775F9054605E0FEF771F9401B13
:1037A800022800F2F880736F9807F6D523689A0606
:1037B80017D5A369002B00F01C81704B1A681E46B0
:1037C80042F480521A60FEF75BF9054605E0FEF701
:1037D80057F9401B022800F2DE8033689F04F6D5B3
:1037E8002368590700F19E80636AD3B1634A11695F
:1037F80001F03801182970D0022B1368154623F000
:103808008073136000F04581FEF73AF9044605E03D
:10381800FEF736F9001B022800F2BD802B689B01D9
:10382800F6D40020F8BD554A1369926A13F038039C
:103838002AD1524BE1681B685A0701D500294CD0A0
:103848004E4A1368164623F019030B431360FEF71C
:1038580017F9054605E0FEF713F9401B022800F2A8
:103868009A8033685B07F6D5FEF722F941F2030325
:1038780022699842736800F2FB8023F47C3343EAA0
:1038880002337360236845E7182B00F0ED80E26887
:10389800002A00F0D58039490B680E4623F0190339
:1038A80013430B60FEF7ECF8054604E0FEF7E8F872
:1038B800401B02286FD833685F07F7D5D4E701F0BB
:1038C800030102297FF4FDAE2C4A126891037FF5AB
:1038D8001EAF6268002A7FF41AAF0120F8BD02F01B
:1038E8000302012A7FF423AF244B1B68DA0502D5B3
:1038F800E369802BF1D1FEF7DBF841F203031F4A9D
:103908009842216A00F2BD80536823F0F84343EAE5
:1039180081635360236830E7184A136843F480339F
:103928001360E3E6164B1A681E4642F480721A606A
:10393800FEF7A6F8054604E0FEF7A2F8401B642847
:1039480029D83368DA05F7D5A368012B00F032814E
:10395800002B00F00C81052B084B1A6F00F030810A
:1039680022F001021A671A6F22F004021A67FEF7A2
:1039780087F8024E41F28837054608E000440258AD
:1039880000480258FEF77CF8401BB84203D8336F52
:103998009B07F7D528E70320F8BD8D4B41F2883700
:1039A8001A681E4622F480321A601A6822F48022AD
:1039B8001A60FEF765F8054604E0FEF761F8401B5B
:1039C800B842E8D833689B03F7D49FE6804B5A6F18
:1039D8001E4622F001025A67FEF752F8054604E037
:1039E800FEF74EF8401B0228D5D8736F9907F7D415
:1039F800DCE6774B1A681E4622F480521A60FEF7FE
:103A08003FF8054604E0FEF73BF8401B0228C2D801
:103A180033689804F7D4E3E66D4B1A681E4622F023
:103A280080021A60FEF72CF8054604E0FEF728F835
:103A3800401B0228AFD83368DF05F7D423689CE61B
:103A4800634B1A681E4622F001021A60FEF718F846
:103A5800054604E0FEF714F8401B02289BD833689B
:103A68005807F7D4236855E691077FF410AFE0E6CE
:103A780023F0FE4343EA0263736023684AE60120A9
:103A88007047D36823F07C5343EA0163D36023680B
:103A980073E6FDF7F5FF064605E0FDF7F1FF801B2D
:103AA80002283FF678AF2B689901F6D4AA6A494BE9
:103AB800A06A1340E26A48490343454E43EA0213A9
:103AC800AB62276BD4E90D32013F501E013BE26B1C
:103AD800C7F308075B020004013A9BB200F4FE003A
:103AE8001206034302F0FE423B4313432B63EB6A87
:103AF80023F00103EB626A6BA36C114041EAC30136
:103B08006963EB6A226C23F00C031343EB62EB6AE4
:103B1800626C23F002031343EB62EB6A43F48033D5
:103B2800EB62EB6A43F40033EB62EB6A43F4802305
:103B3800EB62EB6A43F00103EB622B6843F080739E
:103B48002B60FDF79DFF044605E0FDF799FF001B7C
:103B580002283FF620AF33689A01F6D561E642F4B1
:103B680080221A601A6842F480321A60BEE5184B47
:103B780041F288371A6F1E4622F001021A671A6F3F
:103B880022F004021A67FDF77BFF054605E0FDF702
:103B980077FF401BB8423FF6FEAE336F9807F6D466
:103BA80022E6F368226A23F07C5343EA0263F36057
:103BB8002368E2E5064A136F43F001031367D6E66C
:103BC80042F004021A671A6F42F001021A67CEE641
:103BD800004402580CFCFFFF0700FFFF474A136927
:103BE80003F03803102B04D0182B0DD01BB1444818
:103BF800704744487047136899064AD51368424885
:103C0800C3F3C103D8407047936A30B4946AD16A49
:103C180014F47C7FC4F30510556B38D0C5F3CC057C
:103C280001F0010103F0030301FB05F1012B07EE8D
:103C3800901AB8EEE77A02D0022B2CD093B307EE95
:103C4800900A9FED325AF8EEE77A136BC5EE276AB1
:103C5800DFED2F5AC3F3080307EE903AB7EE006A78
:103C6800F8EEE77AE7EE257A77EE867A66EEA76AC7
:103C7800224B1B6BC3F34623013307EE903AB8EE91
:103C8800E77AC6EE877AFCEEE77A17EE900A30BC40
:103C980070471D48704707EE900A9FED1E5AF8EED0
:103CA800E77AD2E713689B0620D5136807EE900AD7
:103CB8001549B7EE005AC3F3C100F8EEE77A136B63
:103CC800C140DFED134AC3F3080306EE101A06EEEF
:103CD800903AB8EEC66AF8EEE66AC6EE275AE7EEFC
:103CE800246A76EE856A66EEA56AC1E707EE900A51
:103CF8009FED095AF8EEE77AA7E700BF004402589B
:103D080000093D000024F4000090D0030024744A08
:103D1800000000390024744B0024744C002800F083
:103D28000381874A136803F00F038B422DE9F041A2
:103D380004460D460CD2136823F00F030B4313609F
:103D4800136803F00F038B4202D00120BDE8F08115
:103D580023685F070BD57B4920698A6902F07002E6
:103D6800904204D98A6922F0700202438A611E07D0
:103D78000BD574496069CA6902F07002904204D98F
:103D8800CA6922F070020243CA61D8060BD56D4990
:103D9800A069CA6902F4E062904204D9CA6922F4AF
:103DA800E0620243CA6199060BD56649E0690A6A6E
:103DB80002F07002904204D90A6A22F070020243AB
:103DC8000A629A0740F1A2805E48E168826902F0BF
:103DD8000F02914204D9826922F00F020A438261DC
:103DE800D80731D5574AA168936923F470630B4308
:103DF800936161681368022900F09880032900F034
:103E08008F80012900F0988058079ED54D4A41F2CD
:103E180088381369174623F007030B431361FDF72E
:103E28002FFE064605E0FDF72BFE801B404500F2FD
:103E380081803B69626803F03803B3EBC20FF2D1AB
:103E48002368990706D5E1683E48826902F00F02A7
:103E58008A425FD83A490A6802F00F02AA420AD990
:103E68000A6822F00F022A430A600A6802F00F0269
:103E7800AA427FF46AAF5A070BD5324920698A698A
:103E880002F07002904204D28A6922F07002024362
:103E98008A611F070BD52B496069CA6902F0700255
:103EA800904204D2CA6922F070020243CA61DE0657
:103EB8000BD52449A069CA6902F4E062904204D291
:103EC800CA6922F4E0620243CA619D060BD51D4A05
:103ED800E169136A03F07003994204D2136A23F06C
:103EE80070030B431362FFF779FE164A164C03461C
:103EF80092690F201549C2F30322A25C02F01F0247
:103F0800D340BDE8F0410B60FDF75ABDDA073FF535
:103F180069AF9FE7826922F00F021143816199E737
:103F28009F013FF573AF10E7012070479B033FF5F2
:103F38006DAF0AE7032009E7DE053FF567AF04E741
:103F480000200052004402581460000804000024B5
:103F58003B4AF8B5936A03F00303032B69D013684F
:103F680006460F46144623F080631360FDF788FD6C
:103F7800054604E0FDF784FD431B022B57D8236850
:103F88001A01F7D4A36A326823F47C332D4943EA33
:103F98000233A3627568D6E90232013D501E013B27
:103FA8003269C5F308055B020004013A9BB200F4CC
:103FB800FE001206034302F0FE422B431343A363A1
:103FC800E36A726923F0C0031343E362E36AB269E8
:103FD80023F020031343E362E36A23F01003E36250
:103FE800E26BF369114041EAC301E163E36A43F01C
:103FF8001003E362E36AF7B1012F0CBF43F48013A7
:1040080043F40013E3620E4B1A681D4642F08062C7
:104018001A60FDF735FD044604E0FDF731FD001B8D
:10402800022804D82B681B01F7D50020F8BD03200F
:10403800F8BD0120F8BD43F40023E362E3E700BFC5
:10404800004402580700FFFF3B4AF8B5936A03F0A3
:104058000303032B69D0136806460F46144623F062
:1040680080531360FDF70CFD054604E0FDF708FDDD
:10407800431B022B57D823689A00F7D4A36A3268E7
:1040880023F07C732D4943EA0253A3627568D6E98D
:104098000232013D501E013B3269C5F308055B023F
:1040A8000004013A9BB200F4FE001206034302F03A
:1040B800FE422B4313432364E36A726923F440638B
:1040C8001343E362E36AB26923F400731343E362C0
:1040D800E36A23F48073E362626CF369114041EA96
:1040E800C3016164E36A43F48073E362E36AF7B18E
:1040F800012F0CBF43F4000343F08073E3620E4BBF
:104108001A681D4642F080521A60FDF7B9FC044651
:1041180004E0FDF7B5FC001B022804D82B689B00BF
:10412800F7D50020F8BD0320F8BD0120F8BD43F401
:104138008003E362E3E700BF004402580700FFFF83
:104148002DE9F8430368044613F000661CD0426E5C
:10415800B2F5001F00F0B98423D8002A00F0CE83FE
:10416800B2F5801F20D102210430FFF7F1FE064688
:10417800002E40F06E84626E2368AB480026016D05
:1041880021F440110A430265DD0511D5626D042A48
:1041980000F20785DFE812F0690470048004CA029F
:1041A800CA02B2F5401FE8D0DD054FF00106EDD494
:1041B800354698051BD5A26D802A00F0758400F25B
:1041C800EC80002A00F08883402A40F0ED8000212E
:1041D800201DFFF7BDFE23680546002D40F07283C1
:1041E8009149A06D0A6D22F4E07202430A655905EF
:1041F8001FD5D4F8A420B2F5800F00F0448400F253
:10420800D680002A00F08083B2F5001F40F0D780E6
:104218000021201DFFF79CFE23680546002D40F075
:1042280055838149D4F8A4008A6D22F460020243C0
:104238008A651A051FD5D4F8A820B2F1007F00F0CE
:104248000B8400F2BF80002A00F04C83B2F1807F1B
:1042580040F0C0800021201DFFF77AFE2368054644
:10426800002D40F031837049D4F8A8008A6D22F0FF
:10427800E06202438A659F0118D5A26C202A00F0EB
:10428800B68300F2AA803AB1102A40F0A9806649A4
:10429800CA6A42F40032CA62002D40F04383624980
:1042A800A06CCA6C22F030020243CA64D8041DD53F
:1042B800E26DB2F5005F00F0008400F29480002AFD
:1042C80000F01683B2F5805F40F095800021201D34
:1042D800FFF73EFE23680546002D40F0FB82524959
:1042E800E06D0A6D22F4E04202430A6599041AD58A
:1042F800226EB2F5003F00F068837FD84AB1B2F56C
:10430800803F40F083800121201DFFF721FE2368B4
:104318000546002D40F019834349206E0A6D22F4AA
:10432800E02202430A655A041BD5D4F8AC20B2F146
:10433800005F00F065836CD842B1B2F1805F70D144
:104348000121201DFFF704FE23680546002D40F0DB
:10435800FE823549D4F8AC008A6D22F0E04202436F
:104368008A651F040DD5E26EB2F1805F00F03783D5
:10437800B2F1005F00F0E681002A00F0E981012631
:104388003546D8015CD5626C032A00F21084DFE858
:1043980012F0530041034D005300C02A3FF41DAFF3
:1043A800B2F5807F3FF419AF012635461FE7B2F515
:1043B800C00F3FF433AFB2F5000F3FF42FAF012623
:1043C800354636E7B2F1407F3FF44AAFB2F1806F2D
:1043D8003FF446AF012635464DE7302A3FF45CAF3F
:1043E8000126354662E7B2F5405F3FF475AFB2F596
:1043F800804F3FF471AF0126354677E722F48031CC
:10440800B1F5802F85D0B2F5403F82D001263546E0
:1044180089E722F08051B1F1804F97D0B2F1405F27
:1044280094D0012635469CE7004402580221201DFD
:10443800FFF78EFD23680546002D00F06B822E469F
:10444800590200F1EB81DF0739D5A26F282A00F263
:104458006A81DFE812F030006801680168016801CC
:10446800680168016801570368016801680168010B
:10447800680168016801290068016801680168012C
:104488006801680168013000680168016801680115
:104498006801680168013000680168016801680105
:1044A8006801680168013000012104F12400FFF768
:1044B800CBFD23680546002D00F055822E4698074F
:1044C80016D5626F052A00F26F83DFE812F00D003F
:1044D800110306000D000D000D00012104F1240058
:1044E800FFF7B2FD23680546002D00F026822E4610
:1044F800590717D5D4F89020052A00F24F83DFE832
:1045080012F00D00ED0206000D000D000D00012156
:1045180004F12400FFF798FD23680546002D00F0FC
:1045280003822E469A061DD5D4F88C20B2F1005F7E
:1045380000F0418200F225814AB1B2F1805F40F07B
:104548002A810021201DFFF703FD23680546002D61
:1045580040F01182B649D4F88C004A6D22F0E0424E
:1045680002434A655F061DD5D4F89820B2F5006F5E
:1045780000F00D8200F212814AB1B2F5806F40F06E
:1045880017810021201DFFF7E3FC23680546002D55
:1045980040F0E381A649D4F898008A6D22F4E052ED
:1045A80002438A6518061DD5D4F89C20B2F5804FC1
:1045B80000F0F78100F2FF804AB1B2F5005F40F0E9
:1045C80004810021201DFFF7C3FC23680546002D48
:1045D80040F0C1819649D4F89C008A6D22F460426B
:1045E80002438A6519070BD5D4F88010B1F5805FAE
:1045F80000F024828E48426D22F440520A434265FC
:10460800DA060BD5D4F89410B1F5807F00F00B8250
:104618008748826D22F440720A4382651F030ED5D3
:10462800D4F8A010B1F5803F00F0E580B1F5003F67
:1046380000F0E880002900F07E8201263546580304
:104648000FD5D4F88420B2F5001F00F0C180B2F570
:10465800401F00F0C480B2F5801F00F0758201266B
:104668003546D90317D5E26C002A00F08681B2F5E9
:10467800803F40F024810221201DFFF769FC054698
:104688002368002D40F081816949E06CCA6C22F4EE
:1046980080320243CA649A0000F106819F0335D430
:1046A800301E18BF0120DE0206D56149256F0A6D4C
:1046B80022F000422A430A65DD0007D55C49D4F898
:1046C800B4500A6922F480422A430A61990206D545
:1046D8005749A56E0A6D22F080722A430A655A006E
:1046E80009D5534A116921F4004111611169D4F8BF
:1046F800B85029431161002B06DA4D4A216DD36C5D
:1047080023F040530B43D364BDE8F883E26FB2F55E
:10471800807F00F0078226D922F48071B1F5007FEE
:1047280023D00120BFE701263546C8E63546002DCF
:1047380040F0CE803E49606D0A6D22F007020243C8
:104748000A6536E50121201DFFF702FC23680546AE
:10475800002D40F0FE803649E06E0A6D22F040528E
:1047680002430A650DE6002ADBD1002DD9D1304D70
:10477800301E696D18BF012021F440710A436A6533
:1047880091E722F08051B1F1804F3FF4E0AEB2F1F1
:10479800405F3FF4DCAE01263546E3E622F4806153
:1047A800B1F5805F3FF4F3AEB2F5406F3FF4EFAE82
:1047B80001263546F6E622F40051B1F5004F3FF4E4
:1047C80006AFB2F5C04F3FF402AF0126354609E700
:1047D800012104F12400FFF737FC23680546002D6A
:1047E80040F0BF801249D4F884004A6D22F4401288
:1047F80002434A6535E7022104F12400FFF724FC4F
:1048080023680546002D40F0AA800949D4F8A00085
:104818008A6D22F4403202438A6510E7054B1A6814
:10482800984642F480721A60FDF72AF9074609E0B3
:104838000044025800480258FDF722F9C01B6428BA
:1048480000F26A81D8F80030DA05F5D5002D40F07D
:10485800A281B34AD4F8B030116F594011F4407FA7
:104868000BD0116F106F21F4407140F48030106745
:10487800106F20F4803010671167B3F5807F00F067
:104888006C8103F44072B2F5407F00F07A81A4494C
:104898000A6922F47C520A61A14AC3F30B03116F1F
:1048A8000B4313672368CEE5022104F12400FFF7C8
:1048B800CBFB236800283FF4F1AE0126EEE6012683
:1048C8003546E8E62E4692E42E46D4E42E46B0E479
:1048D8002E466EE42E4609E59149CA6A42F4003232
:1048E800CA627AE48E49CA6A42F40032CA62B7E4FC
:1048F8008B49CA6A42F40032CA62EDE48848C16A48
:1049080041F40031C16238E48549CA6A42F4003290
:10491800CA6283E48249606CCA6C22F003020243D3
:10492800CA648DE52E46C1E47D49D4F890008A6DAD
:1049380022F0070202438A65F4E57949606F4A6DFF
:1049480022F0070202434A65D2E52E46EBE42E46E2
:1049580007E52E4615E52E4644E62E4622E62E4667
:104968006DE62E467DE66E49A06F4A6D22F038024C
:1049780002434A65A3E52E46F4E56949CA6A42F44A
:104988000032CA62002D3FF47FAE2E4683E6022134
:1049980004F12400FFF758FB05462368002DDCD1FD
:1049A800F8E5022104F12400FFF74EFB05462368D1
:1049B800002DD0D10EE6022104F12400FFF744FBBC
:1049C80005462368002DD6D1C4E5012104F1240051
:1049D800FFF73AFB05462368002DB6D19CE4504901
:1049E800CA6A42F40032CA62002DB2D1B3E602218B
:1049F800201DFFF7ADFA05462368002D92D14EE43D
:104A0800012104F12400FFF71FFB05462368002D50
:104A18009DD19EE44249CA6A42F40032CA62002D1E
:104A28007FF40DAD76E7022104F12400FFF70CFBBB
:104A3800236800283FF4F2AD0126EFE5022104F1D6
:104A48002400FFF701FB236800283FF4D9AD0126B5
:104A5800D6E52368FFF798BB002104F12400FFF78F
:104A6800F3FA23680546FFF7FBBB2D493546CA6AAA
:104A780042F40032CA625AE60021201DFFF768FAA4
:104A88002368054653E6002104F12400FFF7DCFA09
:104A980023680546FFF7C2BB002104F12400FFF795
:104AA800D3FA2368054642E6002104F12400FFF703
:104AB800CBFA23680546FFF790BB002104F12400D8
:104AC800FFF7C2FA2368054606E402212430FFF7FF
:104AD800BBFA0646002E3FF44EABBAE70121201D73
:104AE800FFF736FA05462368002D7FF41AAD1BE759
:104AF8000121201DFFF72CFA05462368002D7FF4BD
:104B0800F6AC1AE70121201DFFF722FA05462368B3
:104B1800002D7FF4D3AC26E703262368354692E4BC
:104B2800004402582348C16A41F40031C162002D93
:104B38007FF4F7AD1BE6201DFFF70AFA0546236848
:104B4800002D7FF40CAF60E61A49CA6A42F40032BD
:104B5800CA62002D7FF405AF44E6FCF791FFDFF849
:104B6800548041F28839074604E0FCF789FFC01BEE
:104B78004845D1D8D8F870309B07F6D5D4F8B0306E
:104B88007FE60C480C4A016902EA131221F47C51B1
:104B98000A43026180E623682E4654E4012635461E
:104BA800C0E40126FFF704BB01263546A0E4012630
:104BB800354645E400440258CFFFFF00584B70B417
:104BC800996A9D6ADC6A15F47C3FC5F30532DE6B91
:104BD8005CD0C6F3CC0604F0100401F0030104FB1A
:104BE80006F4012907EE904AB8EEE77A03D00229C5
:104BF80075D000294FD007EE902ADFED4A6AF8EE0B
:104C0800E77A9B6B86EEA76A9FED475AC3F30803C2
:104C180006EE903AF7EE005AF8EEE66AE7EE056A15
:104C280076EEA56A66EE266A3D4AB7EE006A936B91
:104C3800C3F3462307EE103AB8EEC77A70BC37EED6
:104C4800067AC6EE877AFCEEE77AC0ED007A936BB7
:104C5800C3F3064307EE103AB8EEC77A37EE067A82
:104C6800C6EE877AFCEEE77AC0ED017A936BC3F360
:104C7800066307EE903AF8EEE77A77EE867A86EEE4
:104C8800A77ABCEEC77A80ED027A704770BCC0E99B
:104C98000022826070471968890627D5196807EECF
:104CA800902A224AB7EE005AC1F3C101F8EEE77A1A
:104CB8009B6BCA40DFED1C4AC3F3080306EE102ABB
:104CC80006EE903AB8EEC66AF8EEE66AC6EE275ADD
:104CD800E7EE246A76EE856A66EEA56AA4E707EE33
:104CE800902ADFED136AF8EEE77A8AE707EE902A52
:104CF8009FED105A9B6BB7EE006AF8EEE77ADFED8E
:104D08000A5AC3F30803C5EE276A07EE903AF8EE8D
:104D1800E77AE7EE257A77EE867A66EEA76A83E782
:104D2800004402580024744A000000390090D0035F
:104D38000024744B0024744C584B70B4996A9D6AD3
:104D4800DC6A15F07C7FC5F305525E6C5CD0C6F357
:104D5800CC0604F4807401F0030104FB06F4012975
:104D680007EE904AB8EEE77A03D0022975D00029F9
:104D78004FD007EE902ADFED4A6AF8EEE77A1B6C0F
:104D880086EEA76A9FED475AC3F3080306EE903AEA
:104D9800F7EE005AF8EEE66AE7EE056A76EEA56ADF
:104DA80066EE266A3D4AB7EE006A136CC3F34623E3
:104DB80007EE103AB8EEC77A70BC37EE067AC6EE40
:104DC800877AFCEEE77AC0ED007A136CC3F30643EA
:104DD80007EE103AB8EEC77A37EE067AC6EE877A4B
:104DE800FCEEE77AC0ED017A136CC3F3066307EEB5
:104DF800903AF8EEE77A77EE867A86EEA77ABCEEF6
:104E0800C77A80ED027A704770BCC0E900228260E0
:104E180070471968890627D5196807EE902A224A2B
:104E2800B7EE005AC1F3C101F8EEE77A1B6CCA402D
:104E3800DFED1C4AC3F3080306EE102A06EE903A8B
:104E4800B8EEC66AF8EEE66AC6EE275AE7EE246AB6
:104E580076EE856A66EEA56AA4E707EE902ADFED8E
:104E6800136AF8EEE77A8AE707EE902A9FED105A60
:104E78001B6CB7EE006AF8EEE77ADFED0A5AC3F367
:104E88000803C5EE276A07EE903AF8EEE77AE7EEF0
:104E9800257A77EE867A66EEA76A83E70044025899
:104EA8000024744A000000390090D0030024744B99
:104EB8000024744C584B70B4996A9D6ADC6A15F4E6
:104EC8007C7FC5F305125E6B5CD0C6F3CC0604F09C
:104ED800010401F0030104FB06F4012907EE904ADE
:104EE800B8EEE77A03D0022975D000294FD007EE33
:104EF800902ADFED4A6AF8EEE77A1B6B86EEA76A1E
:104F08009FED475AC3F3080306EE903AF7EE005AAE
:104F1800F8EEE66AE7EE056A76EEA56A66EE266AB8
:104F28003D4AB7EE006A136BC3F3462307EE103A07
:104F3800B8EEC77A70BC37EE067AC6EE877AFCEE12
:104F4800E77AC0ED007A136BC3F3064307EE103A15
:104F5800B8EEC77A37EE067AC6EE877AFCEEE77ABD
:104F6800C0ED017A136BC3F3066307EE903AF8EECF
:104F7800E77A77EE867A86EEA77ABCEEC77A80ED76
:104F8800027A704770BCC0E90022826070471968D5
:104F9800890627D5196807EE902A224AB7EE005AE3
:104FA800C1F3C101F8EEE77A1B6BCA40DFED1C4A7A
:104FB800C3F3080306EE102A06EE903AB8EEC66A66
:104FC800F8EEE66AC6EE275AE7EE246A76EE856AB8
:104FD80066EEA56AA4E707EE902ADFED136AF8EEFD
:104FE800E77A8AE707EE902A9FED105A1B6BB7EE17
:104FF800006AF8EEE77ADFED0A5AC3F30803C5EE54
:10500800276A07EE903AF8EEE77AE7EE257A77EE28
:10501800867A66EEA76A83E7004402580024744A39
:10502800000000390090D0030024744B0024744C15
:10503800B0F5807F00B585B048D0B0F5007F11D0BD
:10504800B0F5806F00F08280B0F5006F52D0B0F5F7
:10505800805F2CD0B0F5002F00F09680002005B0BE
:105068005DF804FB534A136D03F4E073802B59D0A9
:1050780012D9C02B26D0B3F5807FEFD1D36C13F0B3
:1050880040535BD0B3F1805F00F08D80B3F1005FD7
:10509800494818BF0020E2E7002B3CD0402BDDD167
:1050A80001A8FFF78BFD019805B05DF804FB414AA4
:1050B800136D03F4E043B3F5005F33D029D9B3F59A
:1050C800405F58D13D4805B05DF804FB394B1B6D76
:1050D80003F00703042BC1D801A252F823F000BF44
:1050E8001F510008A95000082D510008CD50000894
:1050F8003B5100082F4A936D03F0E063B3F1007F42
:1051080010D01DD9B3F1407FDCD0B3F1806FB5D09A
:10511800A4E7002B34D101A8FFF7CCFE029805B014
:105128005DF804FB01A8FFF707FE019805B05DF8DC
:1051380004FB204BDB6C13F04053A3D120488EE7CF
:10514800002BE8D0B3F1807FAAD087E7194A936D86
:1051580003F46003B3F5800FE4D005D8002BDAD050
:10516800B3F5001F9CD079E7B3F5C00FAAD0B3F50B
:10517800000F83D072E7B3F5804F3FF47FAF6DE740
:10518800B3F5805F8CD069E70A4A936D03F4403326
:10519800B3F5803F09D0B3F5003F3FF46FAF002B64
:1051A8007FF45CAF7CE7074859E701A8FFF7C4FD27
:1051B800039854E7004402580024F4000080BB0020
:1051C8000090D00300093D00B24B016899422DE9D7
:1051D800F04105461FD0203399421CD003F578735F
:1051E800994259D02033994256D003F578739942A1
:1051F80000F020812033994200F01C8195F891300D
:10520800A54E03F0FF026BB9284685F89020FCF7FD
:105218002BF8296806E0A14E95F8913003F0FF02BB
:10522800002BF1D09E4B9F481B680A68A0FB030324
:1052380022F480321B0B0A609B0023B30C68013BED
:1052480014F48034F9D1EB680222012B85F89120FF
:1052580000F01A81934219BF174603202320222702
:1052680015BF4FF0010C4FF0210C00222022AB6833
:10527800013B042B00F25781DFE813F0D100110045
:10528800D8001000D400D5F89430012043F0400332
:10529800C5F89430BDE8F081834EBDE73A464FF437
:1052A80000682B6A3260002B44D07A4B994200F098
:1052B80029817E48081AB0FA80F04009002840F099
:1052C80021817B4B994200F017812033994200F0ED
:1052D8001381784B994200F009812033994200F0FC
:1052E8000581754B994200F01381744B994200F087
:1052F8001581AB69B3F5002F00F0EE80AB6A00EBC7
:1053080080002A6AB3F1806F4FEA40030CBF022184
:10531800012102FB01F21202B3FBF2F3684AA2FB7D
:105328000312D20802EB8201A3EB4103092B08BF49
:1053380001326A626B6833F002032B6D40F09F8084
:10534800012B14BF4FF400740024FCF7B1FB6B6809
:10535800B0F5005FD5E9111243EA01037FD31A4380
:10536800EB6CE96A1A43A8692B680A436969AF6A52
:105378000A431968D5F824C0024352483A43084002
:10538800296918600A4319684FF220004E4F0A43F2
:1053980042EA0C5242EA080222434C4C1A6059680D
:1053A800EA690C40296B11436A6B5C6011435C68C5
:1053B8006A6E2143EC6D22432C6E59602243996832
:1053C8006C6D0F40A96D013C01399F6022439C68B8
:1053D80042EA0122A96E2243EC6E9A6041EA040275
:1053E800D9686C6F0840296F42EA0442294C013998
:1053F800D860D868A34242EA012242EA0002DA6091
:105408001AD02D4A934217D000230122C5F89430B0
:10541800184685F8903085F89120BDE8F0814FF462
:1054280080683EE702464FF400683AE762464FF468
:10543800006836E7264EEFE6736C23F001037364C9
:1054480095F83830012BDFD1D5E90F23013A43EA2B
:1054580002137364736C43F001037364D4E7E96C5B
:105468001A4368690A43E96A2B680A43AF691968ED
:10547800024318483A430840D5E909C181E7012B9E
:1054880008BF4FF4007460E7132012274FF0110C87
:105498001022ECE60458014000540058005801401E
:1054A800040000241BECCB95005C0140245801400B
:1054B800045C01400460014004540058245400581E
:1054C800CDCCCCCC10C005F00080F8FFF01FFFFF5A
:1054D8000060014010C005F800EB8000296A6A6D81
:1054E800430002FB01F2B3FBF2F317E74FF400703D
:1054F800FFF79EFD2968F4E64FF40070FFF798FD6A
:105508002968E6E64FF48070FFF792FD2968D8E62F
:105518004FF48060FFF78CFD2968E6E64FF40060E1
:10552800FFF786FDE5E64FF00008BAE60229F8B570
:10553800044635D9C81E012830D8656800204FF4C4
:105548000036236735F002054FF4802560640CBFF0
:105558000127074604294FF6FF7127650CBF01276D
:105568000D27E064E065A765A0666167C4E9186572
:10557800032A13D8DFE802F0484F553723684B4A0F
:10558800934205D002F1C052A2F58232934205D16E
:105598006368012B02D1636C002B30D00120F8BD69
:1055A80045680020236735F002056064E0644FF425
:1055B800803508BF0646A0664FF6FF7018BF012663
:1055C800E565606713F001002665E7D14D1E012DE2
:1055D8002ED84FF40035C4E91850032ADED8DFE886
:1055E80002F05A4B3B315B01E02180226365A164E4
:1055F800E266FCF75DFA94F83830012BBED02046FD
:10560800BDE8F840FFF7E0BD1B018021402263653B
:10561800A164E266EDE780225B01A2646365E2664D
:10562800E7E75B01C02180226365A164E266E0E7E9
:105638004FF48025C4E91805032AAFD8DFE802F043
:105648002B1C0C025B08E02080219A01A0645B01FE
:10565800E166C4E91523CCE75B08C0258020022950
:105668004FEA8312A5644FEA4313E066C4E91523A1
:10567800BFD10823A366BCE75B08802202294FEA52
:105688008310A2644FEA4313E266C4E91503B0D15C
:105698001023A366ADE75B08802040215A01A0646F
:1056A8001B01E166C4E91523A3E700BF04580140C4
:1056B80018B338B590F82C300D46044603F0FF02B5
:1056C800B3B10223214684F82C3051F8040B00F0C2
:1056D80051F82946D4E9000200F088F8084A012167
:1056E8000020136843F00043136084F82C1038BD81
:1056F80080F82D20FBF77CF8E3E70120704700BF16
:105708000040005270B590F82C300546022BD8B2F4
:1057180004D000F0FB04012C01D0012070BD02234D
:105728000E46286885F82C3000F0ACF83368022B58
:1057380003D0002085F82C4070BD0523002085F893
:105748002C3070BD38B590F82C300446022BD8B2F6
:1057580005D094F82C30012BDDB201D0012038BDE2
:105768000223206884F82C3000F09EF8002084F88A
:105778002C5038BD0B68026870B4C3B9A3F5004358
:105788004C688E691340D1E9022523430C69134301
:105798004A692B43CD69234313433343D1E9084274
:1057A8002B432343134370BC036000207047CB692D
:1057B80022F4F842CE681A430B4BD1E908542A4325
:1057C8004D6822438C680260426813402B430D6980
:1057D80023433343D1E905422B432343134370BC8E
:1057E80043600020704700BF0080FFFF70B40ABB11
:1057F8004C6882680D68631E02F070428C686E1EE9
:1058080042EA0313651ECC6833430A69661E4C6975
:1058180043EA0523551E8A69611E43EA0633013AA5
:1058280043EA054343EA015343EA026370BC8360D9
:10583800002070478268CB68114C5D1E4B6814408D
:105848004A695E1E0B68013A44EA05348D68013BDB
:1058580044EA0254013D8460C2680C6902F0704257
:105868008969013C42EA06120139134343EA0523D8
:1058780043EA044343EA016370BCC36000207047F5
:10588800FF0F0FFF30B402460020D1E9003415693C
:105898002343D1E902142B43013943EA442343EA61
:1058A800411330BC136170470246054B002010B409
:1058B800546923405DF8044B43EA41015161704744
:1058C80001C0FFFF2DE9F04387B000244FF0100816
:1058D8001D4DEC46029404946E46ADF8084005F15F
:1058E800180E059405F1300703944FF0FF09CDE930
:1058F8000044ADF80080BCE80F000FC59CE8030029
:10590800124BB44600940294ADF80080ADF80840FC
:1059180083F8009085E803000FCEAEE80F0096E804
:10592800030000940294ADF80080ADF808408EE8BA
:105938000300BCE80F000FC79CE8030087E80300DA
:1059480007B0BDE8F08300BF14000024D807002486
:1059580010B5EFF3108472B6084B1A78120602D508
:1059680004B962B610BD1878D822054B40B202FBC4
:1059780000301430FCF72CFCF2E700BFD8070024F5
:10598800DC070024014800F05BB900BF6808002468
:10599800014800F055B900BF40090024014800F053
:1059A8004FB900BF180A0024044B10221A7483F858
:1059B800E82083F8C02183F898227047DC07002488
:1059C800036886B0B3F1804F28D02B4A934216D093
:1059D8002A4A934231D02A4A93423DD0294A9342D7
:1059E8001AD1294BD3F8E82042F01002C3F8E82076
:1059F800D3F8E83003F010030593059B0CE0224B25
:105A0800D3F8E82042F00202C3F8E820D3F8E830DF
:105A180003F002030293029B06B070471A4BD3F8B7
:105A2800E82042F00102C3F8E820D3F8E83003F098
:105A380001030193019B06B07047134BD3F8E8208C
:105A480042F00402C3F8E820D3F8E83003F0040376
:105A58000393039B06B070470B4BD3F8E82042F042
:105A68000802C3F8E820D3F8E83003F008030493E9
:105A7800049B06B0704700BF0004004000080040C7
:105A8800000C004000100040004402582DE9F0418D
:105A98000D688CB02E4E05EBC504032D06EBC4072C
:105AA800076047DC00222B4B0DF1100C4FEAC50EA6
:105AB800E40003C9FA60914287E803000FCB8CE841
:105AC8000F000CAB0CBF4FF000084FF0100803EBB1
