:020000040800F2
:10000000000002204D220008492200080D9E000831
:100010004922000849220008492200080000000087
:10002000000000000000000000000000492200085D
:10003000492200080000000049220008FD9D000838
:1000400049220008492200084922000849220008E4
:1000500049220008492200084922000849220008D4
:100060004922000849220008492200084186000868
:100070004D86000845780008598600086586000806
:10008000C19B0008AD1C0108492200084922000854
:100090004922000849220008492200084922000894
:1000A0004922000849220008492200084922000884
:1000B000492200084922000849220008E11C0108E1
:1000C00049220008ED1C01084922000849220008C5
:1000D000492200089595000841960008F19600080D
:1000E00049220008492200080000000049220008B7
:1000F0004922000849220008492200084922000834
:100100004922000849220008492200084922000823
:10011000A197000851980008197B0008492200089F
:10012000017B00080D7B00084922000849220008D5
:1001300049220008492200084922000849220008F3
:1001400000000000000000000000000000000000AF
:1001500049220008492200084922000801990008A4
:10016000F91C010849220008492200084922000818
:1001700049220008492200084922000849220008B3
:100180004922000849220008B1990008619A000834
:100190004922000849220008492200084922000893
:1001A0004922000849220008492200084922000883
:1001B00089830008492200084922000849220008D2
:1001C0004922000849220008492200084922000863
:1001D0004922000849220008492200084922000853
:1001E0004922000849220008492200084922000843
:1001F0004922000849220008492200084922000833
:100200004922000849220008492200084922000822
:100210004922000849220008492200084922000812
:100220004922000849220008492200080000000075
:100230004922000849220008000000004922000865
:1002400049220008492200084922000849220008E2
:1002500049220008492200084922000849220008D2
:1002600049220008492200084922000849220008C2
:100270004922000849220008119B000800000000E4
:100280004922000849220008492200080000000015
:080290000000000049220008F3
:1002A0000348044B834202D0034B03B11847704705
:1002B0008002002480020024000000000548064956
:1002C0000B1AD90F01EBA301491002D0034B03B164
:1002D00018477047800200248002002400000000BC
:1002E00010B5064C237843B9FFF7DAFF044B13B17E
:1002F0000448AFF300800123237010BD8002002466
:10030000000000004837010808B5044B1BB1044940
:100310000448AFF30080BDE80840CFE700000000CC
:100320008402002448370108F8B510EE104AC4F3DF
:100330000A53B3F57D7FB7EEC07A1ED227EE077B56
:10034000B3F5667F6FD327EE074B27EE043B724B66
:1003500093ED0E5B93ED106B93ED0C0BA7EE050B7D
:1003600093ED145BA4EE060B93ED126BA7EE056BF9
:10037000A6EE030BB7EEC00BF8BD40F22E4293423F
:1003800054D8654991ED086B27EE066BBDEEC66B40
:1003900091ED0A5B16EE103A03F500031B1613F0FD
:1003A000020F06EE903A01F1700208BF0A46D80724
:1003B000B8EEE66BA6EE457B27EE076B1AD503F089
:1003C000030301EBC30393ED005B92ED164B27EEA5
:1003D000057B27EE065B92ED1A3BA5EE047B26EE2D
:1003E000055B92ED184BA6EE034BA4EE057BB7EE32
:1003F000C70BF8BD92ED0E4B26EE067B26EE073BB3
:1004000092ED0C0B92ED105BA6EE040B92ED144BEB
:10041000A7EE050B92ED127BA6EE047BA7EE030B75
:10042000B7EEC00BF8BDB7EE000AF8BDB3F5FF6F2D
:1004300050D23A4AC4F3836002EB8003C4F316013E
:1004400052F820501E6A186941F40001C4F3C253E7
:100450009940A1FB066705FB01F33A46E0FB012347
:10046000111C43F100550020101A05F0404163EBC8
:10047000010101F01FFDAD0F294B9FED257B05EB21
:10048000D47441EC160B14F0020FA3F1700208BFF4
:100490001346E90726EE077B27EE076B1ED504F00F
:1004A000030402EBC40494ED005B93ED164B27EEBE
:1004B000057B27EE065B93ED1A3BA5EE047B26EE4B
:1004C000055B93ED184BA6EE034BA4EE057BB7EE50
:1004D000C70BF8BDBDE8F84000F062B893ED0E3BE5
:1004E00026EE065B26EE052B93ED0C7B93ED104B71
:1004F000A6EE037B93ED143BA5EE047B93ED125B1C
:10050000A6EE035BA5EE027BB7EEC70BF8BD00BFFE
:10051000182D4454FB21193CC02A0108602A010807
:10052000302B010810B52DED028BB0EE408A044649
:1005300000F092F9B0EE480ABDEC028B046010BDE9
:1005400028B1F1EE407A27EE800A2220EAE7F0EEA9
:10055000407A27EE800A2220E4E700BF9FED010ADF
:10056000EEE700BF000000109FED010AE8E700BFC2
:100570000000201A9FED010AE2E700BF00000070B2
:100580009FED060AFFEE007AB7EE007A00284FF0E2
:10059000220047FE277A87EE800AC3E700000000AA
:1005A00070EE407AB4EE400A87EEA77AF1EE10FAC8
:1005B000B0EE470A01D62120B4E7704700000000E2
:1005C000F0B510EE104A220DC2F30A03B3F57D7F99
:1005D00083B0B7EEC06A1BD226EE065BB3F5667F2A
:1005E00070D326EE052B25EE021B774B93ED1A3BBD
:1005F00093ED187B93ED164BA5EE037BA2EE046BF7
:10060000B0EE460BA7EE010BB7EEC00B03B0F0BD8A
:1006100040F22E4293425FD86B4991ED087B26EE63
:10062000077BBDEEC77B91ED0A5B17EE103A03F531
:1006300000031B1613F0020F07EE903A01F170024F
:1006400008BF0A46D807B8EEE77BA7EE456BB0EEC9
:10065000460B26EE067B1BD403F0030301EBC3031A
:1006600093ED006B92ED165B20EE060B20EE076B10
:1006700092ED1A4BA6EE050B27EE066B92ED185B7A
:10068000A7EE045BA5EE060BB7EEC00B03B0F0BD02
:1006900092ED0E4B27EE076B27EE063B92ED0C0B0F
:1006A00092ED105BA7EE040B92ED144BA6EE050B3A
:1006B00092ED126BA7EE046BA6EE030BB7EEC00B28
:1006C00003B0F0BD12F4FF6FA0D1B7EEC55B00EE32
:1006D000104A8DED015A99E7B3F5FF6F50D23B4AAE
:1006E000C4F3836002EB8003C4F3160152F8205078
:1006F0001E6A186941F40001C4F3C2539940A1FB7A
:10070000066705FB01F33A46E0FB0123111C43F1A8
:1007100000550020101A05F0404163EB010101F083
:10072000C9FBAD0F2A4B9FED267B05EBD47441EC42
:10073000160B14F0020FA3F1700208BF1346E9076D
:1007400026EE077B27EE076B1FD404F0030402EBB1
:10075000C40494ED005B93ED164B27EE057B27EE6A
:10076000065B93ED1A3BA5EE047B26EE055B93ED4D
:10077000184BA6EE034BA4EE057BB7EEC70B45E77F
:1007800003B0BDE8F040FFF70BBF93ED0E3B26EE44
:10079000065B26EE052B93ED0C7B93ED104BA6EE3E
:1007A000037B93ED143BA5EE047B93ED125BA6EE69
:1007B000035BA5EE027BB7EEC70B27E7AFF3008024
:1007C000182D4454FB21193CC02A0108602A010855
:1007D000302B010808B52DED028BB0EE408A00F0F9
:1007E00021F80E4B93F9003001330BD0B4EE488A58
:1007F000F1EE10FA06D6DFED0A8AB4EEE88AF1EEE1
:1008000010FA02D4BDEC028B08BD00F025F888EE8A
:10081000A80ABDEC028B2123036008BD040000245C
:1008200000000000B1EEC00A704700BF08B5062006
:1008300000F042FB012001F005FD00BF10B5054CA2
:1008400034B113460A460146022000F02BFD10BDCC
:10085000204610BDA5120008014B1868704700BF64
:100860000800002470B50D4E0D4D761BB61006D055
:100870000024013455F8043B9847A642F9D1094EAB
:10088000094D761B12F054FFB61006D00024013437
:1008900055F8043B9847A642F9D170BD503701087E
:1008A000503701086C37010850370108024B0146E8
:1008B000186800F005BA00BF08000024024B01468A
:1008C000186800F0A7B900BF08000024000000006D
:1008D00001F0FF01102A2BDB10F0070F08D010F8F1
:1008E000013B013A8B422DD010F0070F42B3F6D1F5
:1008F000F0B441EA012141EA014122F007047FF00E
:1009000000070023F0E80256083C85EA010586EA64
:10091000010685FA47F5A3FA87F586FA47F6A5FAA0
:1009200087F68EB9EED1F0BC01F0FF0102F00702AC
:1009300032B110F8013B013A83EA010313B1F8D157
:100940000020704701387047002D06BF3546033838
:10095000073815F0010F07D1013015F4807F02BF71
:10096000013015F4C03F0130F0BC0138704700BFC2
:10097000844641EA000313F003036DD1403A41D3AA
:1009800051F8043B40F8043B51F8043B40F8043B69
:1009900051F8043B40F8043B51F8043B40F8043B59
:1009A00051F8043B40F8043B51F8043B40F8043B49
:1009B00051F8043B40F8043B51F8043B40F8043B39
:1009C00051F8043B40F8043B51F8043B40F8043B29
:1009D00051F8043B40F8043B51F8043B40F8043B19
:1009E00051F8043B40F8043B51F8043B40F8043B09
:1009F00051F8043B40F8043B51F8043B40F8043BF9
:100A0000403ABDD2303211D351F8043B40F8043B98
:100A100051F8043B40F8043B51F8043B40F8043BD8
:100A200051F8043B40F8043B103AEDD20C3205D3A8
:100A300051F8043B40F8043B043AF9D2043208D0A0
:100A4000D2071CBF11F8013B00F8013B01D30B8812
:100A500003806046704700BF082A13D38B078DD0F0
:100A600010F003038AD0C3F10403D21ADB071CBFC2
:100A700011F8013B00F8013B80D331F8023B20F82C
:100A8000023B7BE7043AD9D3013A11F8013B00F865
:100A9000013BF9D20B7803704B7843708B788370ED
:100AA000604670478842F0B40DD98B1883420AD94A
:100AB000841832B1224613F8014D02F8014D9942D3
:100AC000F9D1F0BC70470F2A0ED80346541E002AF5
:100AD000F7D001340C44013B11F8012B03F8012F2E
:100AE000A142F9D1F0BC704740EA01039B073BD11A
:100AF000A2F110073F0901F1200606EB071601F1EC
:100B0000100300F1100453F8105C44F8105C53F823
:100B10000C5C44F80C5C53F8085C44F8085C53F82F
:100B2000045C44F8045C1033B34204F11004EAD1CD
:100B30007B1C1B0112F00C0F194402F00F0503443B
:100B400015D0043DAD0803EB850C1C1F0E4656F86E
:100B5000047B44F8047F6445F9D10135AD002B4492
:100B6000294402F00302B1E7541E0346B1E72A46C6
:100B7000ACE700BFF0B4860746D0541E002A3CD034
:100B8000CAB2034602E014F1FF3436D303F8012B56
:100B90009D07F8D1032C29D9CDB245EA05250F2CA4
:100BA00045EA054533D9A4F11006360903F12007BB
:100BB00007EB061703F1100242E9045542E902551A
:100BC0001032BA42F8D1721C14F00C0F03EB02126F
:100BD00004F00F0613D0331F23F003030433134430
:100BE00042F8045B9342FBD106F003042CB1C9B276
:100BF0001C4403F8011B9C42FBD1F0BC70473446F7
:100C00001346002CF3D1F8E714460346C2E71A4610
:100C10002646E0E700293CD038B551F8043C0C1FCB
:100C2000002BB8BFE418054600F08CFB234B1A6874
:100C30002AB1A2420DD921686018824223D0626095
:100C400028461C60BDE8384000F07EBBA34203D8B4
:100C50001A465368002BF9D111685018A04219D0D8
:100C600024D821686018834206D063605460284607
:100C7000BDE8384000F068BBD3E90003014463607D
:100C800021605460F3E7D2E9000201446260216010
:100C9000D6E7704720680144501883421160E6D1BE
:100CA000D3E90003014453601160E0E70C232B609B
:100CB0002846BDE8384000F047BB00BF9C02002436
:100CC000F8B5CD1C25F0030508350C2D38BF0C25D3
:100CD000002D064633DBA94231D82A4F00F032FB03
:100CE0003A6852B113685B1B04D43FE023685B1B76
:100CF00029D522465468002CF8D1796800293BD0C8
:100D00002946304600F040F8431C28D0C41C24F08B
:100D10000304A04205D0211A304600F035F8013016
:100D20001DD02560304600F00FFB04F10B0020F0D1
:100D30000700231DC21A01D01B1AA350F8BD0C22B4
:100D400032600020F8BD0B2B05D8A242636811D099
:100D50005360E7E7144623601C442560E2E70C2358
:100D60003046336000F0F0FA0020F8BD0B2BF1D8CC
:100D7000536814463B60D5E7304600F005F87860CC
:100D8000BEE700BF9C02002438B5074C002305468F
:100D90000846236001F048FA431C00D038BD2368A0
:100DA000002BFBD02B6038BD1CC1002410B5802166
:100DB0000446FFF785FF606440B1031F00227C30CA
:100DC00043F8042F8342FBD1002010BD4FF0FF30C9
:100DD00010BD00BF436C0BB100207047E6E700BFB9
:100DE0001F2970B5054608D8436C16460C464BB112
:100DF00053F8240043F8246070BD162202604FF0BF
:100E0000FF3070BDFFF7D2FF08B96B6CF0E74FF011
:100E1000FF3070BD1F2938B521D8426C05460C46FD
:100E20006AB152F8213053B1012B16D0591C10D0A1
:100E30000025204642F824509847284638BD2846C9
:100E400000F070F8224601462846BDE8384000F020
:100E500055B816230360012038BD002038BD162385
:100E600003604FF0FF3038BD1F2921D838B5436CDF
:100E700005460C4683B153F8242003EB84034AB1A2
:100E8000511C10D0012A0CD0002520461D6090472F
:100E9000284638BD012038BDFFF788FF28B96B6CA4
:100EA000E9E7032038BD022038BD4FF0FF3038BDE0
:100EB0004FF0FF30704700BF024B01461868FFF744
:100EC000A9BF00BF08000024024B0A46014618686B
:100ED000FFF786BF08000024034B1868436C0BB172
:100EE0000020704762E700BF08000024024B014663
:100EF0001868FFF7B9BF00BF0800002438B50B46DB
:100F0000074C0546114618460023236001F084F97A
:100F1000431C00D038BD2368002BFBD02B6038BDAC
:100F20001CC1002401F070B90000000000000000A6
:100F300000000000000000000000000000000000B1
:100F4000A2EB0300704700BF02780B78012A28BF8C
:100F50009A42F5D16DE9044540EA0104CDE9026702
:100F60006FF0000C4FEA447212B380EA010414F0EF
:100F7000070F6AD100F0070420F0070004F0030512
:100F800021F007014FEAC505F0E8042314F0040F2F
:100F9000F1E804670CFA05F462EA040266EA040662
:100FA0000AD063EA0403624667EA0407664603E080
:100FB000F0E80423F1E8046782FA4CF582EA0604BB
:100FC000A4FA8CF46CBB83FA4CF583EA0705A5FA06
:100FD0008CF595B950E9022351E9026782FA4CF584
:100FE00082EA0604A4FA8CF483FA4CF583EA070536
:100FF000A5FA8CF52543DBD09CB92DBAB5FA85F45A
:1010000024F0070427FA04F1DDE9026723FA04F368
:1010100003F0FF0001F0FF01FDE80445A0EB010033
:10102000704724BAB4FA84F424F0070426FA04F1D1
:10103000DDE9026722FA04F202F0FF0001F0FF018D
:10104000FDE80445A0EB0100704714F0030F3CD10C
:1010500010F0030428D150F8082B51F8083B82FA0D
:101060004CF582EA0305A5FA8CF55DB950F8042C1D
:1010700051F8043C82FA4CF582EA0305A5FA8CF596
:10108000002DE8D02DBAB5FA85F424F0070423FA30
:1010900004F122FA04F202F0FF0001F0FF01FDE882
:1010A0000445A0EB010070474FEAC40420F00300A0
:1010B00050F8082B21F0030151F8083B0CFA04F416
:1010C00062EA040263EA0403C9E710F003041AD0D9
:1010D000A1EB040120F00300E40750F8042B06D034
:1010E0000FD28B785FFAA2F4E41A06D12BB1CB7839
:1010F0005FFAB2F4E41A00D11BB920465DF8104B38
:10110000704701F1040150F8042BCC0721F00301D2
:1011100051F8043B48D824D222F07F4482FA4CF59F
:1011200094EA1325A5FA8CF50AD165B951F8043B68
:1011300084EA0204B4EB036F0ED150F8042BEBE702
:101140004FEA132355E035F07F454DD10878FDE88F
:101150000445C0F1000070474FEA126203F0FF033C
:1011600047E002EA1C4482FA4CF594EA1345A5FADA
:101170008CF50AD165B951F8043B84EA0204B4EB5A
:10118000034F0CD150F8042BEBE74FEA134330E048
:1011900015EA1C4528D10B884FEA124229E04FEA94
:1011A000124203EA1C4324E002F0FF0482FA4CF5E9
:1011B00094EA1365A5FA8CF50AD165B951F8043B98
:1011C00084EA0204B4EB032F09D150F8042BEBE7B7
:1011D0004FEA13630DE015F0FF0F05D10B684FEADE
:1011E000122223F07F4304E04FF00000FDE80445A5
:1011F000704712BA1BBA82FA4CF482EA0304A4FACA
:101200008CF5B5FA85F402FA04F203FA04F34FEA16
:101210001260FDE80445A0EB1360704770B5141E22
:101220009AB005462BDB1A464FF4027300910491E5
:10123000ADF80C3013D0013C4FF6FF761E9B0294A4
:1012400069460594ADF80E6000F05CF9421C01DAC5
:101250008B232B60009B00221A701AB070BD1E9B5E
:1012600002944FF6FF7669460594ADF80E6000F0E3
:1012700049F9431C01DA8B232B601AB070BD8B2314
:1012800003604FF0FF30F8E710B5054C82B00093D3
:1012900013460A4601462068FFF7C0FF02B010BDA2
:1012A000080000242DE9F843224C25680DB36C6832
:1012B0001F2C3BDC984691460F46064688B1D5F870
:1012C000880028B3D0F8003140F824900122A240D1
:1012D00000EB84011343022EC0F80031C1F8808076
:1012E00010D0A31C01346C6045F823700020BDE8C9
:1012F000F883114E114D2560002ED8D03468C5F802
:101300008840D4E7D0F804311A43C0F80421E8E754
:101310000B4B5BB14FF48470FFF7C8FA30B1002378
:101320006C68C0E94033C5F88800CDE74FF0FF3066
:10133000DDE700BF38040024A02B0108AC03002423
:10134000AD080008704700BF704700BF2DE9F047A7
:101350008E681D46AE420C460B68174636D880464E
:10136000888910F4906F0ED1354618462A463946C2
:10137000FFF798FBA2682368961B2B44A6602360A6
:101380000020BDE8F087D1E9041606EB4606A3EB82
:10139000010906EBD6766B1C76104B44B3423246FD
:1013A00084BF1E463246430512D511464046FFF71C
:1013B00087FC824600B34A462169FFF7D9FAA38920
:1013C00023F4906343F08003A38106E02E46CCE72C
:1013D000404600F0B3FB824650B1A6EB09020AEB8F
:1013E00009036661C4F810A02360A2602E46BCE722
:1013F00021694046FFF70EFC0C23C8F80030A38992
:1014000043F04003A3814FF0FF30BAE72DE9F04FDE
:10141000936883B09046002B6DD017688D68824624
:101420000C460868083743E0A38913F4906F2ED068
:10143000D4E9041505EB4505A0EB010B05EBD575CB
:101440000BEB06006D100130A8422A4684BF05460A
:101450002A465B0536D511465046FFF731FC002879
:101460003AD05A4621690190FFF782FAA289019B7E
:1014700022F4906242F08002A281A5EB0B0203EB02
:101480000B00656123612060A2603546B3465A4671
:101490004946FFF707FBD8F80830A2682068551BBB
:1014A00058449E1BA5602060C8F808601EB308372A
:1014B00057E90296AB46002EF9D0AE42B4D235467B
:1014C000B346E4E7504600F039FB03460028D4D188
:1014D00021695046FFF79EFB0C23CAF80030A38910
:1014E000002243F040034FF0FF30A381C8E90122FE
:1014F00003B0BDE8F08F0020C8F8040003B0BDE8D9
:10150000F08F00BF2DE9F04F90468A899FB01406F6
:101510008B46029003D50A69002A00F00B810593DF
:1015200030238DF8323098F800308E4E0021202282
:101530000B918DF831200127002B00F08480252BA2
:1015400000F0F680454603E0252B00F08680254616
:101550006B786C1C002BF7D1B4EB080A73D04246B1
:10156000534659460298FFF7F1FE01306BD00B9BB2
:101570006A7853440B93002A65D000234FF0FF3262
:1015800001340693CDE908338DF85B301C93079244
:1015900005E0069A07FA03F313432C460693254603
:1015A000052215F8011B3046FFF792F9AA46831B66
:1015B0000028EED1069BD90644BF20228DF85B207F
:1015C00021781A0744BF2B228DF85B202A2948D1A5
:1015D000059A11680432002905927EDB0991617831
:1015E000A51C2E2956D0604C03222046FFF770F927
:1015F000002868D0001B069B402404FA00F0034337
:10160000069305F10108297858488DF83010062214
:10161000FFF75EF9002866D0554B002B56D005AB7E
:1016200000935A46534B029806A9AFF300808146B7
:10163000B9F1FF3F07D00B9B4B440B9398F8003058
:10164000002B7FF47CAFBBF80C305B0654BF0B98CB
:101650004FF0FF301FB0BDE8F08FB4EB080A8CD01C
:101660007DE7A1F13002092A88BFA246B9D8099BBB
:1016700001E02C460135297803EB830302EB430399
:10168000A1F13002092AAA46F3D92E2904F1020554
:101690000993A8D19AF801102A292ED1059B9AF80E
:1016A00002101A6807920433002A05930AF1030511
:1016B0000AF1020337DB2C4C032220469A46FFF73F
:1016C00007F9002896D1A84655469CE7059B0733A5
:1016D00023F0070308330593ADE7494243F00203C3
:1016E000099106937BE705AB00935A46214B02987C
:1016F00006A900F0D7F881469AE7A1F1300200234D
:10170000092A079301D923E05546697803EB83033F
:1017100002EB4303A1F13002092A05F1010AF3D9D2
:10172000023507935FE74FF0FF329A4607925AE778
:10173000444622E740210393FFF7C2FA039BCBF80C
:101740000000CBF8100030B14022CBF81420E6E6C0
:10175000AA46013547E7029A0C2313604FF0FF3089
:1017600078E700BFF4360108FC36010800370108AD
:10177000000000004D1300082DE9F0470C4691468B
:101780000A698968DDF820808A42B8BF0A46C9F82C
:10179000002094F8431006461F4611B10132C9F8E3
:1017A0000020236899065CD5D9F800200232C9F8D8
:1017B0000020236813F0060F19461DD1E1688A1A2C
:1017C000002AD8BF194617DD04F1190A002505E0E3
:1017D000E368D9F800209B1AAB420CDD0123524686
:1017E00039463046C047013005F10105F0D14FF0D0
:1017F000FF30BDE8F087216894F84330003318BF0C
:1018000001238A060AD5E1185A1C302081F84300CA
:10181000224494F8451082F84310023304F1430245
:1018200039463046C0470130E1D02368A2682169BB
:1018300003F00603042B1DD08A4226DD4FF0000979
:10184000521A91441A34002501E04D451DDA012356
:10185000224639463046C047013005F10105F4D132
:10186000C5E713F0060F13D094F84330003318BFC8
:101870000123D3E7D9F80000E3688A42A3EB000311
:1018800023EAE379DCDC002BDCDC0020BDE8F08718
:10189000E168D9F800208A1A002AD8BF194693DCDB
:1018A000AAE700BF2DE9F0430C46097E85B06E29FA
:1018B000064617460C98984604F1430E6DD039D968
:1018C000732900F0F68044D9752900F00481782945
:1018D00040F0118178232268DFF858C284F845303F
:1018E0000168150651F8043B016040F1A180D10761
:1018F00044BF42F020022260002B00F093801022AF
:10190000002184F843106068A0600028C0F2C880FD
:10191000216821F004012160002B40F0A380002801
:1019200040F0C0807546082A00F0AC80AEEB05039D
:10193000236141E0632900F0E5801AD8002938D0FE
:10194000582940F0D88084F845102268DFF8E8C1B3
:10195000C6E76F2900F0BF80702940F0CC80226874
:10196000DFF8D0C142F020027823226084F84530AD
:10197000B6E7642902D0692940F0BD802268036877
:10198000110603F1040557D5196805600B460029B7
:1019900059DBDFF8A4C10A22B5E703682268616950
:1019A0001D1D056015061B6802D4500600F1BD80A0
:1019B0001960002375462361CDF800803B4603AAD9
:1019C00021463046FFF7D8FE013020D02A46236951
:1019D00039463046C047013019D022680398E36881
:1019E000920719D51A1A002A16DD04F119090025E3
:1019F00004E0E36803981A1AAA420DDD01234A465F
:101A000039463046C047013005F10105F1D14FF0AC
:101A1000FF3005B0BDE8F0839842B8BF184605B066
:101A2000BDE8F083226822F020022260102267E7DE
:101A3000500648BF9BB25AE75106A5D5B3F900300E
:101A400005601946A3E76168A1602D200029C3F154
:101A5000000384F8430002DB22F004022260DFF876
:101A6000D8C00A22754600E00B46B3FBF2F102FB38
:101A7000113093421CF8000005F8010DF4D2082A39
:101A80007FF454AF2368DB077FF550AF62682369AA
:101A90009A423FF74BAF302305F8013C013D45E743
:101AA000002BDFD19CF8003084F8423004F142056D
:101AB00039E703686268191D01601D680021284626
:101AC000FEF706FF002832D0401B60602061002333
:101AD00084F8433070E72268036812F0800F03F146
:101AE00004051AD01B6805606F290CBF08220A2262
:101AF000DFF844C004E7012384F84210236104F1B5
:101B00004205E4E703681A68191D0123016004F126
:101B1000420584F842202361D9E712F0400F0DBF3F
:101B20001B6805601B880560DEE7198041E7606877
:101B3000CCE700BF1C3701080837010809B3F8B526
:101B40001446CAB106460D4600F01EF8A04202D364
:101B50002F463846F8BD21463046FFF7B1F8074614
:101B60000028F6D022462946FEF702FF30462946D5
:101B7000FFF750F83846F8BD2746FFF74BF83846D0
:101B8000F8BD1146FFF79CB851F8043C181F002B14
:101B9000BCBF0B58C018704781F0004102E000BF85
:101BA00083F0004330B54FEA41044FEA430594EA1D
:101BB000050F08BF90EA020F1FBF54EA000C55EA58
:101BC000020C7FEA645C7FEA655C00F0E2804FEA29
:101BD0005454D4EB5555B8BF6D420CDD2C4480EA0B
:101BE000020281EA030382EA000083EA010180EA3B
:101BF000020281EA0303362D88BF30BD11F0004F89
:101C00004FEA01314FF4801C4CEA113102D04042BE
:101C100061EB410113F0004F4FEA03334CEA1333F9
:101C200002D0524263EB430394EA050F00F0A78011
:101C3000A4F10104D5F1200E0DDB02FA0EFC22FA0C
:101C400005F2801841F1000103FA0EF2801843FA00
:101C500005F359410EE0A5F120050EF1200E012AF1
:101C600003FA0EFC28BF4CF0020C43FA05F3C0182F
:101C700051EBE37101F0004507D54FF0000EDCF1A8
:101C8000000C7EEB00006EEB0101B1F5801F1BD351
:101C9000B1F5001F0CD349085FEA30004FEA3C0C55
:101CA00004F101044FEA445212F5800F80F09A804B
:101CB000BCF1004F08BF5FEA500C50F1000041EB4F
:101CC000045141EA050130BD5FEA4C0C404141EB53
:101CD0000101013C28BFB1F5801FE9D291F0000F4E
:101CE00004BF01460020B1FA81F308BF2033A3F1FD
:101CF0000B03B3F120020CDA0C3208DD02F1140CF4
:101D0000C2F10C0201FA0CF021FA02F10CE002F12E
:101D10001402D8BFC2F1200C01FA02F120FA0CFC27
:101D2000DCBF41EA0C019040E41AA2BF01EB045170
:101D3000294330BD6FEA04041F3C1CDA0C340EDC6E
:101D400004F11404C4F1200220FA04F001FA02F3B1
:101D500040EA030021FA04F345EA030130BDC4F16F
:101D60000C04C4F1200220FA02F001FA04F340EA64
:101D70000300294630BD21FA04F0294630BD94F015
:101D8000000F83F4801306BF81F480110134013DFC
:101D90004EE77FEA645C18BF7FEA655C29D094EA6D
:101DA000050F08BF90EA020F05D054EA000C04BFEB
:101DB0001946104630BD91EA030F1EBF00210020D6
:101DC00030BD5FEA545C05D14000494128BF41F075
:101DD000004130BD14F580043CBF01F5801130BDD9
:101DE00001F0004545F0FE4141F470014FF0000064
:101DF00030BD7FEA645C1ABF194610467FEA655C15
:101E00001CBF0B46024650EA013406BF52EA0335B6
:101E100091EA030F41F4002130BD00BF90F0000FA4
:101E200004BF0021704730B54FF4806404F13204E0
:101E30004FF000054FF0000150E700BF90F0000F99
:101E400004BF0021704730B54FF4806404F13204C0
:101E500010F0004548BF40424FF000013EE700BF90
:101E600042004FEAE2014FEA31014FEA02701FBF20
:101E700012F07F4393F07F4F81F06051704732F052
:101E80007F4208BF704793F07F4F04BF41F40021A9
:101E9000704730B54FF4607401F0004521F0004107
:101EA0001CE700BF50EA010208BF704730B54FF091
:101EB00000050AE050EA010208BF704730B511F092
:101EC000004502D5404261EB41014FF4806404F1CA
:101ED00032045FEA915C3FF4D8AE4FF003025FEA50
:101EE000DC0C18BF03325FEADC0C18BF033202EBD4
:101EF000DC02C2F1200300FA03FC20FA02F001FA2E
:101F000003FE40EA0E0021FA02F11444BDE600BFD0
:101F100053B94AB9002908BF00281CBF4FF0FF3150
:101F20004FF0FF3000F06EB9ADF1080C6DE904CE52
:101F300000F006F8DDF804E0DDE9022304B07047A4
:101F40002DE9F047089D04468C46002B40F0838025
:101F50008A42174647D9B2FA82F242B1C2F1200052
:101F600024FA00F09140974040EA010C94404FEA77
:101F70001748230CBCFBF8F61FFA87FE08FB16C1B6
:101F800043EA014306FB0EF1994209D9FB1806F119
:101F9000FF3080F01981994240F21681023E3B44A5
:101FA0005B1AA4B2B3FBF8F008FB103344EA034415
:101FB00000FB0EFEA64509D93C1900F1FF3380F065
:101FC0000581A64540F2028102383C4440EA0640C1
:101FD000A4EB0E0400261DB1D4400023C5E9004344
:101FE0003146BDE8F08702B9FFDEB2FA82F2002A7C
:101FF00050D1CB1B4FEA174E1FFA87F80126B3FBCF
:10200000FEFC210C0EFB1C3341EA034108FB0CF3E0
:102010008B4207D979180CF1FF3002D28B4200F2C3
:10202000E9808446C91AA3B2B1FBFEF00EFB101181
:1020300043EA014408FB00F8A04507D93C1900F128
:10204000FF3302D2A04500F2D9801846A4EB080461
:1020500040EA0C40BFE78B4209D9002D00F0B18067
:102060000026C5E9000130463146BDE8F087B3FAE5
:1020700083F6002E4AD18B4202D3824200F2B8800E
:10208000841A61EB030101208C46002DA8D0C5E91C
:10209000004CA5E7C2F1200320FA03F6974001FAAD
:1020A00002F04FEA174ED9403043030CB1FBFEF665
:1020B0001FFA87F80EFB161143EA014306FB08F1ED
:1020C000994204FA02F409D9FB1806F1FF3C80F0AA
:1020D0008D80994240F28A80023E3B445B1A81B275
:1020E000B3FBFEF00EFB103341EA034100FB08F3A3
:1020F0008B4207D9791800F1FF3C73D28B4271D91A
:1021000002383944CB1A40EA064678E7C6F1200C7B
:1021100003FA06F422FA0CF31C4320FA0CF701FA36
:1021200006F34FEA144E21FA0CF11F433B0CB1FBAE
:10213000FEF91FFA84F80EFB191143EA014109FB6D
:1021400008FA8A4502FA06F200FA06F308D961187D
:1021500009F1FF3048D28A4546D9A9F10209214444
:10216000A1EB0A01BFB2B1FBFEF00EFB101147EA72
:10217000014700FB08F8B84507D9E71900F1FF311E
:102180002ED2B8452CD90238274440EA0940A7EBA3
:102190000807A0FB02894F45C64649461AD317D007
:1021A0005DB1B3EB0E0267EB010707FA0CFCF240DE
:1021B0004CEA0202F740C5E9002700263146BDE897
:1021C000F0872E4628460BE70646E9E61846FDE668
:1021D0004345E5D2B8EB020E69EB04010138DFE7B5
:1021E0000846D2E760468DE78146B9E7664675E75F
:1021F00030464AE7ACF1020C394413E702383C445C
:1022000024E700BF704700BF024B58221A604FF00E
:10221000FF3070471CC10024024B58221A604FF057
:10222000FF3070471CC10024044A05491368002B85
:1022300008BF0B4618441060184670473C04002441
:1022400020C10024FEE700BFFEE700BF0D4B0E4A91
:10225000934206D00D4951F8040B43F8040B934206
:10226000F9D10B4B0B4A934204D0002143F8041BD5
:102270009342FBD107F04CFFFEF7F4FA03F0FEF8AF
:10228000FEE700BF00000024800200247037010830
:102290008002002420C10024704700BF704700BFA7
:1022A000494200F1130300F21342C9B203F8011FBF
:1022B0009342FBD1704700BF704700BF402070477A
:1022C0008020704710B50446006808B110F0B0F9DE
:1022D000204610BD10B5044640F2144110F0AAF992
:1022E000204610BD2DE9F041B02582B000F108076D
:1022F00000F1100600F11404002130468DF807505B
:102300000135884605F0B4FD642301220DF1070173
:10231000384606F0BBFD414630468DF8078005F093
:10232000A7FD012264230DF107013846EDB206F046
:10233000ADFD1023414630468DF8073005F098FD7D
:10234000642301220DF10701384606F09FFD0121AB
:10235000304605F08DFD8022214664233846144422
:1023600006F094FDB82DC7D102B0BDE8F08100BFE2
:102370002DE9F04F85B0A1F12004009104A99DF84A
:10238000388001E90C00E3B25E2B00F29480036810
:1023900081465C4ADB689DF8086093429DF80950CD
:1023A00040F093808020B9F804303344834200F336
:1023B0008280D9F80030544A9B68934240F087806D
:1023C0004020B9F806104B190191834273DC002DAF
:1023D00000F0888005FB04F4039A6FF00043B9F81D
:1023E00004A02544A2F1020B23440BEB450B0D4640
:1023F00002EB430E3EF8024FA6B305F00703012798
:10240000E80841469F4000220AEBC0137FB24B44CC
:1024100009EBC0106FEA070CB8460F460CE07F29A5
:1024200006D83F2D04D8197DA7B148EA01011975D6
:1024300001320133964214D004FA02F111F4004F34
:10244000A3EB0001EBD17F29F2D83F2DF0D8197D05
:10245000002FEAD001320CEA010101339642D9740F
:10246000EAD1B846F34505F10105C3D1D9F80030EA
:102470000AEB06042349DA68A4B28A422DD18020EF
:1024800084421CD29B68204AA9F80440934221D17F
:102490004020019B834207D3D9F800301A4A9B6839
:1024A000934229D13F230193DDE90003A9F80630C7
:1024B00005B0BDE8F08F002005B0BDE8F08FDA6808
:1024C00010498A4211D17F24DCE798476BE74846E0
:1024D000984776E748469847DBE748469047D9F85B
:1024E0000030CDE7B9F804A0C0E74846904701386E
:1024F000D9F8003084B2C5E748469847013883B21E
:102500000193D1E7C1220008BD2200087F2921D80C
:102510003F2A1FD810B473B9D308012402F0070270
:1025200001EBC3139440C1180A7D22EA04020A7524
:102530005DF8044B7047D408012302F0070201EB59
:10254000C41403FA02F201190B7D1A430A755DF8EF
:10255000044B7047704700BF2DE9F04F83B05E1AFF
:102560000C9F9DF83480A7EB020EBEF1000FB8BFA0
:10257000CEF1000E8B428CBF4FF001094FF0FF39B6
:10258000002EB8BF76429742A6EB0E044FD84FF00C
:10259000FF357F2B019514D83F2F12D8FD0807F087
:1025A000070C4FF0010A03EBC515B8F1000F45D039
:1025B00005440AFA0CFC95F814A04CEA0A0C85F8BC
:1025C00014C0974201D18B4229D0CEF1000C7F2953
:1025D00014D83F2A12D8D5084FF0010B02F0070A91
:1025E00001EBC5150BFA0AFA054495F814B0B8F1D9
:1025F000000F17D04AEA0B0A85F814A0BCEB440F71
:102600004FEA440502DAA4EB0E044944AE4202DD6F
:10261000019D34442A449942D9D19742D7D103B07D
:10262000BDE8F08F2BEA0A0A85F814A0E6E7012539
:102630007F2B0195C9D83F2FB0D9C6E705440AFAC8
:102640000CFA974295F814C02CEA0A0C85F814C0CD
:10265000B9D0BAE7000000002DE9F04F2DED068B50
:1026600085B01C460F4690469DF858300390029363
:10267000159B002BC0F2F281149A134406EE103A17
:10268000DDED147AB8EEC66B9FEDD54BB8EEE77B67
:102690009FEDD55B27EE047B26EE046B87EE050BE2
:1026A00086EE05ABF7EEC08BB0EE680AFDF73CFE98
:1026B000B7EECAAB07EE904AB0EE408AB0EE680AB9
:1026C000F8EE679AFDF77CFFF0EE408AB0EE4A0A1A
:1026D000FDF72AFEB0EE409AB0EE4A0AFDF770FF11
:1026E00068EEE98A20EE690A29EE888A29EE899A3D
:1026F00070EE687AF0EE006A39EE487A67EEA77AF3
:10270000E7EE077AF4EEE67AF1EE10FA06D5159BBD
:10271000B42B40F3EE804FF0010E01E04FF0000EBD
:102720000126C4F101033A466042B3400024314619
:10273000374694460196BEF1000F6AD1424206EE3A
:10274000904A614207EE102AF8EEE66A07EE901A08
:10275000159AB8EEC77A66EE884AB42A26EE896AD8
:1027600006EE900A27EE284AF8EEE77AF8EEE66AD7
:1027700074EEC43A67EE885A26EEA85A67EE897A54
:1027800027EE007A66EE806AF5EEC03A40F3DC8010
:10279000F1EE10FA00F14D8176EE473A74EEC54A3B
:1027A000F5EEC03AF1EE10FAF5EEC04ACCBF0122C8
:1027B0000022F1EE10FA019200F1458136EE666AD0
:1027C00035EEC55AB5EEC06AF1EE10FAB5EEC05A54
:1027D000CCBF01210021F1EE10FA00F13D8177EE2E
:1027E000E66AF5EEC06AF1EE10FACCBF01260026CB
:1027F00075EEC45AF5EEC05AF1EE10FA00F11781E9
:1028000077EEC77AF5EEC07AF1EE10FACCBF012769
:102810000027019AF2B1ACEB000904EB0805B9F10D
:102820007F0F17D83F2D15D84FEAD50A4FF0010B6F
:1028300005F00705029A09EBCA190BFA05F5002AFB
:1028400000F0C280039A914499F814B045EA0B0550
:1028500089F81450F1B100EB0C0904EB0805B9F14B
:102860007F0F17D83F2D15D84FEAD50A4FF0010B2F
:1028700005F00705029A09EBCA190BFA05F5002ABB
:1028800000F08E80039A914499F814B045EA0B0544
:1028900089F81450EEB100EB0C09A8EB0405B9F16E
:1028A0007F0F16D83F2D14D84FEAD50A4FF0010BF1
:1028B00005F00705029A09EBCA190BFA05F5002A7B
:1028C00065D0039A914499F814B045EA0B0589F84C
:1028D0001450D7B99C4216DB013403EB4405C442C3
:1028E00005F101054FD0984208DB2B4600287FF701
:1028F00022AF05B0BDEC068BBDE8F08F013005EBD3
:1029000040030133F2E71D46EDE7ACEB0009A8EB0D
:102910000405B9F17F0FDDD83F2DDBD84FEAD50A8A
:102920004FF0010B05F00705029A09EBCA190BFAE3
:1029300005F5002A3FD0039A914499F814B045EA6E
:102940000B0589F81450C5E7F1EE10FA64D4CDF800
:1029500004E074EEC54AF5EEC04AF1EE10FA51D427
:10296000002135EEC55AB5EEC05AF1EE10FA3FD44B
:10297000002675EEC45AF5EEC05AF1EE10FA3FF596
:102980003FAF002745E79842B8DB0023ABE7039A47
:10299000914499F814B02BEA050589F8145098E78A
:1029A000039A914499F814B02BEA050589F814505C
:1029B000002E8ED06FE7039A914499F814B02BEA59
:1029C000050589F8145085E7039A914499F814B0E5
:1029D0002BEA050589F8145000293FF45BAF3AE76C
:1029E0007A008BFCFA21094000000000008066405C
:1029F00077EEE66AF5EEC06AF1EE10FACCBF01267A
:102A00000026B6E736EE666AB5EEC06AF1EE10FA59
:102A1000CCBF01210021A4E776EE473AF5EEC03A9B
:102A2000F1EE10FACCBF01220022019291E70127BA
:102A3000EFE674EEC54A01220192F5EEC04AF1EECE
:102A400010FA7FF5BBAE35EEC55A0121B5EEC05A7E
:102A5000F1EE10FA7FF5C3AE0126C9E6DDE91423D5
:102A6000134406EE102A1493159B5B42159307E658
:102A70002DE9F04F89B08B4691F800909DF84840C1
:102A800008A9049401E90C00B9F1000F00F0B78027
:102A90009DF8193080469DF818A04D460193079B7C
:102AA0000593A5F12004E3B25E2B00F2AC80D8F8C8
:102AB0000030654ADB68934240F0A7808020B8F878
:102AC00004305344834200F39E80D8F800305F4ABC
:102AD0009B68934240F09C804020B8F80610019A11
:102AE00000918B18834200F38E801046002A00F07C
:102AF0009A8013466FF00046B8F8047003FB04F3A5
:102B0000059CBE46CDF80CB01E44A21E0344574699
:102B100004EB4606DDF8109002EB430302959B465A
:102B200036F802AFA7B3012401F00702C8080EF17E
:102B3000140304FA02F2744603EBC013002052B2ED
:102B400043446FEA020C0EE07F2C07D83F2905D8DA
:102B50001D78B9F1000F12D015431D7001300133FB
:102B60000134B84214D00AFA00F52D04ECD47F2CBD
:102B7000F4D83F29F2D81D78B9F1000FECD001301C
:102B80000CEA050501330134B84203F8015CEAD1CF
:102B90005E4501F10101C3D1BA46029D7746DDF8D9
:102BA0000CB0D8F8002057442749D368BFB28B42F5
:102BB00034D18020874204D3D36823498B423BD150
:102BC0007F279368214AA8F80470934223D14020BC
:102BD000009B834207D3D8F800301C4A9B6893427D
:102BE00024D13F230093009BA8F806309BF80000F7
:102BF000A84205D11BF8015F002D7FF452AF0020E1
:102C000009B0BDE8F08F0025F0E74046984756E749
:102C10004046984761E740469847D9E7404698477D
:102C2000D8F80020C6E7B8F80470BAE740469847DD
:102C3000013883B20093D6E7404698470138D8F868
:102C4000002087B2BDE700BFC1220008BD220008F6
:102C50002DE9F04F87B09DF84860109C9DF84450D6
:102C600001969EB399422ED89A46A24228D87F292F
:102C7000164694BF0023012308E09CF814904EEA06
:102C8000090E8CF814E00136B44219D33F2EFAD85D
:102C9000002BF8D14FEAD60C06F0070E4FF00109D1
:102CA00001EBCC1C09FA0EFE8444002DE5D19CF802
:102CB00014B001362BEA0E08B4428CF81480E5D229
:102CC00001318A45D1D207B0BDE8F08FA3EB0108EE
:102CD000B8F1000FB8BFC8F10008994280F05481E4
:102CE0003F2A4FF0010994BF002601267F2B029650
:102CF00094BF002701270097DEB9D7B9002D00F057
:102D0000588100264FEAD20E4FF0010C02F007075F
:102D100003EBCE1E029600260CFA07F700960EEB88
:102D2000000696F814C047EA0C073775994200F080
:102D30009781C44616460F467F2F15D83F2E13D8CD
:102D40004FEAD60E4FF0010B06F0070A07EBCE1E36
:102D50000BFA0AFA86449EF814B0002D00F0458163
:102D60004AEA0B0A8EF814A05FEA4C0E18BF4F44D3
:102D7000F04501DDC444013EBB42DDD1B242DBD1AE
:102D800000260496A4EB0209B9F1000FB8BFC9F1FF
:102D900000093F2C94BF00260126A242C9F1000879
:102DA0000396C0F03181002E40F05381009E002E2A
:102DB00040F04F814FF0FF360096002D00F02C813F
:102DC00000264FEAD40E4FF0010C04F007070396DB
:102DD00003EBCE160CFA07F7064496F814C047EA40
:102DE0000C073775A24200F03E81C44616461F46C6
:102DF00005927F2F15D83F2E13D84FEAD60E4FF0ED
:102E0000010B06F0070A07EBCE1E0BFA0AFA8644FE
:102E10009EF814B0002D00F0ED804AEA0B0A8EF8FF
:102E200014A0B8EB4C0F4FEA4C0E02DAACEB090CD5
:102E3000013FBEF1000F01D0009A1644BB42D8D129
:102E4000B442D6D1059A7F29A1EB030E94BF4FF06F
:102E500000094FF0010999428CBF4FF001084FF073
:102E6000FF38BEF1000FB8BFCEF1000EB9F1000F70
:102E700013D1039E8EB9E6084FF0010C04F007074A
:102E800001EBC6160CFA07F7064496F814C0002D9D
:102E900000F0DB8047EA0C073775049E2EBB7746AF
:102EA00026467F2B15D83F2E13D84FEAD60C4FF06D
:102EB000010B06F0070A03EBCC1C0BFA0AFA844458
:102EC0009CF814B0002D00F09A804AEA0B0A8CF8A6
:102ED00014A05FEA470C18BF4344E64501DD774480
:102EE000013E9942DDD1B442DBD1A2EB040EA242F5
:102EF0008CBF4FF001084FF0FF38BEF1000FB8BF94
:102F0000CEF1000ECEF1000CB9F1000F0FD1029BF3
:102F10006BB9D30802F00707012601EBC313002D9C
:102F200000F08B800344BE401F7D3E431E75019B15
:102F3000002B7FF4C8AE66460B467F2B13D83F2C80
:102F400011D8E70804F0070A4FF0010903EBC7178F
:102F5000002D40D0074409FA0AF997F814A049EA6D
:102F60000A0987F81490BCEB460F4FEA460702DACD
:102F7000A6EB0E06013B07B144449942DDD1A242C3
:102F8000DBD107B0BDE8F08F7F2B4FF0FF3994BF46
:102F9000002601263F2A009694BF002701270297AA
:102FA000002E7FF4C3AE002F7FF4C0AE002D7FF45F
:102FB000A8AED6084FF0010C02F00707029503EB0C
:102FC000C61600950CFA07F7064496F814C02CEACA
:102FD00007073775AAE6074409FA0AFA97F8149022
:102FE00029EA0A0987F81490BDE72BEA0A0A8EF845
:102FF00014A0B9E62BEA0A0A8EF814A011E72BEA0E
:103000000A0A8CF814A064E73EBB009E2EBB012682
:103010000096002D7FF4D4AEE6084FF0010C04F0CA
:103020000707039503EBC6160CFA07F7064496F854
:1030300014C02CEA07073775D4E6034406FA07F7ED
:103040001E7D26EA07061E7571E72CEA070737750D
:1030500023E74FF0FF360096C4E601260096C4E64B
:10306000012604968EE601260196ECE62DE9F04F46
:103070000C468BB01146904609901D469DF85800AD
:1030800011F8012B0890DDE9146332B1002211F828
:10309000010B01320028FAD192B22978687811FB2D
:1030A00002F201B212B222EAE272082B00F2AD8102
:1030B000DFE813F0000112011E013201400150014E
:1030C0006B01780109003788B088B6F906300744EB
:1030D000002BA7EB0207BFB2C0F2FC80B6F802C01B
:1030E00009980CEB6306034607808280D980A6EB23
:1030F00051018EB25E80B64A236811460192DA68A9
:103100008A4240F08F818020B84205D8DA68019960
:103110008A4240F09A817F279B68AE4AA7809342FB
:10312000039240F08A814020B04206D82368039A77
:103130009B68934240F084813F266B78E68004933D
:1031400098F800606B6895F800B00793002E00F0C7
:10315000AD80A6F12005EBB25E2B00F2348123682E
:10316000019ADB68934240F030818020A3885B4461
:103170009842C0F228812368039A9B68934240F0EA
:103180002B814020E188049A02918B189842C0F26A
:103190001A811046002A00F0298113466FF000477B
:1031A000B4F804C003FB05F3079DCDF81880AA1EF0
:1031B0001F440344DDF8209005EB4707059602EB1A
:1031C000430322465C469846934637F802AFA4B3C1
:1031D000012501F00702C8080CF1140305FA02F2F8
:1031E000654603EBC013002052B25B446FEA020E47
:1031F0000EE07F2D07D83F2905D81E78B9F1000FC2
:1032000012D016431E70013001330135844214D0B0
:103210000AFA00F63604ECD47F2DF4D83F29F2D810
:103220001E78B9F1000FECD001300EEA060601332A
:103230000135844203F8016CEAD1B84501F101017E
:10324000C3D15B46059EA346DDF818801C46226864
:10325000DC440199D3681FFA8CF58B4240F0C280A0
:103260008020854205D3D36801998B4240F0C78006
:103270007F259368039AA580934240F0B080402058
:10328000029B834207D32368039A9B68934240F0D2
:10329000B0803F230293029BE38098F80030B34252
:1032A00004D118F8016F002E7FF453AF09980BB0CA
:1032B000BDE8F08FB6F9040037880028B6F906306B
:1032C000B8BF0130002B07EB6007A7EB6207BFB266
:1032D000BFF604AF013301E7B6F90070099BB6F9F8
:1032E00002601F80BFB25E80B6B29A80D98002E7CA
:1032F000B6F904303788002BB6F90260B8BF013345
:1033000007EB6307099B9A80A7EB62025E80B6B267
:1033100097B2D9801F80EEE6B3883788B6F902608D
:103320001F44099B9A80BA1A5E80B6B297B2D980C0
:103330001F80E0E67388B6F806C0B6F900709C44BA
:10334000099BACEB00001F809A80BFB286B2D98087
:103350005E80D0E6B6F904C03788BCF1000F7388F0
:10336000B6F806E0B8BF0CF1010C099E07EB6C073C
:10337000B2800EEB0306A7EB6202301A099B97B2EC
:1033800086B2D9801F805E80B5E6B6F804C0378863
:103390007388B6F806E06744099EB2800EEB030618
:1033A000BA1AEAE7B6F90630B6F90000002BB6F80B
:1033B00002C0099E87B2B8BF013330800CEB6306B0
:1033C000099B184691E6002667E720469847CDE618
:1033D000C1220008BD22000820469847D2E62046B8
:1033E00098474DE72046984722683AE7B4F804C06A
:1033F0002DE720469847013883B202934BE72046D9
:1034000098470138226885B233E723680026124FB7
:10341000DA680999BA4201970E804E808E80CE807C
:1034200004D037462046904723686DE69B680B4AD8
:10343000A680934203923FF480AE2046984773E6FD
:1034400020469847013886B277E6204690470138F3
:10345000236887B260E600BFC1220008BD220008D1
:103460007A4B93F84120802A2AD09B6D3BB3784A4F
:103470001278072A23D8DFE802F02BB7BD9C7E60C4
:103480004104744A07EE903ADFED736A1368F8EE70
:10349000E77A93ED037AA7EEA67AB5EEC07AF0EE5E
:1034A000477AF1EE10FA00F1C580B0EE007AF4EE42
:1034B000477AF1EE10FA77FE277AC3ED037A704768
:1034C000634A1178A9B100219B6D1170002BF6D0D1
:1034D000624863490278D31848BF073381FB03C1B0
:1034E000DA171944C2EBA102C2EBC2029B1A0370A5
:1034F00070475A49097801311170B6E7554A07EE0D
:10350000903ADFED556A1368F8EEE77A93ED027AA8
:10351000A7EEA67AB5EEC07AF0EE477AF1EE10FA91
:1035200000F19180B0EE007AF4EE477AF1EE10FAF5
:1035300077FE277AC3ED027A7047464A07EE903A43
:10354000DFED456A1368F8EEE77A93ED017AA7EEAE
:10355000A67AB5EEC07AF0EE477AF1EE10FA6FD4A3
:10356000B0EE007AF4EE477AF1EE10FA77FE277AA1
:10357000C3ED017A7047374A07EE903ADFED366ABD
:103580001368F8EEE77A93ED007AA7EEA67AB5EE27
:10359000C07AF0EE477AF1EE10FA4ED4B0EE007A2F
:1035A000F4EE477AF1EE10FA77FE277AC3ED007A4F
:1035B000704707EE903A2B4ADFED276AF8EEE77A7C
:1035C00092ED007AA7EEA67AB5EEC07AF0EE477AD1
:1035D000F1EE10FA2BD49FED247AF4EE477AF1EE57
:1035E00010FA77FE277A1FE0204A137883F0010350
:1035F0001370704707EE903A1D4ADFED176AF8EE38
:10360000E77A92ED007AA7EEA67AB5EEC07AF0EEF0
:10361000477AF1EE10FA0AD4B7EE007AF4EE477A60
:10362000F1EE10FA77FE277AC2ED007A7047DFEDEF
:10363000117AF9E7DFED0F7A3FE7DFED0E7AB5E7B4
:10364000DFED0C7A94E7DFED0B7A73E76404002476
:1036500051040024540400240AD7233C50040024BD
:10366000932449926C0000246666A63F70000024F3
:1036700074000024000000002DE9F84F404F0026A0
:103680004048A7F1200ABB46DFF828913E4D2DEDBA
:10369000048B01F0C3FF3B4801F0DAFFFFF7E0FEC7
:1036A000F1B2384801F0CEFF9FED388AF7EE007A8C
:1036B000A9EC010A20EE088A85ED050A344CB846CB
:1036C00077EEC07AAAEC018AB0EE480AC5ED047A1A
:1036D000FCF72AFEB0EE409AB0EE480AFCF770FF05
:1036E000F0EE408AB4EC018AB0EE480AFCF71CFE0A
:1036F000B0EE407AB0EE480AB0EE478AFCF760FFC1
:1037000078EEC07A39EE487A67EEA77AE7EE077A64
:10371000F5EE407AB1EEE78AF1EE10FA2BD49FED88
:103720001D7AF7EE006ADFED1C7AB4EEC78AF1EE7F
:1037300010FA03D5C8EE077A76EEE77AA345E8ECEF
:10374000017ACFD1013608351037042EA8D113489D
:1037500003F004FC124C03461248237003F0FEFBF6
:10376000114B12491B68124A60700B601360BDEC6C
:10377000048BBDE8F88FB0EE670AFDF72BF8CEE7B3
:10378000489A0024640400248C9A0024DB0FC9406A
:10379000389A00243333B33F000000004005002472
:1037A00060040024460500246C000024000000C0D2
:1037B000440B06C0400400242DE9F04F91468FB021
:1037C00007460E46FFF758FFB9F1000F00F086805C
:1037D000A6F1040B0024DFF8B8A10C36DFF8B481A1
:1037E000654B197800297CD07B68A500DAF80020A9
:1037F00003EB84013B6892ED017AD1ED007A03EB93
:1038000084015E4B67EE877AD1ED006AD2ED005AF3
:1038100093ED076A93ED067A66EEA56AB96827EE1E
:10382000877AD3ED045A67EE867A93ED056A01EB49
:10383000840192ED035AA6EEA57AD2ED025AE6EE85
:10384000867A91ED006AF96826EE256AD3ED086A5A
:10385000D3ED095A01EB8401A6EE267AD1ED006A78
:10386000E6EE257AD3ED0A5A66EE856A93ED0B6A89
:1038700000230493A6EEA57A0593E6EE867A8DEDF5
:10388000027ACDED037A07AB03AA02A93C48009364
:1038900006AB0EF0DDFC09AB05AA04A9009308AB4A
:1038A00038480EF0D5FC06A802A95A4698ED007AD1
:1038B000DFED357AB1EC016A77EEC77AF0EC016A98
:1038C00052F8043F67EE867A2B44B242E6EE877ADE
:1038D000C3ED007AEAD10134A14581D10FB0BDE832
:1038E000F08FD7E90020BB68A50002EB840EFA68D0
:1038F00000EB84000A9103EB840CDAF8003002EB51
:103900008402D0ED004A93ED007A0EA8D3ED017A3F
:103910009EED004AD2ED005A64EEA74A24EE074A13
:10392000D3ED037A93ED027A0AAA9CED005A65EE74
:10393000A75A164B25EE075A0D91CDE90B11B3ECA2
:10394000016AD3ED037AD3ED076A64EEA77A93EDAB
:103950000B7AE4EE067AE5EE267AE5EE877AE2EC7B
:10396000017A9042EBD10A9A0B9B029203930C9A34
:103970000D9B0492059386E7700000248C9A002426
:10398000000000C0440B06C06666A63F489A0024AB
:10399000540400247400002408B4F0B50D46114608
:1039A000044682B0C81D00AF20F0070007F11C03D9
:1039B000ADEB000D53F8042B6E463B603046A84734
:1039C00004F108030F2805462360786010D8012809
:1039D0000BD13278227200222046083765605A5592
:1039E000BD46BDE8F04001B070470028F3D008E0C4
:1039F0000022391D20460EF0CDFE7A680346206075
:103A0000A2602A4618463146FCF7B2FF7D6823685B
:103A1000E1E700BF964B2DE9F04F03F58061A1B0BF
:103A2000002203F8012F9942FAD1924B01210C9206
:103A30000D9220AA1B78134403F8501C9DF83030D7
:103A400023B18D4B1B78134403F84F1C122310AC89
:103A50001AA900220EA80E941A930EF09BFE874D11
:103A600004461A9B00260E9049F2A81710930FCD1A
:103A70002D8820606160A2602582E3601A9B0E9A07
:103A80000F93D6540E9B7E4A0393D65193F800A011
:103A90007C4B5A7893F800905B6807920993BAF1CF
:103AA000000F79D0DDF80CB04E46AAF12003DAB24F
:103AB0005E2A01F20583744AB2F800E006920EEB2A
:103AC00006018029059101F3FB8251880232079893
:103AD00008920A180491402A01F3F282002845D086
:103AE000079A6FF0004C099902FB03F3049CA1F1C3
:103AF00002099C44134401EB4C0C09EB43093CF8CC
:103B0000027F7EB304F00702012549F2B810E308F2
:103B100095407146704400226DB200EBC3135848C3
:103B20006FEA050803440BE07F2904D83F2C02D834
:103B3000187828431870013201330131B24211D094
:103B400007FA02F00004EFD47F29F4D83F2CF2D812
:103B5000187801320133013108EA0000B24203F85B
:103B6000010CEDD1CC4504F10104C8D1049ABDF893
:103B700014303F2A089928BF3F227F2B0A8028BF94
:103B80007F23069A13809BF80030534504D11BF81D
:103B900001AFBAF1000F88D13C4B00213C4D0EA87B
:103BA0001A783C4B8A420F9A16BF062404242B46EF
:103BB00000940EF083FE49F2A8134FF4002230481F
:103BC0003049C250039B9DF831A093F800904B7888
:103BD00091F800B008934B680A93B9F1000F00F018
:103BE0009A80039B5E460493A9F12003DAB25E2A11
:103BF00001F26282244AB2F80080079208EB0601C3
:103C00008029069101F3588251880232089809925E
:103C10000A180591402A01F34F82002863D0089AC0
:103C20006FF0004E0A9902FB03F30598A1F1020B15
:103C30009E44134401EB4E0E0BEB430B3EF8027F08
:103C4000002E4CD000F00702012549F2B814C30839
:103C500095404146444400226DB204EBC313084C26
:103C60006FEA050C23442C465546A24622E000BFCD
:103C70001B9600245104002450040024B42B010896
:103C800064040024280200240C9600247000002400
:103C9000A42B0108AC2B01087F2906D83F2804D8A3
:103CA0001C7895B94AEA04041C70013201330131D1
:103CB000B24213D007FA02F42404EDD47F29F4D8D9
:103CC0003F28F2D81C78002DECD101320CEA040414
:103CD00001330131B24203F8014CEBD1AA46DE4573
:103CE00000F10100AAD1059ABDF818303F2A0999C0
:103CF00028BF3F227F2B0A8028BF7F23079A13808B
:103D0000049A13784B4506D112F8019F0492B9F139
:103D1000000F7FF469AF564B1CAC9FED567A102212
:103D2000D3ED007A14A8544B67EE877A5349049474
:103D3000FCEEE77ACDED007AFFF72EFE0523002298
:103D400014A8009311464E4B0EF0B8FD05461A9488
:103D5000044655F8083BAB4201F034831A9383685C
:103D60001C93626800231B92256023721A9A636079
:103D7000049B0E989A4201F05D8210AB984201F0CC
:103D8000A381DDE91B31CDE90E23109B10910028A2
:103D900001F09F811A901C9300231B9303701A98C3
:103DA000049B984201D00EF043FC149816AB984245
:103DB00001D00EF03DFC49F2A8134FF480123149B6
:103DC0009DF832A0CA50039B93F800902E4B5A786E
:103DD00093F800B05B6809920B93B9F1000F00F003
:103DE0009680039B5E460593A9F12003DAB25E2A12
:103DF00001F27681254AB2F80080089208EB0601AC
:103E00008029079101F36C815188023209980A9246
:103E10000A180691402A01F3638100285FD0099AAD
:103E20006FF0004E0B9902FB03F30698A1F1020B11
:103E30009E44134401EB4E0E0BEB430B3EF8027F06
:103E4000002E48D000F00702012549F2B814C3083B
:103E500095404146444400226DB204EBC313094C23
:103E60006FEA050C23442C465546A2461EE000BFCF
:103E7000740000240000C842C82B01088912000801
:103E8000CC2B010864040024280200240C96002492
:103E90007F2906D83F2804D81C7895B94AEA04043B
:103EA0001C70013201330131B24213D007FA02F41F
:103EB0002404EDD47F29F4D83F28F2D81C78002DB3
:103EC000ECD101320CEA040401330131B24203F8AF
:103ED000014CEBD1AA46F34500F10100AED1069AA0
:103EE000BDF81C303F2A0A9928BF3F227F2B0A8049
:103EF00028BF7F23089A1380059A13784B4506D173
:103F000012F8019F0592B9F1000F7FF46DAF554B88
:103F100010229FED557A14A8D3ED007A534967EE2D
:103F2000877A534BFCEEE77ACDED007AFFF734FD4C
:103F3000052100224F4B009114A811460EF0BEFC43
:103F4000049B054604461A9355F8083BAB4201F022
:103F500031821A9383681C93626800231B92256048
:103F600023721A9A6360049B0E989A4201F0728140
:103F700010AB984201F09A81DDE91B31CDE90E23A7
:103F8000109B1091002801F096811A901C93002339
:103F90001B9303701A98049B984201D00EF048FBC3
:103FA000149816AB984201D00EF042FB49F2A813C8
:103FB0004FF4C01230499DF833A0CA50039B93F8C8
:103FC00000902E4B5A7893F800B05B6809920B93DF
:103FD000B9F1000F00F09580039B5E460593A9F1AF
:103FE0002003DAB25E2A01F28F80254AB2F80080FF
:103FF000089208EB06018029079101F3858051881A
:10400000023209980A920A180691402A01F37C802C
:1040100000285ED0099A6FF0004E0B9902FB03F363
:104020000698A1F1020B9E44134401EB4E0E0BEBDC
:10403000430B3EF8027F002E47D000F00702012517
:1040400049F2B814C30895404146444400226DB279
:1040500004EBC313084C6FEA050C23442C46554669
:10406000A2461DE06C0000240000C842891200082E
:10407000C82B0108D42B0108640400242802002462
:104080000C9600247F2906D83F2804D81C7895B9BF
:104090004AEA04041C70013201330131B24213D0E8
:1040A00007FA02F42404EDD47F29F4D83F28F2D88B
:1040B0001C78002DECD101320CEA040401330131EB
:1040C000B24203F8014CEBD1AA46DE4500F10100F3
:1040D000AFD1069ABDF81C303F2A0A9928BF3F226B
:1040E0007F2B0A8028BF7F23089A1380059A1378B4
:1040F0004B4506D112F8019F0592B9F1000F7FF4EC
:104100006EAF534B10229FED537A14A8D3ED007A73
:10411000514967EE877A514BFCEEE77ACDED007A94
:10412000FFF73AFC042100224D4B009114A81146E0
:104130000EF0C4FB049B054604461A9355F8083B51
:10414000AB4201F02F811A9383681C9362680023AD
:104150001B92256023721A9A6360049B0E989A4200
:1041600001F00A8010AB984201F0C480DDE91B31F8
:10417000CDE90E23109B1091002801F0C0801A9009
:104180001C9300231B9303701A98049B984201D040
:104190000EF04EFA149816AB984201D00EF048FA81
:1041A00049F2A8134FF400122E482F49C250039B26
:1041B00091F8009093F800A04B7808934B680A930D
:1041C000BAF1000F00F08D80DDF80CB04E46AAF178
:1041D0002003DAB25E2A00F29387244AB2F800E0A4
:1041E00007920EEB06018029069100F3898751881A
:1041F0000232089809920A180591402A00F3808734
:10420000002857D0089A6FF0004C0A9902FB03F37C
:10421000059CA1F102099C44134401EB4C0C09EBF1
:1042200043093CF8027F002E40D004F0070201252C
:1042300049F2B810E30895407146704400226DB20F
:1042400000EBC31307486FEA050803441CE000BFF6
:10425000400400240000C84289120008C82B01084D
:10426000DC2B010864040024280200240C9600249E
:104270007F2904D83F2C02D81878284318700132BF
:1042800001330131964211D007FA02F00004EFD455
:104290007F29F4D83F2CF2D818780132013301314C
:1042A00008EA0000964203F8010CEDD1E14504F163
:1042B0000104B6D1059ABDF818303F2A099928BFE4
:1042C0003F227F2B0A8028BF7F23079A13809BF809
:1042D0000030534505D11BF801AFBAF1000F7FF450
:1042E00076AF554B10229FED557A14A81968544BA0
:1042F000D1ED007A534967EE877AFCEEE77ACDED8F
:10430000007AFFF749FB052100224F4B009114A8CA
:1043100011460EF0D3FA049B054604461A9355F84D
:10432000083BAB4201F036801A9383681C936268A5
:1043300000231B92256023721A9A6360049B0E98D7
:104340009A4200F0678710AB984200F0C787DDE91A
:104350001B31CDE90E23109B1091002800F0C3877C
:104360001A901C9300231B9303701A98049B984285
:1043700001D00EF05DF9149816AB984201D00EF002
:1043800057F949F2A813314A31499DF834A0CA506F
:10439000039B93F800902F4B5A7893F800B05B681A
:1043A00009920B93B9F1000F00F09780039B5E46D2
:1043B0000593A9F12003DAB25E2A00F29586264A17
:1043C000B2F80080089208EB06018029079100F3FB
:1043D0008B865188023209980A920A180691402A5F
:1043E00000F38286002860D0099A6FF0004E0B9986
:1043F00002FB03F30698A1F1020B9E44134401EB68
:104400004E0E0BEB430B3EF8027F002E49D000F01E
:104410000702012549F2B814C308954041464444B7
:1044200000226DB204EBC313094C6FEA050C234460
:104430002C465546A2461FE0540400240000C84202
:10444000C82B010889120008E42B01083F00200056
:1044500064040024280200240C9600247F2906D836
:104460003F2804D81C7895B94AEA04041C7001322C
:1044700001330131B24213D007FA02F42404EDD41F
:104480007F29F4D83F28F2D81C78002DECD10132D6
:104490000CEA040401330131B24203F8014CEBD1C0
:1044A000AA46F34500F10100ADD1069ABDF81C30D3
:1044B0003F2A0A9928BF3F227F2B0A8028BF7F23EB
:1044C000089A1380059A13784B4506D112F8019F7C
:1044D0000592B9F1000F7FF46CAF534B10229FEDA2
:1044E000537A14A8D3ED017A514967EE877A514B7C
:1044F000FCEEE77ACDED007AFFF74EFA04210022B8
:104500004D4B009114A811460EF0D8F9049B0546B6
:1045100004461A9355F8083BAB4200F063871A93A0
:1045200083681C93626800231B92256023721A9A89
:104530006360049B0E989A4200F09C8610AB9842F0
:1045400000F0A886DDE91B31CDE90E23109B109108
:10455000002800F0A4861A901C9300231B9303707C
:104560001A98049B984201D00EF062F8149816AB8A
:10457000984201D00EF05CF849F2A8134FF42012D3
:104580002E482F49C250039B91F8009093F800A049
:104590004B7808934B680A93BAF1000F00F08D80B6
:1045A000DDF80CB04E46AAF12003DAB25E2A00F222
:1045B000A385244AB2F800E007920EEB0601802999
:1045C000069100F3998551880232089809920A18D9
:1045D0000591402A00F39085002857D0089A6FF083
:1045E000004C0A9902FB03F3059CA1F102099C44CB
:1045F000134401EB4C0C09EB43093CF8027F002EFD
:1046000040D004F00702012549F2B810E3089540B4
:104610007146704400226DB200EBC31307486FEA85
:10462000050803441CE000BF400400240000C84209
:1046300089120008C82B0108EC2B0108640400242F
:10464000280200240C9600247F2904D83F2C02D88D
:10465000187828431870013201330131964211D085
:1046600007FA02F00004EFD47F29F4D83F2CF2D8E7
:10467000187801320133013108EA0000964203F84C
:10468000010CEDD1E14504F10104B6D1059ABDF864
:1046900018303F2A099928BF3F227F2B0A8028BF64
:1046A0007F23079A13809BF80030534505D11BF8F0
:1046B00001AFBAF1000F7FF476AF554B10229FED9A
:1046C000557A14A81B685449D3ED017A534B67EE11
:1046D000877AFCEEE77ACDED007AFFF75DF90521E8
:1046E00000224F4B009114A811460EF0E7F8049BEE
:1046F000054604461A9355F8083BAB4200F06A861B
:104700001A9383681C93626800231B9225602372AE
:104710001A9A6360049B0E989A4200F06B8510AB66
:10472000984200F0CF85DDE91B31CDE90E23109BC7
:104730001091002800F0CB851A901C9300231B9346
:1047400003701A98049B984201D00DF071FF1498E1
:1047500016AB984201D00DF06BFF49F2A813314A15
:1047600031499DF835A0CA50039B93F800902F4B18
:104770005A7893F800B05B6809920B93B9F1000F77
:1047800000F09780039B5E460593A9F12003DAB2FF
:104790005E2A00F2AD84264AB2F80080089208EB47
:1047A00006018029079100F3A384518802320998F9
:1047B0000A920A180691402A00F39A84002860D0D1
:1047C000099A6FF0004E0B9902FB03F30698A1F1D2
:1047D000020B9E44134401EB4E0E0BEB430B3EF8D1
:1047E000027F002E49D000F00702012549F2B814DB
:1047F000C30895404146444400226DB204EBC31304
:10480000094C6FEA050C23442C465546A2461FE08E
:10481000540400240000C84289120008C82B010873
:10482000E42B01083F00280064040024280200242F
:104830000C9600247F2906D83F2804D81C7895B907
:104840004AEA04041C70013201330131964213D04C
:1048500007FA02F42404EDD47F29F4D83F28F2D8D3
:104860001C78002DECD101320CEA04040133013133
:10487000964203F8014CEBD1AA46F34500F1010042
:10488000ADD1069ABDF81C303F2A0A9928BF3F22B5
:104890007F2B0A8028BF7F23089A1380059A1378FC
:1048A0004B4506D112F8019F0592B9F1000F7FF434
:1048B0006CAF534B10229FED537A14A8D3ED027ABC
:1048C000514967EE877A514BFCEEE77ACDED007ADD
:1048D000FFF762F8042100224D4B009114A8114605
:1048E0000DF0ECFF049B054604461A9355F8083B6F
:1048F000AB4200F07F851A9383681C9362680023A3
:104900001B92256023721A9A6360049B0E989A4248
:1049100000F0518410AB984200F0F884DDE91B31BF
:10492000CDE90E23109B1091002800F0F4841A901A
:104930001C9300231B9303701A98049B984201D088
:104940000DF076FE149816AB984201D00DF070FE73
:1049500049F2A8134FF440122E482F49C250039B2E
:1049600091F8009093F800A04B7808934B680A9355
:10497000BAF1000F00F08D80DDF80CB04E46AAF1C0
:104980002003DAB25E2A00F2C683244AB2F800E0BD
:1049900007920EEB06018029069100F3BC83518833
:1049A0000232089809920A180591402A00F3B3834D
:1049B000002857D0089A6FF0004C0A9902FB03F3C5
:1049C000059CA1F102099C44134401EB4C0C09EB3A
:1049D00043093CF8027F002E40D004F00702012575
:1049E00049F2B810E30895407146704400226DB258
:1049F00000EBC31307486FEA050803441CE000BF3F
:104A0000400400240000C84289120008C82B010895
:104A1000F42B010864040024280200240C960024CE
:104A20007F2904D83F2C02D8187828431870013207
:104A300001330131964211D007FA02F00004EFD49D
:104A40007F29F4D83F2CF2D8187801320133013194
:104A500008EA0000964203F8010CEDD1E14504F1AB
:104A60000104B6D1059ABDF818303F2A099928BF2C
:104A70003F227F2B0A8028BF7F23079A13809BF851
:104A80000030534505D11BF801AFBAF1000F7FF498
:104A900076AF554B10229FED557A14A81B685449E8
:104AA000D3ED027A534B67EE877AFCEEE77ACDEDD1
:104AB000007AFEF771FF052100224F4B009114A8E8
:104AC00011460DF0FBFE049B054604461A9355F86B
:104AD000083BAB4200F048841A9383681C936268D9
:104AE00000231B92256023721A9A6360049B0E9820
:104AF0009A4200F0518310AB984200F01E84DDE929
:104B00001B31CDE90E23109B1091002800F01A8470
:104B10001A901C9300231B9303701A98049B9842CD
:104B200001D00DF085FD149816AB984201D00DF020
:104B30007FFD49F2A813314A31499DF836A0CA5089
:104B4000039B93F800B02F4B5A7893F800905B6862
:104B500009920B93BBF1000F00F09780039B4E4628
:104B60000593ABF12003DAB25E2A00F2DA82264A1C
:104B7000B2F80080089208EB06018029079100F343
:104B8000D0825188023209980A920A180691402A66
:104B900000F3C782002860D0099A6FF0004E0B998D
:104BA00002FB03F30698A1F102099E44134401EBB2
:104BB0004E0E09EB43093EF8027F002E49D000F06B
:104BC0000702012549F2B814C30895404146444400
:104BD00000226DB204EBC313094C6FEA050C2344A9
:104BE0002C465546A2461FE0540400240000C8424B
:104BF00089120008C82B0108E42B01083F0030008F
:104C000064040024280200240C9600247F2906D87E
:104C10003F2804D81C7895B94AEA04041C70013274
:104C200001330131964213D007FA02F42404EDD483
:104C30007F29F4D83F28F2D81C78002DECD101321E
:104C40000CEA040401330131964203F8014CEBD124
:104C5000AA46F14500F10100ADD1069ABDF81C301D
:104C60003F2A0A9928BF3F227F2B0A8028BF7F2333
:104C7000089A1380059A13785B4506D112F801BF94
:104C80000592BBF1000F7FF46CAF534B10229FEDE8
:104C9000537A14A8D3ED037A514967EE877A514BC2
:104CA000FCEEE77ACDED007AFEF776FE04210022D5
:104CB0004D4B009114A811460DF000FE049B0546D3
:104CC00004461A9355F8083BAB4200F05C831A93F4
:104CD00083681C93626800231B92256023721A9AD2
:104CE0006360049B0E989A4200F01E8210AB9842BB
:104CF00000F02F83DDE91B31CDE90E23109B1091CD
:104D0000002800F02B831A901C9300231B93037040
:104D10001A98049B984201D00DF08AFC149816ABA7
:104D2000984201D00DF084FC49F2A8134FF46012B0
:104D30002E482F49C250039B91F8009093F800A091
:104D40004B7808934B680A93BAF1000F00F08D80FE
:104D5000DDF80CB04E46AAF12003DAB25E2A00F26A
:104D6000DD81244AB2F800E007920EEB06018029AB
:104D7000069100F3D38151880232089809920A18EB
:104D80000591402A00F3CA81002857D0089A6FF095
:104D9000004C0A9902FB03F3059CA1F102099C4413
:104DA000134401EB4C0C09EB43093CF8027F002E45
:104DB00040D004F00702012549F2B810E3089540FD
:104DC0007146704400226DB200EBC31307486FEACE
:104DD000050803441CE000BF400400240000C84252
:104DE00089120008C82B0108FC2B01086404002468
:104DF000280200240C9600247F2904D83F2C02D8D6
:104E0000187828431870013201330131964211D0CD
:104E100007FA02F00004EFD47F29F4D83F2CF2D82F
:104E2000187801320133013108EA0000964203F894
:104E3000010CEDD1E14504F10104B6D1059ABDF8AC
:104E400018303F2A099928BF3F227F2B0A8028BFAC
:104E50007F23079A13809BF80030534505D11BF838
:104E600001AFBAF1000F7FF476AFB74B10229FED80
:104E7000B77A14A81B68B649D3ED037AB54B67EE31
:104E8000877AFCEEE77ACDED007AFEF785FD052303
:104E9000002214A800931146AF4B0DF00FFD049BA8
:104EA000054604461A9355F8083BAB4200F064826D
:104EB0001A9383681C93626800231B9225602372F7
:104EC0001A9A6360049B0E989A4200F0848110AB9A
:104ED000984200F02782DDE91B31CDE90E23109BBB
:104EE0001091002800F023821A901C9300231B933A
:104EF00003701A98049B984201D00DF099FB149806
:104F000016AB984201D00DF093FB49F2A813934AD7
:104F100093499DF83790CA50039B93F800B0914B8A
:104F20005A7893F800A05B6807920993BBF1000FD1
:104F300000F082805646ABF12003DAB25E2A00F21E
:104F4000E780894AB2F80080069208EB06018029C2
:104F5000059100F3DD8051880232079808920A1803
:104F60000491402A00F3D48000284DD0079A6FF0B6
:104F7000004E099902FB03F30498A1F1020A9E4432
:104F8000134401EB4E0E0AEB430A3EF8027FBEB318
:104F900000F00702012549F2B814C30895404146C4
:104FA000444400226DB204EBC3136D4C6FEA050C50
:104FB00023442C464D46A1460DE07F2906D83F28C4
:104FC00004D81C7895B949EA04041C7001320133F5
:104FD0000131964213D007FA02F42404EDD47F295C
:104FE000F4D83F28F2D81C78002DECD101320CEA1D
:104FF000040401330131964203F8014CEBD1A94678
:10500000D64500F10100C0D1049ABDF814303F2A02
:10501000089928BF3F227F2B0A8028BF7F23069A4A
:105020001380039A13785B4506D112F801BF0392EF
:10503000BBF1000F7FF47FAF4C4EB02400214C48F1
:105040008DF8684001340D4602F012FF64230122FE
:105050001AA9484803F01AFF29464548E4B28DF8DA
:10506000685002F005FF012264231AA9414803F0A9
:105070000DFF102329463E488DF8683002F0F8FEF7
:10508000642301221AA93B4803F000FF012138489C
:1050900002F0EEFE8022314664233648164403F0C7
:1050A000F5FEB82CCAD10E9810AB984201D00DF085
:1050B000BFFA21B0BDE8F08F4FF00009FEF720BE27
:1050C0004FF0000AFEF75FBD1B991C9B0E92CDE9C5
:1050D0000F13049B1A931CAB18460493FEF75CBE97
:1050E0004FF00009FEF708BF4FF00009FFF7EAB9DB
:1050F0004FF00009FFF7D2BB4FF0000AFFF7D3BA19
:105100004FF0000AFFF7E3B84FF00009FEF7EEBFDB
:105110004FF0000B85E74FF0000AB0E44FF0000AB3
:1051200099E64FF0000BA5E51B9A3AB1012A00F071
:1051300093810499FBF71CFC1B9A0E9800230F9295
:1051400083541A98E1E500BF540400240000C842CB
:1051500089120008C82B0108E42B01083F00380021
:1051600064040024280200240C9600241C960024C9
:1051700018960024109600241B9A3AB1012A00F0D8
:1051800071810499FBF7F4FB1B9A0E9800230F9290
:1051900083541A98FEF7F5BF1B9A3AB1012A00F022
:1051A00037810499FBF7E4FB1B9A0E9800230F92BA
:1051B00083541A98AEE41B9A3AB1012A00F0408158
:1051C0000499FBF7D5FB1B9A0E9800230F9283548A
:1051D0001A98FFF7AEBB1B9A3AB1012A00F048813A
:1051E0000499FBF7C5FB1B9A0E9800230F9283547A
:1051F0001A987BE61B9A3AB1012A00F01B810499A8
:10520000FBF7B6FB1B9A0E9800230F9283541A9853
:10521000FFF794BA1B9A3AB1012A00F0178104995A
:10522000FBF7A6FB1B9A0E9800230F9283541A9843
:10523000FFF798B81B9A3AB1012A00F0F58004995B
:10524000FBF796FB1B9A0E9800230F9283541A9833
:10525000FEF7A2BD1B9A3AB1012A00F0DF80049943
:10526000FBF786FB1B9A0E9800230F9283541A9823
:10527000FEF78DBE1B9A3AB1012A00F0C380049953
:10528000FBF776FB1B9A0E9800230F9283541A9813
:10529000FFF763B91B991C9B0E92CDE90F13049B7A
:1052A0001A931CAB18460493FFF757B91B991C9B24
:1052B0000E92CDE90F13049B1A931CAB184604936E
:1052C000FEF765BE1B991C9B0E92CDE90F13049B44
:1052D0001A931CAB18460493FFF730BA1B991C9B1A
:1052E0000E92CDE90F13049B1A931CAB184604933E
:1052F000FFF738B81B991C9B0E92CDE90F13049B46
:105300001A931CAB18460493FEF73BBF1B991C9BDA
:105310000E92CDE90F13049B1A931CAB184604930D
:10532000FFF707BB1B991C9B0E92CDE90F13049B43
:105330001A931CAB18460493D8E51B991C9B0E923C
:10534000CDE90F13049B1A931CAB18460493FFF787
:10535000E1BB1B991C9B0E92CDE90F13049B1A9382
:105360001CAB18460493D0E4049E28686968AA68B8
:10537000EB680FC6FFF7B3BB049E28686968AA688C
:10538000EB680FC697E5049E28686968AA68EB6811
:105390000FC69FE4049E28686968AA68EB680FC678
:1053A000FEF7C5BF049E28686968AA68EB680FC647
:1053B000FEF7CCBE049E28686968AA68EB680FC631
:1053C000FEF7CABD049E28686968AA68EB680FC624
:1053D000FEF7C7BC049E28686968AA68EB680FC618
:1053E000FFF791B9049E28686968AA68EB680FC640
:1053F000FFF798B8049E28686968AA68EB680FC62A
:10540000FFF77CBA9DF8703003701B9A0E983BE74B
:105410009DF8703003701B9A0E98C7E69DF87030A7
:1054200003701B9A0E981FE79DF8703003701B9A4B
:105430000E9809E79DF8703003701B9A0E98E3E60A
:105440009DF8703003701B9A0E98BEE69DF8703080
:1054500003701B9A0E98E7E69DF8703003701B9A54
:105460000E986BE69DF8703003701B9A0E988DE6CF
:105470009DF8703003701B9A0E98B6E6F8B50021BF
:10548000124C134800F02CFB124D1148124F00F043
:10549000BFF8124E204685ED000A0CF01DFE3B6859
:1054A000304695ED000A0E4D236065600CF014FE49
:1054B0003A6807483260756000F0ACF80949044862
:1054C00000F0A4F8FEF7A6FAFCE700BF000000C059
:1054D00064040024889A00246C000024440B06C055
:1054E00000A08C46B93700082DE9F0413B48002464
:1054F00049F2901149F29415DFF8FC8049F29816B0
:1055000049F29C13DFF8F4C0354F4FF60F0E4450AC
:1055100049F2A012845149F2A21140F803C049F2A5
:10552000A416DFF8DCC049F2AC1340F8058007256B
:1055300084B020F802E040F806C03A4645546D4673
:10554000C450284944610462C0F8E8400CF0F6FFFA
:10555000254B2146202203F11000244EDFF8A480C1
:10556000C3E90044C3E90244FBF704FBDFF898C039
:1055700096E80F000CF1100E10368EE80F00CCE903
:105580000044CCE902440CF1200021464022FBF704
:10559000F1FA3A46204616490CF0D0FFC8F8084008
:1055A00096E80F00C8E900442C4685E80F0010205B
:1055B0000DF042F805460FCC05F110042860696033
:1055C0004046AA603A460B49C8F80050EB60C8E96B
:1055D000014404B0BDE8F0410CF0B0BF6404002405
:1055E00000000024992200088C9A0024D429010884
:1055F000B9220008C52200080107010680707FF06B
:105600001C2D010854040024289A002400F03CBBFF
:1056100000F03EBB183002F0A7B800BF10B504463A
:105620005C3001F019FC04F17C0001F015FC04F180
:105630009C0001F011FC04F1BC00BDE8104001F039
:105640000BBC00BF00EB411191ED1A0A704700BF7F
:105650003C3001F04BBC00BF2DE9F04332499DB016
:1056600004464FF4417009910121002201230326D1
:105670000127129100252D494FF001084FF0000934
:10568000ADF82C001B200A910895CDE90E23CDE939
:105690001023CDE91A23CDE90C67CDE91667CDE9D2
:1056A000188900F0DBFA034618204FF07C57ADF85C
:1056B0004E3000F0D3FA03461C203026ADF84C30B3
:1056C00000F0CCFA03461920ADF8503000F0C6FACD
:1056D00003461A20ADF8543000F0C0FA002200232F
:1056E000054608A902A8ADF852500325CDE90223CA
:1056F00003F032F812A903A803F02EF81D2000F0E1
:10570000ADFAADF80400019800F040FB05A904F1E2
:1057100014000797DDE90223CDE9056501F00CFBD4
:105720001DB0BDE8F08300BF0402040404050406B4
:10573000F0B506460F20002406F1180706F15C05B7
:105740002DED028B99B09FED258A00F087FA034674
:1057500007A8ADF80C30039901F056FC102000F0BA
:105760007DFA03460DF12D00ADF81030049901F0DB
:105770004BFC152000F072FA03460DF13E00ADF827
:105780001430059901F040FC122000F067FA03463E
:105790000DF14F00ADF81830069901F035FC0423E7
:1057A00007A938461A4601F03DFCE1B2384601F03F
:1057B000F1FF014601343046019100F06DFA2846B0
:1057C000F0EE480A002301990122203501F026FB62
:1057D000042CEAD119B0BDEC028BF0BD6F12033B73
:1057E0002DE9F04106468CB0092049F2AC1400F0D6
:1057F00035FA034634441E20ADF8003000F02EFA8E
:10580000ADF8020001252646009BA572A04626F8A9
:10581000083F3046019302F041FABDF806300027F8
:10582000A57128F8043F404602F038FA0022002310
:105830004FF0080C02A92046CDF81CC00695CDE912
:105840000423CDE9082302220223CDE90A23A2A3DF
:10585000D3E90023CDE9022303F094FA3946404608
:1058600002F006FB0A2004F0D5FA2946404602F071
:10587000FFFA0A2004F0CEFAAE23304639468DF8FE
:10588000083002F0F5FA2A4602A92046642303F004
:10589000FDFAD523304639468DF8083002F0E8FA93
:1058A0002A4602A92046642303F0F0FA80233046FA
:1058B00039468DF8083002F0DBFA2A4602A9204664
:1058C000642303F0E3FAA823304639468DF8083004
:1058D00002F0CEFA2A4602A92046642303F0D6FA43
:1058E0003F23304639468DF8083002F0C1FA2A4687
:1058F00002A92046642303F0C9FADA233046394668
:105900008DF8083002F0B4FA2A4602A92046642332
:1059100003F0BCFA1223304639468DF8083002F005
:10592000A7FA2A4602A92046642303F0AFFAD3233C
:10593000304639468DF8083002F09AFA2A4602A914
:105940006423204603F0A2FA304639468DF80870E9
:1059500002F08EFA2A4602A92046642303F096FA42
:105960004023304639468DF8083002F081FA2A4645
:1059700002A92046642303F089FAA623304639465B
:105980008DF8083002F074FA2A4602A920466423F2
:1059900003F07CFAA423304639468DF8083002F033
:1059A00067FA2A4602A92046642303F06FFA8D2382
:1059B000304639468DF8083002F05AFA2A4602A9D4
:1059C0002046642303F062FA1423304639468DF8EA
:1059D000083002F04DFA2A4602A92046642303F05B
:1059E00055FAA123304639468DF8083002F040FAC6
:1059F0002A4602A92046642303F048FAC823304609
:105A000039468DF8083002F033FA2A4602A92046BA
:105A1000642303F03BFA8123304639468DF8083081
:105A200002F026FA2A4602A92046642303F02EFA41
:105A30008F23304639468DF8083002F019FA2A468D
:105A400002A92046642303F021FAD92330463946BF
:105A50008DF8083002F00CFA2A4602A92046642389
:105A600003F014FA2523304639468DF8083002F049
:105A7000FFF92A4602A92046642303F007FADB2334
:105A8000304639468DF8083002F0F2F92A4602A96C
:105A90002046642303F0FAF93423304639468DF862
:105AA000083002F0E5F92A4602A92046642303F0F3
:105AB000EDF9AF23304639468DF8083002F0D8F9B9
:105AC0002A4602A96423204603F0E0F90CB0BDE8A1
:105AD000F08100BFAFF30080060B0B000105060A42
